{
	"Marketplace.sol": {
		"GameNFTShop": {
			"abi": [
				{
					"inputs": [
						{
							"internalType": "address",
							"name": "_treasury",
							"type": "address"
						},
						{
							"internalType": "address",
							"name": "_initialOwner",
							"type": "address"
						}
					],
					"stateMutability": "nonpayable",
					"type": "constructor"
				},
				{
					"inputs": [
						{
							"internalType": "address",
							"name": "owner",
							"type": "address"
						}
					],
					"name": "OwnableInvalidOwner",
					"type": "error"
				},
				{
					"inputs": [
						{
							"internalType": "address",
							"name": "account",
							"type": "address"
						}
					],
					"name": "OwnableUnauthorizedAccount",
					"type": "error"
				},
				{
					"anonymous": false,
					"inputs": [
						{
							"indexed": true,
							"internalType": "uint256",
							"name": "listingId",
							"type": "uint256"
						},
						{
							"indexed": true,
							"internalType": "address",
							"name": "nftContract",
							"type": "address"
						},
						{
							"indexed": true,
							"internalType": "uint256",
							"name": "tokenId",
							"type": "uint256"
						}
					],
					"name": "NFTDelisted",
					"type": "event"
				},
				{
					"anonymous": false,
					"inputs": [
						{
							"indexed": true,
							"internalType": "uint256",
							"name": "listingId",
							"type": "uint256"
						},
						{
							"indexed": true,
							"internalType": "address",
							"name": "nftContract",
							"type": "address"
						},
						{
							"indexed": true,
							"internalType": "uint256",
							"name": "tokenId",
							"type": "uint256"
						},
						{
							"indexed": false,
							"internalType": "address",
							"name": "paymentToken",
							"type": "address"
						},
						{
							"indexed": false,
							"internalType": "uint256",
							"name": "price",
							"type": "uint256"
						}
					],
					"name": "NFTListed",
					"type": "event"
				},
				{
					"anonymous": false,
					"inputs": [
						{
							"indexed": true,
							"internalType": "uint256",
							"name": "listingId",
							"type": "uint256"
						},
						{
							"indexed": true,
							"internalType": "address",
							"name": "buyer",
							"type": "address"
						},
						{
							"indexed": true,
							"internalType": "address",
							"name": "nftContract",
							"type": "address"
						},
						{
							"indexed": false,
							"internalType": "uint256",
							"name": "tokenId",
							"type": "uint256"
						},
						{
							"indexed": false,
							"internalType": "uint256",
							"name": "price",
							"type": "uint256"
						}
					],
					"name": "NFTPurchased",
					"type": "event"
				},
				{
					"anonymous": false,
					"inputs": [
						{
							"indexed": true,
							"internalType": "address",
							"name": "previousOwner",
							"type": "address"
						},
						{
							"indexed": true,
							"internalType": "address",
							"name": "newOwner",
							"type": "address"
						}
					],
					"name": "OwnershipTransferred",
					"type": "event"
				},
				{
					"anonymous": false,
					"inputs": [
						{
							"indexed": false,
							"internalType": "address",
							"name": "account",
							"type": "address"
						}
					],
					"name": "Paused",
					"type": "event"
				},
				{
					"anonymous": false,
					"inputs": [
						{
							"indexed": true,
							"internalType": "uint256",
							"name": "listingId",
							"type": "uint256"
						},
						{
							"indexed": false,
							"internalType": "uint256",
							"name": "oldPrice",
							"type": "uint256"
						},
						{
							"indexed": false,
							"internalType": "uint256",
							"name": "newPrice",
							"type": "uint256"
						}
					],
					"name": "PriceUpdated",
					"type": "event"
				},
				{
					"anonymous": false,
					"inputs": [
						{
							"indexed": true,
							"internalType": "address",
							"name": "oldTreasury",
							"type": "address"
						},
						{
							"indexed": true,
							"internalType": "address",
							"name": "newTreasury",
							"type": "address"
						}
					],
					"name": "TreasuryUpdated",
					"type": "event"
				},
				{
					"anonymous": false,
					"inputs": [
						{
							"indexed": false,
							"internalType": "address",
							"name": "account",
							"type": "address"
						}
					],
					"name": "Unpaused",
					"type": "event"
				},
				{
					"inputs": [
						{
							"internalType": "uint256[]",
							"name": "listingIds",
							"type": "uint256[]"
						}
					],
					"name": "batchBuyNFTs",
					"outputs": [],
					"stateMutability": "payable",
					"type": "function"
				},
				{
					"inputs": [
						{
							"internalType": "address[]",
							"name": "nftContracts",
							"type": "address[]"
						},
						{
							"internalType": "uint256[]",
							"name": "tokenIds",
							"type": "uint256[]"
						},
						{
							"internalType": "address[]",
							"name": "paymentTokens",
							"type": "address[]"
						},
						{
							"internalType": "uint256[]",
							"name": "prices",
							"type": "uint256[]"
						}
					],
					"name": "batchListNFTs",
					"outputs": [
						{
							"internalType": "uint256[]",
							"name": "",
							"type": "uint256[]"
						}
					],
					"stateMutability": "nonpayable",
					"type": "function"
				},
				{
					"inputs": [
						{
							"internalType": "uint256",
							"name": "listingId",
							"type": "uint256"
						}
					],
					"name": "buyNFT",
					"outputs": [],
					"stateMutability": "payable",
					"type": "function"
				},
				{
					"inputs": [
						{
							"internalType": "uint256",
							"name": "listingId",
							"type": "uint256"
						}
					],
					"name": "delistNFT",
					"outputs": [],
					"stateMutability": "nonpayable",
					"type": "function"
				},
				{
					"inputs": [
						{
							"internalType": "uint256",
							"name": "listingId",
							"type": "uint256"
						}
					],
					"name": "getListing",
					"outputs": [
						{
							"components": [
								{
									"internalType": "uint256",
									"name": "listingId",
									"type": "uint256"
								},
								{
									"internalType": "address",
									"name": "nftContract",
									"type": "address"
								},
								{
									"internalType": "uint256",
									"name": "tokenId",
									"type": "uint256"
								},
								{
									"internalType": "address",
									"name": "paymentToken",
									"type": "address"
								},
								{
									"internalType": "uint256",
									"name": "price",
									"type": "uint256"
								},
								{
									"internalType": "address",
									"name": "seller",
									"type": "address"
								},
								{
									"internalType": "bool",
									"name": "isActive",
									"type": "bool"
								}
							],
							"internalType": "struct GameNFTShop.Listing",
							"name": "",
							"type": "tuple"
						}
					],
					"stateMutability": "view",
					"type": "function"
				},
				{
					"inputs": [],
					"name": "getListingCounter",
					"outputs": [
						{
							"internalType": "uint256",
							"name": "",
							"type": "uint256"
						}
					],
					"stateMutability": "view",
					"type": "function"
				},
				{
					"inputs": [
						{
							"internalType": "uint256[]",
							"name": "listingIds",
							"type": "uint256[]"
						}
					],
					"name": "getListings",
					"outputs": [
						{
							"components": [
								{
									"internalType": "uint256",
									"name": "listingId",
									"type": "uint256"
								},
								{
									"internalType": "address",
									"name": "nftContract",
									"type": "address"
								},
								{
									"internalType": "uint256",
									"name": "tokenId",
									"type": "uint256"
								},
								{
									"internalType": "address",
									"name": "paymentToken",
									"type": "address"
								},
								{
									"internalType": "uint256",
									"name": "price",
									"type": "uint256"
								},
								{
									"internalType": "address",
									"name": "seller",
									"type": "address"
								},
								{
									"internalType": "bool",
									"name": "isActive",
									"type": "bool"
								}
							],
							"internalType": "struct GameNFTShop.Listing[]",
							"name": "",
							"type": "tuple[]"
						}
					],
					"stateMutability": "view",
					"type": "function"
				},
				{
					"inputs": [
						{
							"internalType": "address",
							"name": "",
							"type": "address"
						},
						{
							"internalType": "uint256",
							"name": "",
							"type": "uint256"
						}
					],
					"name": "isListed",
					"outputs": [
						{
							"internalType": "bool",
							"name": "",
							"type": "bool"
						}
					],
					"stateMutability": "view",
					"type": "function"
				},
				{
					"inputs": [
						{
							"internalType": "address",
							"name": "nftContract",
							"type": "address"
						},
						{
							"internalType": "uint256",
							"name": "tokenId",
							"type": "uint256"
						}
					],
					"name": "isNFTListed",
					"outputs": [
						{
							"internalType": "bool",
							"name": "",
							"type": "bool"
						}
					],
					"stateMutability": "view",
					"type": "function"
				},
				{
					"inputs": [
						{
							"internalType": "address",
							"name": "nftContract",
							"type": "address"
						},
						{
							"internalType": "uint256",
							"name": "tokenId",
							"type": "uint256"
						},
						{
							"internalType": "address",
							"name": "paymentToken",
							"type": "address"
						},
						{
							"internalType": "uint256",
							"name": "price",
							"type": "uint256"
						}
					],
					"name": "listNFT",
					"outputs": [
						{
							"internalType": "uint256",
							"name": "",
							"type": "uint256"
						}
					],
					"stateMutability": "nonpayable",
					"type": "function"
				},
				{
					"inputs": [
						{
							"internalType": "uint256",
							"name": "",
							"type": "uint256"
						}
					],
					"name": "listings",
					"outputs": [
						{
							"internalType": "uint256",
							"name": "listingId",
							"type": "uint256"
						},
						{
							"internalType": "address",
							"name": "nftContract",
							"type": "address"
						},
						{
							"internalType": "uint256",
							"name": "tokenId",
							"type": "uint256"
						},
						{
							"internalType": "address",
							"name": "paymentToken",
							"type": "address"
						},
						{
							"internalType": "uint256",
							"name": "price",
							"type": "uint256"
						},
						{
							"internalType": "address",
							"name": "seller",
							"type": "address"
						},
						{
							"internalType": "bool",
							"name": "isActive",
							"type": "bool"
						}
					],
					"stateMutability": "view",
					"type": "function"
				},
				{
					"inputs": [
						{
							"internalType": "address",
							"name": "",
							"type": "address"
						},
						{
							"internalType": "address",
							"name": "",
							"type": "address"
						},
						{
							"internalType": "uint256",
							"name": "",
							"type": "uint256"
						},
						{
							"internalType": "bytes",
							"name": "",
							"type": "bytes"
						}
					],
					"name": "onERC721Received",
					"outputs": [
						{
							"internalType": "bytes4",
							"name": "",
							"type": "bytes4"
						}
					],
					"stateMutability": "pure",
					"type": "function"
				},
				{
					"inputs": [],
					"name": "owner",
					"outputs": [
						{
							"internalType": "address",
							"name": "",
							"type": "address"
						}
					],
					"stateMutability": "view",
					"type": "function"
				},
				{
					"inputs": [],
					"name": "pause",
					"outputs": [],
					"stateMutability": "nonpayable",
					"type": "function"
				},
				{
					"inputs": [],
					"name": "paused",
					"outputs": [
						{
							"internalType": "bool",
							"name": "",
							"type": "bool"
						}
					],
					"stateMutability": "view",
					"type": "function"
				},
				{
					"inputs": [],
					"name": "renounceOwnership",
					"outputs": [],
					"stateMutability": "nonpayable",
					"type": "function"
				},
				{
					"inputs": [
						{
							"internalType": "address",
							"name": "newOwner",
							"type": "address"
						}
					],
					"name": "transferOwnership",
					"outputs": [],
					"stateMutability": "nonpayable",
					"type": "function"
				},
				{
					"inputs": [],
					"name": "treasury",
					"outputs": [
						{
							"internalType": "address",
							"name": "",
							"type": "address"
						}
					],
					"stateMutability": "view",
					"type": "function"
				},
				{
					"inputs": [],
					"name": "unpause",
					"outputs": [],
					"stateMutability": "nonpayable",
					"type": "function"
				},
				{
					"inputs": [
						{
							"internalType": "uint256",
							"name": "listingId",
							"type": "uint256"
						},
						{
							"internalType": "uint256",
							"name": "newPrice",
							"type": "uint256"
						}
					],
					"name": "updatePrice",
					"outputs": [],
					"stateMutability": "nonpayable",
					"type": "function"
				},
				{
					"inputs": [
						{
							"internalType": "address",
							"name": "newTreasury",
							"type": "address"
						}
					],
					"name": "updateTreasury",
					"outputs": [],
					"stateMutability": "nonpayable",
					"type": "function"
				},
				{
					"inputs": [
						{
							"internalType": "address",
							"name": "nftContract",
							"type": "address"
						},
						{
							"internalType": "uint256",
							"name": "tokenId",
							"type": "uint256"
						},
						{
							"internalType": "address",
							"name": "to",
							"type": "address"
						}
					],
					"name": "withdrawNFT",
					"outputs": [],
					"stateMutability": "nonpayable",
					"type": "function"
				},
				{
					"inputs": [
						{
							"internalType": "address",
							"name": "token",
							"type": "address"
						},
						{
							"internalType": "uint256",
							"name": "amount",
							"type": "uint256"
						}
					],
					"name": "withdrawTokens",
					"outputs": [],
					"stateMutability": "nonpayable",
					"type": "function"
				},
				{
					"stateMutability": "payable",
					"type": "receive"
				}
			],
			"devdoc": {
				"details": "Players can buy NFTs listed by the owner, payment goes to treasury",
				"errors": {
					"OwnableInvalidOwner(address)": [
						{
							"details": "The owner is not a valid owner account. (eg. `address(0)`)"
						}
					],
					"OwnableUnauthorizedAccount(address)": [
						{
							"details": "The caller account is not authorized to perform an operation."
						}
					]
				},
				"events": {
					"Paused(address)": {
						"details": "Emitted when the pause is triggered by `account`."
					},
					"Unpaused(address)": {
						"details": "Emitted when the pause is lifted by `account`."
					}
				},
				"kind": "dev",
				"methods": {
					"batchBuyNFTs(uint256[])": {
						"params": {
							"listingIds": "Array of listing IDs to purchase"
						}
					},
					"batchListNFTs(address[],uint256[],address[],uint256[])": {
						"params": {
							"nftContracts": "Array of NFT contract addresses",
							"paymentTokens": "Array of payment tokens",
							"prices": "Array of prices",
							"tokenIds": "Array of token IDs"
						}
					},
					"buyNFT(uint256)": {
						"params": {
							"listingId": "ID of the listing to purchase"
						}
					},
					"delistNFT(uint256)": {
						"params": {
							"listingId": "ID of the listing to remove"
						}
					},
					"getListing(uint256)": {
						"params": {
							"listingId": "ID of the listing"
						}
					},
					"getListings(uint256[])": {
						"params": {
							"listingIds": "Array of listing IDs"
						}
					},
					"isNFTListed(address,uint256)": {
						"params": {
							"nftContract": "NFT contract address",
							"tokenId": "Token ID"
						}
					},
					"listNFT(address,uint256,address,uint256)": {
						"params": {
							"nftContract": "Address of the NFT contract",
							"paymentToken": "Token to accept as payment (address(0) for native token)",
							"price": "Price in payment token units",
							"tokenId": "Token ID to list"
						}
					},
					"owner()": {
						"details": "Returns the address of the current owner."
					},
					"paused()": {
						"details": "Returns true if the contract is paused, and false otherwise."
					},
					"renounceOwnership()": {
						"details": "Leaves the contract without owner. It will not be possible to call `onlyOwner` functions. Can only be called by the current owner. NOTE: Renouncing ownership will leave the contract without an owner, thereby disabling any functionality that is only available to the owner."
					},
					"transferOwnership(address)": {
						"details": "Transfers ownership of the contract to a new account (`newOwner`). Can only be called by the current owner."
					},
					"updatePrice(uint256,uint256)": {
						"params": {
							"listingId": "ID of the listing",
							"newPrice": "New price"
						}
					},
					"updateTreasury(address)": {
						"params": {
							"newTreasury": "New treasury address"
						}
					},
					"withdrawNFT(address,uint256,address)": {
						"params": {
							"nftContract": "NFT contract address",
							"to": "Address to send NFT to",
							"tokenId": "Token ID to withdraw"
						}
					},
					"withdrawTokens(address,uint256)": {
						"params": {
							"amount": "Amount to withdraw",
							"token": "Token address"
						}
					}
				},
				"title": "GameNFTShop",
				"version": 1
			},
			"evm": {
				"assembly": "    /* \"Marketplace.sol\":535:13024  contract GameNFTShop is Ownable, ReentrancyGuard, Pausable {... */\n  mstore(0x40, 0x80)\n    /* \"Marketplace.sol\":2218:2473  constructor(address _treasury, address _initialOwner) Ownable(_initialOwner) {... */\n  callvalue\n  dup1\n  iszero\n  tag_1\n  jumpi\n  0x00\n  dup1\n  revert\ntag_1:\n  pop\n  mload(0x40)\n  sub(codesize, bytecodeSize)\n  dup1\n  bytecodeSize\n  dup4\n  codecopy\n  dup2\n  add\n  0x40\n  dup2\n  swap1\n  mstore\n  tag_2\n  swap2\n  tag_3\n  jump\t// in\ntag_2:\n    /* \"Marketplace.sol\":2280:2293  _initialOwner */\n  dup1\n  sub(shl(0xa0, 0x01), 0x01)\n    /* \"@openzeppelin/contracts/access/Ownable.sol\":1273:1299  initialOwner == address(0) */\n  dup2\n  and\n    /* \"@openzeppelin/contracts/access/Ownable.sol\":1269:1364  if (initialOwner == address(0)) {... */\n  tag_9\n  jumpi\n    /* \"@openzeppelin/contracts/access/Ownable.sol\":1322:1353  OwnableInvalidOwner(address(0)) */\n  mload(0x40)\n  shl(0xe0, 0x1e4fbdf7)\n  dup2\n  mstore\n    /* \"@openzeppelin/contracts/access/Ownable.sol\":1350:1351  0 */\n  0x00\n    /* \"@openzeppelin/contracts/access/Ownable.sol\":1322:1353  OwnableInvalidOwner(address(0)) */\n  0x04\n  dup3\n  add\n    /* \"#utility.yul\":640:691   */\n  mstore\n    /* \"#utility.yul\":613:631   */\n  0x24\n  add\n    /* \"@openzeppelin/contracts/access/Ownable.sol\":1322:1353  OwnableInvalidOwner(address(0)) */\ntag_10:\n  mload(0x40)\n  dup1\n  swap2\n  sub\n  swap1\n  revert\n    /* \"@openzeppelin/contracts/access/Ownable.sol\":1269:1364  if (initialOwner == address(0)) {... */\ntag_9:\n    /* \"@openzeppelin/contracts/access/Ownable.sol\":1373:1405  _transferOwnership(initialOwner) */\n  tag_12\n    /* \"@openzeppelin/contracts/access/Ownable.sol\":1392:1404  initialOwner */\n  dup2\n    /* \"@openzeppelin/contracts/access/Ownable.sol\":1373:1391  _transferOwnership */\n  tag_13\n    /* \"@openzeppelin/contracts/access/Ownable.sol\":1373:1405  _transferOwnership(initialOwner) */\n  jump\t// in\ntag_12:\n  pop\n    /* \"@openzeppelin/contracts/security/ReentrancyGuard.sol\":1716:1717  1 */\n  0x01\n    /* \"@openzeppelin/contracts/security/ReentrancyGuard.sol\":1821:1843  _status = _NOT_ENTERED */\n  dup1\n  sstore\n    /* \"@openzeppelin/contracts/security/Pausable.sol\":996:1003  _paused */\n  0x02\n    /* \"@openzeppelin/contracts/security/Pausable.sol\":996:1011  _paused = false */\n  dup1\n  sload\n  not(0xff)\n  and\n  swap1\n  sstore\n  sub(shl(0xa0, 0x01), 0x01)\n    /* \"Marketplace.sol\":2313:2336  _treasury != address(0) */\n  dup3\n  and\n    /* \"Marketplace.sol\":2305:2365  require(_treasury != address(0), \"Invalid treasury address\") */\n  tag_17\n  jumpi\n  mload(0x40)\n  shl(0xe5, 0x461bcd)\n  dup2\n  mstore\n    /* \"#utility.yul\":904:906   */\n  0x20\n    /* \"Marketplace.sol\":2305:2365  require(_treasury != address(0), \"Invalid treasury address\") */\n  0x04\n  dup3\n  add\n    /* \"#utility.yul\":886:907   */\n  mstore\n    /* \"#utility.yul\":943:945   */\n  0x18\n    /* \"#utility.yul\":923:941   */\n  0x24\n  dup3\n  add\n    /* \"#utility.yul\":916:946   */\n  mstore\n    /* \"#utility.yul\":982:1008   */\n  0x496e76616c696420747265617375727920616464726573730000000000000000\n    /* \"#utility.yul\":962:980   */\n  0x44\n  dup3\n  add\n    /* \"#utility.yul\":955:1009   */\n  mstore\n    /* \"#utility.yul\":1026:1044   */\n  0x64\n  add\n    /* \"Marketplace.sol\":2305:2365  require(_treasury != address(0), \"Invalid treasury address\") */\n  tag_10\n    /* \"#utility.yul\":702:1050   */\n  jump\n    /* \"Marketplace.sol\":2305:2365  require(_treasury != address(0), \"Invalid treasury address\") */\ntag_17:\n  sub(shl(0xa0, 0x01), 0x01)\n    /* \"Marketplace.sol\":2383:2410  _initialOwner != address(0) */\n  dup2\n  and\n    /* \"Marketplace.sol\":2375:2436  require(_initialOwner != address(0), \"Invalid owner address\") */\n  tag_20\n  jumpi\n  mload(0x40)\n  shl(0xe5, 0x461bcd)\n  dup2\n  mstore\n    /* \"#utility.yul\":1257:1259   */\n  0x20\n    /* \"Marketplace.sol\":2375:2436  require(_initialOwner != address(0), \"Invalid owner address\") */\n  0x04\n  dup3\n  add\n    /* \"#utility.yul\":1239:1260   */\n  mstore\n    /* \"#utility.yul\":1296:1298   */\n  0x15\n    /* \"#utility.yul\":1276:1294   */\n  0x24\n  dup3\n  add\n    /* \"#utility.yul\":1269:1299   */\n  mstore\n    /* \"#utility.yul\":1335:1358   */\n  0x496e76616c6964206f776e657220616464726573730000000000000000000000\n    /* \"#utility.yul\":1315:1333   */\n  0x44\n  dup3\n  add\n    /* \"#utility.yul\":1308:1359   */\n  mstore\n    /* \"#utility.yul\":1376:1394   */\n  0x64\n  add\n    /* \"Marketplace.sol\":2375:2436  require(_initialOwner != address(0), \"Invalid owner address\") */\n  tag_10\n    /* \"#utility.yul\":1055:1400   */\n  jump\n    /* \"Marketplace.sol\":2375:2436  require(_initialOwner != address(0), \"Invalid owner address\") */\ntag_20:\n  pop\n    /* \"Marketplace.sol\":2446:2454  treasury */\n  0x02\n    /* \"Marketplace.sol\":2446:2466  treasury = _treasury */\n  dup1\n  sload\n  sub(shl(0xa0, 0x01), 0x01)\n  swap1\n  swap3\n  and\n  0x0100\n  mul\n  not(sub(shl(0xa8, 0x01), 0x0100))\n  swap1\n  swap3\n  and\n  swap2\n  swap1\n  swap2\n  or\n  swap1\n  sstore\n    /* \"Marketplace.sol\":535:13024  contract GameNFTShop is Ownable, ReentrancyGuard, Pausable {... */\n  jump(tag_26)\n    /* \"@openzeppelin/contracts/access/Ownable.sol\":2912:3099  function _transferOwnership(address newOwner) internal virtual {... */\ntag_13:\n    /* \"@openzeppelin/contracts/access/Ownable.sol\":2985:3001  address oldOwner */\n  0x00\n    /* \"@openzeppelin/contracts/access/Ownable.sol\":3004:3010  _owner */\n  dup1\n  sload\n  sub(shl(0xa0, 0x01), 0x01)\n    /* \"@openzeppelin/contracts/access/Ownable.sol\":3020:3037  _owner = newOwner */\n  dup4\n  dup2\n  and\n  not(sub(shl(0xa0, 0x01), 0x01))\n  dup4\n  and\n  dup2\n  or\n  dup5\n  sstore\n    /* \"@openzeppelin/contracts/access/Ownable.sol\":3052:3092  OwnershipTransferred(oldOwner, newOwner) */\n  mload(0x40)\n    /* \"@openzeppelin/contracts/access/Ownable.sol\":3004:3010  _owner */\n  swap2\n  swap1\n  swap3\n  and\n  swap3\n  dup4\n  swap2\n    /* \"@openzeppelin/contracts/access/Ownable.sol\":3052:3092  OwnershipTransferred(oldOwner, newOwner) */\n  0x8be0079c531659141344cd1fd0a4f28419497f9722a3daafe3b4186f6b6457e0\n  swap2\n    /* \"@openzeppelin/contracts/access/Ownable.sol\":2985:3001  address oldOwner */\n  swap1\n    /* \"@openzeppelin/contracts/access/Ownable.sol\":3052:3092  OwnershipTransferred(oldOwner, newOwner) */\n  log3\n    /* \"@openzeppelin/contracts/access/Ownable.sol\":2975:3099  {... */\n  pop\n    /* \"@openzeppelin/contracts/access/Ownable.sol\":2912:3099  function _transferOwnership(address newOwner) internal virtual {... */\n  pop\n  jump\t// out\n    /* \"#utility.yul\":14:191   */\ntag_25:\n    /* \"#utility.yul\":93:106   */\n  dup1\n  mload\n  sub(shl(0xa0, 0x01), 0x01)\n    /* \"#utility.yul\":135:166   */\n  dup2\n  and\n    /* \"#utility.yul\":125:167   */\n  dup2\n  eq\n    /* \"#utility.yul\":115:185   */\n  tag_28\n  jumpi\n    /* \"#utility.yul\":181:182   */\n  0x00\n    /* \"#utility.yul\":178:179   */\n  dup1\n    /* \"#utility.yul\":171:183   */\n  revert\n    /* \"#utility.yul\":115:185   */\ntag_28:\n    /* \"#utility.yul\":14:191   */\n  swap2\n  swap1\n  pop\n  jump\t// out\n    /* \"#utility.yul\":196:489   */\ntag_3:\n    /* \"#utility.yul\":275:281   */\n  0x00\n    /* \"#utility.yul\":283:289   */\n  dup1\n    /* \"#utility.yul\":336:338   */\n  0x40\n    /* \"#utility.yul\":324:333   */\n  dup4\n    /* \"#utility.yul\":315:322   */\n  dup6\n    /* \"#utility.yul\":311:334   */\n  sub\n    /* \"#utility.yul\":307:339   */\n  slt\n    /* \"#utility.yul\":304:356   */\n  iszero\n  tag_30\n  jumpi\n    /* \"#utility.yul\":352:353   */\n  0x00\n    /* \"#utility.yul\":349:350   */\n  dup1\n    /* \"#utility.yul\":342:354   */\n  revert\n    /* \"#utility.yul\":304:356   */\ntag_30:\n    /* \"#utility.yul\":375:415   */\n  tag_31\n    /* \"#utility.yul\":405:414   */\n  dup4\n    /* \"#utility.yul\":375:415   */\n  tag_25\n  jump\t// in\ntag_31:\n    /* \"#utility.yul\":365:415   */\n  swap2\n  pop\n    /* \"#utility.yul\":434:483   */\n  tag_32\n    /* \"#utility.yul\":479:481   */\n  0x20\n    /* \"#utility.yul\":468:477   */\n  dup5\n    /* \"#utility.yul\":464:482   */\n  add\n    /* \"#utility.yul\":434:483   */\n  tag_25\n  jump\t// in\ntag_32:\n    /* \"#utility.yul\":424:483   */\n  swap1\n  pop\n    /* \"#utility.yul\":196:489   */\n  swap3\n  pop\n  swap3\n  swap1\n  pop\n  jump\t// out\n    /* \"#utility.yul\":1055:1400   */\ntag_26:\n    /* \"Marketplace.sol\":535:13024  contract GameNFTShop is Ownable, ReentrancyGuard, Pausable {... */\n  dataSize(sub_0)\n  dup1\n  dataOffset(sub_0)\n  0x00\n  codecopy\n  0x00\n  return\nstop\n\nsub_0: assembly {\n        /* \"Marketplace.sol\":535:13024  contract GameNFTShop is Ownable, ReentrancyGuard, Pausable {... */\n      mstore(0x40, 0x80)\n      jumpi(tag_1, lt(calldatasize, 0x04))\n      shr(0xe0, calldataload(0x00))\n      dup1\n      0x7f51bb1f\n      gt\n      tag_26\n      jumpi\n      dup1\n      0xcdb3cd25\n      gt\n      tag_27\n      jumpi\n      dup1\n      0xcdb3cd25\n      eq\n      tag_20\n      jumpi\n      dup1\n      0xde74e57b\n      eq\n      tag_21\n      jumpi\n      dup1\n      0xf2fde38b\n      eq\n      tag_22\n      jumpi\n      dup1\n      0xf6eb46ac\n      eq\n      tag_23\n      jumpi\n      dup1\n      0xf7adbbc9\n      eq\n      tag_24\n      jumpi\n      dup1\n      0xfab25bb2\n      eq\n      tag_25\n      jumpi\n      0x00\n      dup1\n      revert\n    tag_27:\n      dup1\n      0x7f51bb1f\n      eq\n      tag_14\n      jumpi\n      dup1\n      0x82367b2d\n      eq\n      tag_15\n      jumpi\n      dup1\n      0x8456cb59\n      eq\n      tag_16\n      jumpi\n      dup1\n      0x88b59fa1\n      eq\n      tag_17\n      jumpi\n      dup1\n      0x8da5cb5b\n      eq\n      tag_18\n      jumpi\n      dup1\n      0xcb917b9c\n      eq\n      tag_19\n      jumpi\n      0x00\n      dup1\n      revert\n    tag_26:\n      dup1\n      0x3f4ba83a\n      gt\n      tag_28\n      jumpi\n      dup1\n      0x3f4ba83a\n      eq\n      tag_8\n      jumpi\n      dup1\n      0x51ed8288\n      eq\n      tag_9\n      jumpi\n      dup1\n      0x5a281245\n      eq\n      tag_10\n      jumpi\n      dup1\n      0x5c975abb\n      eq\n      tag_11\n      jumpi\n      dup1\n      0x61d027b3\n      eq\n      tag_12\n      jumpi\n      dup1\n      0x715018a6\n      eq\n      tag_13\n      jumpi\n      0x00\n      dup1\n      revert\n    tag_28:\n      dup1\n      0xf2a6ab\n      eq\n      tag_3\n      jumpi\n      dup1\n      0x0373c0bf\n      eq\n      tag_4\n      jumpi\n      dup1\n      0x06b091f9\n      eq\n      tag_5\n      jumpi\n      dup1\n      0x107a274a\n      eq\n      tag_6\n      jumpi\n      dup1\n      0x150b7a02\n      eq\n      tag_7\n      jumpi\n      0x00\n      dup1\n      revert\n    tag_1:\n      jumpi(tag_2, calldatasize)\n      stop\n    tag_2:\n      0x00\n      dup1\n      revert\n        /* \"Marketplace.sol\":6718:7006  function withdrawNFT(... */\n    tag_3:\n      callvalue\n      dup1\n      iszero\n      tag_31\n      jumpi\n      0x00\n      dup1\n      revert\n    tag_31:\n      pop\n      tag_32\n      tag_33\n      calldatasize\n      0x04\n      tag_34\n      jump\t// in\n    tag_33:\n      tag_35\n      jump\t// in\n    tag_32:\n      stop\n        /* \"Marketplace.sol\":11876:12202  function getListings(uint256[] calldata listingIds) external view returns (Listing[] memory) {... */\n    tag_4:\n      callvalue\n      dup1\n      iszero\n      tag_36\n      jumpi\n      0x00\n      dup1\n      revert\n    tag_36:\n      pop\n      tag_37\n      tag_38\n      calldatasize\n      0x04\n      tag_39\n      jump\t// in\n    tag_38:\n      tag_40\n      jump\t// in\n    tag_37:\n      mload(0x40)\n      tag_41\n      swap2\n      swap1\n      tag_42\n      jump\t// in\n    tag_41:\n      mload(0x40)\n      dup1\n      swap2\n      sub\n      swap1\n      return\n        /* \"Marketplace.sol\":7153:7283  function withdrawTokens(address token, uint256 amount) external onlyOwner {... */\n    tag_5:\n      callvalue\n      dup1\n      iszero\n      tag_43\n      jumpi\n      0x00\n      dup1\n      revert\n    tag_43:\n      pop\n      tag_32\n      tag_45\n      calldatasize\n      0x04\n      tag_46\n      jump\t// in\n    tag_45:\n      tag_47\n      jump\t// in\n        /* \"Marketplace.sol\":11638:11759  function getListing(uint256 listingId) external view returns (Listing memory) {... */\n    tag_6:\n      callvalue\n      dup1\n      iszero\n      tag_48\n      jumpi\n      0x00\n      dup1\n      revert\n    tag_48:\n      pop\n      tag_49\n      tag_50\n      calldatasize\n      0x04\n      tag_51\n      jump\t// in\n    tag_50:\n      0x40\n      dup1\n      mload\n      0xe0\n      dup2\n      add\n      dup3\n      mstore\n      0x00\n      dup1\n      dup3\n      mstore\n      0x20\n      dup3\n      add\n      dup2\n      swap1\n      mstore\n      swap2\n      dup2\n      add\n      dup3\n      swap1\n      mstore\n      0x60\n      dup2\n      add\n      dup3\n      swap1\n      mstore\n      0x80\n      dup2\n      add\n      dup3\n      swap1\n      mstore\n      0xa0\n      dup2\n      add\n      dup3\n      swap1\n      mstore\n      0xc0\n      dup2\n      add\n      swap2\n      swap1\n      swap2\n      mstore\n      pop\n        /* \"Marketplace.sol\":11733:11752  listings[listingId] */\n      0x00\n      swap1\n      dup2\n      mstore\n        /* \"Marketplace.sol\":11733:11741  listings */\n      0x04\n        /* \"Marketplace.sol\":11733:11752  listings[listingId] */\n      0x20\n      dup2\n      dup2\n      mstore\n      0x40\n      swap3\n      dup4\n      swap1\n      keccak256\n        /* \"Marketplace.sol\":11726:11752  return listings[listingId] */\n      dup4\n      mload\n      0xe0\n      dup2\n      add\n      dup6\n      mstore\n      dup2\n      sload\n      dup2\n      mstore\n      0x01\n      dup3\n      add\n      sload\n      sub(shl(0xa0, 0x01), 0x01)\n      swap1\n      dup2\n      and\n      swap4\n      dup3\n      add\n      swap4\n      swap1\n      swap4\n      mstore\n      0x02\n      dup3\n      add\n      sload\n      swap5\n      dup2\n      add\n      swap5\n      swap1\n      swap5\n      mstore\n      0x03\n      dup2\n      add\n      sload\n      dup3\n      and\n      0x60\n      dup6\n      add\n      mstore\n      swap2\n      dup3\n      add\n      sload\n      0x80\n      dup5\n      add\n      mstore\n      0x05\n      swap1\n      swap2\n      add\n      sload\n      swap1\n      dup2\n      and\n      0xa0\n      dup4\n      add\n      mstore\n      shl(0xa0, 0x01)\n      swap1\n      div\n      0xff\n      and\n      iszero\n      iszero\n      0xc0\n      dup3\n      add\n      mstore\n      swap1\n        /* \"Marketplace.sol\":11638:11759  function getListing(uint256 listingId) external view returns (Listing memory) {... */\n      jump\n    tag_49:\n      mload(0x40)\n      tag_41\n      swap2\n      swap1\n      tag_54\n      jump\t// in\n        /* \"Marketplace.sol\":12744:12936  function onERC721Received(... */\n    tag_7:\n      callvalue\n      dup1\n      iszero\n      tag_55\n      jumpi\n      0x00\n      dup1\n      revert\n    tag_55:\n      pop\n      tag_56\n      tag_57\n      calldatasize\n      0x04\n      tag_58\n      jump\t// in\n    tag_57:\n      shl(0xe1, 0x0a85bd01)\n      swap6\n      swap5\n      pop\n      pop\n      pop\n      pop\n      pop\n      jump\n    tag_56:\n      mload(0x40)\n      not(sub(shl(0xe0, 0x01), 0x01))\n        /* \"#utility.yul\":4544:4577   */\n      swap1\n      swap2\n      and\n        /* \"#utility.yul\":4526:4578   */\n      dup2\n      mstore\n        /* \"#utility.yul\":4514:4516   */\n      0x20\n        /* \"#utility.yul\":4499:4517   */\n      add\n        /* \"Marketplace.sol\":12744:12936  function onERC721Received(... */\n      tag_41\n        /* \"#utility.yul\":4382:4584   */\n      jump\n        /* \"Marketplace.sol\":7466:7531  function unpause() external onlyOwner {... */\n    tag_8:\n      callvalue\n      dup1\n      iszero\n      tag_62\n      jumpi\n      0x00\n      dup1\n      revert\n    tag_62:\n      pop\n      tag_32\n      tag_64\n      jump\t// in\n        /* \"Marketplace.sol\":7715:9220  function buyNFT(uint256 listingId) external payable nonReentrant whenNotPaused {... */\n    tag_9:\n      tag_32\n      tag_66\n      calldatasize\n      0x04\n      tag_51\n      jump\t// in\n    tag_66:\n      tag_67\n      jump\t// in\n        /* \"Marketplace.sol\":9356:11472  function batchBuyNFTs(uint256[] calldata listingIds) external payable nonReentrant whenNotPaused {... */\n    tag_10:\n      tag_32\n      tag_69\n      calldatasize\n      0x04\n      tag_39\n      jump\t// in\n    tag_69:\n      tag_70\n      jump\t// in\n        /* \"@openzeppelin/contracts/security/Pausable.sol\":1615:1699  function paused() public view virtual returns (bool) {... */\n    tag_11:\n      callvalue\n      dup1\n      iszero\n      tag_71\n      jumpi\n      0x00\n      dup1\n      revert\n    tag_71:\n      pop\n        /* \"@openzeppelin/contracts/security/Pausable.sol\":1685:1692  _paused */\n      and(0xff, sload(0x02))\n        /* \"@openzeppelin/contracts/security/Pausable.sol\":1615:1699  function paused() public view virtual returns (bool) {... */\n    tag_72:\n      mload(0x40)\n        /* \"#utility.yul\":4754:4768   */\n      swap1\n      iszero\n        /* \"#utility.yul\":4747:4769   */\n      iszero\n        /* \"#utility.yul\":4729:4770   */\n      dup2\n      mstore\n        /* \"#utility.yul\":4717:4719   */\n      0x20\n        /* \"#utility.yul\":4702:4720   */\n      add\n        /* \"@openzeppelin/contracts/security/Pausable.sol\":1615:1699  function paused() public view virtual returns (bool) {... */\n      tag_41\n        /* \"#utility.yul\":4589:4776   */\n      jump\n        /* \"Marketplace.sol\":714:737  address public treasury */\n    tag_12:\n      callvalue\n      dup1\n      iszero\n      tag_76\n      jumpi\n      0x00\n      dup1\n      revert\n    tag_76:\n      pop\n      sload(0x02)\n      tag_77\n      swap1\n      0x0100\n      swap1\n      div\n      sub(shl(0xa0, 0x01), 0x01)\n      and\n      dup2\n      jump\n    tag_77:\n      mload(0x40)\n      sub(shl(0xa0, 0x01), 0x01)\n        /* \"#utility.yul\":4945:4977   */\n      swap1\n      swap2\n      and\n        /* \"#utility.yul\":4927:4978   */\n      dup2\n      mstore\n        /* \"#utility.yul\":4915:4917   */\n      0x20\n        /* \"#utility.yul\":4900:4918   */\n      add\n        /* \"Marketplace.sol\":714:737  address public treasury */\n      tag_41\n        /* \"#utility.yul\":4781:4984   */\n      jump\n        /* \"@openzeppelin/contracts/access/Ownable.sol\":2293:2394  function renounceOwnership() public virtual onlyOwner {... */\n    tag_13:\n      callvalue\n      dup1\n      iszero\n      tag_81\n      jumpi\n      0x00\n      dup1\n      revert\n    tag_81:\n      pop\n      tag_32\n      tag_83\n      jump\t// in\n        /* \"Marketplace.sol\":6200:6489  function updateTreasury(address newTreasury) external onlyOwner {... */\n    tag_14:\n      callvalue\n      dup1\n      iszero\n      tag_84\n      jumpi\n      0x00\n      dup1\n      revert\n    tag_84:\n      pop\n      tag_32\n      tag_86\n      calldatasize\n      0x04\n      tag_87\n      jump\t// in\n    tag_86:\n      tag_88\n      jump\t// in\n        /* \"Marketplace.sol\":5668:6088  function updatePrice(uint256 listingId, uint256 newPrice) external onlyOwner {... */\n    tag_15:\n      callvalue\n      dup1\n      iszero\n      tag_89\n      jumpi\n      0x00\n      dup1\n      revert\n    tag_89:\n      pop\n      tag_32\n      tag_91\n      calldatasize\n      0x04\n      tag_92\n      jump\t// in\n    tag_91:\n      tag_93\n      jump\t// in\n        /* \"Marketplace.sol\":7343:7404  function pause() external onlyOwner {... */\n    tag_16:\n      callvalue\n      dup1\n      iszero\n      tag_94\n      jumpi\n      0x00\n      dup1\n      revert\n    tag_94:\n      pop\n      tag_32\n      tag_96\n      jump\t// in\n        /* \"Marketplace.sol\":12566:12668  function getListingCounter() external view returns (uint256) {... */\n    tag_17:\n      callvalue\n      dup1\n      iszero\n      tag_97\n      jumpi\n      0x00\n      dup1\n      revert\n    tag_97:\n      pop\n        /* \"Marketplace.sol\":12644:12661  _listingIdCounter */\n      sload(0x03)\n        /* \"Marketplace.sol\":12566:12668  function getListingCounter() external view returns (uint256) {... */\n    tag_98:\n      mload(0x40)\n        /* \"#utility.yul\":5640:5665   */\n      swap1\n      dup2\n      mstore\n        /* \"#utility.yul\":5628:5630   */\n      0x20\n        /* \"#utility.yul\":5613:5631   */\n      add\n        /* \"Marketplace.sol\":12566:12668  function getListingCounter() external view returns (uint256) {... */\n      tag_41\n        /* \"#utility.yul\":5494:5671   */\n      jump\n        /* \"@openzeppelin/contracts/access/Ownable.sol\":1638:1723  function owner() public view virtual returns (address) {... */\n    tag_18:\n      callvalue\n      dup1\n      iszero\n      tag_102\n      jumpi\n      0x00\n      dup1\n      revert\n    tag_102:\n      pop\n        /* \"@openzeppelin/contracts/access/Ownable.sol\":1684:1691  address */\n      0x00\n        /* \"@openzeppelin/contracts/access/Ownable.sol\":1710:1716  _owner */\n      sload\n      sub(shl(0xa0, 0x01), 0x01)\n      and\n        /* \"@openzeppelin/contracts/access/Ownable.sol\":1638:1723  function owner() public view virtual returns (address) {... */\n      jump(tag_77)\n        /* \"Marketplace.sol\":5156:5523  function delistNFT(uint256 listingId) external onlyOwner {... */\n    tag_19:\n      callvalue\n      dup1\n      iszero\n      tag_106\n      jumpi\n      0x00\n      dup1\n      revert\n    tag_106:\n      pop\n      tag_32\n      tag_108\n      calldatasize\n      0x04\n      tag_51\n      jump\t// in\n    tag_108:\n      tag_109\n      jump\t// in\n        /* \"Marketplace.sol\":1008:1068  mapping(address => mapping(uint256 => bool)) public isListed */\n    tag_20:\n      callvalue\n      dup1\n      iszero\n      tag_110\n      jumpi\n      0x00\n      dup1\n      revert\n    tag_110:\n      pop\n      tag_72\n      tag_112\n      calldatasize\n      0x04\n      tag_46\n      jump\t// in\n    tag_112:\n      0x05\n      0x20\n      swap1\n      dup2\n      mstore\n      0x00\n      swap3\n      dup4\n      mstore\n      0x40\n      dup1\n      dup5\n      keccak256\n      swap1\n      swap2\n      mstore\n      swap1\n      dup3\n      mstore\n      swap1\n      keccak256\n      sload\n      0xff\n      and\n      dup2\n      jump\n        /* \"Marketplace.sol\":891:934  mapping(uint256 => Listing) public listings */\n    tag_21:\n      callvalue\n      dup1\n      iszero\n      tag_115\n      jumpi\n      0x00\n      dup1\n      revert\n    tag_115:\n      pop\n      tag_116\n      tag_117\n      calldatasize\n      0x04\n      tag_51\n      jump\t// in\n    tag_117:\n      0x04\n      0x20\n      dup2\n      swap1\n      mstore\n      0x00\n      swap2\n      dup3\n      mstore\n      0x40\n      swap1\n      swap2\n      keccak256\n      dup1\n      sload\n      0x01\n      dup3\n      add\n      sload\n      0x02\n      dup4\n      add\n      sload\n      0x03\n      dup5\n      add\n      sload\n      swap5\n      dup5\n      add\n      sload\n      0x05\n      swap1\n      swap5\n      add\n      sload\n      swap3\n      swap5\n      sub(shl(0xa0, 0x01), 0x01)\n      swap3\n      dup4\n      and\n      swap5\n      swap2\n      swap4\n      swap1\n      dup4\n      and\n      swap3\n      dup2\n      and\n      swap1\n      shl(0xa0, 0x01)\n      swap1\n      div\n      0xff\n      and\n      dup8\n      jump\n    tag_116:\n      0x40\n      dup1\n      mload\n        /* \"#utility.yul\":5985:6010   */\n      swap8\n      dup9\n      mstore\n      sub(shl(0xa0, 0x01), 0x01)\n        /* \"#utility.yul\":6084:6099   */\n      swap7\n      dup8\n      and\n        /* \"#utility.yul\":6079:6081   */\n      0x20\n        /* \"#utility.yul\":6064:6082   */\n      dup10\n      add\n        /* \"#utility.yul\":6057:6100   */\n      mstore\n        /* \"#utility.yul\":6116:6134   */\n      dup8\n      add\n        /* \"#utility.yul\":6109:6143   */\n      swap5\n      swap1\n      swap5\n      mstore\n        /* \"#utility.yul\":6179:6194   */\n      swap2\n      dup5\n      and\n        /* \"#utility.yul\":6174:6176   */\n      0x60\n        /* \"#utility.yul\":6159:6177   */\n      dup7\n      add\n        /* \"#utility.yul\":6152:6195   */\n      mstore\n        /* \"#utility.yul\":6226:6229   */\n      0x80\n        /* \"#utility.yul\":6211:6230   */\n      dup6\n      add\n        /* \"#utility.yul\":6204:6239   */\n      mstore\n        /* \"#utility.yul\":6276:6291   */\n      swap1\n      swap2\n      and\n        /* \"#utility.yul\":6037:6040   */\n      0xa0\n        /* \"#utility.yul\":6255:6274   */\n      dup4\n      add\n        /* \"#utility.yul\":6248:6292   */\n      mstore\n        /* \"#utility.yul\":6336:6350   */\n      iszero\n        /* \"#utility.yul\":6329:6351   */\n      iszero\n        /* \"#utility.yul\":6323:6326   */\n      0xc0\n        /* \"#utility.yul\":6308:6327   */\n      dup3\n      add\n        /* \"#utility.yul\":6301:6352   */\n      mstore\n        /* \"#utility.yul\":5972:5975   */\n      0xe0\n        /* \"#utility.yul\":5957:5976   */\n      add\n        /* \"Marketplace.sol\":891:934  mapping(uint256 => Listing) public listings */\n      tag_41\n        /* \"#utility.yul\":5676:6358   */\n      jump\n        /* \"@openzeppelin/contracts/access/Ownable.sol\":2543:2758  function transferOwnership(address newOwner) public virtual onlyOwner {... */\n    tag_22:\n      callvalue\n      dup1\n      iszero\n      tag_121\n      jumpi\n      0x00\n      dup1\n      revert\n    tag_121:\n      pop\n      tag_32\n      tag_123\n      calldatasize\n      0x04\n      tag_87\n      jump\t// in\n    tag_123:\n      tag_124\n      jump\t// in\n        /* \"Marketplace.sol\":4186:5039  function batchListNFTs(... */\n    tag_23:\n      callvalue\n      dup1\n      iszero\n      tag_125\n      jumpi\n      0x00\n      dup1\n      revert\n    tag_125:\n      pop\n      tag_126\n      tag_127\n      calldatasize\n      0x04\n      tag_128\n      jump\t// in\n    tag_127:\n      tag_129\n      jump\t// in\n    tag_126:\n      mload(0x40)\n      tag_41\n      swap2\n      swap1\n      tag_131\n      jump\t// in\n        /* \"Marketplace.sol\":2837:3928  function listNFT(... */\n    tag_24:\n      callvalue\n      dup1\n      iszero\n      tag_132\n      jumpi\n      0x00\n      dup1\n      revert\n    tag_132:\n      pop\n      tag_98\n      tag_134\n      calldatasize\n      0x04\n      tag_135\n      jump\t// in\n    tag_134:\n      tag_136\n      jump\t// in\n        /* \"Marketplace.sol\":12355:12497  function isNFTListed(address nftContract, uint256 tokenId) external view returns (bool) {... */\n    tag_25:\n      callvalue\n      dup1\n      iszero\n      tag_138\n      jumpi\n      0x00\n      dup1\n      revert\n    tag_138:\n      pop\n      tag_72\n      tag_140\n      calldatasize\n      0x04\n      tag_46\n      jump\t// in\n    tag_140:\n      sub(shl(0xa0, 0x01), 0x01)\n        /* \"Marketplace.sol\":12460:12481  isListed[nftContract] */\n      swap2\n      swap1\n      swap2\n      and\n        /* \"Marketplace.sol\":12437:12441  bool */\n      0x00\n        /* \"Marketplace.sol\":12460:12481  isListed[nftContract] */\n      swap1\n      dup2\n      mstore\n        /* \"Marketplace.sol\":12460:12468  isListed */\n      0x05\n        /* \"Marketplace.sol\":12460:12481  isListed[nftContract] */\n      0x20\n      swap1\n      dup2\n      mstore\n      0x40\n      dup1\n      dup4\n      keccak256\n        /* \"Marketplace.sol\":12460:12490  isListed[nftContract][tokenId] */\n      swap4\n      dup4\n      mstore\n      swap3\n      swap1\n      mstore\n      keccak256\n      sload\n      0xff\n      and\n      swap1\n        /* \"Marketplace.sol\":12355:12497  function isNFTListed(address nftContract, uint256 tokenId) external view returns (bool) {... */\n      jump\n        /* \"Marketplace.sol\":6718:7006  function withdrawNFT(... */\n    tag_35:\n        /* \"@openzeppelin/contracts/access/Ownable.sol\":1531:1544  _checkOwner() */\n      tag_144\n        /* \"@openzeppelin/contracts/access/Ownable.sol\":1531:1542  _checkOwner */\n      tag_145\n        /* \"@openzeppelin/contracts/access/Ownable.sol\":1531:1544  _checkOwner() */\n      jump\t// in\n    tag_144:\n      sub(shl(0xa0, 0x01), 0x01)\n        /* \"Marketplace.sol\":6857:6878  isListed[nftContract] */\n      dup4\n      and\n      0x00\n      swap1\n      dup2\n      mstore\n        /* \"Marketplace.sol\":6857:6865  isListed */\n      0x05\n        /* \"Marketplace.sol\":6857:6878  isListed[nftContract] */\n      0x20\n      swap1\n      dup2\n      mstore\n      0x40\n      dup1\n      dup4\n      keccak256\n        /* \"Marketplace.sol\":6857:6887  isListed[nftContract][tokenId] */\n      dup6\n      dup5\n      mstore\n      swap1\n      swap2\n      mstore\n      swap1\n      keccak256\n      sload\n      0xff\n      and\n        /* \"Marketplace.sol\":6856:6887  !isListed[nftContract][tokenId] */\n      iszero\n        /* \"Marketplace.sol\":6848:6915  require(!isListed[nftContract][tokenId], \"NFT is currently listed\") */\n      tag_147\n      jumpi\n      mload(0x40)\n      shl(0xe5, 0x461bcd)\n      dup2\n      mstore\n        /* \"#utility.yul\":9141:9143   */\n      0x20\n        /* \"Marketplace.sol\":6848:6915  require(!isListed[nftContract][tokenId], \"NFT is currently listed\") */\n      0x04\n      dup3\n      add\n        /* \"#utility.yul\":9123:9144   */\n      mstore\n        /* \"#utility.yul\":9180:9182   */\n      0x17\n        /* \"#utility.yul\":9160:9178   */\n      0x24\n      dup3\n      add\n        /* \"#utility.yul\":9153:9183   */\n      mstore\n        /* \"#utility.yul\":9219:9244   */\n      0x4e46542069732063757272656e746c79206c6973746564000000000000000000\n        /* \"#utility.yul\":9199:9217   */\n      0x44\n      dup3\n      add\n        /* \"#utility.yul\":9192:9245   */\n      mstore\n        /* \"#utility.yul\":9262:9280   */\n      0x64\n      add\n        /* \"Marketplace.sol\":6848:6915  require(!isListed[nftContract][tokenId], \"NFT is currently listed\") */\n    tag_148:\n      mload(0x40)\n      dup1\n      swap2\n      sub\n      swap1\n      revert\n    tag_147:\n        /* \"Marketplace.sol\":6934:6999  IERC721(nftContract).safeTransferFrom(address(this), to, tokenId) */\n      mload(0x40)\n      shl(0xe1, 0x21421707)\n      dup2\n      mstore\n      sub(shl(0xa0, 0x01), 0x01)\n        /* \"Marketplace.sol\":6934:6971  IERC721(nftContract).safeTransferFrom */\n      dup5\n      and\n      swap1\n      0x42842e0e\n      swap1\n        /* \"Marketplace.sol\":6934:6999  IERC721(nftContract).safeTransferFrom(address(this), to, tokenId) */\n      tag_150\n      swap1\n        /* \"Marketplace.sol\":6980:6984  this */\n      address\n      swap1\n        /* \"Marketplace.sol\":6987:6989  to */\n      dup6\n      swap1\n        /* \"Marketplace.sol\":6991:6998  tokenId */\n      dup8\n      swap1\n        /* \"Marketplace.sol\":6934:6999  IERC721(nftContract).safeTransferFrom(address(this), to, tokenId) */\n      0x04\n      add\n      tag_151\n      jump\t// in\n    tag_150:\n      0x00\n      mload(0x40)\n      dup1\n      dup4\n      sub\n      dup2\n      0x00\n      dup8\n      dup1\n      extcodesize\n      iszero\n      dup1\n      iszero\n      tag_152\n      jumpi\n      0x00\n      dup1\n      revert\n    tag_152:\n      pop\n      gas\n      call\n      iszero\n      dup1\n      iszero\n      tag_154\n      jumpi\n      returndatasize\n      0x00\n      dup1\n      returndatacopy\n      revert(0x00, returndatasize)\n    tag_154:\n      pop\n      pop\n      pop\n      pop\n        /* \"Marketplace.sol\":6718:7006  function withdrawNFT(... */\n      pop\n      pop\n      pop\n      jump\t// out\n        /* \"Marketplace.sol\":11876:12202  function getListings(uint256[] calldata listingIds) external view returns (Listing[] memory) {... */\n    tag_40:\n        /* \"Marketplace.sol\":11951:11967  Listing[] memory */\n      0x60\n        /* \"Marketplace.sol\":11979:12002  Listing[] memory result */\n      0x00\n        /* \"Marketplace.sol\":12019:12029  listingIds */\n      dup3\n        /* \"Marketplace.sol\":12005:12037  new Listing[](listingIds.length) */\n      0xffffffffffffffff\n      dup2\n      gt\n      iszero\n      tag_157\n      jumpi\n      tag_157\n      tag_158\n      jump\t// in\n    tag_157:\n      mload(0x40)\n      swap1\n      dup1\n      dup3\n      mstore\n      dup1\n      0x20\n      mul\n      0x20\n      add\n      dup3\n      add\n      0x40\n      mstore\n      dup1\n      iszero\n      tag_159\n      jumpi\n      dup2\n      0x20\n      add\n    tag_160:\n      0x40\n      dup1\n      mload\n      0xe0\n      dup2\n      add\n      dup3\n      mstore\n      0x00\n      dup1\n      dup3\n      mstore\n      0x20\n      dup1\n      dup4\n      add\n      dup3\n      swap1\n      mstore\n      swap3\n      dup3\n      add\n      dup2\n      swap1\n      mstore\n      0x60\n      dup3\n      add\n      dup2\n      swap1\n      mstore\n      0x80\n      dup3\n      add\n      dup2\n      swap1\n      mstore\n      0xa0\n      dup3\n      add\n      dup2\n      swap1\n      mstore\n      0xc0\n      dup3\n      add\n      mstore\n      dup3\n      mstore\n      not(0x00)\n      swap1\n      swap3\n      add\n      swap2\n      add\n      dup2\n      tag_160\n      jumpi\n      swap1\n      pop\n    tag_159:\n      pop\n        /* \"Marketplace.sol\":11979:12037  Listing[] memory result = new Listing[](listingIds.length) */\n      swap1\n      pop\n        /* \"Marketplace.sol\":12061:12070  uint256 i */\n      0x00\n        /* \"Marketplace.sol\":12056:12164  for (uint256 i = 0; i < listingIds.length; i++) {... */\n    tag_163:\n        /* \"Marketplace.sol\":12076:12097  i < listingIds.length */\n      dup4\n      dup2\n      lt\n        /* \"Marketplace.sol\":12056:12164  for (uint256 i = 0; i < listingIds.length; i++) {... */\n      iszero\n      tag_164\n      jumpi\n        /* \"Marketplace.sol\":12130:12138  listings */\n      0x04\n        /* \"Marketplace.sol\":12130:12153  listings[listingIds[i]] */\n      0x00\n        /* \"Marketplace.sol\":12139:12149  listingIds */\n      dup7\n      dup7\n        /* \"Marketplace.sol\":12150:12151  i */\n      dup5\n        /* \"Marketplace.sol\":12139:12152  listingIds[i] */\n      dup2\n      dup2\n      lt\n      tag_167\n      jumpi\n      tag_167\n      tag_168\n      jump\t// in\n    tag_167:\n      0x20\n      swap1\n      dup2\n      mul\n      swap3\n      swap1\n      swap3\n      add\n      calldataload\n        /* \"Marketplace.sol\":12130:12153  listings[listingIds[i]] */\n      dup4\n      mstore\n      pop\n      dup2\n      dup2\n      add\n      swap3\n      swap1\n      swap3\n      mstore\n      0x40\n      swap1\n      dup2\n      add\n      0x00\n      keccak256\n        /* \"Marketplace.sol\":12118:12153  result[i] = listings[listingIds[i]] */\n      dup2\n      mload\n      0xe0\n      dup2\n      add\n      dup4\n      mstore\n      dup2\n      sload\n      dup2\n      mstore\n      0x01\n      dup3\n      add\n      sload\n      sub(shl(0xa0, 0x01), 0x01)\n      swap1\n      dup2\n      and\n      swap5\n      dup3\n      add\n      swap5\n      swap1\n      swap5\n      mstore\n      0x02\n      dup3\n      add\n      sload\n      swap3\n      dup2\n      add\n      swap3\n      swap1\n      swap3\n      mstore\n      0x03\n      dup2\n      add\n      sload\n      dup4\n      and\n      0x60\n      dup4\n      add\n      mstore\n      0x04\n      dup2\n      add\n      sload\n      0x80\n      dup4\n      add\n      mstore\n      0x05\n      add\n      sload\n      swap2\n      dup3\n      and\n      0xa0\n      dup3\n      add\n      mstore\n      shl(0xa0, 0x01)\n      swap1\n      swap2\n      div\n      0xff\n      and\n      iszero\n      iszero\n      0xc0\n      dup3\n      add\n      mstore\n        /* \"Marketplace.sol\":12118:12127  result[i] */\n      dup3\n      mload\n      dup4\n      swap1\n        /* \"Marketplace.sol\":12125:12126  i */\n      dup4\n      swap1\n        /* \"Marketplace.sol\":12118:12127  result[i] */\n      dup2\n      lt\n      tag_170\n      jumpi\n      tag_170\n      tag_168\n      jump\t// in\n    tag_170:\n      0x20\n      swap1\n      dup2\n      mul\n      swap2\n      swap1\n      swap2\n      add\n      add\n        /* \"Marketplace.sol\":12118:12153  result[i] = listings[listingIds[i]] */\n      mstore\n        /* \"Marketplace.sol\":12099:12102  i++ */\n      0x01\n      add\n        /* \"Marketplace.sol\":12056:12164  for (uint256 i = 0; i < listingIds.length; i++) {... */\n      jump(tag_163)\n    tag_164:\n      pop\n        /* \"Marketplace.sol\":12189:12195  result */\n      swap1\n      pop\n        /* \"Marketplace.sol\":11876:12202  function getListings(uint256[] calldata listingIds) external view returns (Listing[] memory) {... */\n    tag_155:\n      swap3\n      swap2\n      pop\n      pop\n      jump\t// out\n        /* \"Marketplace.sol\":7153:7283  function withdrawTokens(address token, uint256 amount) external onlyOwner {... */\n    tag_47:\n        /* \"@openzeppelin/contracts/access/Ownable.sol\":1531:1544  _checkOwner() */\n      tag_172\n        /* \"@openzeppelin/contracts/access/Ownable.sol\":1531:1542  _checkOwner */\n      tag_145\n        /* \"@openzeppelin/contracts/access/Ownable.sol\":1531:1544  _checkOwner() */\n      jump\t// in\n    tag_172:\n        /* \"Marketplace.sol\":7244:7249  token */\n      dup2\n      sub(shl(0xa0, 0x01), 0x01)\n        /* \"Marketplace.sol\":7237:7259  IERC20(token).transfer */\n      and\n      0xa9059cbb\n        /* \"Marketplace.sol\":7260:7267  owner() */\n      tag_174\n        /* \"@openzeppelin/contracts/access/Ownable.sol\":1684:1691  address */\n      0x00\n        /* \"@openzeppelin/contracts/access/Ownable.sol\":1710:1716  _owner */\n      sload\n      sub(shl(0xa0, 0x01), 0x01)\n      and\n      swap1\n        /* \"@openzeppelin/contracts/access/Ownable.sol\":1638:1723  function owner() public view virtual returns (address) {... */\n      jump\n        /* \"Marketplace.sol\":7260:7267  owner() */\n    tag_174:\n        /* \"Marketplace.sol\":7237:7276  IERC20(token).transfer(owner(), amount) */\n      mload(0x40)\n      not(sub(shl(0xe0, 0x01), 0x01))\n      0xe0\n      dup5\n      swap1\n      shl\n      and\n      dup2\n      mstore\n      sub(shl(0xa0, 0x01), 0x01)\n        /* \"#utility.yul\":10127:10159   */\n      swap1\n      swap2\n      and\n        /* \"Marketplace.sol\":7237:7276  IERC20(token).transfer(owner(), amount) */\n      0x04\n      dup3\n      add\n        /* \"#utility.yul\":10109:10160   */\n      mstore\n        /* \"#utility.yul\":10176:10194   */\n      0x24\n      dup2\n      add\n        /* \"#utility.yul\":10169:10203   */\n      dup5\n      swap1\n      mstore\n        /* \"#utility.yul\":10082:10100   */\n      0x44\n      add\n        /* \"Marketplace.sol\":7237:7276  IERC20(token).transfer(owner(), amount) */\n      0x20\n      mload(0x40)\n      dup1\n      dup4\n      sub\n      dup2\n      0x00\n      dup8\n      gas\n      call\n      iszero\n      dup1\n      iszero\n      tag_178\n      jumpi\n      returndatasize\n      0x00\n      dup1\n      returndatacopy\n      revert(0x00, returndatasize)\n    tag_178:\n      pop\n      pop\n      pop\n      pop\n      mload(0x40)\n      returndatasize\n      not(0x1f)\n      0x1f\n      dup3\n      add\n      and\n      dup3\n      add\n      dup1\n      0x40\n      mstore\n      pop\n      dup2\n      add\n      swap1\n      tag_179\n      swap2\n      swap1\n      tag_180\n      jump\t// in\n    tag_179:\n      pop\n        /* \"Marketplace.sol\":7153:7283  function withdrawTokens(address token, uint256 amount) external onlyOwner {... */\n      pop\n      pop\n      jump\t// out\n        /* \"Marketplace.sol\":7466:7531  function unpause() external onlyOwner {... */\n    tag_64:\n        /* \"@openzeppelin/contracts/access/Ownable.sol\":1531:1544  _checkOwner() */\n      tag_185\n        /* \"@openzeppelin/contracts/access/Ownable.sol\":1531:1542  _checkOwner */\n      tag_145\n        /* \"@openzeppelin/contracts/access/Ownable.sol\":1531:1544  _checkOwner() */\n      jump\t// in\n    tag_185:\n        /* \"Marketplace.sol\":7514:7524  _unpause() */\n      tag_187\n        /* \"Marketplace.sol\":7514:7522  _unpause */\n      tag_188\n        /* \"Marketplace.sol\":7514:7524  _unpause() */\n      jump\t// in\n    tag_187:\n        /* \"Marketplace.sol\":7466:7531  function unpause() external onlyOwner {... */\n      jump\t// out\n        /* \"Marketplace.sol\":7715:9220  function buyNFT(uint256 listingId) external payable nonReentrant whenNotPaused {... */\n    tag_67:\n        /* \"@openzeppelin/contracts/security/ReentrancyGuard.sol\":2261:2282  _nonReentrantBefore() */\n      tag_190\n        /* \"@openzeppelin/contracts/security/ReentrancyGuard.sol\":2261:2280  _nonReentrantBefore */\n      tag_191\n        /* \"@openzeppelin/contracts/security/ReentrancyGuard.sol\":2261:2282  _nonReentrantBefore() */\n      jump\t// in\n    tag_190:\n        /* \"@openzeppelin/contracts/security/Pausable.sol\":1239:1258  _requireNotPaused() */\n      tag_193\n        /* \"@openzeppelin/contracts/security/Pausable.sol\":1239:1256  _requireNotPaused */\n      tag_194\n        /* \"@openzeppelin/contracts/security/Pausable.sol\":1239:1258  _requireNotPaused() */\n      jump\t// in\n    tag_193:\n        /* \"Marketplace.sol\":7804:7827  Listing storage listing */\n      0x00\n        /* \"Marketplace.sol\":7830:7849  listings[listingId] */\n      dup2\n      dup2\n      mstore\n        /* \"Marketplace.sol\":7830:7838  listings */\n      0x04\n        /* \"Marketplace.sol\":7830:7849  listings[listingId] */\n      0x20\n      mstore\n      0x40\n      swap1\n      keccak256\n        /* \"Marketplace.sol\":7876:7892  listing.isActive */\n      0x05\n      dup2\n      add\n      sload\n      shl(0xa0, 0x01)\n      swap1\n      div\n      0xff\n      and\n        /* \"Marketplace.sol\":7868:7915  require(listing.isActive, \"Listing not active\") */\n      tag_196\n      jumpi\n      mload(0x40)\n      shl(0xe5, 0x461bcd)\n      dup2\n      mstore\n      0x04\n      add\n      tag_148\n      swap1\n      tag_198\n      jump\t// in\n    tag_196:\n        /* \"Marketplace.sol\":7964:7984  listing.paymentToken */\n      0x03\n      dup2\n      add\n      sload\n      sub(shl(0xa0, 0x01), 0x01)\n      and\n        /* \"Marketplace.sol\":7960:8679  if (listing.paymentToken == address(0)) {... */\n      tag_199\n      jumpi\n        /* \"Marketplace.sol\":8087:8094  listing */\n      dup1\n        /* \"Marketplace.sol\":8087:8100  listing.price */\n      0x04\n      add\n      sload\n        /* \"Marketplace.sol\":8074:8083  msg.value */\n      callvalue\n        /* \"Marketplace.sol\":8074:8100  msg.value == listing.price */\n      eq\n        /* \"Marketplace.sol\":8066:8129  require(msg.value == listing.price, \"Incorrect payment amount\") */\n      tag_200\n      jumpi\n      mload(0x40)\n      shl(0xe5, 0x461bcd)\n      dup2\n      mstore\n        /* \"#utility.yul\":11045:11047   */\n      0x20\n        /* \"Marketplace.sol\":8066:8129  require(msg.value == listing.price, \"Incorrect payment amount\") */\n      0x04\n      dup3\n      add\n        /* \"#utility.yul\":11027:11048   */\n      mstore\n        /* \"#utility.yul\":11084:11086   */\n      0x18\n        /* \"#utility.yul\":11064:11082   */\n      0x24\n      dup3\n      add\n        /* \"#utility.yul\":11057:11087   */\n      mstore\n        /* \"#utility.yul\":11123:11149   */\n      0x496e636f7272656374207061796d656e7420616d6f756e740000000000000000\n        /* \"#utility.yul\":11103:11121   */\n      0x44\n      dup3\n      add\n        /* \"#utility.yul\":11096:11150   */\n      mstore\n        /* \"#utility.yul\":11167:11185   */\n      0x64\n      add\n        /* \"Marketplace.sol\":8066:8129  require(msg.value == listing.price, \"Incorrect payment amount\") */\n      tag_148\n        /* \"#utility.yul\":10843:11191   */\n      jump\n        /* \"Marketplace.sol\":8066:8129  require(msg.value == listing.price, \"Incorrect payment amount\") */\n    tag_200:\n        /* \"Marketplace.sol\":8215:8223  treasury */\n      sload(0x02)\n        /* \"Marketplace.sol\":8215:8250  treasury.call{value: msg.value}(\"\") */\n      mload(0x40)\n        /* \"Marketplace.sol\":8197:8209  bool success */\n      0x00\n      swap2\n        /* \"Marketplace.sol\":8215:8223  treasury */\n      0x0100\n      swap1\n      div\n      sub(shl(0xa0, 0x01), 0x01)\n      and\n      swap1\n        /* \"Marketplace.sol\":8236:8245  msg.value */\n      callvalue\n      swap1\n        /* \"Marketplace.sol\":8197:8209  bool success */\n      dup4\n        /* \"Marketplace.sol\":8215:8250  treasury.call{value: msg.value}(\"\") */\n      dup2\n        /* \"Marketplace.sol\":8197:8209  bool success */\n      dup2\n        /* \"Marketplace.sol\":8215:8250  treasury.call{value: msg.value}(\"\") */\n      dup2\n        /* \"Marketplace.sol\":8236:8245  msg.value */\n      dup6\n        /* \"Marketplace.sol\":8215:8223  treasury */\n      dup8\n        /* \"Marketplace.sol\":8215:8250  treasury.call{value: msg.value}(\"\") */\n      gas\n      call\n      swap3\n      pop\n      pop\n      pop\n      returndatasize\n      dup1\n      0x00\n      dup2\n      eq\n      tag_207\n      jumpi\n      mload(0x40)\n      swap2\n      pop\n      and(add(returndatasize, 0x3f), not(0x1f))\n      dup3\n      add\n      0x40\n      mstore\n      returndatasize\n      dup3\n      mstore\n      returndatasize\n      0x00\n      0x20\n      dup5\n      add\n      returndatacopy\n      jump(tag_206)\n    tag_207:\n      0x60\n      swap2\n      pop\n    tag_206:\n      pop\n        /* \"Marketplace.sol\":8196:8250  (bool success, ) = treasury.call{value: msg.value}(\"\") */\n      pop\n      swap1\n      pop\n        /* \"Marketplace.sol\":8272:8279  success */\n      dup1\n        /* \"Marketplace.sol\":8264:8307  require(success, \"Payment transfer failed\") */\n      tag_208\n      jumpi\n      mload(0x40)\n      shl(0xe5, 0x461bcd)\n      dup2\n      mstore\n      0x04\n      add\n      tag_148\n      swap1\n      tag_210\n      jump\t// in\n    tag_208:\n        /* \"Marketplace.sol\":8000:8318  {... */\n      pop\n        /* \"Marketplace.sol\":7960:8679  if (listing.paymentToken == address(0)) {... */\n      jump(tag_211)\n    tag_199:\n        /* \"Marketplace.sol\":8381:8390  msg.value */\n      callvalue\n        /* \"Marketplace.sol\":8381:8395  msg.value == 0 */\n      iszero\n        /* \"Marketplace.sol\":8373:8433  require(msg.value == 0, \"ETH not accepted for this listing\") */\n      tag_212\n      jumpi\n      mload(0x40)\n      shl(0xe5, 0x461bcd)\n      dup2\n      mstore\n        /* \"#utility.yul\":11960:11962   */\n      0x20\n        /* \"Marketplace.sol\":8373:8433  require(msg.value == 0, \"ETH not accepted for this listing\") */\n      0x04\n      dup3\n      add\n        /* \"#utility.yul\":11942:11963   */\n      mstore\n        /* \"#utility.yul\":11999:12001   */\n      0x21\n        /* \"#utility.yul\":11979:11997   */\n      0x24\n      dup3\n      add\n        /* \"#utility.yul\":11972:12002   */\n      mstore\n        /* \"#utility.yul\":12038:12072   */\n      0x455448206e6f7420616363657074656420666f722074686973206c697374696e\n        /* \"#utility.yul\":12018:12036   */\n      0x44\n      dup3\n      add\n        /* \"#utility.yul\":12011:12073   */\n      mstore\n      shl(0xf8, 0x67)\n        /* \"#utility.yul\":12089:12107   */\n      0x64\n      dup3\n      add\n        /* \"#utility.yul\":12082:12113   */\n      mstore\n        /* \"#utility.yul\":12130:12149   */\n      0x84\n      add\n        /* \"Marketplace.sol\":8373:8433  require(msg.value == 0, \"ETH not accepted for this listing\") */\n      tag_148\n        /* \"#utility.yul\":11758:12155   */\n      jump\n        /* \"Marketplace.sol\":8373:8433  require(msg.value == 0, \"ETH not accepted for this listing\") */\n    tag_212:\n        /* \"Marketplace.sol\":8489:8509  listing.paymentToken */\n      0x03\n      dup2\n      add\n      sload\n        /* \"Marketplace.sol\":8587:8595  treasury */\n      sload(0x02)\n        /* \"Marketplace.sol\":8597:8610  listing.price */\n      0x04\n      dup1\n      dup5\n      add\n      sload\n        /* \"Marketplace.sol\":8549:8611  paymentToken.transferFrom(msg.sender, treasury, listing.price) */\n      mload(0x40)\n      shl(0xe0, 0x23b872dd)\n      dup2\n      mstore\n      sub(shl(0xa0, 0x01), 0x01)\n        /* \"Marketplace.sol\":8489:8509  listing.paymentToken */\n      swap5\n      dup6\n      and\n      swap5\n      dup6\n      swap5\n        /* \"Marketplace.sol\":8549:8574  paymentToken.transferFrom */\n      0x23b872dd\n      swap5\n        /* \"Marketplace.sol\":8549:8611  paymentToken.transferFrom(msg.sender, treasury, listing.price) */\n      tag_215\n      swap5\n        /* \"Marketplace.sol\":8575:8585  msg.sender */\n      caller\n      swap5\n        /* \"Marketplace.sol\":8489:8509  listing.paymentToken */\n      0x0100\n        /* \"Marketplace.sol\":8587:8595  treasury */\n      swap1\n      swap4\n      div\n      swap1\n      swap4\n      and\n      swap3\n        /* \"Marketplace.sol\":8597:8610  listing.price */\n      swap2\n        /* \"Marketplace.sol\":8549:8611  paymentToken.transferFrom(msg.sender, treasury, listing.price) */\n      add\n      tag_151\n      jump\t// in\n    tag_215:\n      0x20\n      mload(0x40)\n      dup1\n      dup4\n      sub\n      dup2\n      0x00\n      dup8\n      gas\n      call\n      iszero\n      dup1\n      iszero\n      tag_217\n      jumpi\n      returndatasize\n      0x00\n      dup1\n      returndatacopy\n      revert(0x00, returndatasize)\n    tag_217:\n      pop\n      pop\n      pop\n      pop\n      mload(0x40)\n      returndatasize\n      not(0x1f)\n      0x1f\n      dup3\n      add\n      and\n      dup3\n      add\n      dup1\n      0x40\n      mstore\n      pop\n      dup2\n      add\n      swap1\n      tag_218\n      swap2\n      swap1\n      tag_180\n      jump\t// in\n    tag_218:\n        /* \"Marketplace.sol\":8524:8668  require(... */\n      tag_219\n      jumpi\n      mload(0x40)\n      shl(0xe5, 0x461bcd)\n      dup2\n      mstore\n      0x04\n      add\n      tag_148\n      swap1\n      tag_210\n      jump\t// in\n    tag_219:\n        /* \"Marketplace.sol\":8324:8679  {... */\n      pop\n        /* \"Marketplace.sol\":7960:8679  if (listing.paymentToken == address(0)) {... */\n    tag_211:\n        /* \"Marketplace.sol\":8756:8772  listing.isActive */\n      0x05\n      dup1\n      dup3\n      add\n        /* \"Marketplace.sol\":8756:8780  listing.isActive = false */\n      dup1\n      sload\n      not(shl(0xa0, 0xff))\n      and\n      swap1\n      sstore\n      0x01\n        /* \"Marketplace.sol\":8799:8818  listing.nftContract */\n      dup3\n      add\n      dup1\n      sload\n      sub(shl(0xa0, 0x01), 0x01)\n      swap1\n      dup2\n      and\n        /* \"Marketplace.sol\":8775:8780  false */\n      0x00\n        /* \"Marketplace.sol\":8790:8819  isListed[listing.nftContract] */\n      swap1\n      dup2\n      mstore\n      0x20\n      swap4\n      dup5\n      mstore\n      0x40\n      dup1\n      dup3\n      keccak256\n        /* \"Marketplace.sol\":8820:8835  listing.tokenId */\n      0x02\n      dup8\n      add\n      dup1\n      sload\n        /* \"Marketplace.sol\":8790:8836  isListed[listing.nftContract][listing.tokenId] */\n      dup5\n      mstore\n      swap6\n      mstore\n      swap1\n      dup2\n      swap1\n      keccak256\n        /* \"Marketplace.sol\":8790:8844  isListed[listing.nftContract][listing.tokenId] = false */\n      dup1\n      sload\n      not(0xff)\n      and\n      swap1\n      sstore\n        /* \"Marketplace.sol\":8904:8923  listing.nftContract */\n      swap2\n      sload\n        /* \"Marketplace.sol\":9006:9021  listing.tokenId */\n      swap3\n      sload\n        /* \"Marketplace.sol\":8896:9031  IERC721(listing.nftContract).safeTransferFrom(... */\n      swap2\n      mload\n      shl(0xe1, 0x21421707)\n      dup2\n      mstore\n        /* \"Marketplace.sol\":8904:8923  listing.nftContract */\n      swap3\n      and\n      swap2\n        /* \"Marketplace.sol\":8896:8941  IERC721(listing.nftContract).safeTransferFrom */\n      0x42842e0e\n      swap2\n        /* \"Marketplace.sol\":8896:9031  IERC721(listing.nftContract).safeTransferFrom(... */\n      tag_221\n      swap2\n        /* \"Marketplace.sol\":8963:8967  this */\n      address\n      swap2\n        /* \"Marketplace.sol\":8982:8992  msg.sender */\n      caller\n      swap2\n        /* \"Marketplace.sol\":8896:9031  IERC721(listing.nftContract).safeTransferFrom(... */\n      0x04\n      add\n      tag_151\n      jump\t// in\n    tag_221:\n      0x00\n      mload(0x40)\n      dup1\n      dup4\n      sub\n      dup2\n      0x00\n      dup8\n      dup1\n      extcodesize\n      iszero\n      dup1\n      iszero\n      tag_222\n      jumpi\n      0x00\n      dup1\n      revert\n    tag_222:\n      pop\n      gas\n      call\n      iszero\n      dup1\n      iszero\n      tag_224\n      jumpi\n      returndatasize\n      0x00\n      dup1\n      returndatacopy\n      revert(0x00, returndatasize)\n    tag_224:\n      pop\n      pop\n      pop\n        /* \"Marketplace.sol\":9128:9147  listing.nftContract */\n      0x01\n      dup3\n      add\n      sload\n        /* \"Marketplace.sol\":9161:9176  listing.tokenId */\n      0x02\n      dup4\n      add\n      sload\n        /* \"Marketplace.sol\":9190:9203  listing.price */\n      0x04\n      dup5\n      add\n      sload\n        /* \"Marketplace.sol\":9055:9213  NFTPurchased(... */\n      mload(0x40)\n      sub(shl(0xa0, 0x01), 0x01)\n        /* \"Marketplace.sol\":9128:9147  listing.nftContract */\n      swap1\n      swap4\n      and\n      swap4\n      pop\n        /* \"Marketplace.sol\":9104:9114  msg.sender */\n      caller\n      swap3\n        /* \"Marketplace.sol\":9081:9090  listingId */\n      dup7\n      swap3\n        /* \"Marketplace.sol\":9055:9213  NFTPurchased(... */\n      0xd69d4640acbdbbf9091244cb56da6273ff61cd59f33bd19f7fbbcbfc6255fe34\n      swap3\n      tag_225\n      swap3\n        /* \"#utility.yul\":12334:12359   */\n      swap2\n      dup3\n      mstore\n        /* \"#utility.yul\":12390:12392   */\n      0x20\n        /* \"#utility.yul\":12375:12393   */\n      dup3\n      add\n        /* \"#utility.yul\":12368:12402   */\n      mstore\n        /* \"#utility.yul\":12322:12324   */\n      0x40\n        /* \"#utility.yul\":12307:12325   */\n      add\n      swap1\n        /* \"#utility.yul\":12160:12408   */\n      jump\n        /* \"Marketplace.sol\":9055:9213  NFTPurchased(... */\n    tag_225:\n      mload(0x40)\n      dup1\n      swap2\n      sub\n      swap1\n      log4\n        /* \"Marketplace.sol\":7794:9220  {... */\n      pop\n        /* \"@openzeppelin/contracts/security/ReentrancyGuard.sol\":2303:2323  _nonReentrantAfter() */\n      tag_227\n        /* \"@openzeppelin/contracts/security/ReentrancyGuard.sol\":1716:1717  1 */\n      0x01\n        /* \"@openzeppelin/contracts/security/ReentrancyGuard.sol\":2809:2831  _status = _NOT_ENTERED */\n      dup1\n      sstore\n        /* \"@openzeppelin/contracts/security/ReentrancyGuard.sol\":2629:2838  function _nonReentrantAfter() private {... */\n      jump\n        /* \"@openzeppelin/contracts/security/ReentrancyGuard.sol\":2303:2323  _nonReentrantAfter() */\n    tag_227:\n        /* \"Marketplace.sol\":7715:9220  function buyNFT(uint256 listingId) external payable nonReentrant whenNotPaused {... */\n      pop\n      jump\t// out\n        /* \"Marketplace.sol\":9356:11472  function batchBuyNFTs(uint256[] calldata listingIds) external payable nonReentrant whenNotPaused {... */\n    tag_70:\n        /* \"@openzeppelin/contracts/security/ReentrancyGuard.sol\":2261:2282  _nonReentrantBefore() */\n      tag_230\n        /* \"@openzeppelin/contracts/security/ReentrancyGuard.sol\":2261:2280  _nonReentrantBefore */\n      tag_191\n        /* \"@openzeppelin/contracts/security/ReentrancyGuard.sol\":2261:2282  _nonReentrantBefore() */\n      jump\t// in\n    tag_230:\n        /* \"@openzeppelin/contracts/security/Pausable.sol\":1239:1258  _requireNotPaused() */\n      tag_232\n        /* \"@openzeppelin/contracts/security/Pausable.sol\":1239:1256  _requireNotPaused */\n      tag_194\n        /* \"@openzeppelin/contracts/security/Pausable.sol\":1239:1258  _requireNotPaused() */\n      jump\t// in\n    tag_232:\n        /* \"Marketplace.sol\":9463:9489  uint256 totalNativePayment */\n      0x00\n        /* \"Marketplace.sol\":9591:9600  uint256 i */\n      dup1\n        /* \"Marketplace.sol\":9586:9903  for (uint256 i = 0; i < listingIds.length; i++) {... */\n    tag_234:\n        /* \"Marketplace.sol\":9606:9627  i < listingIds.length */\n      dup3\n      dup2\n      lt\n        /* \"Marketplace.sol\":9586:9903  for (uint256 i = 0; i < listingIds.length; i++) {... */\n      iszero\n      tag_235\n      jumpi\n        /* \"Marketplace.sol\":9648:9671  Listing storage listing */\n      0x00\n        /* \"Marketplace.sol\":9674:9682  listings */\n      0x04\n        /* \"Marketplace.sol\":9674:9697  listings[listingIds[i]] */\n      0x00\n        /* \"Marketplace.sol\":9683:9693  listingIds */\n      dup7\n      dup7\n        /* \"Marketplace.sol\":9694:9695  i */\n      dup6\n        /* \"Marketplace.sol\":9683:9696  listingIds[i] */\n      dup2\n      dup2\n      lt\n      tag_238\n      jumpi\n      tag_238\n      tag_168\n      jump\t// in\n    tag_238:\n      swap1\n      pop\n      0x20\n      mul\n      add\n      calldataload\n        /* \"Marketplace.sol\":9674:9697  listings[listingIds[i]] */\n      dup2\n      mstore\n      0x20\n      add\n      swap1\n      dup2\n      mstore\n      0x20\n      add\n      0x00\n      keccak256\n        /* \"Marketplace.sol\":9648:9697  Listing storage listing = listings[listingIds[i]] */\n      swap1\n      pop\n        /* \"Marketplace.sol\":9719:9726  listing */\n      dup1\n        /* \"Marketplace.sol\":9719:9735  listing.isActive */\n      0x05\n      add\n      0x14\n      swap1\n      sload\n      swap1\n      0x0100\n      exp\n      swap1\n      div\n      0xff\n      and\n        /* \"Marketplace.sol\":9711:9758  require(listing.isActive, \"Listing not active\") */\n      tag_239\n      jumpi\n      mload(0x40)\n      shl(0xe5, 0x461bcd)\n      dup2\n      mstore\n      0x04\n      add\n      tag_148\n      swap1\n      tag_198\n      jump\t// in\n    tag_239:\n        /* \"Marketplace.sol\":9789:9809  listing.paymentToken */\n      0x03\n      dup2\n      add\n      sload\n      sub(shl(0xa0, 0x01), 0x01)\n      and\n        /* \"Marketplace.sol\":9785:9893  if (listing.paymentToken == address(0)) {... */\n      tag_241\n      jumpi\n        /* \"Marketplace.sol\":9865:9878  listing.price */\n      0x04\n      dup2\n      add\n      sload\n        /* \"Marketplace.sol\":9843:9878  totalNativePayment += listing.price */\n      tag_242\n      swap1\n      dup5\n      tag_243\n      jump\t// in\n    tag_242:\n      swap3\n      pop\n        /* \"Marketplace.sol\":9785:9893  if (listing.paymentToken == address(0)) {... */\n    tag_241:\n      pop\n        /* \"Marketplace.sol\":9629:9632  i++ */\n      0x01\n      add\n        /* \"Marketplace.sol\":9586:9903  for (uint256 i = 0; i < listingIds.length; i++) {... */\n      jump(tag_234)\n    tag_235:\n      pop\n        /* \"Marketplace.sol\":9942:9960  totalNativePayment */\n      dup1\n        /* \"Marketplace.sol\":9929:9938  msg.value */\n      callvalue\n        /* \"Marketplace.sol\":9929:9960  msg.value == totalNativePayment */\n      eq\n        /* \"Marketplace.sol\":9921:9988  require(msg.value == totalNativePayment, \"Incorrect total payment\") */\n      tag_244\n      jumpi\n      mload(0x40)\n      shl(0xe5, 0x461bcd)\n      dup2\n      mstore\n        /* \"#utility.yul\":12877:12879   */\n      0x20\n        /* \"Marketplace.sol\":9921:9988  require(msg.value == totalNativePayment, \"Incorrect total payment\") */\n      0x04\n      dup3\n      add\n        /* \"#utility.yul\":12859:12880   */\n      mstore\n        /* \"#utility.yul\":12916:12918   */\n      0x17\n        /* \"#utility.yul\":12896:12914   */\n      0x24\n      dup3\n      add\n        /* \"#utility.yul\":12889:12919   */\n      mstore\n        /* \"#utility.yul\":12955:12980   */\n      0x496e636f727265637420746f74616c207061796d656e74000000000000000000\n        /* \"#utility.yul\":12935:12953   */\n      0x44\n      dup3\n      add\n        /* \"#utility.yul\":12928:12981   */\n      mstore\n        /* \"#utility.yul\":12998:13016   */\n      0x64\n      add\n        /* \"Marketplace.sol\":9921:9988  require(msg.value == totalNativePayment, \"Incorrect total payment\") */\n      tag_148\n        /* \"#utility.yul\":12675:13022   */\n      jump\n        /* \"Marketplace.sol\":9921:9988  require(msg.value == totalNativePayment, \"Incorrect total payment\") */\n    tag_244:\n        /* \"Marketplace.sol\":10054:10063  uint256 i */\n      0x00\n        /* \"Marketplace.sol\":10049:11226  for (uint256 i = 0; i < listingIds.length; i++) {... */\n    tag_247:\n        /* \"Marketplace.sol\":10069:10090  i < listingIds.length */\n      dup3\n      dup2\n      lt\n        /* \"Marketplace.sol\":10049:11226  for (uint256 i = 0; i < listingIds.length; i++) {... */\n      iszero\n      tag_248\n      jumpi\n        /* \"Marketplace.sol\":10111:10134  Listing storage listing */\n      0x00\n        /* \"Marketplace.sol\":10137:10145  listings */\n      0x04\n        /* \"Marketplace.sol\":10137:10160  listings[listingIds[i]] */\n      0x00\n        /* \"Marketplace.sol\":10146:10156  listingIds */\n      dup7\n      dup7\n        /* \"Marketplace.sol\":10157:10158  i */\n      dup6\n        /* \"Marketplace.sol\":10146:10159  listingIds[i] */\n      dup2\n      dup2\n      lt\n      tag_251\n      jumpi\n      tag_251\n      tag_168\n      jump\t// in\n    tag_251:\n      0x20\n      swap1\n      dup2\n      mul\n      swap3\n      swap1\n      swap3\n      add\n      calldataload\n        /* \"Marketplace.sol\":10137:10160  listings[listingIds[i]] */\n      dup4\n      mstore\n      pop\n      dup2\n      add\n      swap2\n      swap1\n      swap2\n      mstore\n      0x40\n      add\n      0x00\n      keccak256\n        /* \"Marketplace.sol\":10221:10241  listing.paymentToken */\n      0x03\n      dup2\n      add\n      sload\n        /* \"Marketplace.sol\":10137:10160  listings[listingIds[i]] */\n      swap1\n      swap2\n      pop\n      sub(shl(0xa0, 0x01), 0x01)\n        /* \"Marketplace.sol\":10221:10241  listing.paymentToken */\n      and\n        /* \"Marketplace.sol\":10217:10641  if (listing.paymentToken == address(0)) {... */\n      iszero\n      tag_253\n      jumpi\n        /* \"Marketplace.sol\":10431:10451  listing.paymentToken */\n      0x03\n      dup2\n      add\n      sload\n        /* \"Marketplace.sol\":10537:10545  treasury */\n      sload(0x02)\n        /* \"Marketplace.sol\":10547:10560  listing.price */\n      0x04\n      dup1\n      dup5\n      add\n      sload\n        /* \"Marketplace.sol\":10499:10561  paymentToken.transferFrom(msg.sender, treasury, listing.price) */\n      mload(0x40)\n      shl(0xe0, 0x23b872dd)\n      dup2\n      mstore\n      sub(shl(0xa0, 0x01), 0x01)\n        /* \"Marketplace.sol\":10431:10451  listing.paymentToken */\n      swap5\n      dup6\n      and\n      swap5\n      dup6\n      swap5\n        /* \"Marketplace.sol\":10499:10524  paymentToken.transferFrom */\n      0x23b872dd\n      swap5\n        /* \"Marketplace.sol\":10499:10561  paymentToken.transferFrom(msg.sender, treasury, listing.price) */\n      tag_254\n      swap5\n        /* \"Marketplace.sol\":10525:10535  msg.sender */\n      caller\n      swap5\n        /* \"Marketplace.sol\":10431:10451  listing.paymentToken */\n      0x0100\n        /* \"Marketplace.sol\":10537:10545  treasury */\n      swap1\n      swap4\n      div\n      swap1\n      swap4\n      and\n      swap3\n        /* \"Marketplace.sol\":10547:10560  listing.price */\n      swap2\n        /* \"Marketplace.sol\":10499:10561  paymentToken.transferFrom(msg.sender, treasury, listing.price) */\n      add\n      tag_151\n      jump\t// in\n    tag_254:\n      0x20\n      mload(0x40)\n      dup1\n      dup4\n      sub\n      dup2\n      0x00\n      dup8\n      gas\n      call\n      iszero\n      dup1\n      iszero\n      tag_256\n      jumpi\n      returndatasize\n      0x00\n      dup1\n      returndatacopy\n      revert(0x00, returndatasize)\n    tag_256:\n      pop\n      pop\n      pop\n      pop\n      mload(0x40)\n      returndatasize\n      not(0x1f)\n      0x1f\n      dup3\n      add\n      and\n      dup3\n      add\n      dup1\n      0x40\n      mstore\n      pop\n      dup2\n      add\n      swap1\n      tag_257\n      swap2\n      swap1\n      tag_180\n      jump\t// in\n    tag_257:\n        /* \"Marketplace.sol\":10470:10626  require(... */\n      tag_258\n      jumpi\n      mload(0x40)\n      shl(0xe5, 0x461bcd)\n      dup2\n      mstore\n      0x04\n      add\n      tag_148\n      swap1\n      tag_210\n      jump\t// in\n    tag_258:\n        /* \"Marketplace.sol\":10351:10641  {... */\n      pop\n        /* \"Marketplace.sol\":10217:10641  if (listing.paymentToken == address(0)) {... */\n    tag_253:\n        /* \"Marketplace.sol\":10699:10715  listing.isActive */\n      0x05\n      dup1\n      dup3\n      add\n        /* \"Marketplace.sol\":10699:10723  listing.isActive = false */\n      dup1\n      sload\n      not(shl(0xa0, 0xff))\n      and\n      swap1\n      sstore\n      0x01\n        /* \"Marketplace.sol\":10746:10765  listing.nftContract */\n      dup3\n      add\n      dup1\n      sload\n      sub(shl(0xa0, 0x01), 0x01)\n      swap1\n      dup2\n      and\n        /* \"Marketplace.sol\":10718:10723  false */\n      0x00\n        /* \"Marketplace.sol\":10737:10766  isListed[listing.nftContract] */\n      swap1\n      dup2\n      mstore\n      0x20\n      swap4\n      dup5\n      mstore\n      0x40\n      dup1\n      dup3\n      keccak256\n        /* \"Marketplace.sol\":10767:10782  listing.tokenId */\n      0x02\n      dup8\n      add\n      dup1\n      sload\n        /* \"Marketplace.sol\":10737:10783  isListed[listing.nftContract][listing.tokenId] */\n      dup5\n      mstore\n      swap6\n      mstore\n      swap1\n      dup2\n      swap1\n      keccak256\n        /* \"Marketplace.sol\":10737:10791  isListed[listing.nftContract][listing.tokenId] = false */\n      dup1\n      sload\n      not(0xff)\n      and\n      swap1\n      sstore\n        /* \"Marketplace.sol\":10854:10873  listing.nftContract */\n      swap2\n      sload\n        /* \"Marketplace.sol\":10968:10983  listing.tokenId */\n      swap3\n      sload\n        /* \"Marketplace.sol\":10846:10997  IERC721(listing.nftContract).safeTransferFrom(... */\n      swap2\n      mload\n      shl(0xe1, 0x21421707)\n      dup2\n      mstore\n        /* \"Marketplace.sol\":10854:10873  listing.nftContract */\n      swap3\n      and\n      swap2\n        /* \"Marketplace.sol\":10846:10891  IERC721(listing.nftContract).safeTransferFrom */\n      0x42842e0e\n      swap2\n        /* \"Marketplace.sol\":10846:10997  IERC721(listing.nftContract).safeTransferFrom(... */\n      tag_260\n      swap2\n        /* \"Marketplace.sol\":10917:10921  this */\n      address\n      swap2\n        /* \"Marketplace.sol\":10940:10950  msg.sender */\n      caller\n      swap2\n        /* \"Marketplace.sol\":10846:10997  IERC721(listing.nftContract).safeTransferFrom(... */\n      0x04\n      add\n      tag_151\n      jump\t// in\n    tag_260:\n      0x00\n      mload(0x40)\n      dup1\n      dup4\n      sub\n      dup2\n      0x00\n      dup8\n      dup1\n      extcodesize\n      iszero\n      dup1\n      iszero\n      tag_261\n      jumpi\n      0x00\n      dup1\n      revert\n    tag_261:\n      pop\n      gas\n      call\n      iszero\n      dup1\n      iszero\n      tag_263\n      jumpi\n      returndatasize\n      0x00\n      dup1\n      returndatacopy\n      revert(0x00, returndatasize)\n    tag_263:\n      pop\n      pop\n      pop\n      pop\n        /* \"Marketplace.sol\":11118:11137  listing.nftContract */\n      0x01\n      dup2\n      add\n      sload\n      sub(shl(0xa0, 0x01), 0x01)\n      and\n        /* \"Marketplace.sol\":11090:11100  msg.sender */\n      caller\n        /* \"Marketplace.sol\":11059:11069  listingIds */\n      dup7\n      dup7\n        /* \"Marketplace.sol\":11070:11071  i */\n      dup6\n        /* \"Marketplace.sol\":11059:11072  listingIds[i] */\n      dup2\n      dup2\n      lt\n      tag_265\n      jumpi\n      tag_265\n      tag_168\n      jump\t// in\n    tag_265:\n      swap1\n      pop\n      0x20\n      mul\n      add\n      calldataload\n        /* \"Marketplace.sol\":11029:11215  NFTPurchased(... */\n      0xd69d4640acbdbbf9091244cb56da6273ff61cd59f33bd19f7fbbcbfc6255fe34\n        /* \"Marketplace.sol\":11155:11162  listing */\n      dup5\n        /* \"Marketplace.sol\":11155:11170  listing.tokenId */\n      0x02\n      add\n      sload\n        /* \"Marketplace.sol\":11188:11195  listing */\n      dup6\n        /* \"Marketplace.sol\":11188:11201  listing.price */\n      0x04\n      add\n      sload\n        /* \"Marketplace.sol\":11029:11215  NFTPurchased(... */\n      mload(0x40)\n      tag_266\n      swap3\n      swap2\n      swap1\n        /* \"#utility.yul\":12334:12359   */\n      swap2\n      dup3\n      mstore\n        /* \"#utility.yul\":12390:12392   */\n      0x20\n        /* \"#utility.yul\":12375:12393   */\n      dup3\n      add\n        /* \"#utility.yul\":12368:12402   */\n      mstore\n        /* \"#utility.yul\":12322:12324   */\n      0x40\n        /* \"#utility.yul\":12307:12325   */\n      add\n      swap1\n        /* \"#utility.yul\":12160:12408   */\n      jump\n        /* \"Marketplace.sol\":11029:11215  NFTPurchased(... */\n    tag_266:\n      mload(0x40)\n      dup1\n      swap2\n      sub\n      swap1\n      log4\n      pop\n        /* \"Marketplace.sol\":10092:10095  i++ */\n      0x01\n      add\n        /* \"Marketplace.sol\":10049:11226  for (uint256 i = 0; i < listingIds.length; i++) {... */\n      jump(tag_247)\n    tag_248:\n      pop\n        /* \"Marketplace.sol\":11297:11319  totalNativePayment > 0 */\n      dup1\n      iszero\n        /* \"Marketplace.sol\":11293:11466  if (totalNativePayment > 0) {... */\n      tag_267\n      jumpi\n        /* \"Marketplace.sol\":11354:11362  treasury */\n      sload(0x02)\n        /* \"Marketplace.sol\":11354:11398  treasury.call{value: totalNativePayment}(\"\") */\n      mload(0x40)\n        /* \"Marketplace.sol\":11336:11348  bool success */\n      0x00\n      swap2\n        /* \"Marketplace.sol\":11354:11362  treasury */\n      0x0100\n      swap1\n      div\n      sub(shl(0xa0, 0x01), 0x01)\n      and\n      swap1\n        /* \"Marketplace.sol\":11375:11393  totalNativePayment */\n      dup4\n      swap1\n        /* \"Marketplace.sol\":11336:11348  bool success */\n      dup4\n        /* \"Marketplace.sol\":11354:11398  treasury.call{value: totalNativePayment}(\"\") */\n      dup2\n        /* \"Marketplace.sol\":11336:11348  bool success */\n      dup2\n        /* \"Marketplace.sol\":11354:11398  treasury.call{value: totalNativePayment}(\"\") */\n      dup2\n        /* \"Marketplace.sol\":11375:11393  totalNativePayment */\n      dup6\n        /* \"Marketplace.sol\":11354:11362  treasury */\n      dup8\n        /* \"Marketplace.sol\":11354:11398  treasury.call{value: totalNativePayment}(\"\") */\n      gas\n      call\n      swap3\n      pop\n      pop\n      pop\n      returndatasize\n      dup1\n      0x00\n      dup2\n      eq\n      tag_271\n      jumpi\n      mload(0x40)\n      swap2\n      pop\n      and(add(returndatasize, 0x3f), not(0x1f))\n      dup3\n      add\n      0x40\n      mstore\n      returndatasize\n      dup3\n      mstore\n      returndatasize\n      0x00\n      0x20\n      dup5\n      add\n      returndatacopy\n      jump(tag_270)\n    tag_271:\n      0x60\n      swap2\n      pop\n    tag_270:\n      pop\n        /* \"Marketplace.sol\":11335:11398  (bool success, ) = treasury.call{value: totalNativePayment}(\"\") */\n      pop\n      swap1\n      pop\n        /* \"Marketplace.sol\":11420:11427  success */\n      dup1\n        /* \"Marketplace.sol\":11412:11455  require(success, \"Payment transfer failed\") */\n      tag_272\n      jumpi\n      mload(0x40)\n      shl(0xe5, 0x461bcd)\n      dup2\n      mstore\n      0x04\n      add\n      tag_148\n      swap1\n      tag_210\n      jump\t// in\n    tag_272:\n        /* \"Marketplace.sol\":11321:11466  {... */\n      pop\n        /* \"Marketplace.sol\":11293:11466  if (totalNativePayment > 0) {... */\n    tag_267:\n        /* \"Marketplace.sol\":9453:11472  {... */\n      pop\n        /* \"@openzeppelin/contracts/security/ReentrancyGuard.sol\":2303:2323  _nonReentrantAfter() */\n      tag_274\n        /* \"@openzeppelin/contracts/security/ReentrancyGuard.sol\":1716:1717  1 */\n      0x01\n        /* \"@openzeppelin/contracts/security/ReentrancyGuard.sol\":2809:2831  _status = _NOT_ENTERED */\n      dup1\n      sstore\n        /* \"@openzeppelin/contracts/security/ReentrancyGuard.sol\":2629:2838  function _nonReentrantAfter() private {... */\n      jump\n        /* \"@openzeppelin/contracts/security/ReentrancyGuard.sol\":2303:2323  _nonReentrantAfter() */\n    tag_274:\n        /* \"Marketplace.sol\":9356:11472  function batchBuyNFTs(uint256[] calldata listingIds) external payable nonReentrant whenNotPaused {... */\n      pop\n      pop\n      jump\t// out\n        /* \"@openzeppelin/contracts/access/Ownable.sol\":2293:2394  function renounceOwnership() public virtual onlyOwner {... */\n    tag_83:\n        /* \"@openzeppelin/contracts/access/Ownable.sol\":1531:1544  _checkOwner() */\n      tag_277\n        /* \"@openzeppelin/contracts/access/Ownable.sol\":1531:1542  _checkOwner */\n      tag_145\n        /* \"@openzeppelin/contracts/access/Ownable.sol\":1531:1544  _checkOwner() */\n      jump\t// in\n    tag_277:\n        /* \"@openzeppelin/contracts/access/Ownable.sol\":2357:2387  _transferOwnership(address(0)) */\n      tag_187\n        /* \"@openzeppelin/contracts/access/Ownable.sol\":2384:2385  0 */\n      0x00\n        /* \"@openzeppelin/contracts/access/Ownable.sol\":2357:2375  _transferOwnership */\n      tag_280\n        /* \"@openzeppelin/contracts/access/Ownable.sol\":2357:2387  _transferOwnership(address(0)) */\n      jump\t// in\n        /* \"Marketplace.sol\":6200:6489  function updateTreasury(address newTreasury) external onlyOwner {... */\n    tag_88:\n        /* \"@openzeppelin/contracts/access/Ownable.sol\":1531:1544  _checkOwner() */\n      tag_282\n        /* \"@openzeppelin/contracts/access/Ownable.sol\":1531:1542  _checkOwner */\n      tag_145\n        /* \"@openzeppelin/contracts/access/Ownable.sol\":1531:1544  _checkOwner() */\n      jump\t// in\n    tag_282:\n      sub(shl(0xa0, 0x01), 0x01)\n        /* \"Marketplace.sol\":6282:6307  newTreasury != address(0) */\n      dup2\n      and\n        /* \"Marketplace.sol\":6274:6336  require(newTreasury != address(0), \"Invalid treasury address\") */\n      tag_284\n      jumpi\n      mload(0x40)\n      shl(0xe5, 0x461bcd)\n      dup2\n      mstore\n        /* \"#utility.yul\":13229:13231   */\n      0x20\n        /* \"Marketplace.sol\":6274:6336  require(newTreasury != address(0), \"Invalid treasury address\") */\n      0x04\n      dup3\n      add\n        /* \"#utility.yul\":13211:13232   */\n      mstore\n        /* \"#utility.yul\":13268:13270   */\n      0x18\n        /* \"#utility.yul\":13248:13266   */\n      0x24\n      dup3\n      add\n        /* \"#utility.yul\":13241:13271   */\n      mstore\n        /* \"#utility.yul\":13307:13333   */\n      0x496e76616c696420747265617375727920616464726573730000000000000000\n        /* \"#utility.yul\":13287:13305   */\n      0x44\n      dup3\n      add\n        /* \"#utility.yul\":13280:13334   */\n      mstore\n        /* \"#utility.yul\":13351:13369   */\n      0x64\n      add\n        /* \"Marketplace.sol\":6274:6336  require(newTreasury != address(0), \"Invalid treasury address\") */\n      tag_148\n        /* \"#utility.yul\":13027:13375   */\n      jump\n        /* \"Marketplace.sol\":6274:6336  require(newTreasury != address(0), \"Invalid treasury address\") */\n    tag_284:\n        /* \"Marketplace.sol\":6377:6385  treasury */\n      0x02\n      dup1\n      sload\n      sub(shl(0xa0, 0x01), 0x01)\n        /* \"Marketplace.sol\":6395:6417  treasury = newTreasury */\n      dup4\n      dup2\n      and\n        /* \"Marketplace.sol\":6377:6385  treasury */\n      0x0100\n        /* \"Marketplace.sol\":6395:6417  treasury = newTreasury */\n      dup2\n      dup2\n      mul\n      not(sub(shl(0xa8, 0x01), 0x0100))\n      dup6\n      and\n      or\n      swap1\n      swap5\n      sstore\n        /* \"Marketplace.sol\":6441:6482  TreasuryUpdated(oldTreasury, newTreasury) */\n      mload(0x40)\n        /* \"Marketplace.sol\":6377:6385  treasury */\n      swap4\n      swap1\n      swap3\n      div\n      and\n      swap2\n      dup3\n      swap1\n        /* \"Marketplace.sol\":6441:6482  TreasuryUpdated(oldTreasury, newTreasury) */\n      0x4ab5be82436d353e61ca18726e984e561f5c1cc7c6d38b29d2553c790434705a\n      swap1\n        /* \"Marketplace.sol\":6355:6374  address oldTreasury */\n      0x00\n      swap1\n        /* \"Marketplace.sol\":6441:6482  TreasuryUpdated(oldTreasury, newTreasury) */\n      log3\n        /* \"Marketplace.sol\":6264:6489  {... */\n      pop\n        /* \"Marketplace.sol\":6200:6489  function updateTreasury(address newTreasury) external onlyOwner {... */\n      pop\n      jump\t// out\n        /* \"Marketplace.sol\":5668:6088  function updatePrice(uint256 listingId, uint256 newPrice) external onlyOwner {... */\n    tag_93:\n        /* \"@openzeppelin/contracts/access/Ownable.sol\":1531:1544  _checkOwner() */\n      tag_288\n        /* \"@openzeppelin/contracts/access/Ownable.sol\":1531:1542  _checkOwner */\n      tag_145\n        /* \"@openzeppelin/contracts/access/Ownable.sol\":1531:1544  _checkOwner() */\n      jump\t// in\n    tag_288:\n        /* \"Marketplace.sol\":5774:5775  0 */\n      0x00\n        /* \"Marketplace.sol\":5763:5771  newPrice */\n      dup2\n        /* \"Marketplace.sol\":5763:5775  newPrice > 0 */\n      gt\n        /* \"Marketplace.sol\":5755:5808  require(newPrice > 0, \"Price must be greater than 0\") */\n      tag_290\n      jumpi\n      mload(0x40)\n      shl(0xe5, 0x461bcd)\n      dup2\n      mstore\n        /* \"#utility.yul\":13582:13584   */\n      0x20\n        /* \"Marketplace.sol\":5755:5808  require(newPrice > 0, \"Price must be greater than 0\") */\n      0x04\n      dup3\n      add\n        /* \"#utility.yul\":13564:13585   */\n      mstore\n        /* \"#utility.yul\":13621:13623   */\n      0x1c\n        /* \"#utility.yul\":13601:13619   */\n      0x24\n      dup3\n      add\n        /* \"#utility.yul\":13594:13624   */\n      mstore\n        /* \"#utility.yul\":13660:13690   */\n      0x5072696365206d7573742062652067726561746572207468616e203000000000\n        /* \"#utility.yul\":13640:13658   */\n      0x44\n      dup3\n      add\n        /* \"#utility.yul\":13633:13691   */\n      mstore\n        /* \"#utility.yul\":13708:13726   */\n      0x64\n      add\n        /* \"Marketplace.sol\":5755:5808  require(newPrice > 0, \"Price must be greater than 0\") */\n      tag_148\n        /* \"#utility.yul\":13380:13732   */\n      jump\n        /* \"Marketplace.sol\":5755:5808  require(newPrice > 0, \"Price must be greater than 0\") */\n    tag_290:\n        /* \"Marketplace.sol\":5827:5850  Listing storage listing */\n      0x00\n        /* \"Marketplace.sol\":5853:5872  listings[listingId] */\n      dup3\n      dup2\n      mstore\n        /* \"Marketplace.sol\":5853:5861  listings */\n      0x04\n        /* \"Marketplace.sol\":5853:5872  listings[listingId] */\n      0x20\n      mstore\n      0x40\n      swap1\n      keccak256\n        /* \"Marketplace.sol\":5890:5906  listing.isActive */\n      0x05\n      dup2\n      add\n      sload\n      shl(0xa0, 0x01)\n      swap1\n      div\n      0xff\n      and\n        /* \"Marketplace.sol\":5882:5929  require(listing.isActive, \"Listing not active\") */\n      tag_293\n      jumpi\n      mload(0x40)\n      shl(0xe5, 0x461bcd)\n      dup2\n      mstore\n      0x04\n      add\n      tag_148\n      swap1\n      tag_198\n      jump\t// in\n    tag_293:\n        /* \"Marketplace.sol\":5967:5980  listing.price */\n      0x04\n      dup2\n      add\n      dup1\n      sload\n        /* \"Marketplace.sol\":5990:6014  listing.price = newPrice */\n      swap1\n      dup4\n      swap1\n      sstore\n        /* \"Marketplace.sol\":6038:6081  PriceUpdated(listingId, oldPrice, newPrice) */\n      0x40\n      dup1\n      mload\n        /* \"#utility.yul\":12334:12359   */\n      dup3\n      dup2\n      mstore\n        /* \"#utility.yul\":12390:12392   */\n      0x20\n        /* \"#utility.yul\":12375:12393   */\n      dup2\n      add\n        /* \"#utility.yul\":12368:12402   */\n      dup6\n      swap1\n      mstore\n        /* \"Marketplace.sol\":6051:6060  listingId */\n      dup6\n      swap2\n        /* \"Marketplace.sol\":6038:6081  PriceUpdated(listingId, oldPrice, newPrice) */\n      0x15819dd2fd9f6418b142e798d08a18d0bf06ea368f4480b7b0d3f75bd966bc48\n      swap2\n        /* \"#utility.yul\":12307:12325   */\n      add\n        /* \"Marketplace.sol\":6038:6081  PriceUpdated(listingId, oldPrice, newPrice) */\n      mload(0x40)\n      dup1\n      swap2\n      sub\n      swap1\n      log2\n        /* \"Marketplace.sol\":5745:6088  {... */\n      pop\n      pop\n        /* \"Marketplace.sol\":5668:6088  function updatePrice(uint256 listingId, uint256 newPrice) external onlyOwner {... */\n      pop\n      pop\n      jump\t// out\n        /* \"Marketplace.sol\":7343:7404  function pause() external onlyOwner {... */\n    tag_96:\n        /* \"@openzeppelin/contracts/access/Ownable.sol\":1531:1544  _checkOwner() */\n      tag_297\n        /* \"@openzeppelin/contracts/access/Ownable.sol\":1531:1542  _checkOwner */\n      tag_145\n        /* \"@openzeppelin/contracts/access/Ownable.sol\":1531:1544  _checkOwner() */\n      jump\t// in\n    tag_297:\n        /* \"Marketplace.sol\":7389:7397  _pause() */\n      tag_187\n        /* \"Marketplace.sol\":7389:7395  _pause */\n      tag_300\n        /* \"Marketplace.sol\":7389:7397  _pause() */\n      jump\t// in\n        /* \"Marketplace.sol\":5156:5523  function delistNFT(uint256 listingId) external onlyOwner {... */\n    tag_109:\n        /* \"@openzeppelin/contracts/access/Ownable.sol\":1531:1544  _checkOwner() */\n      tag_304\n        /* \"@openzeppelin/contracts/access/Ownable.sol\":1531:1542  _checkOwner */\n      tag_145\n        /* \"@openzeppelin/contracts/access/Ownable.sol\":1531:1544  _checkOwner() */\n      jump\t// in\n    tag_304:\n        /* \"Marketplace.sol\":5223:5246  Listing storage listing */\n      0x00\n        /* \"Marketplace.sol\":5249:5268  listings[listingId] */\n      dup2\n      dup2\n      mstore\n        /* \"Marketplace.sol\":5249:5257  listings */\n      0x04\n        /* \"Marketplace.sol\":5249:5268  listings[listingId] */\n      0x20\n      mstore\n      0x40\n      swap1\n      keccak256\n        /* \"Marketplace.sol\":5286:5302  listing.isActive */\n      0x05\n      dup2\n      add\n      sload\n      shl(0xa0, 0x01)\n      swap1\n      div\n      0xff\n      and\n        /* \"Marketplace.sol\":5278:5325  require(listing.isActive, \"Listing not active\") */\n      tag_306\n      jumpi\n      mload(0x40)\n      shl(0xe5, 0x461bcd)\n      dup2\n      mstore\n      0x04\n      add\n      tag_148\n      swap1\n      tag_198\n      jump\t// in\n    tag_306:\n        /* \"Marketplace.sol\":5344:5360  listing.isActive */\n      0x05\n      dup1\n      dup3\n      add\n        /* \"Marketplace.sol\":5344:5368  listing.isActive = false */\n      dup1\n      sload\n      not(shl(0xa0, 0xff))\n      and\n      swap1\n      sstore\n      0x01\n        /* \"Marketplace.sol\":5387:5406  listing.nftContract */\n      dup3\n      add\n      dup1\n      sload\n      sub(shl(0xa0, 0x01), 0x01)\n      swap1\n      dup2\n      and\n        /* \"Marketplace.sol\":5363:5368  false */\n      0x00\n        /* \"Marketplace.sol\":5378:5407  isListed[listing.nftContract] */\n      swap1\n      dup2\n      mstore\n      0x20\n      swap4\n      dup5\n      mstore\n      0x40\n      dup1\n      dup3\n      keccak256\n        /* \"Marketplace.sol\":5408:5423  listing.tokenId */\n      0x02\n      dup8\n      add\n      dup1\n      sload\n        /* \"Marketplace.sol\":5378:5424  isListed[listing.nftContract][listing.tokenId] */\n      dup5\n      mstore\n      swap6\n      mstore\n      dup1\n      dup3\n      keccak256\n        /* \"Marketplace.sol\":5378:5432  isListed[listing.nftContract][listing.tokenId] = false */\n      dup1\n      sload\n      not(0xff)\n      and\n      swap1\n      sstore\n        /* \"Marketplace.sol\":5500:5515  listing.tokenId */\n      swap4\n      sload\n        /* \"Marketplace.sol\":5479:5498  listing.nftContract */\n      swap3\n      sload\n        /* \"Marketplace.sol\":5456:5516  NFTDelisted(listingId, listing.nftContract, listing.tokenId) */\n      swap4\n      mload\n        /* \"Marketplace.sol\":5500:5515  listing.tokenId */\n      swap3\n      swap4\n        /* \"Marketplace.sol\":5479:5498  listing.nftContract */\n      swap1\n      swap2\n      and\n      swap2\n        /* \"Marketplace.sol\":5468:5477  listingId */\n      dup6\n      swap2\n        /* \"Marketplace.sol\":5456:5516  NFTDelisted(listingId, listing.nftContract, listing.tokenId) */\n      0x2c9d6981c622d09ee9e2c9d6f686d7465850ecd57c1d5e82467803cd7a31d0af\n      swap2\n      log4\n        /* \"Marketplace.sol\":5213:5523  {... */\n      pop\n        /* \"Marketplace.sol\":5156:5523  function delistNFT(uint256 listingId) external onlyOwner {... */\n      pop\n      jump\t// out\n        /* \"@openzeppelin/contracts/access/Ownable.sol\":2543:2758  function transferOwnership(address newOwner) public virtual onlyOwner {... */\n    tag_124:\n        /* \"@openzeppelin/contracts/access/Ownable.sol\":1531:1544  _checkOwner() */\n      tag_309\n        /* \"@openzeppelin/contracts/access/Ownable.sol\":1531:1542  _checkOwner */\n      tag_145\n        /* \"@openzeppelin/contracts/access/Ownable.sol\":1531:1544  _checkOwner() */\n      jump\t// in\n    tag_309:\n      sub(shl(0xa0, 0x01), 0x01)\n        /* \"@openzeppelin/contracts/access/Ownable.sol\":2627:2649  newOwner == address(0) */\n      dup2\n      and\n        /* \"@openzeppelin/contracts/access/Ownable.sol\":2623:2714  if (newOwner == address(0)) {... */\n      tag_311\n      jumpi\n        /* \"@openzeppelin/contracts/access/Ownable.sol\":2672:2703  OwnableInvalidOwner(address(0)) */\n      mload(0x40)\n      shl(0xe0, 0x1e4fbdf7)\n      dup2\n      mstore\n        /* \"@openzeppelin/contracts/access/Ownable.sol\":2700:2701  0 */\n      0x00\n        /* \"@openzeppelin/contracts/access/Ownable.sol\":2672:2703  OwnableInvalidOwner(address(0)) */\n      0x04\n      dup3\n      add\n        /* \"#utility.yul\":4927:4978   */\n      mstore\n        /* \"#utility.yul\":4900:4918   */\n      0x24\n      add\n        /* \"@openzeppelin/contracts/access/Ownable.sol\":2672:2703  OwnableInvalidOwner(address(0)) */\n      tag_148\n        /* \"#utility.yul\":4781:4984   */\n      jump\n        /* \"@openzeppelin/contracts/access/Ownable.sol\":2623:2714  if (newOwner == address(0)) {... */\n    tag_311:\n        /* \"@openzeppelin/contracts/access/Ownable.sol\":2723:2751  _transferOwnership(newOwner) */\n      tag_227\n        /* \"@openzeppelin/contracts/access/Ownable.sol\":2742:2750  newOwner */\n      dup2\n        /* \"@openzeppelin/contracts/access/Ownable.sol\":2723:2741  _transferOwnership */\n      tag_280\n        /* \"@openzeppelin/contracts/access/Ownable.sol\":2723:2751  _transferOwnership(newOwner) */\n      jump\t// in\n        /* \"Marketplace.sol\":4186:5039  function batchListNFTs(... */\n    tag_129:\n        /* \"Marketplace.sol\":4412:4428  uint256[] memory */\n      0x60\n        /* \"@openzeppelin/contracts/access/Ownable.sol\":1531:1544  _checkOwner() */\n      tag_315\n        /* \"@openzeppelin/contracts/access/Ownable.sol\":1531:1542  _checkOwner */\n      tag_145\n        /* \"@openzeppelin/contracts/access/Ownable.sol\":1531:1544  _checkOwner() */\n      jump\t// in\n    tag_315:\n        /* \"@openzeppelin/contracts/security/Pausable.sol\":1239:1258  _requireNotPaused() */\n      tag_317\n        /* \"@openzeppelin/contracts/security/Pausable.sol\":1239:1256  _requireNotPaused */\n      tag_194\n        /* \"@openzeppelin/contracts/security/Pausable.sol\":1239:1258  _requireNotPaused() */\n      jump\t// in\n    tag_317:\n        /* \"Marketplace.sol\":4461:4499  nftContracts.length == tokenIds.length */\n      dup8\n      dup7\n      eq\n        /* \"Marketplace.sol\":4461:4554  nftContracts.length == tokenIds.length &&... */\n      dup1\n      iszero\n      tag_319\n      jumpi\n      pop\n        /* \"Marketplace.sol\":4515:4554  tokenIds.length == paymentTokens.length */\n      dup6\n      dup5\n      eq\n        /* \"Marketplace.sol\":4461:4554  nftContracts.length == tokenIds.length &&... */\n    tag_319:\n        /* \"Marketplace.sol\":4461:4607  nftContracts.length == tokenIds.length &&... */\n      dup1\n      iszero\n      tag_320\n      jumpi\n      pop\n        /* \"Marketplace.sol\":4570:4607  paymentTokens.length == prices.length */\n      dup4\n      dup3\n      eq\n        /* \"Marketplace.sol\":4461:4607  nftContracts.length == tokenIds.length &&... */\n    tag_320:\n        /* \"Marketplace.sol\":4440:4655  require(... */\n      tag_321\n      jumpi\n      mload(0x40)\n      shl(0xe5, 0x461bcd)\n      dup2\n      mstore\n        /* \"#utility.yul\":13939:13941   */\n      0x20\n        /* \"Marketplace.sol\":4440:4655  require(... */\n      0x04\n      dup3\n      add\n        /* \"#utility.yul\":13921:13942   */\n      mstore\n        /* \"#utility.yul\":13978:13980   */\n      0x16\n        /* \"#utility.yul\":13958:13976   */\n      0x24\n      dup3\n      add\n        /* \"#utility.yul\":13951:13981   */\n      mstore\n      shl(0x53, 0x082e4e4c2f240d8cadccee8d0e640dad2e6dac2e8c6d)\n        /* \"#utility.yul\":13997:14015   */\n      0x44\n      dup3\n      add\n        /* \"#utility.yul\":13990:14042   */\n      mstore\n        /* \"#utility.yul\":14059:14077   */\n      0x64\n      add\n        /* \"Marketplace.sol\":4440:4655  require(... */\n      tag_148\n        /* \"#utility.yul\":13737:14083   */\n      jump\n        /* \"Marketplace.sol\":4440:4655  require(... */\n    tag_321:\n        /* \"Marketplace.sol\":4674:4701  uint256[] memory listingIds */\n      0x00\n        /* \"Marketplace.sol\":4718:4730  nftContracts */\n      dup9\n        /* \"Marketplace.sol\":4704:4738  new uint256[](nftContracts.length) */\n      0xffffffffffffffff\n      dup2\n      gt\n      iszero\n      tag_325\n      jumpi\n      tag_325\n      tag_158\n      jump\t// in\n    tag_325:\n      mload(0x40)\n      swap1\n      dup1\n      dup3\n      mstore\n      dup1\n      0x20\n      mul\n      0x20\n      add\n      dup3\n      add\n      0x40\n      mstore\n      dup1\n      iszero\n      tag_326\n      jumpi\n      dup2\n      0x20\n      add\n      0x20\n      dup3\n      mul\n      dup1\n      calldatasize\n      dup4\n      calldatacopy\n      add\n      swap1\n      pop\n    tag_326:\n      pop\n        /* \"Marketplace.sol\":4674:4738  uint256[] memory listingIds = new uint256[](nftContracts.length) */\n      swap1\n      pop\n        /* \"Marketplace.sol\":4762:4771  uint256 i */\n      0x00\n        /* \"Marketplace.sol\":4757:4997  for (uint256 i = 0; i < nftContracts.length; i++) {... */\n    tag_327:\n        /* \"Marketplace.sol\":4777:4800  i < nftContracts.length */\n      dup10\n      dup2\n      lt\n        /* \"Marketplace.sol\":4757:4997  for (uint256 i = 0; i < nftContracts.length; i++) {... */\n      iszero\n      tag_328\n      jumpi\n        /* \"Marketplace.sol\":4837:4841  this */\n      address\n        /* \"Marketplace.sol\":4837:4849  this.listNFT */\n      0xf7adbbc9\n        /* \"Marketplace.sol\":4867:4879  nftContracts */\n      dup13\n      dup13\n        /* \"Marketplace.sol\":4880:4881  i */\n      dup5\n        /* \"Marketplace.sol\":4867:4882  nftContracts[i] */\n      dup2\n      dup2\n      lt\n      tag_331\n      jumpi\n      tag_331\n      tag_168\n      jump\t// in\n    tag_331:\n      swap1\n      pop\n      0x20\n      mul\n      add\n      0x20\n      dup2\n      add\n      swap1\n      tag_332\n      swap2\n      swap1\n      tag_87\n      jump\t// in\n    tag_332:\n        /* \"Marketplace.sol\":4900:4908  tokenIds */\n      dup12\n      dup12\n        /* \"Marketplace.sol\":4909:4910  i */\n      dup6\n        /* \"Marketplace.sol\":4900:4911  tokenIds[i] */\n      dup2\n      dup2\n      lt\n      tag_334\n      jumpi\n      tag_334\n      tag_168\n      jump\t// in\n    tag_334:\n      swap1\n      pop\n      0x20\n      mul\n      add\n      calldataload\n        /* \"Marketplace.sol\":4929:4942  paymentTokens */\n      dup11\n      dup11\n        /* \"Marketplace.sol\":4943:4944  i */\n      dup7\n        /* \"Marketplace.sol\":4929:4945  paymentTokens[i] */\n      dup2\n      dup2\n      lt\n      tag_336\n      jumpi\n      tag_336\n      tag_168\n      jump\t// in\n    tag_336:\n      swap1\n      pop\n      0x20\n      mul\n      add\n      0x20\n      dup2\n      add\n      swap1\n      tag_337\n      swap2\n      swap1\n      tag_87\n      jump\t// in\n    tag_337:\n        /* \"Marketplace.sol\":4963:4969  prices */\n      dup10\n      dup10\n        /* \"Marketplace.sol\":4970:4971  i */\n      dup8\n        /* \"Marketplace.sol\":4963:4972  prices[i] */\n      dup2\n      dup2\n      lt\n      tag_339\n      jumpi\n      tag_339\n      tag_168\n      jump\t// in\n    tag_339:\n        /* \"Marketplace.sol\":4837:4986  this.listNFT(... */\n      mload(0x40)\n      0xe0\n      dup9\n      swap1\n      shl\n      not(sub(shl(0xe0, 0x01), 0x01))\n      and\n      dup2\n      mstore\n      sub(shl(0xa0, 0x01), 0x01)\n        /* \"#utility.yul\":14375:14390   */\n      swap7\n      dup8\n      and\n        /* \"Marketplace.sol\":4837:4986  this.listNFT(... */\n      0x04\n      dup3\n      add\n        /* \"#utility.yul\":14357:14391   */\n      mstore\n        /* \"#utility.yul\":14407:14425   */\n      0x24\n      dup2\n      add\n        /* \"#utility.yul\":14400:14434   */\n      swap6\n      swap1\n      swap6\n      mstore\n        /* \"#utility.yul\":14470:14485   */\n      swap3\n      swap1\n      swap5\n      and\n        /* \"#utility.yul\":14450:14468   */\n      0x44\n      dup5\n      add\n        /* \"#utility.yul\":14443:14486   */\n      mstore\n        /* \"Marketplace.sol\":4963:4972  prices[i] */\n      0x20\n      swap1\n      swap2\n      mul\n      add\n      calldataload\n        /* \"#utility.yul\":14502:14520   */\n      0x64\n      dup3\n      add\n        /* \"#utility.yul\":14495:14529   */\n      mstore\n        /* \"#utility.yul\":14291:14310   */\n      0x84\n      add\n      swap1\n      pop\n        /* \"Marketplace.sol\":4837:4986  this.listNFT(... */\n      0x20\n      mload(0x40)\n      dup1\n      dup4\n      sub\n      dup2\n      0x00\n      dup8\n      gas\n      call\n      iszero\n      dup1\n      iszero\n      tag_343\n      jumpi\n      returndatasize\n      0x00\n      dup1\n      returndatacopy\n      revert(0x00, returndatasize)\n    tag_343:\n      pop\n      pop\n      pop\n      pop\n      mload(0x40)\n      returndatasize\n      not(0x1f)\n      0x1f\n      dup3\n      add\n      and\n      dup3\n      add\n      dup1\n      0x40\n      mstore\n      pop\n      dup2\n      add\n      swap1\n      tag_344\n      swap2\n      swap1\n      tag_345\n      jump\t// in\n    tag_344:\n        /* \"Marketplace.sol\":4821:4831  listingIds */\n      dup3\n        /* \"Marketplace.sol\":4832:4833  i */\n      dup3\n        /* \"Marketplace.sol\":4821:4834  listingIds[i] */\n      dup2\n      mload\n      dup2\n      lt\n      tag_347\n      jumpi\n      tag_347\n      tag_168\n      jump\t// in\n    tag_347:\n      0x20\n      swap1\n      dup2\n      mul\n      swap2\n      swap1\n      swap2\n      add\n      add\n        /* \"Marketplace.sol\":4821:4986  listingIds[i] = this.listNFT(... */\n      mstore\n        /* \"Marketplace.sol\":4802:4805  i++ */\n      0x01\n      add\n        /* \"Marketplace.sol\":4757:4997  for (uint256 i = 0; i < nftContracts.length; i++) {... */\n      jump(tag_327)\n    tag_328:\n      pop\n        /* \"Marketplace.sol\":5022:5032  listingIds */\n      swap10\n        /* \"Marketplace.sol\":4186:5039  function batchListNFTs(... */\n      swap9\n      pop\n      pop\n      pop\n      pop\n      pop\n      pop\n      pop\n      pop\n      pop\n      jump\t// out\n        /* \"Marketplace.sol\":2837:3928  function listNFT(... */\n    tag_136:\n        /* \"Marketplace.sol\":3009:3016  uint256 */\n      0x00\n        /* \"@openzeppelin/contracts/access/Ownable.sol\":1531:1544  _checkOwner() */\n      tag_349\n        /* \"@openzeppelin/contracts/access/Ownable.sol\":1531:1542  _checkOwner */\n      tag_145\n        /* \"@openzeppelin/contracts/access/Ownable.sol\":1531:1544  _checkOwner() */\n      jump\t// in\n    tag_349:\n        /* \"@openzeppelin/contracts/security/Pausable.sol\":1239:1258  _requireNotPaused() */\n      tag_351\n        /* \"@openzeppelin/contracts/security/Pausable.sol\":1239:1256  _requireNotPaused */\n      tag_194\n        /* \"@openzeppelin/contracts/security/Pausable.sol\":1239:1258  _requireNotPaused() */\n      jump\t// in\n    tag_351:\n      sub(shl(0xa0, 0x01), 0x01)\n        /* \"Marketplace.sol\":3036:3061  nftContract != address(0) */\n      dup6\n      and\n        /* \"Marketplace.sol\":3028:3086  require(nftContract != address(0), \"Invalid NFT contract\") */\n      tag_353\n      jumpi\n      mload(0x40)\n      shl(0xe5, 0x461bcd)\n      dup2\n      mstore\n        /* \"#utility.yul\":14931:14933   */\n      0x20\n        /* \"Marketplace.sol\":3028:3086  require(nftContract != address(0), \"Invalid NFT contract\") */\n      0x04\n      dup3\n      add\n        /* \"#utility.yul\":14913:14934   */\n      mstore\n        /* \"#utility.yul\":14970:14972   */\n      0x14\n        /* \"#utility.yul\":14950:14968   */\n      0x24\n      dup3\n      add\n        /* \"#utility.yul\":14943:14973   */\n      mstore\n      shl(0x62, 0x125b9d985b1a59081391950818dbdb9d1c9858dd)\n        /* \"#utility.yul\":14989:15007   */\n      0x44\n      dup3\n      add\n        /* \"#utility.yul\":14982:15032   */\n      mstore\n        /* \"#utility.yul\":15049:15067   */\n      0x64\n      add\n        /* \"Marketplace.sol\":3028:3086  require(nftContract != address(0), \"Invalid NFT contract\") */\n      tag_148\n        /* \"#utility.yul\":14729:15073   */\n      jump\n        /* \"Marketplace.sol\":3028:3086  require(nftContract != address(0), \"Invalid NFT contract\") */\n    tag_353:\n        /* \"Marketplace.sol\":3112:3113  0 */\n      0x00\n        /* \"Marketplace.sol\":3104:3109  price */\n      dup3\n        /* \"Marketplace.sol\":3104:3113  price > 0 */\n      gt\n        /* \"Marketplace.sol\":3096:3146  require(price > 0, \"Price must be greater than 0\") */\n      tag_356\n      jumpi\n      mload(0x40)\n      shl(0xe5, 0x461bcd)\n      dup2\n      mstore\n        /* \"#utility.yul\":13582:13584   */\n      0x20\n        /* \"Marketplace.sol\":3096:3146  require(price > 0, \"Price must be greater than 0\") */\n      0x04\n      dup3\n      add\n        /* \"#utility.yul\":13564:13585   */\n      mstore\n        /* \"#utility.yul\":13621:13623   */\n      0x1c\n        /* \"#utility.yul\":13601:13619   */\n      0x24\n      dup3\n      add\n        /* \"#utility.yul\":13594:13624   */\n      mstore\n        /* \"#utility.yul\":13660:13690   */\n      0x5072696365206d7573742062652067726561746572207468616e203000000000\n        /* \"#utility.yul\":13640:13658   */\n      0x44\n      dup3\n      add\n        /* \"#utility.yul\":13633:13691   */\n      mstore\n        /* \"#utility.yul\":13708:13726   */\n      0x64\n      add\n        /* \"Marketplace.sol\":3096:3146  require(price > 0, \"Price must be greater than 0\") */\n      tag_148\n        /* \"#utility.yul\":13380:13732   */\n      jump\n        /* \"Marketplace.sol\":3096:3146  require(price > 0, \"Price must be greater than 0\") */\n    tag_356:\n      sub(shl(0xa0, 0x01), 0x01)\n        /* \"Marketplace.sol\":3165:3186  isListed[nftContract] */\n      dup6\n      and\n      0x00\n      swap1\n      dup2\n      mstore\n        /* \"Marketplace.sol\":3165:3173  isListed */\n      0x05\n        /* \"Marketplace.sol\":3165:3186  isListed[nftContract] */\n      0x20\n      swap1\n      dup2\n      mstore\n      0x40\n      dup1\n      dup4\n      keccak256\n        /* \"Marketplace.sol\":3165:3195  isListed[nftContract][tokenId] */\n      dup8\n      dup5\n      mstore\n      swap1\n      swap2\n      mstore\n      swap1\n      keccak256\n      sload\n      0xff\n      and\n        /* \"Marketplace.sol\":3164:3195  !isListed[nftContract][tokenId] */\n      iszero\n        /* \"Marketplace.sol\":3156:3218  require(!isListed[nftContract][tokenId], \"NFT already listed\") */\n      tag_358\n      jumpi\n      mload(0x40)\n      shl(0xe5, 0x461bcd)\n      dup2\n      mstore\n        /* \"#utility.yul\":15280:15282   */\n      0x20\n        /* \"Marketplace.sol\":3156:3218  require(!isListed[nftContract][tokenId], \"NFT already listed\") */\n      0x04\n      dup3\n      add\n        /* \"#utility.yul\":15262:15283   */\n      mstore\n        /* \"#utility.yul\":15319:15321   */\n      0x12\n        /* \"#utility.yul\":15299:15317   */\n      0x24\n      dup3\n      add\n        /* \"#utility.yul\":15292:15322   */\n      mstore\n      shl(0x72, 0x13919508185b1c9958591e481b1a5cdd1959)\n        /* \"#utility.yul\":15338:15356   */\n      0x44\n      dup3\n      add\n        /* \"#utility.yul\":15331:15379   */\n      mstore\n        /* \"#utility.yul\":15396:15414   */\n      0x64\n      add\n        /* \"Marketplace.sol\":3156:3218  require(!isListed[nftContract][tokenId], \"NFT already listed\") */\n      tag_148\n        /* \"#utility.yul\":15078:15420   */\n      jump\n        /* \"Marketplace.sol\":3156:3218  require(!isListed[nftContract][tokenId], \"NFT already listed\") */\n    tag_358:\n        /* \"Marketplace.sol\":3330:3350  nft.ownerOf(tokenId) */\n      mload(0x40)\n      shl(0xe1, 0x31a9108f)\n      dup2\n      mstore\n      0x04\n      dup2\n      add\n        /* \"#utility.yul\":5640:5665   */\n      dup6\n      swap1\n      mstore\n        /* \"Marketplace.sol\":3300:3311  nftContract */\n      dup6\n      swap1\n        /* \"Marketplace.sol\":3362:3366  this */\n      address\n      swap1\n      sub(shl(0xa0, 0x01), 0x01)\n        /* \"Marketplace.sol\":3330:3341  nft.ownerOf */\n      dup4\n      and\n      swap1\n      0x6352211e\n      swap1\n        /* \"#utility.yul\":5613:5631   */\n      0x24\n      add\n        /* \"Marketplace.sol\":3330:3350  nft.ownerOf(tokenId) */\n      0x20\n      mload(0x40)\n      dup1\n      dup4\n      sub\n      dup2\n      dup7\n      gas\n      staticcall\n      iszero\n      dup1\n      iszero\n      tag_363\n      jumpi\n      returndatasize\n      0x00\n      dup1\n      returndatacopy\n      revert(0x00, returndatasize)\n    tag_363:\n      pop\n      pop\n      pop\n      pop\n      mload(0x40)\n      returndatasize\n      not(0x1f)\n      0x1f\n      dup3\n      add\n      and\n      dup3\n      add\n      dup1\n      0x40\n      mstore\n      pop\n      dup2\n      add\n      swap1\n      tag_364\n      swap2\n      swap1\n      tag_365\n      jump\t// in\n    tag_364:\n      sub(shl(0xa0, 0x01), 0x01)\n        /* \"Marketplace.sol\":3330:3367  nft.ownerOf(tokenId) == address(this) */\n      and\n      eq\n        /* \"Marketplace.sol\":3322:3397  require(nft.ownerOf(tokenId) == address(this), \"Shop doesn't own this NFT\") */\n      tag_366\n      jumpi\n      mload(0x40)\n      shl(0xe5, 0x461bcd)\n      dup2\n      mstore\n        /* \"#utility.yul\":15883:15885   */\n      0x20\n        /* \"Marketplace.sol\":3322:3397  require(nft.ownerOf(tokenId) == address(this), \"Shop doesn't own this NFT\") */\n      0x04\n      dup3\n      add\n        /* \"#utility.yul\":15865:15886   */\n      mstore\n        /* \"#utility.yul\":15922:15924   */\n      0x19\n        /* \"#utility.yul\":15902:15920   */\n      0x24\n      dup3\n      add\n        /* \"#utility.yul\":15895:15925   */\n      mstore\n        /* \"#utility.yul\":15961:15988   */\n      0x53686f7020646f65736e2774206f776e2074686973204e465400000000000000\n        /* \"#utility.yul\":15941:15959   */\n      0x44\n      dup3\n      add\n        /* \"#utility.yul\":15934:15989   */\n      mstore\n        /* \"#utility.yul\":16006:16024   */\n      0x64\n      add\n        /* \"Marketplace.sol\":3322:3397  require(nft.ownerOf(tokenId) == address(this), \"Shop doesn't own this NFT\") */\n      tag_148\n        /* \"#utility.yul\":15681:16030   */\n      jump\n        /* \"Marketplace.sol\":3322:3397  require(nft.ownerOf(tokenId) == address(this), \"Shop doesn't own this NFT\") */\n    tag_366:\n        /* \"Marketplace.sol\":3436:3453  _listingIdCounter */\n      0x03\n        /* \"Marketplace.sol\":3436:3455  _listingIdCounter++ */\n      dup1\n      sload\n        /* \"Marketplace.sol\":3416:3433  uint256 listingId */\n      0x00\n      swap2\n      dup3\n        /* \"Marketplace.sol\":3436:3455  _listingIdCounter++ */\n      tag_369\n      dup4\n      tag_370\n      jump\t// in\n    tag_369:\n      swap1\n      swap2\n      sstore\n      pop\n        /* \"Marketplace.sol\":3496:3743  Listing({... */\n      0x40\n      dup1\n      mload\n      0xe0\n      dup2\n      add\n      dup3\n      mstore\n      dup3\n      dup2\n      mstore\n      sub(shl(0xa0, 0x01), 0x01)\n      dup1\n      dup12\n      and\n      0x20\n      dup1\n      dup5\n      add\n      dup3\n      dup2\n      mstore\n      dup5\n      dup7\n      add\n      dup14\n      dup2\n      mstore\n      dup13\n      dup6\n      and\n      0x60\n      dup8\n      add\n      swap1\n      dup2\n      mstore\n      0x80\n      dup8\n      add\n      dup14\n      dup2\n      mstore\n        /* \"Marketplace.sol\":3694:3704  msg.sender */\n      caller\n        /* \"Marketplace.sol\":3496:3743  Listing({... */\n      0xa0\n      dup10\n      add\n      swap1\n      dup2\n      mstore\n        /* \"Marketplace.sol\":3728:3732  true */\n      0x01\n        /* \"Marketplace.sol\":3496:3743  Listing({... */\n      0xc0\n      dup11\n      add\n      dup2\n      dup2\n      mstore\n      0x00\n        /* \"Marketplace.sol\":3474:3493  listings[listingId] */\n      dup14\n      dup2\n      mstore\n        /* \"Marketplace.sol\":3474:3482  listings */\n      0x04\n        /* \"Marketplace.sol\":3474:3493  listings[listingId] */\n      dup1\n      dup11\n      mstore\n      dup14\n      dup3\n      keccak256\n        /* \"Marketplace.sol\":3474:3743  listings[listingId] = Listing({... */\n      swap13\n      mload\n      dup14\n      sstore\n      swap8\n      mload\n      dup13\n      dup5\n      add\n      dup1\n      sload\n      swap2\n      dup14\n      and\n      not(sub(shl(0xa0, 0x01), 0x01))\n      swap3\n      dup4\n      and\n      or\n      swap1\n      sstore\n      swap7\n      mload\n      0x02\n      dup14\n      add\n      sstore\n      swap5\n      mload\n      0x03\n      dup13\n      add\n      dup1\n      sload\n      swap2\n      dup13\n      and\n      swap2\n      swap1\n      swap8\n      and\n      or\n      swap1\n      swap6\n      sstore\n      swap2\n      mload\n      swap5\n      dup10\n      add\n      swap5\n      swap1\n      swap5\n      sstore\n      swap3\n      mload\n      0x05\n      swap8\n      dup9\n      add\n      dup1\n      sload\n      swap4\n      mload\n      iszero\n      iszero\n      shl(0xa0, 0x01)\n      mul\n      not(sub(shl(0xa8, 0x01), 0x01))\n      swap1\n      swap5\n      and\n      swap2\n      swap1\n      swap8\n      and\n      or\n      swap2\n      swap1\n      swap2\n      or\n      swap1\n      swap5\n      sstore\n        /* \"Marketplace.sol\":3762:3783  isListed[nftContract] */\n      dup3\n      dup5\n      mstore\n      swap4\n      dup2\n      mstore\n      dup5\n      dup4\n      keccak256\n        /* \"Marketplace.sol\":3762:3792  isListed[nftContract][tokenId] */\n      dup13\n      dup5\n      mstore\n      swap1\n      mstore\n      swap1\n      dup4\n      swap1\n      keccak256\n        /* \"Marketplace.sol\":3762:3799  isListed[nftContract][tokenId] = true */\n      dup1\n      sload\n      not(0xff)\n      and\n      swap1\n      swap3\n      or\n      swap1\n      swap2\n      sstore\n        /* \"Marketplace.sol\":3823:3886  NFTListed(listingId, nftContract, tokenId, paymentToken, price) */\n      swap1\n      mload\n        /* \"Marketplace.sol\":3416:3455  uint256 listingId = _listingIdCounter++ */\n      swap2\n      swap3\n      pop\n        /* \"Marketplace.sol\":3599:3606  tokenId */\n      dup8\n      swap2\n        /* \"Marketplace.sol\":3416:3455  uint256 listingId = _listingIdCounter++ */\n      dup4\n      swap1\n        /* \"Marketplace.sol\":3823:3886  NFTListed(listingId, nftContract, tokenId, paymentToken, price) */\n      0x18c93addaf4d0e5982a13cb88444441b90223974eaf9d6e898151cb4d96bf153\n      swap1\n      tag_371\n      swap1\n        /* \"Marketplace.sol\":3634:3646  paymentToken */\n      dup11\n      swap1\n        /* \"Marketplace.sol\":3667:3672  price */\n      dup11\n      swap1\n      sub(shl(0xa0, 0x01), 0x01)\n        /* \"#utility.yul\":10127:10159   */\n      swap3\n      swap1\n      swap3\n      and\n        /* \"#utility.yul\":10109:10160   */\n      dup3\n      mstore\n        /* \"#utility.yul\":10191:10193   */\n      0x20\n        /* \"#utility.yul\":10176:10194   */\n      dup3\n      add\n        /* \"#utility.yul\":10169:10203   */\n      mstore\n        /* \"#utility.yul\":10097:10099   */\n      0x40\n        /* \"#utility.yul\":10082:10100   */\n      add\n      swap1\n        /* \"#utility.yul\":9935:10209   */\n      jump\n        /* \"Marketplace.sol\":3823:3886  NFTListed(listingId, nftContract, tokenId, paymentToken, price) */\n    tag_371:\n      mload(0x40)\n      dup1\n      swap2\n      sub\n      swap1\n      log4\n        /* \"Marketplace.sol\":3912:3921  listingId */\n      swap7\n        /* \"Marketplace.sol\":2837:3928  function listNFT(... */\n      swap6\n      pop\n      pop\n      pop\n      pop\n      pop\n      pop\n      jump\t// out\n        /* \"@openzeppelin/contracts/access/Ownable.sol\":1796:1958  function _checkOwner() internal view virtual {... */\n    tag_145:\n        /* \"@openzeppelin/contracts/access/Ownable.sol\":1684:1691  address */\n      0x00\n        /* \"@openzeppelin/contracts/access/Ownable.sol\":1710:1716  _owner */\n      sload\n      sub(shl(0xa0, 0x01), 0x01)\n      and\n        /* \"@openzeppelin/contracts/utils/Context.sol\":735:745  msg.sender */\n      caller\n        /* \"@openzeppelin/contracts/access/Ownable.sol\":1855:1878  owner() != _msgSender() */\n      eq\n        /* \"@openzeppelin/contracts/access/Ownable.sol\":1851:1952  if (owner() != _msgSender()) {... */\n      tag_187\n      jumpi\n        /* \"@openzeppelin/contracts/access/Ownable.sol\":1901:1941  OwnableUnauthorizedAccount(_msgSender()) */\n      mload(0x40)\n      shl(0xe0, 0x118cdaa7)\n      dup2\n      mstore\n        /* \"@openzeppelin/contracts/utils/Context.sol\":735:745  msg.sender */\n      caller\n        /* \"@openzeppelin/contracts/access/Ownable.sol\":1901:1941  OwnableUnauthorizedAccount(_msgSender()) */\n      0x04\n      dup3\n      add\n        /* \"#utility.yul\":4927:4978   */\n      mstore\n        /* \"#utility.yul\":4900:4918   */\n      0x24\n      add\n        /* \"@openzeppelin/contracts/access/Ownable.sol\":1901:1941  OwnableUnauthorizedAccount(_msgSender()) */\n      tag_148\n        /* \"#utility.yul\":4781:4984   */\n      jump\n        /* \"@openzeppelin/contracts/security/Pausable.sol\":2433:2550  function _unpause() internal virtual whenPaused {... */\n    tag_188:\n        /* \"@openzeppelin/contracts/security/Pausable.sol\":1486:1502  _requirePaused() */\n      tag_381\n        /* \"@openzeppelin/contracts/security/Pausable.sol\":1486:1500  _requirePaused */\n      tag_382\n        /* \"@openzeppelin/contracts/security/Pausable.sol\":1486:1502  _requirePaused() */\n      jump\t// in\n    tag_381:\n        /* \"@openzeppelin/contracts/security/Pausable.sol\":2491:2498  _paused */\n      0x02\n        /* \"@openzeppelin/contracts/security/Pausable.sol\":2491:2506  _paused = false */\n      dup1\n      sload\n      not(0xff)\n      and\n      swap1\n      sstore\n        /* \"@openzeppelin/contracts/security/Pausable.sol\":2521:2543  Unpaused(_msgSender()) */\n      0x5db9ee0a495bf2e6ff9c91a7834c1ba4fdd244a5e8aa4e537bd38aeae4b073aa\n        /* \"@openzeppelin/contracts/utils/Context.sol\":735:745  msg.sender */\n      caller\n        /* \"@openzeppelin/contracts/security/Pausable.sol\":2530:2542  _msgSender() */\n    tag_384:\n        /* \"@openzeppelin/contracts/security/Pausable.sol\":2521:2543  Unpaused(_msgSender()) */\n      mload(0x40)\n      sub(shl(0xa0, 0x01), 0x01)\n        /* \"#utility.yul\":4945:4977   */\n      swap1\n      swap2\n      and\n        /* \"#utility.yul\":4927:4978   */\n      dup2\n      mstore\n        /* \"#utility.yul\":4915:4917   */\n      0x20\n        /* \"#utility.yul\":4900:4918   */\n      add\n        /* \"@openzeppelin/contracts/security/Pausable.sol\":2521:2543  Unpaused(_msgSender()) */\n      mload(0x40)\n      dup1\n      swap2\n      sub\n      swap1\n      log1\n        /* \"@openzeppelin/contracts/security/Pausable.sol\":2433:2550  function _unpause() internal virtual whenPaused {... */\n      jump\t// out\n        /* \"@openzeppelin/contracts/security/ReentrancyGuard.sol\":2336:2623  function _nonReentrantBefore() private {... */\n    tag_191:\n        /* \"@openzeppelin/contracts/security/ReentrancyGuard.sol\":1759:1760  2 */\n      0x02\n        /* \"@openzeppelin/contracts/security/ReentrancyGuard.sol\":2468:2475  _status */\n      sload(0x01)\n        /* \"@openzeppelin/contracts/security/ReentrancyGuard.sol\":2468:2487  _status != _ENTERED */\n      sub\n        /* \"@openzeppelin/contracts/security/ReentrancyGuard.sol\":2460:2523  require(_status != _ENTERED, \"ReentrancyGuard: reentrant call\") */\n      tag_387\n      jumpi\n      mload(0x40)\n      shl(0xe5, 0x461bcd)\n      dup2\n      mstore\n        /* \"#utility.yul\":16377:16379   */\n      0x20\n        /* \"@openzeppelin/contracts/security/ReentrancyGuard.sol\":2460:2523  require(_status != _ENTERED, \"ReentrancyGuard: reentrant call\") */\n      0x04\n      dup3\n      add\n        /* \"#utility.yul\":16359:16380   */\n      mstore\n        /* \"#utility.yul\":16416:16418   */\n      0x1f\n        /* \"#utility.yul\":16396:16414   */\n      0x24\n      dup3\n      add\n        /* \"#utility.yul\":16389:16419   */\n      mstore\n        /* \"#utility.yul\":16455:16488   */\n      0x5265656e7472616e637947756172643a207265656e7472616e742063616c6c00\n        /* \"#utility.yul\":16435:16453   */\n      0x44\n      dup3\n      add\n        /* \"#utility.yul\":16428:16489   */\n      mstore\n        /* \"#utility.yul\":16506:16524   */\n      0x64\n      add\n        /* \"@openzeppelin/contracts/security/ReentrancyGuard.sol\":2460:2523  require(_status != _ENTERED, \"ReentrancyGuard: reentrant call\") */\n      tag_148\n        /* \"#utility.yul\":16175:16530   */\n      jump\n        /* \"@openzeppelin/contracts/security/ReentrancyGuard.sol\":2460:2523  require(_status != _ENTERED, \"ReentrancyGuard: reentrant call\") */\n    tag_387:\n        /* \"@openzeppelin/contracts/security/ReentrancyGuard.sol\":1759:1760  2 */\n      0x02\n        /* \"@openzeppelin/contracts/security/ReentrancyGuard.sol\":2598:2605  _status */\n      0x01\n        /* \"@openzeppelin/contracts/security/ReentrancyGuard.sol\":2598:2616  _status = _ENTERED */\n      sstore\n        /* \"@openzeppelin/contracts/security/ReentrancyGuard.sol\":2336:2623  function _nonReentrantBefore() private {... */\n      jump\t// out\n        /* \"@openzeppelin/contracts/security/Pausable.sol\":1767:1873  function _requireNotPaused() internal view virtual {... */\n    tag_194:\n        /* \"@openzeppelin/contracts/security/Pausable.sol\":1685:1692  _paused */\n      and(0xff, sload(0x02))\n        /* \"@openzeppelin/contracts/security/Pausable.sol\":1836:1845  !paused() */\n      iszero\n        /* \"@openzeppelin/contracts/security/Pausable.sol\":1828:1866  require(!paused(), \"Pausable: paused\") */\n      tag_187\n      jumpi\n      mload(0x40)\n      shl(0xe5, 0x461bcd)\n      dup2\n      mstore\n        /* \"#utility.yul\":16737:16739   */\n      0x20\n        /* \"@openzeppelin/contracts/security/Pausable.sol\":1828:1866  require(!paused(), \"Pausable: paused\") */\n      0x04\n      dup3\n      add\n        /* \"#utility.yul\":16719:16740   */\n      mstore\n        /* \"#utility.yul\":16776:16778   */\n      0x10\n        /* \"#utility.yul\":16756:16774   */\n      0x24\n      dup3\n      add\n        /* \"#utility.yul\":16749:16779   */\n      mstore\n      shl(0x82, 0x14185d5cd8589b194e881c185d5cd959)\n        /* \"#utility.yul\":16795:16813   */\n      0x44\n      dup3\n      add\n        /* \"#utility.yul\":16788:16834   */\n      mstore\n        /* \"#utility.yul\":16851:16869   */\n      0x64\n      add\n        /* \"@openzeppelin/contracts/security/Pausable.sol\":1828:1866  require(!paused(), \"Pausable: paused\") */\n      tag_148\n        /* \"#utility.yul\":16535:16875   */\n      jump\n        /* \"@openzeppelin/contracts/access/Ownable.sol\":2912:3099  function _transferOwnership(address newOwner) internal virtual {... */\n    tag_280:\n        /* \"@openzeppelin/contracts/access/Ownable.sol\":2985:3001  address oldOwner */\n      0x00\n        /* \"@openzeppelin/contracts/access/Ownable.sol\":3004:3010  _owner */\n      dup1\n      sload\n      sub(shl(0xa0, 0x01), 0x01)\n        /* \"@openzeppelin/contracts/access/Ownable.sol\":3020:3037  _owner = newOwner */\n      dup4\n      dup2\n      and\n      not(sub(shl(0xa0, 0x01), 0x01))\n      dup4\n      and\n      dup2\n      or\n      dup5\n      sstore\n        /* \"@openzeppelin/contracts/access/Ownable.sol\":3052:3092  OwnershipTransferred(oldOwner, newOwner) */\n      mload(0x40)\n        /* \"@openzeppelin/contracts/access/Ownable.sol\":3004:3010  _owner */\n      swap2\n      swap1\n      swap3\n      and\n      swap3\n      dup4\n      swap2\n        /* \"@openzeppelin/contracts/access/Ownable.sol\":3052:3092  OwnershipTransferred(oldOwner, newOwner) */\n      0x8be0079c531659141344cd1fd0a4f28419497f9722a3daafe3b4186f6b6457e0\n      swap2\n        /* \"@openzeppelin/contracts/access/Ownable.sol\":2985:3001  address oldOwner */\n      swap1\n        /* \"@openzeppelin/contracts/access/Ownable.sol\":3052:3092  OwnershipTransferred(oldOwner, newOwner) */\n      log3\n        /* \"@openzeppelin/contracts/access/Ownable.sol\":2975:3099  {... */\n      pop\n        /* \"@openzeppelin/contracts/access/Ownable.sol\":2912:3099  function _transferOwnership(address newOwner) internal virtual {... */\n      pop\n      jump\t// out\n        /* \"@openzeppelin/contracts/security/Pausable.sol\":2186:2301  function _pause() internal virtual whenNotPaused {... */\n    tag_300:\n        /* \"@openzeppelin/contracts/security/Pausable.sol\":1239:1258  _requireNotPaused() */\n      tag_398\n        /* \"@openzeppelin/contracts/security/Pausable.sol\":1239:1256  _requireNotPaused */\n      tag_194\n        /* \"@openzeppelin/contracts/security/Pausable.sol\":1239:1258  _requireNotPaused() */\n      jump\t// in\n    tag_398:\n        /* \"@openzeppelin/contracts/security/Pausable.sol\":2245:2252  _paused */\n      0x02\n        /* \"@openzeppelin/contracts/security/Pausable.sol\":2245:2259  _paused = true */\n      dup1\n      sload\n      not(0xff)\n      and\n        /* \"@openzeppelin/contracts/security/Pausable.sol\":2255:2259  true */\n      0x01\n        /* \"@openzeppelin/contracts/security/Pausable.sol\":2245:2259  _paused = true */\n      or\n      swap1\n      sstore\n        /* \"@openzeppelin/contracts/security/Pausable.sol\":2274:2294  Paused(_msgSender()) */\n      0x62e78cea01bee320cd4e420270b5ea74000d11b0c9f74754ebdbfc544b05a258\n        /* \"@openzeppelin/contracts/security/Pausable.sol\":2281:2293  _msgSender() */\n      tag_384\n        /* \"@openzeppelin/contracts/utils/Context.sol\":735:745  msg.sender */\n      caller\n      swap1\n        /* \"@openzeppelin/contracts/utils/Context.sol\":656:752  function _msgSender() internal view virtual returns (address) {... */\n      jump\n        /* \"@openzeppelin/contracts/security/Pausable.sol\":1945:2051  function _requirePaused() internal view virtual {... */\n    tag_382:\n        /* \"@openzeppelin/contracts/security/Pausable.sol\":1685:1692  _paused */\n      and(0xff, sload(0x02))\n        /* \"@openzeppelin/contracts/security/Pausable.sol\":2003:2044  require(paused(), \"Pausable: not paused\") */\n      tag_187\n      jumpi\n      mload(0x40)\n      shl(0xe5, 0x461bcd)\n      dup2\n      mstore\n        /* \"#utility.yul\":17082:17084   */\n      0x20\n        /* \"@openzeppelin/contracts/security/Pausable.sol\":2003:2044  require(paused(), \"Pausable: not paused\") */\n      0x04\n      dup3\n      add\n        /* \"#utility.yul\":17064:17085   */\n      mstore\n        /* \"#utility.yul\":17121:17123   */\n      0x14\n        /* \"#utility.yul\":17101:17119   */\n      0x24\n      dup3\n      add\n        /* \"#utility.yul\":17094:17124   */\n      mstore\n      shl(0x62, 0x14185d5cd8589b194e881b9bdd081c185d5cd959)\n        /* \"#utility.yul\":17140:17158   */\n      0x44\n      dup3\n      add\n        /* \"#utility.yul\":17133:17183   */\n      mstore\n        /* \"#utility.yul\":17200:17218   */\n      0x64\n      add\n        /* \"@openzeppelin/contracts/security/Pausable.sol\":2003:2044  require(paused(), \"Pausable: not paused\") */\n      tag_148\n        /* \"#utility.yul\":16880:17224   */\n      jump\n        /* \"#utility.yul\":14:145   */\n    tag_408:\n      sub(shl(0xa0, 0x01), 0x01)\n        /* \"#utility.yul\":89:120   */\n      dup2\n      and\n        /* \"#utility.yul\":79:121   */\n      dup2\n      eq\n        /* \"#utility.yul\":69:139   */\n      tag_227\n      jumpi\n        /* \"#utility.yul\":135:136   */\n      0x00\n        /* \"#utility.yul\":132:133   */\n      dup1\n        /* \"#utility.yul\":125:137   */\n      revert\n        /* \"#utility.yul\":150:606   */\n    tag_34:\n        /* \"#utility.yul\":227:233   */\n      0x00\n        /* \"#utility.yul\":235:241   */\n      dup1\n        /* \"#utility.yul\":243:249   */\n      0x00\n        /* \"#utility.yul\":296:298   */\n      0x60\n        /* \"#utility.yul\":284:293   */\n      dup5\n        /* \"#utility.yul\":275:282   */\n      dup7\n        /* \"#utility.yul\":271:294   */\n      sub\n        /* \"#utility.yul\":267:299   */\n      slt\n        /* \"#utility.yul\":264:316   */\n      iszero\n      tag_416\n      jumpi\n        /* \"#utility.yul\":312:313   */\n      0x00\n        /* \"#utility.yul\":309:310   */\n      dup1\n        /* \"#utility.yul\":302:314   */\n      revert\n        /* \"#utility.yul\":264:316   */\n    tag_416:\n        /* \"#utility.yul\":351:360   */\n      dup4\n        /* \"#utility.yul\":338:361   */\n      calldataload\n        /* \"#utility.yul\":370:401   */\n      tag_417\n        /* \"#utility.yul\":395:400   */\n      dup2\n        /* \"#utility.yul\":370:401   */\n      tag_408\n      jump\t// in\n    tag_417:\n        /* \"#utility.yul\":420:425   */\n      swap3\n      pop\n        /* \"#utility.yul\":472:474   */\n      0x20\n        /* \"#utility.yul\":457:475   */\n      dup5\n      add\n        /* \"#utility.yul\":444:476   */\n      calldataload\n      swap2\n      pop\n        /* \"#utility.yul\":528:530   */\n      0x40\n        /* \"#utility.yul\":513:531   */\n      dup5\n      add\n        /* \"#utility.yul\":500:532   */\n      calldataload\n        /* \"#utility.yul\":541:574   */\n      tag_418\n        /* \"#utility.yul\":500:532   */\n      dup2\n        /* \"#utility.yul\":541:574   */\n      tag_408\n      jump\t// in\n    tag_418:\n        /* \"#utility.yul\":593:600   */\n      dup1\n        /* \"#utility.yul\":583:600   */\n      swap2\n      pop\n      pop\n        /* \"#utility.yul\":150:606   */\n      swap3\n      pop\n      swap3\n      pop\n      swap3\n      jump\t// out\n        /* \"#utility.yul\":611:978   */\n    tag_409:\n        /* \"#utility.yul\":674:682   */\n      0x00\n        /* \"#utility.yul\":684:690   */\n      dup1\n        /* \"#utility.yul\":738:741   */\n      dup4\n        /* \"#utility.yul\":731:735   */\n      0x1f\n        /* \"#utility.yul\":723:729   */\n      dup5\n        /* \"#utility.yul\":719:736   */\n      add\n        /* \"#utility.yul\":715:742   */\n      slt\n        /* \"#utility.yul\":705:760   */\n      tag_420\n      jumpi\n        /* \"#utility.yul\":756:757   */\n      0x00\n        /* \"#utility.yul\":753:754   */\n      dup1\n        /* \"#utility.yul\":746:758   */\n      revert\n        /* \"#utility.yul\":705:760   */\n    tag_420:\n      pop\n        /* \"#utility.yul\":779:799   */\n      dup2\n      calldataload\n        /* \"#utility.yul\":822:840   */\n      0xffffffffffffffff\n        /* \"#utility.yul\":811:841   */\n      dup2\n      gt\n        /* \"#utility.yul\":808:858   */\n      iszero\n      tag_421\n      jumpi\n        /* \"#utility.yul\":854:855   */\n      0x00\n        /* \"#utility.yul\":851:852   */\n      dup1\n        /* \"#utility.yul\":844:856   */\n      revert\n        /* \"#utility.yul\":808:858   */\n    tag_421:\n        /* \"#utility.yul\":891:895   */\n      0x20\n        /* \"#utility.yul\":883:889   */\n      dup4\n        /* \"#utility.yul\":879:896   */\n      add\n        /* \"#utility.yul\":867:896   */\n      swap2\n      pop\n        /* \"#utility.yul\":951:954   */\n      dup4\n        /* \"#utility.yul\":944:948   */\n      0x20\n        /* \"#utility.yul\":934:940   */\n      dup3\n        /* \"#utility.yul\":931:932   */\n      0x05\n        /* \"#utility.yul\":927:941   */\n      shl\n        /* \"#utility.yul\":919:925   */\n      dup6\n        /* \"#utility.yul\":915:942   */\n      add\n        /* \"#utility.yul\":911:949   */\n      add\n        /* \"#utility.yul\":908:955   */\n      gt\n        /* \"#utility.yul\":905:972   */\n      iszero\n      tag_422\n      jumpi\n        /* \"#utility.yul\":968:969   */\n      0x00\n        /* \"#utility.yul\":965:966   */\n      dup1\n        /* \"#utility.yul\":958:970   */\n      revert\n        /* \"#utility.yul\":905:972   */\n    tag_422:\n        /* \"#utility.yul\":611:978   */\n      swap3\n      pop\n      swap3\n      swap1\n      pop\n      jump\t// out\n        /* \"#utility.yul\":983:1420   */\n    tag_39:\n        /* \"#utility.yul\":1069:1075   */\n      0x00\n        /* \"#utility.yul\":1077:1083   */\n      dup1\n        /* \"#utility.yul\":1130:1132   */\n      0x20\n        /* \"#utility.yul\":1118:1127   */\n      dup4\n        /* \"#utility.yul\":1109:1116   */\n      dup6\n        /* \"#utility.yul\":1105:1128   */\n      sub\n        /* \"#utility.yul\":1101:1133   */\n      slt\n        /* \"#utility.yul\":1098:1150   */\n      iszero\n      tag_424\n      jumpi\n        /* \"#utility.yul\":1146:1147   */\n      0x00\n        /* \"#utility.yul\":1143:1144   */\n      dup1\n        /* \"#utility.yul\":1136:1148   */\n      revert\n        /* \"#utility.yul\":1098:1150   */\n    tag_424:\n        /* \"#utility.yul\":1186:1195   */\n      dup3\n        /* \"#utility.yul\":1173:1196   */\n      calldataload\n        /* \"#utility.yul\":1219:1237   */\n      0xffffffffffffffff\n        /* \"#utility.yul\":1211:1217   */\n      dup2\n        /* \"#utility.yul\":1208:1238   */\n      gt\n        /* \"#utility.yul\":1205:1255   */\n      iszero\n      tag_425\n      jumpi\n        /* \"#utility.yul\":1251:1252   */\n      0x00\n        /* \"#utility.yul\":1248:1249   */\n      dup1\n        /* \"#utility.yul\":1241:1253   */\n      revert\n        /* \"#utility.yul\":1205:1255   */\n    tag_425:\n        /* \"#utility.yul\":1290:1360   */\n      tag_426\n        /* \"#utility.yul\":1352:1359   */\n      dup6\n        /* \"#utility.yul\":1343:1349   */\n      dup3\n        /* \"#utility.yul\":1332:1341   */\n      dup7\n        /* \"#utility.yul\":1328:1350   */\n      add\n        /* \"#utility.yul\":1290:1360   */\n      tag_409\n      jump\t// in\n    tag_426:\n        /* \"#utility.yul\":1379:1387   */\n      swap1\n      swap7\n        /* \"#utility.yul\":1264:1360   */\n      swap1\n      swap6\n      pop\n        /* \"#utility.yul\":983:1420   */\n      swap4\n      pop\n      pop\n      pop\n      pop\n      jump\t// out\n        /* \"#utility.yul\":1425:1975   */\n    tag_410:\n        /* \"#utility.yul\":1504:1509   */\n      dup1\n        /* \"#utility.yul\":1498:1510   */\n      mload\n        /* \"#utility.yul\":1493:1496   */\n      dup3\n        /* \"#utility.yul\":1486:1511   */\n      mstore\n        /* \"#utility.yul\":1557:1561   */\n      0x20\n        /* \"#utility.yul\":1550:1555   */\n      dup2\n        /* \"#utility.yul\":1546:1562   */\n      add\n        /* \"#utility.yul\":1540:1563   */\n      mload\n        /* \"#utility.yul\":1599:1600   */\n      0x01\n        /* \"#utility.yul\":1595:1596   */\n      dup1\n        /* \"#utility.yul\":1590:1593   */\n      0xa0\n        /* \"#utility.yul\":1586:1597   */\n      shl\n        /* \"#utility.yul\":1582:1601   */\n      sub\n        /* \"#utility.yul\":1651:1653   */\n      dup1\n        /* \"#utility.yul\":1637:1649   */\n      dup3\n        /* \"#utility.yul\":1633:1654   */\n      and\n        /* \"#utility.yul\":1626:1630   */\n      0x20\n        /* \"#utility.yul\":1621:1624   */\n      dup6\n        /* \"#utility.yul\":1617:1631   */\n      add\n        /* \"#utility.yul\":1610:1655   */\n      mstore\n        /* \"#utility.yul\":1704:1708   */\n      0x40\n        /* \"#utility.yul\":1697:1702   */\n      dup4\n        /* \"#utility.yul\":1693:1709   */\n      add\n        /* \"#utility.yul\":1687:1710   */\n      mload\n        /* \"#utility.yul\":1680:1684   */\n      0x40\n        /* \"#utility.yul\":1675:1678   */\n      dup6\n        /* \"#utility.yul\":1671:1685   */\n      add\n        /* \"#utility.yul\":1664:1711   */\n      mstore\n        /* \"#utility.yul\":1772:1774   */\n      dup1\n        /* \"#utility.yul\":1764:1768   */\n      0x60\n        /* \"#utility.yul\":1757:1762   */\n      dup5\n        /* \"#utility.yul\":1753:1769   */\n      add\n        /* \"#utility.yul\":1747:1770   */\n      mload\n        /* \"#utility.yul\":1743:1775   */\n      and\n        /* \"#utility.yul\":1736:1740   */\n      0x60\n        /* \"#utility.yul\":1731:1734   */\n      dup6\n        /* \"#utility.yul\":1727:1741   */\n      add\n        /* \"#utility.yul\":1720:1776   */\n      mstore\n        /* \"#utility.yul\":1825:1829   */\n      0x80\n        /* \"#utility.yul\":1818:1823   */\n      dup4\n        /* \"#utility.yul\":1814:1830   */\n      add\n        /* \"#utility.yul\":1808:1831   */\n      mload\n        /* \"#utility.yul\":1801:1805   */\n      0x80\n        /* \"#utility.yul\":1796:1799   */\n      dup6\n        /* \"#utility.yul\":1792:1806   */\n      add\n        /* \"#utility.yul\":1785:1832   */\n      mstore\n        /* \"#utility.yul\":1893:1895   */\n      dup1\n        /* \"#utility.yul\":1885:1889   */\n      0xa0\n        /* \"#utility.yul\":1878:1883   */\n      dup5\n        /* \"#utility.yul\":1874:1890   */\n      add\n        /* \"#utility.yul\":1868:1891   */\n      mload\n        /* \"#utility.yul\":1864:1896   */\n      and\n        /* \"#utility.yul\":1857:1861   */\n      0xa0\n        /* \"#utility.yul\":1852:1855   */\n      dup6\n        /* \"#utility.yul\":1848:1862   */\n      add\n        /* \"#utility.yul\":1841:1897   */\n      mstore\n      pop\n      pop\n        /* \"#utility.yul\":1960:1964   */\n      0xc0\n        /* \"#utility.yul\":1953:1958   */\n      dup2\n        /* \"#utility.yul\":1949:1965   */\n      add\n        /* \"#utility.yul\":1943:1966   */\n      mload\n        /* \"#utility.yul\":1936:1967   */\n      iszero\n        /* \"#utility.yul\":1929:1968   */\n      iszero\n        /* \"#utility.yul\":1922:1926   */\n      0xc0\n        /* \"#utility.yul\":1917:1920   */\n      dup4\n        /* \"#utility.yul\":1913:1927   */\n      add\n        /* \"#utility.yul\":1906:1969   */\n      mstore\n        /* \"#utility.yul\":1425:1975   */\n      pop\n      pop\n      jump\t// out\n        /* \"#utility.yul\":1980:2681   */\n    tag_42:\n        /* \"#utility.yul\":2199:2201   */\n      0x20\n        /* \"#utility.yul\":2251:2272   */\n      dup1\n      dup3\n      mstore\n        /* \"#utility.yul\":2321:2334   */\n      dup3\n      mload\n        /* \"#utility.yul\":2224:2242   */\n      dup3\n      dup3\n      add\n        /* \"#utility.yul\":2343:2365   */\n      dup2\n      swap1\n      mstore\n        /* \"#utility.yul\":2170:2174   */\n      0x00\n      swap2\n        /* \"#utility.yul\":2199:2201   */\n      swap1\n        /* \"#utility.yul\":2422:2437   */\n      dup5\n      dup3\n      add\n      swap1\n        /* \"#utility.yul\":2396:2398   */\n      0x40\n        /* \"#utility.yul\":2381:2399   */\n      dup6\n      add\n      swap1\n        /* \"#utility.yul\":2170:2174   */\n      dup5\n        /* \"#utility.yul\":2465:2655   */\n    tag_429:\n        /* \"#utility.yul\":2479:2485   */\n      dup2\n        /* \"#utility.yul\":2476:2477   */\n      dup2\n        /* \"#utility.yul\":2473:2486   */\n      lt\n        /* \"#utility.yul\":2465:2655   */\n      iszero\n      tag_431\n      jumpi\n        /* \"#utility.yul\":2528:2573   */\n      tag_432\n        /* \"#utility.yul\":2569:2572   */\n      dup4\n        /* \"#utility.yul\":2560:2566   */\n      dup6\n        /* \"#utility.yul\":2554:2567   */\n      mload\n        /* \"#utility.yul\":2528:2573   */\n      tag_410\n      jump\t// in\n    tag_432:\n        /* \"#utility.yul\":2630:2645   */\n      swap3\n      dup5\n      add\n      swap3\n        /* \"#utility.yul\":2602:2606   */\n      0xe0\n        /* \"#utility.yul\":2593:2607   */\n      swap3\n      swap1\n      swap3\n      add\n      swap2\n        /* \"#utility.yul\":2501:2502   */\n      0x01\n        /* \"#utility.yul\":2494:2503   */\n      add\n        /* \"#utility.yul\":2465:2655   */\n      jump(tag_429)\n    tag_431:\n      pop\n        /* \"#utility.yul\":2672:2675   */\n      swap1\n      swap7\n        /* \"#utility.yul\":1980:2681   */\n      swap6\n      pop\n      pop\n      pop\n      pop\n      pop\n      pop\n      jump\t// out\n        /* \"#utility.yul\":2686:3001   */\n    tag_46:\n        /* \"#utility.yul\":2754:2760   */\n      0x00\n        /* \"#utility.yul\":2762:2768   */\n      dup1\n        /* \"#utility.yul\":2815:2817   */\n      0x40\n        /* \"#utility.yul\":2803:2812   */\n      dup4\n        /* \"#utility.yul\":2794:2801   */\n      dup6\n        /* \"#utility.yul\":2790:2813   */\n      sub\n        /* \"#utility.yul\":2786:2818   */\n      slt\n        /* \"#utility.yul\":2783:2835   */\n      iszero\n      tag_434\n      jumpi\n        /* \"#utility.yul\":2831:2832   */\n      0x00\n        /* \"#utility.yul\":2828:2829   */\n      dup1\n        /* \"#utility.yul\":2821:2833   */\n      revert\n        /* \"#utility.yul\":2783:2835   */\n    tag_434:\n        /* \"#utility.yul\":2870:2879   */\n      dup3\n        /* \"#utility.yul\":2857:2880   */\n      calldataload\n        /* \"#utility.yul\":2889:2920   */\n      tag_435\n        /* \"#utility.yul\":2914:2919   */\n      dup2\n        /* \"#utility.yul\":2889:2920   */\n      tag_408\n      jump\t// in\n    tag_435:\n        /* \"#utility.yul\":2939:2944   */\n      swap5\n        /* \"#utility.yul\":2991:2993   */\n      0x20\n        /* \"#utility.yul\":2976:2994   */\n      swap4\n      swap1\n      swap4\n      add\n        /* \"#utility.yul\":2963:2995   */\n      calldataload\n      swap4\n      pop\n      pop\n      pop\n        /* \"#utility.yul\":2686:3001   */\n      jump\t// out\n        /* \"#utility.yul\":3006:3186   */\n    tag_51:\n        /* \"#utility.yul\":3065:3071   */\n      0x00\n        /* \"#utility.yul\":3118:3120   */\n      0x20\n        /* \"#utility.yul\":3106:3115   */\n      dup3\n        /* \"#utility.yul\":3097:3104   */\n      dup5\n        /* \"#utility.yul\":3093:3116   */\n      sub\n        /* \"#utility.yul\":3089:3121   */\n      slt\n        /* \"#utility.yul\":3086:3138   */\n      iszero\n      tag_437\n      jumpi\n        /* \"#utility.yul\":3134:3135   */\n      0x00\n        /* \"#utility.yul\":3131:3132   */\n      dup1\n        /* \"#utility.yul\":3124:3136   */\n      revert\n        /* \"#utility.yul\":3086:3138   */\n    tag_437:\n      pop\n        /* \"#utility.yul\":3157:3180   */\n      calldataload\n      swap2\n        /* \"#utility.yul\":3006:3186   */\n      swap1\n      pop\n      jump\t// out\n        /* \"#utility.yul\":3191:3436   */\n    tag_54:\n        /* \"#utility.yul\":3373:3376   */\n      0xe0\n        /* \"#utility.yul\":3358:3377   */\n      dup2\n      add\n        /* \"#utility.yul\":3386:3430   */\n      tag_155\n        /* \"#utility.yul\":3362:3371   */\n      dup3\n        /* \"#utility.yul\":3412:3418   */\n      dup5\n        /* \"#utility.yul\":3386:3430   */\n      tag_410\n      jump\t// in\n        /* \"#utility.yul\":3441:4377   */\n    tag_58:\n        /* \"#utility.yul\":3538:3544   */\n      0x00\n        /* \"#utility.yul\":3546:3552   */\n      dup1\n        /* \"#utility.yul\":3554:3560   */\n      0x00\n        /* \"#utility.yul\":3562:3568   */\n      dup1\n        /* \"#utility.yul\":3570:3576   */\n      0x00\n        /* \"#utility.yul\":3623:3626   */\n      0x80\n        /* \"#utility.yul\":3611:3620   */\n      dup7\n        /* \"#utility.yul\":3602:3609   */\n      dup9\n        /* \"#utility.yul\":3598:3621   */\n      sub\n        /* \"#utility.yul\":3594:3627   */\n      slt\n        /* \"#utility.yul\":3591:3644   */\n      iszero\n      tag_441\n      jumpi\n        /* \"#utility.yul\":3640:3641   */\n      0x00\n        /* \"#utility.yul\":3637:3638   */\n      dup1\n        /* \"#utility.yul\":3630:3642   */\n      revert\n        /* \"#utility.yul\":3591:3644   */\n    tag_441:\n        /* \"#utility.yul\":3679:3688   */\n      dup6\n        /* \"#utility.yul\":3666:3689   */\n      calldataload\n        /* \"#utility.yul\":3698:3729   */\n      tag_442\n        /* \"#utility.yul\":3723:3728   */\n      dup2\n        /* \"#utility.yul\":3698:3729   */\n      tag_408\n      jump\t// in\n    tag_442:\n        /* \"#utility.yul\":3748:3753   */\n      swap5\n      pop\n        /* \"#utility.yul\":3805:3807   */\n      0x20\n        /* \"#utility.yul\":3790:3808   */\n      dup7\n      add\n        /* \"#utility.yul\":3777:3809   */\n      calldataload\n        /* \"#utility.yul\":3818:3851   */\n      tag_443\n        /* \"#utility.yul\":3777:3809   */\n      dup2\n        /* \"#utility.yul\":3818:3851   */\n      tag_408\n      jump\t// in\n    tag_443:\n        /* \"#utility.yul\":3870:3877   */\n      swap4\n      pop\n        /* \"#utility.yul\":3924:3926   */\n      0x40\n        /* \"#utility.yul\":3909:3927   */\n      dup7\n      add\n        /* \"#utility.yul\":3896:3928   */\n      calldataload\n      swap3\n      pop\n        /* \"#utility.yul\":3979:3981   */\n      0x60\n        /* \"#utility.yul\":3964:3982   */\n      dup7\n      add\n        /* \"#utility.yul\":3951:3983   */\n      calldataload\n        /* \"#utility.yul\":4002:4020   */\n      0xffffffffffffffff\n        /* \"#utility.yul\":4032:4046   */\n      dup1\n      dup3\n      gt\n        /* \"#utility.yul\":4029:4063   */\n      iszero\n      tag_444\n      jumpi\n        /* \"#utility.yul\":4059:4060   */\n      0x00\n        /* \"#utility.yul\":4056:4057   */\n      dup1\n        /* \"#utility.yul\":4049:4061   */\n      revert\n        /* \"#utility.yul\":4029:4063   */\n    tag_444:\n        /* \"#utility.yul\":4097:4103   */\n      dup2\n        /* \"#utility.yul\":4086:4095   */\n      dup9\n        /* \"#utility.yul\":4082:4104   */\n      add\n        /* \"#utility.yul\":4072:4104   */\n      swap2\n      pop\n        /* \"#utility.yul\":4142:4149   */\n      dup9\n        /* \"#utility.yul\":4135:4139   */\n      0x1f\n        /* \"#utility.yul\":4131:4133   */\n      dup4\n        /* \"#utility.yul\":4127:4140   */\n      add\n        /* \"#utility.yul\":4123:4150   */\n      slt\n        /* \"#utility.yul\":4113:4168   */\n      tag_445\n      jumpi\n        /* \"#utility.yul\":4164:4165   */\n      0x00\n        /* \"#utility.yul\":4161:4162   */\n      dup1\n        /* \"#utility.yul\":4154:4166   */\n      revert\n        /* \"#utility.yul\":4113:4168   */\n    tag_445:\n        /* \"#utility.yul\":4204:4206   */\n      dup2\n        /* \"#utility.yul\":4191:4207   */\n      calldataload\n        /* \"#utility.yul\":4230:4232   */\n      dup2\n        /* \"#utility.yul\":4222:4228   */\n      dup2\n        /* \"#utility.yul\":4219:4233   */\n      gt\n        /* \"#utility.yul\":4216:4250   */\n      iszero\n      tag_446\n      jumpi\n        /* \"#utility.yul\":4246:4247   */\n      0x00\n        /* \"#utility.yul\":4243:4244   */\n      dup1\n        /* \"#utility.yul\":4236:4248   */\n      revert\n        /* \"#utility.yul\":4216:4250   */\n    tag_446:\n        /* \"#utility.yul\":4291:4298   */\n      dup10\n        /* \"#utility.yul\":4286:4288   */\n      0x20\n        /* \"#utility.yul\":4277:4283   */\n      dup3\n        /* \"#utility.yul\":4273:4275   */\n      dup6\n        /* \"#utility.yul\":4269:4284   */\n      add\n        /* \"#utility.yul\":4265:4289   */\n      add\n        /* \"#utility.yul\":4262:4299   */\n      gt\n        /* \"#utility.yul\":4259:4316   */\n      iszero\n      tag_447\n      jumpi\n        /* \"#utility.yul\":4312:4313   */\n      0x00\n        /* \"#utility.yul\":4309:4310   */\n      dup1\n        /* \"#utility.yul\":4302:4314   */\n      revert\n        /* \"#utility.yul\":4259:4316   */\n    tag_447:\n        /* \"#utility.yul\":3441:4377   */\n      swap7\n      swap10\n      swap6\n      swap9\n      pop\n      swap4\n      swap7\n      pop\n        /* \"#utility.yul\":4343:4345   */\n      0x20\n        /* \"#utility.yul\":4335:4346   */\n      add\n      swap5\n        /* \"#utility.yul\":4365:4371   */\n      swap4\n        /* \"#utility.yul\":3441:4377   */\n      swap3\n      pop\n      pop\n      pop\n      jump\t// out\n        /* \"#utility.yul\":4989:5236   */\n    tag_87:\n        /* \"#utility.yul\":5048:5054   */\n      0x00\n        /* \"#utility.yul\":5101:5103   */\n      0x20\n        /* \"#utility.yul\":5089:5098   */\n      dup3\n        /* \"#utility.yul\":5080:5087   */\n      dup5\n        /* \"#utility.yul\":5076:5099   */\n      sub\n        /* \"#utility.yul\":5072:5104   */\n      slt\n        /* \"#utility.yul\":5069:5121   */\n      iszero\n      tag_452\n      jumpi\n        /* \"#utility.yul\":5117:5118   */\n      0x00\n        /* \"#utility.yul\":5114:5115   */\n      dup1\n        /* \"#utility.yul\":5107:5119   */\n      revert\n        /* \"#utility.yul\":5069:5121   */\n    tag_452:\n        /* \"#utility.yul\":5156:5165   */\n      dup2\n        /* \"#utility.yul\":5143:5166   */\n      calldataload\n        /* \"#utility.yul\":5175:5206   */\n      tag_453\n        /* \"#utility.yul\":5200:5205   */\n      dup2\n        /* \"#utility.yul\":5175:5206   */\n      tag_408\n      jump\t// in\n    tag_453:\n        /* \"#utility.yul\":5225:5230   */\n      swap4\n        /* \"#utility.yul\":4989:5236   */\n      swap3\n      pop\n      pop\n      pop\n      jump\t// out\n        /* \"#utility.yul\":5241:5489   */\n    tag_92:\n        /* \"#utility.yul\":5309:5315   */\n      0x00\n        /* \"#utility.yul\":5317:5323   */\n      dup1\n        /* \"#utility.yul\":5370:5372   */\n      0x40\n        /* \"#utility.yul\":5358:5367   */\n      dup4\n        /* \"#utility.yul\":5349:5356   */\n      dup6\n        /* \"#utility.yul\":5345:5368   */\n      sub\n        /* \"#utility.yul\":5341:5373   */\n      slt\n        /* \"#utility.yul\":5338:5390   */\n      iszero\n      tag_455\n      jumpi\n        /* \"#utility.yul\":5386:5387   */\n      0x00\n        /* \"#utility.yul\":5383:5384   */\n      dup1\n        /* \"#utility.yul\":5376:5388   */\n      revert\n        /* \"#utility.yul\":5338:5390   */\n    tag_455:\n      pop\n      pop\n        /* \"#utility.yul\":5409:5432   */\n      dup1\n      calldataload\n      swap3\n        /* \"#utility.yul\":5479:5481   */\n      0x20\n        /* \"#utility.yul\":5464:5482   */\n      swap1\n      swap2\n      add\n        /* \"#utility.yul\":5451:5483   */\n      calldataload\n      swap2\n      pop\n        /* \"#utility.yul\":5241:5489   */\n      jump\t// out\n        /* \"#utility.yul\":6363:7767   */\n    tag_128:\n        /* \"#utility.yul\":6557:6563   */\n      0x00\n        /* \"#utility.yul\":6565:6571   */\n      dup1\n        /* \"#utility.yul\":6573:6579   */\n      0x00\n        /* \"#utility.yul\":6581:6587   */\n      dup1\n        /* \"#utility.yul\":6589:6595   */\n      0x00\n        /* \"#utility.yul\":6597:6603   */\n      dup1\n        /* \"#utility.yul\":6605:6611   */\n      0x00\n        /* \"#utility.yul\":6613:6619   */\n      dup1\n        /* \"#utility.yul\":6666:6669   */\n      0x80\n        /* \"#utility.yul\":6654:6663   */\n      dup10\n        /* \"#utility.yul\":6645:6652   */\n      dup12\n        /* \"#utility.yul\":6641:6664   */\n      sub\n        /* \"#utility.yul\":6637:6670   */\n      slt\n        /* \"#utility.yul\":6634:6687   */\n      iszero\n      tag_459\n      jumpi\n        /* \"#utility.yul\":6683:6684   */\n      0x00\n        /* \"#utility.yul\":6680:6681   */\n      dup1\n        /* \"#utility.yul\":6673:6685   */\n      revert\n        /* \"#utility.yul\":6634:6687   */\n    tag_459:\n        /* \"#utility.yul\":6723:6732   */\n      dup9\n        /* \"#utility.yul\":6710:6733   */\n      calldataload\n        /* \"#utility.yul\":6752:6770   */\n      0xffffffffffffffff\n        /* \"#utility.yul\":6793:6795   */\n      dup1\n        /* \"#utility.yul\":6785:6791   */\n      dup3\n        /* \"#utility.yul\":6782:6796   */\n      gt\n        /* \"#utility.yul\":6779:6813   */\n      iszero\n      tag_460\n      jumpi\n        /* \"#utility.yul\":6809:6810   */\n      0x00\n        /* \"#utility.yul\":6806:6807   */\n      dup1\n        /* \"#utility.yul\":6799:6811   */\n      revert\n        /* \"#utility.yul\":6779:6813   */\n    tag_460:\n        /* \"#utility.yul\":6848:6918   */\n      tag_461\n        /* \"#utility.yul\":6910:6917   */\n      dup13\n        /* \"#utility.yul\":6901:6907   */\n      dup4\n        /* \"#utility.yul\":6890:6899   */\n      dup14\n        /* \"#utility.yul\":6886:6908   */\n      add\n        /* \"#utility.yul\":6848:6918   */\n      tag_409\n      jump\t// in\n    tag_461:\n        /* \"#utility.yul\":6937:6945   */\n      swap1\n      swap11\n      pop\n        /* \"#utility.yul\":6822:6918   */\n      swap9\n      pop\n        /* \"#utility.yul\":7025:7027   */\n      0x20\n        /* \"#utility.yul\":7010:7028   */\n      dup12\n      add\n        /* \"#utility.yul\":6997:7029   */\n      calldataload\n      swap2\n      pop\n        /* \"#utility.yul\":7041:7057   */\n      dup1\n      dup3\n      gt\n        /* \"#utility.yul\":7038:7074   */\n      iszero\n      tag_462\n      jumpi\n        /* \"#utility.yul\":7070:7071   */\n      0x00\n        /* \"#utility.yul\":7067:7068   */\n      dup1\n        /* \"#utility.yul\":7060:7072   */\n      revert\n        /* \"#utility.yul\":7038:7074   */\n    tag_462:\n        /* \"#utility.yul\":7109:7181   */\n      tag_463\n        /* \"#utility.yul\":7173:7180   */\n      dup13\n        /* \"#utility.yul\":7162:7170   */\n      dup4\n        /* \"#utility.yul\":7151:7160   */\n      dup14\n        /* \"#utility.yul\":7147:7171   */\n      add\n        /* \"#utility.yul\":7109:7181   */\n      tag_409\n      jump\t// in\n    tag_463:\n        /* \"#utility.yul\":7200:7208   */\n      swap1\n      swap9\n      pop\n        /* \"#utility.yul\":7083:7181   */\n      swap7\n      pop\n        /* \"#utility.yul\":7288:7290   */\n      0x40\n        /* \"#utility.yul\":7273:7291   */\n      dup12\n      add\n        /* \"#utility.yul\":7260:7292   */\n      calldataload\n      swap2\n      pop\n        /* \"#utility.yul\":7304:7320   */\n      dup1\n      dup3\n      gt\n        /* \"#utility.yul\":7301:7337   */\n      iszero\n      tag_464\n      jumpi\n        /* \"#utility.yul\":7333:7334   */\n      0x00\n        /* \"#utility.yul\":7330:7331   */\n      dup1\n        /* \"#utility.yul\":7323:7335   */\n      revert\n        /* \"#utility.yul\":7301:7337   */\n    tag_464:\n        /* \"#utility.yul\":7372:7444   */\n      tag_465\n        /* \"#utility.yul\":7436:7443   */\n      dup13\n        /* \"#utility.yul\":7425:7433   */\n      dup4\n        /* \"#utility.yul\":7414:7423   */\n      dup14\n        /* \"#utility.yul\":7410:7434   */\n      add\n        /* \"#utility.yul\":7372:7444   */\n      tag_409\n      jump\t// in\n    tag_465:\n        /* \"#utility.yul\":7463:7471   */\n      swap1\n      swap7\n      pop\n        /* \"#utility.yul\":7346:7444   */\n      swap5\n      pop\n        /* \"#utility.yul\":7551:7553   */\n      0x60\n        /* \"#utility.yul\":7536:7554   */\n      dup12\n      add\n        /* \"#utility.yul\":7523:7555   */\n      calldataload\n      swap2\n      pop\n        /* \"#utility.yul\":7567:7583   */\n      dup1\n      dup3\n      gt\n        /* \"#utility.yul\":7564:7600   */\n      iszero\n      tag_466\n      jumpi\n        /* \"#utility.yul\":7596:7597   */\n      0x00\n        /* \"#utility.yul\":7593:7594   */\n      dup1\n        /* \"#utility.yul\":7586:7598   */\n      revert\n        /* \"#utility.yul\":7564:7600   */\n    tag_466:\n      pop\n        /* \"#utility.yul\":7635:7707   */\n      tag_467\n        /* \"#utility.yul\":7699:7706   */\n      dup12\n        /* \"#utility.yul\":7688:7696   */\n      dup3\n        /* \"#utility.yul\":7677:7686   */\n      dup13\n        /* \"#utility.yul\":7673:7697   */\n      add\n        /* \"#utility.yul\":7635:7707   */\n      tag_409\n      jump\t// in\n    tag_467:\n        /* \"#utility.yul\":6363:7767   */\n      swap10\n      swap13\n      swap9\n      swap12\n      pop\n      swap7\n      swap10\n      pop\n      swap5\n      swap8\n      swap4\n      swap7\n      swap3\n      swap6\n        /* \"#utility.yul\":7726:7734   */\n      swap5\n      pop\n      pop\n      pop\n        /* \"#utility.yul\":6363:7767   */\n      jump\t// out\n        /* \"#utility.yul\":7772:8404   */\n    tag_131:\n        /* \"#utility.yul\":7943:7945   */\n      0x20\n        /* \"#utility.yul\":7995:8016   */\n      dup1\n      dup3\n      mstore\n        /* \"#utility.yul\":8065:8078   */\n      dup3\n      mload\n        /* \"#utility.yul\":7968:7986   */\n      dup3\n      dup3\n      add\n        /* \"#utility.yul\":8087:8109   */\n      dup2\n      swap1\n      mstore\n        /* \"#utility.yul\":7914:7918   */\n      0x00\n      swap2\n        /* \"#utility.yul\":7943:7945   */\n      swap1\n        /* \"#utility.yul\":8166:8181   */\n      dup5\n      dup3\n      add\n      swap1\n        /* \"#utility.yul\":8140:8142   */\n      0x40\n        /* \"#utility.yul\":8125:8143   */\n      dup6\n      add\n      swap1\n        /* \"#utility.yul\":7914:7918   */\n      dup5\n        /* \"#utility.yul\":8209:8378   */\n    tag_469:\n        /* \"#utility.yul\":8223:8229   */\n      dup2\n        /* \"#utility.yul\":8220:8221   */\n      dup2\n        /* \"#utility.yul\":8217:8230   */\n      lt\n        /* \"#utility.yul\":8209:8378   */\n      iszero\n      tag_431\n      jumpi\n        /* \"#utility.yul\":8284:8297   */\n      dup4\n      mload\n        /* \"#utility.yul\":8272:8298   */\n      dup4\n      mstore\n        /* \"#utility.yul\":8353:8368   */\n      swap3\n      dup5\n      add\n      swap3\n        /* \"#utility.yul\":8318:8330   */\n      swap2\n      dup5\n      add\n      swap2\n        /* \"#utility.yul\":8245:8246   */\n      0x01\n        /* \"#utility.yul\":8238:8247   */\n      add\n        /* \"#utility.yul\":8209:8378   */\n      jump(tag_469)\n        /* \"#utility.yul\":8409:8934   */\n    tag_135:\n        /* \"#utility.yul\":8495:8501   */\n      0x00\n        /* \"#utility.yul\":8503:8509   */\n      dup1\n        /* \"#utility.yul\":8511:8517   */\n      0x00\n        /* \"#utility.yul\":8519:8525   */\n      dup1\n        /* \"#utility.yul\":8572:8575   */\n      0x80\n        /* \"#utility.yul\":8560:8569   */\n      dup6\n        /* \"#utility.yul\":8551:8558   */\n      dup8\n        /* \"#utility.yul\":8547:8570   */\n      sub\n        /* \"#utility.yul\":8543:8576   */\n      slt\n        /* \"#utility.yul\":8540:8593   */\n      iszero\n      tag_473\n      jumpi\n        /* \"#utility.yul\":8589:8590   */\n      0x00\n        /* \"#utility.yul\":8586:8587   */\n      dup1\n        /* \"#utility.yul\":8579:8591   */\n      revert\n        /* \"#utility.yul\":8540:8593   */\n    tag_473:\n        /* \"#utility.yul\":8628:8637   */\n      dup5\n        /* \"#utility.yul\":8615:8638   */\n      calldataload\n        /* \"#utility.yul\":8647:8678   */\n      tag_474\n        /* \"#utility.yul\":8672:8677   */\n      dup2\n        /* \"#utility.yul\":8647:8678   */\n      tag_408\n      jump\t// in\n    tag_474:\n        /* \"#utility.yul\":8697:8702   */\n      swap4\n      pop\n        /* \"#utility.yul\":8749:8751   */\n      0x20\n        /* \"#utility.yul\":8734:8752   */\n      dup6\n      add\n        /* \"#utility.yul\":8721:8753   */\n      calldataload\n      swap3\n      pop\n        /* \"#utility.yul\":8805:8807   */\n      0x40\n        /* \"#utility.yul\":8790:8808   */\n      dup6\n      add\n        /* \"#utility.yul\":8777:8809   */\n      calldataload\n        /* \"#utility.yul\":8818:8851   */\n      tag_475\n        /* \"#utility.yul\":8777:8809   */\n      dup2\n        /* \"#utility.yul\":8818:8851   */\n      tag_408\n      jump\t// in\n    tag_475:\n        /* \"#utility.yul\":8409:8934   */\n      swap4\n      swap7\n      swap3\n      swap6\n      pop\n        /* \"#utility.yul\":8870:8877   */\n      swap3\n      swap4\n        /* \"#utility.yul\":8924:8926   */\n      0x60\n        /* \"#utility.yul\":8909:8927   */\n      add\n        /* \"#utility.yul\":8896:8928   */\n      calldataload\n      swap3\n      pop\n      pop\n        /* \"#utility.yul\":8409:8934   */\n      jump\t// out\n        /* \"#utility.yul\":9291:9666   */\n    tag_151:\n      sub(shl(0xa0, 0x01), 0x01)\n        /* \"#utility.yul\":9549:9564   */\n      swap4\n      dup5\n      and\n        /* \"#utility.yul\":9531:9565   */\n      dup2\n      mstore\n        /* \"#utility.yul\":9601:9616   */\n      swap2\n      swap1\n      swap3\n      and\n        /* \"#utility.yul\":9596:9598   */\n      0x20\n        /* \"#utility.yul\":9581:9599   */\n      dup3\n      add\n        /* \"#utility.yul\":9574:9617   */\n      mstore\n        /* \"#utility.yul\":9648:9650   */\n      0x40\n        /* \"#utility.yul\":9633:9651   */\n      dup2\n      add\n        /* \"#utility.yul\":9626:9660   */\n      swap2\n      swap1\n      swap2\n      mstore\n        /* \"#utility.yul\":9481:9483   */\n      0x60\n        /* \"#utility.yul\":9466:9484   */\n      add\n      swap1\n        /* \"#utility.yul\":9291:9666   */\n      jump\t// out\n        /* \"#utility.yul\":9671:9798   */\n    tag_158:\n        /* \"#utility.yul\":9732:9742   */\n      0x4e487b71\n        /* \"#utility.yul\":9727:9730   */\n      0xe0\n        /* \"#utility.yul\":9723:9743   */\n      shl\n        /* \"#utility.yul\":9720:9721   */\n      0x00\n        /* \"#utility.yul\":9713:9744   */\n      mstore\n        /* \"#utility.yul\":9763:9767   */\n      0x41\n        /* \"#utility.yul\":9760:9761   */\n      0x04\n        /* \"#utility.yul\":9753:9768   */\n      mstore\n        /* \"#utility.yul\":9787:9791   */\n      0x24\n        /* \"#utility.yul\":9784:9785   */\n      0x00\n        /* \"#utility.yul\":9777:9792   */\n      revert\n        /* \"#utility.yul\":9803:9930   */\n    tag_168:\n        /* \"#utility.yul\":9864:9874   */\n      0x4e487b71\n        /* \"#utility.yul\":9859:9862   */\n      0xe0\n        /* \"#utility.yul\":9855:9875   */\n      shl\n        /* \"#utility.yul\":9852:9853   */\n      0x00\n        /* \"#utility.yul\":9845:9876   */\n      mstore\n        /* \"#utility.yul\":9895:9899   */\n      0x32\n        /* \"#utility.yul\":9892:9893   */\n      0x04\n        /* \"#utility.yul\":9885:9900   */\n      mstore\n        /* \"#utility.yul\":9919:9923   */\n      0x24\n        /* \"#utility.yul\":9916:9917   */\n      0x00\n        /* \"#utility.yul\":9909:9924   */\n      revert\n        /* \"#utility.yul\":10214:10491   */\n    tag_180:\n        /* \"#utility.yul\":10281:10287   */\n      0x00\n        /* \"#utility.yul\":10334:10336   */\n      0x20\n        /* \"#utility.yul\":10322:10331   */\n      dup3\n        /* \"#utility.yul\":10313:10320   */\n      dup5\n        /* \"#utility.yul\":10309:10332   */\n      sub\n        /* \"#utility.yul\":10305:10337   */\n      slt\n        /* \"#utility.yul\":10302:10354   */\n      iszero\n      tag_482\n      jumpi\n        /* \"#utility.yul\":10350:10351   */\n      0x00\n        /* \"#utility.yul\":10347:10348   */\n      dup1\n        /* \"#utility.yul\":10340:10352   */\n      revert\n        /* \"#utility.yul\":10302:10354   */\n    tag_482:\n        /* \"#utility.yul\":10382:10391   */\n      dup2\n        /* \"#utility.yul\":10376:10392   */\n      mload\n        /* \"#utility.yul\":10435:10440   */\n      dup1\n        /* \"#utility.yul\":10428:10441   */\n      iszero\n        /* \"#utility.yul\":10421:10442   */\n      iszero\n        /* \"#utility.yul\":10414:10419   */\n      dup2\n        /* \"#utility.yul\":10411:10443   */\n      eq\n        /* \"#utility.yul\":10401:10461   */\n      tag_453\n      jumpi\n        /* \"#utility.yul\":10457:10458   */\n      0x00\n        /* \"#utility.yul\":10454:10455   */\n      dup1\n        /* \"#utility.yul\":10447:10459   */\n      revert\n        /* \"#utility.yul\":10496:10838   */\n    tag_198:\n        /* \"#utility.yul\":10698:10700   */\n      0x20\n        /* \"#utility.yul\":10680:10701   */\n      dup1\n      dup3\n      mstore\n        /* \"#utility.yul\":10737:10739   */\n      0x12\n        /* \"#utility.yul\":10717:10735   */\n      swap1\n      dup3\n      add\n        /* \"#utility.yul\":10710:10740   */\n      mstore\n      shl(0x70, 0x4c697374696e67206e6f7420616374697665)\n        /* \"#utility.yul\":10771:10773   */\n      0x40\n        /* \"#utility.yul\":10756:10774   */\n      dup3\n      add\n        /* \"#utility.yul\":10749:10797   */\n      mstore\n        /* \"#utility.yul\":10829:10831   */\n      0x60\n        /* \"#utility.yul\":10814:10832   */\n      add\n      swap1\n        /* \"#utility.yul\":10496:10838   */\n      jump\t// out\n        /* \"#utility.yul\":11406:11753   */\n    tag_210:\n        /* \"#utility.yul\":11608:11610   */\n      0x20\n        /* \"#utility.yul\":11590:11611   */\n      dup1\n      dup3\n      mstore\n        /* \"#utility.yul\":11647:11649   */\n      0x17\n        /* \"#utility.yul\":11627:11645   */\n      swap1\n      dup3\n      add\n        /* \"#utility.yul\":11620:11650   */\n      mstore\n        /* \"#utility.yul\":11686:11711   */\n      0x5061796d656e74207472616e73666572206661696c6564000000000000000000\n        /* \"#utility.yul\":11681:11683   */\n      0x40\n        /* \"#utility.yul\":11666:11684   */\n      dup3\n      add\n        /* \"#utility.yul\":11659:11712   */\n      mstore\n        /* \"#utility.yul\":11744:11746   */\n      0x60\n        /* \"#utility.yul\":11729:11747   */\n      add\n      swap1\n        /* \"#utility.yul\":11406:11753   */\n      jump\t// out\n        /* \"#utility.yul\":12413:12540   */\n    tag_411:\n        /* \"#utility.yul\":12474:12484   */\n      0x4e487b71\n        /* \"#utility.yul\":12469:12472   */\n      0xe0\n        /* \"#utility.yul\":12465:12485   */\n      shl\n        /* \"#utility.yul\":12462:12463   */\n      0x00\n        /* \"#utility.yul\":12455:12486   */\n      mstore\n        /* \"#utility.yul\":12505:12509   */\n      0x11\n        /* \"#utility.yul\":12502:12503   */\n      0x04\n        /* \"#utility.yul\":12495:12510   */\n      mstore\n        /* \"#utility.yul\":12529:12533   */\n      0x24\n        /* \"#utility.yul\":12526:12527   */\n      0x00\n        /* \"#utility.yul\":12519:12534   */\n      revert\n        /* \"#utility.yul\":12545:12670   */\n    tag_243:\n        /* \"#utility.yul\":12610:12619   */\n      dup1\n      dup3\n      add\n        /* \"#utility.yul\":12631:12641   */\n      dup1\n      dup3\n      gt\n        /* \"#utility.yul\":12628:12664   */\n      iszero\n      tag_155\n      jumpi\n        /* \"#utility.yul\":12644:12662   */\n      tag_155\n      tag_411\n      jump\t// in\n        /* \"#utility.yul\":14540:14724   */\n    tag_345:\n        /* \"#utility.yul\":14610:14616   */\n      0x00\n        /* \"#utility.yul\":14663:14665   */\n      0x20\n        /* \"#utility.yul\":14651:14660   */\n      dup3\n        /* \"#utility.yul\":14642:14649   */\n      dup5\n        /* \"#utility.yul\":14638:14661   */\n      sub\n        /* \"#utility.yul\":14634:14666   */\n      slt\n        /* \"#utility.yul\":14631:14683   */\n      iszero\n      tag_500\n      jumpi\n        /* \"#utility.yul\":14679:14680   */\n      0x00\n        /* \"#utility.yul\":14676:14677   */\n      dup1\n        /* \"#utility.yul\":14669:14681   */\n      revert\n        /* \"#utility.yul\":14631:14683   */\n    tag_500:\n      pop\n        /* \"#utility.yul\":14702:14718   */\n      mload\n      swap2\n        /* \"#utility.yul\":14540:14724   */\n      swap1\n      pop\n      jump\t// out\n        /* \"#utility.yul\":15425:15676   */\n    tag_365:\n        /* \"#utility.yul\":15495:15501   */\n      0x00\n        /* \"#utility.yul\":15548:15550   */\n      0x20\n        /* \"#utility.yul\":15536:15545   */\n      dup3\n        /* \"#utility.yul\":15527:15534   */\n      dup5\n        /* \"#utility.yul\":15523:15546   */\n      sub\n        /* \"#utility.yul\":15519:15551   */\n      slt\n        /* \"#utility.yul\":15516:15568   */\n      iszero\n      tag_504\n      jumpi\n        /* \"#utility.yul\":15564:15565   */\n      0x00\n        /* \"#utility.yul\":15561:15562   */\n      dup1\n        /* \"#utility.yul\":15554:15566   */\n      revert\n        /* \"#utility.yul\":15516:15568   */\n    tag_504:\n        /* \"#utility.yul\":15596:15605   */\n      dup2\n        /* \"#utility.yul\":15590:15606   */\n      mload\n        /* \"#utility.yul\":15615:15646   */\n      tag_453\n        /* \"#utility.yul\":15640:15645   */\n      dup2\n        /* \"#utility.yul\":15615:15646   */\n      tag_408\n      jump\t// in\n        /* \"#utility.yul\":16035:16170   */\n    tag_370:\n        /* \"#utility.yul\":16074:16077   */\n      0x00\n        /* \"#utility.yul\":16095:16112   */\n      0x01\n      dup3\n      add\n        /* \"#utility.yul\":16092:16135   */\n      tag_509\n      jumpi\n        /* \"#utility.yul\":16115:16133   */\n      tag_509\n      tag_411\n      jump\t// in\n    tag_509:\n      pop\n        /* \"#utility.yul\":16162:16163   */\n      0x01\n        /* \"#utility.yul\":16151:16164   */\n      add\n      swap1\n        /* \"#utility.yul\":16035:16170   */\n      jump\t// out\n\n    auxdata: 0xa26469706673582212205e4a1d6e6206dc35e1944929194e4f146cda03dc0b96110a1538719056c6364864736f6c63430008190033\n}\n",
				"bytecode": {
					"linkReferences": {},
					"object": "608060405234801561000f575f80fd5b5060405161204d38038061204d83398101604081905261002e916101b7565b806001600160a01b03811661005d57604051631e4fbdf760e01b81525f60048201526024015b60405180910390fd5b6100668161014d565b50600180556002805460ff191690556001600160a01b0382166100cb5760405162461bcd60e51b815260206004820152601860248201527f496e76616c6964207472656173757279206164647265737300000000000000006044820152606401610054565b6001600160a01b0381166101215760405162461bcd60e51b815260206004820152601560248201527f496e76616c6964206f776e6572206164647265737300000000000000000000006044820152606401610054565b50600280546001600160a01b0390921661010002610100600160a81b03199092169190911790556101e8565b5f80546001600160a01b038381166001600160a01b0319831681178455604051919092169283917f8be0079c531659141344cd1fd0a4f28419497f9722a3daafe3b4186f6b6457e09190a35050565b80516001600160a01b03811681146101b2575f80fd5b919050565b5f80604083850312156101c8575f80fd5b6101d18361019c565b91506101df6020840161019c565b90509250929050565b611e58806101f55f395ff3fe60806040526004361061013e575f3560e01c80637f51bb1f116100b3578063cdb3cd251161006d578063cdb3cd2514610431578063de74e57b1461046a578063f2fde38b14610514578063f6eb46ac14610533578063f7adbbc91461055f578063fab25bb21461057e575f80fd5b80637f51bb1f1461038657806382367b2d146103a55780638456cb59146103c457806388b59fa1146103d85780638da5cb5b146103f6578063cb917b9c14610412575f80fd5b80633f4ba83a116101045780633f4ba83a146102d957806351ed8288146102ed5780635a281245146103005780635c975abb1461031357806361d027b314610336578063715018a614610372575f80fd5b8062f2a6ab146101495780630373c0bf1461016a57806306b091f91461019f578063107a274a146101be578063150b7a0214610295575f80fd5b3661014557005b5f80fd5b348015610154575f80fd5b5061016861016336600461191b565b6105c2565b005b348015610175575f80fd5b506101896101843660046119a2565b6106a4565b6040516101969190611a37565b60405180910390f35b3480156101aa575f80fd5b506101686101b9366004611a84565b6107f6565b3480156101c9575f80fd5b506102886101d8366004611aae565b6040805160e0810182525f80825260208201819052918101829052606081018290526080810182905260a0810182905260c0810191909152505f90815260046020818152604092839020835160e0810185528154815260018201546001600160a01b039081169382019390935260028201549481019490945260038101548216606085015291820154608084015260059091015490811660a0830152600160a01b900460ff16151560c082015290565b6040516101969190611ac5565b3480156102a0575f80fd5b506102c06102af366004611ad3565b630a85bd0160e11b95945050505050565b6040516001600160e01b03199091168152602001610196565b3480156102e4575f80fd5b50610168610891565b6101686102fb366004611aae565b6108a3565b61016861030e3660046119a2565b610bcd565b34801561031e575f80fd5b5060025460ff165b6040519015158152602001610196565b348015610341575f80fd5b5060025461035a9061010090046001600160a01b031681565b6040516001600160a01b039091168152602001610196565b34801561037d575f80fd5b50610168610f53565b348015610391575f80fd5b506101686103a0366004611b6a565b610f64565b3480156103b0575f80fd5b506101686103bf366004611b8c565b61101b565b3480156103cf575f80fd5b506101686110f5565b3480156103e3575f80fd5b506003545b604051908152602001610196565b348015610401575f80fd5b505f546001600160a01b031661035a565b34801561041d575f80fd5b5061016861042c366004611aae565b611105565b34801561043c575f80fd5b5061032661044b366004611a84565b600560209081525f928352604080842090915290825290205460ff1681565b348015610475575f80fd5b506104d3610484366004611aae565b600460208190525f918252604090912080546001820154600283015460038401549484015460059094015492946001600160a01b0392831694919390831692811690600160a01b900460ff1687565b604080519788526001600160a01b0396871660208901528701949094529184166060860152608085015290911660a0830152151560c082015260e001610196565b34801561051f575f80fd5b5061016861052e366004611b6a565b6111be565b34801561053e575f80fd5b5061055261054d366004611bac565b6111f8565b6040516101969190611c67565b34801561056a575f80fd5b506103e8610579366004611c9e565b6113f0565b348015610589575f80fd5b50610326610598366004611a84565b6001600160a01b03919091165f908152600560209081526040808320938352929052205460ff1690565b6105ca611715565b6001600160a01b0383165f90815260056020908152604080832085845290915290205460ff16156106425760405162461bcd60e51b815260206004820152601760248201527f4e46542069732063757272656e746c79206c697374656400000000000000000060448201526064015b60405180910390fd5b604051632142170760e11b81526001600160a01b038416906342842e0e9061067290309085908790600401611ce3565b5f604051808303815f87803b158015610689575f80fd5b505af115801561069b573d5f803e3d5ffd5b50505050505050565b60605f8267ffffffffffffffff8111156106c0576106c0611d07565b60405190808252806020026020018201604052801561072557816020015b6040805160e0810182525f8082526020808301829052928201819052606082018190526080820181905260a0820181905260c082015282525f199092019101816106de5790505b5090505f5b838110156107ec5760045f86868481811061074757610747611d1b565b602090810292909201358352508181019290925260409081015f20815160e0810183528154815260018201546001600160a01b0390811694820194909452600282015492810192909252600381015483166060830152600481015460808301526005015491821660a0820152600160a01b90910460ff16151560c082015282518390839081106107d9576107d9611d1b565b602090810291909101015260010161072a565b5090505b92915050565b6107fe611715565b816001600160a01b031663a9059cbb61081e5f546001600160a01b031690565b6040516001600160e01b031960e084901b1681526001600160a01b039091166004820152602481018490526044016020604051808303815f875af1158015610868573d5f803e3d5ffd5b505050506040513d601f19601f8201168201806040525081019061088c9190611d2f565b505050565b610899611715565b6108a1611741565b565b6108ab611793565b6108b36117ec565b5f8181526004602052604090206005810154600160a01b900460ff166108eb5760405162461bcd60e51b815260040161063990611d4e565b60038101546001600160a01b03166109cb57806004015434146109505760405162461bcd60e51b815260206004820152601860248201527f496e636f7272656374207061796d656e7420616d6f756e7400000000000000006044820152606401610639565b6002546040515f9161010090046001600160a01b03169034908381818185875af1925050503d805f811461099f576040519150601f19603f3d011682016040523d82523d5f602084013e6109a4565b606091505b50509050806109c55760405162461bcd60e51b815260040161063990611d7a565b50610ac7565b3415610a235760405162461bcd60e51b815260206004820152602160248201527f455448206e6f7420616363657074656420666f722074686973206c697374696e6044820152606760f81b6064820152608401610639565b60038101546002546004808401546040516323b872dd60e01b81526001600160a01b039485169485946323b872dd94610a69943394610100909304909316929101611ce3565b6020604051808303815f875af1158015610a85573d5f803e3d5ffd5b505050506040513d601f19601f82011682018060405250810190610aa99190611d2f565b610ac55760405162461bcd60e51b815260040161063990611d7a565b505b6005808201805460ff60a01b191690556001820180546001600160a01b039081165f908152602093845260408082206002870180548452955290819020805460ff19169055915492549151632142170760e11b81529216916342842e0e91610b359130913391600401611ce3565b5f604051808303815f87803b158015610b4c575f80fd5b505af1158015610b5e573d5f803e3d5ffd5b5050506001820154600283015460048401546040516001600160a01b039093169350339286927fd69d4640acbdbbf9091244cb56da6273ff61cd59f33bd19f7fbbcbfc6255fe3492610bb892918252602082015260400190565b60405180910390a450610bca60018055565b50565b610bd5611793565b610bdd6117ec565b5f805b82811015610c6f575f60045f868685818110610bfe57610bfe611d1b565b9050602002013581526020019081526020015f2090508060050160149054906101000a900460ff16610c425760405162461bcd60e51b815260040161063990611d4e565b60038101546001600160a01b0316610c66576004810154610c639084611dc5565b92505b50600101610be0565b50803414610cbf5760405162461bcd60e51b815260206004820152601760248201527f496e636f727265637420746f74616c207061796d656e740000000000000000006044820152606401610639565b5f5b82811015610ec7575f60045f868685818110610cdf57610cdf611d1b565b602090810292909201358352508101919091526040015f2060038101549091506001600160a01b031615610db15760038101546002546004808401546040516323b872dd60e01b81526001600160a01b039485169485946323b872dd94610d53943394610100909304909316929101611ce3565b6020604051808303815f875af1158015610d6f573d5f803e3d5ffd5b505050506040513d601f19601f82011682018060405250810190610d939190611d2f565b610daf5760405162461bcd60e51b815260040161063990611d7a565b505b6005808201805460ff60a01b191690556001820180546001600160a01b039081165f908152602093845260408082206002870180548452955290819020805460ff19169055915492549151632142170760e11b81529216916342842e0e91610e1f9130913391600401611ce3565b5f604051808303815f87803b158015610e36575f80fd5b505af1158015610e48573d5f803e3d5ffd5b5050505060018101546001600160a01b031633868685818110610e6d57610e6d611d1b565b905060200201357fd69d4640acbdbbf9091244cb56da6273ff61cd59f33bd19f7fbbcbfc6255fe3484600201548560040154604051610eb6929190918252602082015260400190565b60405180910390a450600101610cc1565b508015610f45576002546040515f9161010090046001600160a01b03169083908381818185875af1925050503d805f8114610f1d576040519150601f19603f3d011682016040523d82523d5f602084013e610f22565b606091505b5050905080610f435760405162461bcd60e51b815260040161063990611d7a565b505b50610f4f60018055565b5050565b610f5b611715565b6108a15f611832565b610f6c611715565b6001600160a01b038116610fc25760405162461bcd60e51b815260206004820152601860248201527f496e76616c6964207472656173757279206164647265737300000000000000006044820152606401610639565b600280546001600160a01b03838116610100818102610100600160a81b031985161790945560405193909204169182907f4ab5be82436d353e61ca18726e984e561f5c1cc7c6d38b29d2553c790434705a905f90a35050565b611023611715565b5f81116110725760405162461bcd60e51b815260206004820152601c60248201527f5072696365206d7573742062652067726561746572207468616e2030000000006044820152606401610639565b5f8281526004602052604090206005810154600160a01b900460ff166110aa5760405162461bcd60e51b815260040161063990611d4e565b60048101805490839055604080518281526020810185905285917f15819dd2fd9f6418b142e798d08a18d0bf06ea368f4480b7b0d3f75bd966bc48910160405180910390a250505050565b6110fd611715565b6108a1611881565b61110d611715565b5f8181526004602052604090206005810154600160a01b900460ff166111455760405162461bcd60e51b815260040161063990611d4e565b6005808201805460ff60a01b191690556001820180546001600160a01b039081165f9081526020938452604080822060028701805484529552808220805460ff1916905593549254935192939091169185917f2c9d6981c622d09ee9e2c9d6f686d7465850ecd57c1d5e82467803cd7a31d0af91a45050565b6111c6611715565b6001600160a01b0381166111ef57604051631e4fbdf760e01b81525f6004820152602401610639565b610bca81611832565b6060611202611715565b61120a6117ec565b878614801561121857508584145b801561122357508382145b6112685760405162461bcd60e51b8152602060048201526016602482015275082e4e4c2f240d8cadccee8d0e640dad2e6dac2e8c6d60531b6044820152606401610639565b5f8867ffffffffffffffff81111561128257611282611d07565b6040519080825280602002602001820160405280156112ab578160200160208202803683370190505b5090505f5b898110156113e2573063f7adbbc98c8c848181106112d0576112d0611d1b565b90506020020160208101906112e59190611b6a565b8b8b858181106112f7576112f7611d1b565b905060200201358a8a8681811061131057611310611d1b565b90506020020160208101906113259190611b6a565b89898781811061133757611337611d1b565b60405160e088901b6001600160e01b03191681526001600160a01b039687166004820152602481019590955292909416604484015260209091020135606482015260840190506020604051808303815f875af1158015611399573d5f803e3d5ffd5b505050506040513d601f19601f820116820180604052508101906113bd9190611dd8565b8282815181106113cf576113cf611d1b565b60209081029190910101526001016112b0565b509998505050505050505050565b5f6113f9611715565b6114016117ec565b6001600160a01b03851661144e5760405162461bcd60e51b8152602060048201526014602482015273125b9d985b1a59081391950818dbdb9d1c9858dd60621b6044820152606401610639565b5f821161149d5760405162461bcd60e51b815260206004820152601c60248201527f5072696365206d7573742062652067726561746572207468616e2030000000006044820152606401610639565b6001600160a01b0385165f90815260056020908152604080832087845290915290205460ff16156115055760405162461bcd60e51b815260206004820152601260248201527113919508185b1c9958591e481b1a5cdd195960721b6044820152606401610639565b6040516331a9108f60e11b815260048101859052859030906001600160a01b03831690636352211e90602401602060405180830381865afa15801561154c573d5f803e3d5ffd5b505050506040513d601f19601f820116820180604052508101906115709190611def565b6001600160a01b0316146115c65760405162461bcd60e51b815260206004820152601960248201527f53686f7020646f65736e2774206f776e2074686973204e4654000000000000006044820152606401610639565b600380545f91826115d683611e0a565b909155506040805160e0810182528281526001600160a01b03808b1660208084018281528486018d81528c851660608701908152608087018d81523360a08901908152600160c08a018181525f8d81526004808a528d82209c518d5597518c84018054918d166001600160a01b0319928316179055965160028d0155945160038c018054918c16919097161790955591519489019490945592516005978801805493511515600160a01b026001600160a81b03199094169190971617919091179094558284529381528483208c8452905290839020805460ff19169092179091559051919250879183907f18c93addaf4d0e5982a13cb88444441b90223974eaf9d6e898151cb4d96bf15390611703908a908a906001600160a01b03929092168252602082015260400190565b60405180910390a49695505050505050565b5f546001600160a01b031633146108a15760405163118cdaa760e01b8152336004820152602401610639565b6117496118be565b6002805460ff191690557f5db9ee0a495bf2e6ff9c91a7834c1ba4fdd244a5e8aa4e537bd38aeae4b073aa335b6040516001600160a01b03909116815260200160405180910390a1565b6002600154036117e55760405162461bcd60e51b815260206004820152601f60248201527f5265656e7472616e637947756172643a207265656e7472616e742063616c6c006044820152606401610639565b6002600155565b60025460ff16156108a15760405162461bcd60e51b815260206004820152601060248201526f14185d5cd8589b194e881c185d5cd95960821b6044820152606401610639565b5f80546001600160a01b038381166001600160a01b0319831681178455604051919092169283917f8be0079c531659141344cd1fd0a4f28419497f9722a3daafe3b4186f6b6457e09190a35050565b6118896117ec565b6002805460ff191660011790557f62e78cea01bee320cd4e420270b5ea74000d11b0c9f74754ebdbfc544b05a2586117763390565b60025460ff166108a15760405162461bcd60e51b815260206004820152601460248201527314185d5cd8589b194e881b9bdd081c185d5cd95960621b6044820152606401610639565b6001600160a01b0381168114610bca575f80fd5b5f805f6060848603121561192d575f80fd5b833561193881611907565b925060208401359150604084013561194f81611907565b809150509250925092565b5f8083601f84011261196a575f80fd5b50813567ffffffffffffffff811115611981575f80fd5b6020830191508360208260051b850101111561199b575f80fd5b9250929050565b5f80602083850312156119b3575f80fd5b823567ffffffffffffffff8111156119c9575f80fd5b6119d58582860161195a565b90969095509350505050565b80518252602081015160018060a01b03808216602085015260408301516040850152806060840151166060850152608083015160808501528060a08401511660a0850152505060c0810151151560c08301525050565b602080825282518282018190525f9190848201906040850190845b81811015611a7857611a658385516119e1565b9284019260e09290920191600101611a52565b50909695505050505050565b5f8060408385031215611a95575f80fd5b8235611aa081611907565b946020939093013593505050565b5f60208284031215611abe575f80fd5b5035919050565b60e081016107f082846119e1565b5f805f805f60808688031215611ae7575f80fd5b8535611af281611907565b94506020860135611b0281611907565b935060408601359250606086013567ffffffffffffffff80821115611b25575f80fd5b818801915088601f830112611b38575f80fd5b813581811115611b46575f80fd5b896020828501011115611b57575f80fd5b9699959850939650602001949392505050565b5f60208284031215611b7a575f80fd5b8135611b8581611907565b9392505050565b5f8060408385031215611b9d575f80fd5b50508035926020909101359150565b5f805f805f805f806080898b031215611bc3575f80fd5b883567ffffffffffffffff80821115611bda575f80fd5b611be68c838d0161195a565b909a50985060208b0135915080821115611bfe575f80fd5b611c0a8c838d0161195a565b909850965060408b0135915080821115611c22575f80fd5b611c2e8c838d0161195a565b909650945060608b0135915080821115611c46575f80fd5b50611c538b828c0161195a565b999c989b5096995094979396929594505050565b602080825282518282018190525f9190848201906040850190845b81811015611a7857835183529284019291840191600101611c82565b5f805f8060808587031215611cb1575f80fd5b8435611cbc81611907565b9350602085013592506040850135611cd381611907565b9396929550929360600135925050565b6001600160a01b039384168152919092166020820152604081019190915260600190565b634e487b7160e01b5f52604160045260245ffd5b634e487b7160e01b5f52603260045260245ffd5b5f60208284031215611d3f575f80fd5b81518015158114611b85575f80fd5b6020808252601290820152714c697374696e67206e6f742061637469766560701b604082015260600190565b60208082526017908201527f5061796d656e74207472616e73666572206661696c6564000000000000000000604082015260600190565b634e487b7160e01b5f52601160045260245ffd5b808201808211156107f0576107f0611db1565b5f60208284031215611de8575f80fd5b5051919050565b5f60208284031215611dff575f80fd5b8151611b8581611907565b5f60018201611e1b57611e1b611db1565b506001019056fea26469706673582212205e4a1d6e6206dc35e1944929194e4f146cda03dc0b96110a1538719056c6364864736f6c63430008190033",
					"opcodes": "PUSH1 0x80 PUSH1 0x40 MSTORE CALLVALUE DUP1 ISZERO PUSH2 0xF JUMPI PUSH0 DUP1 REVERT JUMPDEST POP PUSH1 0x40 MLOAD PUSH2 0x204D CODESIZE SUB DUP1 PUSH2 0x204D DUP4 CODECOPY DUP2 ADD PUSH1 0x40 DUP2 SWAP1 MSTORE PUSH2 0x2E SWAP2 PUSH2 0x1B7 JUMP JUMPDEST DUP1 PUSH1 0x1 PUSH1 0x1 PUSH1 0xA0 SHL SUB DUP2 AND PUSH2 0x5D JUMPI PUSH1 0x40 MLOAD PUSH4 0x1E4FBDF7 PUSH1 0xE0 SHL DUP2 MSTORE PUSH0 PUSH1 0x4 DUP3 ADD MSTORE PUSH1 0x24 ADD JUMPDEST PUSH1 0x40 MLOAD DUP1 SWAP2 SUB SWAP1 REVERT JUMPDEST PUSH2 0x66 DUP2 PUSH2 0x14D JUMP JUMPDEST POP PUSH1 0x1 DUP1 SSTORE PUSH1 0x2 DUP1 SLOAD PUSH1 0xFF NOT AND SWAP1 SSTORE PUSH1 0x1 PUSH1 0x1 PUSH1 0xA0 SHL SUB DUP3 AND PUSH2 0xCB JUMPI PUSH1 0x40 MLOAD PUSH3 0x461BCD PUSH1 0xE5 SHL DUP2 MSTORE PUSH1 0x20 PUSH1 0x4 DUP3 ADD MSTORE PUSH1 0x18 PUSH1 0x24 DUP3 ADD MSTORE PUSH32 0x496E76616C696420747265617375727920616464726573730000000000000000 PUSH1 0x44 DUP3 ADD MSTORE PUSH1 0x64 ADD PUSH2 0x54 JUMP JUMPDEST PUSH1 0x1 PUSH1 0x1 PUSH1 0xA0 SHL SUB DUP2 AND PUSH2 0x121 JUMPI PUSH1 0x40 MLOAD PUSH3 0x461BCD PUSH1 0xE5 SHL DUP2 MSTORE PUSH1 0x20 PUSH1 0x4 DUP3 ADD MSTORE PUSH1 0x15 PUSH1 0x24 DUP3 ADD MSTORE PUSH32 0x496E76616C6964206F776E657220616464726573730000000000000000000000 PUSH1 0x44 DUP3 ADD MSTORE PUSH1 0x64 ADD PUSH2 0x54 JUMP JUMPDEST POP PUSH1 0x2 DUP1 SLOAD PUSH1 0x1 PUSH1 0x1 PUSH1 0xA0 SHL SUB SWAP1 SWAP3 AND PUSH2 0x100 MUL PUSH2 0x100 PUSH1 0x1 PUSH1 0xA8 SHL SUB NOT SWAP1 SWAP3 AND SWAP2 SWAP1 SWAP2 OR SWAP1 SSTORE PUSH2 0x1E8 JUMP JUMPDEST PUSH0 DUP1 SLOAD PUSH1 0x1 PUSH1 0x1 PUSH1 0xA0 SHL SUB DUP4 DUP2 AND PUSH1 0x1 PUSH1 0x1 PUSH1 0xA0 SHL SUB NOT DUP4 AND DUP2 OR DUP5 SSTORE PUSH1 0x40 MLOAD SWAP2 SWAP1 SWAP3 AND SWAP3 DUP4 SWAP2 PUSH32 0x8BE0079C531659141344CD1FD0A4F28419497F9722A3DAAFE3B4186F6B6457E0 SWAP2 SWAP1 LOG3 POP POP JUMP JUMPDEST DUP1 MLOAD PUSH1 0x1 PUSH1 0x1 PUSH1 0xA0 SHL SUB DUP2 AND DUP2 EQ PUSH2 0x1B2 JUMPI PUSH0 DUP1 REVERT JUMPDEST SWAP2 SWAP1 POP JUMP JUMPDEST PUSH0 DUP1 PUSH1 0x40 DUP4 DUP6 SUB SLT ISZERO PUSH2 0x1C8 JUMPI PUSH0 DUP1 REVERT JUMPDEST PUSH2 0x1D1 DUP4 PUSH2 0x19C JUMP JUMPDEST SWAP2 POP PUSH2 0x1DF PUSH1 0x20 DUP5 ADD PUSH2 0x19C JUMP JUMPDEST SWAP1 POP SWAP3 POP SWAP3 SWAP1 POP JUMP JUMPDEST PUSH2 0x1E58 DUP1 PUSH2 0x1F5 PUSH0 CODECOPY PUSH0 RETURN INVALID PUSH1 0x80 PUSH1 0x40 MSTORE PUSH1 0x4 CALLDATASIZE LT PUSH2 0x13E JUMPI PUSH0 CALLDATALOAD PUSH1 0xE0 SHR DUP1 PUSH4 0x7F51BB1F GT PUSH2 0xB3 JUMPI DUP1 PUSH4 0xCDB3CD25 GT PUSH2 0x6D JUMPI DUP1 PUSH4 0xCDB3CD25 EQ PUSH2 0x431 JUMPI DUP1 PUSH4 0xDE74E57B EQ PUSH2 0x46A JUMPI DUP1 PUSH4 0xF2FDE38B EQ PUSH2 0x514 JUMPI DUP1 PUSH4 0xF6EB46AC EQ PUSH2 0x533 JUMPI DUP1 PUSH4 0xF7ADBBC9 EQ PUSH2 0x55F JUMPI DUP1 PUSH4 0xFAB25BB2 EQ PUSH2 0x57E JUMPI PUSH0 DUP1 REVERT JUMPDEST DUP1 PUSH4 0x7F51BB1F EQ PUSH2 0x386 JUMPI DUP1 PUSH4 0x82367B2D EQ PUSH2 0x3A5 JUMPI DUP1 PUSH4 0x8456CB59 EQ PUSH2 0x3C4 JUMPI DUP1 PUSH4 0x88B59FA1 EQ PUSH2 0x3D8 JUMPI DUP1 PUSH4 0x8DA5CB5B EQ PUSH2 0x3F6 JUMPI DUP1 PUSH4 0xCB917B9C EQ PUSH2 0x412 JUMPI PUSH0 DUP1 REVERT JUMPDEST DUP1 PUSH4 0x3F4BA83A GT PUSH2 0x104 JUMPI DUP1 PUSH4 0x3F4BA83A EQ PUSH2 0x2D9 JUMPI DUP1 PUSH4 0x51ED8288 EQ PUSH2 0x2ED JUMPI DUP1 PUSH4 0x5A281245 EQ PUSH2 0x300 JUMPI DUP1 PUSH4 0x5C975ABB EQ PUSH2 0x313 JUMPI DUP1 PUSH4 0x61D027B3 EQ PUSH2 0x336 JUMPI DUP1 PUSH4 0x715018A6 EQ PUSH2 0x372 JUMPI PUSH0 DUP1 REVERT JUMPDEST DUP1 PUSH3 0xF2A6AB EQ PUSH2 0x149 JUMPI DUP1 PUSH4 0x373C0BF EQ PUSH2 0x16A JUMPI DUP1 PUSH4 0x6B091F9 EQ PUSH2 0x19F JUMPI DUP1 PUSH4 0x107A274A EQ PUSH2 0x1BE JUMPI DUP1 PUSH4 0x150B7A02 EQ PUSH2 0x295 JUMPI PUSH0 DUP1 REVERT JUMPDEST CALLDATASIZE PUSH2 0x145 JUMPI STOP JUMPDEST PUSH0 DUP1 REVERT JUMPDEST CALLVALUE DUP1 ISZERO PUSH2 0x154 JUMPI PUSH0 DUP1 REVERT JUMPDEST POP PUSH2 0x168 PUSH2 0x163 CALLDATASIZE PUSH1 0x4 PUSH2 0x191B JUMP JUMPDEST PUSH2 0x5C2 JUMP JUMPDEST STOP JUMPDEST CALLVALUE DUP1 ISZERO PUSH2 0x175 JUMPI PUSH0 DUP1 REVERT JUMPDEST POP PUSH2 0x189 PUSH2 0x184 CALLDATASIZE PUSH1 0x4 PUSH2 0x19A2 JUMP JUMPDEST PUSH2 0x6A4 JUMP JUMPDEST PUSH1 0x40 MLOAD PUSH2 0x196 SWAP2 SWAP1 PUSH2 0x1A37 JUMP JUMPDEST PUSH1 0x40 MLOAD DUP1 SWAP2 SUB SWAP1 RETURN JUMPDEST CALLVALUE DUP1 ISZERO PUSH2 0x1AA JUMPI PUSH0 DUP1 REVERT JUMPDEST POP PUSH2 0x168 PUSH2 0x1B9 CALLDATASIZE PUSH1 0x4 PUSH2 0x1A84 JUMP JUMPDEST PUSH2 0x7F6 JUMP JUMPDEST CALLVALUE DUP1 ISZERO PUSH2 0x1C9 JUMPI PUSH0 DUP1 REVERT JUMPDEST POP PUSH2 0x288 PUSH2 0x1D8 CALLDATASIZE PUSH1 0x4 PUSH2 0x1AAE JUMP JUMPDEST PUSH1 0x40 DUP1 MLOAD PUSH1 0xE0 DUP2 ADD DUP3 MSTORE PUSH0 DUP1 DUP3 MSTORE PUSH1 0x20 DUP3 ADD DUP2 SWAP1 MSTORE SWAP2 DUP2 ADD DUP3 SWAP1 MSTORE PUSH1 0x60 DUP2 ADD DUP3 SWAP1 MSTORE PUSH1 0x80 DUP2 ADD DUP3 SWAP1 MSTORE PUSH1 0xA0 DUP2 ADD DUP3 SWAP1 MSTORE PUSH1 0xC0 DUP2 ADD SWAP2 SWAP1 SWAP2 MSTORE POP PUSH0 SWAP1 DUP2 MSTORE PUSH1 0x4 PUSH1 0x20 DUP2 DUP2 MSTORE PUSH1 0x40 SWAP3 DUP4 SWAP1 KECCAK256 DUP4 MLOAD PUSH1 0xE0 DUP2 ADD DUP6 MSTORE DUP2 SLOAD DUP2 MSTORE PUSH1 0x1 DUP3 ADD SLOAD PUSH1 0x1 PUSH1 0x1 PUSH1 0xA0 SHL SUB SWAP1 DUP2 AND SWAP4 DUP3 ADD SWAP4 SWAP1 SWAP4 MSTORE PUSH1 0x2 DUP3 ADD SLOAD SWAP5 DUP2 ADD SWAP5 SWAP1 SWAP5 MSTORE PUSH1 0x3 DUP2 ADD SLOAD DUP3 AND PUSH1 0x60 DUP6 ADD MSTORE SWAP2 DUP3 ADD SLOAD PUSH1 0x80 DUP5 ADD MSTORE PUSH1 0x5 SWAP1 SWAP2 ADD SLOAD SWAP1 DUP2 AND PUSH1 0xA0 DUP4 ADD MSTORE PUSH1 0x1 PUSH1 0xA0 SHL SWAP1 DIV PUSH1 0xFF AND ISZERO ISZERO PUSH1 0xC0 DUP3 ADD MSTORE SWAP1 JUMP JUMPDEST PUSH1 0x40 MLOAD PUSH2 0x196 SWAP2 SWAP1 PUSH2 0x1AC5 JUMP JUMPDEST CALLVALUE DUP1 ISZERO PUSH2 0x2A0 JUMPI PUSH0 DUP1 REVERT JUMPDEST POP PUSH2 0x2C0 PUSH2 0x2AF CALLDATASIZE PUSH1 0x4 PUSH2 0x1AD3 JUMP JUMPDEST PUSH4 0xA85BD01 PUSH1 0xE1 SHL SWAP6 SWAP5 POP POP POP POP POP JUMP JUMPDEST PUSH1 0x40 MLOAD PUSH1 0x1 PUSH1 0x1 PUSH1 0xE0 SHL SUB NOT SWAP1 SWAP2 AND DUP2 MSTORE PUSH1 0x20 ADD PUSH2 0x196 JUMP JUMPDEST CALLVALUE DUP1 ISZERO PUSH2 0x2E4 JUMPI PUSH0 DUP1 REVERT JUMPDEST POP PUSH2 0x168 PUSH2 0x891 JUMP JUMPDEST PUSH2 0x168 PUSH2 0x2FB CALLDATASIZE PUSH1 0x4 PUSH2 0x1AAE JUMP JUMPDEST PUSH2 0x8A3 JUMP JUMPDEST PUSH2 0x168 PUSH2 0x30E CALLDATASIZE PUSH1 0x4 PUSH2 0x19A2 JUMP JUMPDEST PUSH2 0xBCD JUMP JUMPDEST CALLVALUE DUP1 ISZERO PUSH2 0x31E JUMPI PUSH0 DUP1 REVERT JUMPDEST POP PUSH1 0x2 SLOAD PUSH1 0xFF AND JUMPDEST PUSH1 0x40 MLOAD SWAP1 ISZERO ISZERO DUP2 MSTORE PUSH1 0x20 ADD PUSH2 0x196 JUMP JUMPDEST CALLVALUE DUP1 ISZERO PUSH2 0x341 JUMPI PUSH0 DUP1 REVERT JUMPDEST POP PUSH1 0x2 SLOAD PUSH2 0x35A SWAP1 PUSH2 0x100 SWAP1 DIV PUSH1 0x1 PUSH1 0x1 PUSH1 0xA0 SHL SUB AND DUP2 JUMP JUMPDEST PUSH1 0x40 MLOAD PUSH1 0x1 PUSH1 0x1 PUSH1 0xA0 SHL SUB SWAP1 SWAP2 AND DUP2 MSTORE PUSH1 0x20 ADD PUSH2 0x196 JUMP JUMPDEST CALLVALUE DUP1 ISZERO PUSH2 0x37D JUMPI PUSH0 DUP1 REVERT JUMPDEST POP PUSH2 0x168 PUSH2 0xF53 JUMP JUMPDEST CALLVALUE DUP1 ISZERO PUSH2 0x391 JUMPI PUSH0 DUP1 REVERT JUMPDEST POP PUSH2 0x168 PUSH2 0x3A0 CALLDATASIZE PUSH1 0x4 PUSH2 0x1B6A JUMP JUMPDEST PUSH2 0xF64 JUMP JUMPDEST CALLVALUE DUP1 ISZERO PUSH2 0x3B0 JUMPI PUSH0 DUP1 REVERT JUMPDEST POP PUSH2 0x168 PUSH2 0x3BF CALLDATASIZE PUSH1 0x4 PUSH2 0x1B8C JUMP JUMPDEST PUSH2 0x101B JUMP JUMPDEST CALLVALUE DUP1 ISZERO PUSH2 0x3CF JUMPI PUSH0 DUP1 REVERT JUMPDEST POP PUSH2 0x168 PUSH2 0x10F5 JUMP JUMPDEST CALLVALUE DUP1 ISZERO PUSH2 0x3E3 JUMPI PUSH0 DUP1 REVERT JUMPDEST POP PUSH1 0x3 SLOAD JUMPDEST PUSH1 0x40 MLOAD SWAP1 DUP2 MSTORE PUSH1 0x20 ADD PUSH2 0x196 JUMP JUMPDEST CALLVALUE DUP1 ISZERO PUSH2 0x401 JUMPI PUSH0 DUP1 REVERT JUMPDEST POP PUSH0 SLOAD PUSH1 0x1 PUSH1 0x1 PUSH1 0xA0 SHL SUB AND PUSH2 0x35A JUMP JUMPDEST CALLVALUE DUP1 ISZERO PUSH2 0x41D JUMPI PUSH0 DUP1 REVERT JUMPDEST POP PUSH2 0x168 PUSH2 0x42C CALLDATASIZE PUSH1 0x4 PUSH2 0x1AAE JUMP JUMPDEST PUSH2 0x1105 JUMP JUMPDEST CALLVALUE DUP1 ISZERO PUSH2 0x43C JUMPI PUSH0 DUP1 REVERT JUMPDEST POP PUSH2 0x326 PUSH2 0x44B CALLDATASIZE PUSH1 0x4 PUSH2 0x1A84 JUMP JUMPDEST PUSH1 0x5 PUSH1 0x20 SWAP1 DUP2 MSTORE PUSH0 SWAP3 DUP4 MSTORE PUSH1 0x40 DUP1 DUP5 KECCAK256 SWAP1 SWAP2 MSTORE SWAP1 DUP3 MSTORE SWAP1 KECCAK256 SLOAD PUSH1 0xFF AND DUP2 JUMP JUMPDEST CALLVALUE DUP1 ISZERO PUSH2 0x475 JUMPI PUSH0 DUP1 REVERT JUMPDEST POP PUSH2 0x4D3 PUSH2 0x484 CALLDATASIZE PUSH1 0x4 PUSH2 0x1AAE JUMP JUMPDEST PUSH1 0x4 PUSH1 0x20 DUP2 SWAP1 MSTORE PUSH0 SWAP2 DUP3 MSTORE PUSH1 0x40 SWAP1 SWAP2 KECCAK256 DUP1 SLOAD PUSH1 0x1 DUP3 ADD SLOAD PUSH1 0x2 DUP4 ADD SLOAD PUSH1 0x3 DUP5 ADD SLOAD SWAP5 DUP5 ADD SLOAD PUSH1 0x5 SWAP1 SWAP5 ADD SLOAD SWAP3 SWAP5 PUSH1 0x1 PUSH1 0x1 PUSH1 0xA0 SHL SUB SWAP3 DUP4 AND SWAP5 SWAP2 SWAP4 SWAP1 DUP4 AND SWAP3 DUP2 AND SWAP1 PUSH1 0x1 PUSH1 0xA0 SHL SWAP1 DIV PUSH1 0xFF AND DUP8 JUMP JUMPDEST PUSH1 0x40 DUP1 MLOAD SWAP8 DUP9 MSTORE PUSH1 0x1 PUSH1 0x1 PUSH1 0xA0 SHL SUB SWAP7 DUP8 AND PUSH1 0x20 DUP10 ADD MSTORE DUP8 ADD SWAP5 SWAP1 SWAP5 MSTORE SWAP2 DUP5 AND PUSH1 0x60 DUP7 ADD MSTORE PUSH1 0x80 DUP6 ADD MSTORE SWAP1 SWAP2 AND PUSH1 0xA0 DUP4 ADD MSTORE ISZERO ISZERO PUSH1 0xC0 DUP3 ADD MSTORE PUSH1 0xE0 ADD PUSH2 0x196 JUMP JUMPDEST CALLVALUE DUP1 ISZERO PUSH2 0x51F JUMPI PUSH0 DUP1 REVERT JUMPDEST POP PUSH2 0x168 PUSH2 0x52E CALLDATASIZE PUSH1 0x4 PUSH2 0x1B6A JUMP JUMPDEST PUSH2 0x11BE JUMP JUMPDEST CALLVALUE DUP1 ISZERO PUSH2 0x53E JUMPI PUSH0 DUP1 REVERT JUMPDEST POP PUSH2 0x552 PUSH2 0x54D CALLDATASIZE PUSH1 0x4 PUSH2 0x1BAC JUMP JUMPDEST PUSH2 0x11F8 JUMP JUMPDEST PUSH1 0x40 MLOAD PUSH2 0x196 SWAP2 SWAP1 PUSH2 0x1C67 JUMP JUMPDEST CALLVALUE DUP1 ISZERO PUSH2 0x56A JUMPI PUSH0 DUP1 REVERT JUMPDEST POP PUSH2 0x3E8 PUSH2 0x579 CALLDATASIZE PUSH1 0x4 PUSH2 0x1C9E JUMP JUMPDEST PUSH2 0x13F0 JUMP JUMPDEST CALLVALUE DUP1 ISZERO PUSH2 0x589 JUMPI PUSH0 DUP1 REVERT JUMPDEST POP PUSH2 0x326 PUSH2 0x598 CALLDATASIZE PUSH1 0x4 PUSH2 0x1A84 JUMP JUMPDEST PUSH1 0x1 PUSH1 0x1 PUSH1 0xA0 SHL SUB SWAP2 SWAP1 SWAP2 AND PUSH0 SWAP1 DUP2 MSTORE PUSH1 0x5 PUSH1 0x20 SWAP1 DUP2 MSTORE PUSH1 0x40 DUP1 DUP4 KECCAK256 SWAP4 DUP4 MSTORE SWAP3 SWAP1 MSTORE KECCAK256 SLOAD PUSH1 0xFF AND SWAP1 JUMP JUMPDEST PUSH2 0x5CA PUSH2 0x1715 JUMP JUMPDEST PUSH1 0x1 PUSH1 0x1 PUSH1 0xA0 SHL SUB DUP4 AND PUSH0 SWAP1 DUP2 MSTORE PUSH1 0x5 PUSH1 0x20 SWAP1 DUP2 MSTORE PUSH1 0x40 DUP1 DUP4 KECCAK256 DUP6 DUP5 MSTORE SWAP1 SWAP2 MSTORE SWAP1 KECCAK256 SLOAD PUSH1 0xFF AND ISZERO PUSH2 0x642 JUMPI PUSH1 0x40 MLOAD PUSH3 0x461BCD PUSH1 0xE5 SHL DUP2 MSTORE PUSH1 0x20 PUSH1 0x4 DUP3 ADD MSTORE PUSH1 0x17 PUSH1 0x24 DUP3 ADD MSTORE PUSH32 0x4E46542069732063757272656E746C79206C6973746564000000000000000000 PUSH1 0x44 DUP3 ADD MSTORE PUSH1 0x64 ADD JUMPDEST PUSH1 0x40 MLOAD DUP1 SWAP2 SUB SWAP1 REVERT JUMPDEST PUSH1 0x40 MLOAD PUSH4 0x21421707 PUSH1 0xE1 SHL DUP2 MSTORE PUSH1 0x1 PUSH1 0x1 PUSH1 0xA0 SHL SUB DUP5 AND SWAP1 PUSH4 0x42842E0E SWAP1 PUSH2 0x672 SWAP1 ADDRESS SWAP1 DUP6 SWAP1 DUP8 SWAP1 PUSH1 0x4 ADD PUSH2 0x1CE3 JUMP JUMPDEST PUSH0 PUSH1 0x40 MLOAD DUP1 DUP4 SUB DUP2 PUSH0 DUP8 DUP1 EXTCODESIZE ISZERO DUP1 ISZERO PUSH2 0x689 JUMPI PUSH0 DUP1 REVERT JUMPDEST POP GAS CALL ISZERO DUP1 ISZERO PUSH2 0x69B JUMPI RETURNDATASIZE PUSH0 DUP1 RETURNDATACOPY RETURNDATASIZE PUSH0 REVERT JUMPDEST POP POP POP POP POP POP POP JUMP JUMPDEST PUSH1 0x60 PUSH0 DUP3 PUSH8 0xFFFFFFFFFFFFFFFF DUP2 GT ISZERO PUSH2 0x6C0 JUMPI PUSH2 0x6C0 PUSH2 0x1D07 JUMP JUMPDEST PUSH1 0x40 MLOAD SWAP1 DUP1 DUP3 MSTORE DUP1 PUSH1 0x20 MUL PUSH1 0x20 ADD DUP3 ADD PUSH1 0x40 MSTORE DUP1 ISZERO PUSH2 0x725 JUMPI DUP2 PUSH1 0x20 ADD JUMPDEST PUSH1 0x40 DUP1 MLOAD PUSH1 0xE0 DUP2 ADD DUP3 MSTORE PUSH0 DUP1 DUP3 MSTORE PUSH1 0x20 DUP1 DUP4 ADD DUP3 SWAP1 MSTORE SWAP3 DUP3 ADD DUP2 SWAP1 MSTORE PUSH1 0x60 DUP3 ADD DUP2 SWAP1 MSTORE PUSH1 0x80 DUP3 ADD DUP2 SWAP1 MSTORE PUSH1 0xA0 DUP3 ADD DUP2 SWAP1 MSTORE PUSH1 0xC0 DUP3 ADD MSTORE DUP3 MSTORE PUSH0 NOT SWAP1 SWAP3 ADD SWAP2 ADD DUP2 PUSH2 0x6DE JUMPI SWAP1 POP JUMPDEST POP SWAP1 POP PUSH0 JUMPDEST DUP4 DUP2 LT ISZERO PUSH2 0x7EC JUMPI PUSH1 0x4 PUSH0 DUP7 DUP7 DUP5 DUP2 DUP2 LT PUSH2 0x747 JUMPI PUSH2 0x747 PUSH2 0x1D1B JUMP JUMPDEST PUSH1 0x20 SWAP1 DUP2 MUL SWAP3 SWAP1 SWAP3 ADD CALLDATALOAD DUP4 MSTORE POP DUP2 DUP2 ADD SWAP3 SWAP1 SWAP3 MSTORE PUSH1 0x40 SWAP1 DUP2 ADD PUSH0 KECCAK256 DUP2 MLOAD PUSH1 0xE0 DUP2 ADD DUP4 MSTORE DUP2 SLOAD DUP2 MSTORE PUSH1 0x1 DUP3 ADD SLOAD PUSH1 0x1 PUSH1 0x1 PUSH1 0xA0 SHL SUB SWAP1 DUP2 AND SWAP5 DUP3 ADD SWAP5 SWAP1 SWAP5 MSTORE PUSH1 0x2 DUP3 ADD SLOAD SWAP3 DUP2 ADD SWAP3 SWAP1 SWAP3 MSTORE PUSH1 0x3 DUP2 ADD SLOAD DUP4 AND PUSH1 0x60 DUP4 ADD MSTORE PUSH1 0x4 DUP2 ADD SLOAD PUSH1 0x80 DUP4 ADD MSTORE PUSH1 0x5 ADD SLOAD SWAP2 DUP3 AND PUSH1 0xA0 DUP3 ADD MSTORE PUSH1 0x1 PUSH1 0xA0 SHL SWAP1 SWAP2 DIV PUSH1 0xFF AND ISZERO ISZERO PUSH1 0xC0 DUP3 ADD MSTORE DUP3 MLOAD DUP4 SWAP1 DUP4 SWAP1 DUP2 LT PUSH2 0x7D9 JUMPI PUSH2 0x7D9 PUSH2 0x1D1B JUMP JUMPDEST PUSH1 0x20 SWAP1 DUP2 MUL SWAP2 SWAP1 SWAP2 ADD ADD MSTORE PUSH1 0x1 ADD PUSH2 0x72A JUMP JUMPDEST POP SWAP1 POP JUMPDEST SWAP3 SWAP2 POP POP JUMP JUMPDEST PUSH2 0x7FE PUSH2 0x1715 JUMP JUMPDEST DUP2 PUSH1 0x1 PUSH1 0x1 PUSH1 0xA0 SHL SUB AND PUSH4 0xA9059CBB PUSH2 0x81E PUSH0 SLOAD PUSH1 0x1 PUSH1 0x1 PUSH1 0xA0 SHL SUB AND SWAP1 JUMP JUMPDEST PUSH1 0x40 MLOAD PUSH1 0x1 PUSH1 0x1 PUSH1 0xE0 SHL SUB NOT PUSH1 0xE0 DUP5 SWAP1 SHL AND DUP2 MSTORE PUSH1 0x1 PUSH1 0x1 PUSH1 0xA0 SHL SUB SWAP1 SWAP2 AND PUSH1 0x4 DUP3 ADD MSTORE PUSH1 0x24 DUP2 ADD DUP5 SWAP1 MSTORE PUSH1 0x44 ADD PUSH1 0x20 PUSH1 0x40 MLOAD DUP1 DUP4 SUB DUP2 PUSH0 DUP8 GAS CALL ISZERO DUP1 ISZERO PUSH2 0x868 JUMPI RETURNDATASIZE PUSH0 DUP1 RETURNDATACOPY RETURNDATASIZE PUSH0 REVERT JUMPDEST POP POP POP POP PUSH1 0x40 MLOAD RETURNDATASIZE PUSH1 0x1F NOT PUSH1 0x1F DUP3 ADD AND DUP3 ADD DUP1 PUSH1 0x40 MSTORE POP DUP2 ADD SWAP1 PUSH2 0x88C SWAP2 SWAP1 PUSH2 0x1D2F JUMP JUMPDEST POP POP POP JUMP JUMPDEST PUSH2 0x899 PUSH2 0x1715 JUMP JUMPDEST PUSH2 0x8A1 PUSH2 0x1741 JUMP JUMPDEST JUMP JUMPDEST PUSH2 0x8AB PUSH2 0x1793 JUMP JUMPDEST PUSH2 0x8B3 PUSH2 0x17EC JUMP JUMPDEST PUSH0 DUP2 DUP2 MSTORE PUSH1 0x4 PUSH1 0x20 MSTORE PUSH1 0x40 SWAP1 KECCAK256 PUSH1 0x5 DUP2 ADD SLOAD PUSH1 0x1 PUSH1 0xA0 SHL SWAP1 DIV PUSH1 0xFF AND PUSH2 0x8EB JUMPI PUSH1 0x40 MLOAD PUSH3 0x461BCD PUSH1 0xE5 SHL DUP2 MSTORE PUSH1 0x4 ADD PUSH2 0x639 SWAP1 PUSH2 0x1D4E JUMP JUMPDEST PUSH1 0x3 DUP2 ADD SLOAD PUSH1 0x1 PUSH1 0x1 PUSH1 0xA0 SHL SUB AND PUSH2 0x9CB JUMPI DUP1 PUSH1 0x4 ADD SLOAD CALLVALUE EQ PUSH2 0x950 JUMPI PUSH1 0x40 MLOAD PUSH3 0x461BCD PUSH1 0xE5 SHL DUP2 MSTORE PUSH1 0x20 PUSH1 0x4 DUP3 ADD MSTORE PUSH1 0x18 PUSH1 0x24 DUP3 ADD MSTORE PUSH32 0x496E636F7272656374207061796D656E7420616D6F756E740000000000000000 PUSH1 0x44 DUP3 ADD MSTORE PUSH1 0x64 ADD PUSH2 0x639 JUMP JUMPDEST PUSH1 0x2 SLOAD PUSH1 0x40 MLOAD PUSH0 SWAP2 PUSH2 0x100 SWAP1 DIV PUSH1 0x1 PUSH1 0x1 PUSH1 0xA0 SHL SUB AND SWAP1 CALLVALUE SWAP1 DUP4 DUP2 DUP2 DUP2 DUP6 DUP8 GAS CALL SWAP3 POP POP POP RETURNDATASIZE DUP1 PUSH0 DUP2 EQ PUSH2 0x99F JUMPI PUSH1 0x40 MLOAD SWAP2 POP PUSH1 0x1F NOT PUSH1 0x3F RETURNDATASIZE ADD AND DUP3 ADD PUSH1 0x40 MSTORE RETURNDATASIZE DUP3 MSTORE RETURNDATASIZE PUSH0 PUSH1 0x20 DUP5 ADD RETURNDATACOPY PUSH2 0x9A4 JUMP JUMPDEST PUSH1 0x60 SWAP2 POP JUMPDEST POP POP SWAP1 POP DUP1 PUSH2 0x9C5 JUMPI PUSH1 0x40 MLOAD PUSH3 0x461BCD PUSH1 0xE5 SHL DUP2 MSTORE PUSH1 0x4 ADD PUSH2 0x639 SWAP1 PUSH2 0x1D7A JUMP JUMPDEST POP PUSH2 0xAC7 JUMP JUMPDEST CALLVALUE ISZERO PUSH2 0xA23 JUMPI PUSH1 0x40 MLOAD PUSH3 0x461BCD PUSH1 0xE5 SHL DUP2 MSTORE PUSH1 0x20 PUSH1 0x4 DUP3 ADD MSTORE PUSH1 0x21 PUSH1 0x24 DUP3 ADD MSTORE PUSH32 0x455448206E6F7420616363657074656420666F722074686973206C697374696E PUSH1 0x44 DUP3 ADD MSTORE PUSH1 0x67 PUSH1 0xF8 SHL PUSH1 0x64 DUP3 ADD MSTORE PUSH1 0x84 ADD PUSH2 0x639 JUMP JUMPDEST PUSH1 0x3 DUP2 ADD SLOAD PUSH1 0x2 SLOAD PUSH1 0x4 DUP1 DUP5 ADD SLOAD PUSH1 0x40 MLOAD PUSH4 0x23B872DD PUSH1 0xE0 SHL DUP2 MSTORE PUSH1 0x1 PUSH1 0x1 PUSH1 0xA0 SHL SUB SWAP5 DUP6 AND SWAP5 DUP6 SWAP5 PUSH4 0x23B872DD SWAP5 PUSH2 0xA69 SWAP5 CALLER SWAP5 PUSH2 0x100 SWAP1 SWAP4 DIV SWAP1 SWAP4 AND SWAP3 SWAP2 ADD PUSH2 0x1CE3 JUMP JUMPDEST PUSH1 0x20 PUSH1 0x40 MLOAD DUP1 DUP4 SUB DUP2 PUSH0 DUP8 GAS CALL ISZERO DUP1 ISZERO PUSH2 0xA85 JUMPI RETURNDATASIZE PUSH0 DUP1 RETURNDATACOPY RETURNDATASIZE PUSH0 REVERT JUMPDEST POP POP POP POP PUSH1 0x40 MLOAD RETURNDATASIZE PUSH1 0x1F NOT PUSH1 0x1F DUP3 ADD AND DUP3 ADD DUP1 PUSH1 0x40 MSTORE POP DUP2 ADD SWAP1 PUSH2 0xAA9 SWAP2 SWAP1 PUSH2 0x1D2F JUMP JUMPDEST PUSH2 0xAC5 JUMPI PUSH1 0x40 MLOAD PUSH3 0x461BCD PUSH1 0xE5 SHL DUP2 MSTORE PUSH1 0x4 ADD PUSH2 0x639 SWAP1 PUSH2 0x1D7A JUMP JUMPDEST POP JUMPDEST PUSH1 0x5 DUP1 DUP3 ADD DUP1 SLOAD PUSH1 0xFF PUSH1 0xA0 SHL NOT AND SWAP1 SSTORE PUSH1 0x1 DUP3 ADD DUP1 SLOAD PUSH1 0x1 PUSH1 0x1 PUSH1 0xA0 SHL SUB SWAP1 DUP2 AND PUSH0 SWAP1 DUP2 MSTORE PUSH1 0x20 SWAP4 DUP5 MSTORE PUSH1 0x40 DUP1 DUP3 KECCAK256 PUSH1 0x2 DUP8 ADD DUP1 SLOAD DUP5 MSTORE SWAP6 MSTORE SWAP1 DUP2 SWAP1 KECCAK256 DUP1 SLOAD PUSH1 0xFF NOT AND SWAP1 SSTORE SWAP2 SLOAD SWAP3 SLOAD SWAP2 MLOAD PUSH4 0x21421707 PUSH1 0xE1 SHL DUP2 MSTORE SWAP3 AND SWAP2 PUSH4 0x42842E0E SWAP2 PUSH2 0xB35 SWAP2 ADDRESS SWAP2 CALLER SWAP2 PUSH1 0x4 ADD PUSH2 0x1CE3 JUMP JUMPDEST PUSH0 PUSH1 0x40 MLOAD DUP1 DUP4 SUB DUP2 PUSH0 DUP8 DUP1 EXTCODESIZE ISZERO DUP1 ISZERO PUSH2 0xB4C JUMPI PUSH0 DUP1 REVERT JUMPDEST POP GAS CALL ISZERO DUP1 ISZERO PUSH2 0xB5E JUMPI RETURNDATASIZE PUSH0 DUP1 RETURNDATACOPY RETURNDATASIZE PUSH0 REVERT JUMPDEST POP POP POP PUSH1 0x1 DUP3 ADD SLOAD PUSH1 0x2 DUP4 ADD SLOAD PUSH1 0x4 DUP5 ADD SLOAD PUSH1 0x40 MLOAD PUSH1 0x1 PUSH1 0x1 PUSH1 0xA0 SHL SUB SWAP1 SWAP4 AND SWAP4 POP CALLER SWAP3 DUP7 SWAP3 PUSH32 0xD69D4640ACBDBBF9091244CB56DA6273FF61CD59F33BD19F7FBBCBFC6255FE34 SWAP3 PUSH2 0xBB8 SWAP3 SWAP2 DUP3 MSTORE PUSH1 0x20 DUP3 ADD MSTORE PUSH1 0x40 ADD SWAP1 JUMP JUMPDEST PUSH1 0x40 MLOAD DUP1 SWAP2 SUB SWAP1 LOG4 POP PUSH2 0xBCA PUSH1 0x1 DUP1 SSTORE JUMP JUMPDEST POP JUMP JUMPDEST PUSH2 0xBD5 PUSH2 0x1793 JUMP JUMPDEST PUSH2 0xBDD PUSH2 0x17EC JUMP JUMPDEST PUSH0 DUP1 JUMPDEST DUP3 DUP2 LT ISZERO PUSH2 0xC6F JUMPI PUSH0 PUSH1 0x4 PUSH0 DUP7 DUP7 DUP6 DUP2 DUP2 LT PUSH2 0xBFE JUMPI PUSH2 0xBFE PUSH2 0x1D1B JUMP JUMPDEST SWAP1 POP PUSH1 0x20 MUL ADD CALLDATALOAD DUP2 MSTORE PUSH1 0x20 ADD SWAP1 DUP2 MSTORE PUSH1 0x20 ADD PUSH0 KECCAK256 SWAP1 POP DUP1 PUSH1 0x5 ADD PUSH1 0x14 SWAP1 SLOAD SWAP1 PUSH2 0x100 EXP SWAP1 DIV PUSH1 0xFF AND PUSH2 0xC42 JUMPI PUSH1 0x40 MLOAD PUSH3 0x461BCD PUSH1 0xE5 SHL DUP2 MSTORE PUSH1 0x4 ADD PUSH2 0x639 SWAP1 PUSH2 0x1D4E JUMP JUMPDEST PUSH1 0x3 DUP2 ADD SLOAD PUSH1 0x1 PUSH1 0x1 PUSH1 0xA0 SHL SUB AND PUSH2 0xC66 JUMPI PUSH1 0x4 DUP2 ADD SLOAD PUSH2 0xC63 SWAP1 DUP5 PUSH2 0x1DC5 JUMP JUMPDEST SWAP3 POP JUMPDEST POP PUSH1 0x1 ADD PUSH2 0xBE0 JUMP JUMPDEST POP DUP1 CALLVALUE EQ PUSH2 0xCBF JUMPI PUSH1 0x40 MLOAD PUSH3 0x461BCD PUSH1 0xE5 SHL DUP2 MSTORE PUSH1 0x20 PUSH1 0x4 DUP3 ADD MSTORE PUSH1 0x17 PUSH1 0x24 DUP3 ADD MSTORE PUSH32 0x496E636F727265637420746F74616C207061796D656E74000000000000000000 PUSH1 0x44 DUP3 ADD MSTORE PUSH1 0x64 ADD PUSH2 0x639 JUMP JUMPDEST PUSH0 JUMPDEST DUP3 DUP2 LT ISZERO PUSH2 0xEC7 JUMPI PUSH0 PUSH1 0x4 PUSH0 DUP7 DUP7 DUP6 DUP2 DUP2 LT PUSH2 0xCDF JUMPI PUSH2 0xCDF PUSH2 0x1D1B JUMP JUMPDEST PUSH1 0x20 SWAP1 DUP2 MUL SWAP3 SWAP1 SWAP3 ADD CALLDATALOAD DUP4 MSTORE POP DUP2 ADD SWAP2 SWAP1 SWAP2 MSTORE PUSH1 0x40 ADD PUSH0 KECCAK256 PUSH1 0x3 DUP2 ADD SLOAD SWAP1 SWAP2 POP PUSH1 0x1 PUSH1 0x1 PUSH1 0xA0 SHL SUB AND ISZERO PUSH2 0xDB1 JUMPI PUSH1 0x3 DUP2 ADD SLOAD PUSH1 0x2 SLOAD PUSH1 0x4 DUP1 DUP5 ADD SLOAD PUSH1 0x40 MLOAD PUSH4 0x23B872DD PUSH1 0xE0 SHL DUP2 MSTORE PUSH1 0x1 PUSH1 0x1 PUSH1 0xA0 SHL SUB SWAP5 DUP6 AND SWAP5 DUP6 SWAP5 PUSH4 0x23B872DD SWAP5 PUSH2 0xD53 SWAP5 CALLER SWAP5 PUSH2 0x100 SWAP1 SWAP4 DIV SWAP1 SWAP4 AND SWAP3 SWAP2 ADD PUSH2 0x1CE3 JUMP JUMPDEST PUSH1 0x20 PUSH1 0x40 MLOAD DUP1 DUP4 SUB DUP2 PUSH0 DUP8 GAS CALL ISZERO DUP1 ISZERO PUSH2 0xD6F JUMPI RETURNDATASIZE PUSH0 DUP1 RETURNDATACOPY RETURNDATASIZE PUSH0 REVERT JUMPDEST POP POP POP POP PUSH1 0x40 MLOAD RETURNDATASIZE PUSH1 0x1F NOT PUSH1 0x1F DUP3 ADD AND DUP3 ADD DUP1 PUSH1 0x40 MSTORE POP DUP2 ADD SWAP1 PUSH2 0xD93 SWAP2 SWAP1 PUSH2 0x1D2F JUMP JUMPDEST PUSH2 0xDAF JUMPI PUSH1 0x40 MLOAD PUSH3 0x461BCD PUSH1 0xE5 SHL DUP2 MSTORE PUSH1 0x4 ADD PUSH2 0x639 SWAP1 PUSH2 0x1D7A JUMP JUMPDEST POP JUMPDEST PUSH1 0x5 DUP1 DUP3 ADD DUP1 SLOAD PUSH1 0xFF PUSH1 0xA0 SHL NOT AND SWAP1 SSTORE PUSH1 0x1 DUP3 ADD DUP1 SLOAD PUSH1 0x1 PUSH1 0x1 PUSH1 0xA0 SHL SUB SWAP1 DUP2 AND PUSH0 SWAP1 DUP2 MSTORE PUSH1 0x20 SWAP4 DUP5 MSTORE PUSH1 0x40 DUP1 DUP3 KECCAK256 PUSH1 0x2 DUP8 ADD DUP1 SLOAD DUP5 MSTORE SWAP6 MSTORE SWAP1 DUP2 SWAP1 KECCAK256 DUP1 SLOAD PUSH1 0xFF NOT AND SWAP1 SSTORE SWAP2 SLOAD SWAP3 SLOAD SWAP2 MLOAD PUSH4 0x21421707 PUSH1 0xE1 SHL DUP2 MSTORE SWAP3 AND SWAP2 PUSH4 0x42842E0E SWAP2 PUSH2 0xE1F SWAP2 ADDRESS SWAP2 CALLER SWAP2 PUSH1 0x4 ADD PUSH2 0x1CE3 JUMP JUMPDEST PUSH0 PUSH1 0x40 MLOAD DUP1 DUP4 SUB DUP2 PUSH0 DUP8 DUP1 EXTCODESIZE ISZERO DUP1 ISZERO PUSH2 0xE36 JUMPI PUSH0 DUP1 REVERT JUMPDEST POP GAS CALL ISZERO DUP1 ISZERO PUSH2 0xE48 JUMPI RETURNDATASIZE PUSH0 DUP1 RETURNDATACOPY RETURNDATASIZE PUSH0 REVERT JUMPDEST POP POP POP POP PUSH1 0x1 DUP2 ADD SLOAD PUSH1 0x1 PUSH1 0x1 PUSH1 0xA0 SHL SUB AND CALLER DUP7 DUP7 DUP6 DUP2 DUP2 LT PUSH2 0xE6D JUMPI PUSH2 0xE6D PUSH2 0x1D1B JUMP JUMPDEST SWAP1 POP PUSH1 0x20 MUL ADD CALLDATALOAD PUSH32 0xD69D4640ACBDBBF9091244CB56DA6273FF61CD59F33BD19F7FBBCBFC6255FE34 DUP5 PUSH1 0x2 ADD SLOAD DUP6 PUSH1 0x4 ADD SLOAD PUSH1 0x40 MLOAD PUSH2 0xEB6 SWAP3 SWAP2 SWAP1 SWAP2 DUP3 MSTORE PUSH1 0x20 DUP3 ADD MSTORE PUSH1 0x40 ADD SWAP1 JUMP JUMPDEST PUSH1 0x40 MLOAD DUP1 SWAP2 SUB SWAP1 LOG4 POP PUSH1 0x1 ADD PUSH2 0xCC1 JUMP JUMPDEST POP DUP1 ISZERO PUSH2 0xF45 JUMPI PUSH1 0x2 SLOAD PUSH1 0x40 MLOAD PUSH0 SWAP2 PUSH2 0x100 SWAP1 DIV PUSH1 0x1 PUSH1 0x1 PUSH1 0xA0 SHL SUB AND SWAP1 DUP4 SWAP1 DUP4 DUP2 DUP2 DUP2 DUP6 DUP8 GAS CALL SWAP3 POP POP POP RETURNDATASIZE DUP1 PUSH0 DUP2 EQ PUSH2 0xF1D JUMPI PUSH1 0x40 MLOAD SWAP2 POP PUSH1 0x1F NOT PUSH1 0x3F RETURNDATASIZE ADD AND DUP3 ADD PUSH1 0x40 MSTORE RETURNDATASIZE DUP3 MSTORE RETURNDATASIZE PUSH0 PUSH1 0x20 DUP5 ADD RETURNDATACOPY PUSH2 0xF22 JUMP JUMPDEST PUSH1 0x60 SWAP2 POP JUMPDEST POP POP SWAP1 POP DUP1 PUSH2 0xF43 JUMPI PUSH1 0x40 MLOAD PUSH3 0x461BCD PUSH1 0xE5 SHL DUP2 MSTORE PUSH1 0x4 ADD PUSH2 0x639 SWAP1 PUSH2 0x1D7A JUMP JUMPDEST POP JUMPDEST POP PUSH2 0xF4F PUSH1 0x1 DUP1 SSTORE JUMP JUMPDEST POP POP JUMP JUMPDEST PUSH2 0xF5B PUSH2 0x1715 JUMP JUMPDEST PUSH2 0x8A1 PUSH0 PUSH2 0x1832 JUMP JUMPDEST PUSH2 0xF6C PUSH2 0x1715 JUMP JUMPDEST PUSH1 0x1 PUSH1 0x1 PUSH1 0xA0 SHL SUB DUP2 AND PUSH2 0xFC2 JUMPI PUSH1 0x40 MLOAD PUSH3 0x461BCD PUSH1 0xE5 SHL DUP2 MSTORE PUSH1 0x20 PUSH1 0x4 DUP3 ADD MSTORE PUSH1 0x18 PUSH1 0x24 DUP3 ADD MSTORE PUSH32 0x496E76616C696420747265617375727920616464726573730000000000000000 PUSH1 0x44 DUP3 ADD MSTORE PUSH1 0x64 ADD PUSH2 0x639 JUMP JUMPDEST PUSH1 0x2 DUP1 SLOAD PUSH1 0x1 PUSH1 0x1 PUSH1 0xA0 SHL SUB DUP4 DUP2 AND PUSH2 0x100 DUP2 DUP2 MUL PUSH2 0x100 PUSH1 0x1 PUSH1 0xA8 SHL SUB NOT DUP6 AND OR SWAP1 SWAP5 SSTORE PUSH1 0x40 MLOAD SWAP4 SWAP1 SWAP3 DIV AND SWAP2 DUP3 SWAP1 PUSH32 0x4AB5BE82436D353E61CA18726E984E561F5C1CC7C6D38B29D2553C790434705A SWAP1 PUSH0 SWAP1 LOG3 POP POP JUMP JUMPDEST PUSH2 0x1023 PUSH2 0x1715 JUMP JUMPDEST PUSH0 DUP2 GT PUSH2 0x1072 JUMPI PUSH1 0x40 MLOAD PUSH3 0x461BCD PUSH1 0xE5 SHL DUP2 MSTORE PUSH1 0x20 PUSH1 0x4 DUP3 ADD MSTORE PUSH1 0x1C PUSH1 0x24 DUP3 ADD MSTORE PUSH32 0x5072696365206D7573742062652067726561746572207468616E203000000000 PUSH1 0x44 DUP3 ADD MSTORE PUSH1 0x64 ADD PUSH2 0x639 JUMP JUMPDEST PUSH0 DUP3 DUP2 MSTORE PUSH1 0x4 PUSH1 0x20 MSTORE PUSH1 0x40 SWAP1 KECCAK256 PUSH1 0x5 DUP2 ADD SLOAD PUSH1 0x1 PUSH1 0xA0 SHL SWAP1 DIV PUSH1 0xFF AND PUSH2 0x10AA JUMPI PUSH1 0x40 MLOAD PUSH3 0x461BCD PUSH1 0xE5 SHL DUP2 MSTORE PUSH1 0x4 ADD PUSH2 0x639 SWAP1 PUSH2 0x1D4E JUMP JUMPDEST PUSH1 0x4 DUP2 ADD DUP1 SLOAD SWAP1 DUP4 SWAP1 SSTORE PUSH1 0x40 DUP1 MLOAD DUP3 DUP2 MSTORE PUSH1 0x20 DUP2 ADD DUP6 SWAP1 MSTORE DUP6 SWAP2 PUSH32 0x15819DD2FD9F6418B142E798D08A18D0BF06EA368F4480B7B0D3F75BD966BC48 SWAP2 ADD PUSH1 0x40 MLOAD DUP1 SWAP2 SUB SWAP1 LOG2 POP POP POP POP JUMP JUMPDEST PUSH2 0x10FD PUSH2 0x1715 JUMP JUMPDEST PUSH2 0x8A1 PUSH2 0x1881 JUMP JUMPDEST PUSH2 0x110D PUSH2 0x1715 JUMP JUMPDEST PUSH0 DUP2 DUP2 MSTORE PUSH1 0x4 PUSH1 0x20 MSTORE PUSH1 0x40 SWAP1 KECCAK256 PUSH1 0x5 DUP2 ADD SLOAD PUSH1 0x1 PUSH1 0xA0 SHL SWAP1 DIV PUSH1 0xFF AND PUSH2 0x1145 JUMPI PUSH1 0x40 MLOAD PUSH3 0x461BCD PUSH1 0xE5 SHL DUP2 MSTORE PUSH1 0x4 ADD PUSH2 0x639 SWAP1 PUSH2 0x1D4E JUMP JUMPDEST PUSH1 0x5 DUP1 DUP3 ADD DUP1 SLOAD PUSH1 0xFF PUSH1 0xA0 SHL NOT AND SWAP1 SSTORE PUSH1 0x1 DUP3 ADD DUP1 SLOAD PUSH1 0x1 PUSH1 0x1 PUSH1 0xA0 SHL SUB SWAP1 DUP2 AND PUSH0 SWAP1 DUP2 MSTORE PUSH1 0x20 SWAP4 DUP5 MSTORE PUSH1 0x40 DUP1 DUP3 KECCAK256 PUSH1 0x2 DUP8 ADD DUP1 SLOAD DUP5 MSTORE SWAP6 MSTORE DUP1 DUP3 KECCAK256 DUP1 SLOAD PUSH1 0xFF NOT AND SWAP1 SSTORE SWAP4 SLOAD SWAP3 SLOAD SWAP4 MLOAD SWAP3 SWAP4 SWAP1 SWAP2 AND SWAP2 DUP6 SWAP2 PUSH32 0x2C9D6981C622D09EE9E2C9D6F686D7465850ECD57C1D5E82467803CD7A31D0AF SWAP2 LOG4 POP POP JUMP JUMPDEST PUSH2 0x11C6 PUSH2 0x1715 JUMP JUMPDEST PUSH1 0x1 PUSH1 0x1 PUSH1 0xA0 SHL SUB DUP2 AND PUSH2 0x11EF JUMPI PUSH1 0x40 MLOAD PUSH4 0x1E4FBDF7 PUSH1 0xE0 SHL DUP2 MSTORE PUSH0 PUSH1 0x4 DUP3 ADD MSTORE PUSH1 0x24 ADD PUSH2 0x639 JUMP JUMPDEST PUSH2 0xBCA DUP2 PUSH2 0x1832 JUMP JUMPDEST PUSH1 0x60 PUSH2 0x1202 PUSH2 0x1715 JUMP JUMPDEST PUSH2 0x120A PUSH2 0x17EC JUMP JUMPDEST DUP8 DUP7 EQ DUP1 ISZERO PUSH2 0x1218 JUMPI POP DUP6 DUP5 EQ JUMPDEST DUP1 ISZERO PUSH2 0x1223 JUMPI POP DUP4 DUP3 EQ JUMPDEST PUSH2 0x1268 JUMPI PUSH1 0x40 MLOAD PUSH3 0x461BCD PUSH1 0xE5 SHL DUP2 MSTORE PUSH1 0x20 PUSH1 0x4 DUP3 ADD MSTORE PUSH1 0x16 PUSH1 0x24 DUP3 ADD MSTORE PUSH22 0x82E4E4C2F240D8CADCCEE8D0E640DAD2E6DAC2E8C6D PUSH1 0x53 SHL PUSH1 0x44 DUP3 ADD MSTORE PUSH1 0x64 ADD PUSH2 0x639 JUMP JUMPDEST PUSH0 DUP9 PUSH8 0xFFFFFFFFFFFFFFFF DUP2 GT ISZERO PUSH2 0x1282 JUMPI PUSH2 0x1282 PUSH2 0x1D07 JUMP JUMPDEST PUSH1 0x40 MLOAD SWAP1 DUP1 DUP3 MSTORE DUP1 PUSH1 0x20 MUL PUSH1 0x20 ADD DUP3 ADD PUSH1 0x40 MSTORE DUP1 ISZERO PUSH2 0x12AB JUMPI DUP2 PUSH1 0x20 ADD PUSH1 0x20 DUP3 MUL DUP1 CALLDATASIZE DUP4 CALLDATACOPY ADD SWAP1 POP JUMPDEST POP SWAP1 POP PUSH0 JUMPDEST DUP10 DUP2 LT ISZERO PUSH2 0x13E2 JUMPI ADDRESS PUSH4 0xF7ADBBC9 DUP13 DUP13 DUP5 DUP2 DUP2 LT PUSH2 0x12D0 JUMPI PUSH2 0x12D0 PUSH2 0x1D1B JUMP JUMPDEST SWAP1 POP PUSH1 0x20 MUL ADD PUSH1 0x20 DUP2 ADD SWAP1 PUSH2 0x12E5 SWAP2 SWAP1 PUSH2 0x1B6A JUMP JUMPDEST DUP12 DUP12 DUP6 DUP2 DUP2 LT PUSH2 0x12F7 JUMPI PUSH2 0x12F7 PUSH2 0x1D1B JUMP JUMPDEST SWAP1 POP PUSH1 0x20 MUL ADD CALLDATALOAD DUP11 DUP11 DUP7 DUP2 DUP2 LT PUSH2 0x1310 JUMPI PUSH2 0x1310 PUSH2 0x1D1B JUMP JUMPDEST SWAP1 POP PUSH1 0x20 MUL ADD PUSH1 0x20 DUP2 ADD SWAP1 PUSH2 0x1325 SWAP2 SWAP1 PUSH2 0x1B6A JUMP JUMPDEST DUP10 DUP10 DUP8 DUP2 DUP2 LT PUSH2 0x1337 JUMPI PUSH2 0x1337 PUSH2 0x1D1B JUMP JUMPDEST PUSH1 0x40 MLOAD PUSH1 0xE0 DUP9 SWAP1 SHL PUSH1 0x1 PUSH1 0x1 PUSH1 0xE0 SHL SUB NOT AND DUP2 MSTORE PUSH1 0x1 PUSH1 0x1 PUSH1 0xA0 SHL SUB SWAP7 DUP8 AND PUSH1 0x4 DUP3 ADD MSTORE PUSH1 0x24 DUP2 ADD SWAP6 SWAP1 SWAP6 MSTORE SWAP3 SWAP1 SWAP5 AND PUSH1 0x44 DUP5 ADD MSTORE PUSH1 0x20 SWAP1 SWAP2 MUL ADD CALLDATALOAD PUSH1 0x64 DUP3 ADD MSTORE PUSH1 0x84 ADD SWAP1 POP PUSH1 0x20 PUSH1 0x40 MLOAD DUP1 DUP4 SUB DUP2 PUSH0 DUP8 GAS CALL ISZERO DUP1 ISZERO PUSH2 0x1399 JUMPI RETURNDATASIZE PUSH0 DUP1 RETURNDATACOPY RETURNDATASIZE PUSH0 REVERT JUMPDEST POP POP POP POP PUSH1 0x40 MLOAD RETURNDATASIZE PUSH1 0x1F NOT PUSH1 0x1F DUP3 ADD AND DUP3 ADD DUP1 PUSH1 0x40 MSTORE POP DUP2 ADD SWAP1 PUSH2 0x13BD SWAP2 SWAP1 PUSH2 0x1DD8 JUMP JUMPDEST DUP3 DUP3 DUP2 MLOAD DUP2 LT PUSH2 0x13CF JUMPI PUSH2 0x13CF PUSH2 0x1D1B JUMP JUMPDEST PUSH1 0x20 SWAP1 DUP2 MUL SWAP2 SWAP1 SWAP2 ADD ADD MSTORE PUSH1 0x1 ADD PUSH2 0x12B0 JUMP JUMPDEST POP SWAP10 SWAP9 POP POP POP POP POP POP POP POP POP JUMP JUMPDEST PUSH0 PUSH2 0x13F9 PUSH2 0x1715 JUMP JUMPDEST PUSH2 0x1401 PUSH2 0x17EC JUMP JUMPDEST PUSH1 0x1 PUSH1 0x1 PUSH1 0xA0 SHL SUB DUP6 AND PUSH2 0x144E JUMPI PUSH1 0x40 MLOAD PUSH3 0x461BCD PUSH1 0xE5 SHL DUP2 MSTORE PUSH1 0x20 PUSH1 0x4 DUP3 ADD MSTORE PUSH1 0x14 PUSH1 0x24 DUP3 ADD MSTORE PUSH20 0x125B9D985B1A59081391950818DBDB9D1C9858DD PUSH1 0x62 SHL PUSH1 0x44 DUP3 ADD MSTORE PUSH1 0x64 ADD PUSH2 0x639 JUMP JUMPDEST PUSH0 DUP3 GT PUSH2 0x149D JUMPI PUSH1 0x40 MLOAD PUSH3 0x461BCD PUSH1 0xE5 SHL DUP2 MSTORE PUSH1 0x20 PUSH1 0x4 DUP3 ADD MSTORE PUSH1 0x1C PUSH1 0x24 DUP3 ADD MSTORE PUSH32 0x5072696365206D7573742062652067726561746572207468616E203000000000 PUSH1 0x44 DUP3 ADD MSTORE PUSH1 0x64 ADD PUSH2 0x639 JUMP JUMPDEST PUSH1 0x1 PUSH1 0x1 PUSH1 0xA0 SHL SUB DUP6 AND PUSH0 SWAP1 DUP2 MSTORE PUSH1 0x5 PUSH1 0x20 SWAP1 DUP2 MSTORE PUSH1 0x40 DUP1 DUP4 KECCAK256 DUP8 DUP5 MSTORE SWAP1 SWAP2 MSTORE SWAP1 KECCAK256 SLOAD PUSH1 0xFF AND ISZERO PUSH2 0x1505 JUMPI PUSH1 0x40 MLOAD PUSH3 0x461BCD PUSH1 0xE5 SHL DUP2 MSTORE PUSH1 0x20 PUSH1 0x4 DUP3 ADD MSTORE PUSH1 0x12 PUSH1 0x24 DUP3 ADD MSTORE PUSH18 0x13919508185B1C9958591E481B1A5CDD1959 PUSH1 0x72 SHL PUSH1 0x44 DUP3 ADD MSTORE PUSH1 0x64 ADD PUSH2 0x639 JUMP JUMPDEST PUSH1 0x40 MLOAD PUSH4 0x31A9108F PUSH1 0xE1 SHL DUP2 MSTORE PUSH1 0x4 DUP2 ADD DUP6 SWAP1 MSTORE DUP6 SWAP1 ADDRESS SWAP1 PUSH1 0x1 PUSH1 0x1 PUSH1 0xA0 SHL SUB DUP4 AND SWAP1 PUSH4 0x6352211E SWAP1 PUSH1 0x24 ADD PUSH1 0x20 PUSH1 0x40 MLOAD DUP1 DUP4 SUB DUP2 DUP7 GAS STATICCALL ISZERO DUP1 ISZERO PUSH2 0x154C JUMPI RETURNDATASIZE PUSH0 DUP1 RETURNDATACOPY RETURNDATASIZE PUSH0 REVERT JUMPDEST POP POP POP POP PUSH1 0x40 MLOAD RETURNDATASIZE PUSH1 0x1F NOT PUSH1 0x1F DUP3 ADD AND DUP3 ADD DUP1 PUSH1 0x40 MSTORE POP DUP2 ADD SWAP1 PUSH2 0x1570 SWAP2 SWAP1 PUSH2 0x1DEF JUMP JUMPDEST PUSH1 0x1 PUSH1 0x1 PUSH1 0xA0 SHL SUB AND EQ PUSH2 0x15C6 JUMPI PUSH1 0x40 MLOAD PUSH3 0x461BCD PUSH1 0xE5 SHL DUP2 MSTORE PUSH1 0x20 PUSH1 0x4 DUP3 ADD MSTORE PUSH1 0x19 PUSH1 0x24 DUP3 ADD MSTORE PUSH32 0x53686F7020646F65736E2774206F776E2074686973204E465400000000000000 PUSH1 0x44 DUP3 ADD MSTORE PUSH1 0x64 ADD PUSH2 0x639 JUMP JUMPDEST PUSH1 0x3 DUP1 SLOAD PUSH0 SWAP2 DUP3 PUSH2 0x15D6 DUP4 PUSH2 0x1E0A JUMP JUMPDEST SWAP1 SWAP2 SSTORE POP PUSH1 0x40 DUP1 MLOAD PUSH1 0xE0 DUP2 ADD DUP3 MSTORE DUP3 DUP2 MSTORE PUSH1 0x1 PUSH1 0x1 PUSH1 0xA0 SHL SUB DUP1 DUP12 AND PUSH1 0x20 DUP1 DUP5 ADD DUP3 DUP2 MSTORE DUP5 DUP7 ADD DUP14 DUP2 MSTORE DUP13 DUP6 AND PUSH1 0x60 DUP8 ADD SWAP1 DUP2 MSTORE PUSH1 0x80 DUP8 ADD DUP14 DUP2 MSTORE CALLER PUSH1 0xA0 DUP10 ADD SWAP1 DUP2 MSTORE PUSH1 0x1 PUSH1 0xC0 DUP11 ADD DUP2 DUP2 MSTORE PUSH0 DUP14 DUP2 MSTORE PUSH1 0x4 DUP1 DUP11 MSTORE DUP14 DUP3 KECCAK256 SWAP13 MLOAD DUP14 SSTORE SWAP8 MLOAD DUP13 DUP5 ADD DUP1 SLOAD SWAP2 DUP14 AND PUSH1 0x1 PUSH1 0x1 PUSH1 0xA0 SHL SUB NOT SWAP3 DUP4 AND OR SWAP1 SSTORE SWAP7 MLOAD PUSH1 0x2 DUP14 ADD SSTORE SWAP5 MLOAD PUSH1 0x3 DUP13 ADD DUP1 SLOAD SWAP2 DUP13 AND SWAP2 SWAP1 SWAP8 AND OR SWAP1 SWAP6 SSTORE SWAP2 MLOAD SWAP5 DUP10 ADD SWAP5 SWAP1 SWAP5 SSTORE SWAP3 MLOAD PUSH1 0x5 SWAP8 DUP9 ADD DUP1 SLOAD SWAP4 MLOAD ISZERO ISZERO PUSH1 0x1 PUSH1 0xA0 SHL MUL PUSH1 0x1 PUSH1 0x1 PUSH1 0xA8 SHL SUB NOT SWAP1 SWAP5 AND SWAP2 SWAP1 SWAP8 AND OR SWAP2 SWAP1 SWAP2 OR SWAP1 SWAP5 SSTORE DUP3 DUP5 MSTORE SWAP4 DUP2 MSTORE DUP5 DUP4 KECCAK256 DUP13 DUP5 MSTORE SWAP1 MSTORE SWAP1 DUP4 SWAP1 KECCAK256 DUP1 SLOAD PUSH1 0xFF NOT AND SWAP1 SWAP3 OR SWAP1 SWAP2 SSTORE SWAP1 MLOAD SWAP2 SWAP3 POP DUP8 SWAP2 DUP4 SWAP1 PUSH32 0x18C93ADDAF4D0E5982A13CB88444441B90223974EAF9D6E898151CB4D96BF153 SWAP1 PUSH2 0x1703 SWAP1 DUP11 SWAP1 DUP11 SWAP1 PUSH1 0x1 PUSH1 0x1 PUSH1 0xA0 SHL SUB SWAP3 SWAP1 SWAP3 AND DUP3 MSTORE PUSH1 0x20 DUP3 ADD MSTORE PUSH1 0x40 ADD SWAP1 JUMP JUMPDEST PUSH1 0x40 MLOAD DUP1 SWAP2 SUB SWAP1 LOG4 SWAP7 SWAP6 POP POP POP POP POP POP JUMP JUMPDEST PUSH0 SLOAD PUSH1 0x1 PUSH1 0x1 PUSH1 0xA0 SHL SUB AND CALLER EQ PUSH2 0x8A1 JUMPI PUSH1 0x40 MLOAD PUSH4 0x118CDAA7 PUSH1 0xE0 SHL DUP2 MSTORE CALLER PUSH1 0x4 DUP3 ADD MSTORE PUSH1 0x24 ADD PUSH2 0x639 JUMP JUMPDEST PUSH2 0x1749 PUSH2 0x18BE JUMP JUMPDEST PUSH1 0x2 DUP1 SLOAD PUSH1 0xFF NOT AND SWAP1 SSTORE PUSH32 0x5DB9EE0A495BF2E6FF9C91A7834C1BA4FDD244A5E8AA4E537BD38AEAE4B073AA CALLER JUMPDEST PUSH1 0x40 MLOAD PUSH1 0x1 PUSH1 0x1 PUSH1 0xA0 SHL SUB SWAP1 SWAP2 AND DUP2 MSTORE PUSH1 0x20 ADD PUSH1 0x40 MLOAD DUP1 SWAP2 SUB SWAP1 LOG1 JUMP JUMPDEST PUSH1 0x2 PUSH1 0x1 SLOAD SUB PUSH2 0x17E5 JUMPI PUSH1 0x40 MLOAD PUSH3 0x461BCD PUSH1 0xE5 SHL DUP2 MSTORE PUSH1 0x20 PUSH1 0x4 DUP3 ADD MSTORE PUSH1 0x1F PUSH1 0x24 DUP3 ADD MSTORE PUSH32 0x5265656E7472616E637947756172643A207265656E7472616E742063616C6C00 PUSH1 0x44 DUP3 ADD MSTORE PUSH1 0x64 ADD PUSH2 0x639 JUMP JUMPDEST PUSH1 0x2 PUSH1 0x1 SSTORE JUMP JUMPDEST PUSH1 0x2 SLOAD PUSH1 0xFF AND ISZERO PUSH2 0x8A1 JUMPI PUSH1 0x40 MLOAD PUSH3 0x461BCD PUSH1 0xE5 SHL DUP2 MSTORE PUSH1 0x20 PUSH1 0x4 DUP3 ADD MSTORE PUSH1 0x10 PUSH1 0x24 DUP3 ADD MSTORE PUSH16 0x14185D5CD8589B194E881C185D5CD959 PUSH1 0x82 SHL PUSH1 0x44 DUP3 ADD MSTORE PUSH1 0x64 ADD PUSH2 0x639 JUMP JUMPDEST PUSH0 DUP1 SLOAD PUSH1 0x1 PUSH1 0x1 PUSH1 0xA0 SHL SUB DUP4 DUP2 AND PUSH1 0x1 PUSH1 0x1 PUSH1 0xA0 SHL SUB NOT DUP4 AND DUP2 OR DUP5 SSTORE PUSH1 0x40 MLOAD SWAP2 SWAP1 SWAP3 AND SWAP3 DUP4 SWAP2 PUSH32 0x8BE0079C531659141344CD1FD0A4F28419497F9722A3DAAFE3B4186F6B6457E0 SWAP2 SWAP1 LOG3 POP POP JUMP JUMPDEST PUSH2 0x1889 PUSH2 0x17EC JUMP JUMPDEST PUSH1 0x2 DUP1 SLOAD PUSH1 0xFF NOT AND PUSH1 0x1 OR SWAP1 SSTORE PUSH32 0x62E78CEA01BEE320CD4E420270B5EA74000D11B0C9F74754EBDBFC544B05A258 PUSH2 0x1776 CALLER SWAP1 JUMP JUMPDEST PUSH1 0x2 SLOAD PUSH1 0xFF AND PUSH2 0x8A1 JUMPI PUSH1 0x40 MLOAD PUSH3 0x461BCD PUSH1 0xE5 SHL DUP2 MSTORE PUSH1 0x20 PUSH1 0x4 DUP3 ADD MSTORE PUSH1 0x14 PUSH1 0x24 DUP3 ADD MSTORE PUSH20 0x14185D5CD8589B194E881B9BDD081C185D5CD959 PUSH1 0x62 SHL PUSH1 0x44 DUP3 ADD MSTORE PUSH1 0x64 ADD PUSH2 0x639 JUMP JUMPDEST PUSH1 0x1 PUSH1 0x1 PUSH1 0xA0 SHL SUB DUP2 AND DUP2 EQ PUSH2 0xBCA JUMPI PUSH0 DUP1 REVERT JUMPDEST PUSH0 DUP1 PUSH0 PUSH1 0x60 DUP5 DUP7 SUB SLT ISZERO PUSH2 0x192D JUMPI PUSH0 DUP1 REVERT JUMPDEST DUP4 CALLDATALOAD PUSH2 0x1938 DUP2 PUSH2 0x1907 JUMP JUMPDEST SWAP3 POP PUSH1 0x20 DUP5 ADD CALLDATALOAD SWAP2 POP PUSH1 0x40 DUP5 ADD CALLDATALOAD PUSH2 0x194F DUP2 PUSH2 0x1907 JUMP JUMPDEST DUP1 SWAP2 POP POP SWAP3 POP SWAP3 POP SWAP3 JUMP JUMPDEST PUSH0 DUP1 DUP4 PUSH1 0x1F DUP5 ADD SLT PUSH2 0x196A JUMPI PUSH0 DUP1 REVERT JUMPDEST POP DUP2 CALLDATALOAD PUSH8 0xFFFFFFFFFFFFFFFF DUP2 GT ISZERO PUSH2 0x1981 JUMPI PUSH0 DUP1 REVERT JUMPDEST PUSH1 0x20 DUP4 ADD SWAP2 POP DUP4 PUSH1 0x20 DUP3 PUSH1 0x5 SHL DUP6 ADD ADD GT ISZERO PUSH2 0x199B JUMPI PUSH0 DUP1 REVERT JUMPDEST SWAP3 POP SWAP3 SWAP1 POP JUMP JUMPDEST PUSH0 DUP1 PUSH1 0x20 DUP4 DUP6 SUB SLT ISZERO PUSH2 0x19B3 JUMPI PUSH0 DUP1 REVERT JUMPDEST DUP3 CALLDATALOAD PUSH8 0xFFFFFFFFFFFFFFFF DUP2 GT ISZERO PUSH2 0x19C9 JUMPI PUSH0 DUP1 REVERT JUMPDEST PUSH2 0x19D5 DUP6 DUP3 DUP7 ADD PUSH2 0x195A JUMP JUMPDEST SWAP1 SWAP7 SWAP1 SWAP6 POP SWAP4 POP POP POP POP JUMP JUMPDEST DUP1 MLOAD DUP3 MSTORE PUSH1 0x20 DUP2 ADD MLOAD PUSH1 0x1 DUP1 PUSH1 0xA0 SHL SUB DUP1 DUP3 AND PUSH1 0x20 DUP6 ADD MSTORE PUSH1 0x40 DUP4 ADD MLOAD PUSH1 0x40 DUP6 ADD MSTORE DUP1 PUSH1 0x60 DUP5 ADD MLOAD AND PUSH1 0x60 DUP6 ADD MSTORE PUSH1 0x80 DUP4 ADD MLOAD PUSH1 0x80 DUP6 ADD MSTORE DUP1 PUSH1 0xA0 DUP5 ADD MLOAD AND PUSH1 0xA0 DUP6 ADD MSTORE POP POP PUSH1 0xC0 DUP2 ADD MLOAD ISZERO ISZERO PUSH1 0xC0 DUP4 ADD MSTORE POP POP JUMP JUMPDEST PUSH1 0x20 DUP1 DUP3 MSTORE DUP3 MLOAD DUP3 DUP3 ADD DUP2 SWAP1 MSTORE PUSH0 SWAP2 SWAP1 DUP5 DUP3 ADD SWAP1 PUSH1 0x40 DUP6 ADD SWAP1 DUP5 JUMPDEST DUP2 DUP2 LT ISZERO PUSH2 0x1A78 JUMPI PUSH2 0x1A65 DUP4 DUP6 MLOAD PUSH2 0x19E1 JUMP JUMPDEST SWAP3 DUP5 ADD SWAP3 PUSH1 0xE0 SWAP3 SWAP1 SWAP3 ADD SWAP2 PUSH1 0x1 ADD PUSH2 0x1A52 JUMP JUMPDEST POP SWAP1 SWAP7 SWAP6 POP POP POP POP POP POP JUMP JUMPDEST PUSH0 DUP1 PUSH1 0x40 DUP4 DUP6 SUB SLT ISZERO PUSH2 0x1A95 JUMPI PUSH0 DUP1 REVERT JUMPDEST DUP3 CALLDATALOAD PUSH2 0x1AA0 DUP2 PUSH2 0x1907 JUMP JUMPDEST SWAP5 PUSH1 0x20 SWAP4 SWAP1 SWAP4 ADD CALLDATALOAD SWAP4 POP POP POP JUMP JUMPDEST PUSH0 PUSH1 0x20 DUP3 DUP5 SUB SLT ISZERO PUSH2 0x1ABE JUMPI PUSH0 DUP1 REVERT JUMPDEST POP CALLDATALOAD SWAP2 SWAP1 POP JUMP JUMPDEST PUSH1 0xE0 DUP2 ADD PUSH2 0x7F0 DUP3 DUP5 PUSH2 0x19E1 JUMP JUMPDEST PUSH0 DUP1 PUSH0 DUP1 PUSH0 PUSH1 0x80 DUP7 DUP9 SUB SLT ISZERO PUSH2 0x1AE7 JUMPI PUSH0 DUP1 REVERT JUMPDEST DUP6 CALLDATALOAD PUSH2 0x1AF2 DUP2 PUSH2 0x1907 JUMP JUMPDEST SWAP5 POP PUSH1 0x20 DUP7 ADD CALLDATALOAD PUSH2 0x1B02 DUP2 PUSH2 0x1907 JUMP JUMPDEST SWAP4 POP PUSH1 0x40 DUP7 ADD CALLDATALOAD SWAP3 POP PUSH1 0x60 DUP7 ADD CALLDATALOAD PUSH8 0xFFFFFFFFFFFFFFFF DUP1 DUP3 GT ISZERO PUSH2 0x1B25 JUMPI PUSH0 DUP1 REVERT JUMPDEST DUP2 DUP9 ADD SWAP2 POP DUP9 PUSH1 0x1F DUP4 ADD SLT PUSH2 0x1B38 JUMPI PUSH0 DUP1 REVERT JUMPDEST DUP2 CALLDATALOAD DUP2 DUP2 GT ISZERO PUSH2 0x1B46 JUMPI PUSH0 DUP1 REVERT JUMPDEST DUP10 PUSH1 0x20 DUP3 DUP6 ADD ADD GT ISZERO PUSH2 0x1B57 JUMPI PUSH0 DUP1 REVERT JUMPDEST SWAP7 SWAP10 SWAP6 SWAP9 POP SWAP4 SWAP7 POP PUSH1 0x20 ADD SWAP5 SWAP4 SWAP3 POP POP POP JUMP JUMPDEST PUSH0 PUSH1 0x20 DUP3 DUP5 SUB SLT ISZERO PUSH2 0x1B7A JUMPI PUSH0 DUP1 REVERT JUMPDEST DUP2 CALLDATALOAD PUSH2 0x1B85 DUP2 PUSH2 0x1907 JUMP JUMPDEST SWAP4 SWAP3 POP POP POP JUMP JUMPDEST PUSH0 DUP1 PUSH1 0x40 DUP4 DUP6 SUB SLT ISZERO PUSH2 0x1B9D JUMPI PUSH0 DUP1 REVERT JUMPDEST POP POP DUP1 CALLDATALOAD SWAP3 PUSH1 0x20 SWAP1 SWAP2 ADD CALLDATALOAD SWAP2 POP JUMP JUMPDEST PUSH0 DUP1 PUSH0 DUP1 PUSH0 DUP1 PUSH0 DUP1 PUSH1 0x80 DUP10 DUP12 SUB SLT ISZERO PUSH2 0x1BC3 JUMPI PUSH0 DUP1 REVERT JUMPDEST DUP9 CALLDATALOAD PUSH8 0xFFFFFFFFFFFFFFFF DUP1 DUP3 GT ISZERO PUSH2 0x1BDA JUMPI PUSH0 DUP1 REVERT JUMPDEST PUSH2 0x1BE6 DUP13 DUP4 DUP14 ADD PUSH2 0x195A JUMP JUMPDEST SWAP1 SWAP11 POP SWAP9 POP PUSH1 0x20 DUP12 ADD CALLDATALOAD SWAP2 POP DUP1 DUP3 GT ISZERO PUSH2 0x1BFE JUMPI PUSH0 DUP1 REVERT JUMPDEST PUSH2 0x1C0A DUP13 DUP4 DUP14 ADD PUSH2 0x195A JUMP JUMPDEST SWAP1 SWAP9 POP SWAP7 POP PUSH1 0x40 DUP12 ADD CALLDATALOAD SWAP2 POP DUP1 DUP3 GT ISZERO PUSH2 0x1C22 JUMPI PUSH0 DUP1 REVERT JUMPDEST PUSH2 0x1C2E DUP13 DUP4 DUP14 ADD PUSH2 0x195A JUMP JUMPDEST SWAP1 SWAP7 POP SWAP5 POP PUSH1 0x60 DUP12 ADD CALLDATALOAD SWAP2 POP DUP1 DUP3 GT ISZERO PUSH2 0x1C46 JUMPI PUSH0 DUP1 REVERT JUMPDEST POP PUSH2 0x1C53 DUP12 DUP3 DUP13 ADD PUSH2 0x195A JUMP JUMPDEST SWAP10 SWAP13 SWAP9 SWAP12 POP SWAP7 SWAP10 POP SWAP5 SWAP8 SWAP4 SWAP7 SWAP3 SWAP6 SWAP5 POP POP POP JUMP JUMPDEST PUSH1 0x20 DUP1 DUP3 MSTORE DUP3 MLOAD DUP3 DUP3 ADD DUP2 SWAP1 MSTORE PUSH0 SWAP2 SWAP1 DUP5 DUP3 ADD SWAP1 PUSH1 0x40 DUP6 ADD SWAP1 DUP5 JUMPDEST DUP2 DUP2 LT ISZERO PUSH2 0x1A78 JUMPI DUP4 MLOAD DUP4 MSTORE SWAP3 DUP5 ADD SWAP3 SWAP2 DUP5 ADD SWAP2 PUSH1 0x1 ADD PUSH2 0x1C82 JUMP JUMPDEST PUSH0 DUP1 PUSH0 DUP1 PUSH1 0x80 DUP6 DUP8 SUB SLT ISZERO PUSH2 0x1CB1 JUMPI PUSH0 DUP1 REVERT JUMPDEST DUP5 CALLDATALOAD PUSH2 0x1CBC DUP2 PUSH2 0x1907 JUMP JUMPDEST SWAP4 POP PUSH1 0x20 DUP6 ADD CALLDATALOAD SWAP3 POP PUSH1 0x40 DUP6 ADD CALLDATALOAD PUSH2 0x1CD3 DUP2 PUSH2 0x1907 JUMP JUMPDEST SWAP4 SWAP7 SWAP3 SWAP6 POP SWAP3 SWAP4 PUSH1 0x60 ADD CALLDATALOAD SWAP3 POP POP JUMP JUMPDEST PUSH1 0x1 PUSH1 0x1 PUSH1 0xA0 SHL SUB SWAP4 DUP5 AND DUP2 MSTORE SWAP2 SWAP1 SWAP3 AND PUSH1 0x20 DUP3 ADD MSTORE PUSH1 0x40 DUP2 ADD SWAP2 SWAP1 SWAP2 MSTORE PUSH1 0x60 ADD SWAP1 JUMP JUMPDEST PUSH4 0x4E487B71 PUSH1 0xE0 SHL PUSH0 MSTORE PUSH1 0x41 PUSH1 0x4 MSTORE PUSH1 0x24 PUSH0 REVERT JUMPDEST PUSH4 0x4E487B71 PUSH1 0xE0 SHL PUSH0 MSTORE PUSH1 0x32 PUSH1 0x4 MSTORE PUSH1 0x24 PUSH0 REVERT JUMPDEST PUSH0 PUSH1 0x20 DUP3 DUP5 SUB SLT ISZERO PUSH2 0x1D3F JUMPI PUSH0 DUP1 REVERT JUMPDEST DUP2 MLOAD DUP1 ISZERO ISZERO DUP2 EQ PUSH2 0x1B85 JUMPI PUSH0 DUP1 REVERT JUMPDEST PUSH1 0x20 DUP1 DUP3 MSTORE PUSH1 0x12 SWAP1 DUP3 ADD MSTORE PUSH18 0x4C697374696E67206E6F7420616374697665 PUSH1 0x70 SHL PUSH1 0x40 DUP3 ADD MSTORE PUSH1 0x60 ADD SWAP1 JUMP JUMPDEST PUSH1 0x20 DUP1 DUP3 MSTORE PUSH1 0x17 SWAP1 DUP3 ADD MSTORE PUSH32 0x5061796D656E74207472616E73666572206661696C6564000000000000000000 PUSH1 0x40 DUP3 ADD MSTORE PUSH1 0x60 ADD SWAP1 JUMP JUMPDEST PUSH4 0x4E487B71 PUSH1 0xE0 SHL PUSH0 MSTORE PUSH1 0x11 PUSH1 0x4 MSTORE PUSH1 0x24 PUSH0 REVERT JUMPDEST DUP1 DUP3 ADD DUP1 DUP3 GT ISZERO PUSH2 0x7F0 JUMPI PUSH2 0x7F0 PUSH2 0x1DB1 JUMP JUMPDEST PUSH0 PUSH1 0x20 DUP3 DUP5 SUB SLT ISZERO PUSH2 0x1DE8 JUMPI PUSH0 DUP1 REVERT JUMPDEST POP MLOAD SWAP2 SWAP1 POP JUMP JUMPDEST PUSH0 PUSH1 0x20 DUP3 DUP5 SUB SLT ISZERO PUSH2 0x1DFF JUMPI PUSH0 DUP1 REVERT JUMPDEST DUP2 MLOAD PUSH2 0x1B85 DUP2 PUSH2 0x1907 JUMP JUMPDEST PUSH0 PUSH1 0x1 DUP3 ADD PUSH2 0x1E1B JUMPI PUSH2 0x1E1B PUSH2 0x1DB1 JUMP JUMPDEST POP PUSH1 0x1 ADD SWAP1 JUMP INVALID LOG2 PUSH5 0x6970667358 0x22 SLT KECCAK256 MCOPY BLOBBASEFEE SAR PUSH15 0x6206DC35E1944929194E4F146CDA03 0xDC SIGNEXTEND SWAP7 GT EXP ISZERO CODESIZE PUSH18 0x9056C6364864736F6C634300081900330000 "
				},
				"gasEstimates": {
					"creation": {
						"codeDepositCost": "1553600",
						"executionCost": "infinite",
						"totalCost": "infinite"
					},
					"external": {
						"batchBuyNFTs(uint256[])": "infinite",
						"batchListNFTs(address[],uint256[],address[],uint256[])": "infinite",
						"buyNFT(uint256)": "infinite",
						"delistNFT(uint256)": "63680",
						"getListing(uint256)": "13740",
						"getListingCounter()": "2369",
						"getListings(uint256[])": "infinite",
						"isListed(address,uint256)": "2637",
						"isNFTListed(address,uint256)": "2771",
						"listNFT(address,uint256,address,uint256)": "infinite",
						"listings(uint256)": "13269",
						"onERC721Received(address,address,uint256,bytes)": "infinite",
						"owner()": "2440",
						"pause()": "infinite",
						"paused()": "2381",
						"renounceOwnership()": "infinite",
						"transferOwnership(address)": "infinite",
						"treasury()": "2458",
						"unpause()": "infinite",
						"updatePrice(uint256,uint256)": "30630",
						"updateTreasury(address)": "28339",
						"withdrawNFT(address,uint256,address)": "infinite",
						"withdrawTokens(address,uint256)": "infinite"
					}
				},
				"methodIdentifiers": {
					"batchBuyNFTs(uint256[])": "5a281245",
					"batchListNFTs(address[],uint256[],address[],uint256[])": "f6eb46ac",
					"buyNFT(uint256)": "51ed8288",
					"delistNFT(uint256)": "cb917b9c",
					"getListing(uint256)": "107a274a",
					"getListingCounter()": "88b59fa1",
					"getListings(uint256[])": "0373c0bf",
					"isListed(address,uint256)": "cdb3cd25",
					"isNFTListed(address,uint256)": "fab25bb2",
					"listNFT(address,uint256,address,uint256)": "f7adbbc9",
					"listings(uint256)": "de74e57b",
					"onERC721Received(address,address,uint256,bytes)": "150b7a02",
					"owner()": "8da5cb5b",
					"pause()": "8456cb59",
					"paused()": "5c975abb",
					"renounceOwnership()": "715018a6",
					"transferOwnership(address)": "f2fde38b",
					"treasury()": "61d027b3",
					"unpause()": "3f4ba83a",
					"updatePrice(uint256,uint256)": "82367b2d",
					"updateTreasury(address)": "7f51bb1f",
					"withdrawNFT(address,uint256,address)": "00f2a6ab",
					"withdrawTokens(address,uint256)": "06b091f9"
				}
			},
			"storageLayout": {
				"storage": [
					{
						"astId": 8,
						"contract": "Marketplace.sol:GameNFTShop",
						"label": "_owner",
						"offset": 0,
						"slot": "0",
						"type": "t_address"
					},
					{
						"astId": 266,
						"contract": "Marketplace.sol:GameNFTShop",
						"label": "_status",
						"offset": 0,
						"slot": "1",
						"type": "t_uint256"
					},
					{
						"astId": 165,
						"contract": "Marketplace.sol:GameNFTShop",
						"label": "_paused",
						"offset": 0,
						"slot": "2",
						"type": "t_bool"
					},
					{
						"astId": 574,
						"contract": "Marketplace.sol:GameNFTShop",
						"label": "treasury",
						"offset": 1,
						"slot": "2",
						"type": "t_address"
					},
					{
						"astId": 577,
						"contract": "Marketplace.sol:GameNFTShop",
						"label": "_listingIdCounter",
						"offset": 0,
						"slot": "3",
						"type": "t_uint256"
					},
					{
						"astId": 583,
						"contract": "Marketplace.sol:GameNFTShop",
						"label": "listings",
						"offset": 0,
						"slot": "4",
						"type": "t_mapping(t_uint256,t_struct(Listing)605_storage)"
					},
					{
						"astId": 590,
						"contract": "Marketplace.sol:GameNFTShop",
						"label": "isListed",
						"offset": 0,
						"slot": "5",
						"type": "t_mapping(t_address,t_mapping(t_uint256,t_bool))"
					}
				],
				"types": {
					"t_address": {
						"encoding": "inplace",
						"label": "address",
						"numberOfBytes": "20"
					},
					"t_bool": {
						"encoding": "inplace",
						"label": "bool",
						"numberOfBytes": "1"
					},
					"t_mapping(t_address,t_mapping(t_uint256,t_bool))": {
						"encoding": "mapping",
						"key": "t_address",
						"label": "mapping(address => mapping(uint256 => bool))",
						"numberOfBytes": "32",
						"value": "t_mapping(t_uint256,t_bool)"
					},
					"t_mapping(t_uint256,t_bool)": {
						"encoding": "mapping",
						"key": "t_uint256",
						"label": "mapping(uint256 => bool)",
						"numberOfBytes": "32",
						"value": "t_bool"
					},
					"t_mapping(t_uint256,t_struct(Listing)605_storage)": {
						"encoding": "mapping",
						"key": "t_uint256",
						"label": "mapping(uint256 => struct GameNFTShop.Listing)",
						"numberOfBytes": "32",
						"value": "t_struct(Listing)605_storage"
					},
					"t_struct(Listing)605_storage": {
						"encoding": "inplace",
						"label": "struct GameNFTShop.Listing",
						"members": [
							{
								"astId": 592,
								"contract": "Marketplace.sol:GameNFTShop",
								"label": "listingId",
								"offset": 0,
								"slot": "0",
								"type": "t_uint256"
							},
							{
								"astId": 594,
								"contract": "Marketplace.sol:GameNFTShop",
								"label": "nftContract",
								"offset": 0,
								"slot": "1",
								"type": "t_address"
							},
							{
								"astId": 596,
								"contract": "Marketplace.sol:GameNFTShop",
								"label": "tokenId",
								"offset": 0,
								"slot": "2",
								"type": "t_uint256"
							},
							{
								"astId": 598,
								"contract": "Marketplace.sol:GameNFTShop",
								"label": "paymentToken",
								"offset": 0,
								"slot": "3",
								"type": "t_address"
							},
							{
								"astId": 600,
								"contract": "Marketplace.sol:GameNFTShop",
								"label": "price",
								"offset": 0,
								"slot": "4",
								"type": "t_uint256"
							},
							{
								"astId": 602,
								"contract": "Marketplace.sol:GameNFTShop",
								"label": "seller",
								"offset": 0,
								"slot": "5",
								"type": "t_address"
							},
							{
								"astId": 604,
								"contract": "Marketplace.sol:GameNFTShop",
								"label": "isActive",
								"offset": 20,
								"slot": "5",
								"type": "t_bool"
							}
						],
						"numberOfBytes": "192"
					},
					"t_uint256": {
						"encoding": "inplace",
						"label": "uint256",
						"numberOfBytes": "32"
					}
				}
			},
			"userdoc": {
				"kind": "user",
				"methods": {
					"batchBuyNFTs(uint256[])": {
						"notice": "Buy multiple NFTs in one transaction"
					},
					"batchListNFTs(address[],uint256[],address[],uint256[])": {
						"notice": "List multiple NFTs at once"
					},
					"buyNFT(uint256)": {
						"notice": "Buy an NFT from the shop"
					},
					"delistNFT(uint256)": {
						"notice": "Remove an NFT from sale"
					},
					"getListing(uint256)": {
						"notice": "Get full details of a listing"
					},
					"getListingCounter()": {
						"notice": "Get current listing counter"
					},
					"getListings(uint256[])": {
						"notice": "Get multiple listings at once"
					},
					"isListed(address,uint256)": {
						"notice": "Mapping to check if an NFT is currently listed"
					},
					"isNFTListed(address,uint256)": {
						"notice": "Check if a specific NFT is listed"
					},
					"listNFT(address,uint256,address,uint256)": {
						"notice": "List an NFT for sale (Only owner can list)"
					},
					"listings(uint256)": {
						"notice": "Mapping from listing ID to Listing details"
					},
					"pause()": {
						"notice": "Pause the contract"
					},
					"treasury()": {
						"notice": "Treasury address where all payments go"
					},
					"unpause()": {
						"notice": "Unpause the contract"
					},
					"updatePrice(uint256,uint256)": {
						"notice": "Update price of a listed NFT"
					},
					"updateTreasury(address)": {
						"notice": "Update treasury address"
					},
					"withdrawNFT(address,uint256,address)": {
						"notice": "Withdraw NFT from shop (if not listed or after delisting)"
					},
					"withdrawTokens(address,uint256)": {
						"notice": "Emergency withdraw ERC20 tokens"
					}
				},
				"notice": "Simple NFT marketplace where ONLY the game owner can list NFTs for sale",
				"version": 1
			}
		}
	}
}