{
	"BidMarketplace.sol": {
		"PackripprMarketplace": {
			"abi": [
				{
					"inputs": [
						{
							"internalType": "address",
							"name": "_feeRecipient",
							"type": "address"
						},
						{
							"internalType": "address",
							"name": "_initialOwner",
							"type": "address"
						}
					],
					"stateMutability": "nonpayable",
					"type": "constructor"
				},
				{
					"inputs": [
						{
							"internalType": "address",
							"name": "owner",
							"type": "address"
						}
					],
					"name": "OwnableInvalidOwner",
					"type": "error"
				},
				{
					"inputs": [
						{
							"internalType": "address",
							"name": "account",
							"type": "address"
						}
					],
					"name": "OwnableUnauthorizedAccount",
					"type": "error"
				},
				{
					"anonymous": false,
					"inputs": [
						{
							"indexed": false,
							"internalType": "uint256",
							"name": "newFeePercent",
							"type": "uint256"
						}
					],
					"name": "FeePercentUpdated",
					"type": "event"
				},
				{
					"anonymous": false,
					"inputs": [
						{
							"indexed": false,
							"internalType": "address",
							"name": "newFeeRecipient",
							"type": "address"
						}
					],
					"name": "FeeRecipientUpdated",
					"type": "event"
				},
				{
					"anonymous": false,
					"inputs": [
						{
							"indexed": true,
							"internalType": "uint256",
							"name": "listingId",
							"type": "uint256"
						},
						{
							"indexed": true,
							"internalType": "address",
							"name": "seller",
							"type": "address"
						},
						{
							"indexed": true,
							"internalType": "address",
							"name": "nftContract",
							"type": "address"
						},
						{
							"indexed": false,
							"internalType": "uint256",
							"name": "tokenId",
							"type": "uint256"
						},
						{
							"indexed": false,
							"internalType": "address",
							"name": "paymentToken",
							"type": "address"
						},
						{
							"indexed": false,
							"internalType": "uint256",
							"name": "price",
							"type": "uint256"
						}
					],
					"name": "Listed",
					"type": "event"
				},
				{
					"anonymous": false,
					"inputs": [
						{
							"indexed": true,
							"internalType": "uint256",
							"name": "listingId",
							"type": "uint256"
						}
					],
					"name": "ListingCancelled",
					"type": "event"
				},
				{
					"anonymous": false,
					"inputs": [
						{
							"indexed": true,
							"internalType": "uint256",
							"name": "listingId",
							"type": "uint256"
						},
						{
							"indexed": false,
							"internalType": "uint256",
							"name": "newPrice",
							"type": "uint256"
						}
					],
					"name": "ListingUpdated",
					"type": "event"
				},
				{
					"anonymous": false,
					"inputs": [
						{
							"indexed": true,
							"internalType": "uint256",
							"name": "offerId",
							"type": "uint256"
						},
						{
							"indexed": true,
							"internalType": "address",
							"name": "seller",
							"type": "address"
						},
						{
							"indexed": true,
							"internalType": "address",
							"name": "buyer",
							"type": "address"
						},
						{
							"indexed": false,
							"internalType": "address",
							"name": "nftContract",
							"type": "address"
						},
						{
							"indexed": false,
							"internalType": "uint256",
							"name": "tokenId",
							"type": "uint256"
						},
						{
							"indexed": false,
							"internalType": "uint256",
							"name": "price",
							"type": "uint256"
						}
					],
					"name": "OfferAccepted",
					"type": "event"
				},
				{
					"anonymous": false,
					"inputs": [
						{
							"indexed": true,
							"internalType": "uint256",
							"name": "offerId",
							"type": "uint256"
						}
					],
					"name": "OfferCancelled",
					"type": "event"
				},
				{
					"anonymous": false,
					"inputs": [
						{
							"indexed": true,
							"internalType": "uint256",
							"name": "offerId",
							"type": "uint256"
						},
						{
							"indexed": true,
							"internalType": "address",
							"name": "buyer",
							"type": "address"
						},
						{
							"indexed": true,
							"internalType": "address",
							"name": "nftContract",
							"type": "address"
						},
						{
							"indexed": false,
							"internalType": "uint256",
							"name": "tokenId",
							"type": "uint256"
						},
						{
							"indexed": false,
							"internalType": "address",
							"name": "paymentToken",
							"type": "address"
						},
						{
							"indexed": false,
							"internalType": "uint256",
							"name": "price",
							"type": "uint256"
						},
						{
							"indexed": false,
							"internalType": "uint256",
							"name": "expiresAt",
							"type": "uint256"
						}
					],
					"name": "OfferCreated",
					"type": "event"
				},
				{
					"anonymous": false,
					"inputs": [
						{
							"indexed": true,
							"internalType": "address",
							"name": "previousOwner",
							"type": "address"
						},
						{
							"indexed": true,
							"internalType": "address",
							"name": "newOwner",
							"type": "address"
						}
					],
					"name": "OwnershipTransferred",
					"type": "event"
				},
				{
					"anonymous": false,
					"inputs": [
						{
							"indexed": false,
							"internalType": "address",
							"name": "token",
							"type": "address"
						},
						{
							"indexed": false,
							"internalType": "bool",
							"name": "allowed",
							"type": "bool"
						}
					],
					"name": "PaymentTokenUpdated",
					"type": "event"
				},
				{
					"anonymous": false,
					"inputs": [
						{
							"indexed": true,
							"internalType": "uint256",
							"name": "listingId",
							"type": "uint256"
						},
						{
							"indexed": true,
							"internalType": "address",
							"name": "buyer",
							"type": "address"
						},
						{
							"indexed": true,
							"internalType": "address",
							"name": "seller",
							"type": "address"
						},
						{
							"indexed": false,
							"internalType": "address",
							"name": "nftContract",
							"type": "address"
						},
						{
							"indexed": false,
							"internalType": "uint256",
							"name": "tokenId",
							"type": "uint256"
						},
						{
							"indexed": false,
							"internalType": "uint256",
							"name": "price",
							"type": "uint256"
						}
					],
					"name": "Sold",
					"type": "event"
				},
				{
					"inputs": [],
					"name": "FEE_DENOMINATOR",
					"outputs": [
						{
							"internalType": "uint256",
							"name": "",
							"type": "uint256"
						}
					],
					"stateMutability": "view",
					"type": "function"
				},
				{
					"inputs": [
						{
							"internalType": "uint256",
							"name": "offerId",
							"type": "uint256"
						}
					],
					"name": "acceptOffer",
					"outputs": [],
					"stateMutability": "nonpayable",
					"type": "function"
				},
				{
					"inputs": [
						{
							"internalType": "address",
							"name": "",
							"type": "address"
						}
					],
					"name": "allowedPaymentTokens",
					"outputs": [
						{
							"internalType": "bool",
							"name": "",
							"type": "bool"
						}
					],
					"stateMutability": "view",
					"type": "function"
				},
				{
					"inputs": [
						{
							"internalType": "address[]",
							"name": "nftContracts",
							"type": "address[]"
						},
						{
							"internalType": "uint256[]",
							"name": "tokenIds",
							"type": "uint256[]"
						},
						{
							"internalType": "address[]",
							"name": "paymentTokens",
							"type": "address[]"
						},
						{
							"internalType": "uint256[]",
							"name": "prices",
							"type": "uint256[]"
						}
					],
					"name": "batchListNFTs",
					"outputs": [],
					"stateMutability": "nonpayable",
					"type": "function"
				},
				{
					"inputs": [
						{
							"internalType": "uint256",
							"name": "listingId",
							"type": "uint256"
						}
					],
					"name": "buyListing",
					"outputs": [],
					"stateMutability": "payable",
					"type": "function"
				},
				{
					"inputs": [
						{
							"internalType": "uint256",
							"name": "listingId",
							"type": "uint256"
						}
					],
					"name": "cancelListing",
					"outputs": [],
					"stateMutability": "nonpayable",
					"type": "function"
				},
				{
					"inputs": [
						{
							"internalType": "uint256",
							"name": "offerId",
							"type": "uint256"
						}
					],
					"name": "cancelOffer",
					"outputs": [],
					"stateMutability": "nonpayable",
					"type": "function"
				},
				{
					"inputs": [
						{
							"internalType": "address",
							"name": "nftContract",
							"type": "address"
						},
						{
							"internalType": "uint256",
							"name": "tokenId",
							"type": "uint256"
						},
						{
							"internalType": "address",
							"name": "paymentToken",
							"type": "address"
						},
						{
							"internalType": "uint256",
							"name": "price",
							"type": "uint256"
						}
					],
					"name": "createListing",
					"outputs": [
						{
							"internalType": "uint256",
							"name": "",
							"type": "uint256"
						}
					],
					"stateMutability": "nonpayable",
					"type": "function"
				},
				{
					"inputs": [
						{
							"internalType": "address",
							"name": "nftContract",
							"type": "address"
						},
						{
							"internalType": "uint256",
							"name": "tokenId",
							"type": "uint256"
						},
						{
							"internalType": "address",
							"name": "paymentToken",
							"type": "address"
						},
						{
							"internalType": "uint256",
							"name": "price",
							"type": "uint256"
						},
						{
							"internalType": "uint256",
							"name": "duration",
							"type": "uint256"
						}
					],
					"name": "createOffer",
					"outputs": [
						{
							"internalType": "uint256",
							"name": "",
							"type": "uint256"
						}
					],
					"stateMutability": "nonpayable",
					"type": "function"
				},
				{
					"inputs": [],
					"name": "feePercent",
					"outputs": [
						{
							"internalType": "uint256",
							"name": "",
							"type": "uint256"
						}
					],
					"stateMutability": "view",
					"type": "function"
				},
				{
					"inputs": [],
					"name": "feeRecipient",
					"outputs": [
						{
							"internalType": "address",
							"name": "",
							"type": "address"
						}
					],
					"stateMutability": "view",
					"type": "function"
				},
				{
					"inputs": [
						{
							"internalType": "uint256",
							"name": "listingId",
							"type": "uint256"
						}
					],
					"name": "getListing",
					"outputs": [
						{
							"components": [
								{
									"internalType": "address",
									"name": "seller",
									"type": "address"
								},
								{
									"internalType": "address",
									"name": "nftContract",
									"type": "address"
								},
								{
									"internalType": "uint256",
									"name": "tokenId",
									"type": "uint256"
								},
								{
									"internalType": "address",
									"name": "paymentToken",
									"type": "address"
								},
								{
									"internalType": "uint256",
									"name": "price",
									"type": "uint256"
								},
								{
									"internalType": "bool",
									"name": "active",
									"type": "bool"
								}
							],
							"internalType": "struct PackripprMarketplace.Listing",
							"name": "",
							"type": "tuple"
						}
					],
					"stateMutability": "view",
					"type": "function"
				},
				{
					"inputs": [
						{
							"internalType": "address",
							"name": "nftContract",
							"type": "address"
						},
						{
							"internalType": "uint256",
							"name": "tokenId",
							"type": "uint256"
						}
					],
					"name": "getListingByToken",
					"outputs": [
						{
							"internalType": "uint256",
							"name": "",
							"type": "uint256"
						}
					],
					"stateMutability": "view",
					"type": "function"
				},
				{
					"inputs": [
						{
							"internalType": "uint256",
							"name": "offerId",
							"type": "uint256"
						}
					],
					"name": "getOffer",
					"outputs": [
						{
							"components": [
								{
									"internalType": "address",
									"name": "buyer",
									"type": "address"
								},
								{
									"internalType": "address",
									"name": "nftContract",
									"type": "address"
								},
								{
									"internalType": "uint256",
									"name": "tokenId",
									"type": "uint256"
								},
								{
									"internalType": "address",
									"name": "paymentToken",
									"type": "address"
								},
								{
									"internalType": "uint256",
									"name": "price",
									"type": "uint256"
								},
								{
									"internalType": "uint256",
									"name": "expiresAt",
									"type": "uint256"
								},
								{
									"internalType": "bool",
									"name": "active",
									"type": "bool"
								}
							],
							"internalType": "struct PackripprMarketplace.Offer",
							"name": "",
							"type": "tuple"
						}
					],
					"stateMutability": "view",
					"type": "function"
				},
				{
					"inputs": [
						{
							"internalType": "address",
							"name": "nftContract",
							"type": "address"
						},
						{
							"internalType": "uint256",
							"name": "tokenId",
							"type": "uint256"
						}
					],
					"name": "isListed",
					"outputs": [
						{
							"internalType": "bool",
							"name": "",
							"type": "bool"
						}
					],
					"stateMutability": "view",
					"type": "function"
				},
				{
					"inputs": [
						{
							"internalType": "uint256",
							"name": "",
							"type": "uint256"
						}
					],
					"name": "listings",
					"outputs": [
						{
							"internalType": "address",
							"name": "seller",
							"type": "address"
						},
						{
							"internalType": "address",
							"name": "nftContract",
							"type": "address"
						},
						{
							"internalType": "uint256",
							"name": "tokenId",
							"type": "uint256"
						},
						{
							"internalType": "address",
							"name": "paymentToken",
							"type": "address"
						},
						{
							"internalType": "uint256",
							"name": "price",
							"type": "uint256"
						},
						{
							"internalType": "bool",
							"name": "active",
							"type": "bool"
						}
					],
					"stateMutability": "view",
					"type": "function"
				},
				{
					"inputs": [],
					"name": "nextListingId",
					"outputs": [
						{
							"internalType": "uint256",
							"name": "",
							"type": "uint256"
						}
					],
					"stateMutability": "view",
					"type": "function"
				},
				{
					"inputs": [],
					"name": "nextOfferId",
					"outputs": [
						{
							"internalType": "uint256",
							"name": "",
							"type": "uint256"
						}
					],
					"stateMutability": "view",
					"type": "function"
				},
				{
					"inputs": [
						{
							"internalType": "uint256",
							"name": "",
							"type": "uint256"
						}
					],
					"name": "offers",
					"outputs": [
						{
							"internalType": "address",
							"name": "buyer",
							"type": "address"
						},
						{
							"internalType": "address",
							"name": "nftContract",
							"type": "address"
						},
						{
							"internalType": "uint256",
							"name": "tokenId",
							"type": "uint256"
						},
						{
							"internalType": "address",
							"name": "paymentToken",
							"type": "address"
						},
						{
							"internalType": "uint256",
							"name": "price",
							"type": "uint256"
						},
						{
							"internalType": "uint256",
							"name": "expiresAt",
							"type": "uint256"
						},
						{
							"internalType": "bool",
							"name": "active",
							"type": "bool"
						}
					],
					"stateMutability": "view",
					"type": "function"
				},
				{
					"inputs": [
						{
							"internalType": "address",
							"name": "",
							"type": "address"
						},
						{
							"internalType": "address",
							"name": "",
							"type": "address"
						},
						{
							"internalType": "uint256",
							"name": "",
							"type": "uint256"
						},
						{
							"internalType": "bytes",
							"name": "",
							"type": "bytes"
						}
					],
					"name": "onERC721Received",
					"outputs": [
						{
							"internalType": "bytes4",
							"name": "",
							"type": "bytes4"
						}
					],
					"stateMutability": "pure",
					"type": "function"
				},
				{
					"inputs": [],
					"name": "owner",
					"outputs": [
						{
							"internalType": "address",
							"name": "",
							"type": "address"
						}
					],
					"stateMutability": "view",
					"type": "function"
				},
				{
					"inputs": [],
					"name": "renounceOwnership",
					"outputs": [],
					"stateMutability": "nonpayable",
					"type": "function"
				},
				{
					"inputs": [
						{
							"internalType": "address",
							"name": "token",
							"type": "address"
						},
						{
							"internalType": "bool",
							"name": "allowed",
							"type": "bool"
						}
					],
					"name": "setAllowedPaymentToken",
					"outputs": [],
					"stateMutability": "nonpayable",
					"type": "function"
				},
				{
					"inputs": [
						{
							"internalType": "uint256",
							"name": "newFeePercent",
							"type": "uint256"
						}
					],
					"name": "setFeePercent",
					"outputs": [],
					"stateMutability": "nonpayable",
					"type": "function"
				},
				{
					"inputs": [
						{
							"internalType": "address",
							"name": "newFeeRecipient",
							"type": "address"
						}
					],
					"name": "setFeeRecipient",
					"outputs": [],
					"stateMutability": "nonpayable",
					"type": "function"
				},
				{
					"inputs": [
						{
							"internalType": "address",
							"name": "",
							"type": "address"
						},
						{
							"internalType": "uint256",
							"name": "",
							"type": "uint256"
						}
					],
					"name": "tokenToListing",
					"outputs": [
						{
							"internalType": "uint256",
							"name": "",
							"type": "uint256"
						}
					],
					"stateMutability": "view",
					"type": "function"
				},
				{
					"inputs": [
						{
							"internalType": "address",
							"name": "newOwner",
							"type": "address"
						}
					],
					"name": "transferOwnership",
					"outputs": [],
					"stateMutability": "nonpayable",
					"type": "function"
				},
				{
					"inputs": [
						{
							"internalType": "uint256",
							"name": "listingId",
							"type": "uint256"
						},
						{
							"internalType": "uint256",
							"name": "newPrice",
							"type": "uint256"
						}
					],
					"name": "updateListingPrice",
					"outputs": [],
					"stateMutability": "nonpayable",
					"type": "function"
				}
			],
			"devdoc": {
				"details": "Supports both instant buy listings and offers (bids)",
				"errors": {
					"OwnableInvalidOwner(address)": [
						{
							"details": "The owner is not a valid owner account. (eg. `address(0)`)"
						}
					],
					"OwnableUnauthorizedAccount(address)": [
						{
							"details": "The caller account is not authorized to perform an operation."
						}
					]
				},
				"kind": "dev",
				"methods": {
					"acceptOffer(uint256)": {
						"params": {
							"offerId": "ID of the offer to accept"
						}
					},
					"buyListing(uint256)": {
						"params": {
							"listingId": "ID of the listing to buy"
						}
					},
					"cancelListing(uint256)": {
						"params": {
							"listingId": "ID of the listing to cancel"
						}
					},
					"cancelOffer(uint256)": {
						"params": {
							"offerId": "ID of the offer to cancel"
						}
					},
					"createListing(address,uint256,address,uint256)": {
						"params": {
							"nftContract": "Address of the NFT contract",
							"paymentToken": "Address of payment token (address(0) for native)",
							"price": "Listing price",
							"tokenId": "Token ID to list"
						}
					},
					"createOffer(address,uint256,address,uint256,uint256)": {
						"params": {
							"duration": "How long the offer is valid (in seconds)",
							"nftContract": "Address of the NFT contract",
							"paymentToken": "Address of payment token (must be ERC20, not native)",
							"price": "Offer price",
							"tokenId": "Token ID to make offer for"
						}
					},
					"getListing(uint256)": {
						"params": {
							"listingId": "Listing ID"
						}
					},
					"getListingByToken(address,uint256)": {
						"params": {
							"nftContract": "NFT contract address",
							"tokenId": "Token ID"
						}
					},
					"getOffer(uint256)": {
						"params": {
							"offerId": "Offer ID"
						}
					},
					"isListed(address,uint256)": {
						"params": {
							"nftContract": "NFT contract address",
							"tokenId": "Token ID"
						}
					},
					"owner()": {
						"details": "Returns the address of the current owner."
					},
					"renounceOwnership()": {
						"details": "Leaves the contract without owner. It will not be possible to call `onlyOwner` functions. Can only be called by the current owner. NOTE: Renouncing ownership will leave the contract without an owner, thereby disabling any functionality that is only available to the owner."
					},
					"setAllowedPaymentToken(address,bool)": {
						"params": {
							"allowed": "Whether the token is allowed",
							"token": "Token address (address(0) for native)"
						}
					},
					"setFeePercent(uint256)": {
						"params": {
							"newFeePercent": "New fee in basis points (250 = 2.5%)"
						}
					},
					"setFeeRecipient(address)": {
						"params": {
							"newFeeRecipient": "New fee recipient"
						}
					},
					"transferOwnership(address)": {
						"details": "Transfers ownership of the contract to a new account (`newOwner`). Can only be called by the current owner."
					},
					"updateListingPrice(uint256,uint256)": {
						"params": {
							"listingId": "ID of the listing",
							"newPrice": "New price"
						}
					}
				},
				"title": "PackripprMarketplace",
				"version": 1
			},
			"evm": {
				"assembly": "    /* \"BidMarketplace.sol\":465:17571  contract PackripprMarketplace is ReentrancyGuard, Ownable {... */\n  mstore(0x40, 0x80)\n    /* \"BidMarketplace.sol\":1475:1478  250 */\n  0xfa\n    /* \"BidMarketplace.sol\":1447:1478  uint256 public feePercent = 250 */\n  0x07\n  sstore\n    /* \"BidMarketplace.sol\":2993:3303  constructor(... */\n  callvalue\n  dup1\n  iszero\n  tag_1\n  jumpi\n  0x00\n  dup1\n  revert\ntag_1:\n  pop\n  mload(0x40)\n  sub(codesize, bytecodeSize)\n  dup1\n  bytecodeSize\n  dup4\n  codecopy\n  dup2\n  add\n  0x40\n  dup2\n  swap1\n  mstore\n  tag_2\n  swap2\n  tag_3\n  jump\t// in\ntag_2:\n    /* \"@openzeppelin/contracts/security/ReentrancyGuard.sol\":1716:1717  1 */\n  0x01\n    /* \"@openzeppelin/contracts/security/ReentrancyGuard.sol\":1821:1828  _status */\n  0x00\n    /* \"@openzeppelin/contracts/security/ReentrancyGuard.sol\":1821:1843  _status = _NOT_ENTERED */\n  sstore\n    /* \"BidMarketplace.sol\":3081:3094  _initialOwner */\n  dup1\n  sub(shl(0xa0, 0x01), 0x01)\n    /* \"@openzeppelin/contracts/access/Ownable.sol\":1273:1299  initialOwner == address(0) */\n  dup2\n  and\n    /* \"@openzeppelin/contracts/access/Ownable.sol\":1269:1364  if (initialOwner == address(0)) {... */\n  tag_9\n  jumpi\n    /* \"@openzeppelin/contracts/access/Ownable.sol\":1322:1353  OwnableInvalidOwner(address(0)) */\n  mload(0x40)\n  shl(0xe0, 0x1e4fbdf7)\n  dup2\n  mstore\n    /* \"@openzeppelin/contracts/access/Ownable.sol\":1350:1351  0 */\n  0x00\n    /* \"@openzeppelin/contracts/access/Ownable.sol\":1322:1353  OwnableInvalidOwner(address(0)) */\n  0x04\n  dup3\n  add\n    /* \"#utility.yul\":640:691   */\n  mstore\n    /* \"#utility.yul\":613:631   */\n  0x24\n  add\n    /* \"@openzeppelin/contracts/access/Ownable.sol\":1322:1353  OwnableInvalidOwner(address(0)) */\ntag_10:\n  mload(0x40)\n  dup1\n  swap2\n  sub\n  swap1\n  revert\n    /* \"@openzeppelin/contracts/access/Ownable.sol\":1269:1364  if (initialOwner == address(0)) {... */\ntag_9:\n    /* \"@openzeppelin/contracts/access/Ownable.sol\":1373:1405  _transferOwnership(initialOwner) */\n  tag_12\n    /* \"@openzeppelin/contracts/access/Ownable.sol\":1392:1404  initialOwner */\n  dup2\n    /* \"@openzeppelin/contracts/access/Ownable.sol\":1373:1391  _transferOwnership */\n  tag_13\n    /* \"@openzeppelin/contracts/access/Ownable.sol\":1373:1405  _transferOwnership(initialOwner) */\n  jump\t// in\ntag_12:\n  pop\n  sub(shl(0xa0, 0x01), 0x01)\n    /* \"BidMarketplace.sol\":3114:3141  _feeRecipient != address(0) */\n  dup3\n  and\n    /* \"BidMarketplace.sol\":3106:3167  require(_feeRecipient != address(0), \"Invalid fee recipient\") */\n  tag_15\n  jumpi\n  mload(0x40)\n  shl(0xe5, 0x461bcd)\n  dup2\n  mstore\n    /* \"#utility.yul\":904:906   */\n  0x20\n    /* \"BidMarketplace.sol\":3106:3167  require(_feeRecipient != address(0), \"Invalid fee recipient\") */\n  0x04\n  dup3\n  add\n    /* \"#utility.yul\":886:907   */\n  mstore\n    /* \"#utility.yul\":943:945   */\n  0x15\n    /* \"#utility.yul\":923:941   */\n  0x24\n  dup3\n  add\n    /* \"#utility.yul\":916:946   */\n  mstore\n    /* \"#utility.yul\":982:1005   */\n  0x496e76616c69642066656520726563697069656e740000000000000000000000\n    /* \"#utility.yul\":962:980   */\n  0x44\n  dup3\n  add\n    /* \"#utility.yul\":955:1006   */\n  mstore\n    /* \"#utility.yul\":1023:1041   */\n  0x64\n  add\n    /* \"BidMarketplace.sol\":3106:3167  require(_feeRecipient != address(0), \"Invalid fee recipient\") */\n  tag_10\n    /* \"#utility.yul\":702:1047   */\n  jump\n    /* \"BidMarketplace.sol\":3106:3167  require(_feeRecipient != address(0), \"Invalid fee recipient\") */\ntag_15:\n  pop\n    /* \"BidMarketplace.sol\":3177:3189  feeRecipient */\n  0x08\n    /* \"BidMarketplace.sol\":3177:3205  feeRecipient = _feeRecipient */\n  dup1\n  sload\n  not(sub(shl(0xa0, 0x01), 0x01))\n  and\n  sub(shl(0xa0, 0x01), 0x01)\n  swap3\n  swap1\n  swap3\n  and\n  swap2\n  swap1\n  swap2\n  or\n  swap1\n  sstore\n  0x00\n    /* \"BidMarketplace.sol\":3257:3289  allowedPaymentTokens[address(0)] */\n  dup1\n  mstore\n    /* \"BidMarketplace.sol\":3257:3277  allowedPaymentTokens */\n  0x09\n    /* \"BidMarketplace.sol\":3257:3289  allowedPaymentTokens[address(0)] */\n  0x20\n  mstore\n  0xec8156718a8372b1db44bb411437d0870f3e3790d4a08526d024ce1b0b668f6b\n    /* \"BidMarketplace.sol\":3257:3296  allowedPaymentTokens[address(0)] = true */\n  dup1\n  sload\n  not(0xff)\n  and\n  0x01\n  or\n  swap1\n  sstore\n    /* \"BidMarketplace.sol\":465:17571  contract PackripprMarketplace is ReentrancyGuard, Ownable {... */\n  jump(tag_21)\n    /* \"@openzeppelin/contracts/access/Ownable.sol\":2912:3099  function _transferOwnership(address newOwner) internal virtual {... */\ntag_13:\n    /* \"@openzeppelin/contracts/access/Ownable.sol\":3004:3010  _owner */\n  0x01\n  dup1\n  sload\n  sub(shl(0xa0, 0x01), 0x01)\n    /* \"@openzeppelin/contracts/access/Ownable.sol\":3020:3037  _owner = newOwner */\n  dup4\n  dup2\n  and\n  not(sub(shl(0xa0, 0x01), 0x01))\n  dup4\n  and\n  dup2\n  or\n  swap1\n  swap4\n  sstore\n    /* \"@openzeppelin/contracts/access/Ownable.sol\":3052:3092  OwnershipTransferred(oldOwner, newOwner) */\n  mload(0x40)\n    /* \"@openzeppelin/contracts/access/Ownable.sol\":3004:3010  _owner */\n  swap2\n  and\n  swap2\n    /* \"@openzeppelin/contracts/access/Ownable.sol\":3020:3037  _owner = newOwner */\n  swap1\n    /* \"@openzeppelin/contracts/access/Ownable.sol\":3004:3010  _owner */\n  dup3\n  swap1\n    /* \"@openzeppelin/contracts/access/Ownable.sol\":3052:3092  OwnershipTransferred(oldOwner, newOwner) */\n  0x8be0079c531659141344cd1fd0a4f28419497f9722a3daafe3b4186f6b6457e0\n  swap1\n    /* \"@openzeppelin/contracts/access/Ownable.sol\":2985:3001  address oldOwner */\n  0x00\n  swap1\n    /* \"@openzeppelin/contracts/access/Ownable.sol\":3052:3092  OwnershipTransferred(oldOwner, newOwner) */\n  log3\n    /* \"@openzeppelin/contracts/access/Ownable.sol\":2975:3099  {... */\n  pop\n    /* \"@openzeppelin/contracts/access/Ownable.sol\":2912:3099  function _transferOwnership(address newOwner) internal virtual {... */\n  pop\n  jump\t// out\n    /* \"#utility.yul\":14:191   */\ntag_20:\n    /* \"#utility.yul\":93:106   */\n  dup1\n  mload\n  sub(shl(0xa0, 0x01), 0x01)\n    /* \"#utility.yul\":135:166   */\n  dup2\n  and\n    /* \"#utility.yul\":125:167   */\n  dup2\n  eq\n    /* \"#utility.yul\":115:185   */\n  tag_23\n  jumpi\n    /* \"#utility.yul\":181:182   */\n  0x00\n    /* \"#utility.yul\":178:179   */\n  dup1\n    /* \"#utility.yul\":171:183   */\n  revert\n    /* \"#utility.yul\":115:185   */\ntag_23:\n    /* \"#utility.yul\":14:191   */\n  swap2\n  swap1\n  pop\n  jump\t// out\n    /* \"#utility.yul\":196:489   */\ntag_3:\n    /* \"#utility.yul\":275:281   */\n  0x00\n    /* \"#utility.yul\":283:289   */\n  dup1\n    /* \"#utility.yul\":336:338   */\n  0x40\n    /* \"#utility.yul\":324:333   */\n  dup4\n    /* \"#utility.yul\":315:322   */\n  dup6\n    /* \"#utility.yul\":311:334   */\n  sub\n    /* \"#utility.yul\":307:339   */\n  slt\n    /* \"#utility.yul\":304:356   */\n  iszero\n  tag_25\n  jumpi\n    /* \"#utility.yul\":352:353   */\n  0x00\n    /* \"#utility.yul\":349:350   */\n  dup1\n    /* \"#utility.yul\":342:354   */\n  revert\n    /* \"#utility.yul\":304:356   */\ntag_25:\n    /* \"#utility.yul\":375:415   */\n  tag_26\n    /* \"#utility.yul\":405:414   */\n  dup4\n    /* \"#utility.yul\":375:415   */\n  tag_20\n  jump\t// in\ntag_26:\n    /* \"#utility.yul\":365:415   */\n  swap2\n  pop\n    /* \"#utility.yul\":434:483   */\n  tag_27\n    /* \"#utility.yul\":479:481   */\n  0x20\n    /* \"#utility.yul\":468:477   */\n  dup5\n    /* \"#utility.yul\":464:482   */\n  add\n    /* \"#utility.yul\":434:483   */\n  tag_20\n  jump\t// in\ntag_27:\n    /* \"#utility.yul\":424:483   */\n  swap1\n  pop\n    /* \"#utility.yul\":196:489   */\n  swap3\n  pop\n  swap3\n  swap1\n  pop\n  jump\t// out\n    /* \"#utility.yul\":702:1047   */\ntag_21:\n    /* \"BidMarketplace.sol\":465:17571  contract PackripprMarketplace is ReentrancyGuard, Ownable {... */\n  dataSize(sub_0)\n  dup1\n  dataOffset(sub_0)\n  0x00\n  codecopy\n  0x00\n  return\nstop\n\nsub_0: assembly {\n        /* \"BidMarketplace.sol\":465:17571  contract PackripprMarketplace is ReentrancyGuard, Ownable {... */\n      mstore(0x40, 0x80)\n      jumpi(tag_1, lt(calldatasize, 0x04))\n      shr(0xe0, calldataload(0x00))\n      dup1\n      0x8a72ea6a\n      gt\n      tag_30\n      jumpi\n      dup1\n      0xd14027d4\n      gt\n      tag_31\n      jumpi\n      dup1\n      0xe74b981b\n      gt\n      tag_32\n      jumpi\n      dup1\n      0xe74b981b\n      eq\n      tag_26\n      jumpi\n      dup1\n      0xef706adf\n      eq\n      tag_27\n      jumpi\n      dup1\n      0xf2fde38b\n      eq\n      tag_28\n      jumpi\n      dup1\n      0xf6eb46ac\n      eq\n      tag_29\n      jumpi\n      0x00\n      dup1\n      revert\n    tag_32:\n      dup1\n      0xd14027d4\n      eq\n      tag_23\n      jumpi\n      dup1\n      0xd73792a9\n      eq\n      tag_24\n      jumpi\n      dup1\n      0xde74e57b\n      eq\n      tag_25\n      jumpi\n      0x00\n      dup1\n      revert\n    tag_31:\n      dup1\n      0xb4a15355\n      gt\n      tag_33\n      jumpi\n      dup1\n      0xb4a15355\n      eq\n      tag_19\n      jumpi\n      dup1\n      0xc4604943\n      eq\n      tag_20\n      jumpi\n      dup1\n      0xc815729d\n      eq\n      tag_21\n      jumpi\n      dup1\n      0xcdb3cd25\n      eq\n      tag_22\n      jumpi\n      0x00\n      dup1\n      revert\n    tag_33:\n      dup1\n      0x8a72ea6a\n      eq\n      tag_16\n      jumpi\n      dup1\n      0x8da5cb5b\n      eq\n      tag_17\n      jumpi\n      dup1\n      0xaaccf1ec\n      eq\n      tag_18\n      jumpi\n      0x00\n      dup1\n      revert\n    tag_30:\n      dup1\n      0x4884f459\n      gt\n      tag_34\n      jumpi\n      dup1\n      0x6f7b4352\n      gt\n      tag_35\n      jumpi\n      dup1\n      0x6f7b4352\n      eq\n      tag_12\n      jumpi\n      dup1\n      0x715018a6\n      eq\n      tag_13\n      jumpi\n      dup1\n      0x7ce3489b\n      eq\n      tag_14\n      jumpi\n      dup1\n      0x7fd6f15c\n      eq\n      tag_15\n      jumpi\n      0x00\n      dup1\n      revert\n    tag_35:\n      dup1\n      0x4884f459\n      eq\n      tag_9\n      jumpi\n      dup1\n      0x5f5d0655\n      eq\n      tag_10\n      jumpi\n      dup1\n      0x697d312a\n      eq\n      tag_11\n      jumpi\n      0x00\n      dup1\n      revert\n    tag_34:\n      dup1\n      0x248d9aa3\n      gt\n      tag_36\n      jumpi\n      dup1\n      0x248d9aa3\n      eq\n      tag_5\n      jumpi\n      dup1\n      0x305a67a8\n      eq\n      tag_6\n      jumpi\n      dup1\n      0x4579268a\n      eq\n      tag_7\n      jumpi\n      dup1\n      0x46904840\n      eq\n      tag_8\n      jumpi\n      0x00\n      dup1\n      revert\n    tag_36:\n      dup1\n      0x107a274a\n      eq\n      tag_2\n      jumpi\n      dup1\n      0x150b7a02\n      eq\n      tag_3\n      jumpi\n      dup1\n      0x1d3c6674\n      eq\n      tag_4\n      jumpi\n    tag_1:\n      0x00\n      dup1\n      revert\n        /* \"BidMarketplace.sol\":16294:16429  function getListing(... */\n    tag_2:\n      callvalue\n      dup1\n      iszero\n      tag_37\n      jumpi\n      0x00\n      dup1\n      revert\n    tag_37:\n      pop\n      tag_38\n      tag_39\n      calldatasize\n      0x04\n      tag_40\n      jump\t// in\n    tag_39:\n      0x40\n      dup1\n      mload\n      0xc0\n      dup2\n      add\n      dup3\n      mstore\n      0x00\n      dup1\n      dup3\n      mstore\n      0x20\n      dup3\n      add\n      dup2\n      swap1\n      mstore\n      swap2\n      dup2\n      add\n      dup3\n      swap1\n      mstore\n      0x60\n      dup2\n      add\n      dup3\n      swap1\n      mstore\n      0x80\n      dup2\n      add\n      dup3\n      swap1\n      mstore\n      0xa0\n      dup2\n      add\n      swap2\n      swap1\n      swap2\n      mstore\n      pop\n        /* \"BidMarketplace.sol\":16403:16422  listings[listingId] */\n      0x00\n      swap1\n      dup2\n      mstore\n        /* \"BidMarketplace.sol\":16403:16411  listings */\n      0x02\n        /* \"BidMarketplace.sol\":16403:16422  listings[listingId] */\n      0x20\n      dup2\n      dup2\n      mstore\n      0x40\n      swap3\n      dup4\n      swap1\n      keccak256\n        /* \"BidMarketplace.sol\":16396:16422  return listings[listingId] */\n      dup4\n      mload\n      0xc0\n      dup2\n      add\n      dup6\n      mstore\n      dup2\n      sload\n      sub(shl(0xa0, 0x01), 0x01)\n      swap1\n      dup2\n      and\n      dup3\n      mstore\n      0x01\n      dup4\n      add\n      sload\n      dup2\n      and\n      swap4\n      dup3\n      add\n      swap4\n      swap1\n      swap4\n      mstore\n      swap3\n      dup2\n      add\n      sload\n      swap4\n      dup4\n      add\n      swap4\n      swap1\n      swap4\n      mstore\n      0x03\n      dup4\n      add\n      sload\n      and\n      0x60\n      dup3\n      add\n      mstore\n      0x04\n      dup3\n      add\n      sload\n      0x80\n      dup3\n      add\n      mstore\n      0x05\n      swap1\n      swap2\n      add\n      sload\n      0xff\n      and\n      iszero\n      iszero\n      0xa0\n      dup3\n      add\n      mstore\n      swap1\n        /* \"BidMarketplace.sol\":16294:16429  function getListing(... */\n      jump\n    tag_38:\n      mload(0x40)\n      tag_42\n      swap2\n      swap1\n        /* \"#utility.yul\":454:467   */\n      dup2\n      mload\n      sub(shl(0xa0, 0x01), 0x01)\n        /* \"#utility.yul\":450:472   */\n      swap1\n      dup2\n      and\n        /* \"#utility.yul\":432:473   */\n      dup3\n      mstore\n        /* \"#utility.yul\":533:537   */\n      0x20\n        /* \"#utility.yul\":521:538   */\n      dup1\n      dup5\n      add\n        /* \"#utility.yul\":515:539   */\n      mload\n        /* \"#utility.yul\":511:544   */\n      dup3\n      and\n        /* \"#utility.yul\":489:509   */\n      swap1\n      dup4\n      add\n        /* \"#utility.yul\":482:545   */\n      mstore\n        /* \"#utility.yul\":601:605   */\n      0x40\n        /* \"#utility.yul\":589:606   */\n      dup1\n      dup5\n      add\n        /* \"#utility.yul\":583:607   */\n      mload\n        /* \"#utility.yul\":561:581   */\n      swap1\n      dup4\n      add\n        /* \"#utility.yul\":554:608   */\n      mstore\n        /* \"#utility.yul\":668:672   */\n      0x60\n        /* \"#utility.yul\":656:673   */\n      dup1\n      dup5\n      add\n        /* \"#utility.yul\":650:674   */\n      mload\n        /* \"#utility.yul\":646:679   */\n      swap1\n      swap2\n      and\n        /* \"#utility.yul\":624:644   */\n      swap1\n      dup3\n      add\n        /* \"#utility.yul\":617:680   */\n      mstore\n        /* \"#utility.yul\":736:740   */\n      0x80\n        /* \"#utility.yul\":724:741   */\n      dup1\n      dup4\n      add\n        /* \"#utility.yul\":718:742   */\n      mload\n        /* \"#utility.yul\":696:716   */\n      swap1\n      dup3\n      add\n        /* \"#utility.yul\":689:743   */\n      mstore\n        /* \"#utility.yul\":412:415   */\n      0xa0\n        /* \"#utility.yul\":801:818   */\n      swap2\n      dup3\n      add\n        /* \"#utility.yul\":795:819   */\n      mload\n        /* \"#utility.yul\":788:820   */\n      iszero\n        /* \"#utility.yul\":781:821   */\n      iszero\n        /* \"#utility.yul\":759:779   */\n      swap2\n      dup2\n      add\n        /* \"#utility.yul\":752:822   */\n      swap2\n      swap1\n      swap2\n      mstore\n        /* \"#utility.yul\":381:384   */\n      0xc0\n        /* \"#utility.yul\":366:385   */\n      add\n      swap1\n        /* \"#utility.yul\":199:828   */\n      jump\n        /* \"BidMarketplace.sol\":16294:16429  function getListing(... */\n    tag_42:\n      mload(0x40)\n      dup1\n      swap2\n      sub\n      swap1\n      return\n        /* \"BidMarketplace.sol\":17381:17569  function onERC721Received(... */\n    tag_3:\n      callvalue\n      dup1\n      iszero\n      tag_44\n      jumpi\n      0x00\n      dup1\n      revert\n    tag_44:\n      pop\n      tag_45\n      tag_46\n      calldatasize\n      0x04\n      tag_47\n      jump\t// in\n    tag_46:\n      tag_48\n      jump\t// in\n    tag_45:\n      mload(0x40)\n      not(sub(shl(0xe0, 0x01), 0x01))\n        /* \"#utility.yul\":2534:2567   */\n      swap1\n      swap2\n      and\n        /* \"#utility.yul\":2516:2568   */\n      dup2\n      mstore\n        /* \"#utility.yul\":2504:2506   */\n      0x20\n        /* \"#utility.yul\":2489:2507   */\n      add\n        /* \"BidMarketplace.sol\":17381:17569  function onERC721Received(... */\n      tag_42\n        /* \"#utility.yul\":2372:2574   */\n      jump\n        /* \"BidMarketplace.sol\":15947:16153  function setAllowedPaymentToken(... */\n    tag_4:\n      callvalue\n      dup1\n      iszero\n      tag_51\n      jumpi\n      0x00\n      dup1\n      revert\n    tag_51:\n      pop\n      tag_52\n      tag_53\n      calldatasize\n      0x04\n      tag_54\n      jump\t// in\n    tag_53:\n      tag_55\n      jump\t// in\n    tag_52:\n      stop\n        /* \"BidMarketplace.sol\":17161:17340  function getListingByToken(... */\n    tag_5:\n      callvalue\n      dup1\n      iszero\n      tag_56\n      jumpi\n      0x00\n      dup1\n      revert\n    tag_56:\n      pop\n      tag_57\n      tag_58\n      calldatasize\n      0x04\n      tag_59\n      jump\t// in\n    tag_58:\n      tag_60\n      jump\t// in\n    tag_57:\n      mload(0x40)\n        /* \"#utility.yul\":3555:3580   */\n      swap1\n      dup2\n      mstore\n        /* \"#utility.yul\":3543:3545   */\n      0x20\n        /* \"#utility.yul\":3528:3546   */\n      add\n        /* \"BidMarketplace.sol\":17161:17340  function getListingByToken(... */\n      tag_42\n        /* \"#utility.yul\":3409:3586   */\n      jump\n        /* \"BidMarketplace.sol\":7173:7567  function cancelListing(uint256 listingId) external nonReentrant onlyOwner {... */\n    tag_6:\n      callvalue\n      dup1\n      iszero\n      tag_63\n      jumpi\n      0x00\n      dup1\n      revert\n    tag_63:\n      pop\n      tag_52\n      tag_65\n      calldatasize\n      0x04\n      tag_40\n      jump\t// in\n    tag_65:\n      tag_66\n      jump\t// in\n        /* \"BidMarketplace.sol\":16515:16626  function getOffer(uint256 offerId) external view returns (Offer memory) {... */\n    tag_7:\n      callvalue\n      dup1\n      iszero\n      tag_67\n      jumpi\n      0x00\n      dup1\n      revert\n    tag_67:\n      pop\n      tag_68\n      tag_69\n      calldatasize\n      0x04\n      tag_40\n      jump\t// in\n    tag_69:\n      0x40\n      dup1\n      mload\n      0xe0\n      dup2\n      add\n      dup3\n      mstore\n      0x00\n      dup1\n      dup3\n      mstore\n      0x20\n      dup3\n      add\n      dup2\n      swap1\n      mstore\n      swap2\n      dup2\n      add\n      dup3\n      swap1\n      mstore\n      0x60\n      dup2\n      add\n      dup3\n      swap1\n      mstore\n      0x80\n      dup2\n      add\n      dup3\n      swap1\n      mstore\n      0xa0\n      dup2\n      add\n      dup3\n      swap1\n      mstore\n      0xc0\n      dup2\n      add\n      swap2\n      swap1\n      swap2\n      mstore\n      pop\n        /* \"BidMarketplace.sol\":16604:16619  offers[offerId] */\n      0x00\n      swap1\n      dup2\n      mstore\n        /* \"BidMarketplace.sol\":16604:16610  offers */\n      0x04\n        /* \"BidMarketplace.sol\":16604:16619  offers[offerId] */\n      0x20\n      dup2\n      dup2\n      mstore\n      0x40\n      swap3\n      dup4\n      swap1\n      keccak256\n        /* \"BidMarketplace.sol\":16597:16619  return offers[offerId] */\n      dup4\n      mload\n      0xe0\n      dup2\n      add\n      dup6\n      mstore\n      dup2\n      sload\n      sub(shl(0xa0, 0x01), 0x01)\n      swap1\n      dup2\n      and\n      dup3\n      mstore\n      0x01\n      dup4\n      add\n      sload\n      dup2\n      and\n      swap4\n      dup3\n      add\n      swap4\n      swap1\n      swap4\n      mstore\n      0x02\n      dup3\n      add\n      sload\n      swap5\n      dup2\n      add\n      swap5\n      swap1\n      swap5\n      mstore\n      0x03\n      dup2\n      add\n      sload\n      swap1\n      swap2\n      and\n      0x60\n      dup5\n      add\n      mstore\n      swap1\n      dup2\n      add\n      sload\n      0x80\n      dup4\n      add\n      mstore\n      0x05\n      dup2\n      add\n      sload\n      0xa0\n      dup4\n      add\n      mstore\n      0x06\n      add\n      sload\n      0xff\n      and\n      iszero\n      iszero\n      0xc0\n      dup3\n      add\n      mstore\n      swap1\n        /* \"BidMarketplace.sol\":16515:16626  function getOffer(uint256 offerId) external view returns (Offer memory) {... */\n      jump\n    tag_68:\n      mload(0x40)\n      tag_42\n      swap2\n      swap1\n        /* \"#utility.yul\":3842:3855   */\n      dup2\n      mload\n      sub(shl(0xa0, 0x01), 0x01)\n        /* \"#utility.yul\":3838:3860   */\n      swap1\n      dup2\n      and\n        /* \"#utility.yul\":3820:3861   */\n      dup3\n      mstore\n        /* \"#utility.yul\":3921:3925   */\n      0x20\n        /* \"#utility.yul\":3909:3926   */\n      dup1\n      dup5\n      add\n        /* \"#utility.yul\":3903:3927   */\n      mload\n        /* \"#utility.yul\":3899:3932   */\n      dup3\n      and\n        /* \"#utility.yul\":3877:3897   */\n      swap1\n      dup4\n      add\n        /* \"#utility.yul\":3870:3933   */\n      mstore\n        /* \"#utility.yul\":3989:3993   */\n      0x40\n        /* \"#utility.yul\":3977:3994   */\n      dup1\n      dup5\n      add\n        /* \"#utility.yul\":3971:3995   */\n      mload\n        /* \"#utility.yul\":3949:3969   */\n      swap1\n      dup4\n      add\n        /* \"#utility.yul\":3942:3996   */\n      mstore\n        /* \"#utility.yul\":4056:4060   */\n      0x60\n        /* \"#utility.yul\":4044:4061   */\n      dup1\n      dup5\n      add\n        /* \"#utility.yul\":4038:4062   */\n      mload\n        /* \"#utility.yul\":4034:4067   */\n      swap1\n      swap2\n      and\n        /* \"#utility.yul\":4012:4032   */\n      swap1\n      dup3\n      add\n        /* \"#utility.yul\":4005:4068   */\n      mstore\n        /* \"#utility.yul\":4124:4128   */\n      0x80\n        /* \"#utility.yul\":4112:4129   */\n      dup1\n      dup4\n      add\n        /* \"#utility.yul\":4106:4130   */\n      mload\n        /* \"#utility.yul\":4084:4104   */\n      swap1\n      dup3\n      add\n        /* \"#utility.yul\":4077:4131   */\n      mstore\n        /* \"#utility.yul\":3800:3803   */\n      0xa0\n        /* \"#utility.yul\":4175:4192   */\n      dup3\n      dup2\n      add\n        /* \"#utility.yul\":4169:4193   */\n      mload\n        /* \"#utility.yul\":4147:4167   */\n      swap1\n      dup3\n      add\n        /* \"#utility.yul\":4140:4194   */\n      mstore\n        /* \"#utility.yul\":4264:4268   */\n      0xc0\n        /* \"#utility.yul\":4252:4269   */\n      swap2\n      dup3\n      add\n        /* \"#utility.yul\":4246:4270   */\n      mload\n        /* \"#utility.yul\":4239:4271   */\n      iszero\n        /* \"#utility.yul\":4232:4272   */\n      iszero\n        /* \"#utility.yul\":4210:4230   */\n      swap2\n      dup2\n      add\n        /* \"#utility.yul\":4203:4273   */\n      swap2\n      swap1\n      swap2\n      mstore\n        /* \"#utility.yul\":3769:3772   */\n      0xe0\n        /* \"#utility.yul\":3754:3773   */\n      add\n      swap1\n        /* \"#utility.yul\":3591:4279   */\n      jump\n        /* \"BidMarketplace.sol\":1559:1586  address public feeRecipient */\n    tag_8:\n      callvalue\n      dup1\n      iszero\n      tag_73\n      jumpi\n      0x00\n      dup1\n      revert\n    tag_73:\n      pop\n      sload(0x08)\n      tag_74\n      swap1\n      sub(shl(0xa0, 0x01), 0x01)\n      and\n      dup2\n      jump\n    tag_74:\n      mload(0x40)\n      sub(shl(0xa0, 0x01), 0x01)\n        /* \"#utility.yul\":4448:4480   */\n      swap1\n      swap2\n      and\n        /* \"#utility.yul\":4430:4481   */\n      dup2\n      mstore\n        /* \"#utility.yul\":4418:4420   */\n      0x20\n        /* \"#utility.yul\":4403:4421   */\n      add\n        /* \"BidMarketplace.sol\":1559:1586  address public feeRecipient */\n      tag_42\n        /* \"#utility.yul\":4284:4487   */\n      jump\n        /* \"BidMarketplace.sol\":8238:10643  function buyListing(uint256 listingId) external payable nonReentrant {... */\n    tag_9:\n      tag_52\n      tag_79\n      calldatasize\n      0x04\n      tag_40\n      jump\t// in\n    tag_79:\n      tag_80\n      jump\t// in\n        /* \"BidMarketplace.sol\":1223:1249  uint256 public nextOfferId */\n    tag_10:\n      callvalue\n      dup1\n      iszero\n      tag_81\n      jumpi\n      0x00\n      dup1\n      revert\n    tag_81:\n      pop\n      tag_57\n      sload(0x05)\n      dup2\n      jump\n        /* \"BidMarketplace.sol\":1651:1703  mapping(address => bool) public allowedPaymentTokens */\n    tag_11:\n      callvalue\n      dup1\n      iszero\n      tag_85\n      jumpi\n      0x00\n      dup1\n      revert\n    tag_85:\n      pop\n      tag_86\n      tag_87\n      calldatasize\n      0x04\n      tag_88\n      jump\t// in\n    tag_87:\n      mstore(0x20, 0x09)\n      0x00\n      swap1\n      dup2\n      mstore\n      0x40\n      swap1\n      keccak256\n      sload\n      0xff\n      and\n      dup2\n      jump\n    tag_86:\n      mload(0x40)\n        /* \"#utility.yul\":4909:4923   */\n      swap1\n      iszero\n        /* \"#utility.yul\":4902:4924   */\n      iszero\n        /* \"#utility.yul\":4884:4925   */\n      dup2\n      mstore\n        /* \"#utility.yul\":4872:4874   */\n      0x20\n        /* \"#utility.yul\":4857:4875   */\n      add\n        /* \"BidMarketplace.sol\":1651:1703  mapping(address => bool) public allowedPaymentTokens */\n      tag_42\n        /* \"#utility.yul\":4744:4931   */\n      jump\n        /* \"BidMarketplace.sol\":1318:1387  mapping(address => mapping(uint256 => uint256)) public tokenToListing */\n    tag_12:\n      callvalue\n      dup1\n      iszero\n      tag_92\n      jumpi\n      0x00\n      dup1\n      revert\n    tag_92:\n      pop\n      tag_57\n      tag_94\n      calldatasize\n      0x04\n      tag_59\n      jump\t// in\n    tag_94:\n      0x06\n      0x20\n      swap1\n      dup2\n      mstore\n      0x00\n      swap3\n      dup4\n      mstore\n      0x40\n      dup1\n      dup5\n      keccak256\n      swap1\n      swap2\n      mstore\n      swap1\n      dup3\n      mstore\n      swap1\n      keccak256\n      sload\n      dup2\n      jump\n        /* \"@openzeppelin/contracts/access/Ownable.sol\":2293:2394  function renounceOwnership() public virtual onlyOwner {... */\n    tag_13:\n      callvalue\n      dup1\n      iszero\n      tag_97\n      jumpi\n      0x00\n      dup1\n      revert\n    tag_97:\n      pop\n      tag_52\n      tag_99\n      jump\t// in\n        /* \"BidMarketplace.sol\":15192:15414  function setFeePercent(uint256 newFeePercent) external onlyOwner {... */\n    tag_14:\n      callvalue\n      dup1\n      iszero\n      tag_100\n      jumpi\n      0x00\n      dup1\n      revert\n    tag_100:\n      pop\n      tag_52\n      tag_102\n      calldatasize\n      0x04\n      tag_40\n      jump\t// in\n    tag_102:\n      tag_103\n      jump\t// in\n        /* \"BidMarketplace.sol\":1447:1478  uint256 public feePercent = 250 */\n    tag_15:\n      callvalue\n      dup1\n      iszero\n      tag_104\n      jumpi\n      0x00\n      dup1\n      revert\n    tag_104:\n      pop\n      tag_57\n      sload(0x07)\n      dup2\n      jump\n        /* \"BidMarketplace.sol\":1178:1217  mapping(uint256 => Offer) public offers */\n    tag_16:\n      callvalue\n      dup1\n      iszero\n      tag_108\n      jumpi\n      0x00\n      dup1\n      revert\n    tag_108:\n      pop\n      tag_109\n      tag_110\n      calldatasize\n      0x04\n      tag_40\n      jump\t// in\n    tag_110:\n      0x04\n      0x20\n      dup2\n      swap1\n      mstore\n      0x00\n      swap2\n      dup3\n      mstore\n      0x40\n      swap1\n      swap2\n      keccak256\n      dup1\n      sload\n      0x01\n      dup3\n      add\n      sload\n      0x02\n      dup4\n      add\n      sload\n      0x03\n      dup5\n      add\n      sload\n      swap5\n      dup5\n      add\n      sload\n      0x05\n      dup6\n      add\n      sload\n      0x06\n      swap1\n      swap6\n      add\n      sload\n      sub(shl(0xa0, 0x01), 0x01)\n      swap5\n      dup6\n      and\n      swap7\n      swap4\n      dup6\n      and\n      swap6\n      swap3\n      swap5\n      swap1\n      swap4\n      and\n      swap3\n      swap1\n      swap2\n      swap1\n      0xff\n      and\n      dup8\n      jump\n    tag_109:\n      0x40\n      dup1\n      mload\n      sub(shl(0xa0, 0x01), 0x01)\n        /* \"#utility.yul\":5301:5316   */\n      swap9\n      dup10\n      and\n        /* \"#utility.yul\":5283:5317   */\n      dup2\n      mstore\n        /* \"#utility.yul\":5353:5368   */\n      swap7\n      dup9\n      and\n        /* \"#utility.yul\":5348:5350   */\n      0x20\n        /* \"#utility.yul\":5333:5351   */\n      dup9\n      add\n        /* \"#utility.yul\":5326:5369   */\n      mstore\n        /* \"#utility.yul\":5385:5403   */\n      dup7\n      add\n        /* \"#utility.yul\":5378:5412   */\n      swap5\n      swap1\n      swap5\n      mstore\n        /* \"#utility.yul\":5448:5463   */\n      swap5\n      swap1\n      swap2\n      and\n        /* \"#utility.yul\":5443:5445   */\n      0x60\n        /* \"#utility.yul\":5428:5446   */\n      dup5\n      add\n        /* \"#utility.yul\":5421:5464   */\n      mstore\n        /* \"#utility.yul\":5495:5498   */\n      0x80\n        /* \"#utility.yul\":5480:5499   */\n      dup4\n      add\n        /* \"#utility.yul\":5473:5508   */\n      mstore\n        /* \"#utility.yul\":5263:5266   */\n      0xa0\n        /* \"#utility.yul\":5524:5543   */\n      dup3\n      add\n        /* \"#utility.yul\":5517:5552   */\n      swap3\n      swap1\n      swap3\n      mstore\n        /* \"#utility.yul\":5596:5610   */\n      swap1\n      iszero\n        /* \"#utility.yul\":5589:5611   */\n      iszero\n        /* \"#utility.yul\":5583:5586   */\n      0xc0\n        /* \"#utility.yul\":5568:5587   */\n      dup3\n      add\n        /* \"#utility.yul\":5561:5612   */\n      mstore\n        /* \"#utility.yul\":5232:5235   */\n      0xe0\n        /* \"#utility.yul\":5217:5236   */\n      add\n        /* \"BidMarketplace.sol\":1178:1217  mapping(uint256 => Offer) public offers */\n      tag_42\n        /* \"#utility.yul\":4936:5618   */\n      jump\n        /* \"@openzeppelin/contracts/access/Ownable.sol\":1638:1723  function owner() public view virtual returns (address) {... */\n    tag_17:\n      callvalue\n      dup1\n      iszero\n      tag_114\n      jumpi\n      0x00\n      dup1\n      revert\n    tag_114:\n      pop\n        /* \"@openzeppelin/contracts/access/Ownable.sol\":1710:1716  _owner */\n      and(sub(shl(0xa0, 0x01), 0x01), sload(0x01))\n        /* \"@openzeppelin/contracts/access/Ownable.sol\":1638:1723  function owner() public view virtual returns (address) {... */\n      jump(tag_74)\n        /* \"BidMarketplace.sol\":1119:1147  uint256 public nextListingId */\n    tag_18:\n      callvalue\n      dup1\n      iszero\n      tag_118\n      jumpi\n      0x00\n      dup1\n      revert\n    tag_118:\n      pop\n      tag_57\n      sload(0x03)\n      dup2\n      jump\n        /* \"BidMarketplace.sol\":3627:4955  function createListing(... */\n    tag_19:\n      callvalue\n      dup1\n      iszero\n      tag_122\n      jumpi\n      0x00\n      dup1\n      revert\n    tag_122:\n      pop\n      tag_57\n      tag_124\n      calldatasize\n      0x04\n      tag_125\n      jump\t// in\n    tag_124:\n      tag_126\n      jump\t// in\n        /* \"BidMarketplace.sol\":7700:8135  function updateListingPrice(... */\n    tag_20:\n      callvalue\n      dup1\n      iszero\n      tag_128\n      jumpi\n      0x00\n      dup1\n      revert\n    tag_128:\n      pop\n      tag_52\n      tag_130\n      calldatasize\n      0x04\n      tag_131\n      jump\t// in\n    tag_130:\n      tag_132\n      jump\t// in\n        /* \"BidMarketplace.sol\":13018:15006  function acceptOffer(uint256 offerId) external nonReentrant {... */\n    tag_21:\n      callvalue\n      dup1\n      iszero\n      tag_133\n      jumpi\n      0x00\n      dup1\n      revert\n    tag_133:\n      pop\n      tag_52\n      tag_135\n      calldatasize\n      0x04\n      tag_40\n      jump\t// in\n    tag_135:\n      tag_136\n      jump\t// in\n        /* \"BidMarketplace.sol\":16778:17019  function isListed(... */\n    tag_22:\n      callvalue\n      dup1\n      iszero\n      tag_137\n      jumpi\n      0x00\n      dup1\n      revert\n    tag_137:\n      pop\n      tag_86\n      tag_139\n      calldatasize\n      0x04\n      tag_59\n      jump\t// in\n    tag_139:\n      tag_140\n      jump\t// in\n        /* \"BidMarketplace.sol\":11036:12485  function createOffer(... */\n    tag_23:\n      callvalue\n      dup1\n      iszero\n      tag_142\n      jumpi\n      0x00\n      dup1\n      revert\n    tag_142:\n      pop\n      tag_57\n      tag_144\n      calldatasize\n      0x04\n      tag_145\n      jump\t// in\n    tag_144:\n      tag_146\n      jump\t// in\n        /* \"BidMarketplace.sol\":1484:1531  uint256 public constant FEE_DENOMINATOR = 10000 */\n    tag_24:\n      callvalue\n      dup1\n      iszero\n      tag_148\n      jumpi\n      0x00\n      dup1\n      revert\n    tag_148:\n      pop\n      tag_57\n        /* \"BidMarketplace.sol\":1526:1531  10000 */\n      0x2710\n        /* \"BidMarketplace.sol\":1484:1531  uint256 public constant FEE_DENOMINATOR = 10000 */\n      dup2\n      jump\n        /* \"BidMarketplace.sol\":1070:1113  mapping(uint256 => Listing) public listings */\n    tag_25:\n      callvalue\n      dup1\n      iszero\n      tag_152\n      jumpi\n      0x00\n      dup1\n      revert\n    tag_152:\n      pop\n      tag_153\n      tag_154\n      calldatasize\n      0x04\n      tag_40\n      jump\t// in\n    tag_154:\n      0x02\n      0x20\n      dup2\n      swap1\n      mstore\n      0x00\n      swap2\n      dup3\n      mstore\n      0x40\n      swap1\n      swap2\n      keccak256\n      dup1\n      sload\n      0x01\n      dup3\n      add\n      sload\n      swap3\n      dup3\n      add\n      sload\n      0x03\n      dup4\n      add\n      sload\n      0x04\n      dup5\n      add\n      sload\n      0x05\n      swap1\n      swap5\n      add\n      sload\n      sub(shl(0xa0, 0x01), 0x01)\n      swap4\n      dup5\n      and\n      swap6\n      dup5\n      and\n      swap5\n      swap3\n      swap4\n      swap1\n      swap2\n      and\n      swap2\n      swap1\n      0xff\n      and\n      dup7\n      jump\n    tag_153:\n      0x40\n      dup1\n      mload\n      sub(shl(0xa0, 0x01), 0x01)\n        /* \"#utility.yul\":7342:7357   */\n      swap8\n      dup9\n      and\n        /* \"#utility.yul\":7324:7358   */\n      dup2\n      mstore\n        /* \"#utility.yul\":7394:7409   */\n      swap6\n      dup8\n      and\n        /* \"#utility.yul\":7389:7391   */\n      0x20\n        /* \"#utility.yul\":7374:7392   */\n      dup8\n      add\n        /* \"#utility.yul\":7367:7410   */\n      mstore\n        /* \"#utility.yul\":7426:7444   */\n      dup6\n      add\n        /* \"#utility.yul\":7419:7453   */\n      swap4\n      swap1\n      swap4\n      mstore\n        /* \"#utility.yul\":7489:7504   */\n      swap4\n      and\n        /* \"#utility.yul\":7484:7486   */\n      0x60\n        /* \"#utility.yul\":7469:7487   */\n      dup4\n      add\n        /* \"#utility.yul\":7462:7505   */\n      mstore\n        /* \"#utility.yul\":7536:7539   */\n      0x80\n        /* \"#utility.yul\":7521:7540   */\n      dup3\n      add\n        /* \"#utility.yul\":7514:7549   */\n      swap3\n      swap1\n      swap3\n      mstore\n        /* \"#utility.yul\":7593:7607   */\n      swap1\n      iszero\n        /* \"#utility.yul\":7586:7608   */\n      iszero\n        /* \"#utility.yul\":7304:7307   */\n      0xa0\n        /* \"#utility.yul\":7565:7584   */\n      dup3\n      add\n        /* \"#utility.yul\":7558:7609   */\n      mstore\n        /* \"#utility.yul\":7273:7276   */\n      0xc0\n        /* \"#utility.yul\":7258:7277   */\n      add\n        /* \"BidMarketplace.sol\":1070:1113  mapping(uint256 => Listing) public listings */\n      tag_42\n        /* \"#utility.yul\":7005:7615   */\n      jump\n        /* \"BidMarketplace.sol\":15528:15762  function setFeeRecipient(address newFeeRecipient) external onlyOwner {... */\n    tag_26:\n      callvalue\n      dup1\n      iszero\n      tag_158\n      jumpi\n      0x00\n      dup1\n      revert\n    tag_158:\n      pop\n      tag_52\n      tag_160\n      calldatasize\n      0x04\n      tag_88\n      jump\t// in\n    tag_160:\n      tag_161\n      jump\t// in\n        /* \"BidMarketplace.sol\":12586:12886  function cancelOffer(uint256 offerId) external nonReentrant {... */\n    tag_27:\n      callvalue\n      dup1\n      iszero\n      tag_162\n      jumpi\n      0x00\n      dup1\n      revert\n    tag_162:\n      pop\n      tag_52\n      tag_164\n      calldatasize\n      0x04\n      tag_40\n      jump\t// in\n    tag_164:\n      tag_165\n      jump\t// in\n        /* \"@openzeppelin/contracts/access/Ownable.sol\":2543:2758  function transferOwnership(address newOwner) public virtual onlyOwner {... */\n    tag_28:\n      callvalue\n      dup1\n      iszero\n      tag_166\n      jumpi\n      0x00\n      dup1\n      revert\n    tag_166:\n      pop\n      tag_52\n      tag_168\n      calldatasize\n      0x04\n      tag_88\n      jump\t// in\n    tag_168:\n      tag_169\n      jump\t// in\n        /* \"BidMarketplace.sol\":5060:5903  function batchListNFTs(... */\n    tag_29:\n      callvalue\n      dup1\n      iszero\n      tag_170\n      jumpi\n      0x00\n      dup1\n      revert\n    tag_170:\n      pop\n      tag_52\n      tag_172\n      calldatasize\n      0x04\n      tag_173\n      jump\t// in\n    tag_172:\n      tag_174\n      jump\t// in\n        /* \"BidMarketplace.sol\":17381:17569  function onERC721Received(... */\n    tag_48:\n      shl(0xe1, 0x0a85bd01)\n    tag_178:\n      swap5\n      swap4\n      pop\n      pop\n      pop\n      pop\n      jump\t// out\n        /* \"BidMarketplace.sol\":15947:16153  function setAllowedPaymentToken(... */\n    tag_55:\n        /* \"@openzeppelin/contracts/access/Ownable.sol\":1531:1544  _checkOwner() */\n      tag_180\n        /* \"@openzeppelin/contracts/access/Ownable.sol\":1531:1542  _checkOwner */\n      tag_181\n        /* \"@openzeppelin/contracts/access/Ownable.sol\":1531:1544  _checkOwner() */\n      jump\t// in\n    tag_180:\n      sub(shl(0xa0, 0x01), 0x01)\n        /* \"BidMarketplace.sol\":16059:16086  allowedPaymentTokens[token] */\n      dup3\n      and\n      0x00\n      dup2\n      dup2\n      mstore\n        /* \"BidMarketplace.sol\":16059:16079  allowedPaymentTokens */\n      0x09\n        /* \"BidMarketplace.sol\":16059:16086  allowedPaymentTokens[token] */\n      0x20\n      swap1\n      dup2\n      mstore\n      0x40\n      swap2\n      dup3\n      swap1\n      keccak256\n        /* \"BidMarketplace.sol\":16059:16096  allowedPaymentTokens[token] = allowed */\n      dup1\n      sload\n      not(0xff)\n      and\n      dup6\n      iszero\n      iszero\n      swap1\n      dup2\n      or\n      swap1\n      swap2\n      sstore\n        /* \"BidMarketplace.sol\":16111:16146  PaymentTokenUpdated(token, allowed) */\n      dup3\n      mload\n        /* \"#utility.yul\":9569:9620   */\n      swap4\n      dup5\n      mstore\n        /* \"#utility.yul\":9636:9654   */\n      swap1\n      dup4\n      add\n        /* \"#utility.yul\":9629:9679   */\n      mstore\n        /* \"BidMarketplace.sol\":16111:16146  PaymentTokenUpdated(token, allowed) */\n      0x19c6e2fbd27c3204efb106f0081d2d7ffaf44da224ca04fbc0d8a262ba40f555\n      swap2\n        /* \"#utility.yul\":9542:9560   */\n      add\n        /* \"BidMarketplace.sol\":16111:16146  PaymentTokenUpdated(token, allowed) */\n      mload(0x40)\n      dup1\n      swap2\n      sub\n      swap1\n      log1\n        /* \"BidMarketplace.sol\":15947:16153  function setAllowedPaymentToken(... */\n      pop\n      pop\n      jump\t// out\n        /* \"BidMarketplace.sol\":17161:17340  function getListingByToken(... */\n    tag_60:\n      sub(shl(0xa0, 0x01), 0x01)\n        /* \"BidMarketplace.sol\":17297:17324  tokenToListing[nftContract] */\n      dup3\n      and\n        /* \"BidMarketplace.sol\":17271:17278  uint256 */\n      0x00\n        /* \"BidMarketplace.sol\":17297:17324  tokenToListing[nftContract] */\n      swap1\n      dup2\n      mstore\n        /* \"BidMarketplace.sol\":17297:17311  tokenToListing */\n      0x06\n        /* \"BidMarketplace.sol\":17297:17324  tokenToListing[nftContract] */\n      0x20\n      swap1\n      dup2\n      mstore\n      0x40\n      dup1\n      dup4\n      keccak256\n        /* \"BidMarketplace.sol\":17297:17333  tokenToListing[nftContract][tokenId] */\n      dup5\n      dup5\n      mstore\n      swap1\n      swap2\n      mstore\n      swap1\n      keccak256\n      sload\n        /* \"BidMarketplace.sol\":17161:17340  function getListingByToken(... */\n    tag_185:\n      swap3\n      swap2\n      pop\n      pop\n      jump\t// out\n        /* \"BidMarketplace.sol\":7173:7567  function cancelListing(uint256 listingId) external nonReentrant onlyOwner {... */\n    tag_66:\n        /* \"@openzeppelin/contracts/security/ReentrancyGuard.sol\":2261:2282  _nonReentrantBefore() */\n      tag_187\n        /* \"@openzeppelin/contracts/security/ReentrancyGuard.sol\":2261:2280  _nonReentrantBefore */\n      tag_188\n        /* \"@openzeppelin/contracts/security/ReentrancyGuard.sol\":2261:2282  _nonReentrantBefore() */\n      jump\t// in\n    tag_187:\n        /* \"@openzeppelin/contracts/access/Ownable.sol\":1531:1544  _checkOwner() */\n      tag_190\n        /* \"@openzeppelin/contracts/access/Ownable.sol\":1531:1542  _checkOwner */\n      tag_181\n        /* \"@openzeppelin/contracts/access/Ownable.sol\":1531:1544  _checkOwner() */\n      jump\t// in\n    tag_190:\n        /* \"BidMarketplace.sol\":7257:7280  Listing storage listing */\n      0x00\n        /* \"BidMarketplace.sol\":7283:7302  listings[listingId] */\n      dup2\n      dup2\n      mstore\n        /* \"BidMarketplace.sol\":7283:7291  listings */\n      0x02\n        /* \"BidMarketplace.sol\":7283:7302  listings[listingId] */\n      0x20\n      mstore\n      0x40\n      swap1\n      keccak256\n        /* \"BidMarketplace.sol\":7320:7334  listing.active */\n      0x05\n      dup2\n      add\n      sload\n      0xff\n      and\n        /* \"BidMarketplace.sol\":7312:7357  require(listing.active, \"Listing not active\") */\n      tag_192\n      jumpi\n      mload(0x40)\n      shl(0xe5, 0x461bcd)\n      dup2\n      mstore\n      0x04\n      add\n      tag_193\n      swap1\n      tag_194\n      jump\t// in\n    tag_193:\n      mload(0x40)\n      dup1\n      swap2\n      sub\n      swap1\n      revert\n    tag_192:\n        /* \"BidMarketplace.sol\":7375:7389  listing.seller */\n      dup1\n      sload\n      sub(shl(0xa0, 0x01), 0x01)\n      and\n        /* \"BidMarketplace.sol\":7393:7403  msg.sender */\n      caller\n        /* \"BidMarketplace.sol\":7375:7403  listing.seller == msg.sender */\n      eq\n        /* \"BidMarketplace.sol\":7367:7418  require(listing.seller == msg.sender, \"Not seller\") */\n      tag_195\n      jumpi\n      mload(0x40)\n      shl(0xe5, 0x461bcd)\n      dup2\n      mstore\n        /* \"#utility.yul\":10239:10241   */\n      0x20\n        /* \"BidMarketplace.sol\":7367:7418  require(listing.seller == msg.sender, \"Not seller\") */\n      0x04\n      dup3\n      add\n        /* \"#utility.yul\":10221:10242   */\n      mstore\n        /* \"#utility.yul\":10278:10280   */\n      0x0a\n        /* \"#utility.yul\":10258:10276   */\n      0x24\n      dup3\n      add\n        /* \"#utility.yul\":10251:10281   */\n      mstore\n      shl(0xb1, 0x2737ba1039b2b63632b9)\n        /* \"#utility.yul\":10297:10315   */\n      0x44\n      dup3\n      add\n        /* \"#utility.yul\":10290:10330   */\n      mstore\n        /* \"#utility.yul\":10347:10365   */\n      0x64\n      add\n        /* \"BidMarketplace.sol\":7367:7418  require(listing.seller == msg.sender, \"Not seller\") */\n      tag_193\n        /* \"#utility.yul\":10037:10371   */\n      jump\n        /* \"BidMarketplace.sol\":7367:7418  require(listing.seller == msg.sender, \"Not seller\") */\n    tag_195:\n        /* \"BidMarketplace.sol\":7429:7443  listing.active */\n      0x05\n      dup2\n      add\n        /* \"BidMarketplace.sol\":7429:7451  listing.active = false */\n      dup1\n      sload\n      not(0xff)\n      and\n      swap1\n      sstore\n      0x01\n        /* \"BidMarketplace.sol\":7476:7495  listing.nftContract */\n      dup2\n      add\n      sload\n      sub(shl(0xa0, 0x01), 0x01)\n      and\n        /* \"BidMarketplace.sol\":7446:7451  false */\n      0x00\n        /* \"BidMarketplace.sol\":7461:7496  tokenToListing[listing.nftContract] */\n      swap1\n      dup2\n      mstore\n        /* \"BidMarketplace.sol\":7461:7475  tokenToListing */\n      0x06\n        /* \"BidMarketplace.sol\":7461:7496  tokenToListing[listing.nftContract] */\n      0x20\n      swap1\n      dup2\n      mstore\n      0x40\n      dup1\n      dup4\n      keccak256\n        /* \"BidMarketplace.sol\":7497:7512  listing.tokenId */\n      0x02\n      dup6\n      add\n      sload\n        /* \"BidMarketplace.sol\":7461:7513  tokenToListing[listing.nftContract][listing.tokenId] */\n      dup5\n      mstore\n      swap1\n      swap2\n      mstore\n      dup1\n      dup3\n      keccak256\n        /* \"BidMarketplace.sol\":7461:7517  tokenToListing[listing.nftContract][listing.tokenId] = 0 */\n      dup3\n      swap1\n      sstore\n        /* \"BidMarketplace.sol\":7533:7560  ListingCancelled(listingId) */\n      mload\n        /* \"BidMarketplace.sol\":7550:7559  listingId */\n      dup4\n      swap2\n        /* \"BidMarketplace.sol\":7533:7560  ListingCancelled(listingId) */\n      0x411aee90354c51b1b04cd563fcab2617142a9d50da19232d888547c8a1b7fd8a\n      swap2\n      log2\n        /* \"BidMarketplace.sol\":7247:7567  {... */\n      pop\n        /* \"@openzeppelin/contracts/security/ReentrancyGuard.sol\":2303:2323  _nonReentrantAfter() */\n      tag_198\n        /* \"@openzeppelin/contracts/security/ReentrancyGuard.sol\":1716:1717  1 */\n      0x01\n        /* \"@openzeppelin/contracts/security/ReentrancyGuard.sol\":2809:2816  _status */\n      0x00\n        /* \"@openzeppelin/contracts/security/ReentrancyGuard.sol\":2809:2831  _status = _NOT_ENTERED */\n      sstore\n        /* \"@openzeppelin/contracts/security/ReentrancyGuard.sol\":2629:2838  function _nonReentrantAfter() private {... */\n      jump\n        /* \"@openzeppelin/contracts/security/ReentrancyGuard.sol\":2303:2323  _nonReentrantAfter() */\n    tag_198:\n        /* \"BidMarketplace.sol\":7173:7567  function cancelListing(uint256 listingId) external nonReentrant onlyOwner {... */\n      pop\n      jump\t// out\n        /* \"BidMarketplace.sol\":8238:10643  function buyListing(uint256 listingId) external payable nonReentrant {... */\n    tag_80:\n        /* \"@openzeppelin/contracts/security/ReentrancyGuard.sol\":2261:2282  _nonReentrantBefore() */\n      tag_204\n        /* \"@openzeppelin/contracts/security/ReentrancyGuard.sol\":2261:2280  _nonReentrantBefore */\n      tag_188\n        /* \"@openzeppelin/contracts/security/ReentrancyGuard.sol\":2261:2282  _nonReentrantBefore() */\n      jump\t// in\n    tag_204:\n        /* \"BidMarketplace.sol\":8317:8340  Listing storage listing */\n      0x00\n        /* \"BidMarketplace.sol\":8343:8362  listings[listingId] */\n      dup2\n      dup2\n      mstore\n        /* \"BidMarketplace.sol\":8343:8351  listings */\n      0x02\n        /* \"BidMarketplace.sol\":8343:8362  listings[listingId] */\n      0x20\n      mstore\n      0x40\n      swap1\n      keccak256\n        /* \"BidMarketplace.sol\":8380:8394  listing.active */\n      0x05\n      dup2\n      add\n      sload\n      0xff\n      and\n        /* \"BidMarketplace.sol\":8372:8417  require(listing.active, \"Listing not active\") */\n      tag_206\n      jumpi\n      mload(0x40)\n      shl(0xe5, 0x461bcd)\n      dup2\n      mstore\n      0x04\n      add\n      tag_193\n      swap1\n      tag_194\n      jump\t// in\n    tag_206:\n        /* \"BidMarketplace.sol\":8521:8535  listing.seller */\n      dup1\n      sload\n      0x01\n        /* \"BidMarketplace.sol\":8456:8475  listing.nftContract */\n      dup3\n      add\n      sload\n        /* \"BidMarketplace.sol\":8485:8500  listing.tokenId */\n      0x02\n      dup4\n      add\n      sload\n        /* \"BidMarketplace.sol\":8448:8501  IERC721(listing.nftContract).ownerOf(listing.tokenId) */\n      mload(0x40)\n      shl(0xe1, 0x31a9108f)\n      dup2\n      mstore\n      0x04\n      dup2\n      add\n        /* \"#utility.yul\":3555:3580   */\n      swap2\n      swap1\n      swap2\n      mstore\n      sub(shl(0xa0, 0x01), 0x01)\n        /* \"BidMarketplace.sol\":8521:8535  listing.seller */\n      swap3\n      dup4\n      and\n      swap3\n        /* \"BidMarketplace.sol\":8456:8475  listing.nftContract */\n      swap1\n      swap2\n      and\n      swap1\n        /* \"BidMarketplace.sol\":8448:8484  IERC721(listing.nftContract).ownerOf */\n      0x6352211e\n      swap1\n        /* \"#utility.yul\":3528:3546   */\n      0x24\n      add\n        /* \"BidMarketplace.sol\":8448:8501  IERC721(listing.nftContract).ownerOf(listing.tokenId) */\n      0x20\n      mload(0x40)\n      dup1\n      dup4\n      sub\n      dup2\n      dup7\n      gas\n      staticcall\n      iszero\n      dup1\n      iszero\n      tag_210\n      jumpi\n      returndatasize\n      0x00\n      dup1\n      returndatacopy\n      revert(0x00, returndatasize)\n    tag_210:\n      pop\n      pop\n      pop\n      pop\n      mload(0x40)\n      returndatasize\n      not(0x1f)\n      0x1f\n      dup3\n      add\n      and\n      dup3\n      add\n      dup1\n      0x40\n      mstore\n      pop\n      dup2\n      add\n      swap1\n      tag_211\n      swap2\n      swap1\n      tag_212\n      jump\t// in\n    tag_211:\n      sub(shl(0xa0, 0x01), 0x01)\n        /* \"BidMarketplace.sol\":8448:8535  IERC721(listing.nftContract).ownerOf(listing.tokenId) ==... */\n      and\n      eq\n        /* \"BidMarketplace.sol\":8427:8588  require(... */\n      tag_213\n      jumpi\n      mload(0x40)\n      shl(0xe5, 0x461bcd)\n      dup2\n      mstore\n        /* \"#utility.yul\":10834:10836   */\n      0x20\n        /* \"BidMarketplace.sol\":8427:8588  require(... */\n      0x04\n      dup3\n      add\n        /* \"#utility.yul\":10816:10837   */\n      mstore\n        /* \"#utility.yul\":10873:10875   */\n      0x1b\n        /* \"#utility.yul\":10853:10871   */\n      0x24\n      dup3\n      add\n        /* \"#utility.yul\":10846:10876   */\n      mstore\n        /* \"#utility.yul\":10912:10941   */\n      0x53656c6c6572206e6f206c6f6e676572206f776e7320746f6b656e0000000000\n        /* \"#utility.yul\":10892:10910   */\n      0x44\n      dup3\n      add\n        /* \"#utility.yul\":10885:10942   */\n      mstore\n        /* \"#utility.yul\":10959:10977   */\n      0x64\n      add\n        /* \"BidMarketplace.sol\":8427:8588  require(... */\n      tag_193\n        /* \"#utility.yul\":10632:10983   */\n      jump\n        /* \"BidMarketplace.sol\":8427:8588  require(... */\n    tag_213:\n        /* \"BidMarketplace.sol\":8615:8628  listing.price */\n      0x04\n      dup2\n      add\n      sload\n        /* \"BidMarketplace.sol\":8655:8669  listing.seller */\n      dup2\n      sload\n        /* \"BidMarketplace.sol\":8729:8739  feePercent */\n      sload(0x07)\n      sub(shl(0xa0, 0x01), 0x01)\n        /* \"BidMarketplace.sol\":8655:8669  listing.seller */\n      swap1\n      swap2\n      and\n      swap1\n        /* \"BidMarketplace.sol\":8599:8612  uint256 price */\n      0x00\n      swap1\n        /* \"BidMarketplace.sol\":1526:1531  10000 */\n      0x2710\n      swap1\n        /* \"BidMarketplace.sol\":8721:8739  price * feePercent */\n      tag_216\n      swap1\n        /* \"BidMarketplace.sol\":8615:8628  listing.price */\n      dup6\n        /* \"BidMarketplace.sol\":8721:8739  price * feePercent */\n      tag_217\n      jump\t// in\n    tag_216:\n        /* \"BidMarketplace.sol\":8720:8758  (price * feePercent) / FEE_DENOMINATOR */\n      tag_218\n      swap2\n      swap1\n      tag_219\n      jump\t// in\n    tag_218:\n        /* \"BidMarketplace.sol\":8706:8758  uint256 fee = (price * feePercent) / FEE_DENOMINATOR */\n      swap1\n      pop\n        /* \"BidMarketplace.sol\":8768:8788  uint256 sellerAmount */\n      0x00\n        /* \"BidMarketplace.sol\":8791:8802  price - fee */\n      tag_220\n        /* \"BidMarketplace.sol\":8706:8758  uint256 fee = (price * feePercent) / FEE_DENOMINATOR */\n      dup3\n        /* \"BidMarketplace.sol\":8791:8796  price */\n      dup6\n        /* \"BidMarketplace.sol\":8791:8802  price - fee */\n      tag_221\n      jump\t// in\n    tag_220:\n        /* \"BidMarketplace.sol\":8845:8865  listing.paymentToken */\n      0x03\n      dup7\n      add\n      sload\n        /* \"BidMarketplace.sol\":8768:8802  uint256 sellerAmount = price - fee */\n      swap1\n      swap2\n      pop\n      sub(shl(0xa0, 0x01), 0x01)\n        /* \"BidMarketplace.sol\":8845:8865  listing.paymentToken */\n      and\n        /* \"BidMarketplace.sol\":8841:10169  if (listing.paymentToken == address(0)) {... */\n      tag_222\n      jumpi\n        /* \"BidMarketplace.sol\":8950:8955  price */\n      dup4\n        /* \"BidMarketplace.sol\":8937:8946  msg.value */\n      callvalue\n        /* \"BidMarketplace.sol\":8937:8955  msg.value >= price */\n      lt\n      iszero\n        /* \"BidMarketplace.sol\":8929:8980  require(msg.value >= price, \"Insufficient payment\") */\n      tag_223\n      jumpi\n      mload(0x40)\n      shl(0xe5, 0x461bcd)\n      dup2\n      mstore\n        /* \"#utility.yul\":11850:11852   */\n      0x20\n        /* \"BidMarketplace.sol\":8929:8980  require(msg.value >= price, \"Insufficient payment\") */\n      0x04\n      dup3\n      add\n        /* \"#utility.yul\":11832:11853   */\n      mstore\n        /* \"#utility.yul\":11889:11891   */\n      0x14\n        /* \"#utility.yul\":11869:11887   */\n      0x24\n      dup3\n      add\n        /* \"#utility.yul\":11862:11892   */\n      mstore\n      shl(0x62, 0x125b9cdd59999a58da595b9d081c185e5b595b9d)\n        /* \"#utility.yul\":11908:11926   */\n      0x44\n      dup3\n      add\n        /* \"#utility.yul\":11901:11951   */\n      mstore\n        /* \"#utility.yul\":11968:11986   */\n      0x64\n      add\n        /* \"BidMarketplace.sol\":8929:8980  require(msg.value >= price, \"Insufficient payment\") */\n      tag_193\n        /* \"#utility.yul\":11648:11992   */\n      jump\n        /* \"BidMarketplace.sol\":8929:8980  require(msg.value >= price, \"Insufficient payment\") */\n    tag_223:\n        /* \"BidMarketplace.sol\":9026:9044  bool successSeller */\n      0x00\n        /* \"BidMarketplace.sol\":9058:9064  seller */\n      dup4\n      sub(shl(0xa0, 0x01), 0x01)\n        /* \"BidMarketplace.sol\":9050:9070  payable(seller).call */\n      and\n        /* \"BidMarketplace.sol\":9078:9090  sellerAmount */\n      dup3\n        /* \"BidMarketplace.sol\":9050:9125  payable(seller).call{value: sellerAmount}(... */\n      mload(0x40)\n      0x00\n      mload(0x40)\n      dup1\n      dup4\n      sub\n      dup2\n      dup6\n      dup8\n      gas\n      call\n      swap3\n      pop\n      pop\n      pop\n      returndatasize\n      dup1\n      0x00\n      dup2\n      eq\n      tag_230\n      jumpi\n      mload(0x40)\n      swap2\n      pop\n      and(add(returndatasize, 0x3f), not(0x1f))\n      dup3\n      add\n      0x40\n      mstore\n      returndatasize\n      dup3\n      mstore\n      returndatasize\n      0x00\n      0x20\n      dup5\n      add\n      returndatacopy\n      jump(tag_229)\n    tag_230:\n      0x60\n      swap2\n      pop\n    tag_229:\n      pop\n        /* \"BidMarketplace.sol\":9025:9125  (bool successSeller, ) = payable(seller).call{value: sellerAmount}(... */\n      pop\n      swap1\n      pop\n        /* \"BidMarketplace.sol\":9147:9160  successSeller */\n      dup1\n        /* \"BidMarketplace.sol\":9139:9190  require(successSeller, \"Transfer to seller failed\") */\n      tag_231\n      jumpi\n      mload(0x40)\n      shl(0xe5, 0x461bcd)\n      dup2\n      mstore\n      0x04\n      add\n      tag_193\n      swap1\n      tag_233\n      jump\t// in\n    tag_231:\n        /* \"BidMarketplace.sol\":9233:9240  fee > 0 */\n      dup3\n      iszero\n        /* \"BidMarketplace.sol\":9229:9437  if (fee > 0) {... */\n      tag_234\n      jumpi\n        /* \"BidMarketplace.sol\":9290:9302  feeRecipient */\n      sload(0x08)\n        /* \"BidMarketplace.sol\":9282:9362  payable(feeRecipient).call{value: fee}(... */\n      mload(0x40)\n        /* \"BidMarketplace.sol\":9261:9276  bool successFee */\n      0x00\n      swap2\n      sub(shl(0xa0, 0x01), 0x01)\n        /* \"BidMarketplace.sol\":9290:9302  feeRecipient */\n      and\n      swap1\n        /* \"BidMarketplace.sol\":9316:9319  fee */\n      dup6\n      swap1\n        /* \"BidMarketplace.sol\":9261:9276  bool successFee */\n      dup4\n        /* \"BidMarketplace.sol\":9282:9362  payable(feeRecipient).call{value: fee}(... */\n      dup2\n        /* \"BidMarketplace.sol\":9261:9276  bool successFee */\n      dup2\n        /* \"BidMarketplace.sol\":9282:9362  payable(feeRecipient).call{value: fee}(... */\n      dup2\n        /* \"BidMarketplace.sol\":9316:9319  fee */\n      dup6\n        /* \"BidMarketplace.sol\":9290:9302  feeRecipient */\n      dup8\n        /* \"BidMarketplace.sol\":9282:9362  payable(feeRecipient).call{value: fee}(... */\n      gas\n      call\n      swap3\n      pop\n      pop\n      pop\n      returndatasize\n      dup1\n      0x00\n      dup2\n      eq\n      tag_238\n      jumpi\n      mload(0x40)\n      swap2\n      pop\n      and(add(returndatasize, 0x3f), not(0x1f))\n      dup3\n      add\n      0x40\n      mstore\n      returndatasize\n      dup3\n      mstore\n      returndatasize\n      0x00\n      0x20\n      dup5\n      add\n      returndatacopy\n      jump(tag_237)\n    tag_238:\n      0x60\n      swap2\n      pop\n    tag_237:\n      pop\n        /* \"BidMarketplace.sol\":9260:9362  (bool successFee, ) = payable(feeRecipient).call{value: fee}(... */\n      pop\n      swap1\n      pop\n        /* \"BidMarketplace.sol\":9388:9398  successFee */\n      dup1\n        /* \"BidMarketplace.sol\":9380:9422  require(successFee, \"Fee transfer failed\") */\n      tag_239\n      jumpi\n      mload(0x40)\n      shl(0xe5, 0x461bcd)\n      dup2\n      mstore\n      0x04\n      add\n      tag_193\n      swap1\n      tag_241\n      jump\t// in\n    tag_239:\n        /* \"BidMarketplace.sol\":9242:9437  {... */\n      pop\n        /* \"BidMarketplace.sol\":9229:9437  if (fee > 0) {... */\n    tag_234:\n        /* \"BidMarketplace.sol\":9496:9501  price */\n      dup5\n        /* \"BidMarketplace.sol\":9484:9493  msg.value */\n      callvalue\n        /* \"BidMarketplace.sol\":9484:9501  msg.value > price */\n      gt\n        /* \"BidMarketplace.sol\":9480:9710  if (msg.value > price) {... */\n      iszero\n      tag_242\n      jumpi\n        /* \"BidMarketplace.sol\":9522:9540  bool successRefund */\n      0x00\n        /* \"BidMarketplace.sol\":9554:9564  msg.sender */\n      caller\n        /* \"BidMarketplace.sol\":9599:9616  msg.value - price */\n      tag_243\n        /* \"BidMarketplace.sol\":9611:9616  price */\n      dup8\n        /* \"BidMarketplace.sol\":9599:9608  msg.value */\n      callvalue\n        /* \"BidMarketplace.sol\":9599:9616  msg.value - price */\n      tag_221\n      jump\t// in\n    tag_243:\n        /* \"BidMarketplace.sol\":9546:9638  payable(msg.sender).call{... */\n      mload(0x40)\n      0x00\n      dup2\n      dup2\n      dup2\n      dup6\n      dup8\n      gas\n      call\n      swap3\n      pop\n      pop\n      pop\n      returndatasize\n      dup1\n      0x00\n      dup2\n      eq\n      tag_247\n      jumpi\n      mload(0x40)\n      swap2\n      pop\n      and(add(returndatasize, 0x3f), not(0x1f))\n      dup3\n      add\n      0x40\n      mstore\n      returndatasize\n      dup3\n      mstore\n      returndatasize\n      0x00\n      0x20\n      dup5\n      add\n      returndatacopy\n      jump(tag_246)\n    tag_247:\n      0x60\n      swap2\n      pop\n    tag_246:\n      pop\n        /* \"BidMarketplace.sol\":9521:9638  (bool successRefund, ) = payable(msg.sender).call{... */\n      pop\n      swap1\n      pop\n        /* \"BidMarketplace.sol\":9664:9677  successRefund */\n      dup1\n        /* \"BidMarketplace.sol\":9656:9695  require(successRefund, \"Refund failed\") */\n      tag_248\n      jumpi\n      mload(0x40)\n      shl(0xe5, 0x461bcd)\n      dup2\n      mstore\n        /* \"#utility.yul\":13111:13113   */\n      0x20\n        /* \"BidMarketplace.sol\":9656:9695  require(successRefund, \"Refund failed\") */\n      0x04\n      dup3\n      add\n        /* \"#utility.yul\":13093:13114   */\n      mstore\n        /* \"#utility.yul\":13150:13152   */\n      0x0d\n        /* \"#utility.yul\":13130:13148   */\n      0x24\n      dup3\n      add\n        /* \"#utility.yul\":13123:13153   */\n      mstore\n      shl(0x9a, 0x1499599d5b990819985a5b1959)\n        /* \"#utility.yul\":13169:13187   */\n      0x44\n      dup3\n      add\n        /* \"#utility.yul\":13162:13205   */\n      mstore\n        /* \"#utility.yul\":13222:13240   */\n      0x64\n      add\n        /* \"BidMarketplace.sol\":9656:9695  require(successRefund, \"Refund failed\") */\n      tag_193\n        /* \"#utility.yul\":12909:13246   */\n      jump\n        /* \"BidMarketplace.sol\":9656:9695  require(successRefund, \"Refund failed\") */\n    tag_248:\n        /* \"BidMarketplace.sol\":9503:9710  {... */\n      pop\n        /* \"BidMarketplace.sol\":9480:9710  if (msg.value > price) {... */\n    tag_242:\n        /* \"BidMarketplace.sol\":8881:9720  {... */\n      pop\n        /* \"BidMarketplace.sol\":8841:10169  if (listing.paymentToken == address(0)) {... */\n      jump(tag_251)\n    tag_222:\n        /* \"BidMarketplace.sol\":9789:9809  listing.paymentToken */\n      0x03\n      dup6\n      add\n      sload\n        /* \"BidMarketplace.sol\":9849:9901  token.transferFrom(msg.sender, seller, sellerAmount) */\n      mload(0x40)\n      shl(0xe0, 0x23b872dd)\n      dup2\n      mstore\n      sub(shl(0xa0, 0x01), 0x01)\n        /* \"BidMarketplace.sol\":9789:9809  listing.paymentToken */\n      swap1\n      swap2\n      and\n      swap1\n      dup2\n      swap1\n        /* \"BidMarketplace.sol\":9849:9867  token.transferFrom */\n      0x23b872dd\n      swap1\n        /* \"BidMarketplace.sol\":9849:9901  token.transferFrom(msg.sender, seller, sellerAmount) */\n      tag_252\n      swap1\n        /* \"BidMarketplace.sol\":9868:9878  msg.sender */\n      caller\n      swap1\n        /* \"BidMarketplace.sol\":9880:9886  seller */\n      dup9\n      swap1\n        /* \"BidMarketplace.sol\":9888:9900  sellerAmount */\n      dup8\n      swap1\n        /* \"BidMarketplace.sol\":9849:9901  token.transferFrom(msg.sender, seller, sellerAmount) */\n      0x04\n      add\n      tag_253\n      jump\t// in\n    tag_252:\n      0x20\n      mload(0x40)\n      dup1\n      dup4\n      sub\n      dup2\n      0x00\n      dup8\n      gas\n      call\n      iszero\n      dup1\n      iszero\n      tag_255\n      jumpi\n      returndatasize\n      0x00\n      dup1\n      returndatacopy\n      revert(0x00, returndatasize)\n    tag_255:\n      pop\n      pop\n      pop\n      pop\n      mload(0x40)\n      returndatasize\n      not(0x1f)\n      0x1f\n      dup3\n      add\n      and\n      dup3\n      add\n      dup1\n      0x40\n      mstore\n      pop\n      dup2\n      add\n      swap1\n      tag_256\n      swap2\n      swap1\n      tag_257\n      jump\t// in\n    tag_256:\n        /* \"BidMarketplace.sol\":9824:9960  require(... */\n      tag_258\n      jumpi\n      mload(0x40)\n      shl(0xe5, 0x461bcd)\n      dup2\n      mstore\n      0x04\n      add\n      tag_193\n      swap1\n      tag_233\n      jump\t// in\n    tag_258:\n        /* \"BidMarketplace.sol\":9978:9985  fee > 0 */\n      dup3\n      iszero\n        /* \"BidMarketplace.sol\":9974:10159  if (fee > 0) {... */\n      tag_265\n      jumpi\n        /* \"BidMarketplace.sol\":10065:10077  feeRecipient */\n      sload(0x08)\n        /* \"BidMarketplace.sol\":10034:10083  token.transferFrom(msg.sender, feeRecipient, fee) */\n      mload(0x40)\n      shl(0xe0, 0x23b872dd)\n      dup2\n      mstore\n      sub(shl(0xa0, 0x01), 0x01)\n        /* \"BidMarketplace.sol\":10034:10052  token.transferFrom */\n      dup1\n      dup5\n      and\n      swap3\n      0x23b872dd\n      swap3\n        /* \"BidMarketplace.sol\":10034:10083  token.transferFrom(msg.sender, feeRecipient, fee) */\n      tag_261\n      swap3\n        /* \"BidMarketplace.sol\":10053:10063  msg.sender */\n      caller\n      swap3\n        /* \"BidMarketplace.sol\":10065:10077  feeRecipient */\n      and\n      swap1\n        /* \"BidMarketplace.sol\":10079:10082  fee */\n      dup9\n      swap1\n        /* \"BidMarketplace.sol\":10034:10083  token.transferFrom(msg.sender, feeRecipient, fee) */\n      0x04\n      add\n      tag_253\n      jump\t// in\n    tag_261:\n      0x20\n      mload(0x40)\n      dup1\n      dup4\n      sub\n      dup2\n      0x00\n      dup8\n      gas\n      call\n      iszero\n      dup1\n      iszero\n      tag_263\n      jumpi\n      returndatasize\n      0x00\n      dup1\n      returndatacopy\n      revert(0x00, returndatasize)\n    tag_263:\n      pop\n      pop\n      pop\n      pop\n      mload(0x40)\n      returndatasize\n      not(0x1f)\n      0x1f\n      dup3\n      add\n      and\n      dup3\n      add\n      dup1\n      0x40\n      mstore\n      pop\n      dup2\n      add\n      swap1\n      tag_264\n      swap2\n      swap1\n      tag_257\n      jump\t// in\n    tag_264:\n        /* \"BidMarketplace.sol\":10005:10144  require(... */\n      tag_265\n      jumpi\n      mload(0x40)\n      shl(0xe5, 0x461bcd)\n      dup2\n      mstore\n      0x04\n      add\n      tag_193\n      swap1\n      tag_241\n      jump\t// in\n    tag_265:\n        /* \"BidMarketplace.sol\":9726:10169  {... */\n      pop\n        /* \"BidMarketplace.sol\":8841:10169  if (listing.paymentToken == address(0)) {... */\n    tag_251:\n        /* \"BidMarketplace.sol\":10211:10230  listing.nftContract */\n      0x01\n      dup6\n      add\n      sload\n        /* \"BidMarketplace.sol\":10306:10321  listing.tokenId */\n      0x02\n      dup7\n      add\n      sload\n        /* \"BidMarketplace.sol\":10203:10331  IERC721(listing.nftContract).safeTransferFrom(... */\n      mload(0x40)\n      shl(0xe1, 0x21421707)\n      dup2\n      mstore\n      sub(shl(0xa0, 0x01), 0x01)\n        /* \"BidMarketplace.sol\":10211:10230  listing.nftContract */\n      swap1\n      swap3\n      and\n      swap2\n        /* \"BidMarketplace.sol\":10203:10248  IERC721(listing.nftContract).safeTransferFrom */\n      0x42842e0e\n      swap2\n        /* \"BidMarketplace.sol\":10203:10331  IERC721(listing.nftContract).safeTransferFrom(... */\n      tag_267\n      swap2\n        /* \"BidMarketplace.sol\":10262:10268  seller */\n      dup8\n      swap2\n        /* \"BidMarketplace.sol\":10282:10292  msg.sender */\n      caller\n      swap2\n        /* \"BidMarketplace.sol\":10203:10331  IERC721(listing.nftContract).safeTransferFrom(... */\n      0x04\n      add\n      tag_253\n      jump\t// in\n    tag_267:\n      0x00\n      mload(0x40)\n      dup1\n      dup4\n      sub\n      dup2\n      0x00\n      dup8\n      dup1\n      extcodesize\n      iszero\n      dup1\n      iszero\n      tag_268\n      jumpi\n      0x00\n      dup1\n      revert\n    tag_268:\n      pop\n      gas\n      call\n      iszero\n      dup1\n      iszero\n      tag_270\n      jumpi\n      returndatasize\n      0x00\n      dup1\n      returndatacopy\n      revert(0x00, returndatasize)\n    tag_270:\n      pop\n      pop\n      pop\n      pop\n        /* \"BidMarketplace.sol\":10370:10384  listing.active */\n      0x05\n      dup6\n      add\n        /* \"BidMarketplace.sol\":10370:10392  listing.active = false */\n      dup1\n      sload\n      not(0xff)\n      and\n      swap1\n      sstore\n      0x01\n        /* \"BidMarketplace.sol\":10417:10436  listing.nftContract */\n      dup6\n      add\n      dup1\n      sload\n      sub(shl(0xa0, 0x01), 0x01)\n      swap1\n      dup2\n      and\n      0x00\n        /* \"BidMarketplace.sol\":10402:10437  tokenToListing[listing.nftContract] */\n      swap1\n      dup2\n      mstore\n        /* \"BidMarketplace.sol\":10402:10416  tokenToListing */\n      0x06\n        /* \"BidMarketplace.sol\":10402:10437  tokenToListing[listing.nftContract] */\n      0x20\n      swap1\n      dup2\n      mstore\n      0x40\n      dup1\n      dup4\n      keccak256\n        /* \"BidMarketplace.sol\":10438:10453  listing.tokenId */\n      0x02\n      dup12\n      add\n      dup1\n      sload\n        /* \"BidMarketplace.sol\":10402:10454  tokenToListing[listing.nftContract][listing.tokenId] */\n      dup6\n      mstore\n      swap1\n      dup4\n      mstore\n      dup2\n      dup5\n      keccak256\n        /* \"BidMarketplace.sol\":10402:10458  tokenToListing[listing.nftContract][listing.tokenId] = 0 */\n      swap4\n      swap1\n      swap4\n      sstore\n        /* \"BidMarketplace.sol\":10559:10578  listing.nftContract */\n      swap4\n      sload\n        /* \"BidMarketplace.sol\":10592:10607  listing.tokenId */\n      swap2\n      sload\n        /* \"BidMarketplace.sol\":10474:10636  Sold(... */\n      dup5\n      mload\n        /* \"BidMarketplace.sol\":10559:10578  listing.nftContract */\n      swap3\n      dup5\n      and\n        /* \"#utility.yul\":14083:14134   */\n      dup4\n      mstore\n        /* \"#utility.yul\":14150:14168   */\n      swap1\n      dup3\n      add\n        /* \"#utility.yul\":14143:14177   */\n      mstore\n        /* \"#utility.yul\":14193:14211   */\n      swap2\n      dup3\n      add\n        /* \"#utility.yul\":14186:14220   */\n      dup7\n      swap1\n      mstore\n        /* \"BidMarketplace.sol\":10474:10636  Sold(... */\n      dup5\n      and\n      swap1\n        /* \"BidMarketplace.sol\":10515:10525  msg.sender */\n      caller\n      swap1\n        /* \"BidMarketplace.sol\":10492:10501  listingId */\n      dup9\n      swap1\n        /* \"BidMarketplace.sol\":10474:10636  Sold(... */\n      0x87668bf59b21c78084390260eb626847b730caddc5b38199cf1c27ad39954b83\n      swap1\n        /* \"#utility.yul\":14071:14073   */\n      0x60\n        /* \"#utility.yul\":14056:14074   */\n      add\n        /* \"BidMarketplace.sol\":10474:10636  Sold(... */\n      mload(0x40)\n      dup1\n      swap2\n      sub\n      swap1\n      log4\n        /* \"BidMarketplace.sol\":8307:10643  {... */\n      pop\n      pop\n      pop\n      pop\n      pop\n        /* \"@openzeppelin/contracts/security/ReentrancyGuard.sol\":2303:2323  _nonReentrantAfter() */\n      tag_198\n        /* \"@openzeppelin/contracts/security/ReentrancyGuard.sol\":1716:1717  1 */\n      0x01\n        /* \"@openzeppelin/contracts/security/ReentrancyGuard.sol\":2809:2816  _status */\n      0x00\n        /* \"@openzeppelin/contracts/security/ReentrancyGuard.sol\":2809:2831  _status = _NOT_ENTERED */\n      sstore\n        /* \"@openzeppelin/contracts/security/ReentrancyGuard.sol\":2629:2838  function _nonReentrantAfter() private {... */\n      jump\n        /* \"@openzeppelin/contracts/access/Ownable.sol\":2293:2394  function renounceOwnership() public virtual onlyOwner {... */\n    tag_99:\n        /* \"@openzeppelin/contracts/access/Ownable.sol\":1531:1544  _checkOwner() */\n      tag_275\n        /* \"@openzeppelin/contracts/access/Ownable.sol\":1531:1542  _checkOwner */\n      tag_181\n        /* \"@openzeppelin/contracts/access/Ownable.sol\":1531:1544  _checkOwner() */\n      jump\t// in\n    tag_275:\n        /* \"@openzeppelin/contracts/access/Ownable.sol\":2357:2387  _transferOwnership(address(0)) */\n      tag_277\n        /* \"@openzeppelin/contracts/access/Ownable.sol\":2384:2385  0 */\n      0x00\n        /* \"@openzeppelin/contracts/access/Ownable.sol\":2357:2375  _transferOwnership */\n      tag_278\n        /* \"@openzeppelin/contracts/access/Ownable.sol\":2357:2387  _transferOwnership(address(0)) */\n      jump\t// in\n    tag_277:\n        /* \"@openzeppelin/contracts/access/Ownable.sol\":2293:2394  function renounceOwnership() public virtual onlyOwner {... */\n      jump\t// out\n        /* \"BidMarketplace.sol\":15192:15414  function setFeePercent(uint256 newFeePercent) external onlyOwner {... */\n    tag_103:\n        /* \"@openzeppelin/contracts/access/Ownable.sol\":1531:1544  _checkOwner() */\n      tag_280\n        /* \"@openzeppelin/contracts/access/Ownable.sol\":1531:1542  _checkOwner */\n      tag_181\n        /* \"@openzeppelin/contracts/access/Ownable.sol\":1531:1544  _checkOwner() */\n      jump\t// in\n    tag_280:\n        /* \"BidMarketplace.sol\":15292:15296  1000 */\n      0x03e8\n        /* \"BidMarketplace.sol\":15275:15288  newFeePercent */\n      dup2\n        /* \"BidMarketplace.sol\":15275:15296  newFeePercent <= 1000 */\n      gt\n      iszero\n        /* \"BidMarketplace.sol\":15267:15313  require(newFeePercent <= 1000, \"Fee too high\") */\n      tag_282\n      jumpi\n      mload(0x40)\n      shl(0xe5, 0x461bcd)\n      dup2\n      mstore\n        /* \"#utility.yul\":14433:14435   */\n      0x20\n        /* \"BidMarketplace.sol\":15267:15313  require(newFeePercent <= 1000, \"Fee too high\") */\n      0x04\n      dup3\n      add\n        /* \"#utility.yul\":14415:14436   */\n      mstore\n        /* \"#utility.yul\":14472:14474   */\n      0x0c\n        /* \"#utility.yul\":14452:14470   */\n      0x24\n      dup3\n      add\n        /* \"#utility.yul\":14445:14475   */\n      mstore\n      shl(0xa3, 0x08ccaca40e8dede40d0d2ced)\n        /* \"#utility.yul\":14491:14509   */\n      0x44\n      dup3\n      add\n        /* \"#utility.yul\":14484:14526   */\n      mstore\n        /* \"#utility.yul\":14543:14561   */\n      0x64\n      add\n        /* \"BidMarketplace.sol\":15267:15313  require(newFeePercent <= 1000, \"Fee too high\") */\n      tag_193\n        /* \"#utility.yul\":14231:14567   */\n      jump\n        /* \"BidMarketplace.sol\":15267:15313  require(newFeePercent <= 1000, \"Fee too high\") */\n    tag_282:\n        /* \"BidMarketplace.sol\":15334:15344  feePercent */\n      0x07\n        /* \"BidMarketplace.sol\":15334:15360  feePercent = newFeePercent */\n      dup2\n      swap1\n      sstore\n        /* \"BidMarketplace.sol\":15375:15407  FeePercentUpdated(newFeePercent) */\n      mload(0x40)\n        /* \"#utility.yul\":3555:3580   */\n      dup2\n      dup2\n      mstore\n        /* \"BidMarketplace.sol\":15375:15407  FeePercentUpdated(newFeePercent) */\n      0x64d1887078a96d281ed60dd69ba75bfb6b5cd2cb4c2d2538b2eb7816a4c646ea\n      swap1\n        /* \"#utility.yul\":3543:3545   */\n      0x20\n        /* \"#utility.yul\":3528:3546   */\n      add\n        /* \"BidMarketplace.sol\":15375:15407  FeePercentUpdated(newFeePercent) */\n    tag_285:\n      mload(0x40)\n      dup1\n      swap2\n      sub\n      swap1\n      log1\n        /* \"BidMarketplace.sol\":15192:15414  function setFeePercent(uint256 newFeePercent) external onlyOwner {... */\n      pop\n      jump\t// out\n        /* \"BidMarketplace.sol\":3627:4955  function createListing(... */\n    tag_126:\n        /* \"BidMarketplace.sol\":3804:3811  uint256 */\n      0x00\n        /* \"@openzeppelin/contracts/security/ReentrancyGuard.sol\":2261:2282  _nonReentrantBefore() */\n      tag_288\n        /* \"@openzeppelin/contracts/security/ReentrancyGuard.sol\":2261:2280  _nonReentrantBefore */\n      tag_188\n        /* \"@openzeppelin/contracts/security/ReentrancyGuard.sol\":2261:2282  _nonReentrantBefore() */\n      jump\t// in\n    tag_288:\n        /* \"@openzeppelin/contracts/access/Ownable.sol\":1531:1544  _checkOwner() */\n      tag_290\n        /* \"@openzeppelin/contracts/access/Ownable.sol\":1531:1542  _checkOwner */\n      tag_181\n        /* \"@openzeppelin/contracts/access/Ownable.sol\":1531:1544  _checkOwner() */\n      jump\t// in\n    tag_290:\n        /* \"BidMarketplace.sol\":3839:3840  0 */\n      0x00\n        /* \"BidMarketplace.sol\":3831:3836  price */\n      dup3\n        /* \"BidMarketplace.sol\":3831:3840  price > 0 */\n      gt\n        /* \"BidMarketplace.sol\":3823:3862  require(price > 0, \"Price must be > 0\") */\n      tag_292\n      jumpi\n      mload(0x40)\n      shl(0xe5, 0x461bcd)\n      dup2\n      mstore\n      0x04\n      add\n      tag_193\n      swap1\n      tag_294\n      jump\t// in\n    tag_292:\n      sub(shl(0xa0, 0x01), 0x01)\n        /* \"BidMarketplace.sol\":3893:3927  allowedPaymentTokens[paymentToken] */\n      dup4\n      and\n      0x00\n      swap1\n      dup2\n      mstore\n        /* \"BidMarketplace.sol\":3893:3913  allowedPaymentTokens */\n      0x09\n        /* \"BidMarketplace.sol\":3893:3927  allowedPaymentTokens[paymentToken] */\n      0x20\n      mstore\n      0x40\n      swap1\n      keccak256\n      sload\n      0xff\n      and\n        /* \"BidMarketplace.sol\":3872:3978  require(... */\n      tag_295\n      jumpi\n      mload(0x40)\n      shl(0xe5, 0x461bcd)\n      dup2\n      mstore\n        /* \"#utility.yul\":15120:15122   */\n      0x20\n        /* \"BidMarketplace.sol\":3872:3978  require(... */\n      0x04\n      dup3\n      add\n        /* \"#utility.yul\":15102:15123   */\n      mstore\n        /* \"#utility.yul\":15159:15161   */\n      0x19\n        /* \"#utility.yul\":15139:15157   */\n      0x24\n      dup3\n      add\n        /* \"#utility.yul\":15132:15162   */\n      mstore\n      shl(0x3a, 0x14185e5b595b9d081d1bdad95b881b9bdd08185b1b1bddd959)\n        /* \"#utility.yul\":15178:15196   */\n      0x44\n      dup3\n      add\n        /* \"#utility.yul\":15171:15226   */\n      mstore\n        /* \"#utility.yul\":15243:15261   */\n      0x64\n      add\n        /* \"BidMarketplace.sol\":3872:3978  require(... */\n      tag_193\n        /* \"#utility.yul\":14918:15267   */\n      jump\n        /* \"BidMarketplace.sol\":3872:3978  require(... */\n    tag_295:\n        /* \"BidMarketplace.sol\":4009:4046  IERC721(nftContract).ownerOf(tokenId) */\n      mload(0x40)\n      shl(0xe1, 0x31a9108f)\n      dup2\n      mstore\n      0x04\n      dup2\n      add\n        /* \"#utility.yul\":3555:3580   */\n      dup6\n      swap1\n      mstore\n        /* \"BidMarketplace.sol\":4050:4060  msg.sender */\n      caller\n      swap1\n      sub(shl(0xa0, 0x01), 0x01)\n        /* \"BidMarketplace.sol\":4009:4037  IERC721(nftContract).ownerOf */\n      dup8\n      and\n      swap1\n      0x6352211e\n      swap1\n        /* \"#utility.yul\":3528:3546   */\n      0x24\n      add\n        /* \"BidMarketplace.sol\":4009:4046  IERC721(nftContract).ownerOf(tokenId) */\n      0x20\n      mload(0x40)\n      dup1\n      dup4\n      sub\n      dup2\n      dup7\n      gas\n      staticcall\n      iszero\n      dup1\n      iszero\n      tag_300\n      jumpi\n      returndatasize\n      0x00\n      dup1\n      returndatacopy\n      revert(0x00, returndatasize)\n    tag_300:\n      pop\n      pop\n      pop\n      pop\n      mload(0x40)\n      returndatasize\n      not(0x1f)\n      0x1f\n      dup3\n      add\n      and\n      dup3\n      add\n      dup1\n      0x40\n      mstore\n      pop\n      dup2\n      add\n      swap1\n      tag_301\n      swap2\n      swap1\n      tag_212\n      jump\t// in\n    tag_301:\n      sub(shl(0xa0, 0x01), 0x01)\n        /* \"BidMarketplace.sol\":4009:4060  IERC721(nftContract).ownerOf(tokenId) == msg.sender */\n      and\n      eq\n        /* \"BidMarketplace.sol\":3988:4101  require(... */\n      tag_302\n      jumpi\n      mload(0x40)\n      shl(0xe5, 0x461bcd)\n      dup2\n      mstore\n        /* \"#utility.yul\":15474:15476   */\n      0x20\n        /* \"BidMarketplace.sol\":3988:4101  require(... */\n      0x04\n      dup3\n      add\n        /* \"#utility.yul\":15456:15477   */\n      mstore\n        /* \"#utility.yul\":15513:15515   */\n      0x0f\n        /* \"#utility.yul\":15493:15511   */\n      0x24\n      dup3\n      add\n        /* \"#utility.yul\":15486:15516   */\n      mstore\n      shl(0x89, 0x2737ba103a37b5b2b71037bbb732b9)\n        /* \"#utility.yul\":15532:15550   */\n      0x44\n      dup3\n      add\n        /* \"#utility.yul\":15525:15570   */\n      mstore\n        /* \"#utility.yul\":15587:15605   */\n      0x64\n      add\n        /* \"BidMarketplace.sol\":3988:4101  require(... */\n      tag_193\n        /* \"#utility.yul\":15272:15611   */\n      jump\n        /* \"BidMarketplace.sol\":3988:4101  require(... */\n    tag_302:\n        /* \"BidMarketplace.sol\":4132:4196  IERC721(nftContract).isApprovedForAll(msg.sender, address(this)) */\n      mload(0x40)\n      shl(0xe0, 0xe985e9c5)\n      dup2\n      mstore\n        /* \"BidMarketplace.sol\":4170:4180  msg.sender */\n      caller\n        /* \"BidMarketplace.sol\":4132:4196  IERC721(nftContract).isApprovedForAll(msg.sender, address(this)) */\n      0x04\n      dup3\n      add\n        /* \"#utility.yul\":15828:15862   */\n      mstore\n        /* \"BidMarketplace.sol\":4190:4194  this */\n      address\n        /* \"#utility.yul\":15878:15896   */\n      0x24\n      dup3\n      add\n        /* \"#utility.yul\":15871:15914   */\n      mstore\n      sub(shl(0xa0, 0x01), 0x01)\n        /* \"BidMarketplace.sol\":4132:4169  IERC721(nftContract).isApprovedForAll */\n      dup7\n      and\n      swap1\n      0xe985e9c5\n      swap1\n        /* \"#utility.yul\":15763:15781   */\n      0x44\n      add\n        /* \"BidMarketplace.sol\":4132:4196  IERC721(nftContract).isApprovedForAll(msg.sender, address(this)) */\n      0x20\n      mload(0x40)\n      dup1\n      dup4\n      sub\n      dup2\n      dup7\n      gas\n      staticcall\n      iszero\n      dup1\n      iszero\n      tag_308\n      jumpi\n      returndatasize\n      0x00\n      dup1\n      returndatacopy\n      revert(0x00, returndatasize)\n    tag_308:\n      pop\n      pop\n      pop\n      pop\n      mload(0x40)\n      returndatasize\n      not(0x1f)\n      0x1f\n      dup3\n      add\n      and\n      dup3\n      add\n      dup1\n      0x40\n      mstore\n      pop\n      dup2\n      add\n      swap1\n      tag_309\n      swap2\n      swap1\n      tag_257\n      jump\t// in\n    tag_309:\n        /* \"BidMarketplace.sol\":4132:4274  IERC721(nftContract).isApprovedForAll(msg.sender, address(this)) ||... */\n      dup1\n      tag_310\n      jumpi\n      pop\n        /* \"BidMarketplace.sol\":4216:4257  IERC721(nftContract).getApproved(tokenId) */\n      mload(0x40)\n      shl(0xe2, 0x020604bf)\n      dup2\n      mstore\n      0x04\n      dup2\n      add\n        /* \"#utility.yul\":3555:3580   */\n      dup6\n      swap1\n      mstore\n        /* \"BidMarketplace.sol\":4269:4273  this */\n      address\n      swap1\n      sub(shl(0xa0, 0x01), 0x01)\n        /* \"BidMarketplace.sol\":4216:4248  IERC721(nftContract).getApproved */\n      dup8\n      and\n      swap1\n      0x081812fc\n      swap1\n        /* \"#utility.yul\":3528:3546   */\n      0x24\n      add\n        /* \"BidMarketplace.sol\":4216:4257  IERC721(nftContract).getApproved(tokenId) */\n      0x20\n      mload(0x40)\n      dup1\n      dup4\n      sub\n      dup2\n      dup7\n      gas\n      staticcall\n      iszero\n      dup1\n      iszero\n      tag_313\n      jumpi\n      returndatasize\n      0x00\n      dup1\n      returndatacopy\n      revert(0x00, returndatasize)\n    tag_313:\n      pop\n      pop\n      pop\n      pop\n      mload(0x40)\n      returndatasize\n      not(0x1f)\n      0x1f\n      dup3\n      add\n      and\n      dup3\n      add\n      dup1\n      0x40\n      mstore\n      pop\n      dup2\n      add\n      swap1\n      tag_314\n      swap2\n      swap1\n      tag_212\n      jump\t// in\n    tag_314:\n      sub(shl(0xa0, 0x01), 0x01)\n        /* \"BidMarketplace.sol\":4216:4274  IERC721(nftContract).getApproved(tokenId) == address(this) */\n      and\n      eq\n        /* \"BidMarketplace.sol\":4132:4274  IERC721(nftContract).isApprovedForAll(msg.sender, address(this)) ||... */\n    tag_310:\n        /* \"BidMarketplace.sol\":4111:4324  require(... */\n      tag_315\n      jumpi\n      mload(0x40)\n      shl(0xe5, 0x461bcd)\n      dup2\n      mstore\n      0x04\n      add\n      tag_193\n      swap1\n      tag_317\n      jump\t// in\n    tag_315:\n      sub(shl(0xa0, 0x01), 0x01)\n        /* \"BidMarketplace.sol\":4342:4369  tokenToListing[nftContract] */\n      dup6\n      and\n      0x00\n      swap1\n      dup2\n      mstore\n        /* \"BidMarketplace.sol\":4342:4356  tokenToListing */\n      0x06\n        /* \"BidMarketplace.sol\":4342:4369  tokenToListing[nftContract] */\n      0x20\n      swap1\n      dup2\n      mstore\n      0x40\n      dup1\n      dup4\n      keccak256\n        /* \"BidMarketplace.sol\":4342:4378  tokenToListing[nftContract][tokenId] */\n      dup8\n      dup5\n      mstore\n      swap1\n      swap2\n      mstore\n      swap1\n      keccak256\n      sload\n        /* \"BidMarketplace.sol\":4342:4383  tokenToListing[nftContract][tokenId] == 0 */\n      iszero\n        /* \"BidMarketplace.sol\":4334:4402  require(tokenToListing[nftContract][tokenId] == 0, \"Already listed\") */\n      tag_318\n      jumpi\n      mload(0x40)\n      shl(0xe5, 0x461bcd)\n      dup2\n      mstore\n        /* \"#utility.yul\":16480:16482   */\n      0x20\n        /* \"BidMarketplace.sol\":4334:4402  require(tokenToListing[nftContract][tokenId] == 0, \"Already listed\") */\n      0x04\n      dup3\n      add\n        /* \"#utility.yul\":16462:16483   */\n      mstore\n        /* \"#utility.yul\":16519:16521   */\n      0x0e\n        /* \"#utility.yul\":16499:16517   */\n      0x24\n      dup3\n      add\n        /* \"#utility.yul\":16492:16522   */\n      mstore\n      shl(0x92, 0x105b1c9958591e481b1a5cdd1959)\n        /* \"#utility.yul\":16538:16556   */\n      0x44\n      dup3\n      add\n        /* \"#utility.yul\":16531:16575   */\n      mstore\n        /* \"#utility.yul\":16592:16610   */\n      0x64\n      add\n        /* \"BidMarketplace.sol\":4334:4402  require(tokenToListing[nftContract][tokenId] == 0, \"Already listed\") */\n      tag_193\n        /* \"#utility.yul\":16278:16616   */\n      jump\n        /* \"BidMarketplace.sol\":4334:4402  require(tokenToListing[nftContract][tokenId] == 0, \"Already listed\") */\n    tag_318:\n        /* \"BidMarketplace.sol\":4413:4430  uint256 listingId */\n      0x00\n        /* \"BidMarketplace.sol\":4435:4448  nextListingId */\n      0x03\n      0x00\n        /* \"BidMarketplace.sol\":4433:4448  ++nextListingId */\n      dup2\n      sload\n      tag_321\n      swap1\n      tag_322\n      jump\t// in\n    tag_321:\n      swap2\n      dup3\n      swap1\n      sstore\n      pop\n        /* \"BidMarketplace.sol\":4481:4692  Listing({... */\n      0x40\n      dup1\n      mload\n      0xc0\n      dup2\n      add\n      dup3\n      mstore\n        /* \"BidMarketplace.sol\":4511:4521  msg.sender */\n      caller\n        /* \"BidMarketplace.sol\":4481:4692  Listing({... */\n      dup1\n      dup3\n      mstore\n      sub(shl(0xa0, 0x01), 0x01)\n      dup11\n      dup2\n      and\n      0x20\n      dup1\n      dup6\n      add\n      dup3\n      dup2\n      mstore\n      dup6\n      dup8\n      add\n      dup14\n      dup2\n      mstore\n      dup13\n      dup6\n      and\n      0x60\n      dup9\n      add\n      swap1\n      dup2\n      mstore\n      0x80\n      dup9\n      add\n      dup14\n      dup2\n      mstore\n        /* \"BidMarketplace.sol\":4677:4681  true */\n      0x01\n        /* \"BidMarketplace.sol\":4481:4692  Listing({... */\n      0xa0\n      dup11\n      add\n      dup2\n      dup2\n      mstore\n      0x00\n        /* \"BidMarketplace.sol\":4459:4478  listings[listingId] */\n      dup14\n      dup2\n      mstore\n        /* \"BidMarketplace.sol\":4459:4467  listings */\n      0x02\n        /* \"BidMarketplace.sol\":4459:4478  listings[listingId] */\n      dup1\n      dup10\n      mstore\n      dup14\n      dup3\n      keccak256\n        /* \"BidMarketplace.sol\":4459:4692  listings[listingId] = Listing({... */\n      swap13\n      mload\n      dup14\n      sload\n      swap1\n      dup13\n      and\n      not(sub(shl(0xa0, 0x01), 0x01))\n      swap2\n      dup3\n      and\n      or\n      dup15\n      sstore\n      swap8\n      mload\n      swap4\n      dup14\n      add\n      dup1\n      sload\n      swap5\n      dup13\n      and\n      swap5\n      dup10\n      and\n      swap5\n      swap1\n      swap5\n      or\n      swap1\n      swap4\n      sstore\n      swap5\n      mload\n      swap2\n      dup12\n      add\n      swap2\n      swap1\n      swap2\n      sstore\n      swap2\n      mload\n      0x03\n      dup11\n      add\n      dup1\n      sload\n      swap2\n      swap1\n      swap9\n      and\n      swap5\n      and\n      swap4\n      swap1\n      swap4\n      or\n      swap1\n      swap6\n      sstore\n      swap1\n      mload\n      0x04\n      dup8\n      add\n      sstore\n      swap3\n      mload\n      0x05\n      swap1\n      swap6\n      add\n      dup1\n      sload\n      swap6\n      iszero\n      iszero\n      not(0xff)\n      swap1\n      swap7\n      and\n      swap6\n      swap1\n      swap6\n      or\n      swap1\n      swap5\n      sstore\n        /* \"BidMarketplace.sol\":4703:4730  tokenToListing[nftContract] */\n      dup1\n      dup3\n      mstore\n        /* \"BidMarketplace.sol\":4703:4717  tokenToListing */\n      0x06\n        /* \"BidMarketplace.sol\":4703:4730  tokenToListing[nftContract] */\n      dup5\n      mstore\n      dup5\n      dup3\n      keccak256\n        /* \"BidMarketplace.sol\":4703:4739  tokenToListing[nftContract][tokenId] */\n      dup12\n      dup4\n      mstore\n      swap1\n      swap4\n      mstore\n      dup4\n      swap1\n      keccak256\n        /* \"BidMarketplace.sol\":4703:4751  tokenToListing[nftContract][tokenId] = listingId */\n      dup5\n      swap1\n      sstore\n        /* \"BidMarketplace.sol\":4767:4921  Listed(... */\n      swap2\n      mload\n        /* \"BidMarketplace.sol\":4433:4448  ++nextListingId */\n      swap3\n      swap4\n      pop\n        /* \"BidMarketplace.sol\":4481:4692  Listing({... */\n      swap2\n        /* \"BidMarketplace.sol\":4433:4448  ++nextListingId */\n      dup4\n      swap1\n        /* \"BidMarketplace.sol\":4767:4921  Listed(... */\n      0xf270d40e4ce0790fe62574668b19edbd345bdfc4b0e945ada622c5fe65f3e0c4\n      swap1\n      tag_323\n      swap1\n        /* \"BidMarketplace.sol\":4582:4589  tokenId */\n      dup11\n      swap1\n        /* \"BidMarketplace.sol\":4617:4629  paymentToken */\n      dup11\n      swap1\n        /* \"BidMarketplace.sol\":4650:4655  price */\n      dup11\n      swap1\n        /* \"#utility.yul\":16963:16988   */\n      swap3\n      dup4\n      mstore\n      sub(shl(0xa0, 0x01), 0x01)\n        /* \"#utility.yul\":17024:17056   */\n      swap2\n      swap1\n      swap2\n      and\n        /* \"#utility.yul\":17019:17021   */\n      0x20\n        /* \"#utility.yul\":17004:17022   */\n      dup4\n      add\n        /* \"#utility.yul\":16997:17057   */\n      mstore\n        /* \"#utility.yul\":17088:17090   */\n      0x40\n        /* \"#utility.yul\":17073:17091   */\n      dup3\n      add\n        /* \"#utility.yul\":17066:17100   */\n      mstore\n        /* \"#utility.yul\":16951:16953   */\n      0x60\n        /* \"#utility.yul\":16936:16954   */\n      add\n      swap1\n        /* \"#utility.yul\":16761:17106   */\n      jump\n        /* \"BidMarketplace.sol\":4767:4921  Listed(... */\n    tag_323:\n      mload(0x40)\n      dup1\n      swap2\n      sub\n      swap1\n      log4\n        /* \"BidMarketplace.sol\":4939:4948  listingId */\n      swap1\n      pop\n        /* \"@openzeppelin/contracts/security/ReentrancyGuard.sol\":2303:2323  _nonReentrantAfter() */\n      tag_178\n        /* \"@openzeppelin/contracts/security/ReentrancyGuard.sol\":1716:1717  1 */\n      0x01\n        /* \"@openzeppelin/contracts/security/ReentrancyGuard.sol\":2809:2816  _status */\n      0x00\n        /* \"@openzeppelin/contracts/security/ReentrancyGuard.sol\":2809:2831  _status = _NOT_ENTERED */\n      sstore\n        /* \"@openzeppelin/contracts/security/ReentrancyGuard.sol\":2629:2838  function _nonReentrantAfter() private {... */\n      jump\n        /* \"BidMarketplace.sol\":7700:8135  function updateListingPrice(... */\n    tag_132:\n        /* \"@openzeppelin/contracts/security/ReentrancyGuard.sol\":2261:2282  _nonReentrantBefore() */\n      tag_327\n        /* \"@openzeppelin/contracts/security/ReentrancyGuard.sol\":2261:2280  _nonReentrantBefore */\n      tag_188\n        /* \"@openzeppelin/contracts/security/ReentrancyGuard.sol\":2261:2282  _nonReentrantBefore() */\n      jump\t// in\n    tag_327:\n        /* \"@openzeppelin/contracts/access/Ownable.sol\":1531:1544  _checkOwner() */\n      tag_329\n        /* \"@openzeppelin/contracts/access/Ownable.sol\":1531:1542  _checkOwner */\n      tag_181\n        /* \"@openzeppelin/contracts/access/Ownable.sol\":1531:1544  _checkOwner() */\n      jump\t// in\n    tag_329:\n        /* \"BidMarketplace.sol\":7829:7852  Listing storage listing */\n      0x00\n        /* \"BidMarketplace.sol\":7855:7874  listings[listingId] */\n      dup3\n      dup2\n      mstore\n        /* \"BidMarketplace.sol\":7855:7863  listings */\n      0x02\n        /* \"BidMarketplace.sol\":7855:7874  listings[listingId] */\n      0x20\n      mstore\n      0x40\n      swap1\n      keccak256\n        /* \"BidMarketplace.sol\":7892:7906  listing.active */\n      0x05\n      dup2\n      add\n      sload\n      0xff\n      and\n        /* \"BidMarketplace.sol\":7884:7929  require(listing.active, \"Listing not active\") */\n      tag_331\n      jumpi\n      mload(0x40)\n      shl(0xe5, 0x461bcd)\n      dup2\n      mstore\n      0x04\n      add\n      tag_193\n      swap1\n      tag_194\n      jump\t// in\n    tag_331:\n        /* \"BidMarketplace.sol\":7947:7961  listing.seller */\n      dup1\n      sload\n      sub(shl(0xa0, 0x01), 0x01)\n      and\n        /* \"BidMarketplace.sol\":7965:7975  msg.sender */\n      caller\n        /* \"BidMarketplace.sol\":7947:7975  listing.seller == msg.sender */\n      eq\n        /* \"BidMarketplace.sol\":7939:7990  require(listing.seller == msg.sender, \"Not seller\") */\n      tag_333\n      jumpi\n      mload(0x40)\n      shl(0xe5, 0x461bcd)\n      dup2\n      mstore\n        /* \"#utility.yul\":10239:10241   */\n      0x20\n        /* \"BidMarketplace.sol\":7939:7990  require(listing.seller == msg.sender, \"Not seller\") */\n      0x04\n      dup3\n      add\n        /* \"#utility.yul\":10221:10242   */\n      mstore\n        /* \"#utility.yul\":10278:10280   */\n      0x0a\n        /* \"#utility.yul\":10258:10276   */\n      0x24\n      dup3\n      add\n        /* \"#utility.yul\":10251:10281   */\n      mstore\n      shl(0xb1, 0x2737ba1039b2b63632b9)\n        /* \"#utility.yul\":10297:10315   */\n      0x44\n      dup3\n      add\n        /* \"#utility.yul\":10290:10330   */\n      mstore\n        /* \"#utility.yul\":10347:10365   */\n      0x64\n      add\n        /* \"BidMarketplace.sol\":7939:7990  require(listing.seller == msg.sender, \"Not seller\") */\n      tag_193\n        /* \"#utility.yul\":10037:10371   */\n      jump\n        /* \"BidMarketplace.sol\":7939:7990  require(listing.seller == msg.sender, \"Not seller\") */\n    tag_333:\n        /* \"BidMarketplace.sol\":8019:8020  0 */\n      0x00\n        /* \"BidMarketplace.sol\":8008:8016  newPrice */\n      dup3\n        /* \"BidMarketplace.sol\":8008:8020  newPrice > 0 */\n      gt\n        /* \"BidMarketplace.sol\":8000:8042  require(newPrice > 0, \"Price must be > 0\") */\n      tag_335\n      jumpi\n      mload(0x40)\n      shl(0xe5, 0x461bcd)\n      dup2\n      mstore\n      0x04\n      add\n      tag_193\n      swap1\n      tag_294\n      jump\t// in\n    tag_335:\n        /* \"BidMarketplace.sol\":8053:8066  listing.price */\n      0x04\n      dup2\n      add\n        /* \"BidMarketplace.sol\":8053:8077  listing.price = newPrice */\n      dup3\n      swap1\n      sstore\n        /* \"BidMarketplace.sol\":8093:8128  ListingUpdated(listingId, newPrice) */\n      mload(0x40)\n        /* \"#utility.yul\":3555:3580   */\n      dup3\n      dup2\n      mstore\n        /* \"BidMarketplace.sol\":8108:8117  listingId */\n      dup4\n      swap1\n        /* \"BidMarketplace.sol\":8093:8128  ListingUpdated(listingId, newPrice) */\n      0x66bcde9f7aec9b81719a4fdec54cbafbf6c834d1f2f989d9cd2134dab8d0c0de\n      swap1\n        /* \"#utility.yul\":3543:3545   */\n      0x20\n        /* \"#utility.yul\":3528:3546   */\n      add\n        /* \"BidMarketplace.sol\":8093:8128  ListingUpdated(listingId, newPrice) */\n      mload(0x40)\n      dup1\n      swap2\n      sub\n      swap1\n      log2\n        /* \"BidMarketplace.sol\":7819:8135  {... */\n      pop\n        /* \"@openzeppelin/contracts/security/ReentrancyGuard.sol\":2303:2323  _nonReentrantAfter() */\n      tag_338\n        /* \"@openzeppelin/contracts/security/ReentrancyGuard.sol\":1716:1717  1 */\n      0x01\n        /* \"@openzeppelin/contracts/security/ReentrancyGuard.sol\":2809:2816  _status */\n      0x00\n        /* \"@openzeppelin/contracts/security/ReentrancyGuard.sol\":2809:2831  _status = _NOT_ENTERED */\n      sstore\n        /* \"@openzeppelin/contracts/security/ReentrancyGuard.sol\":2629:2838  function _nonReentrantAfter() private {... */\n      jump\n        /* \"@openzeppelin/contracts/security/ReentrancyGuard.sol\":2303:2323  _nonReentrantAfter() */\n    tag_338:\n        /* \"BidMarketplace.sol\":7700:8135  function updateListingPrice(... */\n      pop\n      pop\n      jump\t// out\n        /* \"BidMarketplace.sol\":13018:15006  function acceptOffer(uint256 offerId) external nonReentrant {... */\n    tag_136:\n        /* \"@openzeppelin/contracts/security/ReentrancyGuard.sol\":2261:2282  _nonReentrantBefore() */\n      tag_340\n        /* \"@openzeppelin/contracts/security/ReentrancyGuard.sol\":2261:2280  _nonReentrantBefore */\n      tag_188\n        /* \"@openzeppelin/contracts/security/ReentrancyGuard.sol\":2261:2282  _nonReentrantBefore() */\n      jump\t// in\n    tag_340:\n        /* \"BidMarketplace.sol\":13088:13107  Offer storage offer */\n      0x00\n        /* \"BidMarketplace.sol\":13110:13125  offers[offerId] */\n      dup2\n      dup2\n      mstore\n        /* \"BidMarketplace.sol\":13110:13116  offers */\n      0x04\n        /* \"BidMarketplace.sol\":13110:13125  offers[offerId] */\n      0x20\n      mstore\n      0x40\n      swap1\n      keccak256\n        /* \"BidMarketplace.sol\":13143:13155  offer.active */\n      0x06\n      dup2\n      add\n      sload\n      0xff\n      and\n        /* \"BidMarketplace.sol\":13135:13176  require(offer.active, \"Offer not active\") */\n      tag_342\n      jumpi\n      mload(0x40)\n      shl(0xe5, 0x461bcd)\n      dup2\n      mstore\n        /* \"#utility.yul\":17313:17315   */\n      0x20\n        /* \"BidMarketplace.sol\":13135:13176  require(offer.active, \"Offer not active\") */\n      0x04\n      dup3\n      add\n        /* \"#utility.yul\":17295:17316   */\n      mstore\n        /* \"#utility.yul\":17352:17354   */\n      0x10\n        /* \"#utility.yul\":17332:17350   */\n      0x24\n      dup3\n      add\n        /* \"#utility.yul\":17325:17355   */\n      mstore\n      shl(0x80, 0x4f66666572206e6f7420616374697665)\n        /* \"#utility.yul\":17371:17389   */\n      0x44\n      dup3\n      add\n        /* \"#utility.yul\":17364:17410   */\n      mstore\n        /* \"#utility.yul\":17427:17445   */\n      0x64\n      add\n        /* \"BidMarketplace.sol\":13135:13176  require(offer.active, \"Offer not active\") */\n      tag_193\n        /* \"#utility.yul\":17111:17451   */\n      jump\n        /* \"BidMarketplace.sol\":13135:13176  require(offer.active, \"Offer not active\") */\n    tag_342:\n        /* \"BidMarketplace.sol\":13213:13218  offer */\n      dup1\n        /* \"BidMarketplace.sol\":13213:13228  offer.expiresAt */\n      0x05\n      add\n      sload\n        /* \"BidMarketplace.sol\":13194:13209  block.timestamp */\n      timestamp\n        /* \"BidMarketplace.sol\":13194:13228  block.timestamp <= offer.expiresAt */\n      gt\n      iszero\n        /* \"BidMarketplace.sol\":13186:13246  require(block.timestamp <= offer.expiresAt, \"Offer expired\") */\n      tag_345\n      jumpi\n      mload(0x40)\n      shl(0xe5, 0x461bcd)\n      dup2\n      mstore\n        /* \"#utility.yul\":17658:17660   */\n      0x20\n        /* \"BidMarketplace.sol\":13186:13246  require(block.timestamp <= offer.expiresAt, \"Offer expired\") */\n      0x04\n      dup3\n      add\n        /* \"#utility.yul\":17640:17661   */\n      mstore\n        /* \"#utility.yul\":17697:17699   */\n      0x0d\n        /* \"#utility.yul\":17677:17695   */\n      0x24\n      dup3\n      add\n        /* \"#utility.yul\":17670:17700   */\n      mstore\n      shl(0x9a, 0x13d999995c88195e1c1a5c9959)\n        /* \"#utility.yul\":17716:17734   */\n      0x44\n      dup3\n      add\n        /* \"#utility.yul\":17709:17752   */\n      mstore\n        /* \"#utility.yul\":17769:17787   */\n      0x64\n      add\n        /* \"BidMarketplace.sol\":13186:13246  require(block.timestamp <= offer.expiresAt, \"Offer expired\") */\n      tag_193\n        /* \"#utility.yul\":17456:17793   */\n      jump\n        /* \"BidMarketplace.sol\":13186:13246  require(block.timestamp <= offer.expiresAt, \"Offer expired\") */\n    tag_345:\n        /* \"BidMarketplace.sol\":13285:13302  offer.nftContract */\n      0x01\n      dup2\n      add\n      sload\n        /* \"BidMarketplace.sol\":13312:13325  offer.tokenId */\n      0x02\n      dup3\n      add\n      sload\n        /* \"BidMarketplace.sol\":13277:13326  IERC721(offer.nftContract).ownerOf(offer.tokenId) */\n      mload(0x40)\n      shl(0xe1, 0x31a9108f)\n      dup2\n      mstore\n      0x04\n      dup2\n      add\n        /* \"#utility.yul\":3555:3580   */\n      swap2\n      swap1\n      swap2\n      mstore\n        /* \"BidMarketplace.sol\":13330:13340  msg.sender */\n      caller\n      swap2\n      sub(shl(0xa0, 0x01), 0x01)\n        /* \"BidMarketplace.sol\":13285:13302  offer.nftContract */\n      and\n      swap1\n        /* \"BidMarketplace.sol\":13277:13311  IERC721(offer.nftContract).ownerOf */\n      0x6352211e\n      swap1\n        /* \"#utility.yul\":3528:3546   */\n      0x24\n      add\n        /* \"BidMarketplace.sol\":13277:13326  IERC721(offer.nftContract).ownerOf(offer.tokenId) */\n      0x20\n      mload(0x40)\n      dup1\n      dup4\n      sub\n      dup2\n      dup7\n      gas\n      staticcall\n      iszero\n      dup1\n      iszero\n      tag_350\n      jumpi\n      returndatasize\n      0x00\n      dup1\n      returndatacopy\n      revert(0x00, returndatasize)\n    tag_350:\n      pop\n      pop\n      pop\n      pop\n      mload(0x40)\n      returndatasize\n      not(0x1f)\n      0x1f\n      dup3\n      add\n      and\n      dup3\n      add\n      dup1\n      0x40\n      mstore\n      pop\n      dup2\n      add\n      swap1\n      tag_351\n      swap2\n      swap1\n      tag_212\n      jump\t// in\n    tag_351:\n      sub(shl(0xa0, 0x01), 0x01)\n        /* \"BidMarketplace.sol\":13277:13340  IERC721(offer.nftContract).ownerOf(offer.tokenId) == msg.sender */\n      and\n      eq\n        /* \"BidMarketplace.sol\":13256:13381  require(... */\n      tag_352\n      jumpi\n      mload(0x40)\n      shl(0xe5, 0x461bcd)\n      dup2\n      mstore\n        /* \"#utility.yul\":15474:15476   */\n      0x20\n        /* \"BidMarketplace.sol\":13256:13381  require(... */\n      0x04\n      dup3\n      add\n        /* \"#utility.yul\":15456:15477   */\n      mstore\n        /* \"#utility.yul\":15513:15515   */\n      0x0f\n        /* \"#utility.yul\":15493:15511   */\n      0x24\n      dup3\n      add\n        /* \"#utility.yul\":15486:15516   */\n      mstore\n      shl(0x89, 0x2737ba103a37b5b2b71037bbb732b9)\n        /* \"#utility.yul\":15532:15550   */\n      0x44\n      dup3\n      add\n        /* \"#utility.yul\":15525:15570   */\n      mstore\n        /* \"#utility.yul\":15587:15605   */\n      0x64\n      add\n        /* \"BidMarketplace.sol\":13256:13381  require(... */\n      tag_193\n        /* \"#utility.yul\":15272:15611   */\n      jump\n        /* \"BidMarketplace.sol\":13256:13381  require(... */\n    tag_352:\n        /* \"BidMarketplace.sol\":13420:13437  offer.nftContract */\n      0x01\n      dup2\n      add\n      sload\n        /* \"BidMarketplace.sol\":13412:13528  IERC721(offer.nftContract).isApprovedForAll(... */\n      mload(0x40)\n      shl(0xe0, 0xe985e9c5)\n      dup2\n      mstore\n        /* \"BidMarketplace.sol\":13473:13483  msg.sender */\n      caller\n        /* \"BidMarketplace.sol\":13412:13528  IERC721(offer.nftContract).isApprovedForAll(... */\n      0x04\n      dup3\n      add\n        /* \"#utility.yul\":15828:15862   */\n      mstore\n        /* \"BidMarketplace.sol\":13509:13513  this */\n      address\n        /* \"#utility.yul\":15878:15896   */\n      0x24\n      dup3\n      add\n        /* \"#utility.yul\":15871:15914   */\n      mstore\n      sub(shl(0xa0, 0x01), 0x01)\n        /* \"BidMarketplace.sol\":13420:13437  offer.nftContract */\n      swap1\n      swap2\n      and\n      swap1\n        /* \"BidMarketplace.sol\":13412:13455  IERC721(offer.nftContract).isApprovedForAll */\n      0xe985e9c5\n      swap1\n        /* \"#utility.yul\":15763:15781   */\n      0x44\n      add\n        /* \"BidMarketplace.sol\":13412:13528  IERC721(offer.nftContract).isApprovedForAll(... */\n      0x20\n      mload(0x40)\n      dup1\n      dup4\n      sub\n      dup2\n      dup7\n      gas\n      staticcall\n      iszero\n      dup1\n      iszero\n      tag_356\n      jumpi\n      returndatasize\n      0x00\n      dup1\n      returndatacopy\n      revert(0x00, returndatasize)\n    tag_356:\n      pop\n      pop\n      pop\n      pop\n      mload(0x40)\n      returndatasize\n      not(0x1f)\n      0x1f\n      dup3\n      add\n      and\n      dup3\n      add\n      dup1\n      0x40\n      mstore\n      pop\n      dup2\n      add\n      swap1\n      tag_357\n      swap2\n      swap1\n      tag_257\n      jump\t// in\n    tag_357:\n        /* \"BidMarketplace.sol\":13412:13634  IERC721(offer.nftContract).isApprovedForAll(... */\n      dup1\n      tag_358\n      jumpi\n      pop\n        /* \"BidMarketplace.sol\":13556:13573  offer.nftContract */\n      0x01\n      dup2\n      add\n      sload\n        /* \"BidMarketplace.sol\":13587:13600  offer.tokenId */\n      0x02\n      dup3\n      add\n      sload\n        /* \"BidMarketplace.sol\":13548:13601  IERC721(offer.nftContract).getApproved(offer.tokenId) */\n      mload(0x40)\n      shl(0xe2, 0x020604bf)\n      dup2\n      mstore\n      0x04\n      dup2\n      add\n        /* \"#utility.yul\":3555:3580   */\n      swap2\n      swap1\n      swap2\n      mstore\n        /* \"BidMarketplace.sol\":13629:13633  this */\n      address\n      swap2\n      sub(shl(0xa0, 0x01), 0x01)\n        /* \"BidMarketplace.sol\":13556:13573  offer.nftContract */\n      and\n      swap1\n        /* \"BidMarketplace.sol\":13548:13586  IERC721(offer.nftContract).getApproved */\n      0x081812fc\n      swap1\n        /* \"#utility.yul\":3528:3546   */\n      0x24\n      add\n        /* \"BidMarketplace.sol\":13548:13601  IERC721(offer.nftContract).getApproved(offer.tokenId) */\n      0x20\n      mload(0x40)\n      dup1\n      dup4\n      sub\n      dup2\n      dup7\n      gas\n      staticcall\n      iszero\n      dup1\n      iszero\n      tag_361\n      jumpi\n      returndatasize\n      0x00\n      dup1\n      returndatacopy\n      revert(0x00, returndatasize)\n    tag_361:\n      pop\n      pop\n      pop\n      pop\n      mload(0x40)\n      returndatasize\n      not(0x1f)\n      0x1f\n      dup3\n      add\n      and\n      dup3\n      add\n      dup1\n      0x40\n      mstore\n      pop\n      dup2\n      add\n      swap1\n      tag_362\n      swap2\n      swap1\n      tag_212\n      jump\t// in\n    tag_362:\n      sub(shl(0xa0, 0x01), 0x01)\n        /* \"BidMarketplace.sol\":13548:13634  IERC721(offer.nftContract).getApproved(offer.tokenId) ==... */\n      and\n      eq\n        /* \"BidMarketplace.sol\":13412:13634  IERC721(offer.nftContract).isApprovedForAll(... */\n    tag_358:\n        /* \"BidMarketplace.sol\":13391:13684  require(... */\n      tag_363\n      jumpi\n      mload(0x40)\n      shl(0xe5, 0x461bcd)\n      dup2\n      mstore\n      0x04\n      add\n      tag_193\n      swap1\n      tag_317\n      jump\t// in\n    tag_363:\n        /* \"BidMarketplace.sol\":13711:13722  offer.price */\n      0x04\n      dup2\n      add\n      sload\n        /* \"BidMarketplace.sol\":13748:13759  offer.buyer */\n      dup2\n      sload\n        /* \"BidMarketplace.sol\":13819:13829  feePercent */\n      sload(0x07)\n      sub(shl(0xa0, 0x01), 0x01)\n        /* \"BidMarketplace.sol\":13748:13759  offer.buyer */\n      swap1\n      swap2\n      and\n      swap1\n        /* \"BidMarketplace.sol\":13695:13708  uint256 price */\n      0x00\n      swap1\n        /* \"BidMarketplace.sol\":1526:1531  10000 */\n      0x2710\n      swap1\n        /* \"BidMarketplace.sol\":13811:13829  price * feePercent */\n      tag_365\n      swap1\n        /* \"BidMarketplace.sol\":13711:13722  offer.price */\n      dup6\n        /* \"BidMarketplace.sol\":13811:13829  price * feePercent */\n      tag_217\n      jump\t// in\n    tag_365:\n        /* \"BidMarketplace.sol\":13810:13848  (price * feePercent) / FEE_DENOMINATOR */\n      tag_366\n      swap2\n      swap1\n      tag_219\n      jump\t// in\n    tag_366:\n        /* \"BidMarketplace.sol\":13796:13848  uint256 fee = (price * feePercent) / FEE_DENOMINATOR */\n      swap1\n      pop\n        /* \"BidMarketplace.sol\":13858:13878  uint256 sellerAmount */\n      0x00\n        /* \"BidMarketplace.sol\":13881:13892  price - fee */\n      tag_367\n        /* \"BidMarketplace.sol\":13796:13848  uint256 fee = (price * feePercent) / FEE_DENOMINATOR */\n      dup3\n        /* \"BidMarketplace.sol\":13881:13886  price */\n      dup6\n        /* \"BidMarketplace.sol\":13881:13892  price - fee */\n      tag_221\n      jump\t// in\n    tag_367:\n        /* \"BidMarketplace.sol\":13964:13982  offer.paymentToken */\n      0x03\n      dup7\n      add\n      sload\n        /* \"BidMarketplace.sol\":14014:14065  token.transferFrom(buyer, msg.sender, sellerAmount) */\n      mload(0x40)\n      shl(0xe0, 0x23b872dd)\n      dup2\n      mstore\n        /* \"BidMarketplace.sol\":13858:13892  uint256 sellerAmount = price - fee */\n      swap2\n      swap3\n      pop\n      sub(shl(0xa0, 0x01), 0x01)\n        /* \"BidMarketplace.sol\":13964:13982  offer.paymentToken */\n      and\n      swap1\n      dup2\n      swap1\n        /* \"BidMarketplace.sol\":14014:14032  token.transferFrom */\n      0x23b872dd\n      swap1\n        /* \"BidMarketplace.sol\":14014:14065  token.transferFrom(buyer, msg.sender, sellerAmount) */\n      tag_368\n      swap1\n        /* \"BidMarketplace.sol\":14033:14038  buyer */\n      dup8\n      swap1\n        /* \"BidMarketplace.sol\":14040:14050  msg.sender */\n      caller\n      swap1\n        /* \"BidMarketplace.sol\":13858:13892  uint256 sellerAmount = price - fee */\n      dup8\n      swap1\n        /* \"BidMarketplace.sol\":14014:14065  token.transferFrom(buyer, msg.sender, sellerAmount) */\n      0x04\n      add\n      tag_253\n      jump\t// in\n    tag_368:\n      0x20\n      mload(0x40)\n      dup1\n      dup4\n      sub\n      dup2\n      0x00\n      dup8\n      gas\n      call\n      iszero\n      dup1\n      iszero\n      tag_370\n      jumpi\n      returndatasize\n      0x00\n      dup1\n      returndatacopy\n      revert(0x00, returndatasize)\n    tag_370:\n      pop\n      pop\n      pop\n      pop\n      mload(0x40)\n      returndatasize\n      not(0x1f)\n      0x1f\n      dup3\n      add\n      and\n      dup3\n      add\n      dup1\n      0x40\n      mstore\n      pop\n      dup2\n      add\n      swap1\n      tag_371\n      swap2\n      swap1\n      tag_257\n      jump\t// in\n    tag_371:\n        /* \"BidMarketplace.sol\":13993:14116  require(... */\n      tag_372\n      jumpi\n      mload(0x40)\n      shl(0xe5, 0x461bcd)\n      dup2\n      mstore\n      0x04\n      add\n      tag_193\n      swap1\n      tag_233\n      jump\t// in\n    tag_372:\n        /* \"BidMarketplace.sol\":14130:14137  fee > 0 */\n      dup3\n      iszero\n        /* \"BidMarketplace.sol\":14126:14286  if (fee > 0) {... */\n      tag_379\n      jumpi\n        /* \"BidMarketplace.sol\":14204:14216  feeRecipient */\n      sload(0x08)\n        /* \"BidMarketplace.sol\":14178:14222  token.transferFrom(buyer, feeRecipient, fee) */\n      mload(0x40)\n      shl(0xe0, 0x23b872dd)\n      dup2\n      mstore\n      sub(shl(0xa0, 0x01), 0x01)\n        /* \"BidMarketplace.sol\":14178:14196  token.transferFrom */\n      dup1\n      dup5\n      and\n      swap3\n      0x23b872dd\n      swap3\n        /* \"BidMarketplace.sol\":14178:14222  token.transferFrom(buyer, feeRecipient, fee) */\n      tag_375\n      swap3\n        /* \"BidMarketplace.sol\":14197:14202  buyer */\n      dup10\n      swap3\n        /* \"BidMarketplace.sol\":14204:14216  feeRecipient */\n      and\n      swap1\n        /* \"BidMarketplace.sol\":14218:14221  fee */\n      dup9\n      swap1\n        /* \"BidMarketplace.sol\":14178:14222  token.transferFrom(buyer, feeRecipient, fee) */\n      0x04\n      add\n      tag_253\n      jump\t// in\n    tag_375:\n      0x20\n      mload(0x40)\n      dup1\n      dup4\n      sub\n      dup2\n      0x00\n      dup8\n      gas\n      call\n      iszero\n      dup1\n      iszero\n      tag_377\n      jumpi\n      returndatasize\n      0x00\n      dup1\n      returndatacopy\n      revert(0x00, returndatasize)\n    tag_377:\n      pop\n      pop\n      pop\n      pop\n      mload(0x40)\n      returndatasize\n      not(0x1f)\n      0x1f\n      dup3\n      add\n      and\n      dup3\n      add\n      dup1\n      0x40\n      mstore\n      pop\n      dup2\n      add\n      swap1\n      tag_378\n      swap2\n      swap1\n      tag_257\n      jump\t// in\n    tag_378:\n        /* \"BidMarketplace.sol\":14153:14275  require(... */\n      tag_379\n      jumpi\n      mload(0x40)\n      shl(0xe5, 0x461bcd)\n      dup2\n      mstore\n      0x04\n      add\n      tag_193\n      swap1\n      tag_241\n      jump\t// in\n    tag_379:\n        /* \"BidMarketplace.sol\":14337:14354  offer.nftContract */\n      0x01\n      dup7\n      add\n      sload\n        /* \"BidMarketplace.sol\":14429:14442  offer.tokenId */\n      0x02\n      dup8\n      add\n      sload\n        /* \"BidMarketplace.sol\":14329:14452  IERC721(offer.nftContract).safeTransferFrom(... */\n      mload(0x40)\n      shl(0xe1, 0x21421707)\n      dup2\n      mstore\n      sub(shl(0xa0, 0x01), 0x01)\n        /* \"BidMarketplace.sol\":14337:14354  offer.nftContract */\n      swap1\n      swap3\n      and\n      swap2\n        /* \"BidMarketplace.sol\":14329:14372  IERC721(offer.nftContract).safeTransferFrom */\n      0x42842e0e\n      swap2\n        /* \"BidMarketplace.sol\":14329:14452  IERC721(offer.nftContract).safeTransferFrom(... */\n      tag_381\n      swap2\n        /* \"BidMarketplace.sol\":14386:14396  msg.sender */\n      caller\n      swap2\n        /* \"BidMarketplace.sol\":14410:14415  buyer */\n      dup10\n      swap2\n        /* \"BidMarketplace.sol\":14329:14452  IERC721(offer.nftContract).safeTransferFrom(... */\n      0x04\n      add\n      tag_253\n      jump\t// in\n    tag_381:\n      0x00\n      mload(0x40)\n      dup1\n      dup4\n      sub\n      dup2\n      0x00\n      dup8\n      dup1\n      extcodesize\n      iszero\n      dup1\n      iszero\n      tag_382\n      jumpi\n      0x00\n      dup1\n      revert\n    tag_382:\n      pop\n      gas\n      call\n      iszero\n      dup1\n      iszero\n      tag_384\n      jumpi\n      returndatasize\n      0x00\n      dup1\n      returndatacopy\n      revert(0x00, returndatasize)\n    tag_384:\n      pop\n      pop\n      pop\n      pop\n        /* \"BidMarketplace.sol\":14491:14503  offer.active */\n      0x06\n      dup7\n      dup2\n      add\n        /* \"BidMarketplace.sol\":14491:14511  offer.active = false */\n      dup1\n      sload\n      not(0xff)\n      and\n      swap1\n      sstore\n      0x01\n        /* \"BidMarketplace.sol\":14602:14619  offer.nftContract */\n      dup8\n      add\n      sload\n      sub(shl(0xa0, 0x01), 0x01)\n      and\n      0x00\n        /* \"BidMarketplace.sol\":14587:14620  tokenToListing[offer.nftContract] */\n      swap1\n      dup2\n      mstore\n      0x20\n      swap2\n      dup3\n      mstore\n      0x40\n      dup1\n      dup3\n      keccak256\n        /* \"BidMarketplace.sol\":14621:14634  offer.tokenId */\n      0x02\n      dup11\n      add\n      sload\n        /* \"BidMarketplace.sol\":14587:14635  tokenToListing[offer.nftContract][offer.tokenId] */\n      dup4\n      mstore\n      swap1\n      swap3\n      mstore\n      keccak256\n      sload\n        /* \"BidMarketplace.sol\":14649:14663  listingId != 0 */\n      dup1\n      iszero\n      dup1\n      iszero\n      swap1\n        /* \"BidMarketplace.sol\":14649:14693  listingId != 0 && listings[listingId].active */\n      tag_385\n      jumpi\n      pop\n        /* \"BidMarketplace.sol\":14667:14686  listings[listingId] */\n      0x00\n      dup2\n      dup2\n      mstore\n        /* \"BidMarketplace.sol\":14667:14675  listings */\n      0x02\n        /* \"BidMarketplace.sol\":14667:14686  listings[listingId] */\n      0x20\n      mstore\n      0x40\n      swap1\n      keccak256\n        /* \"BidMarketplace.sol\":14667:14693  listings[listingId].active */\n      0x05\n      add\n      sload\n      0xff\n      and\n        /* \"BidMarketplace.sol\":14649:14693  listingId != 0 && listings[listingId].active */\n    tag_385:\n        /* \"BidMarketplace.sol\":14645:14820  if (listingId != 0 && listings[listingId].active) {... */\n      iszero\n      tag_386\n      jumpi\n        /* \"BidMarketplace.sol\":14738:14743  false */\n      0x00\n        /* \"BidMarketplace.sol\":14709:14728  listings[listingId] */\n      dup2\n      dup2\n      mstore\n        /* \"BidMarketplace.sol\":14709:14717  listings */\n      0x02\n        /* \"BidMarketplace.sol\":14709:14728  listings[listingId] */\n      0x20\n      dup2\n      dup2\n      mstore\n      0x40\n      dup1\n      dup5\n      keccak256\n        /* \"BidMarketplace.sol\":14709:14735  listings[listingId].active */\n      0x05\n      add\n        /* \"BidMarketplace.sol\":14709:14743  listings[listingId].active = false */\n      dup1\n      sload\n      not(0xff)\n      and\n      swap1\n      sstore\n      0x01\n        /* \"BidMarketplace.sol\":14772:14789  offer.nftContract */\n      dup12\n      add\n      sload\n      sub(shl(0xa0, 0x01), 0x01)\n      and\n        /* \"BidMarketplace.sol\":14757:14790  tokenToListing[offer.nftContract] */\n      dup5\n      mstore\n        /* \"BidMarketplace.sol\":14757:14771  tokenToListing */\n      0x06\n        /* \"BidMarketplace.sol\":14757:14790  tokenToListing[offer.nftContract] */\n      dup3\n      mstore\n      dup1\n      dup5\n      keccak256\n        /* \"BidMarketplace.sol\":14791:14804  offer.tokenId */\n      swap3\n      dup12\n      add\n      sload\n        /* \"BidMarketplace.sol\":14757:14805  tokenToListing[offer.nftContract][offer.tokenId] */\n      dup5\n      mstore\n      swap2\n      swap1\n      mstore\n      dup2\n      keccak256\n        /* \"BidMarketplace.sol\":14757:14809  tokenToListing[offer.nftContract][offer.tokenId] = 0 */\n      sstore\n        /* \"BidMarketplace.sol\":14645:14820  if (listingId != 0 && listings[listingId].active) {... */\n    tag_386:\n        /* \"BidMarketplace.sol\":14926:14943  offer.nftContract */\n      0x01\n      dup8\n      add\n      sload\n        /* \"BidMarketplace.sol\":14957:14970  offer.tokenId */\n      0x02\n      dup9\n      add\n      sload\n        /* \"BidMarketplace.sol\":14835:14999  OfferAccepted(... */\n      0x40\n      dup1\n      mload\n      sub(shl(0xa0, 0x01), 0x01)\n        /* \"BidMarketplace.sol\":14926:14943  offer.nftContract */\n      swap4\n      dup5\n      and\n        /* \"#utility.yul\":14083:14134   */\n      dup2\n      mstore\n        /* \"#utility.yul\":14165:14167   */\n      0x20\n        /* \"#utility.yul\":14150:14168   */\n      dup2\n      add\n        /* \"#utility.yul\":14143:14177   */\n      swap3\n      swap1\n      swap3\n      mstore\n        /* \"#utility.yul\":14193:14211   */\n      dup2\n      add\n        /* \"#utility.yul\":14186:14220   */\n      dup9\n      swap1\n      mstore\n        /* \"BidMarketplace.sol\":14835:14999  OfferAccepted(... */\n      swap1\n      dup7\n      and\n      swap1\n        /* \"BidMarketplace.sol\":14883:14893  msg.sender */\n      caller\n      swap1\n        /* \"BidMarketplace.sol\":14862:14869  offerId */\n      dup11\n      swap1\n        /* \"BidMarketplace.sol\":14835:14999  OfferAccepted(... */\n      0x50df946ee330bf8af17ecc21585649645f3680c032bc659b21e49881bea57f71\n      swap1\n        /* \"#utility.yul\":14071:14073   */\n      0x60\n        /* \"#utility.yul\":14056:14074   */\n      add\n        /* \"BidMarketplace.sol\":14835:14999  OfferAccepted(... */\n      mload(0x40)\n      dup1\n      swap2\n      sub\n      swap1\n      log4\n        /* \"BidMarketplace.sol\":13078:15006  {... */\n      pop\n      pop\n      pop\n      pop\n      pop\n      pop\n      pop\n        /* \"@openzeppelin/contracts/security/ReentrancyGuard.sol\":2303:2323  _nonReentrantAfter() */\n      tag_198\n        /* \"@openzeppelin/contracts/security/ReentrancyGuard.sol\":1716:1717  1 */\n      0x01\n        /* \"@openzeppelin/contracts/security/ReentrancyGuard.sol\":2809:2816  _status */\n      0x00\n        /* \"@openzeppelin/contracts/security/ReentrancyGuard.sol\":2809:2831  _status = _NOT_ENTERED */\n      sstore\n        /* \"@openzeppelin/contracts/security/ReentrancyGuard.sol\":2629:2838  function _nonReentrantAfter() private {... */\n      jump\n        /* \"BidMarketplace.sol\":16778:17019  function isListed(... */\n    tag_140:\n      sub(shl(0xa0, 0x01), 0x01)\n        /* \"BidMarketplace.sol\":16915:16942  tokenToListing[nftContract] */\n      dup3\n      and\n        /* \"BidMarketplace.sol\":16879:16883  bool */\n      0x00\n        /* \"BidMarketplace.sol\":16915:16942  tokenToListing[nftContract] */\n      swap1\n      dup2\n      mstore\n        /* \"BidMarketplace.sol\":16915:16929  tokenToListing */\n      0x06\n        /* \"BidMarketplace.sol\":16915:16942  tokenToListing[nftContract] */\n      0x20\n      swap1\n      dup2\n      mstore\n      0x40\n      dup1\n      dup4\n      keccak256\n        /* \"BidMarketplace.sol\":16915:16951  tokenToListing[nftContract][tokenId] */\n      dup5\n      dup5\n      mstore\n      swap1\n      swap2\n      mstore\n      dup2\n      keccak256\n      sload\n        /* \"BidMarketplace.sol\":16968:16982  listingId != 0 */\n      dup1\n      iszero\n      dup1\n      iszero\n      swap1\n        /* \"BidMarketplace.sol\":16968:17012  listingId != 0 && listings[listingId].active */\n      tag_178\n      jumpi\n      pop\n        /* \"BidMarketplace.sol\":16986:17005  listings[listingId] */\n      0x00\n      swap1\n      dup2\n      mstore\n        /* \"BidMarketplace.sol\":16986:16994  listings */\n      0x02\n        /* \"BidMarketplace.sol\":16986:17005  listings[listingId] */\n      0x20\n      mstore\n      0x40\n      swap1\n      keccak256\n        /* \"BidMarketplace.sol\":16986:17012  listings[listingId].active */\n      0x05\n      add\n      sload\n      0xff\n      and\n      swap4\n        /* \"BidMarketplace.sol\":16961:17012  return listingId != 0 && listings[listingId].active */\n      swap3\n      pop\n      pop\n      pop\n        /* \"BidMarketplace.sol\":16778:17019  function isListed(... */\n      jump\t// out\n        /* \"BidMarketplace.sol\":11036:12485  function createOffer(... */\n    tag_146:\n        /* \"BidMarketplace.sol\":11227:11234  uint256 */\n      0x00\n        /* \"@openzeppelin/contracts/security/ReentrancyGuard.sol\":2261:2282  _nonReentrantBefore() */\n      tag_392\n        /* \"@openzeppelin/contracts/security/ReentrancyGuard.sol\":2261:2280  _nonReentrantBefore */\n      tag_188\n        /* \"@openzeppelin/contracts/security/ReentrancyGuard.sol\":2261:2282  _nonReentrantBefore() */\n      jump\t// in\n    tag_392:\n        /* \"BidMarketplace.sol\":11262:11263  0 */\n      0x00\n        /* \"BidMarketplace.sol\":11254:11259  price */\n      dup4\n        /* \"BidMarketplace.sol\":11254:11263  price > 0 */\n      gt\n        /* \"BidMarketplace.sol\":11246:11285  require(price > 0, \"Price must be > 0\") */\n      tag_394\n      jumpi\n      mload(0x40)\n      shl(0xe5, 0x461bcd)\n      dup2\n      mstore\n      0x04\n      add\n      tag_193\n      swap1\n      tag_294\n      jump\t// in\n    tag_394:\n      sub(shl(0xa0, 0x01), 0x01)\n        /* \"BidMarketplace.sol\":11303:11329  paymentToken != address(0) */\n      dup5\n      and\n        /* \"BidMarketplace.sol\":11295:11354  require(paymentToken != address(0), \"Use ERC20 for offers\") */\n      tag_396\n      jumpi\n      mload(0x40)\n      shl(0xe5, 0x461bcd)\n      dup2\n      mstore\n        /* \"#utility.yul\":18000:18002   */\n      0x20\n        /* \"BidMarketplace.sol\":11295:11354  require(paymentToken != address(0), \"Use ERC20 for offers\") */\n      0x04\n      dup3\n      add\n        /* \"#utility.yul\":17982:18003   */\n      mstore\n        /* \"#utility.yul\":18039:18041   */\n      0x14\n        /* \"#utility.yul\":18019:18037   */\n      0x24\n      dup3\n      add\n        /* \"#utility.yul\":18012:18042   */\n      mstore\n      shl(0x60, 0x55736520455243323020666f72206f6666657273)\n        /* \"#utility.yul\":18058:18076   */\n      0x44\n      dup3\n      add\n        /* \"#utility.yul\":18051:18101   */\n      mstore\n        /* \"#utility.yul\":18118:18136   */\n      0x64\n      add\n        /* \"BidMarketplace.sol\":11295:11354  require(paymentToken != address(0), \"Use ERC20 for offers\") */\n      tag_193\n        /* \"#utility.yul\":17798:18142   */\n      jump\n        /* \"BidMarketplace.sol\":11295:11354  require(paymentToken != address(0), \"Use ERC20 for offers\") */\n    tag_396:\n      sub(shl(0xa0, 0x01), 0x01)\n        /* \"BidMarketplace.sol\":11385:11419  allowedPaymentTokens[paymentToken] */\n      dup5\n      and\n      0x00\n      swap1\n      dup2\n      mstore\n        /* \"BidMarketplace.sol\":11385:11405  allowedPaymentTokens */\n      0x09\n        /* \"BidMarketplace.sol\":11385:11419  allowedPaymentTokens[paymentToken] */\n      0x20\n      mstore\n      0x40\n      swap1\n      keccak256\n      sload\n      0xff\n      and\n        /* \"BidMarketplace.sol\":11364:11470  require(... */\n      tag_399\n      jumpi\n      mload(0x40)\n      shl(0xe5, 0x461bcd)\n      dup2\n      mstore\n        /* \"#utility.yul\":15120:15122   */\n      0x20\n        /* \"BidMarketplace.sol\":11364:11470  require(... */\n      0x04\n      dup3\n      add\n        /* \"#utility.yul\":15102:15123   */\n      mstore\n        /* \"#utility.yul\":15159:15161   */\n      0x19\n        /* \"#utility.yul\":15139:15157   */\n      0x24\n      dup3\n      add\n        /* \"#utility.yul\":15132:15162   */\n      mstore\n      shl(0x3a, 0x14185e5b595b9d081d1bdad95b881b9bdd08185b1b1bddd959)\n        /* \"#utility.yul\":15178:15196   */\n      0x44\n      dup3\n      add\n        /* \"#utility.yul\":15171:15226   */\n      mstore\n        /* \"#utility.yul\":15243:15261   */\n      0x64\n      add\n        /* \"BidMarketplace.sol\":11364:11470  require(... */\n      tag_193\n        /* \"#utility.yul\":14918:15267   */\n      jump\n        /* \"BidMarketplace.sol\":11364:11470  require(... */\n    tag_399:\n        /* \"BidMarketplace.sol\":11499:11500  0 */\n      0x00\n        /* \"BidMarketplace.sol\":11488:11496  duration */\n      dup3\n        /* \"BidMarketplace.sol\":11488:11500  duration > 0 */\n      gt\n        /* \"BidMarketplace.sol\":11488:11523  duration > 0 && duration <= 90 days */\n      dup1\n      iszero\n      tag_401\n      jumpi\n      pop\n        /* \"BidMarketplace.sol\":11516:11523  90 days */\n      0x76a700\n        /* \"BidMarketplace.sol\":11504:11512  duration */\n      dup3\n        /* \"BidMarketplace.sol\":11504:11523  duration <= 90 days */\n      gt\n      iszero\n        /* \"BidMarketplace.sol\":11488:11523  duration > 0 && duration <= 90 days */\n    tag_401:\n        /* \"BidMarketplace.sol\":11480:11544  require(duration > 0 && duration <= 90 days, \"Invalid duration\") */\n      tag_402\n      jumpi\n      mload(0x40)\n      shl(0xe5, 0x461bcd)\n      dup2\n      mstore\n        /* \"#utility.yul\":18349:18351   */\n      0x20\n        /* \"BidMarketplace.sol\":11480:11544  require(duration > 0 && duration <= 90 days, \"Invalid duration\") */\n      0x04\n      dup3\n      add\n        /* \"#utility.yul\":18331:18352   */\n      mstore\n        /* \"#utility.yul\":18388:18390   */\n      0x10\n        /* \"#utility.yul\":18368:18386   */\n      0x24\n      dup3\n      add\n        /* \"#utility.yul\":18361:18391   */\n      mstore\n      shl(0x81, 0x24b73b30b634b210323ab930ba34b7b7)\n        /* \"#utility.yul\":18407:18425   */\n      0x44\n      dup3\n      add\n        /* \"#utility.yul\":18400:18446   */\n      mstore\n        /* \"#utility.yul\":18463:18481   */\n      0x64\n      add\n        /* \"BidMarketplace.sol\":11480:11544  require(duration > 0 && duration <= 90 days, \"Invalid duration\") */\n      tag_193\n        /* \"#utility.yul\":18147:18487   */\n      jump\n        /* \"BidMarketplace.sol\":11480:11544  require(duration > 0 && duration <= 90 days, \"Invalid duration\") */\n    tag_402:\n        /* \"BidMarketplace.sol\":11664:11706  token.allowance(msg.sender, address(this)) */\n      mload(0x40)\n      shl(0xe1, 0x6eb1769f)\n      dup2\n      mstore\n        /* \"BidMarketplace.sol\":11680:11690  msg.sender */\n      caller\n        /* \"BidMarketplace.sol\":11664:11706  token.allowance(msg.sender, address(this)) */\n      0x04\n      dup3\n      add\n        /* \"#utility.yul\":15828:15862   */\n      mstore\n        /* \"BidMarketplace.sol\":11700:11704  this */\n      address\n        /* \"#utility.yul\":15878:15896   */\n      0x24\n      dup3\n      add\n        /* \"#utility.yul\":15871:15914   */\n      mstore\n        /* \"BidMarketplace.sol\":11620:11632  paymentToken */\n      dup5\n      swap1\n        /* \"BidMarketplace.sol\":11710:11715  price */\n      dup5\n      swap1\n      sub(shl(0xa0, 0x01), 0x01)\n        /* \"BidMarketplace.sol\":11664:11679  token.allowance */\n      dup4\n      and\n      swap1\n      0xdd62ed3e\n      swap1\n        /* \"#utility.yul\":15763:15781   */\n      0x44\n      add\n        /* \"BidMarketplace.sol\":11664:11706  token.allowance(msg.sender, address(this)) */\n      0x20\n      mload(0x40)\n      dup1\n      dup4\n      sub\n      dup2\n      dup7\n      gas\n      staticcall\n      iszero\n      dup1\n      iszero\n      tag_407\n      jumpi\n      returndatasize\n      0x00\n      dup1\n      returndatacopy\n      revert(0x00, returndatasize)\n    tag_407:\n      pop\n      pop\n      pop\n      pop\n      mload(0x40)\n      returndatasize\n      not(0x1f)\n      0x1f\n      dup3\n      add\n      and\n      dup3\n      add\n      dup1\n      0x40\n      mstore\n      pop\n      dup2\n      add\n      swap1\n      tag_408\n      swap2\n      swap1\n      tag_409\n      jump\t// in\n    tag_408:\n        /* \"BidMarketplace.sol\":11664:11715  token.allowance(msg.sender, address(this)) >= price */\n      lt\n      iszero\n        /* \"BidMarketplace.sol\":11643:11768  require(... */\n      tag_410\n      jumpi\n      mload(0x40)\n      shl(0xe5, 0x461bcd)\n      dup2\n      mstore\n        /* \"#utility.yul\":18883:18885   */\n      0x20\n        /* \"BidMarketplace.sol\":11643:11768  require(... */\n      0x04\n      dup3\n      add\n        /* \"#utility.yul\":18865:18886   */\n      mstore\n        /* \"#utility.yul\":18922:18924   */\n      0x1b\n        /* \"#utility.yul\":18902:18920   */\n      0x24\n      dup3\n      add\n        /* \"#utility.yul\":18895:18925   */\n      mstore\n        /* \"#utility.yul\":18961:18990   */\n      0x496e73756666696369656e7420746f6b656e20617070726f76616c0000000000\n        /* \"#utility.yul\":18941:18959   */\n      0x44\n      dup3\n      add\n        /* \"#utility.yul\":18934:18991   */\n      mstore\n        /* \"#utility.yul\":19008:19026   */\n      0x64\n      add\n        /* \"BidMarketplace.sol\":11643:11768  require(... */\n      tag_193\n        /* \"#utility.yul\":18681:19032   */\n      jump\n        /* \"BidMarketplace.sol\":11643:11768  require(... */\n    tag_410:\n        /* \"BidMarketplace.sol\":11799:11826  token.balanceOf(msg.sender) */\n      mload(0x40)\n      shl(0xe0, 0x70a08231)\n      dup2\n      mstore\n        /* \"BidMarketplace.sol\":11815:11825  msg.sender */\n      caller\n        /* \"BidMarketplace.sol\":11799:11826  token.balanceOf(msg.sender) */\n      0x04\n      dup3\n      add\n        /* \"#utility.yul\":4430:4481   */\n      mstore\n        /* \"BidMarketplace.sol\":11830:11835  price */\n      dup5\n      swap1\n      sub(shl(0xa0, 0x01), 0x01)\n        /* \"BidMarketplace.sol\":11799:11814  token.balanceOf */\n      dup4\n      and\n      swap1\n      0x70a08231\n      swap1\n        /* \"#utility.yul\":4403:4421   */\n      0x24\n      add\n        /* \"BidMarketplace.sol\":11799:11826  token.balanceOf(msg.sender) */\n      0x20\n      mload(0x40)\n      dup1\n      dup4\n      sub\n      dup2\n      dup7\n      gas\n      staticcall\n      iszero\n      dup1\n      iszero\n      tag_415\n      jumpi\n      returndatasize\n      0x00\n      dup1\n      returndatacopy\n      revert(0x00, returndatasize)\n    tag_415:\n      pop\n      pop\n      pop\n      pop\n      mload(0x40)\n      returndatasize\n      not(0x1f)\n      0x1f\n      dup3\n      add\n      and\n      dup3\n      add\n      dup1\n      0x40\n      mstore\n      pop\n      dup2\n      add\n      swap1\n      tag_416\n      swap2\n      swap1\n      tag_409\n      jump\t// in\n    tag_416:\n        /* \"BidMarketplace.sol\":11799:11835  token.balanceOf(msg.sender) >= price */\n      lt\n      iszero\n        /* \"BidMarketplace.sol\":11778:11887  require(... */\n      tag_417\n      jumpi\n      mload(0x40)\n      shl(0xe5, 0x461bcd)\n      dup2\n      mstore\n        /* \"#utility.yul\":19239:19241   */\n      0x20\n        /* \"BidMarketplace.sol\":11778:11887  require(... */\n      0x04\n      dup3\n      add\n        /* \"#utility.yul\":19221:19242   */\n      mstore\n        /* \"#utility.yul\":19278:19280   */\n      0x1a\n        /* \"#utility.yul\":19258:19276   */\n      0x24\n      dup3\n      add\n        /* \"#utility.yul\":19251:19281   */\n      mstore\n        /* \"#utility.yul\":19317:19345   */\n      0x496e73756666696369656e7420746f6b656e2062616c616e6365000000000000\n        /* \"#utility.yul\":19297:19315   */\n      0x44\n      dup3\n      add\n        /* \"#utility.yul\":19290:19346   */\n      mstore\n        /* \"#utility.yul\":19363:19381   */\n      0x64\n      add\n        /* \"BidMarketplace.sol\":11778:11887  require(... */\n      tag_193\n        /* \"#utility.yul\":19037:19387   */\n      jump\n        /* \"BidMarketplace.sol\":11778:11887  require(... */\n    tag_417:\n        /* \"BidMarketplace.sol\":11898:11913  uint256 offerId */\n      0x00\n        /* \"BidMarketplace.sol\":11918:11929  nextOfferId */\n      0x05\n      0x00\n        /* \"BidMarketplace.sol\":11916:11929  ++nextOfferId */\n      dup2\n      sload\n      tag_420\n      swap1\n      tag_322\n      jump\t// in\n    tag_420:\n      swap2\n      dup3\n      swap1\n      sstore\n      pop\n      swap1\n      pop\n        /* \"BidMarketplace.sol\":11939:11956  uint256 expiresAt */\n      0x00\n        /* \"BidMarketplace.sol\":11959:11985  block.timestamp + duration */\n      tag_421\n        /* \"BidMarketplace.sol\":11977:11985  duration */\n      dup6\n        /* \"BidMarketplace.sol\":11959:11974  block.timestamp */\n      timestamp\n        /* \"BidMarketplace.sol\":11959:11985  block.timestamp + duration */\n      tag_422\n      jump\t// in\n    tag_421:\n        /* \"BidMarketplace.sol\":11939:11985  uint256 expiresAt = block.timestamp + duration */\n      swap1\n      pop\n        /* \"BidMarketplace.sol\":12014:12256  Offer({... */\n      mload(0x40)\n      dup1\n      0xe0\n      add\n      0x40\n      mstore\n      dup1\n        /* \"BidMarketplace.sol\":12041:12051  msg.sender */\n      caller\n      sub(shl(0xa0, 0x01), 0x01)\n        /* \"BidMarketplace.sol\":12014:12256  Offer({... */\n      and\n      dup2\n      mstore\n      0x20\n      add\n        /* \"BidMarketplace.sol\":12078:12089  nftContract */\n      dup11\n      sub(shl(0xa0, 0x01), 0x01)\n        /* \"BidMarketplace.sol\":12014:12256  Offer({... */\n      and\n      dup2\n      mstore\n      0x20\n      add\n        /* \"BidMarketplace.sol\":12112:12119  tokenId */\n      dup10\n        /* \"BidMarketplace.sol\":12014:12256  Offer({... */\n      dup2\n      mstore\n      0x20\n      add\n        /* \"BidMarketplace.sol\":12147:12159  paymentToken */\n      dup9\n      sub(shl(0xa0, 0x01), 0x01)\n        /* \"BidMarketplace.sol\":12014:12256  Offer({... */\n      and\n      dup2\n      mstore\n      0x20\n      add\n        /* \"BidMarketplace.sol\":12180:12185  price */\n      dup8\n        /* \"BidMarketplace.sol\":12014:12256  Offer({... */\n      dup2\n      mstore\n      0x20\n      add\n        /* \"BidMarketplace.sol\":12210:12219  expiresAt */\n      dup3\n        /* \"BidMarketplace.sol\":12014:12256  Offer({... */\n      dup2\n      mstore\n      0x20\n      add\n        /* \"BidMarketplace.sol\":12241:12245  true */\n      0x01\n        /* \"BidMarketplace.sol\":12014:12256  Offer({... */\n      iszero\n      iszero\n      dup2\n      mstore\n      pop\n        /* \"BidMarketplace.sol\":11996:12002  offers */\n      0x04\n        /* \"BidMarketplace.sol\":11996:12011  offers[offerId] */\n      0x00\n        /* \"BidMarketplace.sol\":12003:12010  offerId */\n      dup5\n        /* \"BidMarketplace.sol\":11996:12011  offers[offerId] */\n      dup2\n      mstore\n      0x20\n      add\n      swap1\n      dup2\n      mstore\n      0x20\n      add\n      0x00\n      keccak256\n        /* \"BidMarketplace.sol\":11996:12256  offers[offerId] = Offer({... */\n      0x00\n      dup3\n      add\n      mload\n      dup2\n      0x00\n      add\n      exp(0x0100, 0x00)\n      dup2\n      sload\n      dup2\n      sub(shl(0xa0, 0x01), 0x01)\n      mul\n      not\n      and\n      swap1\n      dup4\n      sub(shl(0xa0, 0x01), 0x01)\n      and\n      mul\n      or\n      swap1\n      sstore\n      pop\n      0x20\n      dup3\n      add\n      mload\n      dup2\n      0x01\n      add\n      exp(0x0100, 0x00)\n      dup2\n      sload\n      dup2\n      sub(shl(0xa0, 0x01), 0x01)\n      mul\n      not\n      and\n      swap1\n      dup4\n      sub(shl(0xa0, 0x01), 0x01)\n      and\n      mul\n      or\n      swap1\n      sstore\n      pop\n      0x40\n      dup3\n      add\n      mload\n      dup2\n      0x02\n      add\n      sstore\n      0x60\n      dup3\n      add\n      mload\n      dup2\n      0x03\n      add\n      exp(0x0100, 0x00)\n      dup2\n      sload\n      dup2\n      sub(shl(0xa0, 0x01), 0x01)\n      mul\n      not\n      and\n      swap1\n      dup4\n      sub(shl(0xa0, 0x01), 0x01)\n      and\n      mul\n      or\n      swap1\n      sstore\n      pop\n      0x80\n      dup3\n      add\n      mload\n      dup2\n      0x04\n      add\n      sstore\n      0xa0\n      dup3\n      add\n      mload\n      dup2\n      0x05\n      add\n      sstore\n      0xc0\n      dup3\n      add\n      mload\n      dup2\n      0x06\n      add\n      exp(0x0100, 0x00)\n      dup2\n      sload\n      dup2\n      0xff\n      mul\n      not\n      and\n      swap1\n      dup4\n      iszero\n      iszero\n      mul\n      or\n      swap1\n      sstore\n      pop\n      swap1\n      pop\n      pop\n        /* \"BidMarketplace.sol\":12343:12354  nftContract */\n      dup9\n      sub(shl(0xa0, 0x01), 0x01)\n        /* \"BidMarketplace.sol\":12272:12453  OfferCreated(... */\n      and\n        /* \"BidMarketplace.sol\":12319:12329  msg.sender */\n      caller\n      sub(shl(0xa0, 0x01), 0x01)\n        /* \"BidMarketplace.sol\":12272:12453  OfferCreated(... */\n      and\n        /* \"BidMarketplace.sol\":12298:12305  offerId */\n      dup4\n        /* \"BidMarketplace.sol\":12272:12453  OfferCreated(... */\n      0x07e9214b37f6c5d7654ed3d8cb085c5aba036c579313526cc62a3c9168617c40\n        /* \"BidMarketplace.sol\":12368:12375  tokenId */\n      dup12\n        /* \"BidMarketplace.sol\":12389:12401  paymentToken */\n      dup12\n        /* \"BidMarketplace.sol\":12415:12420  price */\n      dup12\n        /* \"BidMarketplace.sol\":12434:12443  expiresAt */\n      dup8\n        /* \"BidMarketplace.sol\":12272:12453  OfferCreated(... */\n      mload(0x40)\n      tag_423\n      swap5\n      swap4\n      swap3\n      swap2\n      swap1\n        /* \"#utility.yul\":19753:19778   */\n      swap4\n      dup5\n      mstore\n      sub(shl(0xa0, 0x01), 0x01)\n        /* \"#utility.yul\":19814:19846   */\n      swap3\n      swap1\n      swap3\n      and\n        /* \"#utility.yul\":19809:19811   */\n      0x20\n        /* \"#utility.yul\":19794:19812   */\n      dup5\n      add\n        /* \"#utility.yul\":19787:19847   */\n      mstore\n        /* \"#utility.yul\":19878:19880   */\n      0x40\n        /* \"#utility.yul\":19863:19881   */\n      dup4\n      add\n        /* \"#utility.yul\":19856:19890   */\n      mstore\n        /* \"#utility.yul\":19921:19923   */\n      0x60\n        /* \"#utility.yul\":19906:19924   */\n      dup3\n      add\n        /* \"#utility.yul\":19899:19933   */\n      mstore\n        /* \"#utility.yul\":19740:19743   */\n      0x80\n        /* \"#utility.yul\":19725:19744   */\n      add\n      swap1\n        /* \"#utility.yul\":19522:19939   */\n      jump\n        /* \"BidMarketplace.sol\":12272:12453  OfferCreated(... */\n    tag_423:\n      mload(0x40)\n      dup1\n      swap2\n      sub\n      swap1\n      log4\n      pop\n        /* \"BidMarketplace.sol\":12471:12478  offerId */\n      swap2\n      pop\n      pop\n        /* \"@openzeppelin/contracts/security/ReentrancyGuard.sol\":2303:2323  _nonReentrantAfter() */\n      tag_425\n        /* \"@openzeppelin/contracts/security/ReentrancyGuard.sol\":1716:1717  1 */\n      0x01\n        /* \"@openzeppelin/contracts/security/ReentrancyGuard.sol\":2809:2816  _status */\n      0x00\n        /* \"@openzeppelin/contracts/security/ReentrancyGuard.sol\":2809:2831  _status = _NOT_ENTERED */\n      sstore\n        /* \"@openzeppelin/contracts/security/ReentrancyGuard.sol\":2629:2838  function _nonReentrantAfter() private {... */\n      jump\n        /* \"@openzeppelin/contracts/security/ReentrancyGuard.sol\":2303:2323  _nonReentrantAfter() */\n    tag_425:\n        /* \"BidMarketplace.sol\":11036:12485  function createOffer(... */\n      swap6\n      swap5\n      pop\n      pop\n      pop\n      pop\n      pop\n      jump\t// out\n        /* \"BidMarketplace.sol\":15528:15762  function setFeeRecipient(address newFeeRecipient) external onlyOwner {... */\n    tag_161:\n        /* \"@openzeppelin/contracts/access/Ownable.sol\":1531:1544  _checkOwner() */\n      tag_427\n        /* \"@openzeppelin/contracts/access/Ownable.sol\":1531:1542  _checkOwner */\n      tag_181\n        /* \"@openzeppelin/contracts/access/Ownable.sol\":1531:1544  _checkOwner() */\n      jump\t// in\n    tag_427:\n      sub(shl(0xa0, 0x01), 0x01)\n        /* \"BidMarketplace.sol\":15615:15644  newFeeRecipient != address(0) */\n      dup2\n      and\n        /* \"BidMarketplace.sol\":15607:15664  require(newFeeRecipient != address(0), \"Invalid address\") */\n      tag_429\n      jumpi\n      mload(0x40)\n      shl(0xe5, 0x461bcd)\n      dup2\n      mstore\n        /* \"#utility.yul\":20146:20148   */\n      0x20\n        /* \"BidMarketplace.sol\":15607:15664  require(newFeeRecipient != address(0), \"Invalid address\") */\n      0x04\n      dup3\n      add\n        /* \"#utility.yul\":20128:20149   */\n      mstore\n        /* \"#utility.yul\":20185:20187   */\n      0x0f\n        /* \"#utility.yul\":20165:20183   */\n      0x24\n      dup3\n      add\n        /* \"#utility.yul\":20158:20188   */\n      mstore\n      shl(0x88, 0x496e76616c69642061646472657373)\n        /* \"#utility.yul\":20204:20222   */\n      0x44\n      dup3\n      add\n        /* \"#utility.yul\":20197:20242   */\n      mstore\n        /* \"#utility.yul\":20259:20277   */\n      0x64\n      add\n        /* \"BidMarketplace.sol\":15607:15664  require(newFeeRecipient != address(0), \"Invalid address\") */\n      tag_193\n        /* \"#utility.yul\":19944:20283   */\n      jump\n        /* \"BidMarketplace.sol\":15607:15664  require(newFeeRecipient != address(0), \"Invalid address\") */\n    tag_429:\n        /* \"BidMarketplace.sol\":15674:15686  feeRecipient */\n      0x08\n        /* \"BidMarketplace.sol\":15674:15704  feeRecipient = newFeeRecipient */\n      dup1\n      sload\n      not(sub(shl(0xa0, 0x01), 0x01))\n      and\n      sub(shl(0xa0, 0x01), 0x01)\n      dup4\n      and\n      swap1\n      dup2\n      or\n      swap1\n      swap2\n      sstore\n        /* \"BidMarketplace.sol\":15719:15755  FeeRecipientUpdated(newFeeRecipient) */\n      mload(0x40)\n        /* \"#utility.yul\":4430:4481   */\n      swap1\n      dup2\n      mstore\n        /* \"BidMarketplace.sol\":15719:15755  FeeRecipientUpdated(newFeeRecipient) */\n      0x7a7b5a0a132f9e0581eb8527f66eae9ee89c2a3e79d4ac7e41a1f1f4d48a7fc2\n      swap1\n        /* \"#utility.yul\":4418:4420   */\n      0x20\n        /* \"#utility.yul\":4403:4421   */\n      add\n        /* \"BidMarketplace.sol\":15719:15755  FeeRecipientUpdated(newFeeRecipient) */\n      tag_285\n        /* \"#utility.yul\":4284:4487   */\n      jump\n        /* \"BidMarketplace.sol\":12586:12886  function cancelOffer(uint256 offerId) external nonReentrant {... */\n    tag_165:\n        /* \"@openzeppelin/contracts/security/ReentrancyGuard.sol\":2261:2282  _nonReentrantBefore() */\n      tag_434\n        /* \"@openzeppelin/contracts/security/ReentrancyGuard.sol\":2261:2280  _nonReentrantBefore */\n      tag_188\n        /* \"@openzeppelin/contracts/security/ReentrancyGuard.sol\":2261:2282  _nonReentrantBefore() */\n      jump\t// in\n    tag_434:\n        /* \"BidMarketplace.sol\":12656:12675  Offer storage offer */\n      0x00\n        /* \"BidMarketplace.sol\":12678:12693  offers[offerId] */\n      dup2\n      dup2\n      mstore\n        /* \"BidMarketplace.sol\":12678:12684  offers */\n      0x04\n        /* \"BidMarketplace.sol\":12678:12693  offers[offerId] */\n      0x20\n      mstore\n      0x40\n      swap1\n      keccak256\n        /* \"BidMarketplace.sol\":12711:12723  offer.active */\n      0x06\n      dup2\n      add\n      sload\n      0xff\n      and\n        /* \"BidMarketplace.sol\":12703:12744  require(offer.active, \"Offer not active\") */\n      tag_436\n      jumpi\n      mload(0x40)\n      shl(0xe5, 0x461bcd)\n      dup2\n      mstore\n        /* \"#utility.yul\":17313:17315   */\n      0x20\n        /* \"BidMarketplace.sol\":12703:12744  require(offer.active, \"Offer not active\") */\n      0x04\n      dup3\n      add\n        /* \"#utility.yul\":17295:17316   */\n      mstore\n        /* \"#utility.yul\":17352:17354   */\n      0x10\n        /* \"#utility.yul\":17332:17350   */\n      0x24\n      dup3\n      add\n        /* \"#utility.yul\":17325:17355   */\n      mstore\n      shl(0x80, 0x4f66666572206e6f7420616374697665)\n        /* \"#utility.yul\":17371:17389   */\n      0x44\n      dup3\n      add\n        /* \"#utility.yul\":17364:17410   */\n      mstore\n        /* \"#utility.yul\":17427:17445   */\n      0x64\n      add\n        /* \"BidMarketplace.sol\":12703:12744  require(offer.active, \"Offer not active\") */\n      tag_193\n        /* \"#utility.yul\":17111:17451   */\n      jump\n        /* \"BidMarketplace.sol\":12703:12744  require(offer.active, \"Offer not active\") */\n    tag_436:\n        /* \"BidMarketplace.sol\":12762:12773  offer.buyer */\n      dup1\n      sload\n      sub(shl(0xa0, 0x01), 0x01)\n      and\n        /* \"BidMarketplace.sol\":12777:12787  msg.sender */\n      caller\n        /* \"BidMarketplace.sol\":12762:12787  offer.buyer == msg.sender */\n      eq\n        /* \"BidMarketplace.sol\":12754:12809  require(offer.buyer == msg.sender, \"Not offer creator\") */\n      tag_438\n      jumpi\n      mload(0x40)\n      shl(0xe5, 0x461bcd)\n      dup2\n      mstore\n        /* \"#utility.yul\":20490:20492   */\n      0x20\n        /* \"BidMarketplace.sol\":12754:12809  require(offer.buyer == msg.sender, \"Not offer creator\") */\n      0x04\n      dup3\n      add\n        /* \"#utility.yul\":20472:20493   */\n      mstore\n        /* \"#utility.yul\":20529:20531   */\n      0x11\n        /* \"#utility.yul\":20509:20527   */\n      0x24\n      dup3\n      add\n        /* \"#utility.yul\":20502:20532   */\n      mstore\n      shl(0x79, 0x2737ba1037b33332b91031b932b0ba37b9)\n        /* \"#utility.yul\":20548:20566   */\n      0x44\n      dup3\n      add\n        /* \"#utility.yul\":20541:20588   */\n      mstore\n        /* \"#utility.yul\":20605:20623   */\n      0x64\n      add\n        /* \"BidMarketplace.sol\":12754:12809  require(offer.buyer == msg.sender, \"Not offer creator\") */\n      tag_193\n        /* \"#utility.yul\":20288:20629   */\n      jump\n        /* \"BidMarketplace.sol\":12754:12809  require(offer.buyer == msg.sender, \"Not offer creator\") */\n    tag_438:\n        /* \"BidMarketplace.sol\":12820:12832  offer.active */\n      0x06\n      dup2\n      add\n        /* \"BidMarketplace.sol\":12820:12840  offer.active = false */\n      dup1\n      sload\n      not(0xff)\n      and\n      swap1\n      sstore\n        /* \"BidMarketplace.sol\":12856:12879  OfferCancelled(offerId) */\n      mload(0x40)\n        /* \"BidMarketplace.sol\":12871:12878  offerId */\n      dup3\n      swap1\n        /* \"BidMarketplace.sol\":12856:12879  OfferCancelled(offerId) */\n      0xc28b4aed030bfacc245c0501326e1beb8c0ef0d60e4edc21067fdeb52da2a7aa\n      swap1\n        /* \"BidMarketplace.sol\":12835:12840  false */\n      0x00\n      swap1\n        /* \"BidMarketplace.sol\":12856:12879  OfferCancelled(offerId) */\n      log2\n        /* \"BidMarketplace.sol\":12646:12886  {... */\n      pop\n        /* \"@openzeppelin/contracts/security/ReentrancyGuard.sol\":2303:2323  _nonReentrantAfter() */\n      tag_198\n        /* \"@openzeppelin/contracts/security/ReentrancyGuard.sol\":1716:1717  1 */\n      0x01\n        /* \"@openzeppelin/contracts/security/ReentrancyGuard.sol\":2809:2816  _status */\n      0x00\n        /* \"@openzeppelin/contracts/security/ReentrancyGuard.sol\":2809:2831  _status = _NOT_ENTERED */\n      sstore\n        /* \"@openzeppelin/contracts/security/ReentrancyGuard.sol\":2629:2838  function _nonReentrantAfter() private {... */\n      jump\n        /* \"@openzeppelin/contracts/access/Ownable.sol\":2543:2758  function transferOwnership(address newOwner) public virtual onlyOwner {... */\n    tag_169:\n        /* \"@openzeppelin/contracts/access/Ownable.sol\":1531:1544  _checkOwner() */\n      tag_443\n        /* \"@openzeppelin/contracts/access/Ownable.sol\":1531:1542  _checkOwner */\n      tag_181\n        /* \"@openzeppelin/contracts/access/Ownable.sol\":1531:1544  _checkOwner() */\n      jump\t// in\n    tag_443:\n      sub(shl(0xa0, 0x01), 0x01)\n        /* \"@openzeppelin/contracts/access/Ownable.sol\":2627:2649  newOwner == address(0) */\n      dup2\n      and\n        /* \"@openzeppelin/contracts/access/Ownable.sol\":2623:2714  if (newOwner == address(0)) {... */\n      tag_445\n      jumpi\n        /* \"@openzeppelin/contracts/access/Ownable.sol\":2672:2703  OwnableInvalidOwner(address(0)) */\n      mload(0x40)\n      shl(0xe0, 0x1e4fbdf7)\n      dup2\n      mstore\n        /* \"@openzeppelin/contracts/access/Ownable.sol\":2700:2701  0 */\n      0x00\n        /* \"@openzeppelin/contracts/access/Ownable.sol\":2672:2703  OwnableInvalidOwner(address(0)) */\n      0x04\n      dup3\n      add\n        /* \"#utility.yul\":4430:4481   */\n      mstore\n        /* \"#utility.yul\":4403:4421   */\n      0x24\n      add\n        /* \"@openzeppelin/contracts/access/Ownable.sol\":2672:2703  OwnableInvalidOwner(address(0)) */\n      tag_193\n        /* \"#utility.yul\":4284:4487   */\n      jump\n        /* \"@openzeppelin/contracts/access/Ownable.sol\":2623:2714  if (newOwner == address(0)) {... */\n    tag_445:\n        /* \"@openzeppelin/contracts/access/Ownable.sol\":2723:2751  _transferOwnership(newOwner) */\n      tag_198\n        /* \"@openzeppelin/contracts/access/Ownable.sol\":2742:2750  newOwner */\n      dup2\n        /* \"@openzeppelin/contracts/access/Ownable.sol\":2723:2741  _transferOwnership */\n      tag_278\n        /* \"@openzeppelin/contracts/access/Ownable.sol\":2723:2751  _transferOwnership(newOwner) */\n      jump\t// in\n        /* \"BidMarketplace.sol\":5060:5903  function batchListNFTs(... */\n    tag_174:\n        /* \"@openzeppelin/contracts/access/Ownable.sol\":1531:1544  _checkOwner() */\n      tag_449\n        /* \"@openzeppelin/contracts/access/Ownable.sol\":1531:1542  _checkOwner */\n      tag_181\n        /* \"@openzeppelin/contracts/access/Ownable.sol\":1531:1544  _checkOwner() */\n      jump\t// in\n    tag_449:\n        /* \"@openzeppelin/contracts/security/ReentrancyGuard.sol\":2261:2282  _nonReentrantBefore() */\n      tag_451\n        /* \"@openzeppelin/contracts/security/ReentrancyGuard.sol\":2261:2280  _nonReentrantBefore */\n      tag_188\n        /* \"@openzeppelin/contracts/security/ReentrancyGuard.sol\":2261:2282  _nonReentrantBefore() */\n      jump\t// in\n    tag_451:\n        /* \"BidMarketplace.sol\":5303:5315  nftContracts */\n      dup7\n        /* \"BidMarketplace.sol\":5340:5350  length > 0 */\n      dup1\n        /* \"BidMarketplace.sol\":5332:5367  require(length > 0, \"Empty arrays\") */\n      tag_453\n      jumpi\n      mload(0x40)\n      shl(0xe5, 0x461bcd)\n      dup2\n      mstore\n        /* \"#utility.yul\":20836:20838   */\n      0x20\n        /* \"BidMarketplace.sol\":5332:5367  require(length > 0, \"Empty arrays\") */\n      0x04\n      dup3\n      add\n        /* \"#utility.yul\":20818:20839   */\n      mstore\n        /* \"#utility.yul\":20875:20877   */\n      0x0c\n        /* \"#utility.yul\":20855:20873   */\n      0x24\n      dup3\n      add\n        /* \"#utility.yul\":20848:20878   */\n      mstore\n      shl(0xa0, 0x456d70747920617272617973)\n        /* \"#utility.yul\":20894:20912   */\n      0x44\n      dup3\n      add\n        /* \"#utility.yul\":20887:20929   */\n      mstore\n        /* \"#utility.yul\":20946:20964   */\n      0x64\n      add\n        /* \"BidMarketplace.sol\":5332:5367  require(length > 0, \"Empty arrays\") */\n      tag_193\n        /* \"#utility.yul\":20634:20970   */\n      jump\n        /* \"BidMarketplace.sol\":5332:5367  require(length > 0, \"Empty arrays\") */\n    tag_453:\n        /* \"BidMarketplace.sol\":5398:5423  length == tokenIds.length */\n      dup1\n      dup7\n      eq\n        /* \"BidMarketplace.sol\":5398:5473  length == tokenIds.length &&... */\n      dup1\n      iszero\n      tag_456\n      jumpi\n      pop\n        /* \"BidMarketplace.sol\":5443:5473  length == paymentTokens.length */\n      dup1\n      dup5\n      eq\n        /* \"BidMarketplace.sol\":5398:5473  length == tokenIds.length &&... */\n    tag_456:\n        /* \"BidMarketplace.sol\":5398:5516  length == tokenIds.length &&... */\n      dup1\n      iszero\n      tag_457\n      jumpi\n      pop\n        /* \"BidMarketplace.sol\":5493:5516  length == prices.length */\n      dup1\n      dup3\n      eq\n        /* \"BidMarketplace.sol\":5398:5516  length == tokenIds.length &&... */\n    tag_457:\n        /* \"BidMarketplace.sol\":5377:5556  require(... */\n      tag_458\n      jumpi\n      mload(0x40)\n      shl(0xe5, 0x461bcd)\n      dup2\n      mstore\n        /* \"#utility.yul\":21177:21179   */\n      0x20\n        /* \"BidMarketplace.sol\":5377:5556  require(... */\n      0x04\n      dup3\n      add\n        /* \"#utility.yul\":21159:21180   */\n      mstore\n        /* \"#utility.yul\":21216:21218   */\n      0x0e\n        /* \"#utility.yul\":21196:21214   */\n      0x24\n      dup3\n      add\n        /* \"#utility.yul\":21189:21219   */\n      mstore\n      shl(0x93, 0x082e4e4c2f240dad2e6dac2e8c6d)\n        /* \"#utility.yul\":21235:21253   */\n      0x44\n      dup3\n      add\n        /* \"#utility.yul\":21228:21272   */\n      mstore\n        /* \"#utility.yul\":21289:21307   */\n      0x64\n      add\n        /* \"BidMarketplace.sol\":5377:5556  require(... */\n      tag_193\n        /* \"#utility.yul\":20975:21313   */\n      jump\n        /* \"BidMarketplace.sol\":5377:5556  require(... */\n    tag_458:\n        /* \"BidMarketplace.sol\":5572:5581  uint256 i */\n      0x00\n        /* \"BidMarketplace.sol\":5567:5897  for (uint256 i = 0; i < length; i++) {... */\n    tag_461:\n        /* \"BidMarketplace.sol\":5591:5597  length */\n      dup2\n        /* \"BidMarketplace.sol\":5587:5588  i */\n      dup2\n        /* \"BidMarketplace.sol\":5587:5597  i < length */\n      lt\n        /* \"BidMarketplace.sol\":5567:5897  for (uint256 i = 0; i < length; i++) {... */\n      iszero\n      tag_462\n      jumpi\n        /* \"BidMarketplace.sol\":5707:5886  _createListing(... */\n      tag_464\n        /* \"BidMarketplace.sol\":5739:5749  msg.sender */\n      caller\n        /* \"BidMarketplace.sol\":5767:5779  nftContracts */\n      dup12\n      dup12\n        /* \"BidMarketplace.sol\":5780:5781  i */\n      dup5\n        /* \"BidMarketplace.sol\":5767:5782  nftContracts[i] */\n      dup2\n      dup2\n      lt\n      tag_466\n      jumpi\n      tag_466\n      tag_467\n      jump\t// in\n    tag_466:\n      swap1\n      pop\n      0x20\n      mul\n      add\n      0x20\n      dup2\n      add\n      swap1\n      tag_468\n      swap2\n      swap1\n      tag_88\n      jump\t// in\n    tag_468:\n        /* \"BidMarketplace.sol\":5800:5808  tokenIds */\n      dup11\n      dup11\n        /* \"BidMarketplace.sol\":5809:5810  i */\n      dup6\n        /* \"BidMarketplace.sol\":5800:5811  tokenIds[i] */\n      dup2\n      dup2\n      lt\n      tag_470\n      jumpi\n      tag_470\n      tag_467\n      jump\t// in\n    tag_470:\n      swap1\n      pop\n      0x20\n      mul\n      add\n      calldataload\n        /* \"BidMarketplace.sol\":5829:5842  paymentTokens */\n      dup10\n      dup10\n        /* \"BidMarketplace.sol\":5843:5844  i */\n      dup7\n        /* \"BidMarketplace.sol\":5829:5845  paymentTokens[i] */\n      dup2\n      dup2\n      lt\n      tag_472\n      jumpi\n      tag_472\n      tag_467\n      jump\t// in\n    tag_472:\n      swap1\n      pop\n      0x20\n      mul\n      add\n      0x20\n      dup2\n      add\n      swap1\n      tag_473\n      swap2\n      swap1\n      tag_88\n      jump\t// in\n    tag_473:\n        /* \"BidMarketplace.sol\":5863:5869  prices */\n      dup9\n      dup9\n        /* \"BidMarketplace.sol\":5870:5871  i */\n      dup8\n        /* \"BidMarketplace.sol\":5863:5872  prices[i] */\n      dup2\n      dup2\n      lt\n      tag_475\n      jumpi\n      tag_475\n      tag_467\n      jump\t// in\n    tag_475:\n      swap1\n      pop\n      0x20\n      mul\n      add\n      calldataload\n        /* \"BidMarketplace.sol\":5707:5721  _createListing */\n      tag_476\n        /* \"BidMarketplace.sol\":5707:5886  _createListing(... */\n      jump\t// in\n    tag_464:\n        /* \"BidMarketplace.sol\":5599:5602  i++ */\n      0x01\n      add\n        /* \"BidMarketplace.sol\":5567:5897  for (uint256 i = 0; i < length; i++) {... */\n      jump(tag_461)\n    tag_462:\n      pop\n        /* \"BidMarketplace.sol\":5276:5903  {... */\n      pop\n        /* \"@openzeppelin/contracts/security/ReentrancyGuard.sol\":2303:2323  _nonReentrantAfter() */\n      tag_477\n        /* \"@openzeppelin/contracts/security/ReentrancyGuard.sol\":1716:1717  1 */\n      0x01\n        /* \"@openzeppelin/contracts/security/ReentrancyGuard.sol\":2809:2816  _status */\n      0x00\n        /* \"@openzeppelin/contracts/security/ReentrancyGuard.sol\":2809:2831  _status = _NOT_ENTERED */\n      sstore\n        /* \"@openzeppelin/contracts/security/ReentrancyGuard.sol\":2629:2838  function _nonReentrantAfter() private {... */\n      jump\n        /* \"@openzeppelin/contracts/security/ReentrancyGuard.sol\":2303:2323  _nonReentrantAfter() */\n    tag_477:\n        /* \"BidMarketplace.sol\":5060:5903  function batchListNFTs(... */\n      pop\n      pop\n      pop\n      pop\n      pop\n      pop\n      pop\n      pop\n      jump\t// out\n        /* \"@openzeppelin/contracts/access/Ownable.sol\":1796:1958  function _checkOwner() internal view virtual {... */\n    tag_181:\n        /* \"@openzeppelin/contracts/access/Ownable.sol\":1710:1716  _owner */\n      and(sub(shl(0xa0, 0x01), 0x01), sload(0x01))\n        /* \"@openzeppelin/contracts/utils/Context.sol\":735:745  msg.sender */\n      caller\n        /* \"@openzeppelin/contracts/access/Ownable.sol\":1855:1878  owner() != _msgSender() */\n      eq\n        /* \"@openzeppelin/contracts/access/Ownable.sol\":1851:1952  if (owner() != _msgSender()) {... */\n      tag_277\n      jumpi\n        /* \"@openzeppelin/contracts/access/Ownable.sol\":1901:1941  OwnableUnauthorizedAccount(_msgSender()) */\n      mload(0x40)\n      shl(0xe0, 0x118cdaa7)\n      dup2\n      mstore\n        /* \"@openzeppelin/contracts/utils/Context.sol\":735:745  msg.sender */\n      caller\n        /* \"@openzeppelin/contracts/access/Ownable.sol\":1901:1941  OwnableUnauthorizedAccount(_msgSender()) */\n      0x04\n      dup3\n      add\n        /* \"#utility.yul\":4430:4481   */\n      mstore\n        /* \"#utility.yul\":4403:4421   */\n      0x24\n      add\n        /* \"@openzeppelin/contracts/access/Ownable.sol\":1901:1941  OwnableUnauthorizedAccount(_msgSender()) */\n      tag_193\n        /* \"#utility.yul\":4284:4487   */\n      jump\n        /* \"@openzeppelin/contracts/security/ReentrancyGuard.sol\":2336:2623  function _nonReentrantBefore() private {... */\n    tag_188:\n        /* \"@openzeppelin/contracts/security/ReentrancyGuard.sol\":1759:1760  2 */\n      0x02\n        /* \"@openzeppelin/contracts/security/ReentrancyGuard.sol\":2468:2475  _status */\n      sload(0x00)\n        /* \"@openzeppelin/contracts/security/ReentrancyGuard.sol\":2468:2487  _status != _ENTERED */\n      sub\n        /* \"@openzeppelin/contracts/security/ReentrancyGuard.sol\":2460:2523  require(_status != _ENTERED, \"ReentrancyGuard: reentrant call\") */\n      tag_486\n      jumpi\n      mload(0x40)\n      shl(0xe5, 0x461bcd)\n      dup2\n      mstore\n        /* \"#utility.yul\":21652:21654   */\n      0x20\n        /* \"@openzeppelin/contracts/security/ReentrancyGuard.sol\":2460:2523  require(_status != _ENTERED, \"ReentrancyGuard: reentrant call\") */\n      0x04\n      dup3\n      add\n        /* \"#utility.yul\":21634:21655   */\n      mstore\n        /* \"#utility.yul\":21691:21693   */\n      0x1f\n        /* \"#utility.yul\":21671:21689   */\n      0x24\n      dup3\n      add\n        /* \"#utility.yul\":21664:21694   */\n      mstore\n        /* \"#utility.yul\":21730:21763   */\n      0x5265656e7472616e637947756172643a207265656e7472616e742063616c6c00\n        /* \"#utility.yul\":21710:21728   */\n      0x44\n      dup3\n      add\n        /* \"#utility.yul\":21703:21764   */\n      mstore\n        /* \"#utility.yul\":21781:21799   */\n      0x64\n      add\n        /* \"@openzeppelin/contracts/security/ReentrancyGuard.sol\":2460:2523  require(_status != _ENTERED, \"ReentrancyGuard: reentrant call\") */\n      tag_193\n        /* \"#utility.yul\":21450:21805   */\n      jump\n        /* \"@openzeppelin/contracts/security/ReentrancyGuard.sol\":2460:2523  require(_status != _ENTERED, \"ReentrancyGuard: reentrant call\") */\n    tag_486:\n        /* \"@openzeppelin/contracts/security/ReentrancyGuard.sol\":1759:1760  2 */\n      0x02\n        /* \"@openzeppelin/contracts/security/ReentrancyGuard.sol\":2598:2605  _status */\n      0x00\n        /* \"@openzeppelin/contracts/security/ReentrancyGuard.sol\":2598:2616  _status = _ENTERED */\n      sstore\n        /* \"@openzeppelin/contracts/security/ReentrancyGuard.sol\":2336:2623  function _nonReentrantBefore() private {... */\n      jump\t// out\n        /* \"@openzeppelin/contracts/access/Ownable.sol\":2912:3099  function _transferOwnership(address newOwner) internal virtual {... */\n    tag_278:\n        /* \"@openzeppelin/contracts/access/Ownable.sol\":3004:3010  _owner */\n      0x01\n      dup1\n      sload\n      sub(shl(0xa0, 0x01), 0x01)\n        /* \"@openzeppelin/contracts/access/Ownable.sol\":3020:3037  _owner = newOwner */\n      dup4\n      dup2\n      and\n      not(sub(shl(0xa0, 0x01), 0x01))\n      dup4\n      and\n      dup2\n      or\n      swap1\n      swap4\n      sstore\n        /* \"@openzeppelin/contracts/access/Ownable.sol\":3052:3092  OwnershipTransferred(oldOwner, newOwner) */\n      mload(0x40)\n        /* \"@openzeppelin/contracts/access/Ownable.sol\":3004:3010  _owner */\n      swap2\n      and\n      swap2\n        /* \"@openzeppelin/contracts/access/Ownable.sol\":3020:3037  _owner = newOwner */\n      swap1\n        /* \"@openzeppelin/contracts/access/Ownable.sol\":3004:3010  _owner */\n      dup3\n      swap1\n        /* \"@openzeppelin/contracts/access/Ownable.sol\":3052:3092  OwnershipTransferred(oldOwner, newOwner) */\n      0x8be0079c531659141344cd1fd0a4f28419497f9722a3daafe3b4186f6b6457e0\n      swap1\n        /* \"@openzeppelin/contracts/access/Ownable.sol\":2985:3001  address oldOwner */\n      0x00\n      swap1\n        /* \"@openzeppelin/contracts/access/Ownable.sol\":3052:3092  OwnershipTransferred(oldOwner, newOwner) */\n      log3\n        /* \"@openzeppelin/contracts/access/Ownable.sol\":2975:3099  {... */\n      pop\n        /* \"@openzeppelin/contracts/access/Ownable.sol\":2912:3099  function _transferOwnership(address newOwner) internal virtual {... */\n      pop\n      jump\t// out\n        /* \"BidMarketplace.sol\":5978:7067  function _createListing(... */\n    tag_476:\n        /* \"BidMarketplace.sol\":6174:6175  0 */\n      0x00\n        /* \"BidMarketplace.sol\":6166:6171  price */\n      dup2\n        /* \"BidMarketplace.sol\":6166:6175  price > 0 */\n      gt\n        /* \"BidMarketplace.sol\":6158:6197  require(price > 0, \"Price must be > 0\") */\n      tag_492\n      jumpi\n      mload(0x40)\n      shl(0xe5, 0x461bcd)\n      dup2\n      mstore\n      0x04\n      add\n      tag_193\n      swap1\n      tag_294\n      jump\t// in\n    tag_492:\n      sub(shl(0xa0, 0x01), 0x01)\n        /* \"BidMarketplace.sol\":6215:6249  allowedPaymentTokens[paymentToken] */\n      dup3\n      and\n      0x00\n      swap1\n      dup2\n      mstore\n        /* \"BidMarketplace.sol\":6215:6235  allowedPaymentTokens */\n      0x09\n        /* \"BidMarketplace.sol\":6215:6249  allowedPaymentTokens[paymentToken] */\n      0x20\n      mstore\n      0x40\n      swap1\n      keccak256\n      sload\n      0xff\n      and\n        /* \"BidMarketplace.sol\":6207:6271  require(allowedPaymentTokens[paymentToken], \"Token not allowed\") */\n      tag_494\n      jumpi\n      mload(0x40)\n      shl(0xe5, 0x461bcd)\n      dup2\n      mstore\n        /* \"#utility.yul\":22012:22014   */\n      0x20\n        /* \"BidMarketplace.sol\":6207:6271  require(allowedPaymentTokens[paymentToken], \"Token not allowed\") */\n      0x04\n      dup3\n      add\n        /* \"#utility.yul\":21994:22015   */\n      mstore\n        /* \"#utility.yul\":22051:22053   */\n      0x11\n        /* \"#utility.yul\":22031:22049   */\n      0x24\n      dup3\n      add\n        /* \"#utility.yul\":22024:22054   */\n      mstore\n      shl(0x7a, 0x151bdad95b881b9bdd08185b1b1bddd959)\n        /* \"#utility.yul\":22070:22088   */\n      0x44\n      dup3\n      add\n        /* \"#utility.yul\":22063:22110   */\n      mstore\n        /* \"#utility.yul\":22127:22145   */\n      0x64\n      add\n        /* \"BidMarketplace.sol\":6207:6271  require(allowedPaymentTokens[paymentToken], \"Token not allowed\") */\n      tag_193\n        /* \"#utility.yul\":21810:22151   */\n      jump\n        /* \"BidMarketplace.sol\":6207:6271  require(allowedPaymentTokens[paymentToken], \"Token not allowed\") */\n    tag_494:\n        /* \"BidMarketplace.sol\":6289:6326  IERC721(nftContract).ownerOf(tokenId) */\n      mload(0x40)\n      shl(0xe1, 0x31a9108f)\n      dup2\n      mstore\n      0x04\n      dup2\n      add\n        /* \"#utility.yul\":3555:3580   */\n      dup5\n      swap1\n      mstore\n      sub(shl(0xa0, 0x01), 0x01)\n        /* \"BidMarketplace.sol\":6289:6336  IERC721(nftContract).ownerOf(tokenId) == seller */\n      dup1\n      dup8\n      and\n      swap2\n        /* \"BidMarketplace.sol\":6289:6317  IERC721(nftContract).ownerOf */\n      swap1\n      dup7\n      and\n      swap1\n      0x6352211e\n      swap1\n        /* \"#utility.yul\":3528:3546   */\n      0x24\n      add\n        /* \"BidMarketplace.sol\":6289:6326  IERC721(nftContract).ownerOf(tokenId) */\n      0x20\n      mload(0x40)\n      dup1\n      dup4\n      sub\n      dup2\n      dup7\n      gas\n      staticcall\n      iszero\n      dup1\n      iszero\n      tag_499\n      jumpi\n      returndatasize\n      0x00\n      dup1\n      returndatacopy\n      revert(0x00, returndatasize)\n    tag_499:\n      pop\n      pop\n      pop\n      pop\n      mload(0x40)\n      returndatasize\n      not(0x1f)\n      0x1f\n      dup3\n      add\n      and\n      dup3\n      add\n      dup1\n      0x40\n      mstore\n      pop\n      dup2\n      add\n      swap1\n      tag_500\n      swap2\n      swap1\n      tag_212\n      jump\t// in\n    tag_500:\n      sub(shl(0xa0, 0x01), 0x01)\n        /* \"BidMarketplace.sol\":6289:6336  IERC721(nftContract).ownerOf(tokenId) == seller */\n      and\n      eq\n        /* \"BidMarketplace.sol\":6281:6350  require(IERC721(nftContract).ownerOf(tokenId) == seller, \"Not owner\") */\n      tag_501\n      jumpi\n      mload(0x40)\n      shl(0xe5, 0x461bcd)\n      dup2\n      mstore\n        /* \"#utility.yul\":22358:22360   */\n      0x20\n        /* \"BidMarketplace.sol\":6281:6350  require(IERC721(nftContract).ownerOf(tokenId) == seller, \"Not owner\") */\n      0x04\n      dup3\n      add\n        /* \"#utility.yul\":22340:22361   */\n      mstore\n        /* \"#utility.yul\":22397:22398   */\n      0x09\n        /* \"#utility.yul\":22377:22395   */\n      0x24\n      dup3\n      add\n        /* \"#utility.yul\":22370:22399   */\n      mstore\n      shl(0xb9, 0x2737ba1037bbb732b9)\n        /* \"#utility.yul\":22415:22433   */\n      0x44\n      dup3\n      add\n        /* \"#utility.yul\":22408:22447   */\n      mstore\n        /* \"#utility.yul\":22464:22482   */\n      0x64\n      add\n        /* \"BidMarketplace.sol\":6281:6350  require(IERC721(nftContract).ownerOf(tokenId) == seller, \"Not owner\") */\n      tag_193\n        /* \"#utility.yul\":22156:22488   */\n      jump\n        /* \"BidMarketplace.sol\":6281:6350  require(IERC721(nftContract).ownerOf(tokenId) == seller, \"Not owner\") */\n    tag_501:\n        /* \"BidMarketplace.sol\":6441:6501  IERC721(nftContract).isApprovedForAll(seller, address(this)) */\n      mload(0x40)\n      shl(0xe0, 0xe985e9c5)\n      dup2\n      mstore\n      sub(shl(0xa0, 0x01), 0x01)\n        /* \"#utility.yul\":15846:15861   */\n      dup7\n      dup2\n      and\n        /* \"BidMarketplace.sol\":6441:6501  IERC721(nftContract).isApprovedForAll(seller, address(this)) */\n      0x04\n      dup4\n      add\n        /* \"#utility.yul\":15828:15862   */\n      mstore\n        /* \"BidMarketplace.sol\":6495:6499  this */\n      address\n        /* \"#utility.yul\":15878:15896   */\n      0x24\n      dup4\n      add\n        /* \"#utility.yul\":15871:15914   */\n      mstore\n        /* \"BidMarketplace.sol\":6441:6478  IERC721(nftContract).isApprovedForAll */\n      dup6\n      and\n      swap1\n      0xe985e9c5\n      swap1\n        /* \"#utility.yul\":15763:15781   */\n      0x44\n      add\n        /* \"BidMarketplace.sol\":6441:6501  IERC721(nftContract).isApprovedForAll(seller, address(this)) */\n      0x20\n      mload(0x40)\n      dup1\n      dup4\n      sub\n      dup2\n      dup7\n      gas\n      staticcall\n      iszero\n      dup1\n      iszero\n      tag_506\n      jumpi\n      returndatasize\n      0x00\n      dup1\n      returndatacopy\n      revert(0x00, returndatasize)\n    tag_506:\n      pop\n      pop\n      pop\n      pop\n      mload(0x40)\n      returndatasize\n      not(0x1f)\n      0x1f\n      dup3\n      add\n      and\n      dup3\n      add\n      dup1\n      0x40\n      mstore\n      pop\n      dup2\n      add\n      swap1\n      tag_507\n      swap2\n      swap1\n      tag_257\n      jump\t// in\n    tag_507:\n        /* \"BidMarketplace.sol\":6420:6551  require(... */\n      tag_508\n      jumpi\n      mload(0x40)\n      shl(0xe5, 0x461bcd)\n      dup2\n      mstore\n      0x04\n      add\n      tag_193\n      swap1\n      tag_317\n      jump\t// in\n    tag_508:\n        /* \"BidMarketplace.sol\":6562:6579  uint256 listingId */\n      0x00\n        /* \"BidMarketplace.sol\":6584:6597  nextListingId */\n      0x03\n      0x00\n        /* \"BidMarketplace.sol\":6582:6597  ++nextListingId */\n      dup2\n      sload\n      tag_510\n      swap1\n      tag_322\n      jump\t// in\n    tag_510:\n      swap2\n      dup3\n      swap1\n      sstore\n      pop\n        /* \"BidMarketplace.sol\":6629:6836  Listing({... */\n      0x40\n      dup1\n      mload\n      0xc0\n      dup2\n      add\n      dup3\n      mstore\n      sub(shl(0xa0, 0x01), 0x01)\n      dup1\n      dup11\n      and\n      dup1\n      dup4\n      mstore\n      dup10\n      dup3\n      and\n      0x20\n      dup1\n      dup6\n      add\n      dup3\n      dup2\n      mstore\n      dup6\n      dup8\n      add\n      dup13\n      dup2\n      mstore\n      dup12\n      dup7\n      and\n      0x60\n      dup9\n      add\n      swap1\n      dup2\n      mstore\n      0x80\n      dup9\n      add\n      dup13\n      dup2\n      mstore\n        /* \"BidMarketplace.sol\":6821:6825  true */\n      0x01\n        /* \"BidMarketplace.sol\":6629:6836  Listing({... */\n      0xa0\n      dup11\n      add\n      dup2\n      dup2\n      mstore\n      0x00\n        /* \"BidMarketplace.sol\":6607:6626  listings[listingId] */\n      dup14\n      dup2\n      mstore\n        /* \"BidMarketplace.sol\":6607:6615  listings */\n      0x02\n        /* \"BidMarketplace.sol\":6607:6626  listings[listingId] */\n      dup1\n      dup10\n      mstore\n      dup14\n      dup3\n      keccak256\n        /* \"BidMarketplace.sol\":6607:6836  listings[listingId] = Listing({... */\n      swap13\n      mload\n      dup14\n      sload\n      swap1\n      dup14\n      and\n      not(sub(shl(0xa0, 0x01), 0x01))\n      swap2\n      dup3\n      and\n      or\n      dup15\n      sstore\n      swap8\n      mload\n      swap4\n      dup14\n      add\n      dup1\n      sload\n      swap5\n      dup14\n      and\n      swap5\n      dup10\n      and\n      swap5\n      swap1\n      swap5\n      or\n      swap1\n      swap4\n      sstore\n      swap5\n      mload\n      swap2\n      dup12\n      add\n      swap2\n      swap1\n      swap2\n      sstore\n      swap2\n      mload\n      0x03\n      dup11\n      add\n      dup1\n      sload\n      swap2\n      swap1\n      swap10\n      and\n      swap5\n      and\n      swap4\n      swap1\n      swap4\n      or\n      swap1\n      swap7\n      sstore\n      swap1\n      mload\n      0x04\n      dup8\n      add\n      sstore\n      swap4\n      mload\n      0x05\n      swap1\n      swap6\n      add\n      dup1\n      sload\n      swap6\n      iszero\n      iszero\n      not(0xff)\n      swap1\n      swap7\n      and\n      swap6\n      swap1\n      swap6\n      or\n      swap1\n      swap5\n      sstore\n        /* \"BidMarketplace.sol\":6847:6874  tokenToListing[nftContract] */\n      dup1\n      dup4\n      mstore\n        /* \"BidMarketplace.sol\":6847:6861  tokenToListing */\n      0x06\n        /* \"BidMarketplace.sol\":6847:6874  tokenToListing[nftContract] */\n      dup5\n      mstore\n      dup5\n      dup4\n      keccak256\n        /* \"BidMarketplace.sol\":6847:6883  tokenToListing[nftContract][tokenId] */\n      dup11\n      dup5\n      mstore\n      swap1\n      swap4\n      mstore\n      swap1\n      dup4\n      swap1\n      keccak256\n        /* \"BidMarketplace.sol\":6847:6895  tokenToListing[nftContract][tokenId] = listingId */\n      dup5\n      swap1\n      sstore\n        /* \"BidMarketplace.sol\":6910:7060  Listed(... */\n      swap2\n      mload\n        /* \"BidMarketplace.sol\":6582:6597  ++nextListingId */\n      swap3\n      swap4\n      pop\n        /* \"BidMarketplace.sol\":6629:6836  Listing({... */\n      swap2\n        /* \"BidMarketplace.sol\":6582:6597  ++nextListingId */\n      dup4\n      swap1\n        /* \"BidMarketplace.sol\":6910:7060  Listed(... */\n      0xf270d40e4ce0790fe62574668b19edbd345bdfc4b0e945ada622c5fe65f3e0c4\n      swap1\n      tag_511\n      swap1\n        /* \"BidMarketplace.sol\":6726:6733  tokenId */\n      dup10\n      swap1\n        /* \"BidMarketplace.sol\":6761:6773  paymentToken */\n      dup10\n      swap1\n        /* \"BidMarketplace.sol\":6794:6799  price */\n      dup10\n      swap1\n        /* \"#utility.yul\":16963:16988   */\n      swap3\n      dup4\n      mstore\n      sub(shl(0xa0, 0x01), 0x01)\n        /* \"#utility.yul\":17024:17056   */\n      swap2\n      swap1\n      swap2\n      and\n        /* \"#utility.yul\":17019:17021   */\n      0x20\n        /* \"#utility.yul\":17004:17022   */\n      dup4\n      add\n        /* \"#utility.yul\":16997:17057   */\n      mstore\n        /* \"#utility.yul\":17088:17090   */\n      0x40\n        /* \"#utility.yul\":17073:17091   */\n      dup3\n      add\n        /* \"#utility.yul\":17066:17100   */\n      mstore\n        /* \"#utility.yul\":16951:16953   */\n      0x60\n        /* \"#utility.yul\":16936:16954   */\n      add\n      swap1\n        /* \"#utility.yul\":16761:17106   */\n      jump\n        /* \"BidMarketplace.sol\":6910:7060  Listed(... */\n    tag_511:\n      mload(0x40)\n      dup1\n      swap2\n      sub\n      swap1\n      log4\n        /* \"BidMarketplace.sol\":6148:7067  {... */\n      pop\n        /* \"BidMarketplace.sol\":5978:7067  function _createListing(... */\n      pop\n      pop\n      pop\n      pop\n      pop\n      jump\t// out\n        /* \"#utility.yul\":14:194   */\n    tag_40:\n        /* \"#utility.yul\":73:79   */\n      0x00\n        /* \"#utility.yul\":126:128   */\n      0x20\n        /* \"#utility.yul\":114:123   */\n      dup3\n        /* \"#utility.yul\":105:112   */\n      dup5\n        /* \"#utility.yul\":101:124   */\n      sub\n        /* \"#utility.yul\":97:129   */\n      slt\n        /* \"#utility.yul\":94:146   */\n      iszero\n      tag_520\n      jumpi\n        /* \"#utility.yul\":142:143   */\n      0x00\n        /* \"#utility.yul\":139:140   */\n      dup1\n        /* \"#utility.yul\":132:144   */\n      revert\n        /* \"#utility.yul\":94:146   */\n    tag_520:\n      pop\n        /* \"#utility.yul\":165:188   */\n      calldataload\n      swap2\n        /* \"#utility.yul\":14:194   */\n      swap1\n      pop\n      jump\t// out\n        /* \"#utility.yul\":833:964   */\n    tag_513:\n      sub(shl(0xa0, 0x01), 0x01)\n        /* \"#utility.yul\":908:939   */\n      dup2\n      and\n        /* \"#utility.yul\":898:940   */\n      dup2\n      eq\n        /* \"#utility.yul\":888:958   */\n      tag_198\n      jumpi\n        /* \"#utility.yul\":954:955   */\n      0x00\n        /* \"#utility.yul\":951:952   */\n      dup1\n        /* \"#utility.yul\":944:956   */\n      revert\n        /* \"#utility.yul\":969:1096   */\n    tag_514:\n        /* \"#utility.yul\":1030:1040   */\n      0x4e487b71\n        /* \"#utility.yul\":1025:1028   */\n      0xe0\n        /* \"#utility.yul\":1021:1041   */\n      shl\n        /* \"#utility.yul\":1018:1019   */\n      0x00\n        /* \"#utility.yul\":1011:1042   */\n      mstore\n        /* \"#utility.yul\":1061:1065   */\n      0x41\n        /* \"#utility.yul\":1058:1059   */\n      0x04\n        /* \"#utility.yul\":1051:1066   */\n      mstore\n        /* \"#utility.yul\":1085:1089   */\n      0x24\n        /* \"#utility.yul\":1082:1083   */\n      0x00\n        /* \"#utility.yul\":1075:1090   */\n      revert\n        /* \"#utility.yul\":1101:2367   */\n    tag_47:\n        /* \"#utility.yul\":1196:1202   */\n      0x00\n        /* \"#utility.yul\":1204:1210   */\n      dup1\n        /* \"#utility.yul\":1212:1218   */\n      0x00\n        /* \"#utility.yul\":1220:1226   */\n      dup1\n        /* \"#utility.yul\":1273:1276   */\n      0x80\n        /* \"#utility.yul\":1261:1270   */\n      dup6\n        /* \"#utility.yul\":1252:1259   */\n      dup8\n        /* \"#utility.yul\":1248:1271   */\n      sub\n        /* \"#utility.yul\":1244:1277   */\n      slt\n        /* \"#utility.yul\":1241:1294   */\n      iszero\n      tag_526\n      jumpi\n        /* \"#utility.yul\":1290:1291   */\n      0x00\n        /* \"#utility.yul\":1287:1288   */\n      dup1\n        /* \"#utility.yul\":1280:1292   */\n      revert\n        /* \"#utility.yul\":1241:1294   */\n    tag_526:\n        /* \"#utility.yul\":1329:1338   */\n      dup5\n        /* \"#utility.yul\":1316:1339   */\n      calldataload\n        /* \"#utility.yul\":1348:1379   */\n      tag_527\n        /* \"#utility.yul\":1373:1378   */\n      dup2\n        /* \"#utility.yul\":1348:1379   */\n      tag_513\n      jump\t// in\n    tag_527:\n        /* \"#utility.yul\":1398:1403   */\n      swap4\n      pop\n        /* \"#utility.yul\":1455:1457   */\n      0x20\n        /* \"#utility.yul\":1440:1458   */\n      dup6\n      add\n        /* \"#utility.yul\":1427:1459   */\n      calldataload\n        /* \"#utility.yul\":1468:1501   */\n      tag_528\n        /* \"#utility.yul\":1427:1459   */\n      dup2\n        /* \"#utility.yul\":1468:1501   */\n      tag_513\n      jump\t// in\n    tag_528:\n        /* \"#utility.yul\":1520:1527   */\n      swap3\n      pop\n        /* \"#utility.yul\":1574:1576   */\n      0x40\n        /* \"#utility.yul\":1559:1577   */\n      dup6\n      add\n        /* \"#utility.yul\":1546:1578   */\n      calldataload\n      swap2\n      pop\n        /* \"#utility.yul\":1629:1631   */\n      0x60\n        /* \"#utility.yul\":1614:1632   */\n      dup6\n      add\n        /* \"#utility.yul\":1601:1633   */\n      calldataload\n        /* \"#utility.yul\":1652:1670   */\n      0xffffffffffffffff\n        /* \"#utility.yul\":1682:1696   */\n      dup1\n      dup3\n      gt\n        /* \"#utility.yul\":1679:1713   */\n      iszero\n      tag_529\n      jumpi\n        /* \"#utility.yul\":1709:1710   */\n      0x00\n        /* \"#utility.yul\":1706:1707   */\n      dup1\n        /* \"#utility.yul\":1699:1711   */\n      revert\n        /* \"#utility.yul\":1679:1713   */\n    tag_529:\n        /* \"#utility.yul\":1747:1753   */\n      dup2\n        /* \"#utility.yul\":1736:1745   */\n      dup8\n        /* \"#utility.yul\":1732:1754   */\n      add\n        /* \"#utility.yul\":1722:1754   */\n      swap2\n      pop\n        /* \"#utility.yul\":1792:1799   */\n      dup8\n        /* \"#utility.yul\":1785:1789   */\n      0x1f\n        /* \"#utility.yul\":1781:1783   */\n      dup4\n        /* \"#utility.yul\":1777:1790   */\n      add\n        /* \"#utility.yul\":1773:1800   */\n      slt\n        /* \"#utility.yul\":1763:1818   */\n      tag_530\n      jumpi\n        /* \"#utility.yul\":1814:1815   */\n      0x00\n        /* \"#utility.yul\":1811:1812   */\n      dup1\n        /* \"#utility.yul\":1804:1816   */\n      revert\n        /* \"#utility.yul\":1763:1818   */\n    tag_530:\n        /* \"#utility.yul\":1850:1852   */\n      dup2\n        /* \"#utility.yul\":1837:1853   */\n      calldataload\n        /* \"#utility.yul\":1872:1874   */\n      dup2\n        /* \"#utility.yul\":1868:1870   */\n      dup2\n        /* \"#utility.yul\":1865:1875   */\n      gt\n        /* \"#utility.yul\":1862:1898   */\n      iszero\n      tag_532\n      jumpi\n        /* \"#utility.yul\":1878:1896   */\n      tag_532\n      tag_514\n      jump\t// in\n    tag_532:\n        /* \"#utility.yul\":1953:1955   */\n      0x40\n        /* \"#utility.yul\":1947:1956   */\n      mload\n        /* \"#utility.yul\":1921:1923   */\n      0x1f\n        /* \"#utility.yul\":2007:2020   */\n      dup3\n      add\n      not(0x1f)\n        /* \"#utility.yul\":2003:2025   */\n      swap1\n      dup2\n      and\n        /* \"#utility.yul\":2027:2029   */\n      0x3f\n        /* \"#utility.yul\":1999:2030   */\n      add\n        /* \"#utility.yul\":1995:2035   */\n      and\n        /* \"#utility.yul\":1983:2036   */\n      dup2\n      add\n      swap1\n        /* \"#utility.yul\":2051:2069   */\n      dup4\n      dup3\n      gt\n        /* \"#utility.yul\":2071:2093   */\n      dup2\n      dup4\n      lt\n        /* \"#utility.yul\":2048:2094   */\n      or\n        /* \"#utility.yul\":2045:2117   */\n      iszero\n      tag_534\n      jumpi\n        /* \"#utility.yul\":2097:2115   */\n      tag_534\n      tag_514\n      jump\t// in\n    tag_534:\n        /* \"#utility.yul\":2137:2147   */\n      dup2\n        /* \"#utility.yul\":2133:2135   */\n      0x40\n        /* \"#utility.yul\":2126:2148   */\n      mstore\n        /* \"#utility.yul\":2172:2174   */\n      dup3\n        /* \"#utility.yul\":2164:2170   */\n      dup2\n        /* \"#utility.yul\":2157:2175   */\n      mstore\n        /* \"#utility.yul\":2212:2219   */\n      dup11\n        /* \"#utility.yul\":2207:2209   */\n      0x20\n        /* \"#utility.yul\":2202:2204   */\n      dup5\n        /* \"#utility.yul\":2198:2200   */\n      dup8\n        /* \"#utility.yul\":2194:2205   */\n      add\n        /* \"#utility.yul\":2190:2210   */\n      add\n        /* \"#utility.yul\":2187:2220   */\n      gt\n        /* \"#utility.yul\":2184:2237   */\n      iszero\n      tag_535\n      jumpi\n        /* \"#utility.yul\":2233:2234   */\n      0x00\n        /* \"#utility.yul\":2230:2231   */\n      dup1\n        /* \"#utility.yul\":2223:2235   */\n      revert\n        /* \"#utility.yul\":2184:2237   */\n    tag_535:\n        /* \"#utility.yul\":2289:2291   */\n      dup3\n        /* \"#utility.yul\":2284:2286   */\n      0x20\n        /* \"#utility.yul\":2280:2282   */\n      dup7\n        /* \"#utility.yul\":2276:2287   */\n      add\n        /* \"#utility.yul\":2271:2273   */\n      0x20\n        /* \"#utility.yul\":2263:2269   */\n      dup4\n        /* \"#utility.yul\":2259:2274   */\n      add\n        /* \"#utility.yul\":2246:2292   */\n      calldatacopy\n        /* \"#utility.yul\":2334:2335   */\n      0x00\n        /* \"#utility.yul\":2329:2331   */\n      0x20\n        /* \"#utility.yul\":2324:2326   */\n      dup5\n        /* \"#utility.yul\":2316:2322   */\n      dup4\n        /* \"#utility.yul\":2312:2327   */\n      add\n        /* \"#utility.yul\":2308:2332   */\n      add\n        /* \"#utility.yul\":2301:2336   */\n      mstore\n        /* \"#utility.yul\":2355:2361   */\n      dup1\n        /* \"#utility.yul\":2345:2361   */\n      swap6\n      pop\n      pop\n      pop\n      pop\n      pop\n      pop\n        /* \"#utility.yul\":1101:2367   */\n      swap3\n      swap6\n      swap2\n      swap5\n      pop\n      swap3\n      pop\n      jump\t// out\n        /* \"#utility.yul\":2579:2697   */\n    tag_515:\n        /* \"#utility.yul\":2665:2670   */\n      dup1\n        /* \"#utility.yul\":2658:2671   */\n      iszero\n        /* \"#utility.yul\":2651:2672   */\n      iszero\n        /* \"#utility.yul\":2644:2649   */\n      dup2\n        /* \"#utility.yul\":2641:2673   */\n      eq\n        /* \"#utility.yul\":2631:2691   */\n      tag_198\n      jumpi\n        /* \"#utility.yul\":2687:2688   */\n      0x00\n        /* \"#utility.yul\":2684:2685   */\n      dup1\n        /* \"#utility.yul\":2677:2689   */\n      revert\n        /* \"#utility.yul\":2702:3084   */\n    tag_54:\n        /* \"#utility.yul\":2767:2773   */\n      0x00\n        /* \"#utility.yul\":2775:2781   */\n      dup1\n        /* \"#utility.yul\":2828:2830   */\n      0x40\n        /* \"#utility.yul\":2816:2825   */\n      dup4\n        /* \"#utility.yul\":2807:2814   */\n      dup6\n        /* \"#utility.yul\":2803:2826   */\n      sub\n        /* \"#utility.yul\":2799:2831   */\n      slt\n        /* \"#utility.yul\":2796:2848   */\n      iszero\n      tag_540\n      jumpi\n        /* \"#utility.yul\":2844:2845   */\n      0x00\n        /* \"#utility.yul\":2841:2842   */\n      dup1\n        /* \"#utility.yul\":2834:2846   */\n      revert\n        /* \"#utility.yul\":2796:2848   */\n    tag_540:\n        /* \"#utility.yul\":2883:2892   */\n      dup3\n        /* \"#utility.yul\":2870:2893   */\n      calldataload\n        /* \"#utility.yul\":2902:2933   */\n      tag_541\n        /* \"#utility.yul\":2927:2932   */\n      dup2\n        /* \"#utility.yul\":2902:2933   */\n      tag_513\n      jump\t// in\n    tag_541:\n        /* \"#utility.yul\":2952:2957   */\n      swap2\n      pop\n        /* \"#utility.yul\":3009:3011   */\n      0x20\n        /* \"#utility.yul\":2994:3012   */\n      dup4\n      add\n        /* \"#utility.yul\":2981:3013   */\n      calldataload\n        /* \"#utility.yul\":3022:3052   */\n      tag_542\n        /* \"#utility.yul\":2981:3013   */\n      dup2\n        /* \"#utility.yul\":3022:3052   */\n      tag_515\n      jump\t// in\n    tag_542:\n        /* \"#utility.yul\":3071:3078   */\n      dup1\n        /* \"#utility.yul\":3061:3078   */\n      swap2\n      pop\n      pop\n        /* \"#utility.yul\":2702:3084   */\n      swap3\n      pop\n      swap3\n      swap1\n      pop\n      jump\t// out\n        /* \"#utility.yul\":3089:3404   */\n    tag_59:\n        /* \"#utility.yul\":3157:3163   */\n      0x00\n        /* \"#utility.yul\":3165:3171   */\n      dup1\n        /* \"#utility.yul\":3218:3220   */\n      0x40\n        /* \"#utility.yul\":3206:3215   */\n      dup4\n        /* \"#utility.yul\":3197:3204   */\n      dup6\n        /* \"#utility.yul\":3193:3216   */\n      sub\n        /* \"#utility.yul\":3189:3221   */\n      slt\n        /* \"#utility.yul\":3186:3238   */\n      iszero\n      tag_544\n      jumpi\n        /* \"#utility.yul\":3234:3235   */\n      0x00\n        /* \"#utility.yul\":3231:3232   */\n      dup1\n        /* \"#utility.yul\":3224:3236   */\n      revert\n        /* \"#utility.yul\":3186:3238   */\n    tag_544:\n        /* \"#utility.yul\":3273:3282   */\n      dup3\n        /* \"#utility.yul\":3260:3283   */\n      calldataload\n        /* \"#utility.yul\":3292:3323   */\n      tag_545\n        /* \"#utility.yul\":3317:3322   */\n      dup2\n        /* \"#utility.yul\":3292:3323   */\n      tag_513\n      jump\t// in\n    tag_545:\n        /* \"#utility.yul\":3342:3347   */\n      swap5\n        /* \"#utility.yul\":3394:3396   */\n      0x20\n        /* \"#utility.yul\":3379:3397   */\n      swap4\n      swap1\n      swap4\n      add\n        /* \"#utility.yul\":3366:3398   */\n      calldataload\n      swap4\n      pop\n      pop\n      pop\n        /* \"#utility.yul\":3089:3404   */\n      jump\t// out\n        /* \"#utility.yul\":4492:4739   */\n    tag_88:\n        /* \"#utility.yul\":4551:4557   */\n      0x00\n        /* \"#utility.yul\":4604:4606   */\n      0x20\n        /* \"#utility.yul\":4592:4601   */\n      dup3\n        /* \"#utility.yul\":4583:4590   */\n      dup5\n        /* \"#utility.yul\":4579:4602   */\n      sub\n        /* \"#utility.yul\":4575:4607   */\n      slt\n        /* \"#utility.yul\":4572:4624   */\n      iszero\n      tag_550\n      jumpi\n        /* \"#utility.yul\":4620:4621   */\n      0x00\n        /* \"#utility.yul\":4617:4618   */\n      dup1\n        /* \"#utility.yul\":4610:4622   */\n      revert\n        /* \"#utility.yul\":4572:4624   */\n    tag_550:\n        /* \"#utility.yul\":4659:4668   */\n      dup2\n        /* \"#utility.yul\":4646:4669   */\n      calldataload\n        /* \"#utility.yul\":4678:4709   */\n      tag_551\n        /* \"#utility.yul\":4703:4708   */\n      dup2\n        /* \"#utility.yul\":4678:4709   */\n      tag_513\n      jump\t// in\n    tag_551:\n        /* \"#utility.yul\":4728:4733   */\n      swap4\n        /* \"#utility.yul\":4492:4739   */\n      swap3\n      pop\n      pop\n      pop\n      jump\t// out\n        /* \"#utility.yul\":5623:6148   */\n    tag_125:\n        /* \"#utility.yul\":5709:5715   */\n      0x00\n        /* \"#utility.yul\":5717:5723   */\n      dup1\n        /* \"#utility.yul\":5725:5731   */\n      0x00\n        /* \"#utility.yul\":5733:5739   */\n      dup1\n        /* \"#utility.yul\":5786:5789   */\n      0x80\n        /* \"#utility.yul\":5774:5783   */\n      dup6\n        /* \"#utility.yul\":5765:5772   */\n      dup8\n        /* \"#utility.yul\":5761:5784   */\n      sub\n        /* \"#utility.yul\":5757:5790   */\n      slt\n        /* \"#utility.yul\":5754:5807   */\n      iszero\n      tag_555\n      jumpi\n        /* \"#utility.yul\":5803:5804   */\n      0x00\n        /* \"#utility.yul\":5800:5801   */\n      dup1\n        /* \"#utility.yul\":5793:5805   */\n      revert\n        /* \"#utility.yul\":5754:5807   */\n    tag_555:\n        /* \"#utility.yul\":5842:5851   */\n      dup5\n        /* \"#utility.yul\":5829:5852   */\n      calldataload\n        /* \"#utility.yul\":5861:5892   */\n      tag_556\n        /* \"#utility.yul\":5886:5891   */\n      dup2\n        /* \"#utility.yul\":5861:5892   */\n      tag_513\n      jump\t// in\n    tag_556:\n        /* \"#utility.yul\":5911:5916   */\n      swap4\n      pop\n        /* \"#utility.yul\":5963:5965   */\n      0x20\n        /* \"#utility.yul\":5948:5966   */\n      dup6\n      add\n        /* \"#utility.yul\":5935:5967   */\n      calldataload\n      swap3\n      pop\n        /* \"#utility.yul\":6019:6021   */\n      0x40\n        /* \"#utility.yul\":6004:6022   */\n      dup6\n      add\n        /* \"#utility.yul\":5991:6023   */\n      calldataload\n        /* \"#utility.yul\":6032:6065   */\n      tag_557\n        /* \"#utility.yul\":5991:6023   */\n      dup2\n        /* \"#utility.yul\":6032:6065   */\n      tag_513\n      jump\t// in\n    tag_557:\n        /* \"#utility.yul\":5623:6148   */\n      swap4\n      swap7\n      swap3\n      swap6\n      pop\n        /* \"#utility.yul\":6084:6091   */\n      swap3\n      swap4\n        /* \"#utility.yul\":6138:6140   */\n      0x60\n        /* \"#utility.yul\":6123:6141   */\n      add\n        /* \"#utility.yul\":6110:6142   */\n      calldataload\n      swap3\n      pop\n      pop\n        /* \"#utility.yul\":5623:6148   */\n      jump\t// out\n        /* \"#utility.yul\":6153:6401   */\n    tag_131:\n        /* \"#utility.yul\":6221:6227   */\n      0x00\n        /* \"#utility.yul\":6229:6235   */\n      dup1\n        /* \"#utility.yul\":6282:6284   */\n      0x40\n        /* \"#utility.yul\":6270:6279   */\n      dup4\n        /* \"#utility.yul\":6261:6268   */\n      dup6\n        /* \"#utility.yul\":6257:6280   */\n      sub\n        /* \"#utility.yul\":6253:6285   */\n      slt\n        /* \"#utility.yul\":6250:6302   */\n      iszero\n      tag_559\n      jumpi\n        /* \"#utility.yul\":6298:6299   */\n      0x00\n        /* \"#utility.yul\":6295:6296   */\n      dup1\n        /* \"#utility.yul\":6288:6300   */\n      revert\n        /* \"#utility.yul\":6250:6302   */\n    tag_559:\n      pop\n      pop\n        /* \"#utility.yul\":6321:6344   */\n      dup1\n      calldataload\n      swap3\n        /* \"#utility.yul\":6391:6393   */\n      0x20\n        /* \"#utility.yul\":6376:6394   */\n      swap1\n      swap2\n      add\n        /* \"#utility.yul\":6363:6395   */\n      calldataload\n      swap2\n      pop\n        /* \"#utility.yul\":6153:6401   */\n      jump\t// out\n        /* \"#utility.yul\":6406:7000   */\n    tag_145:\n        /* \"#utility.yul\":6501:6507   */\n      0x00\n        /* \"#utility.yul\":6509:6515   */\n      dup1\n        /* \"#utility.yul\":6517:6523   */\n      0x00\n        /* \"#utility.yul\":6525:6531   */\n      dup1\n        /* \"#utility.yul\":6533:6539   */\n      0x00\n        /* \"#utility.yul\":6586:6589   */\n      0xa0\n        /* \"#utility.yul\":6574:6583   */\n      dup7\n        /* \"#utility.yul\":6565:6572   */\n      dup9\n        /* \"#utility.yul\":6561:6584   */\n      sub\n        /* \"#utility.yul\":6557:6590   */\n      slt\n        /* \"#utility.yul\":6554:6607   */\n      iszero\n      tag_561\n      jumpi\n        /* \"#utility.yul\":6603:6604   */\n      0x00\n        /* \"#utility.yul\":6600:6601   */\n      dup1\n        /* \"#utility.yul\":6593:6605   */\n      revert\n        /* \"#utility.yul\":6554:6607   */\n    tag_561:\n        /* \"#utility.yul\":6642:6651   */\n      dup6\n        /* \"#utility.yul\":6629:6652   */\n      calldataload\n        /* \"#utility.yul\":6661:6692   */\n      tag_562\n        /* \"#utility.yul\":6686:6691   */\n      dup2\n        /* \"#utility.yul\":6661:6692   */\n      tag_513\n      jump\t// in\n    tag_562:\n        /* \"#utility.yul\":6711:6716   */\n      swap5\n      pop\n        /* \"#utility.yul\":6763:6765   */\n      0x20\n        /* \"#utility.yul\":6748:6766   */\n      dup7\n      add\n        /* \"#utility.yul\":6735:6767   */\n      calldataload\n      swap4\n      pop\n        /* \"#utility.yul\":6819:6821   */\n      0x40\n        /* \"#utility.yul\":6804:6822   */\n      dup7\n      add\n        /* \"#utility.yul\":6791:6823   */\n      calldataload\n        /* \"#utility.yul\":6832:6865   */\n      tag_563\n        /* \"#utility.yul\":6791:6823   */\n      dup2\n        /* \"#utility.yul\":6832:6865   */\n      tag_513\n      jump\t// in\n    tag_563:\n        /* \"#utility.yul\":6406:7000   */\n      swap5\n      swap8\n      swap4\n      swap7\n      pop\n        /* \"#utility.yul\":6884:6891   */\n      swap4\n      swap5\n        /* \"#utility.yul\":6938:6940   */\n      0x60\n        /* \"#utility.yul\":6923:6941   */\n      dup2\n      add\n        /* \"#utility.yul\":6910:6942   */\n      calldataload\n      swap5\n      pop\n        /* \"#utility.yul\":6989:6992   */\n      0x80\n        /* \"#utility.yul\":6974:6993   */\n      add\n        /* \"#utility.yul\":6961:6994   */\n      calldataload\n      swap3\n        /* \"#utility.yul\":6406:7000   */\n      swap2\n      pop\n      pop\n      jump\t// out\n        /* \"#utility.yul\":7620:7987   */\n    tag_516:\n        /* \"#utility.yul\":7683:7691   */\n      0x00\n        /* \"#utility.yul\":7693:7699   */\n      dup1\n        /* \"#utility.yul\":7747:7750   */\n      dup4\n        /* \"#utility.yul\":7740:7744   */\n      0x1f\n        /* \"#utility.yul\":7732:7738   */\n      dup5\n        /* \"#utility.yul\":7728:7745   */\n      add\n        /* \"#utility.yul\":7724:7751   */\n      slt\n        /* \"#utility.yul\":7714:7769   */\n      tag_566\n      jumpi\n        /* \"#utility.yul\":7765:7766   */\n      0x00\n        /* \"#utility.yul\":7762:7763   */\n      dup1\n        /* \"#utility.yul\":7755:7767   */\n      revert\n        /* \"#utility.yul\":7714:7769   */\n    tag_566:\n      pop\n        /* \"#utility.yul\":7788:7808   */\n      dup2\n      calldataload\n        /* \"#utility.yul\":7831:7849   */\n      0xffffffffffffffff\n        /* \"#utility.yul\":7820:7850   */\n      dup2\n      gt\n        /* \"#utility.yul\":7817:7867   */\n      iszero\n      tag_567\n      jumpi\n        /* \"#utility.yul\":7863:7864   */\n      0x00\n        /* \"#utility.yul\":7860:7861   */\n      dup1\n        /* \"#utility.yul\":7853:7865   */\n      revert\n        /* \"#utility.yul\":7817:7867   */\n    tag_567:\n        /* \"#utility.yul\":7900:7904   */\n      0x20\n        /* \"#utility.yul\":7892:7898   */\n      dup4\n        /* \"#utility.yul\":7888:7905   */\n      add\n        /* \"#utility.yul\":7876:7905   */\n      swap2\n      pop\n        /* \"#utility.yul\":7960:7963   */\n      dup4\n        /* \"#utility.yul\":7953:7957   */\n      0x20\n        /* \"#utility.yul\":7943:7949   */\n      dup3\n        /* \"#utility.yul\":7940:7941   */\n      0x05\n        /* \"#utility.yul\":7936:7950   */\n      shl\n        /* \"#utility.yul\":7928:7934   */\n      dup6\n        /* \"#utility.yul\":7924:7951   */\n      add\n        /* \"#utility.yul\":7920:7958   */\n      add\n        /* \"#utility.yul\":7917:7964   */\n      gt\n        /* \"#utility.yul\":7914:7981   */\n      iszero\n      tag_568\n      jumpi\n        /* \"#utility.yul\":7977:7978   */\n      0x00\n        /* \"#utility.yul\":7974:7975   */\n      dup1\n        /* \"#utility.yul\":7967:7979   */\n      revert\n        /* \"#utility.yul\":7914:7981   */\n    tag_568:\n        /* \"#utility.yul\":7620:7987   */\n      swap3\n      pop\n      swap3\n      swap1\n      pop\n      jump\t// out\n        /* \"#utility.yul\":7992:9396   */\n    tag_173:\n        /* \"#utility.yul\":8186:8192   */\n      0x00\n        /* \"#utility.yul\":8194:8200   */\n      dup1\n        /* \"#utility.yul\":8202:8208   */\n      0x00\n        /* \"#utility.yul\":8210:8216   */\n      dup1\n        /* \"#utility.yul\":8218:8224   */\n      0x00\n        /* \"#utility.yul\":8226:8232   */\n      dup1\n        /* \"#utility.yul\":8234:8240   */\n      0x00\n        /* \"#utility.yul\":8242:8248   */\n      dup1\n        /* \"#utility.yul\":8295:8298   */\n      0x80\n        /* \"#utility.yul\":8283:8292   */\n      dup10\n        /* \"#utility.yul\":8274:8281   */\n      dup12\n        /* \"#utility.yul\":8270:8293   */\n      sub\n        /* \"#utility.yul\":8266:8299   */\n      slt\n        /* \"#utility.yul\":8263:8316   */\n      iszero\n      tag_570\n      jumpi\n        /* \"#utility.yul\":8312:8313   */\n      0x00\n        /* \"#utility.yul\":8309:8310   */\n      dup1\n        /* \"#utility.yul\":8302:8314   */\n      revert\n        /* \"#utility.yul\":8263:8316   */\n    tag_570:\n        /* \"#utility.yul\":8352:8361   */\n      dup9\n        /* \"#utility.yul\":8339:8362   */\n      calldataload\n        /* \"#utility.yul\":8381:8399   */\n      0xffffffffffffffff\n        /* \"#utility.yul\":8422:8424   */\n      dup1\n        /* \"#utility.yul\":8414:8420   */\n      dup3\n        /* \"#utility.yul\":8411:8425   */\n      gt\n        /* \"#utility.yul\":8408:8442   */\n      iszero\n      tag_571\n      jumpi\n        /* \"#utility.yul\":8438:8439   */\n      0x00\n        /* \"#utility.yul\":8435:8436   */\n      dup1\n        /* \"#utility.yul\":8428:8440   */\n      revert\n        /* \"#utility.yul\":8408:8442   */\n    tag_571:\n        /* \"#utility.yul\":8477:8547   */\n      tag_572\n        /* \"#utility.yul\":8539:8546   */\n      dup13\n        /* \"#utility.yul\":8530:8536   */\n      dup4\n        /* \"#utility.yul\":8519:8528   */\n      dup14\n        /* \"#utility.yul\":8515:8537   */\n      add\n        /* \"#utility.yul\":8477:8547   */\n      tag_516\n      jump\t// in\n    tag_572:\n        /* \"#utility.yul\":8566:8574   */\n      swap1\n      swap11\n      pop\n        /* \"#utility.yul\":8451:8547   */\n      swap9\n      pop\n        /* \"#utility.yul\":8654:8656   */\n      0x20\n        /* \"#utility.yul\":8639:8657   */\n      dup12\n      add\n        /* \"#utility.yul\":8626:8658   */\n      calldataload\n      swap2\n      pop\n        /* \"#utility.yul\":8670:8686   */\n      dup1\n      dup3\n      gt\n        /* \"#utility.yul\":8667:8703   */\n      iszero\n      tag_573\n      jumpi\n        /* \"#utility.yul\":8699:8700   */\n      0x00\n        /* \"#utility.yul\":8696:8697   */\n      dup1\n        /* \"#utility.yul\":8689:8701   */\n      revert\n        /* \"#utility.yul\":8667:8703   */\n    tag_573:\n        /* \"#utility.yul\":8738:8810   */\n      tag_574\n        /* \"#utility.yul\":8802:8809   */\n      dup13\n        /* \"#utility.yul\":8791:8799   */\n      dup4\n        /* \"#utility.yul\":8780:8789   */\n      dup14\n        /* \"#utility.yul\":8776:8800   */\n      add\n        /* \"#utility.yul\":8738:8810   */\n      tag_516\n      jump\t// in\n    tag_574:\n        /* \"#utility.yul\":8829:8837   */\n      swap1\n      swap9\n      pop\n        /* \"#utility.yul\":8712:8810   */\n      swap7\n      pop\n        /* \"#utility.yul\":8917:8919   */\n      0x40\n        /* \"#utility.yul\":8902:8920   */\n      dup12\n      add\n        /* \"#utility.yul\":8889:8921   */\n      calldataload\n      swap2\n      pop\n        /* \"#utility.yul\":8933:8949   */\n      dup1\n      dup3\n      gt\n        /* \"#utility.yul\":8930:8966   */\n      iszero\n      tag_575\n      jumpi\n        /* \"#utility.yul\":8962:8963   */\n      0x00\n        /* \"#utility.yul\":8959:8960   */\n      dup1\n        /* \"#utility.yul\":8952:8964   */\n      revert\n        /* \"#utility.yul\":8930:8966   */\n    tag_575:\n        /* \"#utility.yul\":9001:9073   */\n      tag_576\n        /* \"#utility.yul\":9065:9072   */\n      dup13\n        /* \"#utility.yul\":9054:9062   */\n      dup4\n        /* \"#utility.yul\":9043:9052   */\n      dup14\n        /* \"#utility.yul\":9039:9063   */\n      add\n        /* \"#utility.yul\":9001:9073   */\n      tag_516\n      jump\t// in\n    tag_576:\n        /* \"#utility.yul\":9092:9100   */\n      swap1\n      swap7\n      pop\n        /* \"#utility.yul\":8975:9073   */\n      swap5\n      pop\n        /* \"#utility.yul\":9180:9182   */\n      0x60\n        /* \"#utility.yul\":9165:9183   */\n      dup12\n      add\n        /* \"#utility.yul\":9152:9184   */\n      calldataload\n      swap2\n      pop\n        /* \"#utility.yul\":9196:9212   */\n      dup1\n      dup3\n      gt\n        /* \"#utility.yul\":9193:9229   */\n      iszero\n      tag_577\n      jumpi\n        /* \"#utility.yul\":9225:9226   */\n      0x00\n        /* \"#utility.yul\":9222:9223   */\n      dup1\n        /* \"#utility.yul\":9215:9227   */\n      revert\n        /* \"#utility.yul\":9193:9229   */\n    tag_577:\n      pop\n        /* \"#utility.yul\":9264:9336   */\n      tag_578\n        /* \"#utility.yul\":9328:9335   */\n      dup12\n        /* \"#utility.yul\":9317:9325   */\n      dup3\n        /* \"#utility.yul\":9306:9315   */\n      dup13\n        /* \"#utility.yul\":9302:9326   */\n      add\n        /* \"#utility.yul\":9264:9336   */\n      tag_516\n      jump\t// in\n    tag_578:\n        /* \"#utility.yul\":7992:9396   */\n      swap10\n      swap13\n      swap9\n      swap12\n      pop\n      swap7\n      swap10\n      pop\n      swap5\n      swap8\n      swap4\n      swap7\n      swap3\n      swap6\n        /* \"#utility.yul\":9355:9363   */\n      swap5\n      pop\n      pop\n      pop\n        /* \"#utility.yul\":7992:9396   */\n      jump\t// out\n        /* \"#utility.yul\":9690:10032   */\n    tag_194:\n        /* \"#utility.yul\":9892:9894   */\n      0x20\n        /* \"#utility.yul\":9874:9895   */\n      dup1\n      dup3\n      mstore\n        /* \"#utility.yul\":9931:9933   */\n      0x12\n        /* \"#utility.yul\":9911:9929   */\n      swap1\n      dup3\n      add\n        /* \"#utility.yul\":9904:9934   */\n      mstore\n      shl(0x70, 0x4c697374696e67206e6f7420616374697665)\n        /* \"#utility.yul\":9965:9967   */\n      0x40\n        /* \"#utility.yul\":9950:9968   */\n      dup3\n      add\n        /* \"#utility.yul\":9943:9991   */\n      mstore\n        /* \"#utility.yul\":10023:10025   */\n      0x60\n        /* \"#utility.yul\":10008:10026   */\n      add\n      swap1\n        /* \"#utility.yul\":9690:10032   */\n      jump\t// out\n        /* \"#utility.yul\":10376:10627   */\n    tag_212:\n        /* \"#utility.yul\":10446:10452   */\n      0x00\n        /* \"#utility.yul\":10499:10501   */\n      0x20\n        /* \"#utility.yul\":10487:10496   */\n      dup3\n        /* \"#utility.yul\":10478:10485   */\n      dup5\n        /* \"#utility.yul\":10474:10497   */\n      sub\n        /* \"#utility.yul\":10470:10502   */\n      slt\n        /* \"#utility.yul\":10467:10519   */\n      iszero\n      tag_583\n      jumpi\n        /* \"#utility.yul\":10515:10516   */\n      0x00\n        /* \"#utility.yul\":10512:10513   */\n      dup1\n        /* \"#utility.yul\":10505:10517   */\n      revert\n        /* \"#utility.yul\":10467:10519   */\n    tag_583:\n        /* \"#utility.yul\":10547:10556   */\n      dup2\n        /* \"#utility.yul\":10541:10557   */\n      mload\n        /* \"#utility.yul\":10566:10597   */\n      tag_551\n        /* \"#utility.yul\":10591:10596   */\n      dup2\n        /* \"#utility.yul\":10566:10597   */\n      tag_513\n      jump\t// in\n        /* \"#utility.yul\":10988:11115   */\n    tag_517:\n        /* \"#utility.yul\":11049:11059   */\n      0x4e487b71\n        /* \"#utility.yul\":11044:11047   */\n      0xe0\n        /* \"#utility.yul\":11040:11060   */\n      shl\n        /* \"#utility.yul\":11037:11038   */\n      0x00\n        /* \"#utility.yul\":11030:11061   */\n      mstore\n        /* \"#utility.yul\":11080:11084   */\n      0x11\n        /* \"#utility.yul\":11077:11078   */\n      0x04\n        /* \"#utility.yul\":11070:11085   */\n      mstore\n        /* \"#utility.yul\":11104:11108   */\n      0x24\n        /* \"#utility.yul\":11101:11102   */\n      0x00\n        /* \"#utility.yul\":11094:11109   */\n      revert\n        /* \"#utility.yul\":11120:11288   */\n    tag_217:\n        /* \"#utility.yul\":11193:11202   */\n      dup1\n      dup3\n      mul\n        /* \"#utility.yul\":11224:11233   */\n      dup2\n      iszero\n        /* \"#utility.yul\":11241:11256   */\n      dup3\n      dup3\n      div\n        /* \"#utility.yul\":11235:11257   */\n      dup5\n      eq\n        /* \"#utility.yul\":11221:11258   */\n      or\n        /* \"#utility.yul\":11211:11282   */\n      tag_185\n      jumpi\n        /* \"#utility.yul\":11262:11280   */\n      tag_185\n      tag_517\n      jump\t// in\n        /* \"#utility.yul\":11293:11510   */\n    tag_219:\n        /* \"#utility.yul\":11333:11334   */\n      0x00\n        /* \"#utility.yul\":11359:11360   */\n      dup3\n        /* \"#utility.yul\":11349:11481   */\n      tag_591\n      jumpi\n        /* \"#utility.yul\":11403:11413   */\n      0x4e487b71\n        /* \"#utility.yul\":11398:11401   */\n      0xe0\n        /* \"#utility.yul\":11394:11414   */\n      shl\n        /* \"#utility.yul\":11391:11392   */\n      0x00\n        /* \"#utility.yul\":11384:11415   */\n      mstore\n        /* \"#utility.yul\":11438:11442   */\n      0x12\n        /* \"#utility.yul\":11435:11436   */\n      0x04\n        /* \"#utility.yul\":11428:11443   */\n      mstore\n        /* \"#utility.yul\":11466:11470   */\n      0x24\n        /* \"#utility.yul\":11463:11464   */\n      0x00\n        /* \"#utility.yul\":11456:11471   */\n      revert\n        /* \"#utility.yul\":11349:11481   */\n    tag_591:\n      pop\n        /* \"#utility.yul\":11495:11504   */\n      div\n      swap1\n        /* \"#utility.yul\":11293:11510   */\n      jump\t// out\n        /* \"#utility.yul\":11515:11643   */\n    tag_221:\n        /* \"#utility.yul\":11582:11591   */\n      dup2\n      dup2\n      sub\n        /* \"#utility.yul\":11603:11614   */\n      dup2\n      dup2\n      gt\n        /* \"#utility.yul\":11600:11637   */\n      iszero\n      tag_185\n      jumpi\n        /* \"#utility.yul\":11617:11635   */\n      tag_185\n      tag_517\n      jump\t// in\n        /* \"#utility.yul\":12207:12556   */\n    tag_233:\n        /* \"#utility.yul\":12409:12411   */\n      0x20\n        /* \"#utility.yul\":12391:12412   */\n      dup1\n      dup3\n      mstore\n        /* \"#utility.yul\":12448:12450   */\n      0x19\n        /* \"#utility.yul\":12428:12446   */\n      swap1\n      dup3\n      add\n        /* \"#utility.yul\":12421:12451   */\n      mstore\n        /* \"#utility.yul\":12487:12514   */\n      0x5472616e7366657220746f2073656c6c6572206661696c656400000000000000\n        /* \"#utility.yul\":12482:12484   */\n      0x40\n        /* \"#utility.yul\":12467:12485   */\n      dup3\n      add\n        /* \"#utility.yul\":12460:12515   */\n      mstore\n        /* \"#utility.yul\":12547:12549   */\n      0x60\n        /* \"#utility.yul\":12532:12550   */\n      add\n      swap1\n        /* \"#utility.yul\":12207:12556   */\n      jump\t// out\n        /* \"#utility.yul\":12561:12904   */\n    tag_241:\n        /* \"#utility.yul\":12763:12765   */\n      0x20\n        /* \"#utility.yul\":12745:12766   */\n      dup1\n      dup3\n      mstore\n        /* \"#utility.yul\":12802:12804   */\n      0x13\n        /* \"#utility.yul\":12782:12800   */\n      swap1\n      dup3\n      add\n        /* \"#utility.yul\":12775:12805   */\n      mstore\n      shl(0x6a, 0x119959481d1c985b9cd9995c8819985a5b1959)\n        /* \"#utility.yul\":12836:12838   */\n      0x40\n        /* \"#utility.yul\":12821:12839   */\n      dup3\n      add\n        /* \"#utility.yul\":12814:12863   */\n      mstore\n        /* \"#utility.yul\":12895:12897   */\n      0x60\n        /* \"#utility.yul\":12880:12898   */\n      add\n      swap1\n        /* \"#utility.yul\":12561:12904   */\n      jump\t// out\n        /* \"#utility.yul\":13251:13626   */\n    tag_253:\n      sub(shl(0xa0, 0x01), 0x01)\n        /* \"#utility.yul\":13509:13524   */\n      swap4\n      dup5\n      and\n        /* \"#utility.yul\":13491:13525   */\n      dup2\n      mstore\n        /* \"#utility.yul\":13561:13576   */\n      swap2\n      swap1\n      swap3\n      and\n        /* \"#utility.yul\":13556:13558   */\n      0x20\n        /* \"#utility.yul\":13541:13559   */\n      dup3\n      add\n        /* \"#utility.yul\":13534:13577   */\n      mstore\n        /* \"#utility.yul\":13608:13610   */\n      0x40\n        /* \"#utility.yul\":13593:13611   */\n      dup2\n      add\n        /* \"#utility.yul\":13586:13620   */\n      swap2\n      swap1\n      swap2\n      mstore\n        /* \"#utility.yul\":13441:13443   */\n      0x60\n        /* \"#utility.yul\":13426:13444   */\n      add\n      swap1\n        /* \"#utility.yul\":13251:13626   */\n      jump\t// out\n        /* \"#utility.yul\":13631:13876   */\n    tag_257:\n        /* \"#utility.yul\":13698:13704   */\n      0x00\n        /* \"#utility.yul\":13751:13753   */\n      0x20\n        /* \"#utility.yul\":13739:13748   */\n      dup3\n        /* \"#utility.yul\":13730:13737   */\n      dup5\n        /* \"#utility.yul\":13726:13749   */\n      sub\n        /* \"#utility.yul\":13722:13754   */\n      slt\n        /* \"#utility.yul\":13719:13771   */\n      iszero\n      tag_602\n      jumpi\n        /* \"#utility.yul\":13767:13768   */\n      0x00\n        /* \"#utility.yul\":13764:13765   */\n      dup1\n        /* \"#utility.yul\":13757:13769   */\n      revert\n        /* \"#utility.yul\":13719:13771   */\n    tag_602:\n        /* \"#utility.yul\":13799:13808   */\n      dup2\n        /* \"#utility.yul\":13793:13809   */\n      mload\n        /* \"#utility.yul\":13818:13846   */\n      tag_551\n        /* \"#utility.yul\":13840:13845   */\n      dup2\n        /* \"#utility.yul\":13818:13846   */\n      tag_515\n      jump\t// in\n        /* \"#utility.yul\":14572:14913   */\n    tag_294:\n        /* \"#utility.yul\":14774:14776   */\n      0x20\n        /* \"#utility.yul\":14756:14777   */\n      dup1\n      dup3\n      mstore\n        /* \"#utility.yul\":14813:14815   */\n      0x11\n        /* \"#utility.yul\":14793:14811   */\n      swap1\n      dup3\n      add\n        /* \"#utility.yul\":14786:14816   */\n      mstore\n      shl(0x7c, 0x05072696365206d757374206265203e203)\n        /* \"#utility.yul\":14847:14849   */\n      0x40\n        /* \"#utility.yul\":14832:14850   */\n      dup3\n      add\n        /* \"#utility.yul\":14825:14872   */\n      mstore\n        /* \"#utility.yul\":14904:14906   */\n      0x60\n        /* \"#utility.yul\":14889:14907   */\n      add\n      swap1\n        /* \"#utility.yul\":14572:14913   */\n      jump\t// out\n        /* \"#utility.yul\":15925:16273   */\n    tag_317:\n        /* \"#utility.yul\":16127:16129   */\n      0x20\n        /* \"#utility.yul\":16109:16130   */\n      dup1\n      dup3\n      mstore\n        /* \"#utility.yul\":16166:16168   */\n      0x18\n        /* \"#utility.yul\":16146:16164   */\n      swap1\n      dup3\n      add\n        /* \"#utility.yul\":16139:16169   */\n      mstore\n        /* \"#utility.yul\":16205:16231   */\n      0x4d61726b6574706c616365206e6f7420617070726f7665640000000000000000\n        /* \"#utility.yul\":16200:16202   */\n      0x40\n        /* \"#utility.yul\":16185:16203   */\n      dup3\n      add\n        /* \"#utility.yul\":16178:16232   */\n      mstore\n        /* \"#utility.yul\":16264:16266   */\n      0x60\n        /* \"#utility.yul\":16249:16267   */\n      add\n      swap1\n        /* \"#utility.yul\":15925:16273   */\n      jump\t// out\n        /* \"#utility.yul\":16621:16756   */\n    tag_322:\n        /* \"#utility.yul\":16660:16663   */\n      0x00\n        /* \"#utility.yul\":16681:16698   */\n      0x01\n      dup3\n      add\n        /* \"#utility.yul\":16678:16721   */\n      tag_614\n      jumpi\n        /* \"#utility.yul\":16701:16719   */\n      tag_614\n      tag_517\n      jump\t// in\n    tag_614:\n      pop\n        /* \"#utility.yul\":16748:16749   */\n      0x01\n        /* \"#utility.yul\":16737:16750   */\n      add\n      swap1\n        /* \"#utility.yul\":16621:16756   */\n      jump\t// out\n        /* \"#utility.yul\":18492:18676   */\n    tag_409:\n        /* \"#utility.yul\":18562:18568   */\n      0x00\n        /* \"#utility.yul\":18615:18617   */\n      0x20\n        /* \"#utility.yul\":18603:18612   */\n      dup3\n        /* \"#utility.yul\":18594:18601   */\n      dup5\n        /* \"#utility.yul\":18590:18613   */\n      sub\n        /* \"#utility.yul\":18586:18618   */\n      slt\n        /* \"#utility.yul\":18583:18635   */\n      iszero\n      tag_621\n      jumpi\n        /* \"#utility.yul\":18631:18632   */\n      0x00\n        /* \"#utility.yul\":18628:18629   */\n      dup1\n        /* \"#utility.yul\":18621:18633   */\n      revert\n        /* \"#utility.yul\":18583:18635   */\n    tag_621:\n      pop\n        /* \"#utility.yul\":18654:18670   */\n      mload\n      swap2\n        /* \"#utility.yul\":18492:18676   */\n      swap1\n      pop\n      jump\t// out\n        /* \"#utility.yul\":19392:19517   */\n    tag_422:\n        /* \"#utility.yul\":19457:19466   */\n      dup1\n      dup3\n      add\n        /* \"#utility.yul\":19478:19488   */\n      dup1\n      dup3\n      gt\n        /* \"#utility.yul\":19475:19511   */\n      iszero\n      tag_185\n      jumpi\n        /* \"#utility.yul\":19491:19509   */\n      tag_185\n      tag_517\n      jump\t// in\n        /* \"#utility.yul\":21318:21445   */\n    tag_467:\n        /* \"#utility.yul\":21379:21389   */\n      0x4e487b71\n        /* \"#utility.yul\":21374:21377   */\n      0xe0\n        /* \"#utility.yul\":21370:21390   */\n      shl\n        /* \"#utility.yul\":21367:21368   */\n      0x00\n        /* \"#utility.yul\":21360:21391   */\n      mstore\n        /* \"#utility.yul\":21410:21414   */\n      0x32\n        /* \"#utility.yul\":21407:21408   */\n      0x04\n        /* \"#utility.yul\":21400:21415   */\n      mstore\n        /* \"#utility.yul\":21434:21438   */\n      0x24\n        /* \"#utility.yul\":21431:21432   */\n      0x00\n        /* \"#utility.yul\":21424:21439   */\n      revert\n\n    auxdata: 0xa2646970667358221220bd3573bb44325c8d9c4d4d94c80730b5c8ad73dfd0aec0bf7f163fd084198d5e64736f6c63430008190033\n}\n",
				"bytecode": {
					"linkReferences": {},
					"object": "608060405260fa600755348015610014575f80fd5b50604051612cef380380612cef8339810160408190526100339161018c565b60015f55806001600160a01b03811661006657604051631e4fbdf760e01b81525f60048201526024015b60405180910390fd5b61006f81610120565b506001600160a01b0382166100c65760405162461bcd60e51b815260206004820152601560248201527f496e76616c69642066656520726563697069656e740000000000000000000000604482015260640161005d565b50600880546001600160a01b0319166001600160a01b03929092169190911790555f805260096020527fec8156718a8372b1db44bb411437d0870f3e3790d4a08526d024ce1b0b668f6b805460ff191660011790556101bd565b600180546001600160a01b038381166001600160a01b0319831681179093556040519116919082907f8be0079c531659141344cd1fd0a4f28419497f9722a3daafe3b4186f6b6457e0905f90a35050565b80516001600160a01b0381168114610187575f80fd5b919050565b5f806040838503121561019d575f80fd5b6101a683610171565b91506101b460208401610171565b90509250929050565b612b25806101ca5f395ff3fe6080604052600436106101af575f3560e01c80638a72ea6a116100e7578063d14027d411610087578063e74b981b11610062578063e74b981b146107e2578063ef706adf14610801578063f2fde38b14610820578063f6eb46ac1461083f575f80fd5b8063d14027d41461070f578063d73792a91461072e578063de74e57b14610743575f80fd5b8063b4a15355116100c2578063b4a1535514610693578063c4604943146106b2578063c815729d146106d1578063cdb3cd25146106f0575f80fd5b80638a72ea6a146105b35780638da5cb5b14610661578063aaccf1ec1461067e575f80fd5b80634884f459116101525780636f7b43521161012d5780636f7b435214610535578063715018a61461056b5780637ce3489b1461057f5780637fd6f15c1461059e575f80fd5b80634884f459146104cf5780635f5d0655146104e2578063697d312a146104f7575f80fd5b8063248d9aa31161018d578063248d9aa314610323578063305a67a8146103505780634579268a1461036f5780634690484014610498575f80fd5b8063107a274a146101b3578063150b7a02146102ca5780631d3c667414610302575b5f80fd5b3480156101be575f80fd5b506102686101cd366004612592565b6040805160c0810182525f80825260208201819052918101829052606081018290526080810182905260a0810191909152505f90815260026020818152604092839020835160c08101855281546001600160a01b0390811682526001830154811693820193909352928101549383019390935260038301541660608201526004820154608082015260059091015460ff16151560a082015290565b6040516102c1919081516001600160a01b03908116825260208084015182169083015260408084015190830152606080840151909116908201526080808301519082015260a09182015115159181019190915260c00190565b60405180910390f35b3480156102d5575f80fd5b506102e96102e43660046125d1565b61085e565b6040516001600160e01b031990911681526020016102c1565b34801561030d575f80fd5b5061032161031c3660046126b7565b61086f565b005b34801561032e575f80fd5b5061034261033d3660046126ee565b6108d9565b6040519081526020016102c1565b34801561035b575f80fd5b5061032161036a366004612592565b610903565b34801561037a575f80fd5b50610435610389366004612592565b6040805160e0810182525f80825260208201819052918101829052606081018290526080810182905260a0810182905260c0810191909152505f90815260046020818152604092839020835160e08101855281546001600160a01b039081168252600183015481169382019390935260028201549481019490945260038101549091166060840152908101546080830152600581015460a08301526006015460ff16151560c082015290565b6040516102c1919081516001600160a01b03908116825260208084015182169083015260408084015190830152606080840151909116908201526080808301519082015260a0828101519082015260c09182015115159181019190915260e00190565b3480156104a3575f80fd5b506008546104b7906001600160a01b031681565b6040516001600160a01b0390911681526020016102c1565b6103216104dd366004612592565b610a00565b3480156104ed575f80fd5b5061034260055481565b348015610502575f80fd5b50610525610511366004612718565b60096020525f908152604090205460ff1681565b60405190151581526020016102c1565b348015610540575f80fd5b5061034261054f3660046126ee565b600660209081525f928352604080842090915290825290205481565b348015610576575f80fd5b50610321610f4b565b34801561058a575f80fd5b50610321610599366004612592565b610f5e565b3480156105a9575f80fd5b5061034260075481565b3480156105be575f80fd5b5061061c6105cd366004612592565b600460208190525f918252604090912080546001820154600283015460038401549484015460058501546006909501546001600160a01b03948516969385169592949093169290919060ff1687565b604080516001600160a01b0398891681529688166020880152860194909452949091166060840152608083015260a082019290925290151560c082015260e0016102c1565b34801561066c575f80fd5b506001546001600160a01b03166104b7565b348015610689575f80fd5b5061034260035481565b34801561069e575f80fd5b506103426106ad36600461273a565b610fe3565b3480156106bd575f80fd5b506103216106cc36600461277f565b6113cf565b3480156106dc575f80fd5b506103216106eb366004612592565b6114bf565b3480156106fb575f80fd5b5061052561070a3660046126ee565b6119ff565b34801561071a575f80fd5b5061034261072936600461279f565b611a47565b348015610739575f80fd5b5061034261271081565b34801561074e575f80fd5b506107a461075d366004612592565b600260208190525f91825260409091208054600182015492820154600383015460048401546005909401546001600160a01b03938416958416949293909116919060ff1686565b604080516001600160a01b039788168152958716602087015285019390935293166060830152608082019290925290151560a082015260c0016102c1565b3480156107ed575f80fd5b506103216107fc366004612718565b611eb2565b34801561080c575f80fd5b5061032161081b366004612592565b611f50565b34801561082b575f80fd5b5061032161083a366004612718565b612039565b34801561084a575f80fd5b50610321610859366004612835565b612073565b630a85bd0160e11b5b949350505050565b6108776121c6565b6001600160a01b0382165f81815260096020908152604091829020805460ff19168515159081179091558251938452908301527f19c6e2fbd27c3204efb106f0081d2d7ffaf44da224ca04fbc0d8a262ba40f555910160405180910390a15050565b6001600160a01b0382165f9081526006602090815260408083208484529091529020545b92915050565b61090b6121f3565b6109136121c6565b5f818152600260205260409020600581015460ff1661094d5760405162461bcd60e51b8152600401610944906128f0565b60405180910390fd5b80546001600160a01b031633146109935760405162461bcd60e51b815260206004820152600a6024820152692737ba1039b2b63632b960b11b6044820152606401610944565b60058101805460ff1916905560018101546001600160a01b03165f908152600660209081526040808320600285015484529091528082208290555183917f411aee90354c51b1b04cd563fcab2617142a9d50da19232d888547c8a1b7fd8a91a2506109fd60015f55565b50565b610a086121f3565b5f818152600260205260409020600581015460ff16610a395760405162461bcd60e51b8152600401610944906128f0565b8054600182015460028301546040516331a9108f60e11b815260048101919091526001600160a01b039283169290911690636352211e90602401602060405180830381865afa158015610a8e573d5f803e3d5ffd5b505050506040513d601f19601f82011682018060405250810190610ab2919061291c565b6001600160a01b031614610b085760405162461bcd60e51b815260206004820152601b60248201527f53656c6c6572206e6f206c6f6e676572206f776e7320746f6b656e00000000006044820152606401610944565b600481015481546007546001600160a01b03909116905f9061271090610b2e908561294b565b610b389190612962565b90505f610b458285612981565b60038601549091506001600160a01b0316610d235783341015610ba15760405162461bcd60e51b8152602060048201526014602482015273125b9cdd59999a58da595b9d081c185e5b595b9d60621b6044820152606401610944565b5f836001600160a01b0316826040515f6040518083038185875af1925050503d805f8114610bea576040519150601f19603f3d011682016040523d82523d5f602084013e610bef565b606091505b5050905080610c105760405162461bcd60e51b815260040161094490612994565b8215610c88576008546040515f916001600160a01b03169085908381818185875af1925050503d805f8114610c60576040519150601f19603f3d011682016040523d82523d5f602084013e610c65565b606091505b5050905080610c865760405162461bcd60e51b8152600401610944906129cb565b505b84341115610d1d575f33610c9c8734612981565b6040515f81818185875af1925050503d805f8114610cd5576040519150601f19603f3d011682016040523d82523d5f602084013e610cda565b606091505b5050905080610d1b5760405162461bcd60e51b815260206004820152600d60248201526c1499599d5b990819985a5b1959609a1b6044820152606401610944565b505b50610e4f565b60038501546040516323b872dd60e01b81526001600160a01b039091169081906323b872dd90610d5b903390889087906004016129f8565b6020604051808303815f875af1158015610d77573d5f803e3d5ffd5b505050506040513d601f19601f82011682018060405250810190610d9b9190612a1c565b610db75760405162461bcd60e51b815260040161094490612994565b8215610e4d576008546040516323b872dd60e01b81526001600160a01b03808416926323b872dd92610df1923392169088906004016129f8565b6020604051808303815f875af1158015610e0d573d5f803e3d5ffd5b505050506040513d601f19601f82011682018060405250810190610e319190612a1c565b610e4d5760405162461bcd60e51b8152600401610944906129cb565b505b60018501546002860154604051632142170760e11b81526001600160a01b03909216916342842e0e91610e8891879133916004016129f8565b5f604051808303815f87803b158015610e9f575f80fd5b505af1158015610eb1573d5f803e3d5ffd5b5050505060058501805460ff191690556001850180546001600160a01b039081165f90815260066020908152604080832060028b018054855290835281842093909355935491548451928416835290820152918201869052841690339088907f87668bf59b21c78084390260eb626847b730caddc5b38199cf1c27ad39954b839060600160405180910390a450505050506109fd60015f55565b610f536121c6565b610f5c5f61224a565b565b610f666121c6565b6103e8811115610fa75760405162461bcd60e51b815260206004820152600c60248201526b08ccaca40e8dede40d0d2ced60a31b6044820152606401610944565b60078190556040518181527f64d1887078a96d281ed60dd69ba75bfb6b5cd2cb4c2d2538b2eb7816a4c646ea906020015b60405180910390a150565b5f610fec6121f3565b610ff46121c6565b5f82116110135760405162461bcd60e51b815260040161094490612a37565b6001600160a01b0383165f9081526009602052604090205460ff166110765760405162461bcd60e51b815260206004820152601960248201527814185e5b595b9d081d1bdad95b881b9bdd08185b1b1bddd959603a1b6044820152606401610944565b6040516331a9108f60e11b81526004810185905233906001600160a01b03871690636352211e90602401602060405180830381865afa1580156110bb573d5f803e3d5ffd5b505050506040513d601f19601f820116820180604052508101906110df919061291c565b6001600160a01b0316146111275760405162461bcd60e51b815260206004820152600f60248201526e2737ba103a37b5b2b71037bbb732b960891b6044820152606401610944565b60405163e985e9c560e01b81523360048201523060248201526001600160a01b0386169063e985e9c590604401602060405180830381865afa15801561116f573d5f803e3d5ffd5b505050506040513d601f19601f820116820180604052508101906111939190612a1c565b8061120d575060405163020604bf60e21b81526004810185905230906001600160a01b0387169063081812fc90602401602060405180830381865afa1580156111de573d5f803e3d5ffd5b505050506040513d601f19601f82011682018060405250810190611202919061291c565b6001600160a01b0316145b6112295760405162461bcd60e51b815260040161094490612a62565b6001600160a01b0385165f9081526006602090815260408083208784529091529020541561128a5760405162461bcd60e51b815260206004820152600e60248201526d105b1c9958591e481b1a5cdd195960921b6044820152606401610944565b5f60035f815461129990612a99565b91829055506040805160c081018252338082526001600160a01b038a811660208085018281528587018d81528c851660608801908152608088018d8152600160a08a018181525f8d815260028089528d82209c518d54908c166001600160a01b0319918216178e559751938d018054948c16948916949094179093559451918b0191909155915160038a018054919098169416939093179095559051600487015592516005909501805495151560ff1990961695909517909455808252600684528482208b835290935283902084905591519293509183907ff270d40e4ce0790fe62574668b19edbd345bdfc4b0e945ada622c5fe65f3e0c4906113bc908a908a908a909283526001600160a01b03919091166020830152604082015260600190565b60405180910390a4905061086760015f55565b6113d76121f3565b6113df6121c6565b5f828152600260205260409020600581015460ff166114105760405162461bcd60e51b8152600401610944906128f0565b80546001600160a01b031633146114565760405162461bcd60e51b815260206004820152600a6024820152692737ba1039b2b63632b960b11b6044820152606401610944565b5f82116114755760405162461bcd60e51b815260040161094490612a37565b6004810182905560405182815283907f66bcde9f7aec9b81719a4fdec54cbafbf6c834d1f2f989d9cd2134dab8d0c0de9060200160405180910390a2506114bb60015f55565b5050565b6114c76121f3565b5f818152600460205260409020600681015460ff1661151b5760405162461bcd60e51b815260206004820152601060248201526f4f66666572206e6f742061637469766560801b6044820152606401610944565b806005015442111561155f5760405162461bcd60e51b815260206004820152600d60248201526c13d999995c88195e1c1a5c9959609a1b6044820152606401610944565b600181015460028201546040516331a9108f60e11b8152600481019190915233916001600160a01b031690636352211e90602401602060405180830381865afa1580156115ae573d5f803e3d5ffd5b505050506040513d601f19601f820116820180604052508101906115d2919061291c565b6001600160a01b03161461161a5760405162461bcd60e51b815260206004820152600f60248201526e2737ba103a37b5b2b71037bbb732b960891b6044820152606401610944565b600181015460405163e985e9c560e01b81523360048201523060248201526001600160a01b039091169063e985e9c590604401602060405180830381865afa158015611668573d5f803e3d5ffd5b505050506040513d601f19601f8201168201806040525081019061168c9190612a1c565b8061171057506001810154600282015460405163020604bf60e21b8152600481019190915230916001600160a01b03169063081812fc90602401602060405180830381865afa1580156116e1573d5f803e3d5ffd5b505050506040513d601f19601f82011682018060405250810190611705919061291c565b6001600160a01b0316145b61172c5760405162461bcd60e51b815260040161094490612a62565b600481015481546007546001600160a01b03909116905f9061271090611752908561294b565b61175c9190612962565b90505f6117698285612981565b60038601546040516323b872dd60e01b81529192506001600160a01b03169081906323b872dd906117a2908790339087906004016129f8565b6020604051808303815f875af11580156117be573d5f803e3d5ffd5b505050506040513d601f19601f820116820180604052508101906117e29190612a1c565b6117fe5760405162461bcd60e51b815260040161094490612994565b8215611894576008546040516323b872dd60e01b81526001600160a01b03808416926323b872dd92611838928992169088906004016129f8565b6020604051808303815f875af1158015611854573d5f803e3d5ffd5b505050506040513d601f19601f820116820180604052508101906118789190612a1c565b6118945760405162461bcd60e51b8152600401610944906129cb565b60018601546002870154604051632142170760e11b81526001600160a01b03909216916342842e0e916118cd91339189916004016129f8565b5f604051808303815f87803b1580156118e4575f80fd5b505af11580156118f6573d5f803e3d5ffd5b505050506006868101805460ff1916905560018701546001600160a01b03165f9081526020918252604080822060028a015483529092522054801580159061194e57505f8181526002602052604090206005015460ff165b15611992575f818152600260208181526040808420600501805460ff1916905560018b01546001600160a01b0316845260068252808420928b015484529190528120555b60018701546002880154604080516001600160a01b039384168152602081019290925281018890529086169033908a907f50df946ee330bf8af17ecc21585649645f3680c032bc659b21e49881bea57f719060600160405180910390a4505050505050506109fd60015f55565b6001600160a01b0382165f908152600660209081526040808320848452909152812054801580159061086757505f9081526002602052604090206005015460ff169392505050565b5f611a506121f3565b5f8311611a6f5760405162461bcd60e51b815260040161094490612a37565b6001600160a01b038416611abc5760405162461bcd60e51b815260206004820152601460248201527355736520455243323020666f72206f666665727360601b6044820152606401610944565b6001600160a01b0384165f9081526009602052604090205460ff16611b1f5760405162461bcd60e51b815260206004820152601960248201527814185e5b595b9d081d1bdad95b881b9bdd08185b1b1bddd959603a1b6044820152606401610944565b5f82118015611b3157506276a7008211155b611b705760405162461bcd60e51b815260206004820152601060248201526f24b73b30b634b210323ab930ba34b7b760811b6044820152606401610944565b604051636eb1769f60e11b8152336004820152306024820152849084906001600160a01b0383169063dd62ed3e90604401602060405180830381865afa158015611bbc573d5f803e3d5ffd5b505050506040513d601f19601f82011682018060405250810190611be09190612ab1565b1015611c2e5760405162461bcd60e51b815260206004820152601b60248201527f496e73756666696369656e7420746f6b656e20617070726f76616c00000000006044820152606401610944565b6040516370a0823160e01b815233600482015284906001600160a01b038316906370a0823190602401602060405180830381865afa158015611c72573d5f803e3d5ffd5b505050506040513d601f19601f82011682018060405250810190611c969190612ab1565b1015611ce45760405162461bcd60e51b815260206004820152601a60248201527f496e73756666696369656e7420746f6b656e2062616c616e63650000000000006044820152606401610944565b5f60055f8154611cf390612a99565b918290555090505f611d058542612ac8565b90506040518060e00160405280336001600160a01b031681526020018a6001600160a01b03168152602001898152602001886001600160a01b031681526020018781526020018281526020016001151581525060045f8481526020019081526020015f205f820151815f015f6101000a8154816001600160a01b0302191690836001600160a01b031602179055506020820151816001015f6101000a8154816001600160a01b0302191690836001600160a01b03160217905550604082015181600201556060820151816003015f6101000a8154816001600160a01b0302191690836001600160a01b031602179055506080820151816004015560a0820151816005015560c0820151816006015f6101000a81548160ff021916908315150217905550905050886001600160a01b0316336001600160a01b0316837f07e9214b37f6c5d7654ed3d8cb085c5aba036c579313526cc62a3c9168617c408b8b8b87604051611e9494939291909384526001600160a01b039290921660208401526040830152606082015260800190565b60405180910390a450915050611ea960015f55565b95945050505050565b611eba6121c6565b6001600160a01b038116611f025760405162461bcd60e51b815260206004820152600f60248201526e496e76616c6964206164647265737360881b6044820152606401610944565b600880546001600160a01b0319166001600160a01b0383169081179091556040519081527f7a7b5a0a132f9e0581eb8527f66eae9ee89c2a3e79d4ac7e41a1f1f4d48a7fc290602001610fd8565b611f586121f3565b5f818152600460205260409020600681015460ff16611fac5760405162461bcd60e51b815260206004820152601060248201526f4f66666572206e6f742061637469766560801b6044820152606401610944565b80546001600160a01b03163314611ff95760405162461bcd60e51b81526020600482015260116024820152702737ba1037b33332b91031b932b0ba37b960791b6044820152606401610944565b60068101805460ff1916905560405182907fc28b4aed030bfacc245c0501326e1beb8c0ef0d60e4edc21067fdeb52da2a7aa905f90a2506109fd60015f55565b6120416121c6565b6001600160a01b03811661206a57604051631e4fbdf760e01b81525f6004820152602401610944565b6109fd8161224a565b61207b6121c6565b6120836121f3565b86806120c05760405162461bcd60e51b815260206004820152600c60248201526b456d7074792061727261797360a01b6044820152606401610944565b80861480156120ce57508084145b80156120d957508082145b6121165760405162461bcd60e51b815260206004820152600e60248201526d082e4e4c2f240dad2e6dac2e8c6d60931b6044820152606401610944565b5f5b818110156121b1576121a9338b8b8481811061213657612136612adb565b905060200201602081019061214b9190612718565b8a8a8581811061215d5761215d612adb565b9050602002013589898681811061217657612176612adb565b905060200201602081019061218b9190612718565b88888781811061219d5761219d612adb565b9050602002013561229b565b600101612118565b50506121bc60015f55565b5050505050505050565b6001546001600160a01b03163314610f5c5760405163118cdaa760e01b8152336004820152602401610944565b60025f54036122445760405162461bcd60e51b815260206004820152601f60248201527f5265656e7472616e637947756172643a207265656e7472616e742063616c6c006044820152606401610944565b60025f55565b600180546001600160a01b038381166001600160a01b0319831681179093556040519116919082907f8be0079c531659141344cd1fd0a4f28419497f9722a3daafe3b4186f6b6457e0905f90a35050565b5f81116122ba5760405162461bcd60e51b815260040161094490612a37565b6001600160a01b0382165f9081526009602052604090205460ff166123155760405162461bcd60e51b8152602060048201526011602482015270151bdad95b881b9bdd08185b1b1bddd959607a1b6044820152606401610944565b6040516331a9108f60e11b8152600481018490526001600160a01b038087169190861690636352211e90602401602060405180830381865afa15801561235d573d5f803e3d5ffd5b505050506040513d601f19601f82011682018060405250810190612381919061291c565b6001600160a01b0316146123c35760405162461bcd60e51b81526020600482015260096024820152682737ba1037bbb732b960b91b6044820152606401610944565b60405163e985e9c560e01b81526001600160a01b03868116600483015230602483015285169063e985e9c590604401602060405180830381865afa15801561240d573d5f803e3d5ffd5b505050506040513d601f19601f820116820180604052508101906124319190612a1c565b61244d5760405162461bcd60e51b815260040161094490612a62565b5f60035f815461245c90612a99565b91829055506040805160c0810182526001600160a01b03808a1680835289821660208085018281528587018c81528b861660608801908152608088018c8152600160a08a018181525f8d815260028089528d82209c518d54908d166001600160a01b0319918216178e559751938d018054948d16948916949094179093559451918b0191909155915160038a018054919099169416939093179096559051600487015593516005909501805495151560ff1990961695909517909455808352600684528483208a84529093529083902084905591519293509183907ff270d40e4ce0790fe62574668b19edbd345bdfc4b0e945ada622c5fe65f3e0c490612582908990899089909283526001600160a01b03919091166020830152604082015260600190565b60405180910390a4505050505050565b5f602082840312156125a2575f80fd5b5035919050565b6001600160a01b03811681146109fd575f80fd5b634e487b7160e01b5f52604160045260245ffd5b5f805f80608085870312156125e4575f80fd5b84356125ef816125a9565b935060208501356125ff816125a9565b925060408501359150606085013567ffffffffffffffff80821115612622575f80fd5b818701915087601f830112612635575f80fd5b813581811115612647576126476125bd565b604051601f8201601f19908116603f0116810190838211818310171561266f5761266f6125bd565b816040528281528a6020848701011115612687575f80fd5b826020860160208301375f60208483010152809550505050505092959194509250565b80151581146109fd575f80fd5b5f80604083850312156126c8575f80fd5b82356126d3816125a9565b915060208301356126e3816126aa565b809150509250929050565b5f80604083850312156126ff575f80fd5b823561270a816125a9565b946020939093013593505050565b5f60208284031215612728575f80fd5b8135612733816125a9565b9392505050565b5f805f806080858703121561274d575f80fd5b8435612758816125a9565b935060208501359250604085013561276f816125a9565b9396929550929360600135925050565b5f8060408385031215612790575f80fd5b50508035926020909101359150565b5f805f805f60a086880312156127b3575f80fd5b85356127be816125a9565b94506020860135935060408601356127d5816125a9565b94979396509394606081013594506080013592915050565b5f8083601f8401126127fd575f80fd5b50813567ffffffffffffffff811115612814575f80fd5b6020830191508360208260051b850101111561282e575f80fd5b9250929050565b5f805f805f805f806080898b03121561284c575f80fd5b883567ffffffffffffffff80821115612863575f80fd5b61286f8c838d016127ed565b909a50985060208b0135915080821115612887575f80fd5b6128938c838d016127ed565b909850965060408b01359150808211156128ab575f80fd5b6128b78c838d016127ed565b909650945060608b01359150808211156128cf575f80fd5b506128dc8b828c016127ed565b999c989b5096995094979396929594505050565b6020808252601290820152714c697374696e67206e6f742061637469766560701b604082015260600190565b5f6020828403121561292c575f80fd5b8151612733816125a9565b634e487b7160e01b5f52601160045260245ffd5b80820281158282048414176108fd576108fd612937565b5f8261297c57634e487b7160e01b5f52601260045260245ffd5b500490565b818103818111156108fd576108fd612937565b60208082526019908201527f5472616e7366657220746f2073656c6c6572206661696c656400000000000000604082015260600190565b602080825260139082015272119959481d1c985b9cd9995c8819985a5b1959606a1b604082015260600190565b6001600160a01b039384168152919092166020820152604081019190915260600190565b5f60208284031215612a2c575f80fd5b8151612733816126aa565b60208082526011908201527005072696365206d757374206265203e203607c1b604082015260600190565b60208082526018908201527f4d61726b6574706c616365206e6f7420617070726f7665640000000000000000604082015260600190565b5f60018201612aaa57612aaa612937565b5060010190565b5f60208284031215612ac1575f80fd5b5051919050565b808201808211156108fd576108fd612937565b634e487b7160e01b5f52603260045260245ffdfea2646970667358221220bd3573bb44325c8d9c4d4d94c80730b5c8ad73dfd0aec0bf7f163fd084198d5e64736f6c63430008190033",
					"opcodes": "PUSH1 0x80 PUSH1 0x40 MSTORE PUSH1 0xFA PUSH1 0x7 SSTORE CALLVALUE DUP1 ISZERO PUSH2 0x14 JUMPI PUSH0 DUP1 REVERT JUMPDEST POP PUSH1 0x40 MLOAD PUSH2 0x2CEF CODESIZE SUB DUP1 PUSH2 0x2CEF DUP4 CODECOPY DUP2 ADD PUSH1 0x40 DUP2 SWAP1 MSTORE PUSH2 0x33 SWAP2 PUSH2 0x18C JUMP JUMPDEST PUSH1 0x1 PUSH0 SSTORE DUP1 PUSH1 0x1 PUSH1 0x1 PUSH1 0xA0 SHL SUB DUP2 AND PUSH2 0x66 JUMPI PUSH1 0x40 MLOAD PUSH4 0x1E4FBDF7 PUSH1 0xE0 SHL DUP2 MSTORE PUSH0 PUSH1 0x4 DUP3 ADD MSTORE PUSH1 0x24 ADD JUMPDEST PUSH1 0x40 MLOAD DUP1 SWAP2 SUB SWAP1 REVERT JUMPDEST PUSH2 0x6F DUP2 PUSH2 0x120 JUMP JUMPDEST POP PUSH1 0x1 PUSH1 0x1 PUSH1 0xA0 SHL SUB DUP3 AND PUSH2 0xC6 JUMPI PUSH1 0x40 MLOAD PUSH3 0x461BCD PUSH1 0xE5 SHL DUP2 MSTORE PUSH1 0x20 PUSH1 0x4 DUP3 ADD MSTORE PUSH1 0x15 PUSH1 0x24 DUP3 ADD MSTORE PUSH32 0x496E76616C69642066656520726563697069656E740000000000000000000000 PUSH1 0x44 DUP3 ADD MSTORE PUSH1 0x64 ADD PUSH2 0x5D JUMP JUMPDEST POP PUSH1 0x8 DUP1 SLOAD PUSH1 0x1 PUSH1 0x1 PUSH1 0xA0 SHL SUB NOT AND PUSH1 0x1 PUSH1 0x1 PUSH1 0xA0 SHL SUB SWAP3 SWAP1 SWAP3 AND SWAP2 SWAP1 SWAP2 OR SWAP1 SSTORE PUSH0 DUP1 MSTORE PUSH1 0x9 PUSH1 0x20 MSTORE PUSH32 0xEC8156718A8372B1DB44BB411437D0870F3E3790D4A08526D024CE1B0B668F6B DUP1 SLOAD PUSH1 0xFF NOT AND PUSH1 0x1 OR SWAP1 SSTORE PUSH2 0x1BD JUMP JUMPDEST PUSH1 0x1 DUP1 SLOAD PUSH1 0x1 PUSH1 0x1 PUSH1 0xA0 SHL SUB DUP4 DUP2 AND PUSH1 0x1 PUSH1 0x1 PUSH1 0xA0 SHL SUB NOT DUP4 AND DUP2 OR SWAP1 SWAP4 SSTORE PUSH1 0x40 MLOAD SWAP2 AND SWAP2 SWAP1 DUP3 SWAP1 PUSH32 0x8BE0079C531659141344CD1FD0A4F28419497F9722A3DAAFE3B4186F6B6457E0 SWAP1 PUSH0 SWAP1 LOG3 POP POP JUMP JUMPDEST DUP1 MLOAD PUSH1 0x1 PUSH1 0x1 PUSH1 0xA0 SHL SUB DUP2 AND DUP2 EQ PUSH2 0x187 JUMPI PUSH0 DUP1 REVERT JUMPDEST SWAP2 SWAP1 POP JUMP JUMPDEST PUSH0 DUP1 PUSH1 0x40 DUP4 DUP6 SUB SLT ISZERO PUSH2 0x19D JUMPI PUSH0 DUP1 REVERT JUMPDEST PUSH2 0x1A6 DUP4 PUSH2 0x171 JUMP JUMPDEST SWAP2 POP PUSH2 0x1B4 PUSH1 0x20 DUP5 ADD PUSH2 0x171 JUMP JUMPDEST SWAP1 POP SWAP3 POP SWAP3 SWAP1 POP JUMP JUMPDEST PUSH2 0x2B25 DUP1 PUSH2 0x1CA PUSH0 CODECOPY PUSH0 RETURN INVALID PUSH1 0x80 PUSH1 0x40 MSTORE PUSH1 0x4 CALLDATASIZE LT PUSH2 0x1AF JUMPI PUSH0 CALLDATALOAD PUSH1 0xE0 SHR DUP1 PUSH4 0x8A72EA6A GT PUSH2 0xE7 JUMPI DUP1 PUSH4 0xD14027D4 GT PUSH2 0x87 JUMPI DUP1 PUSH4 0xE74B981B GT PUSH2 0x62 JUMPI DUP1 PUSH4 0xE74B981B EQ PUSH2 0x7E2 JUMPI DUP1 PUSH4 0xEF706ADF EQ PUSH2 0x801 JUMPI DUP1 PUSH4 0xF2FDE38B EQ PUSH2 0x820 JUMPI DUP1 PUSH4 0xF6EB46AC EQ PUSH2 0x83F JUMPI PUSH0 DUP1 REVERT JUMPDEST DUP1 PUSH4 0xD14027D4 EQ PUSH2 0x70F JUMPI DUP1 PUSH4 0xD73792A9 EQ PUSH2 0x72E JUMPI DUP1 PUSH4 0xDE74E57B EQ PUSH2 0x743 JUMPI PUSH0 DUP1 REVERT JUMPDEST DUP1 PUSH4 0xB4A15355 GT PUSH2 0xC2 JUMPI DUP1 PUSH4 0xB4A15355 EQ PUSH2 0x693 JUMPI DUP1 PUSH4 0xC4604943 EQ PUSH2 0x6B2 JUMPI DUP1 PUSH4 0xC815729D EQ PUSH2 0x6D1 JUMPI DUP1 PUSH4 0xCDB3CD25 EQ PUSH2 0x6F0 JUMPI PUSH0 DUP1 REVERT JUMPDEST DUP1 PUSH4 0x8A72EA6A EQ PUSH2 0x5B3 JUMPI DUP1 PUSH4 0x8DA5CB5B EQ PUSH2 0x661 JUMPI DUP1 PUSH4 0xAACCF1EC EQ PUSH2 0x67E JUMPI PUSH0 DUP1 REVERT JUMPDEST DUP1 PUSH4 0x4884F459 GT PUSH2 0x152 JUMPI DUP1 PUSH4 0x6F7B4352 GT PUSH2 0x12D JUMPI DUP1 PUSH4 0x6F7B4352 EQ PUSH2 0x535 JUMPI DUP1 PUSH4 0x715018A6 EQ PUSH2 0x56B JUMPI DUP1 PUSH4 0x7CE3489B EQ PUSH2 0x57F JUMPI DUP1 PUSH4 0x7FD6F15C EQ PUSH2 0x59E JUMPI PUSH0 DUP1 REVERT JUMPDEST DUP1 PUSH4 0x4884F459 EQ PUSH2 0x4CF JUMPI DUP1 PUSH4 0x5F5D0655 EQ PUSH2 0x4E2 JUMPI DUP1 PUSH4 0x697D312A EQ PUSH2 0x4F7 JUMPI PUSH0 DUP1 REVERT JUMPDEST DUP1 PUSH4 0x248D9AA3 GT PUSH2 0x18D JUMPI DUP1 PUSH4 0x248D9AA3 EQ PUSH2 0x323 JUMPI DUP1 PUSH4 0x305A67A8 EQ PUSH2 0x350 JUMPI DUP1 PUSH4 0x4579268A EQ PUSH2 0x36F JUMPI DUP1 PUSH4 0x46904840 EQ PUSH2 0x498 JUMPI PUSH0 DUP1 REVERT JUMPDEST DUP1 PUSH4 0x107A274A EQ PUSH2 0x1B3 JUMPI DUP1 PUSH4 0x150B7A02 EQ PUSH2 0x2CA JUMPI DUP1 PUSH4 0x1D3C6674 EQ PUSH2 0x302 JUMPI JUMPDEST PUSH0 DUP1 REVERT JUMPDEST CALLVALUE DUP1 ISZERO PUSH2 0x1BE JUMPI PUSH0 DUP1 REVERT JUMPDEST POP PUSH2 0x268 PUSH2 0x1CD CALLDATASIZE PUSH1 0x4 PUSH2 0x2592 JUMP JUMPDEST PUSH1 0x40 DUP1 MLOAD PUSH1 0xC0 DUP2 ADD DUP3 MSTORE PUSH0 DUP1 DUP3 MSTORE PUSH1 0x20 DUP3 ADD DUP2 SWAP1 MSTORE SWAP2 DUP2 ADD DUP3 SWAP1 MSTORE PUSH1 0x60 DUP2 ADD DUP3 SWAP1 MSTORE PUSH1 0x80 DUP2 ADD DUP3 SWAP1 MSTORE PUSH1 0xA0 DUP2 ADD SWAP2 SWAP1 SWAP2 MSTORE POP PUSH0 SWAP1 DUP2 MSTORE PUSH1 0x2 PUSH1 0x20 DUP2 DUP2 MSTORE PUSH1 0x40 SWAP3 DUP4 SWAP1 KECCAK256 DUP4 MLOAD PUSH1 0xC0 DUP2 ADD DUP6 MSTORE DUP2 SLOAD PUSH1 0x1 PUSH1 0x1 PUSH1 0xA0 SHL SUB SWAP1 DUP2 AND DUP3 MSTORE PUSH1 0x1 DUP4 ADD SLOAD DUP2 AND SWAP4 DUP3 ADD SWAP4 SWAP1 SWAP4 MSTORE SWAP3 DUP2 ADD SLOAD SWAP4 DUP4 ADD SWAP4 SWAP1 SWAP4 MSTORE PUSH1 0x3 DUP4 ADD SLOAD AND PUSH1 0x60 DUP3 ADD MSTORE PUSH1 0x4 DUP3 ADD SLOAD PUSH1 0x80 DUP3 ADD MSTORE PUSH1 0x5 SWAP1 SWAP2 ADD SLOAD PUSH1 0xFF AND ISZERO ISZERO PUSH1 0xA0 DUP3 ADD MSTORE SWAP1 JUMP JUMPDEST PUSH1 0x40 MLOAD PUSH2 0x2C1 SWAP2 SWAP1 DUP2 MLOAD PUSH1 0x1 PUSH1 0x1 PUSH1 0xA0 SHL SUB SWAP1 DUP2 AND DUP3 MSTORE PUSH1 0x20 DUP1 DUP5 ADD MLOAD DUP3 AND SWAP1 DUP4 ADD MSTORE PUSH1 0x40 DUP1 DUP5 ADD MLOAD SWAP1 DUP4 ADD MSTORE PUSH1 0x60 DUP1 DUP5 ADD MLOAD SWAP1 SWAP2 AND SWAP1 DUP3 ADD MSTORE PUSH1 0x80 DUP1 DUP4 ADD MLOAD SWAP1 DUP3 ADD MSTORE PUSH1 0xA0 SWAP2 DUP3 ADD MLOAD ISZERO ISZERO SWAP2 DUP2 ADD SWAP2 SWAP1 SWAP2 MSTORE PUSH1 0xC0 ADD SWAP1 JUMP JUMPDEST PUSH1 0x40 MLOAD DUP1 SWAP2 SUB SWAP1 RETURN JUMPDEST CALLVALUE DUP1 ISZERO PUSH2 0x2D5 JUMPI PUSH0 DUP1 REVERT JUMPDEST POP PUSH2 0x2E9 PUSH2 0x2E4 CALLDATASIZE PUSH1 0x4 PUSH2 0x25D1 JUMP JUMPDEST PUSH2 0x85E JUMP JUMPDEST PUSH1 0x40 MLOAD PUSH1 0x1 PUSH1 0x1 PUSH1 0xE0 SHL SUB NOT SWAP1 SWAP2 AND DUP2 MSTORE PUSH1 0x20 ADD PUSH2 0x2C1 JUMP JUMPDEST CALLVALUE DUP1 ISZERO PUSH2 0x30D JUMPI PUSH0 DUP1 REVERT JUMPDEST POP PUSH2 0x321 PUSH2 0x31C CALLDATASIZE PUSH1 0x4 PUSH2 0x26B7 JUMP JUMPDEST PUSH2 0x86F JUMP JUMPDEST STOP JUMPDEST CALLVALUE DUP1 ISZERO PUSH2 0x32E JUMPI PUSH0 DUP1 REVERT JUMPDEST POP PUSH2 0x342 PUSH2 0x33D CALLDATASIZE PUSH1 0x4 PUSH2 0x26EE JUMP JUMPDEST PUSH2 0x8D9 JUMP JUMPDEST PUSH1 0x40 MLOAD SWAP1 DUP2 MSTORE PUSH1 0x20 ADD PUSH2 0x2C1 JUMP JUMPDEST CALLVALUE DUP1 ISZERO PUSH2 0x35B JUMPI PUSH0 DUP1 REVERT JUMPDEST POP PUSH2 0x321 PUSH2 0x36A CALLDATASIZE PUSH1 0x4 PUSH2 0x2592 JUMP JUMPDEST PUSH2 0x903 JUMP JUMPDEST CALLVALUE DUP1 ISZERO PUSH2 0x37A JUMPI PUSH0 DUP1 REVERT JUMPDEST POP PUSH2 0x435 PUSH2 0x389 CALLDATASIZE PUSH1 0x4 PUSH2 0x2592 JUMP JUMPDEST PUSH1 0x40 DUP1 MLOAD PUSH1 0xE0 DUP2 ADD DUP3 MSTORE PUSH0 DUP1 DUP3 MSTORE PUSH1 0x20 DUP3 ADD DUP2 SWAP1 MSTORE SWAP2 DUP2 ADD DUP3 SWAP1 MSTORE PUSH1 0x60 DUP2 ADD DUP3 SWAP1 MSTORE PUSH1 0x80 DUP2 ADD DUP3 SWAP1 MSTORE PUSH1 0xA0 DUP2 ADD DUP3 SWAP1 MSTORE PUSH1 0xC0 DUP2 ADD SWAP2 SWAP1 SWAP2 MSTORE POP PUSH0 SWAP1 DUP2 MSTORE PUSH1 0x4 PUSH1 0x20 DUP2 DUP2 MSTORE PUSH1 0x40 SWAP3 DUP4 SWAP1 KECCAK256 DUP4 MLOAD PUSH1 0xE0 DUP2 ADD DUP6 MSTORE DUP2 SLOAD PUSH1 0x1 PUSH1 0x1 PUSH1 0xA0 SHL SUB SWAP1 DUP2 AND DUP3 MSTORE PUSH1 0x1 DUP4 ADD SLOAD DUP2 AND SWAP4 DUP3 ADD SWAP4 SWAP1 SWAP4 MSTORE PUSH1 0x2 DUP3 ADD SLOAD SWAP5 DUP2 ADD SWAP5 SWAP1 SWAP5 MSTORE PUSH1 0x3 DUP2 ADD SLOAD SWAP1 SWAP2 AND PUSH1 0x60 DUP5 ADD MSTORE SWAP1 DUP2 ADD SLOAD PUSH1 0x80 DUP4 ADD MSTORE PUSH1 0x5 DUP2 ADD SLOAD PUSH1 0xA0 DUP4 ADD MSTORE PUSH1 0x6 ADD SLOAD PUSH1 0xFF AND ISZERO ISZERO PUSH1 0xC0 DUP3 ADD MSTORE SWAP1 JUMP JUMPDEST PUSH1 0x40 MLOAD PUSH2 0x2C1 SWAP2 SWAP1 DUP2 MLOAD PUSH1 0x1 PUSH1 0x1 PUSH1 0xA0 SHL SUB SWAP1 DUP2 AND DUP3 MSTORE PUSH1 0x20 DUP1 DUP5 ADD MLOAD DUP3 AND SWAP1 DUP4 ADD MSTORE PUSH1 0x40 DUP1 DUP5 ADD MLOAD SWAP1 DUP4 ADD MSTORE PUSH1 0x60 DUP1 DUP5 ADD MLOAD SWAP1 SWAP2 AND SWAP1 DUP3 ADD MSTORE PUSH1 0x80 DUP1 DUP4 ADD MLOAD SWAP1 DUP3 ADD MSTORE PUSH1 0xA0 DUP3 DUP2 ADD MLOAD SWAP1 DUP3 ADD MSTORE PUSH1 0xC0 SWAP2 DUP3 ADD MLOAD ISZERO ISZERO SWAP2 DUP2 ADD SWAP2 SWAP1 SWAP2 MSTORE PUSH1 0xE0 ADD SWAP1 JUMP JUMPDEST CALLVALUE DUP1 ISZERO PUSH2 0x4A3 JUMPI PUSH0 DUP1 REVERT JUMPDEST POP PUSH1 0x8 SLOAD PUSH2 0x4B7 SWAP1 PUSH1 0x1 PUSH1 0x1 PUSH1 0xA0 SHL SUB AND DUP2 JUMP JUMPDEST PUSH1 0x40 MLOAD PUSH1 0x1 PUSH1 0x1 PUSH1 0xA0 SHL SUB SWAP1 SWAP2 AND DUP2 MSTORE PUSH1 0x20 ADD PUSH2 0x2C1 JUMP JUMPDEST PUSH2 0x321 PUSH2 0x4DD CALLDATASIZE PUSH1 0x4 PUSH2 0x2592 JUMP JUMPDEST PUSH2 0xA00 JUMP JUMPDEST CALLVALUE DUP1 ISZERO PUSH2 0x4ED JUMPI PUSH0 DUP1 REVERT JUMPDEST POP PUSH2 0x342 PUSH1 0x5 SLOAD DUP2 JUMP JUMPDEST CALLVALUE DUP1 ISZERO PUSH2 0x502 JUMPI PUSH0 DUP1 REVERT JUMPDEST POP PUSH2 0x525 PUSH2 0x511 CALLDATASIZE PUSH1 0x4 PUSH2 0x2718 JUMP JUMPDEST PUSH1 0x9 PUSH1 0x20 MSTORE PUSH0 SWAP1 DUP2 MSTORE PUSH1 0x40 SWAP1 KECCAK256 SLOAD PUSH1 0xFF AND DUP2 JUMP JUMPDEST PUSH1 0x40 MLOAD SWAP1 ISZERO ISZERO DUP2 MSTORE PUSH1 0x20 ADD PUSH2 0x2C1 JUMP JUMPDEST CALLVALUE DUP1 ISZERO PUSH2 0x540 JUMPI PUSH0 DUP1 REVERT JUMPDEST POP PUSH2 0x342 PUSH2 0x54F CALLDATASIZE PUSH1 0x4 PUSH2 0x26EE JUMP JUMPDEST PUSH1 0x6 PUSH1 0x20 SWAP1 DUP2 MSTORE PUSH0 SWAP3 DUP4 MSTORE PUSH1 0x40 DUP1 DUP5 KECCAK256 SWAP1 SWAP2 MSTORE SWAP1 DUP3 MSTORE SWAP1 KECCAK256 SLOAD DUP2 JUMP JUMPDEST CALLVALUE DUP1 ISZERO PUSH2 0x576 JUMPI PUSH0 DUP1 REVERT JUMPDEST POP PUSH2 0x321 PUSH2 0xF4B JUMP JUMPDEST CALLVALUE DUP1 ISZERO PUSH2 0x58A JUMPI PUSH0 DUP1 REVERT JUMPDEST POP PUSH2 0x321 PUSH2 0x599 CALLDATASIZE PUSH1 0x4 PUSH2 0x2592 JUMP JUMPDEST PUSH2 0xF5E JUMP JUMPDEST CALLVALUE DUP1 ISZERO PUSH2 0x5A9 JUMPI PUSH0 DUP1 REVERT JUMPDEST POP PUSH2 0x342 PUSH1 0x7 SLOAD DUP2 JUMP JUMPDEST CALLVALUE DUP1 ISZERO PUSH2 0x5BE JUMPI PUSH0 DUP1 REVERT JUMPDEST POP PUSH2 0x61C PUSH2 0x5CD CALLDATASIZE PUSH1 0x4 PUSH2 0x2592 JUMP JUMPDEST PUSH1 0x4 PUSH1 0x20 DUP2 SWAP1 MSTORE PUSH0 SWAP2 DUP3 MSTORE PUSH1 0x40 SWAP1 SWAP2 KECCAK256 DUP1 SLOAD PUSH1 0x1 DUP3 ADD SLOAD PUSH1 0x2 DUP4 ADD SLOAD PUSH1 0x3 DUP5 ADD SLOAD SWAP5 DUP5 ADD SLOAD PUSH1 0x5 DUP6 ADD SLOAD PUSH1 0x6 SWAP1 SWAP6 ADD SLOAD PUSH1 0x1 PUSH1 0x1 PUSH1 0xA0 SHL SUB SWAP5 DUP6 AND SWAP7 SWAP4 DUP6 AND SWAP6 SWAP3 SWAP5 SWAP1 SWAP4 AND SWAP3 SWAP1 SWAP2 SWAP1 PUSH1 0xFF AND DUP8 JUMP JUMPDEST PUSH1 0x40 DUP1 MLOAD PUSH1 0x1 PUSH1 0x1 PUSH1 0xA0 SHL SUB SWAP9 DUP10 AND DUP2 MSTORE SWAP7 DUP9 AND PUSH1 0x20 DUP9 ADD MSTORE DUP7 ADD SWAP5 SWAP1 SWAP5 MSTORE SWAP5 SWAP1 SWAP2 AND PUSH1 0x60 DUP5 ADD MSTORE PUSH1 0x80 DUP4 ADD MSTORE PUSH1 0xA0 DUP3 ADD SWAP3 SWAP1 SWAP3 MSTORE SWAP1 ISZERO ISZERO PUSH1 0xC0 DUP3 ADD MSTORE PUSH1 0xE0 ADD PUSH2 0x2C1 JUMP JUMPDEST CALLVALUE DUP1 ISZERO PUSH2 0x66C JUMPI PUSH0 DUP1 REVERT JUMPDEST POP PUSH1 0x1 SLOAD PUSH1 0x1 PUSH1 0x1 PUSH1 0xA0 SHL SUB AND PUSH2 0x4B7 JUMP JUMPDEST CALLVALUE DUP1 ISZERO PUSH2 0x689 JUMPI PUSH0 DUP1 REVERT JUMPDEST POP PUSH2 0x342 PUSH1 0x3 SLOAD DUP2 JUMP JUMPDEST CALLVALUE DUP1 ISZERO PUSH2 0x69E JUMPI PUSH0 DUP1 REVERT JUMPDEST POP PUSH2 0x342 PUSH2 0x6AD CALLDATASIZE PUSH1 0x4 PUSH2 0x273A JUMP JUMPDEST PUSH2 0xFE3 JUMP JUMPDEST CALLVALUE DUP1 ISZERO PUSH2 0x6BD JUMPI PUSH0 DUP1 REVERT JUMPDEST POP PUSH2 0x321 PUSH2 0x6CC CALLDATASIZE PUSH1 0x4 PUSH2 0x277F JUMP JUMPDEST PUSH2 0x13CF JUMP JUMPDEST CALLVALUE DUP1 ISZERO PUSH2 0x6DC JUMPI PUSH0 DUP1 REVERT JUMPDEST POP PUSH2 0x321 PUSH2 0x6EB CALLDATASIZE PUSH1 0x4 PUSH2 0x2592 JUMP JUMPDEST PUSH2 0x14BF JUMP JUMPDEST CALLVALUE DUP1 ISZERO PUSH2 0x6FB JUMPI PUSH0 DUP1 REVERT JUMPDEST POP PUSH2 0x525 PUSH2 0x70A CALLDATASIZE PUSH1 0x4 PUSH2 0x26EE JUMP JUMPDEST PUSH2 0x19FF JUMP JUMPDEST CALLVALUE DUP1 ISZERO PUSH2 0x71A JUMPI PUSH0 DUP1 REVERT JUMPDEST POP PUSH2 0x342 PUSH2 0x729 CALLDATASIZE PUSH1 0x4 PUSH2 0x279F JUMP JUMPDEST PUSH2 0x1A47 JUMP JUMPDEST CALLVALUE DUP1 ISZERO PUSH2 0x739 JUMPI PUSH0 DUP1 REVERT JUMPDEST POP PUSH2 0x342 PUSH2 0x2710 DUP2 JUMP JUMPDEST CALLVALUE DUP1 ISZERO PUSH2 0x74E JUMPI PUSH0 DUP1 REVERT JUMPDEST POP PUSH2 0x7A4 PUSH2 0x75D CALLDATASIZE PUSH1 0x4 PUSH2 0x2592 JUMP JUMPDEST PUSH1 0x2 PUSH1 0x20 DUP2 SWAP1 MSTORE PUSH0 SWAP2 DUP3 MSTORE PUSH1 0x40 SWAP1 SWAP2 KECCAK256 DUP1 SLOAD PUSH1 0x1 DUP3 ADD SLOAD SWAP3 DUP3 ADD SLOAD PUSH1 0x3 DUP4 ADD SLOAD PUSH1 0x4 DUP5 ADD SLOAD PUSH1 0x5 SWAP1 SWAP5 ADD SLOAD PUSH1 0x1 PUSH1 0x1 PUSH1 0xA0 SHL SUB SWAP4 DUP5 AND SWAP6 DUP5 AND SWAP5 SWAP3 SWAP4 SWAP1 SWAP2 AND SWAP2 SWAP1 PUSH1 0xFF AND DUP7 JUMP JUMPDEST PUSH1 0x40 DUP1 MLOAD PUSH1 0x1 PUSH1 0x1 PUSH1 0xA0 SHL SUB SWAP8 DUP9 AND DUP2 MSTORE SWAP6 DUP8 AND PUSH1 0x20 DUP8 ADD MSTORE DUP6 ADD SWAP4 SWAP1 SWAP4 MSTORE SWAP4 AND PUSH1 0x60 DUP4 ADD MSTORE PUSH1 0x80 DUP3 ADD SWAP3 SWAP1 SWAP3 MSTORE SWAP1 ISZERO ISZERO PUSH1 0xA0 DUP3 ADD MSTORE PUSH1 0xC0 ADD PUSH2 0x2C1 JUMP JUMPDEST CALLVALUE DUP1 ISZERO PUSH2 0x7ED JUMPI PUSH0 DUP1 REVERT JUMPDEST POP PUSH2 0x321 PUSH2 0x7FC CALLDATASIZE PUSH1 0x4 PUSH2 0x2718 JUMP JUMPDEST PUSH2 0x1EB2 JUMP JUMPDEST CALLVALUE DUP1 ISZERO PUSH2 0x80C JUMPI PUSH0 DUP1 REVERT JUMPDEST POP PUSH2 0x321 PUSH2 0x81B CALLDATASIZE PUSH1 0x4 PUSH2 0x2592 JUMP JUMPDEST PUSH2 0x1F50 JUMP JUMPDEST CALLVALUE DUP1 ISZERO PUSH2 0x82B JUMPI PUSH0 DUP1 REVERT JUMPDEST POP PUSH2 0x321 PUSH2 0x83A CALLDATASIZE PUSH1 0x4 PUSH2 0x2718 JUMP JUMPDEST PUSH2 0x2039 JUMP JUMPDEST CALLVALUE DUP1 ISZERO PUSH2 0x84A JUMPI PUSH0 DUP1 REVERT JUMPDEST POP PUSH2 0x321 PUSH2 0x859 CALLDATASIZE PUSH1 0x4 PUSH2 0x2835 JUMP JUMPDEST PUSH2 0x2073 JUMP JUMPDEST PUSH4 0xA85BD01 PUSH1 0xE1 SHL JUMPDEST SWAP5 SWAP4 POP POP POP POP JUMP JUMPDEST PUSH2 0x877 PUSH2 0x21C6 JUMP JUMPDEST PUSH1 0x1 PUSH1 0x1 PUSH1 0xA0 SHL SUB DUP3 AND PUSH0 DUP2 DUP2 MSTORE PUSH1 0x9 PUSH1 0x20 SWAP1 DUP2 MSTORE PUSH1 0x40 SWAP2 DUP3 SWAP1 KECCAK256 DUP1 SLOAD PUSH1 0xFF NOT AND DUP6 ISZERO ISZERO SWAP1 DUP2 OR SWAP1 SWAP2 SSTORE DUP3 MLOAD SWAP4 DUP5 MSTORE SWAP1 DUP4 ADD MSTORE PUSH32 0x19C6E2FBD27C3204EFB106F0081D2D7FFAF44DA224CA04FBC0D8A262BA40F555 SWAP2 ADD PUSH1 0x40 MLOAD DUP1 SWAP2 SUB SWAP1 LOG1 POP POP JUMP JUMPDEST PUSH1 0x1 PUSH1 0x1 PUSH1 0xA0 SHL SUB DUP3 AND PUSH0 SWAP1 DUP2 MSTORE PUSH1 0x6 PUSH1 0x20 SWAP1 DUP2 MSTORE PUSH1 0x40 DUP1 DUP4 KECCAK256 DUP5 DUP5 MSTORE SWAP1 SWAP2 MSTORE SWAP1 KECCAK256 SLOAD JUMPDEST SWAP3 SWAP2 POP POP JUMP JUMPDEST PUSH2 0x90B PUSH2 0x21F3 JUMP JUMPDEST PUSH2 0x913 PUSH2 0x21C6 JUMP JUMPDEST PUSH0 DUP2 DUP2 MSTORE PUSH1 0x2 PUSH1 0x20 MSTORE PUSH1 0x40 SWAP1 KECCAK256 PUSH1 0x5 DUP2 ADD SLOAD PUSH1 0xFF AND PUSH2 0x94D JUMPI PUSH1 0x40 MLOAD PUSH3 0x461BCD PUSH1 0xE5 SHL DUP2 MSTORE PUSH1 0x4 ADD PUSH2 0x944 SWAP1 PUSH2 0x28F0 JUMP JUMPDEST PUSH1 0x40 MLOAD DUP1 SWAP2 SUB SWAP1 REVERT JUMPDEST DUP1 SLOAD PUSH1 0x1 PUSH1 0x1 PUSH1 0xA0 SHL SUB AND CALLER EQ PUSH2 0x993 JUMPI PUSH1 0x40 MLOAD PUSH3 0x461BCD PUSH1 0xE5 SHL DUP2 MSTORE PUSH1 0x20 PUSH1 0x4 DUP3 ADD MSTORE PUSH1 0xA PUSH1 0x24 DUP3 ADD MSTORE PUSH10 0x2737BA1039B2B63632B9 PUSH1 0xB1 SHL PUSH1 0x44 DUP3 ADD MSTORE PUSH1 0x64 ADD PUSH2 0x944 JUMP JUMPDEST PUSH1 0x5 DUP2 ADD DUP1 SLOAD PUSH1 0xFF NOT AND SWAP1 SSTORE PUSH1 0x1 DUP2 ADD SLOAD PUSH1 0x1 PUSH1 0x1 PUSH1 0xA0 SHL SUB AND PUSH0 SWAP1 DUP2 MSTORE PUSH1 0x6 PUSH1 0x20 SWAP1 DUP2 MSTORE PUSH1 0x40 DUP1 DUP4 KECCAK256 PUSH1 0x2 DUP6 ADD SLOAD DUP5 MSTORE SWAP1 SWAP2 MSTORE DUP1 DUP3 KECCAK256 DUP3 SWAP1 SSTORE MLOAD DUP4 SWAP2 PUSH32 0x411AEE90354C51B1B04CD563FCAB2617142A9D50DA19232D888547C8A1B7FD8A SWAP2 LOG2 POP PUSH2 0x9FD PUSH1 0x1 PUSH0 SSTORE JUMP JUMPDEST POP JUMP JUMPDEST PUSH2 0xA08 PUSH2 0x21F3 JUMP JUMPDEST PUSH0 DUP2 DUP2 MSTORE PUSH1 0x2 PUSH1 0x20 MSTORE PUSH1 0x40 SWAP1 KECCAK256 PUSH1 0x5 DUP2 ADD SLOAD PUSH1 0xFF AND PUSH2 0xA39 JUMPI PUSH1 0x40 MLOAD PUSH3 0x461BCD PUSH1 0xE5 SHL DUP2 MSTORE PUSH1 0x4 ADD PUSH2 0x944 SWAP1 PUSH2 0x28F0 JUMP JUMPDEST DUP1 SLOAD PUSH1 0x1 DUP3 ADD SLOAD PUSH1 0x2 DUP4 ADD SLOAD PUSH1 0x40 MLOAD PUSH4 0x31A9108F PUSH1 0xE1 SHL DUP2 MSTORE PUSH1 0x4 DUP2 ADD SWAP2 SWAP1 SWAP2 MSTORE PUSH1 0x1 PUSH1 0x1 PUSH1 0xA0 SHL SUB SWAP3 DUP4 AND SWAP3 SWAP1 SWAP2 AND SWAP1 PUSH4 0x6352211E SWAP1 PUSH1 0x24 ADD PUSH1 0x20 PUSH1 0x40 MLOAD DUP1 DUP4 SUB DUP2 DUP7 GAS STATICCALL ISZERO DUP1 ISZERO PUSH2 0xA8E JUMPI RETURNDATASIZE PUSH0 DUP1 RETURNDATACOPY RETURNDATASIZE PUSH0 REVERT JUMPDEST POP POP POP POP PUSH1 0x40 MLOAD RETURNDATASIZE PUSH1 0x1F NOT PUSH1 0x1F DUP3 ADD AND DUP3 ADD DUP1 PUSH1 0x40 MSTORE POP DUP2 ADD SWAP1 PUSH2 0xAB2 SWAP2 SWAP1 PUSH2 0x291C JUMP JUMPDEST PUSH1 0x1 PUSH1 0x1 PUSH1 0xA0 SHL SUB AND EQ PUSH2 0xB08 JUMPI PUSH1 0x40 MLOAD PUSH3 0x461BCD PUSH1 0xE5 SHL DUP2 MSTORE PUSH1 0x20 PUSH1 0x4 DUP3 ADD MSTORE PUSH1 0x1B PUSH1 0x24 DUP3 ADD MSTORE PUSH32 0x53656C6C6572206E6F206C6F6E676572206F776E7320746F6B656E0000000000 PUSH1 0x44 DUP3 ADD MSTORE PUSH1 0x64 ADD PUSH2 0x944 JUMP JUMPDEST PUSH1 0x4 DUP2 ADD SLOAD DUP2 SLOAD PUSH1 0x7 SLOAD PUSH1 0x1 PUSH1 0x1 PUSH1 0xA0 SHL SUB SWAP1 SWAP2 AND SWAP1 PUSH0 SWAP1 PUSH2 0x2710 SWAP1 PUSH2 0xB2E SWAP1 DUP6 PUSH2 0x294B JUMP JUMPDEST PUSH2 0xB38 SWAP2 SWAP1 PUSH2 0x2962 JUMP JUMPDEST SWAP1 POP PUSH0 PUSH2 0xB45 DUP3 DUP6 PUSH2 0x2981 JUMP JUMPDEST PUSH1 0x3 DUP7 ADD SLOAD SWAP1 SWAP2 POP PUSH1 0x1 PUSH1 0x1 PUSH1 0xA0 SHL SUB AND PUSH2 0xD23 JUMPI DUP4 CALLVALUE LT ISZERO PUSH2 0xBA1 JUMPI PUSH1 0x40 MLOAD PUSH3 0x461BCD PUSH1 0xE5 SHL DUP2 MSTORE PUSH1 0x20 PUSH1 0x4 DUP3 ADD MSTORE PUSH1 0x14 PUSH1 0x24 DUP3 ADD MSTORE PUSH20 0x125B9CDD59999A58DA595B9D081C185E5B595B9D PUSH1 0x62 SHL PUSH1 0x44 DUP3 ADD MSTORE PUSH1 0x64 ADD PUSH2 0x944 JUMP JUMPDEST PUSH0 DUP4 PUSH1 0x1 PUSH1 0x1 PUSH1 0xA0 SHL SUB AND DUP3 PUSH1 0x40 MLOAD PUSH0 PUSH1 0x40 MLOAD DUP1 DUP4 SUB DUP2 DUP6 DUP8 GAS CALL SWAP3 POP POP POP RETURNDATASIZE DUP1 PUSH0 DUP2 EQ PUSH2 0xBEA JUMPI PUSH1 0x40 MLOAD SWAP2 POP PUSH1 0x1F NOT PUSH1 0x3F RETURNDATASIZE ADD AND DUP3 ADD PUSH1 0x40 MSTORE RETURNDATASIZE DUP3 MSTORE RETURNDATASIZE PUSH0 PUSH1 0x20 DUP5 ADD RETURNDATACOPY PUSH2 0xBEF JUMP JUMPDEST PUSH1 0x60 SWAP2 POP JUMPDEST POP POP SWAP1 POP DUP1 PUSH2 0xC10 JUMPI PUSH1 0x40 MLOAD PUSH3 0x461BCD PUSH1 0xE5 SHL DUP2 MSTORE PUSH1 0x4 ADD PUSH2 0x944 SWAP1 PUSH2 0x2994 JUMP JUMPDEST DUP3 ISZERO PUSH2 0xC88 JUMPI PUSH1 0x8 SLOAD PUSH1 0x40 MLOAD PUSH0 SWAP2 PUSH1 0x1 PUSH1 0x1 PUSH1 0xA0 SHL SUB AND SWAP1 DUP6 SWAP1 DUP4 DUP2 DUP2 DUP2 DUP6 DUP8 GAS CALL SWAP3 POP POP POP RETURNDATASIZE DUP1 PUSH0 DUP2 EQ PUSH2 0xC60 JUMPI PUSH1 0x40 MLOAD SWAP2 POP PUSH1 0x1F NOT PUSH1 0x3F RETURNDATASIZE ADD AND DUP3 ADD PUSH1 0x40 MSTORE RETURNDATASIZE DUP3 MSTORE RETURNDATASIZE PUSH0 PUSH1 0x20 DUP5 ADD RETURNDATACOPY PUSH2 0xC65 JUMP JUMPDEST PUSH1 0x60 SWAP2 POP JUMPDEST POP POP SWAP1 POP DUP1 PUSH2 0xC86 JUMPI PUSH1 0x40 MLOAD PUSH3 0x461BCD PUSH1 0xE5 SHL DUP2 MSTORE PUSH1 0x4 ADD PUSH2 0x944 SWAP1 PUSH2 0x29CB JUMP JUMPDEST POP JUMPDEST DUP5 CALLVALUE GT ISZERO PUSH2 0xD1D JUMPI PUSH0 CALLER PUSH2 0xC9C DUP8 CALLVALUE PUSH2 0x2981 JUMP JUMPDEST PUSH1 0x40 MLOAD PUSH0 DUP2 DUP2 DUP2 DUP6 DUP8 GAS CALL SWAP3 POP POP POP RETURNDATASIZE DUP1 PUSH0 DUP2 EQ PUSH2 0xCD5 JUMPI PUSH1 0x40 MLOAD SWAP2 POP PUSH1 0x1F NOT PUSH1 0x3F RETURNDATASIZE ADD AND DUP3 ADD PUSH1 0x40 MSTORE RETURNDATASIZE DUP3 MSTORE RETURNDATASIZE PUSH0 PUSH1 0x20 DUP5 ADD RETURNDATACOPY PUSH2 0xCDA JUMP JUMPDEST PUSH1 0x60 SWAP2 POP JUMPDEST POP POP SWAP1 POP DUP1 PUSH2 0xD1B JUMPI PUSH1 0x40 MLOAD PUSH3 0x461BCD PUSH1 0xE5 SHL DUP2 MSTORE PUSH1 0x20 PUSH1 0x4 DUP3 ADD MSTORE PUSH1 0xD PUSH1 0x24 DUP3 ADD MSTORE PUSH13 0x1499599D5B990819985A5B1959 PUSH1 0x9A SHL PUSH1 0x44 DUP3 ADD MSTORE PUSH1 0x64 ADD PUSH2 0x944 JUMP JUMPDEST POP JUMPDEST POP PUSH2 0xE4F JUMP JUMPDEST PUSH1 0x3 DUP6 ADD SLOAD PUSH1 0x40 MLOAD PUSH4 0x23B872DD PUSH1 0xE0 SHL DUP2 MSTORE PUSH1 0x1 PUSH1 0x1 PUSH1 0xA0 SHL SUB SWAP1 SWAP2 AND SWAP1 DUP2 SWAP1 PUSH4 0x23B872DD SWAP1 PUSH2 0xD5B SWAP1 CALLER SWAP1 DUP9 SWAP1 DUP8 SWAP1 PUSH1 0x4 ADD PUSH2 0x29F8 JUMP JUMPDEST PUSH1 0x20 PUSH1 0x40 MLOAD DUP1 DUP4 SUB DUP2 PUSH0 DUP8 GAS CALL ISZERO DUP1 ISZERO PUSH2 0xD77 JUMPI RETURNDATASIZE PUSH0 DUP1 RETURNDATACOPY RETURNDATASIZE PUSH0 REVERT JUMPDEST POP POP POP POP PUSH1 0x40 MLOAD RETURNDATASIZE PUSH1 0x1F NOT PUSH1 0x1F DUP3 ADD AND DUP3 ADD DUP1 PUSH1 0x40 MSTORE POP DUP2 ADD SWAP1 PUSH2 0xD9B SWAP2 SWAP1 PUSH2 0x2A1C JUMP JUMPDEST PUSH2 0xDB7 JUMPI PUSH1 0x40 MLOAD PUSH3 0x461BCD PUSH1 0xE5 SHL DUP2 MSTORE PUSH1 0x4 ADD PUSH2 0x944 SWAP1 PUSH2 0x2994 JUMP JUMPDEST DUP3 ISZERO PUSH2 0xE4D JUMPI PUSH1 0x8 SLOAD PUSH1 0x40 MLOAD PUSH4 0x23B872DD PUSH1 0xE0 SHL DUP2 MSTORE PUSH1 0x1 PUSH1 0x1 PUSH1 0xA0 SHL SUB DUP1 DUP5 AND SWAP3 PUSH4 0x23B872DD SWAP3 PUSH2 0xDF1 SWAP3 CALLER SWAP3 AND SWAP1 DUP9 SWAP1 PUSH1 0x4 ADD PUSH2 0x29F8 JUMP JUMPDEST PUSH1 0x20 PUSH1 0x40 MLOAD DUP1 DUP4 SUB DUP2 PUSH0 DUP8 GAS CALL ISZERO DUP1 ISZERO PUSH2 0xE0D JUMPI RETURNDATASIZE PUSH0 DUP1 RETURNDATACOPY RETURNDATASIZE PUSH0 REVERT JUMPDEST POP POP POP POP PUSH1 0x40 MLOAD RETURNDATASIZE PUSH1 0x1F NOT PUSH1 0x1F DUP3 ADD AND DUP3 ADD DUP1 PUSH1 0x40 MSTORE POP DUP2 ADD SWAP1 PUSH2 0xE31 SWAP2 SWAP1 PUSH2 0x2A1C JUMP JUMPDEST PUSH2 0xE4D JUMPI PUSH1 0x40 MLOAD PUSH3 0x461BCD PUSH1 0xE5 SHL DUP2 MSTORE PUSH1 0x4 ADD PUSH2 0x944 SWAP1 PUSH2 0x29CB JUMP JUMPDEST POP JUMPDEST PUSH1 0x1 DUP6 ADD SLOAD PUSH1 0x2 DUP7 ADD SLOAD PUSH1 0x40 MLOAD PUSH4 0x21421707 PUSH1 0xE1 SHL DUP2 MSTORE PUSH1 0x1 PUSH1 0x1 PUSH1 0xA0 SHL SUB SWAP1 SWAP3 AND SWAP2 PUSH4 0x42842E0E SWAP2 PUSH2 0xE88 SWAP2 DUP8 SWAP2 CALLER SWAP2 PUSH1 0x4 ADD PUSH2 0x29F8 JUMP JUMPDEST PUSH0 PUSH1 0x40 MLOAD DUP1 DUP4 SUB DUP2 PUSH0 DUP8 DUP1 EXTCODESIZE ISZERO DUP1 ISZERO PUSH2 0xE9F JUMPI PUSH0 DUP1 REVERT JUMPDEST POP GAS CALL ISZERO DUP1 ISZERO PUSH2 0xEB1 JUMPI RETURNDATASIZE PUSH0 DUP1 RETURNDATACOPY RETURNDATASIZE PUSH0 REVERT JUMPDEST POP POP POP POP PUSH1 0x5 DUP6 ADD DUP1 SLOAD PUSH1 0xFF NOT AND SWAP1 SSTORE PUSH1 0x1 DUP6 ADD DUP1 SLOAD PUSH1 0x1 PUSH1 0x1 PUSH1 0xA0 SHL SUB SWAP1 DUP2 AND PUSH0 SWAP1 DUP2 MSTORE PUSH1 0x6 PUSH1 0x20 SWAP1 DUP2 MSTORE PUSH1 0x40 DUP1 DUP4 KECCAK256 PUSH1 0x2 DUP12 ADD DUP1 SLOAD DUP6 MSTORE SWAP1 DUP4 MSTORE DUP2 DUP5 KECCAK256 SWAP4 SWAP1 SWAP4 SSTORE SWAP4 SLOAD SWAP2 SLOAD DUP5 MLOAD SWAP3 DUP5 AND DUP4 MSTORE SWAP1 DUP3 ADD MSTORE SWAP2 DUP3 ADD DUP7 SWAP1 MSTORE DUP5 AND SWAP1 CALLER SWAP1 DUP9 SWAP1 PUSH32 0x87668BF59B21C78084390260EB626847B730CADDC5B38199CF1C27AD39954B83 SWAP1 PUSH1 0x60 ADD PUSH1 0x40 MLOAD DUP1 SWAP2 SUB SWAP1 LOG4 POP POP POP POP POP PUSH2 0x9FD PUSH1 0x1 PUSH0 SSTORE JUMP JUMPDEST PUSH2 0xF53 PUSH2 0x21C6 JUMP JUMPDEST PUSH2 0xF5C PUSH0 PUSH2 0x224A JUMP JUMPDEST JUMP JUMPDEST PUSH2 0xF66 PUSH2 0x21C6 JUMP JUMPDEST PUSH2 0x3E8 DUP2 GT ISZERO PUSH2 0xFA7 JUMPI PUSH1 0x40 MLOAD PUSH3 0x461BCD PUSH1 0xE5 SHL DUP2 MSTORE PUSH1 0x20 PUSH1 0x4 DUP3 ADD MSTORE PUSH1 0xC PUSH1 0x24 DUP3 ADD MSTORE PUSH12 0x8CCACA40E8DEDE40D0D2CED PUSH1 0xA3 SHL PUSH1 0x44 DUP3 ADD MSTORE PUSH1 0x64 ADD PUSH2 0x944 JUMP JUMPDEST PUSH1 0x7 DUP2 SWAP1 SSTORE PUSH1 0x40 MLOAD DUP2 DUP2 MSTORE PUSH32 0x64D1887078A96D281ED60DD69BA75BFB6B5CD2CB4C2D2538B2EB7816A4C646EA SWAP1 PUSH1 0x20 ADD JUMPDEST PUSH1 0x40 MLOAD DUP1 SWAP2 SUB SWAP1 LOG1 POP JUMP JUMPDEST PUSH0 PUSH2 0xFEC PUSH2 0x21F3 JUMP JUMPDEST PUSH2 0xFF4 PUSH2 0x21C6 JUMP JUMPDEST PUSH0 DUP3 GT PUSH2 0x1013 JUMPI PUSH1 0x40 MLOAD PUSH3 0x461BCD PUSH1 0xE5 SHL DUP2 MSTORE PUSH1 0x4 ADD PUSH2 0x944 SWAP1 PUSH2 0x2A37 JUMP JUMPDEST PUSH1 0x1 PUSH1 0x1 PUSH1 0xA0 SHL SUB DUP4 AND PUSH0 SWAP1 DUP2 MSTORE PUSH1 0x9 PUSH1 0x20 MSTORE PUSH1 0x40 SWAP1 KECCAK256 SLOAD PUSH1 0xFF AND PUSH2 0x1076 JUMPI PUSH1 0x40 MLOAD PUSH3 0x461BCD PUSH1 0xE5 SHL DUP2 MSTORE PUSH1 0x20 PUSH1 0x4 DUP3 ADD MSTORE PUSH1 0x19 PUSH1 0x24 DUP3 ADD MSTORE PUSH25 0x14185E5B595B9D081D1BDAD95B881B9BDD08185B1B1BDDD959 PUSH1 0x3A SHL PUSH1 0x44 DUP3 ADD MSTORE PUSH1 0x64 ADD PUSH2 0x944 JUMP JUMPDEST PUSH1 0x40 MLOAD PUSH4 0x31A9108F PUSH1 0xE1 SHL DUP2 MSTORE PUSH1 0x4 DUP2 ADD DUP6 SWAP1 MSTORE CALLER SWAP1 PUSH1 0x1 PUSH1 0x1 PUSH1 0xA0 SHL SUB DUP8 AND SWAP1 PUSH4 0x6352211E SWAP1 PUSH1 0x24 ADD PUSH1 0x20 PUSH1 0x40 MLOAD DUP1 DUP4 SUB DUP2 DUP7 GAS STATICCALL ISZERO DUP1 ISZERO PUSH2 0x10BB JUMPI RETURNDATASIZE PUSH0 DUP1 RETURNDATACOPY RETURNDATASIZE PUSH0 REVERT JUMPDEST POP POP POP POP PUSH1 0x40 MLOAD RETURNDATASIZE PUSH1 0x1F NOT PUSH1 0x1F DUP3 ADD AND DUP3 ADD DUP1 PUSH1 0x40 MSTORE POP DUP2 ADD SWAP1 PUSH2 0x10DF SWAP2 SWAP1 PUSH2 0x291C JUMP JUMPDEST PUSH1 0x1 PUSH1 0x1 PUSH1 0xA0 SHL SUB AND EQ PUSH2 0x1127 JUMPI PUSH1 0x40 MLOAD PUSH3 0x461BCD PUSH1 0xE5 SHL DUP2 MSTORE PUSH1 0x20 PUSH1 0x4 DUP3 ADD MSTORE PUSH1 0xF PUSH1 0x24 DUP3 ADD MSTORE PUSH15 0x2737BA103A37B5B2B71037BBB732B9 PUSH1 0x89 SHL PUSH1 0x44 DUP3 ADD MSTORE PUSH1 0x64 ADD PUSH2 0x944 JUMP JUMPDEST PUSH1 0x40 MLOAD PUSH4 0xE985E9C5 PUSH1 0xE0 SHL DUP2 MSTORE CALLER PUSH1 0x4 DUP3 ADD MSTORE ADDRESS PUSH1 0x24 DUP3 ADD MSTORE PUSH1 0x1 PUSH1 0x1 PUSH1 0xA0 SHL SUB DUP7 AND SWAP1 PUSH4 0xE985E9C5 SWAP1 PUSH1 0x44 ADD PUSH1 0x20 PUSH1 0x40 MLOAD DUP1 DUP4 SUB DUP2 DUP7 GAS STATICCALL ISZERO DUP1 ISZERO PUSH2 0x116F JUMPI RETURNDATASIZE PUSH0 DUP1 RETURNDATACOPY RETURNDATASIZE PUSH0 REVERT JUMPDEST POP POP POP POP PUSH1 0x40 MLOAD RETURNDATASIZE PUSH1 0x1F NOT PUSH1 0x1F DUP3 ADD AND DUP3 ADD DUP1 PUSH1 0x40 MSTORE POP DUP2 ADD SWAP1 PUSH2 0x1193 SWAP2 SWAP1 PUSH2 0x2A1C JUMP JUMPDEST DUP1 PUSH2 0x120D JUMPI POP PUSH1 0x40 MLOAD PUSH4 0x20604BF PUSH1 0xE2 SHL DUP2 MSTORE PUSH1 0x4 DUP2 ADD DUP6 SWAP1 MSTORE ADDRESS SWAP1 PUSH1 0x1 PUSH1 0x1 PUSH1 0xA0 SHL SUB DUP8 AND SWAP1 PUSH4 0x81812FC SWAP1 PUSH1 0x24 ADD PUSH1 0x20 PUSH1 0x40 MLOAD DUP1 DUP4 SUB DUP2 DUP7 GAS STATICCALL ISZERO DUP1 ISZERO PUSH2 0x11DE JUMPI RETURNDATASIZE PUSH0 DUP1 RETURNDATACOPY RETURNDATASIZE PUSH0 REVERT JUMPDEST POP POP POP POP PUSH1 0x40 MLOAD RETURNDATASIZE PUSH1 0x1F NOT PUSH1 0x1F DUP3 ADD AND DUP3 ADD DUP1 PUSH1 0x40 MSTORE POP DUP2 ADD SWAP1 PUSH2 0x1202 SWAP2 SWAP1 PUSH2 0x291C JUMP JUMPDEST PUSH1 0x1 PUSH1 0x1 PUSH1 0xA0 SHL SUB AND EQ JUMPDEST PUSH2 0x1229 JUMPI PUSH1 0x40 MLOAD PUSH3 0x461BCD PUSH1 0xE5 SHL DUP2 MSTORE PUSH1 0x4 ADD PUSH2 0x944 SWAP1 PUSH2 0x2A62 JUMP JUMPDEST PUSH1 0x1 PUSH1 0x1 PUSH1 0xA0 SHL SUB DUP6 AND PUSH0 SWAP1 DUP2 MSTORE PUSH1 0x6 PUSH1 0x20 SWAP1 DUP2 MSTORE PUSH1 0x40 DUP1 DUP4 KECCAK256 DUP8 DUP5 MSTORE SWAP1 SWAP2 MSTORE SWAP1 KECCAK256 SLOAD ISZERO PUSH2 0x128A JUMPI PUSH1 0x40 MLOAD PUSH3 0x461BCD PUSH1 0xE5 SHL DUP2 MSTORE PUSH1 0x20 PUSH1 0x4 DUP3 ADD MSTORE PUSH1 0xE PUSH1 0x24 DUP3 ADD MSTORE PUSH14 0x105B1C9958591E481B1A5CDD1959 PUSH1 0x92 SHL PUSH1 0x44 DUP3 ADD MSTORE PUSH1 0x64 ADD PUSH2 0x944 JUMP JUMPDEST PUSH0 PUSH1 0x3 PUSH0 DUP2 SLOAD PUSH2 0x1299 SWAP1 PUSH2 0x2A99 JUMP JUMPDEST SWAP2 DUP3 SWAP1 SSTORE POP PUSH1 0x40 DUP1 MLOAD PUSH1 0xC0 DUP2 ADD DUP3 MSTORE CALLER DUP1 DUP3 MSTORE PUSH1 0x1 PUSH1 0x1 PUSH1 0xA0 SHL SUB DUP11 DUP2 AND PUSH1 0x20 DUP1 DUP6 ADD DUP3 DUP2 MSTORE DUP6 DUP8 ADD DUP14 DUP2 MSTORE DUP13 DUP6 AND PUSH1 0x60 DUP9 ADD SWAP1 DUP2 MSTORE PUSH1 0x80 DUP9 ADD DUP14 DUP2 MSTORE PUSH1 0x1 PUSH1 0xA0 DUP11 ADD DUP2 DUP2 MSTORE PUSH0 DUP14 DUP2 MSTORE PUSH1 0x2 DUP1 DUP10 MSTORE DUP14 DUP3 KECCAK256 SWAP13 MLOAD DUP14 SLOAD SWAP1 DUP13 AND PUSH1 0x1 PUSH1 0x1 PUSH1 0xA0 SHL SUB NOT SWAP2 DUP3 AND OR DUP15 SSTORE SWAP8 MLOAD SWAP4 DUP14 ADD DUP1 SLOAD SWAP5 DUP13 AND SWAP5 DUP10 AND SWAP5 SWAP1 SWAP5 OR SWAP1 SWAP4 SSTORE SWAP5 MLOAD SWAP2 DUP12 ADD SWAP2 SWAP1 SWAP2 SSTORE SWAP2 MLOAD PUSH1 0x3 DUP11 ADD DUP1 SLOAD SWAP2 SWAP1 SWAP9 AND SWAP5 AND SWAP4 SWAP1 SWAP4 OR SWAP1 SWAP6 SSTORE SWAP1 MLOAD PUSH1 0x4 DUP8 ADD SSTORE SWAP3 MLOAD PUSH1 0x5 SWAP1 SWAP6 ADD DUP1 SLOAD SWAP6 ISZERO ISZERO PUSH1 0xFF NOT SWAP1 SWAP7 AND SWAP6 SWAP1 SWAP6 OR SWAP1 SWAP5 SSTORE DUP1 DUP3 MSTORE PUSH1 0x6 DUP5 MSTORE DUP5 DUP3 KECCAK256 DUP12 DUP4 MSTORE SWAP1 SWAP4 MSTORE DUP4 SWAP1 KECCAK256 DUP5 SWAP1 SSTORE SWAP2 MLOAD SWAP3 SWAP4 POP SWAP2 DUP4 SWAP1 PUSH32 0xF270D40E4CE0790FE62574668B19EDBD345BDFC4B0E945ADA622C5FE65F3E0C4 SWAP1 PUSH2 0x13BC SWAP1 DUP11 SWAP1 DUP11 SWAP1 DUP11 SWAP1 SWAP3 DUP4 MSTORE PUSH1 0x1 PUSH1 0x1 PUSH1 0xA0 SHL SUB SWAP2 SWAP1 SWAP2 AND PUSH1 0x20 DUP4 ADD MSTORE PUSH1 0x40 DUP3 ADD MSTORE PUSH1 0x60 ADD SWAP1 JUMP JUMPDEST PUSH1 0x40 MLOAD DUP1 SWAP2 SUB SWAP1 LOG4 SWAP1 POP PUSH2 0x867 PUSH1 0x1 PUSH0 SSTORE JUMP JUMPDEST PUSH2 0x13D7 PUSH2 0x21F3 JUMP JUMPDEST PUSH2 0x13DF PUSH2 0x21C6 JUMP JUMPDEST PUSH0 DUP3 DUP2 MSTORE PUSH1 0x2 PUSH1 0x20 MSTORE PUSH1 0x40 SWAP1 KECCAK256 PUSH1 0x5 DUP2 ADD SLOAD PUSH1 0xFF AND PUSH2 0x1410 JUMPI PUSH1 0x40 MLOAD PUSH3 0x461BCD PUSH1 0xE5 SHL DUP2 MSTORE PUSH1 0x4 ADD PUSH2 0x944 SWAP1 PUSH2 0x28F0 JUMP JUMPDEST DUP1 SLOAD PUSH1 0x1 PUSH1 0x1 PUSH1 0xA0 SHL SUB AND CALLER EQ PUSH2 0x1456 JUMPI PUSH1 0x40 MLOAD PUSH3 0x461BCD PUSH1 0xE5 SHL DUP2 MSTORE PUSH1 0x20 PUSH1 0x4 DUP3 ADD MSTORE PUSH1 0xA PUSH1 0x24 DUP3 ADD MSTORE PUSH10 0x2737BA1039B2B63632B9 PUSH1 0xB1 SHL PUSH1 0x44 DUP3 ADD MSTORE PUSH1 0x64 ADD PUSH2 0x944 JUMP JUMPDEST PUSH0 DUP3 GT PUSH2 0x1475 JUMPI PUSH1 0x40 MLOAD PUSH3 0x461BCD PUSH1 0xE5 SHL DUP2 MSTORE PUSH1 0x4 ADD PUSH2 0x944 SWAP1 PUSH2 0x2A37 JUMP JUMPDEST PUSH1 0x4 DUP2 ADD DUP3 SWAP1 SSTORE PUSH1 0x40 MLOAD DUP3 DUP2 MSTORE DUP4 SWAP1 PUSH32 0x66BCDE9F7AEC9B81719A4FDEC54CBAFBF6C834D1F2F989D9CD2134DAB8D0C0DE SWAP1 PUSH1 0x20 ADD PUSH1 0x40 MLOAD DUP1 SWAP2 SUB SWAP1 LOG2 POP PUSH2 0x14BB PUSH1 0x1 PUSH0 SSTORE JUMP JUMPDEST POP POP JUMP JUMPDEST PUSH2 0x14C7 PUSH2 0x21F3 JUMP JUMPDEST PUSH0 DUP2 DUP2 MSTORE PUSH1 0x4 PUSH1 0x20 MSTORE PUSH1 0x40 SWAP1 KECCAK256 PUSH1 0x6 DUP2 ADD SLOAD PUSH1 0xFF AND PUSH2 0x151B JUMPI PUSH1 0x40 MLOAD PUSH3 0x461BCD PUSH1 0xE5 SHL DUP2 MSTORE PUSH1 0x20 PUSH1 0x4 DUP3 ADD MSTORE PUSH1 0x10 PUSH1 0x24 DUP3 ADD MSTORE PUSH16 0x4F66666572206E6F7420616374697665 PUSH1 0x80 SHL PUSH1 0x44 DUP3 ADD MSTORE PUSH1 0x64 ADD PUSH2 0x944 JUMP JUMPDEST DUP1 PUSH1 0x5 ADD SLOAD TIMESTAMP GT ISZERO PUSH2 0x155F JUMPI PUSH1 0x40 MLOAD PUSH3 0x461BCD PUSH1 0xE5 SHL DUP2 MSTORE PUSH1 0x20 PUSH1 0x4 DUP3 ADD MSTORE PUSH1 0xD PUSH1 0x24 DUP3 ADD MSTORE PUSH13 0x13D999995C88195E1C1A5C9959 PUSH1 0x9A SHL PUSH1 0x44 DUP3 ADD MSTORE PUSH1 0x64 ADD PUSH2 0x944 JUMP JUMPDEST PUSH1 0x1 DUP2 ADD SLOAD PUSH1 0x2 DUP3 ADD SLOAD PUSH1 0x40 MLOAD PUSH4 0x31A9108F PUSH1 0xE1 SHL DUP2 MSTORE PUSH1 0x4 DUP2 ADD SWAP2 SWAP1 SWAP2 MSTORE CALLER SWAP2 PUSH1 0x1 PUSH1 0x1 PUSH1 0xA0 SHL SUB AND SWAP1 PUSH4 0x6352211E SWAP1 PUSH1 0x24 ADD PUSH1 0x20 PUSH1 0x40 MLOAD DUP1 DUP4 SUB DUP2 DUP7 GAS STATICCALL ISZERO DUP1 ISZERO PUSH2 0x15AE JUMPI RETURNDATASIZE PUSH0 DUP1 RETURNDATACOPY RETURNDATASIZE PUSH0 REVERT JUMPDEST POP POP POP POP PUSH1 0x40 MLOAD RETURNDATASIZE PUSH1 0x1F NOT PUSH1 0x1F DUP3 ADD AND DUP3 ADD DUP1 PUSH1 0x40 MSTORE POP DUP2 ADD SWAP1 PUSH2 0x15D2 SWAP2 SWAP1 PUSH2 0x291C JUMP JUMPDEST PUSH1 0x1 PUSH1 0x1 PUSH1 0xA0 SHL SUB AND EQ PUSH2 0x161A JUMPI PUSH1 0x40 MLOAD PUSH3 0x461BCD PUSH1 0xE5 SHL DUP2 MSTORE PUSH1 0x20 PUSH1 0x4 DUP3 ADD MSTORE PUSH1 0xF PUSH1 0x24 DUP3 ADD MSTORE PUSH15 0x2737BA103A37B5B2B71037BBB732B9 PUSH1 0x89 SHL PUSH1 0x44 DUP3 ADD MSTORE PUSH1 0x64 ADD PUSH2 0x944 JUMP JUMPDEST PUSH1 0x1 DUP2 ADD SLOAD PUSH1 0x40 MLOAD PUSH4 0xE985E9C5 PUSH1 0xE0 SHL DUP2 MSTORE CALLER PUSH1 0x4 DUP3 ADD MSTORE ADDRESS PUSH1 0x24 DUP3 ADD MSTORE PUSH1 0x1 PUSH1 0x1 PUSH1 0xA0 SHL SUB SWAP1 SWAP2 AND SWAP1 PUSH4 0xE985E9C5 SWAP1 PUSH1 0x44 ADD PUSH1 0x20 PUSH1 0x40 MLOAD DUP1 DUP4 SUB DUP2 DUP7 GAS STATICCALL ISZERO DUP1 ISZERO PUSH2 0x1668 JUMPI RETURNDATASIZE PUSH0 DUP1 RETURNDATACOPY RETURNDATASIZE PUSH0 REVERT JUMPDEST POP POP POP POP PUSH1 0x40 MLOAD RETURNDATASIZE PUSH1 0x1F NOT PUSH1 0x1F DUP3 ADD AND DUP3 ADD DUP1 PUSH1 0x40 MSTORE POP DUP2 ADD SWAP1 PUSH2 0x168C SWAP2 SWAP1 PUSH2 0x2A1C JUMP JUMPDEST DUP1 PUSH2 0x1710 JUMPI POP PUSH1 0x1 DUP2 ADD SLOAD PUSH1 0x2 DUP3 ADD SLOAD PUSH1 0x40 MLOAD PUSH4 0x20604BF PUSH1 0xE2 SHL DUP2 MSTORE PUSH1 0x4 DUP2 ADD SWAP2 SWAP1 SWAP2 MSTORE ADDRESS SWAP2 PUSH1 0x1 PUSH1 0x1 PUSH1 0xA0 SHL SUB AND SWAP1 PUSH4 0x81812FC SWAP1 PUSH1 0x24 ADD PUSH1 0x20 PUSH1 0x40 MLOAD DUP1 DUP4 SUB DUP2 DUP7 GAS STATICCALL ISZERO DUP1 ISZERO PUSH2 0x16E1 JUMPI RETURNDATASIZE PUSH0 DUP1 RETURNDATACOPY RETURNDATASIZE PUSH0 REVERT JUMPDEST POP POP POP POP PUSH1 0x40 MLOAD RETURNDATASIZE PUSH1 0x1F NOT PUSH1 0x1F DUP3 ADD AND DUP3 ADD DUP1 PUSH1 0x40 MSTORE POP DUP2 ADD SWAP1 PUSH2 0x1705 SWAP2 SWAP1 PUSH2 0x291C JUMP JUMPDEST PUSH1 0x1 PUSH1 0x1 PUSH1 0xA0 SHL SUB AND EQ JUMPDEST PUSH2 0x172C JUMPI PUSH1 0x40 MLOAD PUSH3 0x461BCD PUSH1 0xE5 SHL DUP2 MSTORE PUSH1 0x4 ADD PUSH2 0x944 SWAP1 PUSH2 0x2A62 JUMP JUMPDEST PUSH1 0x4 DUP2 ADD SLOAD DUP2 SLOAD PUSH1 0x7 SLOAD PUSH1 0x1 PUSH1 0x1 PUSH1 0xA0 SHL SUB SWAP1 SWAP2 AND SWAP1 PUSH0 SWAP1 PUSH2 0x2710 SWAP1 PUSH2 0x1752 SWAP1 DUP6 PUSH2 0x294B JUMP JUMPDEST PUSH2 0x175C SWAP2 SWAP1 PUSH2 0x2962 JUMP JUMPDEST SWAP1 POP PUSH0 PUSH2 0x1769 DUP3 DUP6 PUSH2 0x2981 JUMP JUMPDEST PUSH1 0x3 DUP7 ADD SLOAD PUSH1 0x40 MLOAD PUSH4 0x23B872DD PUSH1 0xE0 SHL DUP2 MSTORE SWAP2 SWAP3 POP PUSH1 0x1 PUSH1 0x1 PUSH1 0xA0 SHL SUB AND SWAP1 DUP2 SWAP1 PUSH4 0x23B872DD SWAP1 PUSH2 0x17A2 SWAP1 DUP8 SWAP1 CALLER SWAP1 DUP8 SWAP1 PUSH1 0x4 ADD PUSH2 0x29F8 JUMP JUMPDEST PUSH1 0x20 PUSH1 0x40 MLOAD DUP1 DUP4 SUB DUP2 PUSH0 DUP8 GAS CALL ISZERO DUP1 ISZERO PUSH2 0x17BE JUMPI RETURNDATASIZE PUSH0 DUP1 RETURNDATACOPY RETURNDATASIZE PUSH0 REVERT JUMPDEST POP POP POP POP PUSH1 0x40 MLOAD RETURNDATASIZE PUSH1 0x1F NOT PUSH1 0x1F DUP3 ADD AND DUP3 ADD DUP1 PUSH1 0x40 MSTORE POP DUP2 ADD SWAP1 PUSH2 0x17E2 SWAP2 SWAP1 PUSH2 0x2A1C JUMP JUMPDEST PUSH2 0x17FE JUMPI PUSH1 0x40 MLOAD PUSH3 0x461BCD PUSH1 0xE5 SHL DUP2 MSTORE PUSH1 0x4 ADD PUSH2 0x944 SWAP1 PUSH2 0x2994 JUMP JUMPDEST DUP3 ISZERO PUSH2 0x1894 JUMPI PUSH1 0x8 SLOAD PUSH1 0x40 MLOAD PUSH4 0x23B872DD PUSH1 0xE0 SHL DUP2 MSTORE PUSH1 0x1 PUSH1 0x1 PUSH1 0xA0 SHL SUB DUP1 DUP5 AND SWAP3 PUSH4 0x23B872DD SWAP3 PUSH2 0x1838 SWAP3 DUP10 SWAP3 AND SWAP1 DUP9 SWAP1 PUSH1 0x4 ADD PUSH2 0x29F8 JUMP JUMPDEST PUSH1 0x20 PUSH1 0x40 MLOAD DUP1 DUP4 SUB DUP2 PUSH0 DUP8 GAS CALL ISZERO DUP1 ISZERO PUSH2 0x1854 JUMPI RETURNDATASIZE PUSH0 DUP1 RETURNDATACOPY RETURNDATASIZE PUSH0 REVERT JUMPDEST POP POP POP POP PUSH1 0x40 MLOAD RETURNDATASIZE PUSH1 0x1F NOT PUSH1 0x1F DUP3 ADD AND DUP3 ADD DUP1 PUSH1 0x40 MSTORE POP DUP2 ADD SWAP1 PUSH2 0x1878 SWAP2 SWAP1 PUSH2 0x2A1C JUMP JUMPDEST PUSH2 0x1894 JUMPI PUSH1 0x40 MLOAD PUSH3 0x461BCD PUSH1 0xE5 SHL DUP2 MSTORE PUSH1 0x4 ADD PUSH2 0x944 SWAP1 PUSH2 0x29CB JUMP JUMPDEST PUSH1 0x1 DUP7 ADD SLOAD PUSH1 0x2 DUP8 ADD SLOAD PUSH1 0x40 MLOAD PUSH4 0x21421707 PUSH1 0xE1 SHL DUP2 MSTORE PUSH1 0x1 PUSH1 0x1 PUSH1 0xA0 SHL SUB SWAP1 SWAP3 AND SWAP2 PUSH4 0x42842E0E SWAP2 PUSH2 0x18CD SWAP2 CALLER SWAP2 DUP10 SWAP2 PUSH1 0x4 ADD PUSH2 0x29F8 JUMP JUMPDEST PUSH0 PUSH1 0x40 MLOAD DUP1 DUP4 SUB DUP2 PUSH0 DUP8 DUP1 EXTCODESIZE ISZERO DUP1 ISZERO PUSH2 0x18E4 JUMPI PUSH0 DUP1 REVERT JUMPDEST POP GAS CALL ISZERO DUP1 ISZERO PUSH2 0x18F6 JUMPI RETURNDATASIZE PUSH0 DUP1 RETURNDATACOPY RETURNDATASIZE PUSH0 REVERT JUMPDEST POP POP POP POP PUSH1 0x6 DUP7 DUP2 ADD DUP1 SLOAD PUSH1 0xFF NOT AND SWAP1 SSTORE PUSH1 0x1 DUP8 ADD SLOAD PUSH1 0x1 PUSH1 0x1 PUSH1 0xA0 SHL SUB AND PUSH0 SWAP1 DUP2 MSTORE PUSH1 0x20 SWAP2 DUP3 MSTORE PUSH1 0x40 DUP1 DUP3 KECCAK256 PUSH1 0x2 DUP11 ADD SLOAD DUP4 MSTORE SWAP1 SWAP3 MSTORE KECCAK256 SLOAD DUP1 ISZERO DUP1 ISZERO SWAP1 PUSH2 0x194E JUMPI POP PUSH0 DUP2 DUP2 MSTORE PUSH1 0x2 PUSH1 0x20 MSTORE PUSH1 0x40 SWAP1 KECCAK256 PUSH1 0x5 ADD SLOAD PUSH1 0xFF AND JUMPDEST ISZERO PUSH2 0x1992 JUMPI PUSH0 DUP2 DUP2 MSTORE PUSH1 0x2 PUSH1 0x20 DUP2 DUP2 MSTORE PUSH1 0x40 DUP1 DUP5 KECCAK256 PUSH1 0x5 ADD DUP1 SLOAD PUSH1 0xFF NOT AND SWAP1 SSTORE PUSH1 0x1 DUP12 ADD SLOAD PUSH1 0x1 PUSH1 0x1 PUSH1 0xA0 SHL SUB AND DUP5 MSTORE PUSH1 0x6 DUP3 MSTORE DUP1 DUP5 KECCAK256 SWAP3 DUP12 ADD SLOAD DUP5 MSTORE SWAP2 SWAP1 MSTORE DUP2 KECCAK256 SSTORE JUMPDEST PUSH1 0x1 DUP8 ADD SLOAD PUSH1 0x2 DUP9 ADD SLOAD PUSH1 0x40 DUP1 MLOAD PUSH1 0x1 PUSH1 0x1 PUSH1 0xA0 SHL SUB SWAP4 DUP5 AND DUP2 MSTORE PUSH1 0x20 DUP2 ADD SWAP3 SWAP1 SWAP3 MSTORE DUP2 ADD DUP9 SWAP1 MSTORE SWAP1 DUP7 AND SWAP1 CALLER SWAP1 DUP11 SWAP1 PUSH32 0x50DF946EE330BF8AF17ECC21585649645F3680C032BC659B21E49881BEA57F71 SWAP1 PUSH1 0x60 ADD PUSH1 0x40 MLOAD DUP1 SWAP2 SUB SWAP1 LOG4 POP POP POP POP POP POP POP PUSH2 0x9FD PUSH1 0x1 PUSH0 SSTORE JUMP JUMPDEST PUSH1 0x1 PUSH1 0x1 PUSH1 0xA0 SHL SUB DUP3 AND PUSH0 SWAP1 DUP2 MSTORE PUSH1 0x6 PUSH1 0x20 SWAP1 DUP2 MSTORE PUSH1 0x40 DUP1 DUP4 KECCAK256 DUP5 DUP5 MSTORE SWAP1 SWAP2 MSTORE DUP2 KECCAK256 SLOAD DUP1 ISZERO DUP1 ISZERO SWAP1 PUSH2 0x867 JUMPI POP PUSH0 SWAP1 DUP2 MSTORE PUSH1 0x2 PUSH1 0x20 MSTORE PUSH1 0x40 SWAP1 KECCAK256 PUSH1 0x5 ADD SLOAD PUSH1 0xFF AND SWAP4 SWAP3 POP POP POP JUMP JUMPDEST PUSH0 PUSH2 0x1A50 PUSH2 0x21F3 JUMP JUMPDEST PUSH0 DUP4 GT PUSH2 0x1A6F JUMPI PUSH1 0x40 MLOAD PUSH3 0x461BCD PUSH1 0xE5 SHL DUP2 MSTORE PUSH1 0x4 ADD PUSH2 0x944 SWAP1 PUSH2 0x2A37 JUMP JUMPDEST PUSH1 0x1 PUSH1 0x1 PUSH1 0xA0 SHL SUB DUP5 AND PUSH2 0x1ABC JUMPI PUSH1 0x40 MLOAD PUSH3 0x461BCD PUSH1 0xE5 SHL DUP2 MSTORE PUSH1 0x20 PUSH1 0x4 DUP3 ADD MSTORE PUSH1 0x14 PUSH1 0x24 DUP3 ADD MSTORE PUSH20 0x55736520455243323020666F72206F6666657273 PUSH1 0x60 SHL PUSH1 0x44 DUP3 ADD MSTORE PUSH1 0x64 ADD PUSH2 0x944 JUMP JUMPDEST PUSH1 0x1 PUSH1 0x1 PUSH1 0xA0 SHL SUB DUP5 AND PUSH0 SWAP1 DUP2 MSTORE PUSH1 0x9 PUSH1 0x20 MSTORE PUSH1 0x40 SWAP1 KECCAK256 SLOAD PUSH1 0xFF AND PUSH2 0x1B1F JUMPI PUSH1 0x40 MLOAD PUSH3 0x461BCD PUSH1 0xE5 SHL DUP2 MSTORE PUSH1 0x20 PUSH1 0x4 DUP3 ADD MSTORE PUSH1 0x19 PUSH1 0x24 DUP3 ADD MSTORE PUSH25 0x14185E5B595B9D081D1BDAD95B881B9BDD08185B1B1BDDD959 PUSH1 0x3A SHL PUSH1 0x44 DUP3 ADD MSTORE PUSH1 0x64 ADD PUSH2 0x944 JUMP JUMPDEST PUSH0 DUP3 GT DUP1 ISZERO PUSH2 0x1B31 JUMPI POP PUSH3 0x76A700 DUP3 GT ISZERO JUMPDEST PUSH2 0x1B70 JUMPI PUSH1 0x40 MLOAD PUSH3 0x461BCD PUSH1 0xE5 SHL DUP2 MSTORE PUSH1 0x20 PUSH1 0x4 DUP3 ADD MSTORE PUSH1 0x10 PUSH1 0x24 DUP3 ADD MSTORE PUSH16 0x24B73B30B634B210323AB930BA34B7B7 PUSH1 0x81 SHL PUSH1 0x44 DUP3 ADD MSTORE PUSH1 0x64 ADD PUSH2 0x944 JUMP JUMPDEST PUSH1 0x40 MLOAD PUSH4 0x6EB1769F PUSH1 0xE1 SHL DUP2 MSTORE CALLER PUSH1 0x4 DUP3 ADD MSTORE ADDRESS PUSH1 0x24 DUP3 ADD MSTORE DUP5 SWAP1 DUP5 SWAP1 PUSH1 0x1 PUSH1 0x1 PUSH1 0xA0 SHL SUB DUP4 AND SWAP1 PUSH4 0xDD62ED3E SWAP1 PUSH1 0x44 ADD PUSH1 0x20 PUSH1 0x40 MLOAD DUP1 DUP4 SUB DUP2 DUP7 GAS STATICCALL ISZERO DUP1 ISZERO PUSH2 0x1BBC JUMPI RETURNDATASIZE PUSH0 DUP1 RETURNDATACOPY RETURNDATASIZE PUSH0 REVERT JUMPDEST POP POP POP POP PUSH1 0x40 MLOAD RETURNDATASIZE PUSH1 0x1F NOT PUSH1 0x1F DUP3 ADD AND DUP3 ADD DUP1 PUSH1 0x40 MSTORE POP DUP2 ADD SWAP1 PUSH2 0x1BE0 SWAP2 SWAP1 PUSH2 0x2AB1 JUMP JUMPDEST LT ISZERO PUSH2 0x1C2E JUMPI PUSH1 0x40 MLOAD PUSH3 0x461BCD PUSH1 0xE5 SHL DUP2 MSTORE PUSH1 0x20 PUSH1 0x4 DUP3 ADD MSTORE PUSH1 0x1B PUSH1 0x24 DUP3 ADD MSTORE PUSH32 0x496E73756666696369656E7420746F6B656E20617070726F76616C0000000000 PUSH1 0x44 DUP3 ADD MSTORE PUSH1 0x64 ADD PUSH2 0x944 JUMP JUMPDEST PUSH1 0x40 MLOAD PUSH4 0x70A08231 PUSH1 0xE0 SHL DUP2 MSTORE CALLER PUSH1 0x4 DUP3 ADD MSTORE DUP5 SWAP1 PUSH1 0x1 PUSH1 0x1 PUSH1 0xA0 SHL SUB DUP4 AND SWAP1 PUSH4 0x70A08231 SWAP1 PUSH1 0x24 ADD PUSH1 0x20 PUSH1 0x40 MLOAD DUP1 DUP4 SUB DUP2 DUP7 GAS STATICCALL ISZERO DUP1 ISZERO PUSH2 0x1C72 JUMPI RETURNDATASIZE PUSH0 DUP1 RETURNDATACOPY RETURNDATASIZE PUSH0 REVERT JUMPDEST POP POP POP POP PUSH1 0x40 MLOAD RETURNDATASIZE PUSH1 0x1F NOT PUSH1 0x1F DUP3 ADD AND DUP3 ADD DUP1 PUSH1 0x40 MSTORE POP DUP2 ADD SWAP1 PUSH2 0x1C96 SWAP2 SWAP1 PUSH2 0x2AB1 JUMP JUMPDEST LT ISZERO PUSH2 0x1CE4 JUMPI PUSH1 0x40 MLOAD PUSH3 0x461BCD PUSH1 0xE5 SHL DUP2 MSTORE PUSH1 0x20 PUSH1 0x4 DUP3 ADD MSTORE PUSH1 0x1A PUSH1 0x24 DUP3 ADD MSTORE PUSH32 0x496E73756666696369656E7420746F6B656E2062616C616E6365000000000000 PUSH1 0x44 DUP3 ADD MSTORE PUSH1 0x64 ADD PUSH2 0x944 JUMP JUMPDEST PUSH0 PUSH1 0x5 PUSH0 DUP2 SLOAD PUSH2 0x1CF3 SWAP1 PUSH2 0x2A99 JUMP JUMPDEST SWAP2 DUP3 SWAP1 SSTORE POP SWAP1 POP PUSH0 PUSH2 0x1D05 DUP6 TIMESTAMP PUSH2 0x2AC8 JUMP JUMPDEST SWAP1 POP PUSH1 0x40 MLOAD DUP1 PUSH1 0xE0 ADD PUSH1 0x40 MSTORE DUP1 CALLER PUSH1 0x1 PUSH1 0x1 PUSH1 0xA0 SHL SUB AND DUP2 MSTORE PUSH1 0x20 ADD DUP11 PUSH1 0x1 PUSH1 0x1 PUSH1 0xA0 SHL SUB AND DUP2 MSTORE PUSH1 0x20 ADD DUP10 DUP2 MSTORE PUSH1 0x20 ADD DUP9 PUSH1 0x1 PUSH1 0x1 PUSH1 0xA0 SHL SUB AND DUP2 MSTORE PUSH1 0x20 ADD DUP8 DUP2 MSTORE PUSH1 0x20 ADD DUP3 DUP2 MSTORE PUSH1 0x20 ADD PUSH1 0x1 ISZERO ISZERO DUP2 MSTORE POP PUSH1 0x4 PUSH0 DUP5 DUP2 MSTORE PUSH1 0x20 ADD SWAP1 DUP2 MSTORE PUSH1 0x20 ADD PUSH0 KECCAK256 PUSH0 DUP3 ADD MLOAD DUP2 PUSH0 ADD PUSH0 PUSH2 0x100 EXP DUP2 SLOAD DUP2 PUSH1 0x1 PUSH1 0x1 PUSH1 0xA0 SHL SUB MUL NOT AND SWAP1 DUP4 PUSH1 0x1 PUSH1 0x1 PUSH1 0xA0 SHL SUB AND MUL OR SWAP1 SSTORE POP PUSH1 0x20 DUP3 ADD MLOAD DUP2 PUSH1 0x1 ADD PUSH0 PUSH2 0x100 EXP DUP2 SLOAD DUP2 PUSH1 0x1 PUSH1 0x1 PUSH1 0xA0 SHL SUB MUL NOT AND SWAP1 DUP4 PUSH1 0x1 PUSH1 0x1 PUSH1 0xA0 SHL SUB AND MUL OR SWAP1 SSTORE POP PUSH1 0x40 DUP3 ADD MLOAD DUP2 PUSH1 0x2 ADD SSTORE PUSH1 0x60 DUP3 ADD MLOAD DUP2 PUSH1 0x3 ADD PUSH0 PUSH2 0x100 EXP DUP2 SLOAD DUP2 PUSH1 0x1 PUSH1 0x1 PUSH1 0xA0 SHL SUB MUL NOT AND SWAP1 DUP4 PUSH1 0x1 PUSH1 0x1 PUSH1 0xA0 SHL SUB AND MUL OR SWAP1 SSTORE POP PUSH1 0x80 DUP3 ADD MLOAD DUP2 PUSH1 0x4 ADD SSTORE PUSH1 0xA0 DUP3 ADD MLOAD DUP2 PUSH1 0x5 ADD SSTORE PUSH1 0xC0 DUP3 ADD MLOAD DUP2 PUSH1 0x6 ADD PUSH0 PUSH2 0x100 EXP DUP2 SLOAD DUP2 PUSH1 0xFF MUL NOT AND SWAP1 DUP4 ISZERO ISZERO MUL OR SWAP1 SSTORE POP SWAP1 POP POP DUP9 PUSH1 0x1 PUSH1 0x1 PUSH1 0xA0 SHL SUB AND CALLER PUSH1 0x1 PUSH1 0x1 PUSH1 0xA0 SHL SUB AND DUP4 PUSH32 0x7E9214B37F6C5D7654ED3D8CB085C5ABA036C579313526CC62A3C9168617C40 DUP12 DUP12 DUP12 DUP8 PUSH1 0x40 MLOAD PUSH2 0x1E94 SWAP5 SWAP4 SWAP3 SWAP2 SWAP1 SWAP4 DUP5 MSTORE PUSH1 0x1 PUSH1 0x1 PUSH1 0xA0 SHL SUB SWAP3 SWAP1 SWAP3 AND PUSH1 0x20 DUP5 ADD MSTORE PUSH1 0x40 DUP4 ADD MSTORE PUSH1 0x60 DUP3 ADD MSTORE PUSH1 0x80 ADD SWAP1 JUMP JUMPDEST PUSH1 0x40 MLOAD DUP1 SWAP2 SUB SWAP1 LOG4 POP SWAP2 POP POP PUSH2 0x1EA9 PUSH1 0x1 PUSH0 SSTORE JUMP JUMPDEST SWAP6 SWAP5 POP POP POP POP POP JUMP JUMPDEST PUSH2 0x1EBA PUSH2 0x21C6 JUMP JUMPDEST PUSH1 0x1 PUSH1 0x1 PUSH1 0xA0 SHL SUB DUP2 AND PUSH2 0x1F02 JUMPI PUSH1 0x40 MLOAD PUSH3 0x461BCD PUSH1 0xE5 SHL DUP2 MSTORE PUSH1 0x20 PUSH1 0x4 DUP3 ADD MSTORE PUSH1 0xF PUSH1 0x24 DUP3 ADD MSTORE PUSH15 0x496E76616C69642061646472657373 PUSH1 0x88 SHL PUSH1 0x44 DUP3 ADD MSTORE PUSH1 0x64 ADD PUSH2 0x944 JUMP JUMPDEST PUSH1 0x8 DUP1 SLOAD PUSH1 0x1 PUSH1 0x1 PUSH1 0xA0 SHL SUB NOT AND PUSH1 0x1 PUSH1 0x1 PUSH1 0xA0 SHL SUB DUP4 AND SWAP1 DUP2 OR SWAP1 SWAP2 SSTORE PUSH1 0x40 MLOAD SWAP1 DUP2 MSTORE PUSH32 0x7A7B5A0A132F9E0581EB8527F66EAE9EE89C2A3E79D4AC7E41A1F1F4D48A7FC2 SWAP1 PUSH1 0x20 ADD PUSH2 0xFD8 JUMP JUMPDEST PUSH2 0x1F58 PUSH2 0x21F3 JUMP JUMPDEST PUSH0 DUP2 DUP2 MSTORE PUSH1 0x4 PUSH1 0x20 MSTORE PUSH1 0x40 SWAP1 KECCAK256 PUSH1 0x6 DUP2 ADD SLOAD PUSH1 0xFF AND PUSH2 0x1FAC JUMPI PUSH1 0x40 MLOAD PUSH3 0x461BCD PUSH1 0xE5 SHL DUP2 MSTORE PUSH1 0x20 PUSH1 0x4 DUP3 ADD MSTORE PUSH1 0x10 PUSH1 0x24 DUP3 ADD MSTORE PUSH16 0x4F66666572206E6F7420616374697665 PUSH1 0x80 SHL PUSH1 0x44 DUP3 ADD MSTORE PUSH1 0x64 ADD PUSH2 0x944 JUMP JUMPDEST DUP1 SLOAD PUSH1 0x1 PUSH1 0x1 PUSH1 0xA0 SHL SUB AND CALLER EQ PUSH2 0x1FF9 JUMPI PUSH1 0x40 MLOAD PUSH3 0x461BCD PUSH1 0xE5 SHL DUP2 MSTORE PUSH1 0x20 PUSH1 0x4 DUP3 ADD MSTORE PUSH1 0x11 PUSH1 0x24 DUP3 ADD MSTORE PUSH17 0x2737BA1037B33332B91031B932B0BA37B9 PUSH1 0x79 SHL PUSH1 0x44 DUP3 ADD MSTORE PUSH1 0x64 ADD PUSH2 0x944 JUMP JUMPDEST PUSH1 0x6 DUP2 ADD DUP1 SLOAD PUSH1 0xFF NOT AND SWAP1 SSTORE PUSH1 0x40 MLOAD DUP3 SWAP1 PUSH32 0xC28B4AED030BFACC245C0501326E1BEB8C0EF0D60E4EDC21067FDEB52DA2A7AA SWAP1 PUSH0 SWAP1 LOG2 POP PUSH2 0x9FD PUSH1 0x1 PUSH0 SSTORE JUMP JUMPDEST PUSH2 0x2041 PUSH2 0x21C6 JUMP JUMPDEST PUSH1 0x1 PUSH1 0x1 PUSH1 0xA0 SHL SUB DUP2 AND PUSH2 0x206A JUMPI PUSH1 0x40 MLOAD PUSH4 0x1E4FBDF7 PUSH1 0xE0 SHL DUP2 MSTORE PUSH0 PUSH1 0x4 DUP3 ADD MSTORE PUSH1 0x24 ADD PUSH2 0x944 JUMP JUMPDEST PUSH2 0x9FD DUP2 PUSH2 0x224A JUMP JUMPDEST PUSH2 0x207B PUSH2 0x21C6 JUMP JUMPDEST PUSH2 0x2083 PUSH2 0x21F3 JUMP JUMPDEST DUP7 DUP1 PUSH2 0x20C0 JUMPI PUSH1 0x40 MLOAD PUSH3 0x461BCD PUSH1 0xE5 SHL DUP2 MSTORE PUSH1 0x20 PUSH1 0x4 DUP3 ADD MSTORE PUSH1 0xC PUSH1 0x24 DUP3 ADD MSTORE PUSH12 0x456D70747920617272617973 PUSH1 0xA0 SHL PUSH1 0x44 DUP3 ADD MSTORE PUSH1 0x64 ADD PUSH2 0x944 JUMP JUMPDEST DUP1 DUP7 EQ DUP1 ISZERO PUSH2 0x20CE JUMPI POP DUP1 DUP5 EQ JUMPDEST DUP1 ISZERO PUSH2 0x20D9 JUMPI POP DUP1 DUP3 EQ JUMPDEST PUSH2 0x2116 JUMPI PUSH1 0x40 MLOAD PUSH3 0x461BCD PUSH1 0xE5 SHL DUP2 MSTORE PUSH1 0x20 PUSH1 0x4 DUP3 ADD MSTORE PUSH1 0xE PUSH1 0x24 DUP3 ADD MSTORE PUSH14 0x82E4E4C2F240DAD2E6DAC2E8C6D PUSH1 0x93 SHL PUSH1 0x44 DUP3 ADD MSTORE PUSH1 0x64 ADD PUSH2 0x944 JUMP JUMPDEST PUSH0 JUMPDEST DUP2 DUP2 LT ISZERO PUSH2 0x21B1 JUMPI PUSH2 0x21A9 CALLER DUP12 DUP12 DUP5 DUP2 DUP2 LT PUSH2 0x2136 JUMPI PUSH2 0x2136 PUSH2 0x2ADB JUMP JUMPDEST SWAP1 POP PUSH1 0x20 MUL ADD PUSH1 0x20 DUP2 ADD SWAP1 PUSH2 0x214B SWAP2 SWAP1 PUSH2 0x2718 JUMP JUMPDEST DUP11 DUP11 DUP6 DUP2 DUP2 LT PUSH2 0x215D JUMPI PUSH2 0x215D PUSH2 0x2ADB JUMP JUMPDEST SWAP1 POP PUSH1 0x20 MUL ADD CALLDATALOAD DUP10 DUP10 DUP7 DUP2 DUP2 LT PUSH2 0x2176 JUMPI PUSH2 0x2176 PUSH2 0x2ADB JUMP JUMPDEST SWAP1 POP PUSH1 0x20 MUL ADD PUSH1 0x20 DUP2 ADD SWAP1 PUSH2 0x218B SWAP2 SWAP1 PUSH2 0x2718 JUMP JUMPDEST DUP9 DUP9 DUP8 DUP2 DUP2 LT PUSH2 0x219D JUMPI PUSH2 0x219D PUSH2 0x2ADB JUMP JUMPDEST SWAP1 POP PUSH1 0x20 MUL ADD CALLDATALOAD PUSH2 0x229B JUMP JUMPDEST PUSH1 0x1 ADD PUSH2 0x2118 JUMP JUMPDEST POP POP PUSH2 0x21BC PUSH1 0x1 PUSH0 SSTORE JUMP JUMPDEST POP POP POP POP POP POP POP POP JUMP JUMPDEST PUSH1 0x1 SLOAD PUSH1 0x1 PUSH1 0x1 PUSH1 0xA0 SHL SUB AND CALLER EQ PUSH2 0xF5C JUMPI PUSH1 0x40 MLOAD PUSH4 0x118CDAA7 PUSH1 0xE0 SHL DUP2 MSTORE CALLER PUSH1 0x4 DUP3 ADD MSTORE PUSH1 0x24 ADD PUSH2 0x944 JUMP JUMPDEST PUSH1 0x2 PUSH0 SLOAD SUB PUSH2 0x2244 JUMPI PUSH1 0x40 MLOAD PUSH3 0x461BCD PUSH1 0xE5 SHL DUP2 MSTORE PUSH1 0x20 PUSH1 0x4 DUP3 ADD MSTORE PUSH1 0x1F PUSH1 0x24 DUP3 ADD MSTORE PUSH32 0x5265656E7472616E637947756172643A207265656E7472616E742063616C6C00 PUSH1 0x44 DUP3 ADD MSTORE PUSH1 0x64 ADD PUSH2 0x944 JUMP JUMPDEST PUSH1 0x2 PUSH0 SSTORE JUMP JUMPDEST PUSH1 0x1 DUP1 SLOAD PUSH1 0x1 PUSH1 0x1 PUSH1 0xA0 SHL SUB DUP4 DUP2 AND PUSH1 0x1 PUSH1 0x1 PUSH1 0xA0 SHL SUB NOT DUP4 AND DUP2 OR SWAP1 SWAP4 SSTORE PUSH1 0x40 MLOAD SWAP2 AND SWAP2 SWAP1 DUP3 SWAP1 PUSH32 0x8BE0079C531659141344CD1FD0A4F28419497F9722A3DAAFE3B4186F6B6457E0 SWAP1 PUSH0 SWAP1 LOG3 POP POP JUMP JUMPDEST PUSH0 DUP2 GT PUSH2 0x22BA JUMPI PUSH1 0x40 MLOAD PUSH3 0x461BCD PUSH1 0xE5 SHL DUP2 MSTORE PUSH1 0x4 ADD PUSH2 0x944 SWAP1 PUSH2 0x2A37 JUMP JUMPDEST PUSH1 0x1 PUSH1 0x1 PUSH1 0xA0 SHL SUB DUP3 AND PUSH0 SWAP1 DUP2 MSTORE PUSH1 0x9 PUSH1 0x20 MSTORE PUSH1 0x40 SWAP1 KECCAK256 SLOAD PUSH1 0xFF AND PUSH2 0x2315 JUMPI PUSH1 0x40 MLOAD PUSH3 0x461BCD PUSH1 0xE5 SHL DUP2 MSTORE PUSH1 0x20 PUSH1 0x4 DUP3 ADD MSTORE PUSH1 0x11 PUSH1 0x24 DUP3 ADD MSTORE PUSH17 0x151BDAD95B881B9BDD08185B1B1BDDD959 PUSH1 0x7A SHL PUSH1 0x44 DUP3 ADD MSTORE PUSH1 0x64 ADD PUSH2 0x944 JUMP JUMPDEST PUSH1 0x40 MLOAD PUSH4 0x31A9108F PUSH1 0xE1 SHL DUP2 MSTORE PUSH1 0x4 DUP2 ADD DUP5 SWAP1 MSTORE PUSH1 0x1 PUSH1 0x1 PUSH1 0xA0 SHL SUB DUP1 DUP8 AND SWAP2 SWAP1 DUP7 AND SWAP1 PUSH4 0x6352211E SWAP1 PUSH1 0x24 ADD PUSH1 0x20 PUSH1 0x40 MLOAD DUP1 DUP4 SUB DUP2 DUP7 GAS STATICCALL ISZERO DUP1 ISZERO PUSH2 0x235D JUMPI RETURNDATASIZE PUSH0 DUP1 RETURNDATACOPY RETURNDATASIZE PUSH0 REVERT JUMPDEST POP POP POP POP PUSH1 0x40 MLOAD RETURNDATASIZE PUSH1 0x1F NOT PUSH1 0x1F DUP3 ADD AND DUP3 ADD DUP1 PUSH1 0x40 MSTORE POP DUP2 ADD SWAP1 PUSH2 0x2381 SWAP2 SWAP1 PUSH2 0x291C JUMP JUMPDEST PUSH1 0x1 PUSH1 0x1 PUSH1 0xA0 SHL SUB AND EQ PUSH2 0x23C3 JUMPI PUSH1 0x40 MLOAD PUSH3 0x461BCD PUSH1 0xE5 SHL DUP2 MSTORE PUSH1 0x20 PUSH1 0x4 DUP3 ADD MSTORE PUSH1 0x9 PUSH1 0x24 DUP3 ADD MSTORE PUSH9 0x2737BA1037BBB732B9 PUSH1 0xB9 SHL PUSH1 0x44 DUP3 ADD MSTORE PUSH1 0x64 ADD PUSH2 0x944 JUMP JUMPDEST PUSH1 0x40 MLOAD PUSH4 0xE985E9C5 PUSH1 0xE0 SHL DUP2 MSTORE PUSH1 0x1 PUSH1 0x1 PUSH1 0xA0 SHL SUB DUP7 DUP2 AND PUSH1 0x4 DUP4 ADD MSTORE ADDRESS PUSH1 0x24 DUP4 ADD MSTORE DUP6 AND SWAP1 PUSH4 0xE985E9C5 SWAP1 PUSH1 0x44 ADD PUSH1 0x20 PUSH1 0x40 MLOAD DUP1 DUP4 SUB DUP2 DUP7 GAS STATICCALL ISZERO DUP1 ISZERO PUSH2 0x240D JUMPI RETURNDATASIZE PUSH0 DUP1 RETURNDATACOPY RETURNDATASIZE PUSH0 REVERT JUMPDEST POP POP POP POP PUSH1 0x40 MLOAD RETURNDATASIZE PUSH1 0x1F NOT PUSH1 0x1F DUP3 ADD AND DUP3 ADD DUP1 PUSH1 0x40 MSTORE POP DUP2 ADD SWAP1 PUSH2 0x2431 SWAP2 SWAP1 PUSH2 0x2A1C JUMP JUMPDEST PUSH2 0x244D JUMPI PUSH1 0x40 MLOAD PUSH3 0x461BCD PUSH1 0xE5 SHL DUP2 MSTORE PUSH1 0x4 ADD PUSH2 0x944 SWAP1 PUSH2 0x2A62 JUMP JUMPDEST PUSH0 PUSH1 0x3 PUSH0 DUP2 SLOAD PUSH2 0x245C SWAP1 PUSH2 0x2A99 JUMP JUMPDEST SWAP2 DUP3 SWAP1 SSTORE POP PUSH1 0x40 DUP1 MLOAD PUSH1 0xC0 DUP2 ADD DUP3 MSTORE PUSH1 0x1 PUSH1 0x1 PUSH1 0xA0 SHL SUB DUP1 DUP11 AND DUP1 DUP4 MSTORE DUP10 DUP3 AND PUSH1 0x20 DUP1 DUP6 ADD DUP3 DUP2 MSTORE DUP6 DUP8 ADD DUP13 DUP2 MSTORE DUP12 DUP7 AND PUSH1 0x60 DUP9 ADD SWAP1 DUP2 MSTORE PUSH1 0x80 DUP9 ADD DUP13 DUP2 MSTORE PUSH1 0x1 PUSH1 0xA0 DUP11 ADD DUP2 DUP2 MSTORE PUSH0 DUP14 DUP2 MSTORE PUSH1 0x2 DUP1 DUP10 MSTORE DUP14 DUP3 KECCAK256 SWAP13 MLOAD DUP14 SLOAD SWAP1 DUP14 AND PUSH1 0x1 PUSH1 0x1 PUSH1 0xA0 SHL SUB NOT SWAP2 DUP3 AND OR DUP15 SSTORE SWAP8 MLOAD SWAP4 DUP14 ADD DUP1 SLOAD SWAP5 DUP14 AND SWAP5 DUP10 AND SWAP5 SWAP1 SWAP5 OR SWAP1 SWAP4 SSTORE SWAP5 MLOAD SWAP2 DUP12 ADD SWAP2 SWAP1 SWAP2 SSTORE SWAP2 MLOAD PUSH1 0x3 DUP11 ADD DUP1 SLOAD SWAP2 SWAP1 SWAP10 AND SWAP5 AND SWAP4 SWAP1 SWAP4 OR SWAP1 SWAP7 SSTORE SWAP1 MLOAD PUSH1 0x4 DUP8 ADD SSTORE SWAP4 MLOAD PUSH1 0x5 SWAP1 SWAP6 ADD DUP1 SLOAD SWAP6 ISZERO ISZERO PUSH1 0xFF NOT SWAP1 SWAP7 AND SWAP6 SWAP1 SWAP6 OR SWAP1 SWAP5 SSTORE DUP1 DUP4 MSTORE PUSH1 0x6 DUP5 MSTORE DUP5 DUP4 KECCAK256 DUP11 DUP5 MSTORE SWAP1 SWAP4 MSTORE SWAP1 DUP4 SWAP1 KECCAK256 DUP5 SWAP1 SSTORE SWAP2 MLOAD SWAP3 SWAP4 POP SWAP2 DUP4 SWAP1 PUSH32 0xF270D40E4CE0790FE62574668B19EDBD345BDFC4B0E945ADA622C5FE65F3E0C4 SWAP1 PUSH2 0x2582 SWAP1 DUP10 SWAP1 DUP10 SWAP1 DUP10 SWAP1 SWAP3 DUP4 MSTORE PUSH1 0x1 PUSH1 0x1 PUSH1 0xA0 SHL SUB SWAP2 SWAP1 SWAP2 AND PUSH1 0x20 DUP4 ADD MSTORE PUSH1 0x40 DUP3 ADD MSTORE PUSH1 0x60 ADD SWAP1 JUMP JUMPDEST PUSH1 0x40 MLOAD DUP1 SWAP2 SUB SWAP1 LOG4 POP POP POP POP POP POP JUMP JUMPDEST PUSH0 PUSH1 0x20 DUP3 DUP5 SUB SLT ISZERO PUSH2 0x25A2 JUMPI PUSH0 DUP1 REVERT JUMPDEST POP CALLDATALOAD SWAP2 SWAP1 POP JUMP JUMPDEST PUSH1 0x1 PUSH1 0x1 PUSH1 0xA0 SHL SUB DUP2 AND DUP2 EQ PUSH2 0x9FD JUMPI PUSH0 DUP1 REVERT JUMPDEST PUSH4 0x4E487B71 PUSH1 0xE0 SHL PUSH0 MSTORE PUSH1 0x41 PUSH1 0x4 MSTORE PUSH1 0x24 PUSH0 REVERT JUMPDEST PUSH0 DUP1 PUSH0 DUP1 PUSH1 0x80 DUP6 DUP8 SUB SLT ISZERO PUSH2 0x25E4 JUMPI PUSH0 DUP1 REVERT JUMPDEST DUP5 CALLDATALOAD PUSH2 0x25EF DUP2 PUSH2 0x25A9 JUMP JUMPDEST SWAP4 POP PUSH1 0x20 DUP6 ADD CALLDATALOAD PUSH2 0x25FF DUP2 PUSH2 0x25A9 JUMP JUMPDEST SWAP3 POP PUSH1 0x40 DUP6 ADD CALLDATALOAD SWAP2 POP PUSH1 0x60 DUP6 ADD CALLDATALOAD PUSH8 0xFFFFFFFFFFFFFFFF DUP1 DUP3 GT ISZERO PUSH2 0x2622 JUMPI PUSH0 DUP1 REVERT JUMPDEST DUP2 DUP8 ADD SWAP2 POP DUP8 PUSH1 0x1F DUP4 ADD SLT PUSH2 0x2635 JUMPI PUSH0 DUP1 REVERT JUMPDEST DUP2 CALLDATALOAD DUP2 DUP2 GT ISZERO PUSH2 0x2647 JUMPI PUSH2 0x2647 PUSH2 0x25BD JUMP JUMPDEST PUSH1 0x40 MLOAD PUSH1 0x1F DUP3 ADD PUSH1 0x1F NOT SWAP1 DUP2 AND PUSH1 0x3F ADD AND DUP2 ADD SWAP1 DUP4 DUP3 GT DUP2 DUP4 LT OR ISZERO PUSH2 0x266F JUMPI PUSH2 0x266F PUSH2 0x25BD JUMP JUMPDEST DUP2 PUSH1 0x40 MSTORE DUP3 DUP2 MSTORE DUP11 PUSH1 0x20 DUP5 DUP8 ADD ADD GT ISZERO PUSH2 0x2687 JUMPI PUSH0 DUP1 REVERT JUMPDEST DUP3 PUSH1 0x20 DUP7 ADD PUSH1 0x20 DUP4 ADD CALLDATACOPY PUSH0 PUSH1 0x20 DUP5 DUP4 ADD ADD MSTORE DUP1 SWAP6 POP POP POP POP POP POP SWAP3 SWAP6 SWAP2 SWAP5 POP SWAP3 POP JUMP JUMPDEST DUP1 ISZERO ISZERO DUP2 EQ PUSH2 0x9FD JUMPI PUSH0 DUP1 REVERT JUMPDEST PUSH0 DUP1 PUSH1 0x40 DUP4 DUP6 SUB SLT ISZERO PUSH2 0x26C8 JUMPI PUSH0 DUP1 REVERT JUMPDEST DUP3 CALLDATALOAD PUSH2 0x26D3 DUP2 PUSH2 0x25A9 JUMP JUMPDEST SWAP2 POP PUSH1 0x20 DUP4 ADD CALLDATALOAD PUSH2 0x26E3 DUP2 PUSH2 0x26AA JUMP JUMPDEST DUP1 SWAP2 POP POP SWAP3 POP SWAP3 SWAP1 POP JUMP JUMPDEST PUSH0 DUP1 PUSH1 0x40 DUP4 DUP6 SUB SLT ISZERO PUSH2 0x26FF JUMPI PUSH0 DUP1 REVERT JUMPDEST DUP3 CALLDATALOAD PUSH2 0x270A DUP2 PUSH2 0x25A9 JUMP JUMPDEST SWAP5 PUSH1 0x20 SWAP4 SWAP1 SWAP4 ADD CALLDATALOAD SWAP4 POP POP POP JUMP JUMPDEST PUSH0 PUSH1 0x20 DUP3 DUP5 SUB SLT ISZERO PUSH2 0x2728 JUMPI PUSH0 DUP1 REVERT JUMPDEST DUP2 CALLDATALOAD PUSH2 0x2733 DUP2 PUSH2 0x25A9 JUMP JUMPDEST SWAP4 SWAP3 POP POP POP JUMP JUMPDEST PUSH0 DUP1 PUSH0 DUP1 PUSH1 0x80 DUP6 DUP8 SUB SLT ISZERO PUSH2 0x274D JUMPI PUSH0 DUP1 REVERT JUMPDEST DUP5 CALLDATALOAD PUSH2 0x2758 DUP2 PUSH2 0x25A9 JUMP JUMPDEST SWAP4 POP PUSH1 0x20 DUP6 ADD CALLDATALOAD SWAP3 POP PUSH1 0x40 DUP6 ADD CALLDATALOAD PUSH2 0x276F DUP2 PUSH2 0x25A9 JUMP JUMPDEST SWAP4 SWAP7 SWAP3 SWAP6 POP SWAP3 SWAP4 PUSH1 0x60 ADD CALLDATALOAD SWAP3 POP POP JUMP JUMPDEST PUSH0 DUP1 PUSH1 0x40 DUP4 DUP6 SUB SLT ISZERO PUSH2 0x2790 JUMPI PUSH0 DUP1 REVERT JUMPDEST POP POP DUP1 CALLDATALOAD SWAP3 PUSH1 0x20 SWAP1 SWAP2 ADD CALLDATALOAD SWAP2 POP JUMP JUMPDEST PUSH0 DUP1 PUSH0 DUP1 PUSH0 PUSH1 0xA0 DUP7 DUP9 SUB SLT ISZERO PUSH2 0x27B3 JUMPI PUSH0 DUP1 REVERT JUMPDEST DUP6 CALLDATALOAD PUSH2 0x27BE DUP2 PUSH2 0x25A9 JUMP JUMPDEST SWAP5 POP PUSH1 0x20 DUP7 ADD CALLDATALOAD SWAP4 POP PUSH1 0x40 DUP7 ADD CALLDATALOAD PUSH2 0x27D5 DUP2 PUSH2 0x25A9 JUMP JUMPDEST SWAP5 SWAP8 SWAP4 SWAP7 POP SWAP4 SWAP5 PUSH1 0x60 DUP2 ADD CALLDATALOAD SWAP5 POP PUSH1 0x80 ADD CALLDATALOAD SWAP3 SWAP2 POP POP JUMP JUMPDEST PUSH0 DUP1 DUP4 PUSH1 0x1F DUP5 ADD SLT PUSH2 0x27FD JUMPI PUSH0 DUP1 REVERT JUMPDEST POP DUP2 CALLDATALOAD PUSH8 0xFFFFFFFFFFFFFFFF DUP2 GT ISZERO PUSH2 0x2814 JUMPI PUSH0 DUP1 REVERT JUMPDEST PUSH1 0x20 DUP4 ADD SWAP2 POP DUP4 PUSH1 0x20 DUP3 PUSH1 0x5 SHL DUP6 ADD ADD GT ISZERO PUSH2 0x282E JUMPI PUSH0 DUP1 REVERT JUMPDEST SWAP3 POP SWAP3 SWAP1 POP JUMP JUMPDEST PUSH0 DUP1 PUSH0 DUP1 PUSH0 DUP1 PUSH0 DUP1 PUSH1 0x80 DUP10 DUP12 SUB SLT ISZERO PUSH2 0x284C JUMPI PUSH0 DUP1 REVERT JUMPDEST DUP9 CALLDATALOAD PUSH8 0xFFFFFFFFFFFFFFFF DUP1 DUP3 GT ISZERO PUSH2 0x2863 JUMPI PUSH0 DUP1 REVERT JUMPDEST PUSH2 0x286F DUP13 DUP4 DUP14 ADD PUSH2 0x27ED JUMP JUMPDEST SWAP1 SWAP11 POP SWAP9 POP PUSH1 0x20 DUP12 ADD CALLDATALOAD SWAP2 POP DUP1 DUP3 GT ISZERO PUSH2 0x2887 JUMPI PUSH0 DUP1 REVERT JUMPDEST PUSH2 0x2893 DUP13 DUP4 DUP14 ADD PUSH2 0x27ED JUMP JUMPDEST SWAP1 SWAP9 POP SWAP7 POP PUSH1 0x40 DUP12 ADD CALLDATALOAD SWAP2 POP DUP1 DUP3 GT ISZERO PUSH2 0x28AB JUMPI PUSH0 DUP1 REVERT JUMPDEST PUSH2 0x28B7 DUP13 DUP4 DUP14 ADD PUSH2 0x27ED JUMP JUMPDEST SWAP1 SWAP7 POP SWAP5 POP PUSH1 0x60 DUP12 ADD CALLDATALOAD SWAP2 POP DUP1 DUP3 GT ISZERO PUSH2 0x28CF JUMPI PUSH0 DUP1 REVERT JUMPDEST POP PUSH2 0x28DC DUP12 DUP3 DUP13 ADD PUSH2 0x27ED JUMP JUMPDEST SWAP10 SWAP13 SWAP9 SWAP12 POP SWAP7 SWAP10 POP SWAP5 SWAP8 SWAP4 SWAP7 SWAP3 SWAP6 SWAP5 POP POP POP JUMP JUMPDEST PUSH1 0x20 DUP1 DUP3 MSTORE PUSH1 0x12 SWAP1 DUP3 ADD MSTORE PUSH18 0x4C697374696E67206E6F7420616374697665 PUSH1 0x70 SHL PUSH1 0x40 DUP3 ADD MSTORE PUSH1 0x60 ADD SWAP1 JUMP JUMPDEST PUSH0 PUSH1 0x20 DUP3 DUP5 SUB SLT ISZERO PUSH2 0x292C JUMPI PUSH0 DUP1 REVERT JUMPDEST DUP2 MLOAD PUSH2 0x2733 DUP2 PUSH2 0x25A9 JUMP JUMPDEST PUSH4 0x4E487B71 PUSH1 0xE0 SHL PUSH0 MSTORE PUSH1 0x11 PUSH1 0x4 MSTORE PUSH1 0x24 PUSH0 REVERT JUMPDEST DUP1 DUP3 MUL DUP2 ISZERO DUP3 DUP3 DIV DUP5 EQ OR PUSH2 0x8FD JUMPI PUSH2 0x8FD PUSH2 0x2937 JUMP JUMPDEST PUSH0 DUP3 PUSH2 0x297C JUMPI PUSH4 0x4E487B71 PUSH1 0xE0 SHL PUSH0 MSTORE PUSH1 0x12 PUSH1 0x4 MSTORE PUSH1 0x24 PUSH0 REVERT JUMPDEST POP DIV SWAP1 JUMP JUMPDEST DUP2 DUP2 SUB DUP2 DUP2 GT ISZERO PUSH2 0x8FD JUMPI PUSH2 0x8FD PUSH2 0x2937 JUMP JUMPDEST PUSH1 0x20 DUP1 DUP3 MSTORE PUSH1 0x19 SWAP1 DUP3 ADD MSTORE PUSH32 0x5472616E7366657220746F2073656C6C6572206661696C656400000000000000 PUSH1 0x40 DUP3 ADD MSTORE PUSH1 0x60 ADD SWAP1 JUMP JUMPDEST PUSH1 0x20 DUP1 DUP3 MSTORE PUSH1 0x13 SWAP1 DUP3 ADD MSTORE PUSH19 0x119959481D1C985B9CD9995C8819985A5B1959 PUSH1 0x6A SHL PUSH1 0x40 DUP3 ADD MSTORE PUSH1 0x60 ADD SWAP1 JUMP JUMPDEST PUSH1 0x1 PUSH1 0x1 PUSH1 0xA0 SHL SUB SWAP4 DUP5 AND DUP2 MSTORE SWAP2 SWAP1 SWAP3 AND PUSH1 0x20 DUP3 ADD MSTORE PUSH1 0x40 DUP2 ADD SWAP2 SWAP1 SWAP2 MSTORE PUSH1 0x60 ADD SWAP1 JUMP JUMPDEST PUSH0 PUSH1 0x20 DUP3 DUP5 SUB SLT ISZERO PUSH2 0x2A2C JUMPI PUSH0 DUP1 REVERT JUMPDEST DUP2 MLOAD PUSH2 0x2733 DUP2 PUSH2 0x26AA JUMP JUMPDEST PUSH1 0x20 DUP1 DUP3 MSTORE PUSH1 0x11 SWAP1 DUP3 ADD MSTORE PUSH17 0x5072696365206D757374206265203E203 PUSH1 0x7C SHL PUSH1 0x40 DUP3 ADD MSTORE PUSH1 0x60 ADD SWAP1 JUMP JUMPDEST PUSH1 0x20 DUP1 DUP3 MSTORE PUSH1 0x18 SWAP1 DUP3 ADD MSTORE PUSH32 0x4D61726B6574706C616365206E6F7420617070726F7665640000000000000000 PUSH1 0x40 DUP3 ADD MSTORE PUSH1 0x60 ADD SWAP1 JUMP JUMPDEST PUSH0 PUSH1 0x1 DUP3 ADD PUSH2 0x2AAA JUMPI PUSH2 0x2AAA PUSH2 0x2937 JUMP JUMPDEST POP PUSH1 0x1 ADD SWAP1 JUMP JUMPDEST PUSH0 PUSH1 0x20 DUP3 DUP5 SUB SLT ISZERO PUSH2 0x2AC1 JUMPI PUSH0 DUP1 REVERT JUMPDEST POP MLOAD SWAP2 SWAP1 POP JUMP JUMPDEST DUP1 DUP3 ADD DUP1 DUP3 GT ISZERO PUSH2 0x8FD JUMPI PUSH2 0x8FD PUSH2 0x2937 JUMP JUMPDEST PUSH4 0x4E487B71 PUSH1 0xE0 SHL PUSH0 MSTORE PUSH1 0x32 PUSH1 0x4 MSTORE PUSH1 0x24 PUSH0 REVERT INVALID LOG2 PUSH5 0x6970667358 0x22 SLT KECCAK256 0xBD CALLDATALOAD PUSH20 0xBB44325C8D9C4D4D94C80730B5C8AD73DFD0AEC0 0xBF PUSH32 0x163FD084198D5E64736F6C634300081900330000000000000000000000000000 "
				},
				"gasEstimates": {
					"creation": {
						"codeDepositCost": "2209000",
						"executionCost": "infinite",
						"totalCost": "infinite"
					},
					"external": {
						"FEE_DENOMINATOR()": "261",
						"acceptOffer(uint256)": "infinite",
						"allowedPaymentTokens(address)": "2612",
						"batchListNFTs(address[],uint256[],address[],uint256[])": "infinite",
						"buyListing(uint256)": "infinite",
						"cancelListing(uint256)": "87906",
						"cancelOffer(uint256)": "76366",
						"createListing(address,uint256,address,uint256)": "infinite",
						"createOffer(address,uint256,address,uint256,uint256)": "infinite",
						"feePercent()": "2405",
						"feeRecipient()": "2448",
						"getListing(uint256)": "13577",
						"getListingByToken(address,uint256)": "2690",
						"getOffer(uint256)": "15796",
						"isListed(address,uint256)": "4972",
						"listings(uint256)": "13285",
						"nextListingId()": "2384",
						"nextOfferId()": "2362",
						"offers(uint256)": "15381",
						"onERC721Received(address,address,uint256,bytes)": "infinite",
						"owner()": "2398",
						"renounceOwnership()": "infinite",
						"setAllowedPaymentToken(address,bool)": "infinite",
						"setFeePercent(uint256)": "25667",
						"setFeeRecipient(address)": "27871",
						"tokenToListing(address,uint256)": "2648",
						"transferOwnership(address)": "infinite",
						"updateListingPrice(uint256,uint256)": "76759"
					},
					"internal": {
						"_createListing(address,address,uint256,address,uint256)": "infinite"
					}
				},
				"methodIdentifiers": {
					"FEE_DENOMINATOR()": "d73792a9",
					"acceptOffer(uint256)": "c815729d",
					"allowedPaymentTokens(address)": "697d312a",
					"batchListNFTs(address[],uint256[],address[],uint256[])": "f6eb46ac",
					"buyListing(uint256)": "4884f459",
					"cancelListing(uint256)": "305a67a8",
					"cancelOffer(uint256)": "ef706adf",
					"createListing(address,uint256,address,uint256)": "b4a15355",
					"createOffer(address,uint256,address,uint256,uint256)": "d14027d4",
					"feePercent()": "7fd6f15c",
					"feeRecipient()": "46904840",
					"getListing(uint256)": "107a274a",
					"getListingByToken(address,uint256)": "248d9aa3",
					"getOffer(uint256)": "4579268a",
					"isListed(address,uint256)": "cdb3cd25",
					"listings(uint256)": "de74e57b",
					"nextListingId()": "aaccf1ec",
					"nextOfferId()": "5f5d0655",
					"offers(uint256)": "8a72ea6a",
					"onERC721Received(address,address,uint256,bytes)": "150b7a02",
					"owner()": "8da5cb5b",
					"renounceOwnership()": "715018a6",
					"setAllowedPaymentToken(address,bool)": "1d3c6674",
					"setFeePercent(uint256)": "7ce3489b",
					"setFeeRecipient(address)": "e74b981b",
					"tokenToListing(address,uint256)": "6f7b4352",
					"transferOwnership(address)": "f2fde38b",
					"updateListingPrice(uint256,uint256)": "c4604943"
				}
			},
			"storageLayout": {
				"storage": [
					{
						"astId": 158,
						"contract": "BidMarketplace.sol:PackripprMarketplace",
						"label": "_status",
						"offset": 0,
						"slot": "0",
						"type": "t_uint256"
					},
					{
						"astId": 8,
						"contract": "BidMarketplace.sol:PackripprMarketplace",
						"label": "_owner",
						"offset": 0,
						"slot": "1",
						"type": "t_address"
					},
					{
						"astId": 493,
						"contract": "BidMarketplace.sol:PackripprMarketplace",
						"label": "listings",
						"offset": 0,
						"slot": "2",
						"type": "t_mapping(t_uint256,t_struct(Listing)473_storage)"
					},
					{
						"astId": 495,
						"contract": "BidMarketplace.sol:PackripprMarketplace",
						"label": "nextListingId",
						"offset": 0,
						"slot": "3",
						"type": "t_uint256"
					},
					{
						"astId": 500,
						"contract": "BidMarketplace.sol:PackripprMarketplace",
						"label": "offers",
						"offset": 0,
						"slot": "4",
						"type": "t_mapping(t_uint256,t_struct(Offer)488_storage)"
					},
					{
						"astId": 502,
						"contract": "BidMarketplace.sol:PackripprMarketplace",
						"label": "nextOfferId",
						"offset": 0,
						"slot": "5",
						"type": "t_uint256"
					},
					{
						"astId": 508,
						"contract": "BidMarketplace.sol:PackripprMarketplace",
						"label": "tokenToListing",
						"offset": 0,
						"slot": "6",
						"type": "t_mapping(t_address,t_mapping(t_uint256,t_uint256))"
					},
					{
						"astId": 511,
						"contract": "BidMarketplace.sol:PackripprMarketplace",
						"label": "feePercent",
						"offset": 0,
						"slot": "7",
						"type": "t_uint256"
					},
					{
						"astId": 516,
						"contract": "BidMarketplace.sol:PackripprMarketplace",
						"label": "feeRecipient",
						"offset": 0,
						"slot": "8",
						"type": "t_address"
					},
					{
						"astId": 520,
						"contract": "BidMarketplace.sol:PackripprMarketplace",
						"label": "allowedPaymentTokens",
						"offset": 0,
						"slot": "9",
						"type": "t_mapping(t_address,t_bool)"
					}
				],
				"types": {
					"t_address": {
						"encoding": "inplace",
						"label": "address",
						"numberOfBytes": "20"
					},
					"t_bool": {
						"encoding": "inplace",
						"label": "bool",
						"numberOfBytes": "1"
					},
					"t_mapping(t_address,t_bool)": {
						"encoding": "mapping",
						"key": "t_address",
						"label": "mapping(address => bool)",
						"numberOfBytes": "32",
						"value": "t_bool"
					},
					"t_mapping(t_address,t_mapping(t_uint256,t_uint256))": {
						"encoding": "mapping",
						"key": "t_address",
						"label": "mapping(address => mapping(uint256 => uint256))",
						"numberOfBytes": "32",
						"value": "t_mapping(t_uint256,t_uint256)"
					},
					"t_mapping(t_uint256,t_struct(Listing)473_storage)": {
						"encoding": "mapping",
						"key": "t_uint256",
						"label": "mapping(uint256 => struct PackripprMarketplace.Listing)",
						"numberOfBytes": "32",
						"value": "t_struct(Listing)473_storage"
					},
					"t_mapping(t_uint256,t_struct(Offer)488_storage)": {
						"encoding": "mapping",
						"key": "t_uint256",
						"label": "mapping(uint256 => struct PackripprMarketplace.Offer)",
						"numberOfBytes": "32",
						"value": "t_struct(Offer)488_storage"
					},
					"t_mapping(t_uint256,t_uint256)": {
						"encoding": "mapping",
						"key": "t_uint256",
						"label": "mapping(uint256 => uint256)",
						"numberOfBytes": "32",
						"value": "t_uint256"
					},
					"t_struct(Listing)473_storage": {
						"encoding": "inplace",
						"label": "struct PackripprMarketplace.Listing",
						"members": [
							{
								"astId": 462,
								"contract": "BidMarketplace.sol:PackripprMarketplace",
								"label": "seller",
								"offset": 0,
								"slot": "0",
								"type": "t_address"
							},
							{
								"astId": 464,
								"contract": "BidMarketplace.sol:PackripprMarketplace",
								"label": "nftContract",
								"offset": 0,
								"slot": "1",
								"type": "t_address"
							},
							{
								"astId": 466,
								"contract": "BidMarketplace.sol:PackripprMarketplace",
								"label": "tokenId",
								"offset": 0,
								"slot": "2",
								"type": "t_uint256"
							},
							{
								"astId": 468,
								"contract": "BidMarketplace.sol:PackripprMarketplace",
								"label": "paymentToken",
								"offset": 0,
								"slot": "3",
								"type": "t_address"
							},
							{
								"astId": 470,
								"contract": "BidMarketplace.sol:PackripprMarketplace",
								"label": "price",
								"offset": 0,
								"slot": "4",
								"type": "t_uint256"
							},
							{
								"astId": 472,
								"contract": "BidMarketplace.sol:PackripprMarketplace",
								"label": "active",
								"offset": 0,
								"slot": "5",
								"type": "t_bool"
							}
						],
						"numberOfBytes": "192"
					},
					"t_struct(Offer)488_storage": {
						"encoding": "inplace",
						"label": "struct PackripprMarketplace.Offer",
						"members": [
							{
								"astId": 475,
								"contract": "BidMarketplace.sol:PackripprMarketplace",
								"label": "buyer",
								"offset": 0,
								"slot": "0",
								"type": "t_address"
							},
							{
								"astId": 477,
								"contract": "BidMarketplace.sol:PackripprMarketplace",
								"label": "nftContract",
								"offset": 0,
								"slot": "1",
								"type": "t_address"
							},
							{
								"astId": 479,
								"contract": "BidMarketplace.sol:PackripprMarketplace",
								"label": "tokenId",
								"offset": 0,
								"slot": "2",
								"type": "t_uint256"
							},
							{
								"astId": 481,
								"contract": "BidMarketplace.sol:PackripprMarketplace",
								"label": "paymentToken",
								"offset": 0,
								"slot": "3",
								"type": "t_address"
							},
							{
								"astId": 483,
								"contract": "BidMarketplace.sol:PackripprMarketplace",
								"label": "price",
								"offset": 0,
								"slot": "4",
								"type": "t_uint256"
							},
							{
								"astId": 485,
								"contract": "BidMarketplace.sol:PackripprMarketplace",
								"label": "expiresAt",
								"offset": 0,
								"slot": "5",
								"type": "t_uint256"
							},
							{
								"astId": 487,
								"contract": "BidMarketplace.sol:PackripprMarketplace",
								"label": "active",
								"offset": 0,
								"slot": "6",
								"type": "t_bool"
							}
						],
						"numberOfBytes": "224"
					},
					"t_uint256": {
						"encoding": "inplace",
						"label": "uint256",
						"numberOfBytes": "32"
					}
				}
			},
			"userdoc": {
				"kind": "user",
				"methods": {
					"acceptOffer(uint256)": {
						"notice": "Accept an offer (seller accepts buyer's offer)"
					},
					"batchListNFTs(address[],uint256[],address[],uint256[])": {
						"notice": "Admin function to list multiple items (e.g., after a new pack drop)"
					},
					"buyListing(uint256)": {
						"notice": "Buy a listed NFT"
					},
					"cancelListing(uint256)": {
						"notice": "Cancel a listing"
					},
					"cancelOffer(uint256)": {
						"notice": "Cancel an offer"
					},
					"createListing(address,uint256,address,uint256)": {
						"notice": "Create a new listing for an NFT"
					},
					"createOffer(address,uint256,address,uint256,uint256)": {
						"notice": "Create an offer for an NFT"
					},
					"getListing(uint256)": {
						"notice": "Get listing details"
					},
					"getListingByToken(address,uint256)": {
						"notice": "Get listing ID for a token"
					},
					"getOffer(uint256)": {
						"notice": "Get offer details"
					},
					"isListed(address,uint256)": {
						"notice": "Check if a token is currently listed"
					},
					"setAllowedPaymentToken(address,bool)": {
						"notice": "Set whether a payment token is allowed"
					},
					"setFeePercent(uint256)": {
						"notice": "Update marketplace fee percentage"
					},
					"setFeeRecipient(address)": {
						"notice": "Update fee recipient address"
					},
					"updateListingPrice(uint256,uint256)": {
						"notice": "Update listing price"
					}
				},
				"notice": "Simple marketplace for in-game NFT trading with offers support",
				"version": 1
			}
		}
	}
}