{
	"BidMarketplace.sol": {
		"GameMarketplace": {
			"abi": [
				{
					"inputs": [
						{
							"internalType": "address",
							"name": "_feeRecipient",
							"type": "address"
						},
						{
							"internalType": "address",
							"name": "_initialOwner",
							"type": "address"
						}
					],
					"stateMutability": "nonpayable",
					"type": "constructor"
				},
				{
					"inputs": [
						{
							"internalType": "address",
							"name": "owner",
							"type": "address"
						}
					],
					"name": "OwnableInvalidOwner",
					"type": "error"
				},
				{
					"inputs": [
						{
							"internalType": "address",
							"name": "account",
							"type": "address"
						}
					],
					"name": "OwnableUnauthorizedAccount",
					"type": "error"
				},
				{
					"anonymous": false,
					"inputs": [
						{
							"indexed": false,
							"internalType": "uint256",
							"name": "newFeePercent",
							"type": "uint256"
						}
					],
					"name": "FeePercentUpdated",
					"type": "event"
				},
				{
					"anonymous": false,
					"inputs": [
						{
							"indexed": false,
							"internalType": "address",
							"name": "newFeeRecipient",
							"type": "address"
						}
					],
					"name": "FeeRecipientUpdated",
					"type": "event"
				},
				{
					"anonymous": false,
					"inputs": [
						{
							"indexed": true,
							"internalType": "uint256",
							"name": "listingId",
							"type": "uint256"
						},
						{
							"indexed": true,
							"internalType": "address",
							"name": "seller",
							"type": "address"
						},
						{
							"indexed": true,
							"internalType": "address",
							"name": "nftContract",
							"type": "address"
						},
						{
							"indexed": false,
							"internalType": "uint256",
							"name": "tokenId",
							"type": "uint256"
						},
						{
							"indexed": false,
							"internalType": "address",
							"name": "paymentToken",
							"type": "address"
						},
						{
							"indexed": false,
							"internalType": "uint256",
							"name": "price",
							"type": "uint256"
						}
					],
					"name": "Listed",
					"type": "event"
				},
				{
					"anonymous": false,
					"inputs": [
						{
							"indexed": true,
							"internalType": "uint256",
							"name": "listingId",
							"type": "uint256"
						}
					],
					"name": "ListingCancelled",
					"type": "event"
				},
				{
					"anonymous": false,
					"inputs": [
						{
							"indexed": true,
							"internalType": "uint256",
							"name": "listingId",
							"type": "uint256"
						},
						{
							"indexed": false,
							"internalType": "uint256",
							"name": "newPrice",
							"type": "uint256"
						}
					],
					"name": "ListingUpdated",
					"type": "event"
				},
				{
					"anonymous": false,
					"inputs": [
						{
							"indexed": true,
							"internalType": "uint256",
							"name": "offerId",
							"type": "uint256"
						},
						{
							"indexed": true,
							"internalType": "address",
							"name": "seller",
							"type": "address"
						},
						{
							"indexed": true,
							"internalType": "address",
							"name": "buyer",
							"type": "address"
						},
						{
							"indexed": false,
							"internalType": "address",
							"name": "nftContract",
							"type": "address"
						},
						{
							"indexed": false,
							"internalType": "uint256",
							"name": "tokenId",
							"type": "uint256"
						},
						{
							"indexed": false,
							"internalType": "uint256",
							"name": "price",
							"type": "uint256"
						}
					],
					"name": "OfferAccepted",
					"type": "event"
				},
				{
					"anonymous": false,
					"inputs": [
						{
							"indexed": true,
							"internalType": "uint256",
							"name": "offerId",
							"type": "uint256"
						}
					],
					"name": "OfferCancelled",
					"type": "event"
				},
				{
					"anonymous": false,
					"inputs": [
						{
							"indexed": true,
							"internalType": "uint256",
							"name": "offerId",
							"type": "uint256"
						},
						{
							"indexed": true,
							"internalType": "address",
							"name": "buyer",
							"type": "address"
						},
						{
							"indexed": true,
							"internalType": "address",
							"name": "nftContract",
							"type": "address"
						},
						{
							"indexed": false,
							"internalType": "uint256",
							"name": "tokenId",
							"type": "uint256"
						},
						{
							"indexed": false,
							"internalType": "address",
							"name": "paymentToken",
							"type": "address"
						},
						{
							"indexed": false,
							"internalType": "uint256",
							"name": "price",
							"type": "uint256"
						},
						{
							"indexed": false,
							"internalType": "uint256",
							"name": "expiresAt",
							"type": "uint256"
						}
					],
					"name": "OfferCreated",
					"type": "event"
				},
				{
					"anonymous": false,
					"inputs": [
						{
							"indexed": true,
							"internalType": "address",
							"name": "previousOwner",
							"type": "address"
						},
						{
							"indexed": true,
							"internalType": "address",
							"name": "newOwner",
							"type": "address"
						}
					],
					"name": "OwnershipTransferred",
					"type": "event"
				},
				{
					"anonymous": false,
					"inputs": [
						{
							"indexed": false,
							"internalType": "address",
							"name": "token",
							"type": "address"
						},
						{
							"indexed": false,
							"internalType": "bool",
							"name": "allowed",
							"type": "bool"
						}
					],
					"name": "PaymentTokenUpdated",
					"type": "event"
				},
				{
					"anonymous": false,
					"inputs": [
						{
							"indexed": true,
							"internalType": "uint256",
							"name": "listingId",
							"type": "uint256"
						},
						{
							"indexed": true,
							"internalType": "address",
							"name": "buyer",
							"type": "address"
						},
						{
							"indexed": true,
							"internalType": "address",
							"name": "seller",
							"type": "address"
						},
						{
							"indexed": false,
							"internalType": "address",
							"name": "nftContract",
							"type": "address"
						},
						{
							"indexed": false,
							"internalType": "uint256",
							"name": "tokenId",
							"type": "uint256"
						},
						{
							"indexed": false,
							"internalType": "uint256",
							"name": "price",
							"type": "uint256"
						}
					],
					"name": "Sold",
					"type": "event"
				},
				{
					"inputs": [],
					"name": "FEE_DENOMINATOR",
					"outputs": [
						{
							"internalType": "uint256",
							"name": "",
							"type": "uint256"
						}
					],
					"stateMutability": "view",
					"type": "function"
				},
				{
					"inputs": [
						{
							"internalType": "uint256",
							"name": "offerId",
							"type": "uint256"
						}
					],
					"name": "acceptOffer",
					"outputs": [],
					"stateMutability": "nonpayable",
					"type": "function"
				},
				{
					"inputs": [
						{
							"internalType": "address",
							"name": "",
							"type": "address"
						}
					],
					"name": "allowedPaymentTokens",
					"outputs": [
						{
							"internalType": "bool",
							"name": "",
							"type": "bool"
						}
					],
					"stateMutability": "view",
					"type": "function"
				},
				{
					"inputs": [
						{
							"internalType": "uint256",
							"name": "listingId",
							"type": "uint256"
						}
					],
					"name": "buyListing",
					"outputs": [],
					"stateMutability": "payable",
					"type": "function"
				},
				{
					"inputs": [
						{
							"internalType": "uint256",
							"name": "listingId",
							"type": "uint256"
						}
					],
					"name": "cancelListing",
					"outputs": [],
					"stateMutability": "nonpayable",
					"type": "function"
				},
				{
					"inputs": [
						{
							"internalType": "uint256",
							"name": "offerId",
							"type": "uint256"
						}
					],
					"name": "cancelOffer",
					"outputs": [],
					"stateMutability": "nonpayable",
					"type": "function"
				},
				{
					"inputs": [
						{
							"internalType": "address",
							"name": "nftContract",
							"type": "address"
						},
						{
							"internalType": "uint256",
							"name": "tokenId",
							"type": "uint256"
						},
						{
							"internalType": "address",
							"name": "paymentToken",
							"type": "address"
						},
						{
							"internalType": "uint256",
							"name": "price",
							"type": "uint256"
						}
					],
					"name": "createListing",
					"outputs": [
						{
							"internalType": "uint256",
							"name": "",
							"type": "uint256"
						}
					],
					"stateMutability": "nonpayable",
					"type": "function"
				},
				{
					"inputs": [
						{
							"internalType": "address",
							"name": "nftContract",
							"type": "address"
						},
						{
							"internalType": "uint256",
							"name": "tokenId",
							"type": "uint256"
						},
						{
							"internalType": "address",
							"name": "paymentToken",
							"type": "address"
						},
						{
							"internalType": "uint256",
							"name": "price",
							"type": "uint256"
						},
						{
							"internalType": "uint256",
							"name": "duration",
							"type": "uint256"
						}
					],
					"name": "createOffer",
					"outputs": [
						{
							"internalType": "uint256",
							"name": "",
							"type": "uint256"
						}
					],
					"stateMutability": "nonpayable",
					"type": "function"
				},
				{
					"inputs": [],
					"name": "feePercent",
					"outputs": [
						{
							"internalType": "uint256",
							"name": "",
							"type": "uint256"
						}
					],
					"stateMutability": "view",
					"type": "function"
				},
				{
					"inputs": [],
					"name": "feeRecipient",
					"outputs": [
						{
							"internalType": "address",
							"name": "",
							"type": "address"
						}
					],
					"stateMutability": "view",
					"type": "function"
				},
				{
					"inputs": [
						{
							"internalType": "uint256",
							"name": "listingId",
							"type": "uint256"
						}
					],
					"name": "getListing",
					"outputs": [
						{
							"components": [
								{
									"internalType": "address",
									"name": "seller",
									"type": "address"
								},
								{
									"internalType": "address",
									"name": "nftContract",
									"type": "address"
								},
								{
									"internalType": "uint256",
									"name": "tokenId",
									"type": "uint256"
								},
								{
									"internalType": "address",
									"name": "paymentToken",
									"type": "address"
								},
								{
									"internalType": "uint256",
									"name": "price",
									"type": "uint256"
								},
								{
									"internalType": "bool",
									"name": "active",
									"type": "bool"
								}
							],
							"internalType": "struct GameMarketplace.Listing",
							"name": "",
							"type": "tuple"
						}
					],
					"stateMutability": "view",
					"type": "function"
				},
				{
					"inputs": [
						{
							"internalType": "address",
							"name": "nftContract",
							"type": "address"
						},
						{
							"internalType": "uint256",
							"name": "tokenId",
							"type": "uint256"
						}
					],
					"name": "getListingByToken",
					"outputs": [
						{
							"internalType": "uint256",
							"name": "",
							"type": "uint256"
						}
					],
					"stateMutability": "view",
					"type": "function"
				},
				{
					"inputs": [
						{
							"internalType": "uint256",
							"name": "offerId",
							"type": "uint256"
						}
					],
					"name": "getOffer",
					"outputs": [
						{
							"components": [
								{
									"internalType": "address",
									"name": "buyer",
									"type": "address"
								},
								{
									"internalType": "address",
									"name": "nftContract",
									"type": "address"
								},
								{
									"internalType": "uint256",
									"name": "tokenId",
									"type": "uint256"
								},
								{
									"internalType": "address",
									"name": "paymentToken",
									"type": "address"
								},
								{
									"internalType": "uint256",
									"name": "price",
									"type": "uint256"
								},
								{
									"internalType": "uint256",
									"name": "expiresAt",
									"type": "uint256"
								},
								{
									"internalType": "bool",
									"name": "active",
									"type": "bool"
								}
							],
							"internalType": "struct GameMarketplace.Offer",
							"name": "",
							"type": "tuple"
						}
					],
					"stateMutability": "view",
					"type": "function"
				},
				{
					"inputs": [
						{
							"internalType": "address",
							"name": "nftContract",
							"type": "address"
						},
						{
							"internalType": "uint256",
							"name": "tokenId",
							"type": "uint256"
						}
					],
					"name": "isListed",
					"outputs": [
						{
							"internalType": "bool",
							"name": "",
							"type": "bool"
						}
					],
					"stateMutability": "view",
					"type": "function"
				},
				{
					"inputs": [
						{
							"internalType": "uint256",
							"name": "",
							"type": "uint256"
						}
					],
					"name": "listings",
					"outputs": [
						{
							"internalType": "address",
							"name": "seller",
							"type": "address"
						},
						{
							"internalType": "address",
							"name": "nftContract",
							"type": "address"
						},
						{
							"internalType": "uint256",
							"name": "tokenId",
							"type": "uint256"
						},
						{
							"internalType": "address",
							"name": "paymentToken",
							"type": "address"
						},
						{
							"internalType": "uint256",
							"name": "price",
							"type": "uint256"
						},
						{
							"internalType": "bool",
							"name": "active",
							"type": "bool"
						}
					],
					"stateMutability": "view",
					"type": "function"
				},
				{
					"inputs": [],
					"name": "nextListingId",
					"outputs": [
						{
							"internalType": "uint256",
							"name": "",
							"type": "uint256"
						}
					],
					"stateMutability": "view",
					"type": "function"
				},
				{
					"inputs": [],
					"name": "nextOfferId",
					"outputs": [
						{
							"internalType": "uint256",
							"name": "",
							"type": "uint256"
						}
					],
					"stateMutability": "view",
					"type": "function"
				},
				{
					"inputs": [
						{
							"internalType": "uint256",
							"name": "",
							"type": "uint256"
						}
					],
					"name": "offers",
					"outputs": [
						{
							"internalType": "address",
							"name": "buyer",
							"type": "address"
						},
						{
							"internalType": "address",
							"name": "nftContract",
							"type": "address"
						},
						{
							"internalType": "uint256",
							"name": "tokenId",
							"type": "uint256"
						},
						{
							"internalType": "address",
							"name": "paymentToken",
							"type": "address"
						},
						{
							"internalType": "uint256",
							"name": "price",
							"type": "uint256"
						},
						{
							"internalType": "uint256",
							"name": "expiresAt",
							"type": "uint256"
						},
						{
							"internalType": "bool",
							"name": "active",
							"type": "bool"
						}
					],
					"stateMutability": "view",
					"type": "function"
				},
				{
					"inputs": [
						{
							"internalType": "address",
							"name": "",
							"type": "address"
						},
						{
							"internalType": "address",
							"name": "",
							"type": "address"
						},
						{
							"internalType": "uint256",
							"name": "",
							"type": "uint256"
						},
						{
							"internalType": "bytes",
							"name": "",
							"type": "bytes"
						}
					],
					"name": "onERC721Received",
					"outputs": [
						{
							"internalType": "bytes4",
							"name": "",
							"type": "bytes4"
						}
					],
					"stateMutability": "pure",
					"type": "function"
				},
				{
					"inputs": [],
					"name": "owner",
					"outputs": [
						{
							"internalType": "address",
							"name": "",
							"type": "address"
						}
					],
					"stateMutability": "view",
					"type": "function"
				},
				{
					"inputs": [],
					"name": "renounceOwnership",
					"outputs": [],
					"stateMutability": "nonpayable",
					"type": "function"
				},
				{
					"inputs": [
						{
							"internalType": "address",
							"name": "token",
							"type": "address"
						},
						{
							"internalType": "bool",
							"name": "allowed",
							"type": "bool"
						}
					],
					"name": "setAllowedPaymentToken",
					"outputs": [],
					"stateMutability": "nonpayable",
					"type": "function"
				},
				{
					"inputs": [
						{
							"internalType": "uint256",
							"name": "newFeePercent",
							"type": "uint256"
						}
					],
					"name": "setFeePercent",
					"outputs": [],
					"stateMutability": "nonpayable",
					"type": "function"
				},
				{
					"inputs": [
						{
							"internalType": "address",
							"name": "newFeeRecipient",
							"type": "address"
						}
					],
					"name": "setFeeRecipient",
					"outputs": [],
					"stateMutability": "nonpayable",
					"type": "function"
				},
				{
					"inputs": [
						{
							"internalType": "address",
							"name": "",
							"type": "address"
						},
						{
							"internalType": "uint256",
							"name": "",
							"type": "uint256"
						}
					],
					"name": "tokenToListing",
					"outputs": [
						{
							"internalType": "uint256",
							"name": "",
							"type": "uint256"
						}
					],
					"stateMutability": "view",
					"type": "function"
				},
				{
					"inputs": [
						{
							"internalType": "address",
							"name": "newOwner",
							"type": "address"
						}
					],
					"name": "transferOwnership",
					"outputs": [],
					"stateMutability": "nonpayable",
					"type": "function"
				},
				{
					"inputs": [
						{
							"internalType": "uint256",
							"name": "listingId",
							"type": "uint256"
						},
						{
							"internalType": "uint256",
							"name": "newPrice",
							"type": "uint256"
						}
					],
					"name": "updateListingPrice",
					"outputs": [],
					"stateMutability": "nonpayable",
					"type": "function"
				}
			],
			"devdoc": {
				"details": "Supports both instant buy listings and offers (bids)",
				"errors": {
					"OwnableInvalidOwner(address)": [
						{
							"details": "The owner is not a valid owner account. (eg. `address(0)`)"
						}
					],
					"OwnableUnauthorizedAccount(address)": [
						{
							"details": "The caller account is not authorized to perform an operation."
						}
					]
				},
				"kind": "dev",
				"methods": {
					"acceptOffer(uint256)": {
						"params": {
							"offerId": "ID of the offer to accept"
						}
					},
					"buyListing(uint256)": {
						"params": {
							"listingId": "ID of the listing to buy"
						}
					},
					"cancelListing(uint256)": {
						"params": {
							"listingId": "ID of the listing to cancel"
						}
					},
					"cancelOffer(uint256)": {
						"params": {
							"offerId": "ID of the offer to cancel"
						}
					},
					"createListing(address,uint256,address,uint256)": {
						"params": {
							"nftContract": "Address of the NFT contract",
							"paymentToken": "Address of payment token (address(0) for native)",
							"price": "Listing price",
							"tokenId": "Token ID to list"
						}
					},
					"createOffer(address,uint256,address,uint256,uint256)": {
						"params": {
							"duration": "How long the offer is valid (in seconds)",
							"nftContract": "Address of the NFT contract",
							"paymentToken": "Address of payment token (must be ERC20, not native)",
							"price": "Offer price",
							"tokenId": "Token ID to make offer for"
						}
					},
					"getListing(uint256)": {
						"params": {
							"listingId": "Listing ID"
						}
					},
					"getListingByToken(address,uint256)": {
						"params": {
							"nftContract": "NFT contract address",
							"tokenId": "Token ID"
						}
					},
					"getOffer(uint256)": {
						"params": {
							"offerId": "Offer ID"
						}
					},
					"isListed(address,uint256)": {
						"params": {
							"nftContract": "NFT contract address",
							"tokenId": "Token ID"
						}
					},
					"owner()": {
						"details": "Returns the address of the current owner."
					},
					"renounceOwnership()": {
						"details": "Leaves the contract without owner. It will not be possible to call `onlyOwner` functions. Can only be called by the current owner. NOTE: Renouncing ownership will leave the contract without an owner, thereby disabling any functionality that is only available to the owner."
					},
					"setAllowedPaymentToken(address,bool)": {
						"params": {
							"allowed": "Whether the token is allowed",
							"token": "Token address (address(0) for native)"
						}
					},
					"setFeePercent(uint256)": {
						"params": {
							"newFeePercent": "New fee in basis points (250 = 2.5%)"
						}
					},
					"setFeeRecipient(address)": {
						"params": {
							"newFeeRecipient": "New fee recipient"
						}
					},
					"transferOwnership(address)": {
						"details": "Transfers ownership of the contract to a new account (`newOwner`). Can only be called by the current owner."
					},
					"updateListingPrice(uint256,uint256)": {
						"params": {
							"listingId": "ID of the listing",
							"newPrice": "New price"
						}
					}
				},
				"title": "GameMarketplace",
				"version": 1
			},
			"evm": {
				"assembly": "    /* \"BidMarketplace.sol\":460:15178  contract GameMarketplace is ReentrancyGuard, Ownable {... */\n  mstore(0x40, 0x80)\n    /* \"BidMarketplace.sol\":1504:1507  250 */\n  0xfa\n    /* \"BidMarketplace.sol\":1476:1507  uint256 public feePercent = 250 */\n  0x07\n  sstore\n    /* \"BidMarketplace.sol\":3074:3370  constructor(address _feeRecipient, address _initialOwner) Ownable(_initialOwner) {... */\n  callvalue\n  dup1\n  iszero\n  tag_1\n  jumpi\n  0x00\n  dup1\n  revert\ntag_1:\n  pop\n  mload(0x40)\n  sub(codesize, bytecodeSize)\n  dup1\n  bytecodeSize\n  dup4\n  codecopy\n  dup2\n  add\n  0x40\n  dup2\n  swap1\n  mstore\n  tag_2\n  swap2\n  tag_3\n  jump\t// in\ntag_2:\n    /* \"@openzeppelin/contracts/security/ReentrancyGuard.sol\":1716:1717  1 */\n  0x01\n    /* \"@openzeppelin/contracts/security/ReentrancyGuard.sol\":1821:1828  _status */\n  0x00\n    /* \"@openzeppelin/contracts/security/ReentrancyGuard.sol\":1821:1843  _status = _NOT_ENTERED */\n  sstore\n    /* \"BidMarketplace.sol\":3140:3153  _initialOwner */\n  dup1\n  sub(shl(0xa0, 0x01), 0x01)\n    /* \"@openzeppelin/contracts/access/Ownable.sol\":1273:1299  initialOwner == address(0) */\n  dup2\n  and\n    /* \"@openzeppelin/contracts/access/Ownable.sol\":1269:1364  if (initialOwner == address(0)) {... */\n  tag_9\n  jumpi\n    /* \"@openzeppelin/contracts/access/Ownable.sol\":1322:1353  OwnableInvalidOwner(address(0)) */\n  mload(0x40)\n  shl(0xe0, 0x1e4fbdf7)\n  dup2\n  mstore\n    /* \"@openzeppelin/contracts/access/Ownable.sol\":1350:1351  0 */\n  0x00\n    /* \"@openzeppelin/contracts/access/Ownable.sol\":1322:1353  OwnableInvalidOwner(address(0)) */\n  0x04\n  dup3\n  add\n    /* \"#utility.yul\":640:691   */\n  mstore\n    /* \"#utility.yul\":613:631   */\n  0x24\n  add\n    /* \"@openzeppelin/contracts/access/Ownable.sol\":1322:1353  OwnableInvalidOwner(address(0)) */\ntag_10:\n  mload(0x40)\n  dup1\n  swap2\n  sub\n  swap1\n  revert\n    /* \"@openzeppelin/contracts/access/Ownable.sol\":1269:1364  if (initialOwner == address(0)) {... */\ntag_9:\n    /* \"@openzeppelin/contracts/access/Ownable.sol\":1373:1405  _transferOwnership(initialOwner) */\n  tag_12\n    /* \"@openzeppelin/contracts/access/Ownable.sol\":1392:1404  initialOwner */\n  dup2\n    /* \"@openzeppelin/contracts/access/Ownable.sol\":1373:1391  _transferOwnership */\n  tag_13\n    /* \"@openzeppelin/contracts/access/Ownable.sol\":1373:1405  _transferOwnership(initialOwner) */\n  jump\t// in\ntag_12:\n  pop\n  sub(shl(0xa0, 0x01), 0x01)\n    /* \"BidMarketplace.sol\":3173:3200  _feeRecipient != address(0) */\n  dup3\n  and\n    /* \"BidMarketplace.sol\":3165:3226  require(_feeRecipient != address(0), \"Invalid fee recipient\") */\n  tag_15\n  jumpi\n  mload(0x40)\n  shl(0xe5, 0x461bcd)\n  dup2\n  mstore\n    /* \"#utility.yul\":904:906   */\n  0x20\n    /* \"BidMarketplace.sol\":3165:3226  require(_feeRecipient != address(0), \"Invalid fee recipient\") */\n  0x04\n  dup3\n  add\n    /* \"#utility.yul\":886:907   */\n  mstore\n    /* \"#utility.yul\":943:945   */\n  0x15\n    /* \"#utility.yul\":923:941   */\n  0x24\n  dup3\n  add\n    /* \"#utility.yul\":916:946   */\n  mstore\n    /* \"#utility.yul\":982:1005   */\n  0x496e76616c69642066656520726563697069656e740000000000000000000000\n    /* \"#utility.yul\":962:980   */\n  0x44\n  dup3\n  add\n    /* \"#utility.yul\":955:1006   */\n  mstore\n    /* \"#utility.yul\":1023:1041   */\n  0x64\n  add\n    /* \"BidMarketplace.sol\":3165:3226  require(_feeRecipient != address(0), \"Invalid fee recipient\") */\n  tag_10\n    /* \"#utility.yul\":702:1047   */\n  jump\n    /* \"BidMarketplace.sol\":3165:3226  require(_feeRecipient != address(0), \"Invalid fee recipient\") */\ntag_15:\n  pop\n    /* \"BidMarketplace.sol\":3236:3248  feeRecipient */\n  0x08\n    /* \"BidMarketplace.sol\":3236:3264  feeRecipient = _feeRecipient */\n  dup1\n  sload\n  not(sub(shl(0xa0, 0x01), 0x01))\n  and\n  sub(shl(0xa0, 0x01), 0x01)\n  swap3\n  swap1\n  swap3\n  and\n  swap2\n  swap1\n  swap2\n  or\n  swap1\n  sstore\n  0x00\n    /* \"BidMarketplace.sol\":3324:3356  allowedPaymentTokens[address(0)] */\n  dup1\n  mstore\n    /* \"BidMarketplace.sol\":3324:3344  allowedPaymentTokens */\n  0x09\n    /* \"BidMarketplace.sol\":3324:3356  allowedPaymentTokens[address(0)] */\n  0x20\n  mstore\n  0xec8156718a8372b1db44bb411437d0870f3e3790d4a08526d024ce1b0b668f6b\n    /* \"BidMarketplace.sol\":3324:3363  allowedPaymentTokens[address(0)] = true */\n  dup1\n  sload\n  not(0xff)\n  and\n  0x01\n  or\n  swap1\n  sstore\n    /* \"BidMarketplace.sol\":460:15178  contract GameMarketplace is ReentrancyGuard, Ownable {... */\n  jump(tag_21)\n    /* \"@openzeppelin/contracts/access/Ownable.sol\":2912:3099  function _transferOwnership(address newOwner) internal virtual {... */\ntag_13:\n    /* \"@openzeppelin/contracts/access/Ownable.sol\":3004:3010  _owner */\n  0x01\n  dup1\n  sload\n  sub(shl(0xa0, 0x01), 0x01)\n    /* \"@openzeppelin/contracts/access/Ownable.sol\":3020:3037  _owner = newOwner */\n  dup4\n  dup2\n  and\n  not(sub(shl(0xa0, 0x01), 0x01))\n  dup4\n  and\n  dup2\n  or\n  swap1\n  swap4\n  sstore\n    /* \"@openzeppelin/contracts/access/Ownable.sol\":3052:3092  OwnershipTransferred(oldOwner, newOwner) */\n  mload(0x40)\n    /* \"@openzeppelin/contracts/access/Ownable.sol\":3004:3010  _owner */\n  swap2\n  and\n  swap2\n    /* \"@openzeppelin/contracts/access/Ownable.sol\":3020:3037  _owner = newOwner */\n  swap1\n    /* \"@openzeppelin/contracts/access/Ownable.sol\":3004:3010  _owner */\n  dup3\n  swap1\n    /* \"@openzeppelin/contracts/access/Ownable.sol\":3052:3092  OwnershipTransferred(oldOwner, newOwner) */\n  0x8be0079c531659141344cd1fd0a4f28419497f9722a3daafe3b4186f6b6457e0\n  swap1\n    /* \"@openzeppelin/contracts/access/Ownable.sol\":2985:3001  address oldOwner */\n  0x00\n  swap1\n    /* \"@openzeppelin/contracts/access/Ownable.sol\":3052:3092  OwnershipTransferred(oldOwner, newOwner) */\n  log3\n    /* \"@openzeppelin/contracts/access/Ownable.sol\":2975:3099  {... */\n  pop\n    /* \"@openzeppelin/contracts/access/Ownable.sol\":2912:3099  function _transferOwnership(address newOwner) internal virtual {... */\n  pop\n  jump\t// out\n    /* \"#utility.yul\":14:191   */\ntag_20:\n    /* \"#utility.yul\":93:106   */\n  dup1\n  mload\n  sub(shl(0xa0, 0x01), 0x01)\n    /* \"#utility.yul\":135:166   */\n  dup2\n  and\n    /* \"#utility.yul\":125:167   */\n  dup2\n  eq\n    /* \"#utility.yul\":115:185   */\n  tag_23\n  jumpi\n    /* \"#utility.yul\":181:182   */\n  0x00\n    /* \"#utility.yul\":178:179   */\n  dup1\n    /* \"#utility.yul\":171:183   */\n  revert\n    /* \"#utility.yul\":115:185   */\ntag_23:\n    /* \"#utility.yul\":14:191   */\n  swap2\n  swap1\n  pop\n  jump\t// out\n    /* \"#utility.yul\":196:489   */\ntag_3:\n    /* \"#utility.yul\":275:281   */\n  0x00\n    /* \"#utility.yul\":283:289   */\n  dup1\n    /* \"#utility.yul\":336:338   */\n  0x40\n    /* \"#utility.yul\":324:333   */\n  dup4\n    /* \"#utility.yul\":315:322   */\n  dup6\n    /* \"#utility.yul\":311:334   */\n  sub\n    /* \"#utility.yul\":307:339   */\n  slt\n    /* \"#utility.yul\":304:356   */\n  iszero\n  tag_25\n  jumpi\n    /* \"#utility.yul\":352:353   */\n  0x00\n    /* \"#utility.yul\":349:350   */\n  dup1\n    /* \"#utility.yul\":342:354   */\n  revert\n    /* \"#utility.yul\":304:356   */\ntag_25:\n    /* \"#utility.yul\":375:415   */\n  tag_26\n    /* \"#utility.yul\":405:414   */\n  dup4\n    /* \"#utility.yul\":375:415   */\n  tag_20\n  jump\t// in\ntag_26:\n    /* \"#utility.yul\":365:415   */\n  swap2\n  pop\n    /* \"#utility.yul\":434:483   */\n  tag_27\n    /* \"#utility.yul\":479:481   */\n  0x20\n    /* \"#utility.yul\":468:477   */\n  dup5\n    /* \"#utility.yul\":464:482   */\n  add\n    /* \"#utility.yul\":434:483   */\n  tag_20\n  jump\t// in\ntag_27:\n    /* \"#utility.yul\":424:483   */\n  swap1\n  pop\n    /* \"#utility.yul\":196:489   */\n  swap3\n  pop\n  swap3\n  swap1\n  pop\n  jump\t// out\n    /* \"#utility.yul\":702:1047   */\ntag_21:\n    /* \"BidMarketplace.sol\":460:15178  contract GameMarketplace is ReentrancyGuard, Ownable {... */\n  dataSize(sub_0)\n  dup1\n  dataOffset(sub_0)\n  0x00\n  codecopy\n  0x00\n  return\nstop\n\nsub_0: assembly {\n        /* \"BidMarketplace.sol\":460:15178  contract GameMarketplace is ReentrancyGuard, Ownable {... */\n      mstore(0x40, 0x80)\n      jumpi(tag_1, lt(calldatasize, 0x04))\n      shr(0xe0, calldataload(0x00))\n      dup1\n      0x7fd6f15c\n      gt\n      tag_29\n      jumpi\n      dup1\n      0xcdb3cd25\n      gt\n      tag_30\n      jumpi\n      dup1\n      0xde74e57b\n      gt\n      tag_31\n      jumpi\n      dup1\n      0xde74e57b\n      eq\n      tag_25\n      jumpi\n      dup1\n      0xe74b981b\n      eq\n      tag_26\n      jumpi\n      dup1\n      0xef706adf\n      eq\n      tag_27\n      jumpi\n      dup1\n      0xf2fde38b\n      eq\n      tag_28\n      jumpi\n      0x00\n      dup1\n      revert\n    tag_31:\n      dup1\n      0xcdb3cd25\n      eq\n      tag_22\n      jumpi\n      dup1\n      0xd14027d4\n      eq\n      tag_23\n      jumpi\n      dup1\n      0xd73792a9\n      eq\n      tag_24\n      jumpi\n      0x00\n      dup1\n      revert\n    tag_30:\n      dup1\n      0xaaccf1ec\n      gt\n      tag_32\n      jumpi\n      dup1\n      0xaaccf1ec\n      eq\n      tag_18\n      jumpi\n      dup1\n      0xb4a15355\n      eq\n      tag_19\n      jumpi\n      dup1\n      0xc4604943\n      eq\n      tag_20\n      jumpi\n      dup1\n      0xc815729d\n      eq\n      tag_21\n      jumpi\n      0x00\n      dup1\n      revert\n    tag_32:\n      dup1\n      0x7fd6f15c\n      eq\n      tag_15\n      jumpi\n      dup1\n      0x8a72ea6a\n      eq\n      tag_16\n      jumpi\n      dup1\n      0x8da5cb5b\n      eq\n      tag_17\n      jumpi\n      0x00\n      dup1\n      revert\n    tag_29:\n      dup1\n      0x46904840\n      gt\n      tag_33\n      jumpi\n      dup1\n      0x697d312a\n      gt\n      tag_34\n      jumpi\n      dup1\n      0x697d312a\n      eq\n      tag_11\n      jumpi\n      dup1\n      0x6f7b4352\n      eq\n      tag_12\n      jumpi\n      dup1\n      0x715018a6\n      eq\n      tag_13\n      jumpi\n      dup1\n      0x7ce3489b\n      eq\n      tag_14\n      jumpi\n      0x00\n      dup1\n      revert\n    tag_34:\n      dup1\n      0x46904840\n      eq\n      tag_8\n      jumpi\n      dup1\n      0x4884f459\n      eq\n      tag_9\n      jumpi\n      dup1\n      0x5f5d0655\n      eq\n      tag_10\n      jumpi\n      0x00\n      dup1\n      revert\n    tag_33:\n      dup1\n      0x107a274a\n      eq\n      tag_2\n      jumpi\n      dup1\n      0x150b7a02\n      eq\n      tag_3\n      jumpi\n      dup1\n      0x1d3c6674\n      eq\n      tag_4\n      jumpi\n      dup1\n      0x248d9aa3\n      eq\n      tag_5\n      jumpi\n      dup1\n      0x305a67a8\n      eq\n      tag_6\n      jumpi\n      dup1\n      0x4579268a\n      eq\n      tag_7\n      jumpi\n    tag_1:\n      0x00\n      dup1\n      revert\n        /* \"BidMarketplace.sol\":13943:14064  function getListing(uint256 listingId) external view returns (Listing memory) {... */\n    tag_2:\n      callvalue\n      dup1\n      iszero\n      tag_35\n      jumpi\n      0x00\n      dup1\n      revert\n    tag_35:\n      pop\n      tag_36\n      tag_37\n      calldatasize\n      0x04\n      tag_38\n      jump\t// in\n    tag_37:\n      0x40\n      dup1\n      mload\n      0xc0\n      dup2\n      add\n      dup3\n      mstore\n      0x00\n      dup1\n      dup3\n      mstore\n      0x20\n      dup3\n      add\n      dup2\n      swap1\n      mstore\n      swap2\n      dup2\n      add\n      dup3\n      swap1\n      mstore\n      0x60\n      dup2\n      add\n      dup3\n      swap1\n      mstore\n      0x80\n      dup2\n      add\n      dup3\n      swap1\n      mstore\n      0xa0\n      dup2\n      add\n      swap2\n      swap1\n      swap2\n      mstore\n      pop\n        /* \"BidMarketplace.sol\":14038:14057  listings[listingId] */\n      0x00\n      swap1\n      dup2\n      mstore\n        /* \"BidMarketplace.sol\":14038:14046  listings */\n      0x02\n        /* \"BidMarketplace.sol\":14038:14057  listings[listingId] */\n      0x20\n      dup2\n      dup2\n      mstore\n      0x40\n      swap3\n      dup4\n      swap1\n      keccak256\n        /* \"BidMarketplace.sol\":14031:14057  return listings[listingId] */\n      dup4\n      mload\n      0xc0\n      dup2\n      add\n      dup6\n      mstore\n      dup2\n      sload\n      sub(shl(0xa0, 0x01), 0x01)\n      swap1\n      dup2\n      and\n      dup3\n      mstore\n      0x01\n      dup4\n      add\n      sload\n      dup2\n      and\n      swap4\n      dup3\n      add\n      swap4\n      swap1\n      swap4\n      mstore\n      swap3\n      dup2\n      add\n      sload\n      swap4\n      dup4\n      add\n      swap4\n      swap1\n      swap4\n      mstore\n      0x03\n      dup4\n      add\n      sload\n      and\n      0x60\n      dup3\n      add\n      mstore\n      0x04\n      dup3\n      add\n      sload\n      0x80\n      dup3\n      add\n      mstore\n      0x05\n      swap1\n      swap2\n      add\n      sload\n      0xff\n      and\n      iszero\n      iszero\n      0xa0\n      dup3\n      add\n      mstore\n      swap1\n        /* \"BidMarketplace.sol\":13943:14064  function getListing(uint256 listingId) external view returns (Listing memory) {... */\n      jump\n    tag_36:\n      mload(0x40)\n      tag_40\n      swap2\n      swap1\n        /* \"#utility.yul\":454:467   */\n      dup2\n      mload\n      sub(shl(0xa0, 0x01), 0x01)\n        /* \"#utility.yul\":450:472   */\n      swap1\n      dup2\n      and\n        /* \"#utility.yul\":432:473   */\n      dup3\n      mstore\n        /* \"#utility.yul\":533:537   */\n      0x20\n        /* \"#utility.yul\":521:538   */\n      dup1\n      dup5\n      add\n        /* \"#utility.yul\":515:539   */\n      mload\n        /* \"#utility.yul\":511:544   */\n      dup3\n      and\n        /* \"#utility.yul\":489:509   */\n      swap1\n      dup4\n      add\n        /* \"#utility.yul\":482:545   */\n      mstore\n        /* \"#utility.yul\":601:605   */\n      0x40\n        /* \"#utility.yul\":589:606   */\n      dup1\n      dup5\n      add\n        /* \"#utility.yul\":583:607   */\n      mload\n        /* \"#utility.yul\":561:581   */\n      swap1\n      dup4\n      add\n        /* \"#utility.yul\":554:608   */\n      mstore\n        /* \"#utility.yul\":668:672   */\n      0x60\n        /* \"#utility.yul\":656:673   */\n      dup1\n      dup5\n      add\n        /* \"#utility.yul\":650:674   */\n      mload\n        /* \"#utility.yul\":646:679   */\n      swap1\n      swap2\n      and\n        /* \"#utility.yul\":624:644   */\n      swap1\n      dup3\n      add\n        /* \"#utility.yul\":617:680   */\n      mstore\n        /* \"#utility.yul\":736:740   */\n      0x80\n        /* \"#utility.yul\":724:741   */\n      dup1\n      dup4\n      add\n        /* \"#utility.yul\":718:742   */\n      mload\n        /* \"#utility.yul\":696:716   */\n      swap1\n      dup3\n      add\n        /* \"#utility.yul\":689:743   */\n      mstore\n        /* \"#utility.yul\":412:415   */\n      0xa0\n        /* \"#utility.yul\":801:818   */\n      swap2\n      dup3\n      add\n        /* \"#utility.yul\":795:819   */\n      mload\n        /* \"#utility.yul\":788:820   */\n      iszero\n        /* \"#utility.yul\":781:821   */\n      iszero\n        /* \"#utility.yul\":759:779   */\n      swap2\n      dup2\n      add\n        /* \"#utility.yul\":752:822   */\n      swap2\n      swap1\n      swap2\n      mstore\n        /* \"#utility.yul\":381:384   */\n      0xc0\n        /* \"#utility.yul\":366:385   */\n      add\n      swap1\n        /* \"#utility.yul\":199:828   */\n      jump\n        /* \"BidMarketplace.sol\":13943:14064  function getListing(uint256 listingId) external view returns (Listing memory) {... */\n    tag_40:\n      mload(0x40)\n      dup1\n      swap2\n      sub\n      swap1\n      return\n        /* \"BidMarketplace.sol\":14988:15176  function onERC721Received(... */\n    tag_3:\n      callvalue\n      dup1\n      iszero\n      tag_42\n      jumpi\n      0x00\n      dup1\n      revert\n    tag_42:\n      pop\n      tag_43\n      tag_44\n      calldatasize\n      0x04\n      tag_45\n      jump\t// in\n    tag_44:\n      tag_46\n      jump\t// in\n    tag_43:\n      mload(0x40)\n      not(sub(shl(0xe0, 0x01), 0x01))\n        /* \"#utility.yul\":2534:2567   */\n      swap1\n      swap2\n      and\n        /* \"#utility.yul\":2516:2568   */\n      dup2\n      mstore\n        /* \"#utility.yul\":2504:2506   */\n      0x20\n        /* \"#utility.yul\":2489:2507   */\n      add\n        /* \"BidMarketplace.sol\":14988:15176  function onERC721Received(... */\n      tag_40\n        /* \"#utility.yul\":2372:2574   */\n      jump\n        /* \"BidMarketplace.sol\":13610:13794  function setAllowedPaymentToken(address token, bool allowed) external onlyOwner {... */\n    tag_4:\n      callvalue\n      dup1\n      iszero\n      tag_49\n      jumpi\n      0x00\n      dup1\n      revert\n    tag_49:\n      pop\n      tag_50\n      tag_51\n      calldatasize\n      0x04\n      tag_52\n      jump\t// in\n    tag_51:\n      tag_53\n      jump\t// in\n    tag_50:\n      stop\n        /* \"BidMarketplace.sol\":14786:14943  function getListingByToken(address nftContract, uint256 tokenId) external view returns (uint256) {... */\n    tag_5:\n      callvalue\n      dup1\n      iszero\n      tag_54\n      jumpi\n      0x00\n      dup1\n      revert\n    tag_54:\n      pop\n      tag_55\n      tag_56\n      calldatasize\n      0x04\n      tag_57\n      jump\t// in\n    tag_56:\n      tag_58\n      jump\t// in\n    tag_55:\n      mload(0x40)\n        /* \"#utility.yul\":3555:3580   */\n      swap1\n      dup2\n      mstore\n        /* \"#utility.yul\":3543:3545   */\n      0x20\n        /* \"#utility.yul\":3528:3546   */\n      add\n        /* \"BidMarketplace.sol\":14786:14943  function getListingByToken(address nftContract, uint256 tokenId) external view returns (uint256) {... */\n      tag_40\n        /* \"#utility.yul\":3409:3586   */\n      jump\n        /* \"BidMarketplace.sol\":5084:5484  function cancelListing(uint256 listingId) external nonReentrant {... */\n    tag_6:\n      callvalue\n      dup1\n      iszero\n      tag_61\n      jumpi\n      0x00\n      dup1\n      revert\n    tag_61:\n      pop\n      tag_50\n      tag_63\n      calldatasize\n      0x04\n      tag_38\n      jump\t// in\n    tag_63:\n      tag_64\n      jump\t// in\n        /* \"BidMarketplace.sol\":14154:14265  function getOffer(uint256 offerId) external view returns (Offer memory) {... */\n    tag_7:\n      callvalue\n      dup1\n      iszero\n      tag_65\n      jumpi\n      0x00\n      dup1\n      revert\n    tag_65:\n      pop\n      tag_66\n      tag_67\n      calldatasize\n      0x04\n      tag_38\n      jump\t// in\n    tag_67:\n      0x40\n      dup1\n      mload\n      0xe0\n      dup2\n      add\n      dup3\n      mstore\n      0x00\n      dup1\n      dup3\n      mstore\n      0x20\n      dup3\n      add\n      dup2\n      swap1\n      mstore\n      swap2\n      dup2\n      add\n      dup3\n      swap1\n      mstore\n      0x60\n      dup2\n      add\n      dup3\n      swap1\n      mstore\n      0x80\n      dup2\n      add\n      dup3\n      swap1\n      mstore\n      0xa0\n      dup2\n      add\n      dup3\n      swap1\n      mstore\n      0xc0\n      dup2\n      add\n      swap2\n      swap1\n      swap2\n      mstore\n      pop\n        /* \"BidMarketplace.sol\":14243:14258  offers[offerId] */\n      0x00\n      swap1\n      dup2\n      mstore\n        /* \"BidMarketplace.sol\":14243:14249  offers */\n      0x04\n        /* \"BidMarketplace.sol\":14243:14258  offers[offerId] */\n      0x20\n      dup2\n      dup2\n      mstore\n      0x40\n      swap3\n      dup4\n      swap1\n      keccak256\n        /* \"BidMarketplace.sol\":14236:14258  return offers[offerId] */\n      dup4\n      mload\n      0xe0\n      dup2\n      add\n      dup6\n      mstore\n      dup2\n      sload\n      sub(shl(0xa0, 0x01), 0x01)\n      swap1\n      dup2\n      and\n      dup3\n      mstore\n      0x01\n      dup4\n      add\n      sload\n      dup2\n      and\n      swap4\n      dup3\n      add\n      swap4\n      swap1\n      swap4\n      mstore\n      0x02\n      dup3\n      add\n      sload\n      swap5\n      dup2\n      add\n      swap5\n      swap1\n      swap5\n      mstore\n      0x03\n      dup2\n      add\n      sload\n      swap1\n      swap2\n      and\n      0x60\n      dup5\n      add\n      mstore\n      swap1\n      dup2\n      add\n      sload\n      0x80\n      dup4\n      add\n      mstore\n      0x05\n      dup2\n      add\n      sload\n      0xa0\n      dup4\n      add\n      mstore\n      0x06\n      add\n      sload\n      0xff\n      and\n      iszero\n      iszero\n      0xc0\n      dup3\n      add\n      mstore\n      swap1\n        /* \"BidMarketplace.sol\":14154:14265  function getOffer(uint256 offerId) external view returns (Offer memory) {... */\n      jump\n    tag_66:\n      mload(0x40)\n      tag_40\n      swap2\n      swap1\n        /* \"#utility.yul\":3842:3855   */\n      dup2\n      mload\n      sub(shl(0xa0, 0x01), 0x01)\n        /* \"#utility.yul\":3838:3860   */\n      swap1\n      dup2\n      and\n        /* \"#utility.yul\":3820:3861   */\n      dup3\n      mstore\n        /* \"#utility.yul\":3921:3925   */\n      0x20\n        /* \"#utility.yul\":3909:3926   */\n      dup1\n      dup5\n      add\n        /* \"#utility.yul\":3903:3927   */\n      mload\n        /* \"#utility.yul\":3899:3932   */\n      dup3\n      and\n        /* \"#utility.yul\":3877:3897   */\n      swap1\n      dup4\n      add\n        /* \"#utility.yul\":3870:3933   */\n      mstore\n        /* \"#utility.yul\":3989:3993   */\n      0x40\n        /* \"#utility.yul\":3977:3994   */\n      dup1\n      dup5\n      add\n        /* \"#utility.yul\":3971:3995   */\n      mload\n        /* \"#utility.yul\":3949:3969   */\n      swap1\n      dup4\n      add\n        /* \"#utility.yul\":3942:3996   */\n      mstore\n        /* \"#utility.yul\":4056:4060   */\n      0x60\n        /* \"#utility.yul\":4044:4061   */\n      dup1\n      dup5\n      add\n        /* \"#utility.yul\":4038:4062   */\n      mload\n        /* \"#utility.yul\":4034:4067   */\n      swap1\n      swap2\n      and\n        /* \"#utility.yul\":4012:4032   */\n      swap1\n      dup3\n      add\n        /* \"#utility.yul\":4005:4068   */\n      mstore\n        /* \"#utility.yul\":4124:4128   */\n      0x80\n        /* \"#utility.yul\":4112:4129   */\n      dup1\n      dup4\n      add\n        /* \"#utility.yul\":4106:4130   */\n      mload\n        /* \"#utility.yul\":4084:4104   */\n      swap1\n      dup3\n      add\n        /* \"#utility.yul\":4077:4131   */\n      mstore\n        /* \"#utility.yul\":3800:3803   */\n      0xa0\n        /* \"#utility.yul\":4175:4192   */\n      dup3\n      dup2\n      add\n        /* \"#utility.yul\":4169:4193   */\n      mload\n        /* \"#utility.yul\":4147:4167   */\n      swap1\n      dup3\n      add\n        /* \"#utility.yul\":4140:4194   */\n      mstore\n        /* \"#utility.yul\":4264:4268   */\n      0xc0\n        /* \"#utility.yul\":4252:4269   */\n      swap2\n      dup3\n      add\n        /* \"#utility.yul\":4246:4270   */\n      mload\n        /* \"#utility.yul\":4239:4271   */\n      iszero\n        /* \"#utility.yul\":4232:4272   */\n      iszero\n        /* \"#utility.yul\":4210:4230   */\n      swap2\n      dup2\n      add\n        /* \"#utility.yul\":4203:4273   */\n      swap2\n      swap1\n      swap2\n      mstore\n        /* \"#utility.yul\":3769:3772   */\n      0xe0\n        /* \"#utility.yul\":3754:3773   */\n      add\n      swap1\n        /* \"#utility.yul\":3591:4279   */\n      jump\n        /* \"BidMarketplace.sol\":1592:1619  address public feeRecipient */\n    tag_8:\n      callvalue\n      dup1\n      iszero\n      tag_71\n      jumpi\n      0x00\n      dup1\n      revert\n    tag_71:\n      pop\n      sload(0x08)\n      tag_72\n      swap1\n      sub(shl(0xa0, 0x01), 0x01)\n      and\n      dup2\n      jump\n    tag_72:\n      mload(0x40)\n      sub(shl(0xa0, 0x01), 0x01)\n        /* \"#utility.yul\":4448:4480   */\n      swap1\n      swap2\n      and\n        /* \"#utility.yul\":4430:4481   */\n      dup2\n      mstore\n        /* \"#utility.yul\":4418:4420   */\n      0x20\n        /* \"#utility.yul\":4403:4421   */\n      add\n        /* \"BidMarketplace.sol\":1592:1619  address public feeRecipient */\n      tag_40\n        /* \"#utility.yul\":4284:4487   */\n      jump\n        /* \"BidMarketplace.sol\":6147:8438  function buyListing(uint256 listingId) external payable nonReentrant {... */\n    tag_9:\n      tag_50\n      tag_77\n      calldatasize\n      0x04\n      tag_38\n      jump\t// in\n    tag_77:\n      tag_78\n      jump\t// in\n        /* \"BidMarketplace.sol\":1244:1270  uint256 public nextOfferId */\n    tag_10:\n      callvalue\n      dup1\n      iszero\n      tag_79\n      jumpi\n      0x00\n      dup1\n      revert\n    tag_79:\n      pop\n      tag_55\n      sload(0x05)\n      dup2\n      jump\n        /* \"BidMarketplace.sol\":1688:1740  mapping(address => bool) public allowedPaymentTokens */\n    tag_11:\n      callvalue\n      dup1\n      iszero\n      tag_83\n      jumpi\n      0x00\n      dup1\n      revert\n    tag_83:\n      pop\n      tag_84\n      tag_85\n      calldatasize\n      0x04\n      tag_86\n      jump\t// in\n    tag_85:\n      mstore(0x20, 0x09)\n      0x00\n      swap1\n      dup2\n      mstore\n      0x40\n      swap1\n      keccak256\n      sload\n      0xff\n      and\n      dup2\n      jump\n    tag_84:\n      mload(0x40)\n        /* \"#utility.yul\":4909:4923   */\n      swap1\n      iszero\n        /* \"#utility.yul\":4902:4924   */\n      iszero\n        /* \"#utility.yul\":4884:4925   */\n      dup2\n      mstore\n        /* \"#utility.yul\":4872:4874   */\n      0x20\n        /* \"#utility.yul\":4857:4875   */\n      add\n        /* \"BidMarketplace.sol\":1688:1740  mapping(address => bool) public allowedPaymentTokens */\n      tag_40\n        /* \"#utility.yul\":4744:4931   */\n      jump\n        /* \"BidMarketplace.sol\":1343:1412  mapping(address => mapping(uint256 => uint256)) public tokenToListing */\n    tag_12:\n      callvalue\n      dup1\n      iszero\n      tag_90\n      jumpi\n      0x00\n      dup1\n      revert\n    tag_90:\n      pop\n      tag_55\n      tag_92\n      calldatasize\n      0x04\n      tag_57\n      jump\t// in\n    tag_92:\n      0x06\n      0x20\n      swap1\n      dup2\n      mstore\n      0x00\n      swap3\n      dup4\n      mstore\n      0x40\n      dup1\n      dup5\n      keccak256\n      swap1\n      swap2\n      mstore\n      swap1\n      dup3\n      mstore\n      swap1\n      keccak256\n      sload\n      dup2\n      jump\n        /* \"@openzeppelin/contracts/access/Ownable.sol\":2293:2394  function renounceOwnership() public virtual onlyOwner {... */\n    tag_13:\n      callvalue\n      dup1\n      iszero\n      tag_95\n      jumpi\n      0x00\n      dup1\n      revert\n    tag_95:\n      pop\n      tag_50\n      tag_97\n      jump\t// in\n        /* \"BidMarketplace.sol\":12847:13069  function setFeePercent(uint256 newFeePercent) external onlyOwner {... */\n    tag_14:\n      callvalue\n      dup1\n      iszero\n      tag_98\n      jumpi\n      0x00\n      dup1\n      revert\n    tag_98:\n      pop\n      tag_50\n      tag_100\n      calldatasize\n      0x04\n      tag_38\n      jump\t// in\n    tag_100:\n      tag_101\n      jump\t// in\n        /* \"BidMarketplace.sol\":1476:1507  uint256 public feePercent = 250 */\n    tag_15:\n      callvalue\n      dup1\n      iszero\n      tag_102\n      jumpi\n      0x00\n      dup1\n      revert\n    tag_102:\n      pop\n      tag_55\n      sload(0x07)\n      dup2\n      jump\n        /* \"BidMarketplace.sol\":1199:1238  mapping(uint256 => Offer) public offers */\n    tag_16:\n      callvalue\n      dup1\n      iszero\n      tag_106\n      jumpi\n      0x00\n      dup1\n      revert\n    tag_106:\n      pop\n      tag_107\n      tag_108\n      calldatasize\n      0x04\n      tag_38\n      jump\t// in\n    tag_108:\n      0x04\n      0x20\n      dup2\n      swap1\n      mstore\n      0x00\n      swap2\n      dup3\n      mstore\n      0x40\n      swap1\n      swap2\n      keccak256\n      dup1\n      sload\n      0x01\n      dup3\n      add\n      sload\n      0x02\n      dup4\n      add\n      sload\n      0x03\n      dup5\n      add\n      sload\n      swap5\n      dup5\n      add\n      sload\n      0x05\n      dup6\n      add\n      sload\n      0x06\n      swap1\n      swap6\n      add\n      sload\n      sub(shl(0xa0, 0x01), 0x01)\n      swap5\n      dup6\n      and\n      swap7\n      swap4\n      dup6\n      and\n      swap6\n      swap3\n      swap5\n      swap1\n      swap4\n      and\n      swap3\n      swap1\n      swap2\n      swap1\n      0xff\n      and\n      dup8\n      jump\n    tag_107:\n      0x40\n      dup1\n      mload\n      sub(shl(0xa0, 0x01), 0x01)\n        /* \"#utility.yul\":5301:5316   */\n      swap9\n      dup10\n      and\n        /* \"#utility.yul\":5283:5317   */\n      dup2\n      mstore\n        /* \"#utility.yul\":5353:5368   */\n      swap7\n      dup9\n      and\n        /* \"#utility.yul\":5348:5350   */\n      0x20\n        /* \"#utility.yul\":5333:5351   */\n      dup9\n      add\n        /* \"#utility.yul\":5326:5369   */\n      mstore\n        /* \"#utility.yul\":5385:5403   */\n      dup7\n      add\n        /* \"#utility.yul\":5378:5412   */\n      swap5\n      swap1\n      swap5\n      mstore\n        /* \"#utility.yul\":5448:5463   */\n      swap5\n      swap1\n      swap2\n      and\n        /* \"#utility.yul\":5443:5445   */\n      0x60\n        /* \"#utility.yul\":5428:5446   */\n      dup5\n      add\n        /* \"#utility.yul\":5421:5464   */\n      mstore\n        /* \"#utility.yul\":5495:5498   */\n      0x80\n        /* \"#utility.yul\":5480:5499   */\n      dup4\n      add\n        /* \"#utility.yul\":5473:5508   */\n      mstore\n        /* \"#utility.yul\":5263:5266   */\n      0xa0\n        /* \"#utility.yul\":5524:5543   */\n      dup3\n      add\n        /* \"#utility.yul\":5517:5552   */\n      swap3\n      swap1\n      swap3\n      mstore\n        /* \"#utility.yul\":5596:5610   */\n      swap1\n      iszero\n        /* \"#utility.yul\":5589:5611   */\n      iszero\n        /* \"#utility.yul\":5583:5586   */\n      0xc0\n        /* \"#utility.yul\":5568:5587   */\n      dup3\n      add\n        /* \"#utility.yul\":5561:5612   */\n      mstore\n        /* \"#utility.yul\":5232:5235   */\n      0xe0\n        /* \"#utility.yul\":5217:5236   */\n      add\n        /* \"BidMarketplace.sol\":1199:1238  mapping(uint256 => Offer) public offers */\n      tag_40\n        /* \"#utility.yul\":4936:5618   */\n      jump\n        /* \"@openzeppelin/contracts/access/Ownable.sol\":1638:1723  function owner() public view virtual returns (address) {... */\n    tag_17:\n      callvalue\n      dup1\n      iszero\n      tag_112\n      jumpi\n      0x00\n      dup1\n      revert\n    tag_112:\n      pop\n        /* \"@openzeppelin/contracts/access/Ownable.sol\":1710:1716  _owner */\n      and(sub(shl(0xa0, 0x01), 0x01), sload(0x01))\n        /* \"@openzeppelin/contracts/access/Ownable.sol\":1638:1723  function owner() public view virtual returns (address) {... */\n      jump(tag_72)\n        /* \"BidMarketplace.sol\":1136:1164  uint256 public nextListingId */\n    tag_18:\n      callvalue\n      dup1\n      iszero\n      tag_116\n      jumpi\n      0x00\n      dup1\n      revert\n    tag_116:\n      pop\n      tag_55\n      sload(0x03)\n      dup2\n      jump\n        /* \"BidMarketplace.sol\":3702:4974  function createListing(... */\n    tag_19:\n      callvalue\n      dup1\n      iszero\n      tag_120\n      jumpi\n      0x00\n      dup1\n      revert\n    tag_120:\n      pop\n      tag_55\n      tag_122\n      calldatasize\n      0x04\n      tag_123\n      jump\t// in\n    tag_122:\n      tag_124\n      jump\t// in\n        /* \"BidMarketplace.sol\":5621:6040  function updateListingPrice(uint256 listingId, uint256 newPrice) external nonReentrant {... */\n    tag_20:\n      callvalue\n      dup1\n      iszero\n      tag_126\n      jumpi\n      0x00\n      dup1\n      revert\n    tag_126:\n      pop\n      tag_50\n      tag_128\n      calldatasize\n      0x04\n      tag_129\n      jump\t// in\n    tag_128:\n      tag_130\n      jump\t// in\n        /* \"BidMarketplace.sol\":10757:12653  function acceptOffer(uint256 offerId) external nonReentrant {... */\n    tag_21:\n      callvalue\n      dup1\n      iszero\n      tag_131\n      jumpi\n      0x00\n      dup1\n      revert\n    tag_131:\n      pop\n      tag_50\n      tag_133\n      calldatasize\n      0x04\n      tag_38\n      jump\t// in\n    tag_133:\n      tag_134\n      jump\t// in\n        /* \"BidMarketplace.sol\":14421:14640  function isListed(address nftContract, uint256 tokenId) external view returns (bool) {... */\n    tag_22:\n      callvalue\n      dup1\n      iszero\n      tag_135\n      jumpi\n      0x00\n      dup1\n      revert\n    tag_135:\n      pop\n      tag_84\n      tag_137\n      calldatasize\n      0x04\n      tag_57\n      jump\t// in\n    tag_137:\n      tag_138\n      jump\t// in\n        /* \"BidMarketplace.sol\":8839:10200  function createOffer(... */\n    tag_23:\n      callvalue\n      dup1\n      iszero\n      tag_140\n      jumpi\n      0x00\n      dup1\n      revert\n    tag_140:\n      pop\n      tag_55\n      tag_142\n      calldatasize\n      0x04\n      tag_143\n      jump\t// in\n    tag_142:\n      tag_144\n      jump\t// in\n        /* \"BidMarketplace.sol\":1513:1560  uint256 public constant FEE_DENOMINATOR = 10000 */\n    tag_24:\n      callvalue\n      dup1\n      iszero\n      tag_146\n      jumpi\n      0x00\n      dup1\n      revert\n    tag_146:\n      pop\n      tag_55\n        /* \"BidMarketplace.sol\":1555:1560  10000 */\n      0x2710\n        /* \"BidMarketplace.sol\":1513:1560  uint256 public constant FEE_DENOMINATOR = 10000 */\n      dup2\n      jump\n        /* \"BidMarketplace.sol\":1087:1130  mapping(uint256 => Listing) public listings */\n    tag_25:\n      callvalue\n      dup1\n      iszero\n      tag_150\n      jumpi\n      0x00\n      dup1\n      revert\n    tag_150:\n      pop\n      tag_151\n      tag_152\n      calldatasize\n      0x04\n      tag_38\n      jump\t// in\n    tag_152:\n      0x02\n      0x20\n      dup2\n      swap1\n      mstore\n      0x00\n      swap2\n      dup3\n      mstore\n      0x40\n      swap1\n      swap2\n      keccak256\n      dup1\n      sload\n      0x01\n      dup3\n      add\n      sload\n      swap3\n      dup3\n      add\n      sload\n      0x03\n      dup4\n      add\n      sload\n      0x04\n      dup5\n      add\n      sload\n      0x05\n      swap1\n      swap5\n      add\n      sload\n      sub(shl(0xa0, 0x01), 0x01)\n      swap4\n      dup5\n      and\n      swap6\n      dup5\n      and\n      swap5\n      swap3\n      swap4\n      swap1\n      swap2\n      and\n      swap2\n      swap1\n      0xff\n      and\n      dup7\n      jump\n    tag_151:\n      0x40\n      dup1\n      mload\n      sub(shl(0xa0, 0x01), 0x01)\n        /* \"#utility.yul\":7342:7357   */\n      swap8\n      dup9\n      and\n        /* \"#utility.yul\":7324:7358   */\n      dup2\n      mstore\n        /* \"#utility.yul\":7394:7409   */\n      swap6\n      dup8\n      and\n        /* \"#utility.yul\":7389:7391   */\n      0x20\n        /* \"#utility.yul\":7374:7392   */\n      dup8\n      add\n        /* \"#utility.yul\":7367:7410   */\n      mstore\n        /* \"#utility.yul\":7426:7444   */\n      dup6\n      add\n        /* \"#utility.yul\":7419:7453   */\n      swap4\n      swap1\n      swap4\n      mstore\n        /* \"#utility.yul\":7489:7504   */\n      swap4\n      and\n        /* \"#utility.yul\":7484:7486   */\n      0x60\n        /* \"#utility.yul\":7469:7487   */\n      dup4\n      add\n        /* \"#utility.yul\":7462:7505   */\n      mstore\n        /* \"#utility.yul\":7536:7539   */\n      0x80\n        /* \"#utility.yul\":7521:7540   */\n      dup3\n      add\n        /* \"#utility.yul\":7514:7549   */\n      swap3\n      swap1\n      swap3\n      mstore\n        /* \"#utility.yul\":7593:7607   */\n      swap1\n      iszero\n        /* \"#utility.yul\":7586:7608   */\n      iszero\n        /* \"#utility.yul\":7304:7307   */\n      0xa0\n        /* \"#utility.yul\":7565:7584   */\n      dup3\n      add\n        /* \"#utility.yul\":7558:7609   */\n      mstore\n        /* \"#utility.yul\":7273:7276   */\n      0xc0\n        /* \"#utility.yul\":7258:7277   */\n      add\n        /* \"BidMarketplace.sol\":1087:1130  mapping(uint256 => Listing) public listings */\n      tag_40\n        /* \"#utility.yul\":7005:7615   */\n      jump\n        /* \"BidMarketplace.sol\":13187:13421  function setFeeRecipient(address newFeeRecipient) external onlyOwner {... */\n    tag_26:\n      callvalue\n      dup1\n      iszero\n      tag_156\n      jumpi\n      0x00\n      dup1\n      revert\n    tag_156:\n      pop\n      tag_50\n      tag_158\n      calldatasize\n      0x04\n      tag_86\n      jump\t// in\n    tag_158:\n      tag_159\n      jump\t// in\n        /* \"BidMarketplace.sol\":10305:10621  function cancelOffer(uint256 offerId) external nonReentrant {... */\n    tag_27:\n      callvalue\n      dup1\n      iszero\n      tag_160\n      jumpi\n      0x00\n      dup1\n      revert\n    tag_160:\n      pop\n      tag_50\n      tag_162\n      calldatasize\n      0x04\n      tag_38\n      jump\t// in\n    tag_162:\n      tag_163\n      jump\t// in\n        /* \"@openzeppelin/contracts/access/Ownable.sol\":2543:2758  function transferOwnership(address newOwner) public virtual onlyOwner {... */\n    tag_28:\n      callvalue\n      dup1\n      iszero\n      tag_164\n      jumpi\n      0x00\n      dup1\n      revert\n    tag_164:\n      pop\n      tag_50\n      tag_166\n      calldatasize\n      0x04\n      tag_86\n      jump\t// in\n    tag_166:\n      tag_167\n      jump\t// in\n        /* \"BidMarketplace.sol\":14988:15176  function onERC721Received(... */\n    tag_46:\n      shl(0xe1, 0x0a85bd01)\n    tag_171:\n      swap5\n      swap4\n      pop\n      pop\n      pop\n      pop\n      jump\t// out\n        /* \"BidMarketplace.sol\":13610:13794  function setAllowedPaymentToken(address token, bool allowed) external onlyOwner {... */\n    tag_53:\n        /* \"@openzeppelin/contracts/access/Ownable.sol\":1531:1544  _checkOwner() */\n      tag_173\n        /* \"@openzeppelin/contracts/access/Ownable.sol\":1531:1542  _checkOwner */\n      tag_174\n        /* \"@openzeppelin/contracts/access/Ownable.sol\":1531:1544  _checkOwner() */\n      jump\t// in\n    tag_173:\n      sub(shl(0xa0, 0x01), 0x01)\n        /* \"BidMarketplace.sol\":13700:13727  allowedPaymentTokens[token] */\n      dup3\n      and\n      0x00\n      dup2\n      dup2\n      mstore\n        /* \"BidMarketplace.sol\":13700:13720  allowedPaymentTokens */\n      0x09\n        /* \"BidMarketplace.sol\":13700:13727  allowedPaymentTokens[token] */\n      0x20\n      swap1\n      dup2\n      mstore\n      0x40\n      swap2\n      dup3\n      swap1\n      keccak256\n        /* \"BidMarketplace.sol\":13700:13737  allowedPaymentTokens[token] = allowed */\n      dup1\n      sload\n      not(0xff)\n      and\n      dup6\n      iszero\n      iszero\n      swap1\n      dup2\n      or\n      swap1\n      swap2\n      sstore\n        /* \"BidMarketplace.sol\":13752:13787  PaymentTokenUpdated(token, allowed) */\n      dup3\n      mload\n        /* \"#utility.yul\":7788:7839   */\n      swap4\n      dup5\n      mstore\n        /* \"#utility.yul\":7855:7873   */\n      swap1\n      dup4\n      add\n        /* \"#utility.yul\":7848:7898   */\n      mstore\n        /* \"BidMarketplace.sol\":13752:13787  PaymentTokenUpdated(token, allowed) */\n      0x19c6e2fbd27c3204efb106f0081d2d7ffaf44da224ca04fbc0d8a262ba40f555\n      swap2\n        /* \"#utility.yul\":7761:7779   */\n      add\n        /* \"BidMarketplace.sol\":13752:13787  PaymentTokenUpdated(token, allowed) */\n      mload(0x40)\n      dup1\n      swap2\n      sub\n      swap1\n      log1\n        /* \"BidMarketplace.sol\":13610:13794  function setAllowedPaymentToken(address token, bool allowed) external onlyOwner {... */\n      pop\n      pop\n      jump\t// out\n        /* \"BidMarketplace.sol\":14786:14943  function getListingByToken(address nftContract, uint256 tokenId) external view returns (uint256) {... */\n    tag_58:\n      sub(shl(0xa0, 0x01), 0x01)\n        /* \"BidMarketplace.sol\":14900:14927  tokenToListing[nftContract] */\n      dup3\n      and\n        /* \"BidMarketplace.sol\":14874:14881  uint256 */\n      0x00\n        /* \"BidMarketplace.sol\":14900:14927  tokenToListing[nftContract] */\n      swap1\n      dup2\n      mstore\n        /* \"BidMarketplace.sol\":14900:14914  tokenToListing */\n      0x06\n        /* \"BidMarketplace.sol\":14900:14927  tokenToListing[nftContract] */\n      0x20\n      swap1\n      dup2\n      mstore\n      0x40\n      dup1\n      dup4\n      keccak256\n        /* \"BidMarketplace.sol\":14900:14936  tokenToListing[nftContract][tokenId] */\n      dup5\n      dup5\n      mstore\n      swap1\n      swap2\n      mstore\n      swap1\n      keccak256\n      sload\n        /* \"BidMarketplace.sol\":14786:14943  function getListingByToken(address nftContract, uint256 tokenId) external view returns (uint256) {... */\n    tag_178:\n      swap3\n      swap2\n      pop\n      pop\n      jump\t// out\n        /* \"BidMarketplace.sol\":5084:5484  function cancelListing(uint256 listingId) external nonReentrant {... */\n    tag_64:\n        /* \"@openzeppelin/contracts/security/ReentrancyGuard.sol\":2261:2282  _nonReentrantBefore() */\n      tag_180\n        /* \"@openzeppelin/contracts/security/ReentrancyGuard.sol\":2261:2280  _nonReentrantBefore */\n      tag_181\n        /* \"@openzeppelin/contracts/security/ReentrancyGuard.sol\":2261:2282  _nonReentrantBefore() */\n      jump\t// in\n    tag_180:\n        /* \"BidMarketplace.sol\":5158:5181  Listing storage listing */\n      0x00\n        /* \"BidMarketplace.sol\":5184:5203  listings[listingId] */\n      dup2\n      dup2\n      mstore\n        /* \"BidMarketplace.sol\":5184:5192  listings */\n      0x02\n        /* \"BidMarketplace.sol\":5184:5203  listings[listingId] */\n      0x20\n      mstore\n      0x40\n      swap1\n      keccak256\n        /* \"BidMarketplace.sol\":5221:5235  listing.active */\n      0x05\n      dup2\n      add\n      sload\n      0xff\n      and\n        /* \"BidMarketplace.sol\":5213:5258  require(listing.active, \"Listing not active\") */\n      tag_183\n      jumpi\n      mload(0x40)\n      shl(0xe5, 0x461bcd)\n      dup2\n      mstore\n      0x04\n      add\n      tag_184\n      swap1\n      tag_185\n      jump\t// in\n    tag_184:\n      mload(0x40)\n      dup1\n      swap2\n      sub\n      swap1\n      revert\n    tag_183:\n        /* \"BidMarketplace.sol\":5276:5290  listing.seller */\n      dup1\n      sload\n      sub(shl(0xa0, 0x01), 0x01)\n      and\n        /* \"BidMarketplace.sol\":5294:5304  msg.sender */\n      caller\n        /* \"BidMarketplace.sol\":5276:5304  listing.seller == msg.sender */\n      eq\n        /* \"BidMarketplace.sol\":5268:5319  require(listing.seller == msg.sender, \"Not seller\") */\n      tag_186\n      jumpi\n      mload(0x40)\n      shl(0xe5, 0x461bcd)\n      dup2\n      mstore\n        /* \"#utility.yul\":8458:8460   */\n      0x20\n        /* \"BidMarketplace.sol\":5268:5319  require(listing.seller == msg.sender, \"Not seller\") */\n      0x04\n      dup3\n      add\n        /* \"#utility.yul\":8440:8461   */\n      mstore\n        /* \"#utility.yul\":8497:8499   */\n      0x0a\n        /* \"#utility.yul\":8477:8495   */\n      0x24\n      dup3\n      add\n        /* \"#utility.yul\":8470:8500   */\n      mstore\n      shl(0xb1, 0x2737ba1039b2b63632b9)\n        /* \"#utility.yul\":8516:8534   */\n      0x44\n      dup3\n      add\n        /* \"#utility.yul\":8509:8549   */\n      mstore\n        /* \"#utility.yul\":8566:8584   */\n      0x64\n      add\n        /* \"BidMarketplace.sol\":5268:5319  require(listing.seller == msg.sender, \"Not seller\") */\n      tag_184\n        /* \"#utility.yul\":8256:8590   */\n      jump\n        /* \"BidMarketplace.sol\":5268:5319  require(listing.seller == msg.sender, \"Not seller\") */\n    tag_186:\n        /* \"BidMarketplace.sol\":5338:5352  listing.active */\n      0x05\n      dup2\n      add\n        /* \"BidMarketplace.sol\":5338:5360  listing.active = false */\n      dup1\n      sload\n      not(0xff)\n      and\n      swap1\n      sstore\n      0x01\n        /* \"BidMarketplace.sol\":5385:5404  listing.nftContract */\n      dup2\n      add\n      sload\n      sub(shl(0xa0, 0x01), 0x01)\n      and\n        /* \"BidMarketplace.sol\":5355:5360  false */\n      0x00\n        /* \"BidMarketplace.sol\":5370:5405  tokenToListing[listing.nftContract] */\n      swap1\n      dup2\n      mstore\n        /* \"BidMarketplace.sol\":5370:5384  tokenToListing */\n      0x06\n        /* \"BidMarketplace.sol\":5370:5405  tokenToListing[listing.nftContract] */\n      0x20\n      swap1\n      dup2\n      mstore\n      0x40\n      dup1\n      dup4\n      keccak256\n        /* \"BidMarketplace.sol\":5406:5421  listing.tokenId */\n      0x02\n      dup6\n      add\n      sload\n        /* \"BidMarketplace.sol\":5370:5422  tokenToListing[listing.nftContract][listing.tokenId] */\n      dup5\n      mstore\n      swap1\n      swap2\n      mstore\n      dup1\n      dup3\n      keccak256\n        /* \"BidMarketplace.sol\":5370:5426  tokenToListing[listing.nftContract][listing.tokenId] = 0 */\n      dup3\n      swap1\n      sstore\n        /* \"BidMarketplace.sol\":5450:5477  ListingCancelled(listingId) */\n      mload\n        /* \"BidMarketplace.sol\":5467:5476  listingId */\n      dup4\n      swap2\n        /* \"BidMarketplace.sol\":5450:5477  ListingCancelled(listingId) */\n      0x411aee90354c51b1b04cd563fcab2617142a9d50da19232d888547c8a1b7fd8a\n      swap2\n      log2\n        /* \"BidMarketplace.sol\":5148:5484  {... */\n      pop\n        /* \"@openzeppelin/contracts/security/ReentrancyGuard.sol\":2303:2323  _nonReentrantAfter() */\n      tag_189\n        /* \"@openzeppelin/contracts/security/ReentrancyGuard.sol\":1716:1717  1 */\n      0x01\n        /* \"@openzeppelin/contracts/security/ReentrancyGuard.sol\":2809:2816  _status */\n      0x00\n        /* \"@openzeppelin/contracts/security/ReentrancyGuard.sol\":2809:2831  _status = _NOT_ENTERED */\n      sstore\n        /* \"@openzeppelin/contracts/security/ReentrancyGuard.sol\":2629:2838  function _nonReentrantAfter() private {... */\n      jump\n        /* \"@openzeppelin/contracts/security/ReentrancyGuard.sol\":2303:2323  _nonReentrantAfter() */\n    tag_189:\n        /* \"BidMarketplace.sol\":5084:5484  function cancelListing(uint256 listingId) external nonReentrant {... */\n      pop\n      jump\t// out\n        /* \"BidMarketplace.sol\":6147:8438  function buyListing(uint256 listingId) external payable nonReentrant {... */\n    tag_78:\n        /* \"@openzeppelin/contracts/security/ReentrancyGuard.sol\":2261:2282  _nonReentrantBefore() */\n      tag_195\n        /* \"@openzeppelin/contracts/security/ReentrancyGuard.sol\":2261:2280  _nonReentrantBefore */\n      tag_181\n        /* \"@openzeppelin/contracts/security/ReentrancyGuard.sol\":2261:2282  _nonReentrantBefore() */\n      jump\t// in\n    tag_195:\n        /* \"BidMarketplace.sol\":6226:6249  Listing storage listing */\n      0x00\n        /* \"BidMarketplace.sol\":6252:6271  listings[listingId] */\n      dup2\n      dup2\n      mstore\n        /* \"BidMarketplace.sol\":6252:6260  listings */\n      0x02\n        /* \"BidMarketplace.sol\":6252:6271  listings[listingId] */\n      0x20\n      mstore\n      0x40\n      swap1\n      keccak256\n        /* \"BidMarketplace.sol\":6289:6303  listing.active */\n      0x05\n      dup2\n      add\n      sload\n      0xff\n      and\n        /* \"BidMarketplace.sol\":6281:6326  require(listing.active, \"Listing not active\") */\n      tag_197\n      jumpi\n      mload(0x40)\n      shl(0xe5, 0x461bcd)\n      dup2\n      mstore\n      0x04\n      add\n      tag_184\n      swap1\n      tag_185\n      jump\t// in\n    tag_197:\n        /* \"BidMarketplace.sol\":6414:6428  listing.seller */\n      dup1\n      sload\n      0x01\n        /* \"BidMarketplace.sol\":6365:6384  listing.nftContract */\n      dup3\n      add\n      sload\n        /* \"BidMarketplace.sol\":6394:6409  listing.tokenId */\n      0x02\n      dup4\n      add\n      sload\n        /* \"BidMarketplace.sol\":6357:6410  IERC721(listing.nftContract).ownerOf(listing.tokenId) */\n      mload(0x40)\n      shl(0xe1, 0x31a9108f)\n      dup2\n      mstore\n      0x04\n      dup2\n      add\n        /* \"#utility.yul\":3555:3580   */\n      swap2\n      swap1\n      swap2\n      mstore\n      sub(shl(0xa0, 0x01), 0x01)\n        /* \"BidMarketplace.sol\":6414:6428  listing.seller */\n      swap3\n      dup4\n      and\n      swap3\n        /* \"BidMarketplace.sol\":6365:6384  listing.nftContract */\n      swap1\n      swap2\n      and\n      swap1\n        /* \"BidMarketplace.sol\":6357:6393  IERC721(listing.nftContract).ownerOf */\n      0x6352211e\n      swap1\n        /* \"#utility.yul\":3528:3546   */\n      0x24\n      add\n        /* \"BidMarketplace.sol\":6357:6410  IERC721(listing.nftContract).ownerOf(listing.tokenId) */\n      0x20\n      mload(0x40)\n      dup1\n      dup4\n      sub\n      dup2\n      dup7\n      gas\n      staticcall\n      iszero\n      dup1\n      iszero\n      tag_201\n      jumpi\n      returndatasize\n      0x00\n      dup1\n      returndatacopy\n      revert(0x00, returndatasize)\n    tag_201:\n      pop\n      pop\n      pop\n      pop\n      mload(0x40)\n      returndatasize\n      not(0x1f)\n      0x1f\n      dup3\n      add\n      and\n      dup3\n      add\n      dup1\n      0x40\n      mstore\n      pop\n      dup2\n      add\n      swap1\n      tag_202\n      swap2\n      swap1\n      tag_203\n      jump\t// in\n    tag_202:\n      sub(shl(0xa0, 0x01), 0x01)\n        /* \"BidMarketplace.sol\":6357:6428  IERC721(listing.nftContract).ownerOf(listing.tokenId) == listing.seller */\n      and\n      eq\n        /* \"BidMarketplace.sol\":6336:6481  require(... */\n      tag_204\n      jumpi\n      mload(0x40)\n      shl(0xe5, 0x461bcd)\n      dup2\n      mstore\n        /* \"#utility.yul\":9053:9055   */\n      0x20\n        /* \"BidMarketplace.sol\":6336:6481  require(... */\n      0x04\n      dup3\n      add\n        /* \"#utility.yul\":9035:9056   */\n      mstore\n        /* \"#utility.yul\":9092:9094   */\n      0x1b\n        /* \"#utility.yul\":9072:9090   */\n      0x24\n      dup3\n      add\n        /* \"#utility.yul\":9065:9095   */\n      mstore\n        /* \"#utility.yul\":9131:9160   */\n      0x53656c6c6572206e6f206c6f6e676572206f776e7320746f6b656e0000000000\n        /* \"#utility.yul\":9111:9129   */\n      0x44\n      dup3\n      add\n        /* \"#utility.yul\":9104:9161   */\n      mstore\n        /* \"#utility.yul\":9178:9196   */\n      0x64\n      add\n        /* \"BidMarketplace.sol\":6336:6481  require(... */\n      tag_184\n        /* \"#utility.yul\":8851:9202   */\n      jump\n        /* \"BidMarketplace.sol\":6336:6481  require(... */\n    tag_204:\n        /* \"BidMarketplace.sol\":6516:6529  listing.price */\n      0x04\n      dup2\n      add\n      sload\n        /* \"BidMarketplace.sol\":6556:6570  listing.seller */\n      dup2\n      sload\n        /* \"BidMarketplace.sol\":6638:6648  feePercent */\n      sload(0x07)\n      sub(shl(0xa0, 0x01), 0x01)\n        /* \"BidMarketplace.sol\":6556:6570  listing.seller */\n      swap1\n      swap2\n      and\n      swap1\n        /* \"BidMarketplace.sol\":6500:6513  uint256 price */\n      0x00\n      swap1\n        /* \"BidMarketplace.sol\":1555:1560  10000 */\n      0x2710\n      swap1\n        /* \"BidMarketplace.sol\":6630:6648  price * feePercent */\n      tag_207\n      swap1\n        /* \"BidMarketplace.sol\":6516:6529  listing.price */\n      dup6\n        /* \"BidMarketplace.sol\":6630:6648  price * feePercent */\n      tag_208\n      jump\t// in\n    tag_207:\n        /* \"BidMarketplace.sol\":6629:6667  (price * feePercent) / FEE_DENOMINATOR */\n      tag_209\n      swap2\n      swap1\n      tag_210\n      jump\t// in\n    tag_209:\n        /* \"BidMarketplace.sol\":6615:6667  uint256 fee = (price * feePercent) / FEE_DENOMINATOR */\n      swap1\n      pop\n        /* \"BidMarketplace.sol\":6677:6697  uint256 sellerAmount */\n      0x00\n        /* \"BidMarketplace.sol\":6700:6711  price - fee */\n      tag_211\n        /* \"BidMarketplace.sol\":6615:6667  uint256 fee = (price * feePercent) / FEE_DENOMINATOR */\n      dup3\n        /* \"BidMarketplace.sol\":6700:6705  price */\n      dup6\n        /* \"BidMarketplace.sol\":6700:6711  price - fee */\n      tag_212\n      jump\t// in\n    tag_211:\n        /* \"BidMarketplace.sol\":6762:6782  listing.paymentToken */\n      0x03\n      dup7\n      add\n      sload\n        /* \"BidMarketplace.sol\":6677:6711  uint256 sellerAmount = price - fee */\n      swap1\n      swap2\n      pop\n      sub(shl(0xa0, 0x01), 0x01)\n        /* \"BidMarketplace.sol\":6762:6782  listing.paymentToken */\n      and\n        /* \"BidMarketplace.sol\":6758:8022  if (listing.paymentToken == address(0)) {... */\n      tag_213\n      jumpi\n        /* \"BidMarketplace.sol\":6873:6878  price */\n      dup4\n        /* \"BidMarketplace.sol\":6860:6869  msg.value */\n      callvalue\n        /* \"BidMarketplace.sol\":6860:6878  msg.value >= price */\n      lt\n      iszero\n        /* \"BidMarketplace.sol\":6852:6903  require(msg.value >= price, \"Insufficient payment\") */\n      tag_214\n      jumpi\n      mload(0x40)\n      shl(0xe5, 0x461bcd)\n      dup2\n      mstore\n        /* \"#utility.yul\":10069:10071   */\n      0x20\n        /* \"BidMarketplace.sol\":6852:6903  require(msg.value >= price, \"Insufficient payment\") */\n      0x04\n      dup3\n      add\n        /* \"#utility.yul\":10051:10072   */\n      mstore\n        /* \"#utility.yul\":10108:10110   */\n      0x14\n        /* \"#utility.yul\":10088:10106   */\n      0x24\n      dup3\n      add\n        /* \"#utility.yul\":10081:10111   */\n      mstore\n      shl(0x62, 0x125b9cdd59999a58da595b9d081c185e5b595b9d)\n        /* \"#utility.yul\":10127:10145   */\n      0x44\n      dup3\n      add\n        /* \"#utility.yul\":10120:10170   */\n      mstore\n        /* \"#utility.yul\":10187:10205   */\n      0x64\n      add\n        /* \"BidMarketplace.sol\":6852:6903  require(msg.value >= price, \"Insufficient payment\") */\n      tag_184\n        /* \"#utility.yul\":9867:10211   */\n      jump\n        /* \"BidMarketplace.sol\":6852:6903  require(msg.value >= price, \"Insufficient payment\") */\n    tag_214:\n        /* \"BidMarketplace.sol\":6961:6979  bool successSeller */\n      0x00\n        /* \"BidMarketplace.sol\":6993:6999  seller */\n      dup4\n      sub(shl(0xa0, 0x01), 0x01)\n        /* \"BidMarketplace.sol\":6985:7005  payable(seller).call */\n      and\n        /* \"BidMarketplace.sol\":7013:7025  sellerAmount */\n      dup3\n        /* \"BidMarketplace.sol\":6985:7030  payable(seller).call{value: sellerAmount}(\"\") */\n      mload(0x40)\n      0x00\n      mload(0x40)\n      dup1\n      dup4\n      sub\n      dup2\n      dup6\n      dup8\n      gas\n      call\n      swap3\n      pop\n      pop\n      pop\n      returndatasize\n      dup1\n      0x00\n      dup2\n      eq\n      tag_221\n      jumpi\n      mload(0x40)\n      swap2\n      pop\n      and(add(returndatasize, 0x3f), not(0x1f))\n      dup3\n      add\n      0x40\n      mstore\n      returndatasize\n      dup3\n      mstore\n      returndatasize\n      0x00\n      0x20\n      dup5\n      add\n      returndatacopy\n      jump(tag_220)\n    tag_221:\n      0x60\n      swap2\n      pop\n    tag_220:\n      pop\n        /* \"BidMarketplace.sol\":6960:7030  (bool successSeller, ) = payable(seller).call{value: sellerAmount}(\"\") */\n      pop\n      swap1\n      pop\n        /* \"BidMarketplace.sol\":7052:7065  successSeller */\n      dup1\n        /* \"BidMarketplace.sol\":7044:7095  require(successSeller, \"Transfer to seller failed\") */\n      tag_222\n      jumpi\n      mload(0x40)\n      shl(0xe5, 0x461bcd)\n      dup2\n      mstore\n      0x04\n      add\n      tag_184\n      swap1\n      tag_224\n      jump\t// in\n    tag_222:\n        /* \"BidMarketplace.sol\":7150:7157  fee > 0 */\n      dup3\n      iszero\n        /* \"BidMarketplace.sol\":7146:7316  if (fee > 0) {... */\n      tag_225\n      jumpi\n        /* \"BidMarketplace.sol\":7207:7219  feeRecipient */\n      sload(0x08)\n        /* \"BidMarketplace.sol\":7199:7241  payable(feeRecipient).call{value: fee}(\"\") */\n      mload(0x40)\n        /* \"BidMarketplace.sol\":7178:7193  bool successFee */\n      0x00\n      swap2\n      sub(shl(0xa0, 0x01), 0x01)\n        /* \"BidMarketplace.sol\":7207:7219  feeRecipient */\n      and\n      swap1\n        /* \"BidMarketplace.sol\":7233:7236  fee */\n      dup6\n      swap1\n        /* \"BidMarketplace.sol\":7178:7193  bool successFee */\n      dup4\n        /* \"BidMarketplace.sol\":7199:7241  payable(feeRecipient).call{value: fee}(\"\") */\n      dup2\n        /* \"BidMarketplace.sol\":7178:7193  bool successFee */\n      dup2\n        /* \"BidMarketplace.sol\":7199:7241  payable(feeRecipient).call{value: fee}(\"\") */\n      dup2\n        /* \"BidMarketplace.sol\":7233:7236  fee */\n      dup6\n        /* \"BidMarketplace.sol\":7207:7219  feeRecipient */\n      dup8\n        /* \"BidMarketplace.sol\":7199:7241  payable(feeRecipient).call{value: fee}(\"\") */\n      gas\n      call\n      swap3\n      pop\n      pop\n      pop\n      returndatasize\n      dup1\n      0x00\n      dup2\n      eq\n      tag_229\n      jumpi\n      mload(0x40)\n      swap2\n      pop\n      and(add(returndatasize, 0x3f), not(0x1f))\n      dup3\n      add\n      0x40\n      mstore\n      returndatasize\n      dup3\n      mstore\n      returndatasize\n      0x00\n      0x20\n      dup5\n      add\n      returndatacopy\n      jump(tag_228)\n    tag_229:\n      0x60\n      swap2\n      pop\n    tag_228:\n      pop\n        /* \"BidMarketplace.sol\":7177:7241  (bool successFee, ) = payable(feeRecipient).call{value: fee}(\"\") */\n      pop\n      swap1\n      pop\n        /* \"BidMarketplace.sol\":7267:7277  successFee */\n      dup1\n        /* \"BidMarketplace.sol\":7259:7301  require(successFee, \"Fee transfer failed\") */\n      tag_230\n      jumpi\n      mload(0x40)\n      shl(0xe5, 0x461bcd)\n      dup2\n      mstore\n      0x04\n      add\n      tag_184\n      swap1\n      tag_232\n      jump\t// in\n    tag_230:\n        /* \"BidMarketplace.sol\":7159:7316  {... */\n      pop\n        /* \"BidMarketplace.sol\":7146:7316  if (fee > 0) {... */\n    tag_225:\n        /* \"BidMarketplace.sol\":7387:7392  price */\n      dup5\n        /* \"BidMarketplace.sol\":7375:7384  msg.value */\n      callvalue\n        /* \"BidMarketplace.sol\":7375:7392  msg.value > price */\n      gt\n        /* \"BidMarketplace.sol\":7371:7563  if (msg.value > price) {... */\n      iszero\n      tag_233\n      jumpi\n        /* \"BidMarketplace.sol\":7413:7431  bool successRefund */\n      0x00\n        /* \"BidMarketplace.sol\":7445:7455  msg.sender */\n      caller\n        /* \"BidMarketplace.sol\":7469:7486  msg.value - price */\n      tag_234\n        /* \"BidMarketplace.sol\":7481:7486  price */\n      dup8\n        /* \"BidMarketplace.sol\":7469:7478  msg.value */\n      callvalue\n        /* \"BidMarketplace.sol\":7469:7486  msg.value - price */\n      tag_212\n      jump\t// in\n    tag_234:\n        /* \"BidMarketplace.sol\":7437:7491  payable(msg.sender).call{value: msg.value - price}(\"\") */\n      mload(0x40)\n      0x00\n      dup2\n      dup2\n      dup2\n      dup6\n      dup8\n      gas\n      call\n      swap3\n      pop\n      pop\n      pop\n      returndatasize\n      dup1\n      0x00\n      dup2\n      eq\n      tag_238\n      jumpi\n      mload(0x40)\n      swap2\n      pop\n      and(add(returndatasize, 0x3f), not(0x1f))\n      dup3\n      add\n      0x40\n      mstore\n      returndatasize\n      dup3\n      mstore\n      returndatasize\n      0x00\n      0x20\n      dup5\n      add\n      returndatacopy\n      jump(tag_237)\n    tag_238:\n      0x60\n      swap2\n      pop\n    tag_237:\n      pop\n        /* \"BidMarketplace.sol\":7412:7491  (bool successRefund, ) = payable(msg.sender).call{value: msg.value - price}(\"\") */\n      pop\n      swap1\n      pop\n        /* \"BidMarketplace.sol\":7517:7530  successRefund */\n      dup1\n        /* \"BidMarketplace.sol\":7509:7548  require(successRefund, \"Refund failed\") */\n      tag_239\n      jumpi\n      mload(0x40)\n      shl(0xe5, 0x461bcd)\n      dup2\n      mstore\n        /* \"#utility.yul\":11330:11332   */\n      0x20\n        /* \"BidMarketplace.sol\":7509:7548  require(successRefund, \"Refund failed\") */\n      0x04\n      dup3\n      add\n        /* \"#utility.yul\":11312:11333   */\n      mstore\n        /* \"#utility.yul\":11369:11371   */\n      0x0d\n        /* \"#utility.yul\":11349:11367   */\n      0x24\n      dup3\n      add\n        /* \"#utility.yul\":11342:11372   */\n      mstore\n      shl(0x9a, 0x1499599d5b990819985a5b1959)\n        /* \"#utility.yul\":11388:11406   */\n      0x44\n      dup3\n      add\n        /* \"#utility.yul\":11381:11424   */\n      mstore\n        /* \"#utility.yul\":11441:11459   */\n      0x64\n      add\n        /* \"BidMarketplace.sol\":7509:7548  require(successRefund, \"Refund failed\") */\n      tag_184\n        /* \"#utility.yul\":11128:11465   */\n      jump\n        /* \"BidMarketplace.sol\":7509:7548  require(successRefund, \"Refund failed\") */\n    tag_239:\n        /* \"BidMarketplace.sol\":7394:7563  {... */\n      pop\n        /* \"BidMarketplace.sol\":7371:7563  if (msg.value > price) {... */\n    tag_233:\n        /* \"BidMarketplace.sol\":6798:7573  {... */\n      pop\n        /* \"BidMarketplace.sol\":6758:8022  if (listing.paymentToken == address(0)) {... */\n      jump(tag_242)\n    tag_213:\n        /* \"BidMarketplace.sol\":7642:7662  listing.paymentToken */\n      0x03\n      dup6\n      add\n      sload\n        /* \"BidMarketplace.sol\":7702:7754  token.transferFrom(msg.sender, seller, sellerAmount) */\n      mload(0x40)\n      shl(0xe0, 0x23b872dd)\n      dup2\n      mstore\n      sub(shl(0xa0, 0x01), 0x01)\n        /* \"BidMarketplace.sol\":7642:7662  listing.paymentToken */\n      swap1\n      swap2\n      and\n      swap1\n      dup2\n      swap1\n        /* \"BidMarketplace.sol\":7702:7720  token.transferFrom */\n      0x23b872dd\n      swap1\n        /* \"BidMarketplace.sol\":7702:7754  token.transferFrom(msg.sender, seller, sellerAmount) */\n      tag_243\n      swap1\n        /* \"BidMarketplace.sol\":7721:7731  msg.sender */\n      caller\n      swap1\n        /* \"BidMarketplace.sol\":7733:7739  seller */\n      dup9\n      swap1\n        /* \"BidMarketplace.sol\":7741:7753  sellerAmount */\n      dup8\n      swap1\n        /* \"BidMarketplace.sol\":7702:7754  token.transferFrom(msg.sender, seller, sellerAmount) */\n      0x04\n      add\n      tag_244\n      jump\t// in\n    tag_243:\n      0x20\n      mload(0x40)\n      dup1\n      dup4\n      sub\n      dup2\n      0x00\n      dup8\n      gas\n      call\n      iszero\n      dup1\n      iszero\n      tag_246\n      jumpi\n      returndatasize\n      0x00\n      dup1\n      returndatacopy\n      revert(0x00, returndatasize)\n    tag_246:\n      pop\n      pop\n      pop\n      pop\n      mload(0x40)\n      returndatasize\n      not(0x1f)\n      0x1f\n      dup3\n      add\n      and\n      dup3\n      add\n      dup1\n      0x40\n      mstore\n      pop\n      dup2\n      add\n      swap1\n      tag_247\n      swap2\n      swap1\n      tag_248\n      jump\t// in\n    tag_247:\n        /* \"BidMarketplace.sol\":7677:7813  require(... */\n      tag_249\n      jumpi\n      mload(0x40)\n      shl(0xe5, 0x461bcd)\n      dup2\n      mstore\n      0x04\n      add\n      tag_184\n      swap1\n      tag_224\n      jump\t// in\n    tag_249:\n        /* \"BidMarketplace.sol\":7831:7838  fee > 0 */\n      dup3\n      iszero\n        /* \"BidMarketplace.sol\":7827:8012  if (fee > 0) {... */\n      tag_256\n      jumpi\n        /* \"BidMarketplace.sol\":7918:7930  feeRecipient */\n      sload(0x08)\n        /* \"BidMarketplace.sol\":7887:7936  token.transferFrom(msg.sender, feeRecipient, fee) */\n      mload(0x40)\n      shl(0xe0, 0x23b872dd)\n      dup2\n      mstore\n      sub(shl(0xa0, 0x01), 0x01)\n        /* \"BidMarketplace.sol\":7887:7905  token.transferFrom */\n      dup1\n      dup5\n      and\n      swap3\n      0x23b872dd\n      swap3\n        /* \"BidMarketplace.sol\":7887:7936  token.transferFrom(msg.sender, feeRecipient, fee) */\n      tag_252\n      swap3\n        /* \"BidMarketplace.sol\":7906:7916  msg.sender */\n      caller\n      swap3\n        /* \"BidMarketplace.sol\":7918:7930  feeRecipient */\n      and\n      swap1\n        /* \"BidMarketplace.sol\":7932:7935  fee */\n      dup9\n      swap1\n        /* \"BidMarketplace.sol\":7887:7936  token.transferFrom(msg.sender, feeRecipient, fee) */\n      0x04\n      add\n      tag_244\n      jump\t// in\n    tag_252:\n      0x20\n      mload(0x40)\n      dup1\n      dup4\n      sub\n      dup2\n      0x00\n      dup8\n      gas\n      call\n      iszero\n      dup1\n      iszero\n      tag_254\n      jumpi\n      returndatasize\n      0x00\n      dup1\n      returndatacopy\n      revert(0x00, returndatasize)\n    tag_254:\n      pop\n      pop\n      pop\n      pop\n      mload(0x40)\n      returndatasize\n      not(0x1f)\n      0x1f\n      dup3\n      add\n      and\n      dup3\n      add\n      dup1\n      0x40\n      mstore\n      pop\n      dup2\n      add\n      swap1\n      tag_255\n      swap2\n      swap1\n      tag_248\n      jump\t// in\n    tag_255:\n        /* \"BidMarketplace.sol\":7858:7997  require(... */\n      tag_256\n      jumpi\n      mload(0x40)\n      shl(0xe5, 0x461bcd)\n      dup2\n      mstore\n      0x04\n      add\n      tag_184\n      swap1\n      tag_232\n      jump\t// in\n    tag_256:\n        /* \"BidMarketplace.sol\":7579:8022  {... */\n      pop\n        /* \"BidMarketplace.sol\":6758:8022  if (listing.paymentToken == address(0)) {... */\n    tag_242:\n        /* \"BidMarketplace.sol\":8072:8091  listing.nftContract */\n      0x01\n      dup6\n      add\n      sload\n        /* \"BidMarketplace.sol\":8167:8182  listing.tokenId */\n      0x02\n      dup7\n      add\n      sload\n        /* \"BidMarketplace.sol\":8064:8192  IERC721(listing.nftContract).safeTransferFrom(... */\n      mload(0x40)\n      shl(0xe1, 0x21421707)\n      dup2\n      mstore\n      sub(shl(0xa0, 0x01), 0x01)\n        /* \"BidMarketplace.sol\":8072:8091  listing.nftContract */\n      swap1\n      swap3\n      and\n      swap2\n        /* \"BidMarketplace.sol\":8064:8109  IERC721(listing.nftContract).safeTransferFrom */\n      0x42842e0e\n      swap2\n        /* \"BidMarketplace.sol\":8064:8192  IERC721(listing.nftContract).safeTransferFrom(... */\n      tag_258\n      swap2\n        /* \"BidMarketplace.sol\":8123:8129  seller */\n      dup8\n      swap2\n        /* \"BidMarketplace.sol\":8143:8153  msg.sender */\n      caller\n      swap2\n        /* \"BidMarketplace.sol\":8064:8192  IERC721(listing.nftContract).safeTransferFrom(... */\n      0x04\n      add\n      tag_244\n      jump\t// in\n    tag_258:\n      0x00\n      mload(0x40)\n      dup1\n      dup4\n      sub\n      dup2\n      0x00\n      dup8\n      dup1\n      extcodesize\n      iszero\n      dup1\n      iszero\n      tag_259\n      jumpi\n      0x00\n      dup1\n      revert\n    tag_259:\n      pop\n      gas\n      call\n      iszero\n      dup1\n      iszero\n      tag_261\n      jumpi\n      returndatasize\n      0x00\n      dup1\n      returndatacopy\n      revert(0x00, returndatasize)\n    tag_261:\n      pop\n      pop\n      pop\n      pop\n        /* \"BidMarketplace.sol\":8239:8253  listing.active */\n      0x05\n      dup6\n      add\n        /* \"BidMarketplace.sol\":8239:8261  listing.active = false */\n      dup1\n      sload\n      not(0xff)\n      and\n      swap1\n      sstore\n      0x01\n        /* \"BidMarketplace.sol\":8286:8305  listing.nftContract */\n      dup6\n      add\n      dup1\n      sload\n      sub(shl(0xa0, 0x01), 0x01)\n      swap1\n      dup2\n      and\n      0x00\n        /* \"BidMarketplace.sol\":8271:8306  tokenToListing[listing.nftContract] */\n      swap1\n      dup2\n      mstore\n        /* \"BidMarketplace.sol\":8271:8285  tokenToListing */\n      0x06\n        /* \"BidMarketplace.sol\":8271:8306  tokenToListing[listing.nftContract] */\n      0x20\n      swap1\n      dup2\n      mstore\n      0x40\n      dup1\n      dup4\n      keccak256\n        /* \"BidMarketplace.sol\":8307:8322  listing.tokenId */\n      0x02\n      dup12\n      add\n      dup1\n      sload\n        /* \"BidMarketplace.sol\":8271:8323  tokenToListing[listing.nftContract][listing.tokenId] */\n      dup6\n      mstore\n      swap1\n      dup4\n      mstore\n      dup2\n      dup5\n      keccak256\n        /* \"BidMarketplace.sol\":8271:8327  tokenToListing[listing.nftContract][listing.tokenId] = 0 */\n      swap4\n      swap1\n      swap4\n      sstore\n        /* \"BidMarketplace.sol\":8387:8406  listing.nftContract */\n      swap4\n      sload\n        /* \"BidMarketplace.sol\":8408:8423  listing.tokenId */\n      swap2\n      sload\n        /* \"BidMarketplace.sol\":8351:8431  Sold(listingId, msg.sender, seller, listing.nftContract, listing.tokenId, price) */\n      dup5\n      mload\n        /* \"BidMarketplace.sol\":8387:8406  listing.nftContract */\n      swap3\n      dup5\n      and\n        /* \"#utility.yul\":12302:12353   */\n      dup4\n      mstore\n        /* \"#utility.yul\":12369:12387   */\n      swap1\n      dup3\n      add\n        /* \"#utility.yul\":12362:12396   */\n      mstore\n        /* \"#utility.yul\":12412:12430   */\n      swap2\n      dup3\n      add\n        /* \"#utility.yul\":12405:12439   */\n      dup7\n      swap1\n      mstore\n        /* \"BidMarketplace.sol\":8351:8431  Sold(listingId, msg.sender, seller, listing.nftContract, listing.tokenId, price) */\n      dup5\n      and\n      swap1\n        /* \"BidMarketplace.sol\":8367:8377  msg.sender */\n      caller\n      swap1\n        /* \"BidMarketplace.sol\":8356:8365  listingId */\n      dup9\n      swap1\n        /* \"BidMarketplace.sol\":8351:8431  Sold(listingId, msg.sender, seller, listing.nftContract, listing.tokenId, price) */\n      0x87668bf59b21c78084390260eb626847b730caddc5b38199cf1c27ad39954b83\n      swap1\n        /* \"#utility.yul\":12290:12292   */\n      0x60\n        /* \"#utility.yul\":12275:12293   */\n      add\n        /* \"BidMarketplace.sol\":8351:8431  Sold(listingId, msg.sender, seller, listing.nftContract, listing.tokenId, price) */\n      mload(0x40)\n      dup1\n      swap2\n      sub\n      swap1\n      log4\n        /* \"BidMarketplace.sol\":6216:8438  {... */\n      pop\n      pop\n      pop\n      pop\n      pop\n        /* \"@openzeppelin/contracts/security/ReentrancyGuard.sol\":2303:2323  _nonReentrantAfter() */\n      tag_189\n        /* \"@openzeppelin/contracts/security/ReentrancyGuard.sol\":1716:1717  1 */\n      0x01\n        /* \"@openzeppelin/contracts/security/ReentrancyGuard.sol\":2809:2816  _status */\n      0x00\n        /* \"@openzeppelin/contracts/security/ReentrancyGuard.sol\":2809:2831  _status = _NOT_ENTERED */\n      sstore\n        /* \"@openzeppelin/contracts/security/ReentrancyGuard.sol\":2629:2838  function _nonReentrantAfter() private {... */\n      jump\n        /* \"@openzeppelin/contracts/access/Ownable.sol\":2293:2394  function renounceOwnership() public virtual onlyOwner {... */\n    tag_97:\n        /* \"@openzeppelin/contracts/access/Ownable.sol\":1531:1544  _checkOwner() */\n      tag_266\n        /* \"@openzeppelin/contracts/access/Ownable.sol\":1531:1542  _checkOwner */\n      tag_174\n        /* \"@openzeppelin/contracts/access/Ownable.sol\":1531:1544  _checkOwner() */\n      jump\t// in\n    tag_266:\n        /* \"@openzeppelin/contracts/access/Ownable.sol\":2357:2387  _transferOwnership(address(0)) */\n      tag_268\n        /* \"@openzeppelin/contracts/access/Ownable.sol\":2384:2385  0 */\n      0x00\n        /* \"@openzeppelin/contracts/access/Ownable.sol\":2357:2375  _transferOwnership */\n      tag_269\n        /* \"@openzeppelin/contracts/access/Ownable.sol\":2357:2387  _transferOwnership(address(0)) */\n      jump\t// in\n    tag_268:\n        /* \"@openzeppelin/contracts/access/Ownable.sol\":2293:2394  function renounceOwnership() public virtual onlyOwner {... */\n      jump\t// out\n        /* \"BidMarketplace.sol\":12847:13069  function setFeePercent(uint256 newFeePercent) external onlyOwner {... */\n    tag_101:\n        /* \"@openzeppelin/contracts/access/Ownable.sol\":1531:1544  _checkOwner() */\n      tag_271\n        /* \"@openzeppelin/contracts/access/Ownable.sol\":1531:1542  _checkOwner */\n      tag_174\n        /* \"@openzeppelin/contracts/access/Ownable.sol\":1531:1544  _checkOwner() */\n      jump\t// in\n    tag_271:\n        /* \"BidMarketplace.sol\":12947:12951  1000 */\n      0x03e8\n        /* \"BidMarketplace.sol\":12930:12943  newFeePercent */\n      dup2\n        /* \"BidMarketplace.sol\":12930:12951  newFeePercent <= 1000 */\n      gt\n      iszero\n        /* \"BidMarketplace.sol\":12922:12968  require(newFeePercent <= 1000, \"Fee too high\") */\n      tag_273\n      jumpi\n      mload(0x40)\n      shl(0xe5, 0x461bcd)\n      dup2\n      mstore\n        /* \"#utility.yul\":12652:12654   */\n      0x20\n        /* \"BidMarketplace.sol\":12922:12968  require(newFeePercent <= 1000, \"Fee too high\") */\n      0x04\n      dup3\n      add\n        /* \"#utility.yul\":12634:12655   */\n      mstore\n        /* \"#utility.yul\":12691:12693   */\n      0x0c\n        /* \"#utility.yul\":12671:12689   */\n      0x24\n      dup3\n      add\n        /* \"#utility.yul\":12664:12694   */\n      mstore\n      shl(0xa3, 0x08ccaca40e8dede40d0d2ced)\n        /* \"#utility.yul\":12710:12728   */\n      0x44\n      dup3\n      add\n        /* \"#utility.yul\":12703:12745   */\n      mstore\n        /* \"#utility.yul\":12762:12780   */\n      0x64\n      add\n        /* \"BidMarketplace.sol\":12922:12968  require(newFeePercent <= 1000, \"Fee too high\") */\n      tag_184\n        /* \"#utility.yul\":12450:12786   */\n      jump\n        /* \"BidMarketplace.sol\":12922:12968  require(newFeePercent <= 1000, \"Fee too high\") */\n    tag_273:\n        /* \"BidMarketplace.sol\":12989:12999  feePercent */\n      0x07\n        /* \"BidMarketplace.sol\":12989:13015  feePercent = newFeePercent */\n      dup2\n      swap1\n      sstore\n        /* \"BidMarketplace.sol\":13030:13062  FeePercentUpdated(newFeePercent) */\n      mload(0x40)\n        /* \"#utility.yul\":3555:3580   */\n      dup2\n      dup2\n      mstore\n        /* \"BidMarketplace.sol\":13030:13062  FeePercentUpdated(newFeePercent) */\n      0x64d1887078a96d281ed60dd69ba75bfb6b5cd2cb4c2d2538b2eb7816a4c646ea\n      swap1\n        /* \"#utility.yul\":3543:3545   */\n      0x20\n        /* \"#utility.yul\":3528:3546   */\n      add\n        /* \"BidMarketplace.sol\":13030:13062  FeePercentUpdated(newFeePercent) */\n    tag_276:\n      mload(0x40)\n      dup1\n      swap2\n      sub\n      swap1\n      log1\n        /* \"BidMarketplace.sol\":12847:13069  function setFeePercent(uint256 newFeePercent) external onlyOwner {... */\n      pop\n      jump\t// out\n        /* \"BidMarketplace.sol\":3702:4974  function createListing(... */\n    tag_124:\n        /* \"BidMarketplace.sol\":3869:3876  uint256 */\n      0x00\n        /* \"@openzeppelin/contracts/security/ReentrancyGuard.sol\":2261:2282  _nonReentrantBefore() */\n      tag_279\n        /* \"@openzeppelin/contracts/security/ReentrancyGuard.sol\":2261:2280  _nonReentrantBefore */\n      tag_181\n        /* \"@openzeppelin/contracts/security/ReentrancyGuard.sol\":2261:2282  _nonReentrantBefore() */\n      jump\t// in\n    tag_279:\n        /* \"BidMarketplace.sol\":3904:3905  0 */\n      0x00\n        /* \"BidMarketplace.sol\":3896:3901  price */\n      dup3\n        /* \"BidMarketplace.sol\":3896:3905  price > 0 */\n      gt\n        /* \"BidMarketplace.sol\":3888:3927  require(price > 0, \"Price must be > 0\") */\n      tag_281\n      jumpi\n      mload(0x40)\n      shl(0xe5, 0x461bcd)\n      dup2\n      mstore\n      0x04\n      add\n      tag_184\n      swap1\n      tag_283\n      jump\t// in\n    tag_281:\n      sub(shl(0xa0, 0x01), 0x01)\n        /* \"BidMarketplace.sol\":3945:3979  allowedPaymentTokens[paymentToken] */\n      dup4\n      and\n      0x00\n      swap1\n      dup2\n      mstore\n        /* \"BidMarketplace.sol\":3945:3965  allowedPaymentTokens */\n      0x09\n        /* \"BidMarketplace.sol\":3945:3979  allowedPaymentTokens[paymentToken] */\n      0x20\n      mstore\n      0x40\n      swap1\n      keccak256\n      sload\n      0xff\n      and\n        /* \"BidMarketplace.sol\":3937:4009  require(allowedPaymentTokens[paymentToken], \"Payment token not allowed\") */\n      tag_284\n      jumpi\n      mload(0x40)\n      shl(0xe5, 0x461bcd)\n      dup2\n      mstore\n        /* \"#utility.yul\":13339:13341   */\n      0x20\n        /* \"BidMarketplace.sol\":3937:4009  require(allowedPaymentTokens[paymentToken], \"Payment token not allowed\") */\n      0x04\n      dup3\n      add\n        /* \"#utility.yul\":13321:13342   */\n      mstore\n        /* \"#utility.yul\":13378:13380   */\n      0x19\n        /* \"#utility.yul\":13358:13376   */\n      0x24\n      dup3\n      add\n        /* \"#utility.yul\":13351:13381   */\n      mstore\n      shl(0x3a, 0x14185e5b595b9d081d1bdad95b881b9bdd08185b1b1bddd959)\n        /* \"#utility.yul\":13397:13415   */\n      0x44\n      dup3\n      add\n        /* \"#utility.yul\":13390:13445   */\n      mstore\n        /* \"#utility.yul\":13462:13480   */\n      0x64\n      add\n        /* \"BidMarketplace.sol\":3937:4009  require(allowedPaymentTokens[paymentToken], \"Payment token not allowed\") */\n      tag_184\n        /* \"#utility.yul\":13137:13486   */\n      jump\n        /* \"BidMarketplace.sol\":3937:4009  require(allowedPaymentTokens[paymentToken], \"Payment token not allowed\") */\n    tag_284:\n        /* \"BidMarketplace.sol\":4040:4077  IERC721(nftContract).ownerOf(tokenId) */\n      mload(0x40)\n      shl(0xe1, 0x31a9108f)\n      dup2\n      mstore\n      0x04\n      dup2\n      add\n        /* \"#utility.yul\":3555:3580   */\n      dup6\n      swap1\n      mstore\n        /* \"BidMarketplace.sol\":4081:4091  msg.sender */\n      caller\n      swap1\n      sub(shl(0xa0, 0x01), 0x01)\n        /* \"BidMarketplace.sol\":4040:4068  IERC721(nftContract).ownerOf */\n      dup8\n      and\n      swap1\n      0x6352211e\n      swap1\n        /* \"#utility.yul\":3528:3546   */\n      0x24\n      add\n        /* \"BidMarketplace.sol\":4040:4077  IERC721(nftContract).ownerOf(tokenId) */\n      0x20\n      mload(0x40)\n      dup1\n      dup4\n      sub\n      dup2\n      dup7\n      gas\n      staticcall\n      iszero\n      dup1\n      iszero\n      tag_289\n      jumpi\n      returndatasize\n      0x00\n      dup1\n      returndatacopy\n      revert(0x00, returndatasize)\n    tag_289:\n      pop\n      pop\n      pop\n      pop\n      mload(0x40)\n      returndatasize\n      not(0x1f)\n      0x1f\n      dup3\n      add\n      and\n      dup3\n      add\n      dup1\n      0x40\n      mstore\n      pop\n      dup2\n      add\n      swap1\n      tag_290\n      swap2\n      swap1\n      tag_203\n      jump\t// in\n    tag_290:\n      sub(shl(0xa0, 0x01), 0x01)\n        /* \"BidMarketplace.sol\":4040:4091  IERC721(nftContract).ownerOf(tokenId) == msg.sender */\n      and\n      eq\n        /* \"BidMarketplace.sol\":4019:4132  require(... */\n      tag_291\n      jumpi\n      mload(0x40)\n      shl(0xe5, 0x461bcd)\n      dup2\n      mstore\n        /* \"#utility.yul\":13693:13695   */\n      0x20\n        /* \"BidMarketplace.sol\":4019:4132  require(... */\n      0x04\n      dup3\n      add\n        /* \"#utility.yul\":13675:13696   */\n      mstore\n        /* \"#utility.yul\":13732:13734   */\n      0x0f\n        /* \"#utility.yul\":13712:13730   */\n      0x24\n      dup3\n      add\n        /* \"#utility.yul\":13705:13735   */\n      mstore\n      shl(0x89, 0x2737ba103a37b5b2b71037bbb732b9)\n        /* \"#utility.yul\":13751:13769   */\n      0x44\n      dup3\n      add\n        /* \"#utility.yul\":13744:13789   */\n      mstore\n        /* \"#utility.yul\":13806:13824   */\n      0x64\n      add\n        /* \"BidMarketplace.sol\":4019:4132  require(... */\n      tag_184\n        /* \"#utility.yul\":13491:13830   */\n      jump\n        /* \"BidMarketplace.sol\":4019:4132  require(... */\n    tag_291:\n        /* \"BidMarketplace.sol\":4163:4227  IERC721(nftContract).isApprovedForAll(msg.sender, address(this)) */\n      mload(0x40)\n      shl(0xe0, 0xe985e9c5)\n      dup2\n      mstore\n        /* \"BidMarketplace.sol\":4201:4211  msg.sender */\n      caller\n        /* \"BidMarketplace.sol\":4163:4227  IERC721(nftContract).isApprovedForAll(msg.sender, address(this)) */\n      0x04\n      dup3\n      add\n        /* \"#utility.yul\":14047:14081   */\n      mstore\n        /* \"BidMarketplace.sol\":4221:4225  this */\n      address\n        /* \"#utility.yul\":14097:14115   */\n      0x24\n      dup3\n      add\n        /* \"#utility.yul\":14090:14133   */\n      mstore\n      sub(shl(0xa0, 0x01), 0x01)\n        /* \"BidMarketplace.sol\":4163:4200  IERC721(nftContract).isApprovedForAll */\n      dup7\n      and\n      swap1\n      0xe985e9c5\n      swap1\n        /* \"#utility.yul\":13982:14000   */\n      0x44\n      add\n        /* \"BidMarketplace.sol\":4163:4227  IERC721(nftContract).isApprovedForAll(msg.sender, address(this)) */\n      0x20\n      mload(0x40)\n      dup1\n      dup4\n      sub\n      dup2\n      dup7\n      gas\n      staticcall\n      iszero\n      dup1\n      iszero\n      tag_297\n      jumpi\n      returndatasize\n      0x00\n      dup1\n      returndatacopy\n      revert(0x00, returndatasize)\n    tag_297:\n      pop\n      pop\n      pop\n      pop\n      mload(0x40)\n      returndatasize\n      not(0x1f)\n      0x1f\n      dup3\n      add\n      and\n      dup3\n      add\n      dup1\n      0x40\n      mstore\n      pop\n      dup2\n      add\n      swap1\n      tag_298\n      swap2\n      swap1\n      tag_248\n      jump\t// in\n    tag_298:\n        /* \"BidMarketplace.sol\":4163:4301  IERC721(nftContract).isApprovedForAll(msg.sender, address(this)) ||... */\n      dup1\n      tag_299\n      jumpi\n      pop\n        /* \"BidMarketplace.sol\":4243:4284  IERC721(nftContract).getApproved(tokenId) */\n      mload(0x40)\n      shl(0xe2, 0x020604bf)\n      dup2\n      mstore\n      0x04\n      dup2\n      add\n        /* \"#utility.yul\":3555:3580   */\n      dup6\n      swap1\n      mstore\n        /* \"BidMarketplace.sol\":4296:4300  this */\n      address\n      swap1\n      sub(shl(0xa0, 0x01), 0x01)\n        /* \"BidMarketplace.sol\":4243:4275  IERC721(nftContract).getApproved */\n      dup8\n      and\n      swap1\n      0x081812fc\n      swap1\n        /* \"#utility.yul\":3528:3546   */\n      0x24\n      add\n        /* \"BidMarketplace.sol\":4243:4284  IERC721(nftContract).getApproved(tokenId) */\n      0x20\n      mload(0x40)\n      dup1\n      dup4\n      sub\n      dup2\n      dup7\n      gas\n      staticcall\n      iszero\n      dup1\n      iszero\n      tag_302\n      jumpi\n      returndatasize\n      0x00\n      dup1\n      returndatacopy\n      revert(0x00, returndatasize)\n    tag_302:\n      pop\n      pop\n      pop\n      pop\n      mload(0x40)\n      returndatasize\n      not(0x1f)\n      0x1f\n      dup3\n      add\n      and\n      dup3\n      add\n      dup1\n      0x40\n      mstore\n      pop\n      dup2\n      add\n      swap1\n      tag_303\n      swap2\n      swap1\n      tag_203\n      jump\t// in\n    tag_303:\n      sub(shl(0xa0, 0x01), 0x01)\n        /* \"BidMarketplace.sol\":4243:4301  IERC721(nftContract).getApproved(tokenId) == address(this) */\n      and\n      eq\n        /* \"BidMarketplace.sol\":4163:4301  IERC721(nftContract).isApprovedForAll(msg.sender, address(this)) ||... */\n    tag_299:\n        /* \"BidMarketplace.sol\":4142:4351  require(... */\n      tag_304\n      jumpi\n      mload(0x40)\n      shl(0xe5, 0x461bcd)\n      dup2\n      mstore\n        /* \"#utility.yul\":14346:14348   */\n      0x20\n        /* \"BidMarketplace.sol\":4142:4351  require(... */\n      0x04\n      dup3\n      add\n        /* \"#utility.yul\":14328:14349   */\n      mstore\n        /* \"#utility.yul\":14385:14387   */\n      0x18\n        /* \"#utility.yul\":14365:14383   */\n      0x24\n      dup3\n      add\n        /* \"#utility.yul\":14358:14388   */\n      mstore\n      shl(0x42, 0x13585c9ad95d1c1b1858d9481b9bdd08185c1c1c9bdd9959)\n        /* \"#utility.yul\":14404:14422   */\n      0x44\n      dup3\n      add\n        /* \"#utility.yul\":14397:14451   */\n      mstore\n        /* \"#utility.yul\":14468:14486   */\n      0x64\n      add\n        /* \"BidMarketplace.sol\":4142:4351  require(... */\n      tag_184\n        /* \"#utility.yul\":14144:14492   */\n      jump\n        /* \"BidMarketplace.sol\":4142:4351  require(... */\n    tag_304:\n      sub(shl(0xa0, 0x01), 0x01)\n        /* \"BidMarketplace.sol\":4382:4409  tokenToListing[nftContract] */\n      dup6\n      and\n      0x00\n      swap1\n      dup2\n      mstore\n        /* \"BidMarketplace.sol\":4382:4396  tokenToListing */\n      0x06\n        /* \"BidMarketplace.sol\":4382:4409  tokenToListing[nftContract] */\n      0x20\n      swap1\n      dup2\n      mstore\n      0x40\n      dup1\n      dup4\n      keccak256\n        /* \"BidMarketplace.sol\":4382:4418  tokenToListing[nftContract][tokenId] */\n      dup8\n      dup5\n      mstore\n      swap1\n      swap2\n      mstore\n      swap1\n      keccak256\n      sload\n        /* \"BidMarketplace.sol\":4382:4423  tokenToListing[nftContract][tokenId] == 0 */\n      iszero\n        /* \"BidMarketplace.sol\":4361:4463  require(... */\n      tag_307\n      jumpi\n      mload(0x40)\n      shl(0xe5, 0x461bcd)\n      dup2\n      mstore\n        /* \"#utility.yul\":14699:14701   */\n      0x20\n        /* \"BidMarketplace.sol\":4361:4463  require(... */\n      0x04\n      dup3\n      add\n        /* \"#utility.yul\":14681:14702   */\n      mstore\n        /* \"#utility.yul\":14738:14740   */\n      0x0e\n        /* \"#utility.yul\":14718:14736   */\n      0x24\n      dup3\n      add\n        /* \"#utility.yul\":14711:14741   */\n      mstore\n      shl(0x92, 0x105b1c9958591e481b1a5cdd1959)\n        /* \"#utility.yul\":14757:14775   */\n      0x44\n      dup3\n      add\n        /* \"#utility.yul\":14750:14794   */\n      mstore\n        /* \"#utility.yul\":14811:14829   */\n      0x64\n      add\n        /* \"BidMarketplace.sol\":4361:4463  require(... */\n      tag_184\n        /* \"#utility.yul\":14497:14835   */\n      jump\n        /* \"BidMarketplace.sol\":4361:4463  require(... */\n    tag_307:\n        /* \"BidMarketplace.sol\":4482:4499  uint256 listingId */\n      0x00\n        /* \"BidMarketplace.sol\":4504:4517  nextListingId */\n      0x03\n      0x00\n        /* \"BidMarketplace.sol\":4502:4517  ++nextListingId */\n      dup2\n      sload\n      tag_310\n      swap1\n      tag_311\n      jump\t// in\n    tag_310:\n      swap2\n      dup3\n      swap1\n      sstore\n      pop\n        /* \"BidMarketplace.sol\":4558:4769  Listing({... */\n      0x40\n      dup1\n      mload\n      0xc0\n      dup2\n      add\n      dup3\n      mstore\n        /* \"BidMarketplace.sol\":4588:4598  msg.sender */\n      caller\n        /* \"BidMarketplace.sol\":4558:4769  Listing({... */\n      dup1\n      dup3\n      mstore\n      sub(shl(0xa0, 0x01), 0x01)\n      dup11\n      dup2\n      and\n      0x20\n      dup1\n      dup6\n      add\n      dup3\n      dup2\n      mstore\n      dup6\n      dup8\n      add\n      dup14\n      dup2\n      mstore\n      dup13\n      dup6\n      and\n      0x60\n      dup9\n      add\n      swap1\n      dup2\n      mstore\n      0x80\n      dup9\n      add\n      dup14\n      dup2\n      mstore\n        /* \"BidMarketplace.sol\":4754:4758  true */\n      0x01\n        /* \"BidMarketplace.sol\":4558:4769  Listing({... */\n      0xa0\n      dup11\n      add\n      dup2\n      dup2\n      mstore\n      0x00\n        /* \"BidMarketplace.sol\":4536:4555  listings[listingId] */\n      dup14\n      dup2\n      mstore\n        /* \"BidMarketplace.sol\":4536:4544  listings */\n      0x02\n        /* \"BidMarketplace.sol\":4536:4555  listings[listingId] */\n      dup1\n      dup10\n      mstore\n      dup14\n      dup3\n      keccak256\n        /* \"BidMarketplace.sol\":4536:4769  listings[listingId] = Listing({... */\n      swap13\n      mload\n      dup14\n      sload\n      swap1\n      dup13\n      and\n      not(sub(shl(0xa0, 0x01), 0x01))\n      swap2\n      dup3\n      and\n      or\n      dup15\n      sstore\n      swap8\n      mload\n      swap4\n      dup14\n      add\n      dup1\n      sload\n      swap5\n      dup13\n      and\n      swap5\n      dup10\n      and\n      swap5\n      swap1\n      swap5\n      or\n      swap1\n      swap4\n      sstore\n      swap5\n      mload\n      swap2\n      dup12\n      add\n      swap2\n      swap1\n      swap2\n      sstore\n      swap2\n      mload\n      0x03\n      dup11\n      add\n      dup1\n      sload\n      swap2\n      swap1\n      swap9\n      and\n      swap5\n      and\n      swap4\n      swap1\n      swap4\n      or\n      swap1\n      swap6\n      sstore\n      swap1\n      mload\n      0x04\n      dup8\n      add\n      sstore\n      swap3\n      mload\n      0x05\n      swap1\n      swap6\n      add\n      dup1\n      sload\n      swap6\n      iszero\n      iszero\n      not(0xff)\n      swap1\n      swap7\n      and\n      swap6\n      swap1\n      swap6\n      or\n      swap1\n      swap5\n      sstore\n        /* \"BidMarketplace.sol\":4788:4815  tokenToListing[nftContract] */\n      dup1\n      dup3\n      mstore\n        /* \"BidMarketplace.sol\":4788:4802  tokenToListing */\n      0x06\n        /* \"BidMarketplace.sol\":4788:4815  tokenToListing[nftContract] */\n      dup5\n      mstore\n      dup5\n      dup3\n      keccak256\n        /* \"BidMarketplace.sol\":4788:4824  tokenToListing[nftContract][tokenId] */\n      dup12\n      dup4\n      mstore\n      swap1\n      swap4\n      mstore\n      dup4\n      swap1\n      keccak256\n        /* \"BidMarketplace.sol\":4788:4836  tokenToListing[nftContract][tokenId] = listingId */\n      dup5\n      swap1\n      sstore\n        /* \"BidMarketplace.sol\":4860:4932  Listed(listingId, msg.sender, nftContract, tokenId, paymentToken, price) */\n      swap2\n      mload\n        /* \"BidMarketplace.sol\":4502:4517  ++nextListingId */\n      swap3\n      swap4\n      pop\n        /* \"BidMarketplace.sol\":4558:4769  Listing({... */\n      swap2\n        /* \"BidMarketplace.sol\":4502:4517  ++nextListingId */\n      dup4\n      swap1\n        /* \"BidMarketplace.sol\":4860:4932  Listed(listingId, msg.sender, nftContract, tokenId, paymentToken, price) */\n      0xf270d40e4ce0790fe62574668b19edbd345bdfc4b0e945ada622c5fe65f3e0c4\n      swap1\n      tag_312\n      swap1\n        /* \"BidMarketplace.sol\":4659:4666  tokenId */\n      dup11\n      swap1\n        /* \"BidMarketplace.sol\":4694:4706  paymentToken */\n      dup11\n      swap1\n        /* \"BidMarketplace.sol\":4727:4732  price */\n      dup11\n      swap1\n        /* \"#utility.yul\":15182:15207   */\n      swap3\n      dup4\n      mstore\n      sub(shl(0xa0, 0x01), 0x01)\n        /* \"#utility.yul\":15243:15275   */\n      swap2\n      swap1\n      swap2\n      and\n        /* \"#utility.yul\":15238:15240   */\n      0x20\n        /* \"#utility.yul\":15223:15241   */\n      dup4\n      add\n        /* \"#utility.yul\":15216:15276   */\n      mstore\n        /* \"#utility.yul\":15307:15309   */\n      0x40\n        /* \"#utility.yul\":15292:15310   */\n      dup3\n      add\n        /* \"#utility.yul\":15285:15319   */\n      mstore\n        /* \"#utility.yul\":15170:15172   */\n      0x60\n        /* \"#utility.yul\":15155:15173   */\n      add\n      swap1\n        /* \"#utility.yul\":14980:15325   */\n      jump\n        /* \"BidMarketplace.sol\":4860:4932  Listed(listingId, msg.sender, nftContract, tokenId, paymentToken, price) */\n    tag_312:\n      mload(0x40)\n      dup1\n      swap2\n      sub\n      swap1\n      log4\n        /* \"BidMarketplace.sol\":4958:4967  listingId */\n      swap1\n      pop\n        /* \"@openzeppelin/contracts/security/ReentrancyGuard.sol\":2303:2323  _nonReentrantAfter() */\n      tag_171\n        /* \"@openzeppelin/contracts/security/ReentrancyGuard.sol\":1716:1717  1 */\n      0x01\n        /* \"@openzeppelin/contracts/security/ReentrancyGuard.sol\":2809:2816  _status */\n      0x00\n        /* \"@openzeppelin/contracts/security/ReentrancyGuard.sol\":2809:2831  _status = _NOT_ENTERED */\n      sstore\n        /* \"@openzeppelin/contracts/security/ReentrancyGuard.sol\":2629:2838  function _nonReentrantAfter() private {... */\n      jump\n        /* \"BidMarketplace.sol\":5621:6040  function updateListingPrice(uint256 listingId, uint256 newPrice) external nonReentrant {... */\n    tag_130:\n        /* \"@openzeppelin/contracts/security/ReentrancyGuard.sol\":2261:2282  _nonReentrantBefore() */\n      tag_316\n        /* \"@openzeppelin/contracts/security/ReentrancyGuard.sol\":2261:2280  _nonReentrantBefore */\n      tag_181\n        /* \"@openzeppelin/contracts/security/ReentrancyGuard.sol\":2261:2282  _nonReentrantBefore() */\n      jump\t// in\n    tag_316:\n        /* \"BidMarketplace.sol\":5718:5741  Listing storage listing */\n      0x00\n        /* \"BidMarketplace.sol\":5744:5763  listings[listingId] */\n      dup3\n      dup2\n      mstore\n        /* \"BidMarketplace.sol\":5744:5752  listings */\n      0x02\n        /* \"BidMarketplace.sol\":5744:5763  listings[listingId] */\n      0x20\n      mstore\n      0x40\n      swap1\n      keccak256\n        /* \"BidMarketplace.sol\":5781:5795  listing.active */\n      0x05\n      dup2\n      add\n      sload\n      0xff\n      and\n        /* \"BidMarketplace.sol\":5773:5818  require(listing.active, \"Listing not active\") */\n      tag_318\n      jumpi\n      mload(0x40)\n      shl(0xe5, 0x461bcd)\n      dup2\n      mstore\n      0x04\n      add\n      tag_184\n      swap1\n      tag_185\n      jump\t// in\n    tag_318:\n        /* \"BidMarketplace.sol\":5836:5850  listing.seller */\n      dup1\n      sload\n      sub(shl(0xa0, 0x01), 0x01)\n      and\n        /* \"BidMarketplace.sol\":5854:5864  msg.sender */\n      caller\n        /* \"BidMarketplace.sol\":5836:5864  listing.seller == msg.sender */\n      eq\n        /* \"BidMarketplace.sol\":5828:5879  require(listing.seller == msg.sender, \"Not seller\") */\n      tag_320\n      jumpi\n      mload(0x40)\n      shl(0xe5, 0x461bcd)\n      dup2\n      mstore\n        /* \"#utility.yul\":8458:8460   */\n      0x20\n        /* \"BidMarketplace.sol\":5828:5879  require(listing.seller == msg.sender, \"Not seller\") */\n      0x04\n      dup3\n      add\n        /* \"#utility.yul\":8440:8461   */\n      mstore\n        /* \"#utility.yul\":8497:8499   */\n      0x0a\n        /* \"#utility.yul\":8477:8495   */\n      0x24\n      dup3\n      add\n        /* \"#utility.yul\":8470:8500   */\n      mstore\n      shl(0xb1, 0x2737ba1039b2b63632b9)\n        /* \"#utility.yul\":8516:8534   */\n      0x44\n      dup3\n      add\n        /* \"#utility.yul\":8509:8549   */\n      mstore\n        /* \"#utility.yul\":8566:8584   */\n      0x64\n      add\n        /* \"BidMarketplace.sol\":5828:5879  require(listing.seller == msg.sender, \"Not seller\") */\n      tag_184\n        /* \"#utility.yul\":8256:8590   */\n      jump\n        /* \"BidMarketplace.sol\":5828:5879  require(listing.seller == msg.sender, \"Not seller\") */\n    tag_320:\n        /* \"BidMarketplace.sol\":5908:5909  0 */\n      0x00\n        /* \"BidMarketplace.sol\":5897:5905  newPrice */\n      dup3\n        /* \"BidMarketplace.sol\":5897:5909  newPrice > 0 */\n      gt\n        /* \"BidMarketplace.sol\":5889:5931  require(newPrice > 0, \"Price must be > 0\") */\n      tag_322\n      jumpi\n      mload(0x40)\n      shl(0xe5, 0x461bcd)\n      dup2\n      mstore\n      0x04\n      add\n      tag_184\n      swap1\n      tag_283\n      jump\t// in\n    tag_322:\n        /* \"BidMarketplace.sol\":5950:5963  listing.price */\n      0x04\n      dup2\n      add\n        /* \"BidMarketplace.sol\":5950:5974  listing.price = newPrice */\n      dup3\n      swap1\n      sstore\n        /* \"BidMarketplace.sol\":5998:6033  ListingUpdated(listingId, newPrice) */\n      mload(0x40)\n        /* \"#utility.yul\":3555:3580   */\n      dup3\n      dup2\n      mstore\n        /* \"BidMarketplace.sol\":6013:6022  listingId */\n      dup4\n      swap1\n        /* \"BidMarketplace.sol\":5998:6033  ListingUpdated(listingId, newPrice) */\n      0x66bcde9f7aec9b81719a4fdec54cbafbf6c834d1f2f989d9cd2134dab8d0c0de\n      swap1\n        /* \"#utility.yul\":3543:3545   */\n      0x20\n        /* \"#utility.yul\":3528:3546   */\n      add\n        /* \"BidMarketplace.sol\":5998:6033  ListingUpdated(listingId, newPrice) */\n      mload(0x40)\n      dup1\n      swap2\n      sub\n      swap1\n      log2\n        /* \"BidMarketplace.sol\":5708:6040  {... */\n      pop\n        /* \"@openzeppelin/contracts/security/ReentrancyGuard.sol\":2303:2323  _nonReentrantAfter() */\n      tag_325\n        /* \"@openzeppelin/contracts/security/ReentrancyGuard.sol\":1716:1717  1 */\n      0x01\n        /* \"@openzeppelin/contracts/security/ReentrancyGuard.sol\":2809:2816  _status */\n      0x00\n        /* \"@openzeppelin/contracts/security/ReentrancyGuard.sol\":2809:2831  _status = _NOT_ENTERED */\n      sstore\n        /* \"@openzeppelin/contracts/security/ReentrancyGuard.sol\":2629:2838  function _nonReentrantAfter() private {... */\n      jump\n        /* \"@openzeppelin/contracts/security/ReentrancyGuard.sol\":2303:2323  _nonReentrantAfter() */\n    tag_325:\n        /* \"BidMarketplace.sol\":5621:6040  function updateListingPrice(uint256 listingId, uint256 newPrice) external nonReentrant {... */\n      pop\n      pop\n      jump\t// out\n        /* \"BidMarketplace.sol\":10757:12653  function acceptOffer(uint256 offerId) external nonReentrant {... */\n    tag_134:\n        /* \"@openzeppelin/contracts/security/ReentrancyGuard.sol\":2261:2282  _nonReentrantBefore() */\n      tag_327\n        /* \"@openzeppelin/contracts/security/ReentrancyGuard.sol\":2261:2280  _nonReentrantBefore */\n      tag_181\n        /* \"@openzeppelin/contracts/security/ReentrancyGuard.sol\":2261:2282  _nonReentrantBefore() */\n      jump\t// in\n    tag_327:\n        /* \"BidMarketplace.sol\":10827:10846  Offer storage offer */\n      0x00\n        /* \"BidMarketplace.sol\":10849:10864  offers[offerId] */\n      dup2\n      dup2\n      mstore\n        /* \"BidMarketplace.sol\":10849:10855  offers */\n      0x04\n        /* \"BidMarketplace.sol\":10849:10864  offers[offerId] */\n      0x20\n      mstore\n      0x40\n      swap1\n      keccak256\n        /* \"BidMarketplace.sol\":10882:10894  offer.active */\n      0x06\n      dup2\n      add\n      sload\n      0xff\n      and\n        /* \"BidMarketplace.sol\":10874:10915  require(offer.active, \"Offer not active\") */\n      tag_329\n      jumpi\n      mload(0x40)\n      shl(0xe5, 0x461bcd)\n      dup2\n      mstore\n        /* \"#utility.yul\":15532:15534   */\n      0x20\n        /* \"BidMarketplace.sol\":10874:10915  require(offer.active, \"Offer not active\") */\n      0x04\n      dup3\n      add\n        /* \"#utility.yul\":15514:15535   */\n      mstore\n        /* \"#utility.yul\":15571:15573   */\n      0x10\n        /* \"#utility.yul\":15551:15569   */\n      0x24\n      dup3\n      add\n        /* \"#utility.yul\":15544:15574   */\n      mstore\n      shl(0x80, 0x4f66666572206e6f7420616374697665)\n        /* \"#utility.yul\":15590:15608   */\n      0x44\n      dup3\n      add\n        /* \"#utility.yul\":15583:15629   */\n      mstore\n        /* \"#utility.yul\":15646:15664   */\n      0x64\n      add\n        /* \"BidMarketplace.sol\":10874:10915  require(offer.active, \"Offer not active\") */\n      tag_184\n        /* \"#utility.yul\":15330:15670   */\n      jump\n        /* \"BidMarketplace.sol\":10874:10915  require(offer.active, \"Offer not active\") */\n    tag_329:\n        /* \"BidMarketplace.sol\":10952:10957  offer */\n      dup1\n        /* \"BidMarketplace.sol\":10952:10967  offer.expiresAt */\n      0x05\n      add\n      sload\n        /* \"BidMarketplace.sol\":10933:10948  block.timestamp */\n      timestamp\n        /* \"BidMarketplace.sol\":10933:10967  block.timestamp <= offer.expiresAt */\n      gt\n      iszero\n        /* \"BidMarketplace.sol\":10925:10985  require(block.timestamp <= offer.expiresAt, \"Offer expired\") */\n      tag_332\n      jumpi\n      mload(0x40)\n      shl(0xe5, 0x461bcd)\n      dup2\n      mstore\n        /* \"#utility.yul\":15877:15879   */\n      0x20\n        /* \"BidMarketplace.sol\":10925:10985  require(block.timestamp <= offer.expiresAt, \"Offer expired\") */\n      0x04\n      dup3\n      add\n        /* \"#utility.yul\":15859:15880   */\n      mstore\n        /* \"#utility.yul\":15916:15918   */\n      0x0d\n        /* \"#utility.yul\":15896:15914   */\n      0x24\n      dup3\n      add\n        /* \"#utility.yul\":15889:15919   */\n      mstore\n      shl(0x9a, 0x13d999995c88195e1c1a5c9959)\n        /* \"#utility.yul\":15935:15953   */\n      0x44\n      dup3\n      add\n        /* \"#utility.yul\":15928:15971   */\n      mstore\n        /* \"#utility.yul\":15988:16006   */\n      0x64\n      add\n        /* \"BidMarketplace.sol\":10925:10985  require(block.timestamp <= offer.expiresAt, \"Offer expired\") */\n      tag_184\n        /* \"#utility.yul\":15675:16012   */\n      jump\n        /* \"BidMarketplace.sol\":10925:10985  require(block.timestamp <= offer.expiresAt, \"Offer expired\") */\n    tag_332:\n        /* \"BidMarketplace.sol\":11024:11041  offer.nftContract */\n      0x01\n      dup2\n      add\n      sload\n        /* \"BidMarketplace.sol\":11051:11064  offer.tokenId */\n      0x02\n      dup3\n      add\n      sload\n        /* \"BidMarketplace.sol\":11016:11065  IERC721(offer.nftContract).ownerOf(offer.tokenId) */\n      mload(0x40)\n      shl(0xe1, 0x31a9108f)\n      dup2\n      mstore\n      0x04\n      dup2\n      add\n        /* \"#utility.yul\":3555:3580   */\n      swap2\n      swap1\n      swap2\n      mstore\n        /* \"BidMarketplace.sol\":11069:11079  msg.sender */\n      caller\n      swap2\n      sub(shl(0xa0, 0x01), 0x01)\n        /* \"BidMarketplace.sol\":11024:11041  offer.nftContract */\n      and\n      swap1\n        /* \"BidMarketplace.sol\":11016:11050  IERC721(offer.nftContract).ownerOf */\n      0x6352211e\n      swap1\n        /* \"#utility.yul\":3528:3546   */\n      0x24\n      add\n        /* \"BidMarketplace.sol\":11016:11065  IERC721(offer.nftContract).ownerOf(offer.tokenId) */\n      0x20\n      mload(0x40)\n      dup1\n      dup4\n      sub\n      dup2\n      dup7\n      gas\n      staticcall\n      iszero\n      dup1\n      iszero\n      tag_337\n      jumpi\n      returndatasize\n      0x00\n      dup1\n      returndatacopy\n      revert(0x00, returndatasize)\n    tag_337:\n      pop\n      pop\n      pop\n      pop\n      mload(0x40)\n      returndatasize\n      not(0x1f)\n      0x1f\n      dup3\n      add\n      and\n      dup3\n      add\n      dup1\n      0x40\n      mstore\n      pop\n      dup2\n      add\n      swap1\n      tag_338\n      swap2\n      swap1\n      tag_203\n      jump\t// in\n    tag_338:\n      sub(shl(0xa0, 0x01), 0x01)\n        /* \"BidMarketplace.sol\":11016:11079  IERC721(offer.nftContract).ownerOf(offer.tokenId) == msg.sender */\n      and\n      eq\n        /* \"BidMarketplace.sol\":10995:11120  require(... */\n      tag_339\n      jumpi\n      mload(0x40)\n      shl(0xe5, 0x461bcd)\n      dup2\n      mstore\n        /* \"#utility.yul\":13693:13695   */\n      0x20\n        /* \"BidMarketplace.sol\":10995:11120  require(... */\n      0x04\n      dup3\n      add\n        /* \"#utility.yul\":13675:13696   */\n      mstore\n        /* \"#utility.yul\":13732:13734   */\n      0x0f\n        /* \"#utility.yul\":13712:13730   */\n      0x24\n      dup3\n      add\n        /* \"#utility.yul\":13705:13735   */\n      mstore\n      shl(0x89, 0x2737ba103a37b5b2b71037bbb732b9)\n        /* \"#utility.yul\":13751:13769   */\n      0x44\n      dup3\n      add\n        /* \"#utility.yul\":13744:13789   */\n      mstore\n        /* \"#utility.yul\":13806:13824   */\n      0x64\n      add\n        /* \"BidMarketplace.sol\":10995:11120  require(... */\n      tag_184\n        /* \"#utility.yul\":13491:13830   */\n      jump\n        /* \"BidMarketplace.sol\":10995:11120  require(... */\n    tag_339:\n        /* \"BidMarketplace.sol\":11159:11176  offer.nftContract */\n      0x01\n      dup2\n      add\n      sload\n        /* \"BidMarketplace.sol\":11151:11221  IERC721(offer.nftContract).isApprovedForAll(msg.sender, address(this)) */\n      mload(0x40)\n      shl(0xe0, 0xe985e9c5)\n      dup2\n      mstore\n        /* \"BidMarketplace.sol\":11195:11205  msg.sender */\n      caller\n        /* \"BidMarketplace.sol\":11151:11221  IERC721(offer.nftContract).isApprovedForAll(msg.sender, address(this)) */\n      0x04\n      dup3\n      add\n        /* \"#utility.yul\":14047:14081   */\n      mstore\n        /* \"BidMarketplace.sol\":11215:11219  this */\n      address\n        /* \"#utility.yul\":14097:14115   */\n      0x24\n      dup3\n      add\n        /* \"#utility.yul\":14090:14133   */\n      mstore\n      sub(shl(0xa0, 0x01), 0x01)\n        /* \"BidMarketplace.sol\":11159:11176  offer.nftContract */\n      swap1\n      swap2\n      and\n      swap1\n        /* \"BidMarketplace.sol\":11151:11194  IERC721(offer.nftContract).isApprovedForAll */\n      0xe985e9c5\n      swap1\n        /* \"#utility.yul\":13982:14000   */\n      0x44\n      add\n        /* \"BidMarketplace.sol\":11151:11221  IERC721(offer.nftContract).isApprovedForAll(msg.sender, address(this)) */\n      0x20\n      mload(0x40)\n      dup1\n      dup4\n      sub\n      dup2\n      dup7\n      gas\n      staticcall\n      iszero\n      dup1\n      iszero\n      tag_343\n      jumpi\n      returndatasize\n      0x00\n      dup1\n      returndatacopy\n      revert(0x00, returndatasize)\n    tag_343:\n      pop\n      pop\n      pop\n      pop\n      mload(0x40)\n      returndatasize\n      not(0x1f)\n      0x1f\n      dup3\n      add\n      and\n      dup3\n      add\n      dup1\n      0x40\n      mstore\n      pop\n      dup2\n      add\n      swap1\n      tag_344\n      swap2\n      swap1\n      tag_248\n      jump\t// in\n    tag_344:\n        /* \"BidMarketplace.sol\":11151:11307  IERC721(offer.nftContract).isApprovedForAll(msg.sender, address(this)) ||... */\n      dup1\n      tag_345\n      jumpi\n      pop\n        /* \"BidMarketplace.sol\":11245:11262  offer.nftContract */\n      0x01\n      dup2\n      add\n      sload\n        /* \"BidMarketplace.sol\":11276:11289  offer.tokenId */\n      0x02\n      dup3\n      add\n      sload\n        /* \"BidMarketplace.sol\":11237:11290  IERC721(offer.nftContract).getApproved(offer.tokenId) */\n      mload(0x40)\n      shl(0xe2, 0x020604bf)\n      dup2\n      mstore\n      0x04\n      dup2\n      add\n        /* \"#utility.yul\":3555:3580   */\n      swap2\n      swap1\n      swap2\n      mstore\n        /* \"BidMarketplace.sol\":11302:11306  this */\n      address\n      swap2\n      sub(shl(0xa0, 0x01), 0x01)\n        /* \"BidMarketplace.sol\":11245:11262  offer.nftContract */\n      and\n      swap1\n        /* \"BidMarketplace.sol\":11237:11275  IERC721(offer.nftContract).getApproved */\n      0x081812fc\n      swap1\n        /* \"#utility.yul\":3528:3546   */\n      0x24\n      add\n        /* \"BidMarketplace.sol\":11237:11290  IERC721(offer.nftContract).getApproved(offer.tokenId) */\n      0x20\n      mload(0x40)\n      dup1\n      dup4\n      sub\n      dup2\n      dup7\n      gas\n      staticcall\n      iszero\n      dup1\n      iszero\n      tag_348\n      jumpi\n      returndatasize\n      0x00\n      dup1\n      returndatacopy\n      revert(0x00, returndatasize)\n    tag_348:\n      pop\n      pop\n      pop\n      pop\n      mload(0x40)\n      returndatasize\n      not(0x1f)\n      0x1f\n      dup3\n      add\n      and\n      dup3\n      add\n      dup1\n      0x40\n      mstore\n      pop\n      dup2\n      add\n      swap1\n      tag_349\n      swap2\n      swap1\n      tag_203\n      jump\t// in\n    tag_349:\n      sub(shl(0xa0, 0x01), 0x01)\n        /* \"BidMarketplace.sol\":11237:11307  IERC721(offer.nftContract).getApproved(offer.tokenId) == address(this) */\n      and\n      eq\n        /* \"BidMarketplace.sol\":11151:11307  IERC721(offer.nftContract).isApprovedForAll(msg.sender, address(this)) ||... */\n    tag_345:\n        /* \"BidMarketplace.sol\":11130:11357  require(... */\n      tag_350\n      jumpi\n      mload(0x40)\n      shl(0xe5, 0x461bcd)\n      dup2\n      mstore\n        /* \"#utility.yul\":14346:14348   */\n      0x20\n        /* \"BidMarketplace.sol\":11130:11357  require(... */\n      0x04\n      dup3\n      add\n        /* \"#utility.yul\":14328:14349   */\n      mstore\n        /* \"#utility.yul\":14385:14387   */\n      0x18\n        /* \"#utility.yul\":14365:14383   */\n      0x24\n      dup3\n      add\n        /* \"#utility.yul\":14358:14388   */\n      mstore\n      shl(0x42, 0x13585c9ad95d1c1b1858d9481b9bdd08185c1c1c9bdd9959)\n        /* \"#utility.yul\":14404:14422   */\n      0x44\n      dup3\n      add\n        /* \"#utility.yul\":14397:14451   */\n      mstore\n        /* \"#utility.yul\":14468:14486   */\n      0x64\n      add\n        /* \"BidMarketplace.sol\":11130:11357  require(... */\n      tag_184\n        /* \"#utility.yul\":14144:14492   */\n      jump\n        /* \"BidMarketplace.sol\":11130:11357  require(... */\n    tag_350:\n        /* \"BidMarketplace.sol\":11392:11403  offer.price */\n      0x04\n      dup2\n      add\n      sload\n        /* \"BidMarketplace.sol\":11429:11440  offer.buyer */\n      dup2\n      sload\n        /* \"BidMarketplace.sol\":11508:11518  feePercent */\n      sload(0x07)\n      sub(shl(0xa0, 0x01), 0x01)\n        /* \"BidMarketplace.sol\":11429:11440  offer.buyer */\n      swap1\n      swap2\n      and\n      swap1\n        /* \"BidMarketplace.sol\":11376:11389  uint256 price */\n      0x00\n      swap1\n        /* \"BidMarketplace.sol\":1555:1560  10000 */\n      0x2710\n      swap1\n        /* \"BidMarketplace.sol\":11500:11518  price * feePercent */\n      tag_352\n      swap1\n        /* \"BidMarketplace.sol\":11392:11403  offer.price */\n      dup6\n        /* \"BidMarketplace.sol\":11500:11518  price * feePercent */\n      tag_208\n      jump\t// in\n    tag_352:\n        /* \"BidMarketplace.sol\":11499:11537  (price * feePercent) / FEE_DENOMINATOR */\n      tag_353\n      swap2\n      swap1\n      tag_210\n      jump\t// in\n    tag_353:\n        /* \"BidMarketplace.sol\":11485:11537  uint256 fee = (price * feePercent) / FEE_DENOMINATOR */\n      swap1\n      pop\n        /* \"BidMarketplace.sol\":11547:11567  uint256 sellerAmount */\n      0x00\n        /* \"BidMarketplace.sol\":11570:11581  price - fee */\n      tag_354\n        /* \"BidMarketplace.sol\":11485:11537  uint256 fee = (price * feePercent) / FEE_DENOMINATOR */\n      dup3\n        /* \"BidMarketplace.sol\":11570:11575  price */\n      dup6\n        /* \"BidMarketplace.sol\":11570:11581  price - fee */\n      tag_212\n      jump\t// in\n    tag_354:\n        /* \"BidMarketplace.sol\":11661:11679  offer.paymentToken */\n      0x03\n      dup7\n      add\n      sload\n        /* \"BidMarketplace.sol\":11711:11762  token.transferFrom(buyer, msg.sender, sellerAmount) */\n      mload(0x40)\n      shl(0xe0, 0x23b872dd)\n      dup2\n      mstore\n        /* \"BidMarketplace.sol\":11547:11581  uint256 sellerAmount = price - fee */\n      swap2\n      swap3\n      pop\n      sub(shl(0xa0, 0x01), 0x01)\n        /* \"BidMarketplace.sol\":11661:11679  offer.paymentToken */\n      and\n      swap1\n      dup2\n      swap1\n        /* \"BidMarketplace.sol\":11711:11729  token.transferFrom */\n      0x23b872dd\n      swap1\n        /* \"BidMarketplace.sol\":11711:11762  token.transferFrom(buyer, msg.sender, sellerAmount) */\n      tag_355\n      swap1\n        /* \"BidMarketplace.sol\":11730:11735  buyer */\n      dup8\n      swap1\n        /* \"BidMarketplace.sol\":11737:11747  msg.sender */\n      caller\n      swap1\n        /* \"BidMarketplace.sol\":11547:11581  uint256 sellerAmount = price - fee */\n      dup8\n      swap1\n        /* \"BidMarketplace.sol\":11711:11762  token.transferFrom(buyer, msg.sender, sellerAmount) */\n      0x04\n      add\n      tag_244\n      jump\t// in\n    tag_355:\n      0x20\n      mload(0x40)\n      dup1\n      dup4\n      sub\n      dup2\n      0x00\n      dup8\n      gas\n      call\n      iszero\n      dup1\n      iszero\n      tag_357\n      jumpi\n      returndatasize\n      0x00\n      dup1\n      returndatacopy\n      revert(0x00, returndatasize)\n    tag_357:\n      pop\n      pop\n      pop\n      pop\n      mload(0x40)\n      returndatasize\n      not(0x1f)\n      0x1f\n      dup3\n      add\n      and\n      dup3\n      add\n      dup1\n      0x40\n      mstore\n      pop\n      dup2\n      add\n      swap1\n      tag_358\n      swap2\n      swap1\n      tag_248\n      jump\t// in\n    tag_358:\n        /* \"BidMarketplace.sol\":11690:11813  require(... */\n      tag_359\n      jumpi\n      mload(0x40)\n      shl(0xe5, 0x461bcd)\n      dup2\n      mstore\n      0x04\n      add\n      tag_184\n      swap1\n      tag_224\n      jump\t// in\n    tag_359:\n        /* \"BidMarketplace.sol\":11827:11834  fee > 0 */\n      dup3\n      iszero\n        /* \"BidMarketplace.sol\":11823:11983  if (fee > 0) {... */\n      tag_366\n      jumpi\n        /* \"BidMarketplace.sol\":11901:11913  feeRecipient */\n      sload(0x08)\n        /* \"BidMarketplace.sol\":11875:11919  token.transferFrom(buyer, feeRecipient, fee) */\n      mload(0x40)\n      shl(0xe0, 0x23b872dd)\n      dup2\n      mstore\n      sub(shl(0xa0, 0x01), 0x01)\n        /* \"BidMarketplace.sol\":11875:11893  token.transferFrom */\n      dup1\n      dup5\n      and\n      swap3\n      0x23b872dd\n      swap3\n        /* \"BidMarketplace.sol\":11875:11919  token.transferFrom(buyer, feeRecipient, fee) */\n      tag_362\n      swap3\n        /* \"BidMarketplace.sol\":11894:11899  buyer */\n      dup10\n      swap3\n        /* \"BidMarketplace.sol\":11901:11913  feeRecipient */\n      and\n      swap1\n        /* \"BidMarketplace.sol\":11915:11918  fee */\n      dup9\n      swap1\n        /* \"BidMarketplace.sol\":11875:11919  token.transferFrom(buyer, feeRecipient, fee) */\n      0x04\n      add\n      tag_244\n      jump\t// in\n    tag_362:\n      0x20\n      mload(0x40)\n      dup1\n      dup4\n      sub\n      dup2\n      0x00\n      dup8\n      gas\n      call\n      iszero\n      dup1\n      iszero\n      tag_364\n      jumpi\n      returndatasize\n      0x00\n      dup1\n      returndatacopy\n      revert(0x00, returndatasize)\n    tag_364:\n      pop\n      pop\n      pop\n      pop\n      mload(0x40)\n      returndatasize\n      not(0x1f)\n      0x1f\n      dup3\n      add\n      and\n      dup3\n      add\n      dup1\n      0x40\n      mstore\n      pop\n      dup2\n      add\n      swap1\n      tag_365\n      swap2\n      swap1\n      tag_248\n      jump\t// in\n    tag_365:\n        /* \"BidMarketplace.sol\":11850:11972  require(... */\n      tag_366\n      jumpi\n      mload(0x40)\n      shl(0xe5, 0x461bcd)\n      dup2\n      mstore\n      0x04\n      add\n      tag_184\n      swap1\n      tag_232\n      jump\t// in\n    tag_366:\n        /* \"BidMarketplace.sol\":12042:12059  offer.nftContract */\n      0x01\n      dup7\n      add\n      sload\n        /* \"BidMarketplace.sol\":12134:12147  offer.tokenId */\n      0x02\n      dup8\n      add\n      sload\n        /* \"BidMarketplace.sol\":12034:12157  IERC721(offer.nftContract).safeTransferFrom(... */\n      mload(0x40)\n      shl(0xe1, 0x21421707)\n      dup2\n      mstore\n      sub(shl(0xa0, 0x01), 0x01)\n        /* \"BidMarketplace.sol\":12042:12059  offer.nftContract */\n      swap1\n      swap3\n      and\n      swap2\n        /* \"BidMarketplace.sol\":12034:12077  IERC721(offer.nftContract).safeTransferFrom */\n      0x42842e0e\n      swap2\n        /* \"BidMarketplace.sol\":12034:12157  IERC721(offer.nftContract).safeTransferFrom(... */\n      tag_368\n      swap2\n        /* \"BidMarketplace.sol\":12091:12101  msg.sender */\n      caller\n      swap2\n        /* \"BidMarketplace.sol\":12115:12120  buyer */\n      dup10\n      swap2\n        /* \"BidMarketplace.sol\":12034:12157  IERC721(offer.nftContract).safeTransferFrom(... */\n      0x04\n      add\n      tag_244\n      jump\t// in\n    tag_368:\n      0x00\n      mload(0x40)\n      dup1\n      dup4\n      sub\n      dup2\n      0x00\n      dup8\n      dup1\n      extcodesize\n      iszero\n      dup1\n      iszero\n      tag_369\n      jumpi\n      0x00\n      dup1\n      revert\n    tag_369:\n      pop\n      gas\n      call\n      iszero\n      dup1\n      iszero\n      tag_371\n      jumpi\n      returndatasize\n      0x00\n      dup1\n      returndatacopy\n      revert(0x00, returndatasize)\n    tag_371:\n      pop\n      pop\n      pop\n      pop\n        /* \"BidMarketplace.sol\":12204:12216  offer.active */\n      0x06\n      dup7\n      dup2\n      add\n        /* \"BidMarketplace.sol\":12204:12224  offer.active = false */\n      dup1\n      sload\n      not(0xff)\n      and\n      swap1\n      sstore\n      0x01\n        /* \"BidMarketplace.sol\":12323:12340  offer.nftContract */\n      dup8\n      add\n      sload\n      sub(shl(0xa0, 0x01), 0x01)\n      and\n      0x00\n        /* \"BidMarketplace.sol\":12308:12341  tokenToListing[offer.nftContract] */\n      swap1\n      dup2\n      mstore\n      0x20\n      swap2\n      dup3\n      mstore\n      0x40\n      dup1\n      dup3\n      keccak256\n        /* \"BidMarketplace.sol\":12342:12355  offer.tokenId */\n      0x02\n      dup11\n      add\n      sload\n        /* \"BidMarketplace.sol\":12308:12356  tokenToListing[offer.nftContract][offer.tokenId] */\n      dup4\n      mstore\n      swap1\n      swap3\n      mstore\n      keccak256\n      sload\n        /* \"BidMarketplace.sol\":12370:12384  listingId != 0 */\n      dup1\n      iszero\n      dup1\n      iszero\n      swap1\n        /* \"BidMarketplace.sol\":12370:12414  listingId != 0 && listings[listingId].active */\n      tag_372\n      jumpi\n      pop\n        /* \"BidMarketplace.sol\":12388:12407  listings[listingId] */\n      0x00\n      dup2\n      dup2\n      mstore\n        /* \"BidMarketplace.sol\":12388:12396  listings */\n      0x02\n        /* \"BidMarketplace.sol\":12388:12407  listings[listingId] */\n      0x20\n      mstore\n      0x40\n      swap1\n      keccak256\n        /* \"BidMarketplace.sol\":12388:12414  listings[listingId].active */\n      0x05\n      add\n      sload\n      0xff\n      and\n        /* \"BidMarketplace.sol\":12370:12414  listingId != 0 && listings[listingId].active */\n    tag_372:\n        /* \"BidMarketplace.sol\":12366:12541  if (listingId != 0 && listings[listingId].active) {... */\n      iszero\n      tag_373\n      jumpi\n        /* \"BidMarketplace.sol\":12459:12464  false */\n      0x00\n        /* \"BidMarketplace.sol\":12430:12449  listings[listingId] */\n      dup2\n      dup2\n      mstore\n        /* \"BidMarketplace.sol\":12430:12438  listings */\n      0x02\n        /* \"BidMarketplace.sol\":12430:12449  listings[listingId] */\n      0x20\n      dup2\n      dup2\n      mstore\n      0x40\n      dup1\n      dup5\n      keccak256\n        /* \"BidMarketplace.sol\":12430:12456  listings[listingId].active */\n      0x05\n      add\n        /* \"BidMarketplace.sol\":12430:12464  listings[listingId].active = false */\n      dup1\n      sload\n      not(0xff)\n      and\n      swap1\n      sstore\n      0x01\n        /* \"BidMarketplace.sol\":12493:12510  offer.nftContract */\n      dup12\n      add\n      sload\n      sub(shl(0xa0, 0x01), 0x01)\n      and\n        /* \"BidMarketplace.sol\":12478:12511  tokenToListing[offer.nftContract] */\n      dup5\n      mstore\n        /* \"BidMarketplace.sol\":12478:12492  tokenToListing */\n      0x06\n        /* \"BidMarketplace.sol\":12478:12511  tokenToListing[offer.nftContract] */\n      dup3\n      mstore\n      dup1\n      dup5\n      keccak256\n        /* \"BidMarketplace.sol\":12512:12525  offer.tokenId */\n      swap3\n      dup12\n      add\n      sload\n        /* \"BidMarketplace.sol\":12478:12526  tokenToListing[offer.nftContract][offer.tokenId] */\n      dup5\n      mstore\n      swap2\n      swap1\n      mstore\n      dup2\n      keccak256\n        /* \"BidMarketplace.sol\":12478:12530  tokenToListing[offer.nftContract][offer.tokenId] = 0 */\n      sstore\n        /* \"BidMarketplace.sol\":12366:12541  if (listingId != 0 && listings[listingId].active) {... */\n    tag_373:\n        /* \"BidMarketplace.sol\":12606:12623  offer.nftContract */\n      0x01\n      dup8\n      add\n      sload\n        /* \"BidMarketplace.sol\":12625:12638  offer.tokenId */\n      0x02\n      dup9\n      add\n      sload\n        /* \"BidMarketplace.sol\":12564:12646  OfferAccepted(offerId, msg.sender, buyer, offer.nftContract, offer.tokenId, price) */\n      0x40\n      dup1\n      mload\n      sub(shl(0xa0, 0x01), 0x01)\n        /* \"BidMarketplace.sol\":12606:12623  offer.nftContract */\n      swap4\n      dup5\n      and\n        /* \"#utility.yul\":12302:12353   */\n      dup2\n      mstore\n        /* \"#utility.yul\":12384:12386   */\n      0x20\n        /* \"#utility.yul\":12369:12387   */\n      dup2\n      add\n        /* \"#utility.yul\":12362:12396   */\n      swap3\n      swap1\n      swap3\n      mstore\n        /* \"#utility.yul\":12412:12430   */\n      dup2\n      add\n        /* \"#utility.yul\":12405:12439   */\n      dup9\n      swap1\n      mstore\n        /* \"BidMarketplace.sol\":12564:12646  OfferAccepted(offerId, msg.sender, buyer, offer.nftContract, offer.tokenId, price) */\n      swap1\n      dup7\n      and\n      swap1\n        /* \"BidMarketplace.sol\":12587:12597  msg.sender */\n      caller\n      swap1\n        /* \"BidMarketplace.sol\":12578:12585  offerId */\n      dup11\n      swap1\n        /* \"BidMarketplace.sol\":12564:12646  OfferAccepted(offerId, msg.sender, buyer, offer.nftContract, offer.tokenId, price) */\n      0x50df946ee330bf8af17ecc21585649645f3680c032bc659b21e49881bea57f71\n      swap1\n        /* \"#utility.yul\":12290:12292   */\n      0x60\n        /* \"#utility.yul\":12275:12293   */\n      add\n        /* \"BidMarketplace.sol\":12564:12646  OfferAccepted(offerId, msg.sender, buyer, offer.nftContract, offer.tokenId, price) */\n      mload(0x40)\n      dup1\n      swap2\n      sub\n      swap1\n      log4\n        /* \"BidMarketplace.sol\":10817:12653  {... */\n      pop\n      pop\n      pop\n      pop\n      pop\n      pop\n      pop\n        /* \"@openzeppelin/contracts/security/ReentrancyGuard.sol\":2303:2323  _nonReentrantAfter() */\n      tag_189\n        /* \"@openzeppelin/contracts/security/ReentrancyGuard.sol\":1716:1717  1 */\n      0x01\n        /* \"@openzeppelin/contracts/security/ReentrancyGuard.sol\":2809:2816  _status */\n      0x00\n        /* \"@openzeppelin/contracts/security/ReentrancyGuard.sol\":2809:2831  _status = _NOT_ENTERED */\n      sstore\n        /* \"@openzeppelin/contracts/security/ReentrancyGuard.sol\":2629:2838  function _nonReentrantAfter() private {... */\n      jump\n        /* \"BidMarketplace.sol\":14421:14640  function isListed(address nftContract, uint256 tokenId) external view returns (bool) {... */\n    tag_138:\n      sub(shl(0xa0, 0x01), 0x01)\n        /* \"BidMarketplace.sol\":14536:14563  tokenToListing[nftContract] */\n      dup3\n      and\n        /* \"BidMarketplace.sol\":14500:14504  bool */\n      0x00\n        /* \"BidMarketplace.sol\":14536:14563  tokenToListing[nftContract] */\n      swap1\n      dup2\n      mstore\n        /* \"BidMarketplace.sol\":14536:14550  tokenToListing */\n      0x06\n        /* \"BidMarketplace.sol\":14536:14563  tokenToListing[nftContract] */\n      0x20\n      swap1\n      dup2\n      mstore\n      0x40\n      dup1\n      dup4\n      keccak256\n        /* \"BidMarketplace.sol\":14536:14572  tokenToListing[nftContract][tokenId] */\n      dup5\n      dup5\n      mstore\n      swap1\n      swap2\n      mstore\n      dup2\n      keccak256\n      sload\n        /* \"BidMarketplace.sol\":14589:14603  listingId != 0 */\n      dup1\n      iszero\n      dup1\n      iszero\n      swap1\n        /* \"BidMarketplace.sol\":14589:14633  listingId != 0 && listings[listingId].active */\n      tag_171\n      jumpi\n      pop\n        /* \"BidMarketplace.sol\":14607:14626  listings[listingId] */\n      0x00\n      swap1\n      dup2\n      mstore\n        /* \"BidMarketplace.sol\":14607:14615  listings */\n      0x02\n        /* \"BidMarketplace.sol\":14607:14626  listings[listingId] */\n      0x20\n      mstore\n      0x40\n      swap1\n      keccak256\n        /* \"BidMarketplace.sol\":14607:14633  listings[listingId].active */\n      0x05\n      add\n      sload\n      0xff\n      and\n      swap4\n        /* \"BidMarketplace.sol\":14582:14633  return listingId != 0 && listings[listingId].active */\n      swap3\n      pop\n      pop\n      pop\n        /* \"BidMarketplace.sol\":14421:14640  function isListed(address nftContract, uint256 tokenId) external view returns (bool) {... */\n      jump\t// out\n        /* \"BidMarketplace.sol\":8839:10200  function createOffer(... */\n    tag_144:\n        /* \"BidMarketplace.sol\":9030:9037  uint256 */\n      0x00\n        /* \"@openzeppelin/contracts/security/ReentrancyGuard.sol\":2261:2282  _nonReentrantBefore() */\n      tag_379\n        /* \"@openzeppelin/contracts/security/ReentrancyGuard.sol\":2261:2280  _nonReentrantBefore */\n      tag_181\n        /* \"@openzeppelin/contracts/security/ReentrancyGuard.sol\":2261:2282  _nonReentrantBefore() */\n      jump\t// in\n    tag_379:\n        /* \"BidMarketplace.sol\":9065:9066  0 */\n      0x00\n        /* \"BidMarketplace.sol\":9057:9062  price */\n      dup4\n        /* \"BidMarketplace.sol\":9057:9066  price > 0 */\n      gt\n        /* \"BidMarketplace.sol\":9049:9088  require(price > 0, \"Price must be > 0\") */\n      tag_381\n      jumpi\n      mload(0x40)\n      shl(0xe5, 0x461bcd)\n      dup2\n      mstore\n      0x04\n      add\n      tag_184\n      swap1\n      tag_283\n      jump\t// in\n    tag_381:\n      sub(shl(0xa0, 0x01), 0x01)\n        /* \"BidMarketplace.sol\":9106:9132  paymentToken != address(0) */\n      dup5\n      and\n        /* \"BidMarketplace.sol\":9098:9157  require(paymentToken != address(0), \"Use ERC20 for offers\") */\n      tag_383\n      jumpi\n      mload(0x40)\n      shl(0xe5, 0x461bcd)\n      dup2\n      mstore\n        /* \"#utility.yul\":16219:16221   */\n      0x20\n        /* \"BidMarketplace.sol\":9098:9157  require(paymentToken != address(0), \"Use ERC20 for offers\") */\n      0x04\n      dup3\n      add\n        /* \"#utility.yul\":16201:16222   */\n      mstore\n        /* \"#utility.yul\":16258:16260   */\n      0x14\n        /* \"#utility.yul\":16238:16256   */\n      0x24\n      dup3\n      add\n        /* \"#utility.yul\":16231:16261   */\n      mstore\n      shl(0x60, 0x55736520455243323020666f72206f6666657273)\n        /* \"#utility.yul\":16277:16295   */\n      0x44\n      dup3\n      add\n        /* \"#utility.yul\":16270:16320   */\n      mstore\n        /* \"#utility.yul\":16337:16355   */\n      0x64\n      add\n        /* \"BidMarketplace.sol\":9098:9157  require(paymentToken != address(0), \"Use ERC20 for offers\") */\n      tag_184\n        /* \"#utility.yul\":16017:16361   */\n      jump\n        /* \"BidMarketplace.sol\":9098:9157  require(paymentToken != address(0), \"Use ERC20 for offers\") */\n    tag_383:\n      sub(shl(0xa0, 0x01), 0x01)\n        /* \"BidMarketplace.sol\":9175:9209  allowedPaymentTokens[paymentToken] */\n      dup5\n      and\n      0x00\n      swap1\n      dup2\n      mstore\n        /* \"BidMarketplace.sol\":9175:9195  allowedPaymentTokens */\n      0x09\n        /* \"BidMarketplace.sol\":9175:9209  allowedPaymentTokens[paymentToken] */\n      0x20\n      mstore\n      0x40\n      swap1\n      keccak256\n      sload\n      0xff\n      and\n        /* \"BidMarketplace.sol\":9167:9239  require(allowedPaymentTokens[paymentToken], \"Payment token not allowed\") */\n      tag_386\n      jumpi\n      mload(0x40)\n      shl(0xe5, 0x461bcd)\n      dup2\n      mstore\n        /* \"#utility.yul\":13339:13341   */\n      0x20\n        /* \"BidMarketplace.sol\":9167:9239  require(allowedPaymentTokens[paymentToken], \"Payment token not allowed\") */\n      0x04\n      dup3\n      add\n        /* \"#utility.yul\":13321:13342   */\n      mstore\n        /* \"#utility.yul\":13378:13380   */\n      0x19\n        /* \"#utility.yul\":13358:13376   */\n      0x24\n      dup3\n      add\n        /* \"#utility.yul\":13351:13381   */\n      mstore\n      shl(0x3a, 0x14185e5b595b9d081d1bdad95b881b9bdd08185b1b1bddd959)\n        /* \"#utility.yul\":13397:13415   */\n      0x44\n      dup3\n      add\n        /* \"#utility.yul\":13390:13445   */\n      mstore\n        /* \"#utility.yul\":13462:13480   */\n      0x64\n      add\n        /* \"BidMarketplace.sol\":9167:9239  require(allowedPaymentTokens[paymentToken], \"Payment token not allowed\") */\n      tag_184\n        /* \"#utility.yul\":13137:13486   */\n      jump\n        /* \"BidMarketplace.sol\":9167:9239  require(allowedPaymentTokens[paymentToken], \"Payment token not allowed\") */\n    tag_386:\n        /* \"BidMarketplace.sol\":9268:9269  0 */\n      0x00\n        /* \"BidMarketplace.sol\":9257:9265  duration */\n      dup3\n        /* \"BidMarketplace.sol\":9257:9269  duration > 0 */\n      gt\n        /* \"BidMarketplace.sol\":9257:9292  duration > 0 && duration <= 90 days */\n      dup1\n      iszero\n      tag_388\n      jumpi\n      pop\n        /* \"BidMarketplace.sol\":9285:9292  90 days */\n      0x76a700\n        /* \"BidMarketplace.sol\":9273:9281  duration */\n      dup3\n        /* \"BidMarketplace.sol\":9273:9292  duration <= 90 days */\n      gt\n      iszero\n        /* \"BidMarketplace.sol\":9257:9292  duration > 0 && duration <= 90 days */\n    tag_388:\n        /* \"BidMarketplace.sol\":9249:9313  require(duration > 0 && duration <= 90 days, \"Invalid duration\") */\n      tag_389\n      jumpi\n      mload(0x40)\n      shl(0xe5, 0x461bcd)\n      dup2\n      mstore\n        /* \"#utility.yul\":16568:16570   */\n      0x20\n        /* \"BidMarketplace.sol\":9249:9313  require(duration > 0 && duration <= 90 days, \"Invalid duration\") */\n      0x04\n      dup3\n      add\n        /* \"#utility.yul\":16550:16571   */\n      mstore\n        /* \"#utility.yul\":16607:16609   */\n      0x10\n        /* \"#utility.yul\":16587:16605   */\n      0x24\n      dup3\n      add\n        /* \"#utility.yul\":16580:16610   */\n      mstore\n      shl(0x81, 0x24b73b30b634b210323ab930ba34b7b7)\n        /* \"#utility.yul\":16626:16644   */\n      0x44\n      dup3\n      add\n        /* \"#utility.yul\":16619:16665   */\n      mstore\n        /* \"#utility.yul\":16682:16700   */\n      0x64\n      add\n        /* \"BidMarketplace.sol\":9249:9313  require(duration > 0 && duration <= 90 days, \"Invalid duration\") */\n      tag_184\n        /* \"#utility.yul\":16366:16706   */\n      jump\n        /* \"BidMarketplace.sol\":9249:9313  require(duration > 0 && duration <= 90 days, \"Invalid duration\") */\n    tag_389:\n        /* \"BidMarketplace.sol\":9441:9483  token.allowance(msg.sender, address(this)) */\n      mload(0x40)\n      shl(0xe1, 0x6eb1769f)\n      dup2\n      mstore\n        /* \"BidMarketplace.sol\":9457:9467  msg.sender */\n      caller\n        /* \"BidMarketplace.sol\":9441:9483  token.allowance(msg.sender, address(this)) */\n      0x04\n      dup3\n      add\n        /* \"#utility.yul\":14047:14081   */\n      mstore\n        /* \"BidMarketplace.sol\":9477:9481  this */\n      address\n        /* \"#utility.yul\":14097:14115   */\n      0x24\n      dup3\n      add\n        /* \"#utility.yul\":14090:14133   */\n      mstore\n        /* \"BidMarketplace.sol\":9397:9409  paymentToken */\n      dup5\n      swap1\n        /* \"BidMarketplace.sol\":9487:9492  price */\n      dup5\n      swap1\n      sub(shl(0xa0, 0x01), 0x01)\n        /* \"BidMarketplace.sol\":9441:9456  token.allowance */\n      dup4\n      and\n      swap1\n      0xdd62ed3e\n      swap1\n        /* \"#utility.yul\":13982:14000   */\n      0x44\n      add\n        /* \"BidMarketplace.sol\":9441:9483  token.allowance(msg.sender, address(this)) */\n      0x20\n      mload(0x40)\n      dup1\n      dup4\n      sub\n      dup2\n      dup7\n      gas\n      staticcall\n      iszero\n      dup1\n      iszero\n      tag_394\n      jumpi\n      returndatasize\n      0x00\n      dup1\n      returndatacopy\n      revert(0x00, returndatasize)\n    tag_394:\n      pop\n      pop\n      pop\n      pop\n      mload(0x40)\n      returndatasize\n      not(0x1f)\n      0x1f\n      dup3\n      add\n      and\n      dup3\n      add\n      dup1\n      0x40\n      mstore\n      pop\n      dup2\n      add\n      swap1\n      tag_395\n      swap2\n      swap1\n      tag_396\n      jump\t// in\n    tag_395:\n        /* \"BidMarketplace.sol\":9441:9492  token.allowance(msg.sender, address(this)) >= price */\n      lt\n      iszero\n        /* \"BidMarketplace.sol\":9420:9545  require(... */\n      tag_397\n      jumpi\n      mload(0x40)\n      shl(0xe5, 0x461bcd)\n      dup2\n      mstore\n        /* \"#utility.yul\":17102:17104   */\n      0x20\n        /* \"BidMarketplace.sol\":9420:9545  require(... */\n      0x04\n      dup3\n      add\n        /* \"#utility.yul\":17084:17105   */\n      mstore\n        /* \"#utility.yul\":17141:17143   */\n      0x1b\n        /* \"#utility.yul\":17121:17139   */\n      0x24\n      dup3\n      add\n        /* \"#utility.yul\":17114:17144   */\n      mstore\n        /* \"#utility.yul\":17180:17209   */\n      0x496e73756666696369656e7420746f6b656e20617070726f76616c0000000000\n        /* \"#utility.yul\":17160:17178   */\n      0x44\n      dup3\n      add\n        /* \"#utility.yul\":17153:17210   */\n      mstore\n        /* \"#utility.yul\":17227:17245   */\n      0x64\n      add\n        /* \"BidMarketplace.sol\":9420:9545  require(... */\n      tag_184\n        /* \"#utility.yul\":16900:17251   */\n      jump\n        /* \"BidMarketplace.sol\":9420:9545  require(... */\n    tag_397:\n        /* \"BidMarketplace.sol\":9576:9603  token.balanceOf(msg.sender) */\n      mload(0x40)\n      shl(0xe0, 0x70a08231)\n      dup2\n      mstore\n        /* \"BidMarketplace.sol\":9592:9602  msg.sender */\n      caller\n        /* \"BidMarketplace.sol\":9576:9603  token.balanceOf(msg.sender) */\n      0x04\n      dup3\n      add\n        /* \"#utility.yul\":4430:4481   */\n      mstore\n        /* \"BidMarketplace.sol\":9607:9612  price */\n      dup5\n      swap1\n      sub(shl(0xa0, 0x01), 0x01)\n        /* \"BidMarketplace.sol\":9576:9591  token.balanceOf */\n      dup4\n      and\n      swap1\n      0x70a08231\n      swap1\n        /* \"#utility.yul\":4403:4421   */\n      0x24\n      add\n        /* \"BidMarketplace.sol\":9576:9603  token.balanceOf(msg.sender) */\n      0x20\n      mload(0x40)\n      dup1\n      dup4\n      sub\n      dup2\n      dup7\n      gas\n      staticcall\n      iszero\n      dup1\n      iszero\n      tag_402\n      jumpi\n      returndatasize\n      0x00\n      dup1\n      returndatacopy\n      revert(0x00, returndatasize)\n    tag_402:\n      pop\n      pop\n      pop\n      pop\n      mload(0x40)\n      returndatasize\n      not(0x1f)\n      0x1f\n      dup3\n      add\n      and\n      dup3\n      add\n      dup1\n      0x40\n      mstore\n      pop\n      dup2\n      add\n      swap1\n      tag_403\n      swap2\n      swap1\n      tag_396\n      jump\t// in\n    tag_403:\n        /* \"BidMarketplace.sol\":9576:9612  token.balanceOf(msg.sender) >= price */\n      lt\n      iszero\n        /* \"BidMarketplace.sol\":9555:9664  require(... */\n      tag_404\n      jumpi\n      mload(0x40)\n      shl(0xe5, 0x461bcd)\n      dup2\n      mstore\n        /* \"#utility.yul\":17458:17460   */\n      0x20\n        /* \"BidMarketplace.sol\":9555:9664  require(... */\n      0x04\n      dup3\n      add\n        /* \"#utility.yul\":17440:17461   */\n      mstore\n        /* \"#utility.yul\":17497:17499   */\n      0x1a\n        /* \"#utility.yul\":17477:17495   */\n      0x24\n      dup3\n      add\n        /* \"#utility.yul\":17470:17500   */\n      mstore\n        /* \"#utility.yul\":17536:17564   */\n      0x496e73756666696369656e7420746f6b656e2062616c616e6365000000000000\n        /* \"#utility.yul\":17516:17534   */\n      0x44\n      dup3\n      add\n        /* \"#utility.yul\":17509:17565   */\n      mstore\n        /* \"#utility.yul\":17582:17600   */\n      0x64\n      add\n        /* \"BidMarketplace.sol\":9555:9664  require(... */\n      tag_184\n        /* \"#utility.yul\":17256:17606   */\n      jump\n        /* \"BidMarketplace.sol\":9555:9664  require(... */\n    tag_404:\n        /* \"BidMarketplace.sol\":9683:9698  uint256 offerId */\n      0x00\n        /* \"BidMarketplace.sol\":9703:9714  nextOfferId */\n      0x05\n      0x00\n        /* \"BidMarketplace.sol\":9701:9714  ++nextOfferId */\n      dup2\n      sload\n      tag_407\n      swap1\n      tag_311\n      jump\t// in\n    tag_407:\n      swap2\n      dup3\n      swap1\n      sstore\n      pop\n      swap1\n      pop\n        /* \"BidMarketplace.sol\":9724:9741  uint256 expiresAt */\n      0x00\n        /* \"BidMarketplace.sol\":9744:9770  block.timestamp + duration */\n      tag_408\n        /* \"BidMarketplace.sol\":9762:9770  duration */\n      dup6\n        /* \"BidMarketplace.sol\":9744:9759  block.timestamp */\n      timestamp\n        /* \"BidMarketplace.sol\":9744:9770  block.timestamp + duration */\n      tag_409\n      jump\t// in\n    tag_408:\n        /* \"BidMarketplace.sol\":9724:9770  uint256 expiresAt = block.timestamp + duration */\n      swap1\n      pop\n        /* \"BidMarketplace.sol\":9807:10049  Offer({... */\n      mload(0x40)\n      dup1\n      0xe0\n      add\n      0x40\n      mstore\n      dup1\n        /* \"BidMarketplace.sol\":9834:9844  msg.sender */\n      caller\n      sub(shl(0xa0, 0x01), 0x01)\n        /* \"BidMarketplace.sol\":9807:10049  Offer({... */\n      and\n      dup2\n      mstore\n      0x20\n      add\n        /* \"BidMarketplace.sol\":9871:9882  nftContract */\n      dup11\n      sub(shl(0xa0, 0x01), 0x01)\n        /* \"BidMarketplace.sol\":9807:10049  Offer({... */\n      and\n      dup2\n      mstore\n      0x20\n      add\n        /* \"BidMarketplace.sol\":9905:9912  tokenId */\n      dup10\n        /* \"BidMarketplace.sol\":9807:10049  Offer({... */\n      dup2\n      mstore\n      0x20\n      add\n        /* \"BidMarketplace.sol\":9940:9952  paymentToken */\n      dup9\n      sub(shl(0xa0, 0x01), 0x01)\n        /* \"BidMarketplace.sol\":9807:10049  Offer({... */\n      and\n      dup2\n      mstore\n      0x20\n      add\n        /* \"BidMarketplace.sol\":9973:9978  price */\n      dup8\n        /* \"BidMarketplace.sol\":9807:10049  Offer({... */\n      dup2\n      mstore\n      0x20\n      add\n        /* \"BidMarketplace.sol\":10003:10012  expiresAt */\n      dup3\n        /* \"BidMarketplace.sol\":9807:10049  Offer({... */\n      dup2\n      mstore\n      0x20\n      add\n        /* \"BidMarketplace.sol\":10034:10038  true */\n      0x01\n        /* \"BidMarketplace.sol\":9807:10049  Offer({... */\n      iszero\n      iszero\n      dup2\n      mstore\n      pop\n        /* \"BidMarketplace.sol\":9789:9795  offers */\n      0x04\n        /* \"BidMarketplace.sol\":9789:9804  offers[offerId] */\n      0x00\n        /* \"BidMarketplace.sol\":9796:9803  offerId */\n      dup5\n        /* \"BidMarketplace.sol\":9789:9804  offers[offerId] */\n      dup2\n      mstore\n      0x20\n      add\n      swap1\n      dup2\n      mstore\n      0x20\n      add\n      0x00\n      keccak256\n        /* \"BidMarketplace.sol\":9789:10049  offers[offerId] = Offer({... */\n      0x00\n      dup3\n      add\n      mload\n      dup2\n      0x00\n      add\n      exp(0x0100, 0x00)\n      dup2\n      sload\n      dup2\n      sub(shl(0xa0, 0x01), 0x01)\n      mul\n      not\n      and\n      swap1\n      dup4\n      sub(shl(0xa0, 0x01), 0x01)\n      and\n      mul\n      or\n      swap1\n      sstore\n      pop\n      0x20\n      dup3\n      add\n      mload\n      dup2\n      0x01\n      add\n      exp(0x0100, 0x00)\n      dup2\n      sload\n      dup2\n      sub(shl(0xa0, 0x01), 0x01)\n      mul\n      not\n      and\n      swap1\n      dup4\n      sub(shl(0xa0, 0x01), 0x01)\n      and\n      mul\n      or\n      swap1\n      sstore\n      pop\n      0x40\n      dup3\n      add\n      mload\n      dup2\n      0x02\n      add\n      sstore\n      0x60\n      dup3\n      add\n      mload\n      dup2\n      0x03\n      add\n      exp(0x0100, 0x00)\n      dup2\n      sload\n      dup2\n      sub(shl(0xa0, 0x01), 0x01)\n      mul\n      not\n      and\n      swap1\n      dup4\n      sub(shl(0xa0, 0x01), 0x01)\n      and\n      mul\n      or\n      swap1\n      sstore\n      pop\n      0x80\n      dup3\n      add\n      mload\n      dup2\n      0x04\n      add\n      sstore\n      0xa0\n      dup3\n      add\n      mload\n      dup2\n      0x05\n      add\n      sstore\n      0xc0\n      dup3\n      add\n      mload\n      dup2\n      0x06\n      add\n      exp(0x0100, 0x00)\n      dup2\n      sload\n      dup2\n      0xff\n      mul\n      not\n      and\n      swap1\n      dup4\n      iszero\n      iszero\n      mul\n      or\n      swap1\n      sstore\n      pop\n      swap1\n      pop\n      pop\n        /* \"BidMarketplace.sol\":10107:10118  nftContract */\n      dup9\n      sub(shl(0xa0, 0x01), 0x01)\n        /* \"BidMarketplace.sol\":10073:10160  OfferCreated(offerId, msg.sender, nftContract, tokenId, paymentToken, price, expiresAt) */\n      and\n        /* \"BidMarketplace.sol\":10095:10105  msg.sender */\n      caller\n      sub(shl(0xa0, 0x01), 0x01)\n        /* \"BidMarketplace.sol\":10073:10160  OfferCreated(offerId, msg.sender, nftContract, tokenId, paymentToken, price, expiresAt) */\n      and\n        /* \"BidMarketplace.sol\":10086:10093  offerId */\n      dup4\n        /* \"BidMarketplace.sol\":10073:10160  OfferCreated(offerId, msg.sender, nftContract, tokenId, paymentToken, price, expiresAt) */\n      0x07e9214b37f6c5d7654ed3d8cb085c5aba036c579313526cc62a3c9168617c40\n        /* \"BidMarketplace.sol\":10120:10127  tokenId */\n      dup12\n        /* \"BidMarketplace.sol\":10129:10141  paymentToken */\n      dup12\n        /* \"BidMarketplace.sol\":10143:10148  price */\n      dup12\n        /* \"BidMarketplace.sol\":10150:10159  expiresAt */\n      dup8\n        /* \"BidMarketplace.sol\":10073:10160  OfferCreated(offerId, msg.sender, nftContract, tokenId, paymentToken, price, expiresAt) */\n      mload(0x40)\n      tag_410\n      swap5\n      swap4\n      swap3\n      swap2\n      swap1\n        /* \"#utility.yul\":17972:17997   */\n      swap4\n      dup5\n      mstore\n      sub(shl(0xa0, 0x01), 0x01)\n        /* \"#utility.yul\":18033:18065   */\n      swap3\n      swap1\n      swap3\n      and\n        /* \"#utility.yul\":18028:18030   */\n      0x20\n        /* \"#utility.yul\":18013:18031   */\n      dup5\n      add\n        /* \"#utility.yul\":18006:18066   */\n      mstore\n        /* \"#utility.yul\":18097:18099   */\n      0x40\n        /* \"#utility.yul\":18082:18100   */\n      dup4\n      add\n        /* \"#utility.yul\":18075:18109   */\n      mstore\n        /* \"#utility.yul\":18140:18142   */\n      0x60\n        /* \"#utility.yul\":18125:18143   */\n      dup3\n      add\n        /* \"#utility.yul\":18118:18152   */\n      mstore\n        /* \"#utility.yul\":17959:17962   */\n      0x80\n        /* \"#utility.yul\":17944:17963   */\n      add\n      swap1\n        /* \"#utility.yul\":17741:18158   */\n      jump\n        /* \"BidMarketplace.sol\":10073:10160  OfferCreated(offerId, msg.sender, nftContract, tokenId, paymentToken, price, expiresAt) */\n    tag_410:\n      mload(0x40)\n      dup1\n      swap2\n      sub\n      swap1\n      log4\n      pop\n        /* \"BidMarketplace.sol\":10186:10193  offerId */\n      swap2\n      pop\n      pop\n        /* \"@openzeppelin/contracts/security/ReentrancyGuard.sol\":2303:2323  _nonReentrantAfter() */\n      tag_412\n        /* \"@openzeppelin/contracts/security/ReentrancyGuard.sol\":1716:1717  1 */\n      0x01\n        /* \"@openzeppelin/contracts/security/ReentrancyGuard.sol\":2809:2816  _status */\n      0x00\n        /* \"@openzeppelin/contracts/security/ReentrancyGuard.sol\":2809:2831  _status = _NOT_ENTERED */\n      sstore\n        /* \"@openzeppelin/contracts/security/ReentrancyGuard.sol\":2629:2838  function _nonReentrantAfter() private {... */\n      jump\n        /* \"@openzeppelin/contracts/security/ReentrancyGuard.sol\":2303:2323  _nonReentrantAfter() */\n    tag_412:\n        /* \"BidMarketplace.sol\":8839:10200  function createOffer(... */\n      swap6\n      swap5\n      pop\n      pop\n      pop\n      pop\n      pop\n      jump\t// out\n        /* \"BidMarketplace.sol\":13187:13421  function setFeeRecipient(address newFeeRecipient) external onlyOwner {... */\n    tag_159:\n        /* \"@openzeppelin/contracts/access/Ownable.sol\":1531:1544  _checkOwner() */\n      tag_414\n        /* \"@openzeppelin/contracts/access/Ownable.sol\":1531:1542  _checkOwner */\n      tag_174\n        /* \"@openzeppelin/contracts/access/Ownable.sol\":1531:1544  _checkOwner() */\n      jump\t// in\n    tag_414:\n      sub(shl(0xa0, 0x01), 0x01)\n        /* \"BidMarketplace.sol\":13274:13303  newFeeRecipient != address(0) */\n      dup2\n      and\n        /* \"BidMarketplace.sol\":13266:13323  require(newFeeRecipient != address(0), \"Invalid address\") */\n      tag_416\n      jumpi\n      mload(0x40)\n      shl(0xe5, 0x461bcd)\n      dup2\n      mstore\n        /* \"#utility.yul\":18365:18367   */\n      0x20\n        /* \"BidMarketplace.sol\":13266:13323  require(newFeeRecipient != address(0), \"Invalid address\") */\n      0x04\n      dup3\n      add\n        /* \"#utility.yul\":18347:18368   */\n      mstore\n        /* \"#utility.yul\":18404:18406   */\n      0x0f\n        /* \"#utility.yul\":18384:18402   */\n      0x24\n      dup3\n      add\n        /* \"#utility.yul\":18377:18407   */\n      mstore\n      shl(0x88, 0x496e76616c69642061646472657373)\n        /* \"#utility.yul\":18423:18441   */\n      0x44\n      dup3\n      add\n        /* \"#utility.yul\":18416:18461   */\n      mstore\n        /* \"#utility.yul\":18478:18496   */\n      0x64\n      add\n        /* \"BidMarketplace.sol\":13266:13323  require(newFeeRecipient != address(0), \"Invalid address\") */\n      tag_184\n        /* \"#utility.yul\":18163:18502   */\n      jump\n        /* \"BidMarketplace.sol\":13266:13323  require(newFeeRecipient != address(0), \"Invalid address\") */\n    tag_416:\n        /* \"BidMarketplace.sol\":13333:13345  feeRecipient */\n      0x08\n        /* \"BidMarketplace.sol\":13333:13363  feeRecipient = newFeeRecipient */\n      dup1\n      sload\n      not(sub(shl(0xa0, 0x01), 0x01))\n      and\n      sub(shl(0xa0, 0x01), 0x01)\n      dup4\n      and\n      swap1\n      dup2\n      or\n      swap1\n      swap2\n      sstore\n        /* \"BidMarketplace.sol\":13378:13414  FeeRecipientUpdated(newFeeRecipient) */\n      mload(0x40)\n        /* \"#utility.yul\":4430:4481   */\n      swap1\n      dup2\n      mstore\n        /* \"BidMarketplace.sol\":13378:13414  FeeRecipientUpdated(newFeeRecipient) */\n      0x7a7b5a0a132f9e0581eb8527f66eae9ee89c2a3e79d4ac7e41a1f1f4d48a7fc2\n      swap1\n        /* \"#utility.yul\":4418:4420   */\n      0x20\n        /* \"#utility.yul\":4403:4421   */\n      add\n        /* \"BidMarketplace.sol\":13378:13414  FeeRecipientUpdated(newFeeRecipient) */\n      tag_276\n        /* \"#utility.yul\":4284:4487   */\n      jump\n        /* \"BidMarketplace.sol\":10305:10621  function cancelOffer(uint256 offerId) external nonReentrant {... */\n    tag_163:\n        /* \"@openzeppelin/contracts/security/ReentrancyGuard.sol\":2261:2282  _nonReentrantBefore() */\n      tag_421\n        /* \"@openzeppelin/contracts/security/ReentrancyGuard.sol\":2261:2280  _nonReentrantBefore */\n      tag_181\n        /* \"@openzeppelin/contracts/security/ReentrancyGuard.sol\":2261:2282  _nonReentrantBefore() */\n      jump\t// in\n    tag_421:\n        /* \"BidMarketplace.sol\":10375:10394  Offer storage offer */\n      0x00\n        /* \"BidMarketplace.sol\":10397:10412  offers[offerId] */\n      dup2\n      dup2\n      mstore\n        /* \"BidMarketplace.sol\":10397:10403  offers */\n      0x04\n        /* \"BidMarketplace.sol\":10397:10412  offers[offerId] */\n      0x20\n      mstore\n      0x40\n      swap1\n      keccak256\n        /* \"BidMarketplace.sol\":10430:10442  offer.active */\n      0x06\n      dup2\n      add\n      sload\n      0xff\n      and\n        /* \"BidMarketplace.sol\":10422:10463  require(offer.active, \"Offer not active\") */\n      tag_423\n      jumpi\n      mload(0x40)\n      shl(0xe5, 0x461bcd)\n      dup2\n      mstore\n        /* \"#utility.yul\":15532:15534   */\n      0x20\n        /* \"BidMarketplace.sol\":10422:10463  require(offer.active, \"Offer not active\") */\n      0x04\n      dup3\n      add\n        /* \"#utility.yul\":15514:15535   */\n      mstore\n        /* \"#utility.yul\":15571:15573   */\n      0x10\n        /* \"#utility.yul\":15551:15569   */\n      0x24\n      dup3\n      add\n        /* \"#utility.yul\":15544:15574   */\n      mstore\n      shl(0x80, 0x4f66666572206e6f7420616374697665)\n        /* \"#utility.yul\":15590:15608   */\n      0x44\n      dup3\n      add\n        /* \"#utility.yul\":15583:15629   */\n      mstore\n        /* \"#utility.yul\":15646:15664   */\n      0x64\n      add\n        /* \"BidMarketplace.sol\":10422:10463  require(offer.active, \"Offer not active\") */\n      tag_184\n        /* \"#utility.yul\":15330:15670   */\n      jump\n        /* \"BidMarketplace.sol\":10422:10463  require(offer.active, \"Offer not active\") */\n    tag_423:\n        /* \"BidMarketplace.sol\":10481:10492  offer.buyer */\n      dup1\n      sload\n      sub(shl(0xa0, 0x01), 0x01)\n      and\n        /* \"BidMarketplace.sol\":10496:10506  msg.sender */\n      caller\n        /* \"BidMarketplace.sol\":10481:10506  offer.buyer == msg.sender */\n      eq\n        /* \"BidMarketplace.sol\":10473:10528  require(offer.buyer == msg.sender, \"Not offer creator\") */\n      tag_425\n      jumpi\n      mload(0x40)\n      shl(0xe5, 0x461bcd)\n      dup2\n      mstore\n        /* \"#utility.yul\":18709:18711   */\n      0x20\n        /* \"BidMarketplace.sol\":10473:10528  require(offer.buyer == msg.sender, \"Not offer creator\") */\n      0x04\n      dup3\n      add\n        /* \"#utility.yul\":18691:18712   */\n      mstore\n        /* \"#utility.yul\":18748:18750   */\n      0x11\n        /* \"#utility.yul\":18728:18746   */\n      0x24\n      dup3\n      add\n        /* \"#utility.yul\":18721:18751   */\n      mstore\n      shl(0x79, 0x2737ba1037b33332b91031b932b0ba37b9)\n        /* \"#utility.yul\":18767:18785   */\n      0x44\n      dup3\n      add\n        /* \"#utility.yul\":18760:18807   */\n      mstore\n        /* \"#utility.yul\":18824:18842   */\n      0x64\n      add\n        /* \"BidMarketplace.sol\":10473:10528  require(offer.buyer == msg.sender, \"Not offer creator\") */\n      tag_184\n        /* \"#utility.yul\":18507:18848   */\n      jump\n        /* \"BidMarketplace.sol\":10473:10528  require(offer.buyer == msg.sender, \"Not offer creator\") */\n    tag_425:\n        /* \"BidMarketplace.sol\":10547:10559  offer.active */\n      0x06\n      dup2\n      add\n        /* \"BidMarketplace.sol\":10547:10567  offer.active = false */\n      dup1\n      sload\n      not(0xff)\n      and\n      swap1\n      sstore\n        /* \"BidMarketplace.sol\":10591:10614  OfferCancelled(offerId) */\n      mload(0x40)\n        /* \"BidMarketplace.sol\":10606:10613  offerId */\n      dup3\n      swap1\n        /* \"BidMarketplace.sol\":10591:10614  OfferCancelled(offerId) */\n      0xc28b4aed030bfacc245c0501326e1beb8c0ef0d60e4edc21067fdeb52da2a7aa\n      swap1\n        /* \"BidMarketplace.sol\":10562:10567  false */\n      0x00\n      swap1\n        /* \"BidMarketplace.sol\":10591:10614  OfferCancelled(offerId) */\n      log2\n        /* \"BidMarketplace.sol\":10365:10621  {... */\n      pop\n        /* \"@openzeppelin/contracts/security/ReentrancyGuard.sol\":2303:2323  _nonReentrantAfter() */\n      tag_189\n        /* \"@openzeppelin/contracts/security/ReentrancyGuard.sol\":1716:1717  1 */\n      0x01\n        /* \"@openzeppelin/contracts/security/ReentrancyGuard.sol\":2809:2816  _status */\n      0x00\n        /* \"@openzeppelin/contracts/security/ReentrancyGuard.sol\":2809:2831  _status = _NOT_ENTERED */\n      sstore\n        /* \"@openzeppelin/contracts/security/ReentrancyGuard.sol\":2629:2838  function _nonReentrantAfter() private {... */\n      jump\n        /* \"@openzeppelin/contracts/access/Ownable.sol\":2543:2758  function transferOwnership(address newOwner) public virtual onlyOwner {... */\n    tag_167:\n        /* \"@openzeppelin/contracts/access/Ownable.sol\":1531:1544  _checkOwner() */\n      tag_430\n        /* \"@openzeppelin/contracts/access/Ownable.sol\":1531:1542  _checkOwner */\n      tag_174\n        /* \"@openzeppelin/contracts/access/Ownable.sol\":1531:1544  _checkOwner() */\n      jump\t// in\n    tag_430:\n      sub(shl(0xa0, 0x01), 0x01)\n        /* \"@openzeppelin/contracts/access/Ownable.sol\":2627:2649  newOwner == address(0) */\n      dup2\n      and\n        /* \"@openzeppelin/contracts/access/Ownable.sol\":2623:2714  if (newOwner == address(0)) {... */\n      tag_432\n      jumpi\n        /* \"@openzeppelin/contracts/access/Ownable.sol\":2672:2703  OwnableInvalidOwner(address(0)) */\n      mload(0x40)\n      shl(0xe0, 0x1e4fbdf7)\n      dup2\n      mstore\n        /* \"@openzeppelin/contracts/access/Ownable.sol\":2700:2701  0 */\n      0x00\n        /* \"@openzeppelin/contracts/access/Ownable.sol\":2672:2703  OwnableInvalidOwner(address(0)) */\n      0x04\n      dup3\n      add\n        /* \"#utility.yul\":4430:4481   */\n      mstore\n        /* \"#utility.yul\":4403:4421   */\n      0x24\n      add\n        /* \"@openzeppelin/contracts/access/Ownable.sol\":2672:2703  OwnableInvalidOwner(address(0)) */\n      tag_184\n        /* \"#utility.yul\":4284:4487   */\n      jump\n        /* \"@openzeppelin/contracts/access/Ownable.sol\":2623:2714  if (newOwner == address(0)) {... */\n    tag_432:\n        /* \"@openzeppelin/contracts/access/Ownable.sol\":2723:2751  _transferOwnership(newOwner) */\n      tag_189\n        /* \"@openzeppelin/contracts/access/Ownable.sol\":2742:2750  newOwner */\n      dup2\n        /* \"@openzeppelin/contracts/access/Ownable.sol\":2723:2741  _transferOwnership */\n      tag_269\n        /* \"@openzeppelin/contracts/access/Ownable.sol\":2723:2751  _transferOwnership(newOwner) */\n      jump\t// in\n        /* \"@openzeppelin/contracts/access/Ownable.sol\":1796:1958  function _checkOwner() internal view virtual {... */\n    tag_174:\n        /* \"@openzeppelin/contracts/access/Ownable.sol\":1710:1716  _owner */\n      and(sub(shl(0xa0, 0x01), 0x01), sload(0x01))\n        /* \"@openzeppelin/contracts/utils/Context.sol\":735:745  msg.sender */\n      caller\n        /* \"@openzeppelin/contracts/access/Ownable.sol\":1855:1878  owner() != _msgSender() */\n      eq\n        /* \"@openzeppelin/contracts/access/Ownable.sol\":1851:1952  if (owner() != _msgSender()) {... */\n      tag_268\n      jumpi\n        /* \"@openzeppelin/contracts/access/Ownable.sol\":1901:1941  OwnableUnauthorizedAccount(_msgSender()) */\n      mload(0x40)\n      shl(0xe0, 0x118cdaa7)\n      dup2\n      mstore\n        /* \"@openzeppelin/contracts/utils/Context.sol\":735:745  msg.sender */\n      caller\n        /* \"@openzeppelin/contracts/access/Ownable.sol\":1901:1941  OwnableUnauthorizedAccount(_msgSender()) */\n      0x04\n      dup3\n      add\n        /* \"#utility.yul\":4430:4481   */\n      mstore\n        /* \"#utility.yul\":4403:4421   */\n      0x24\n      add\n        /* \"@openzeppelin/contracts/access/Ownable.sol\":1901:1941  OwnableUnauthorizedAccount(_msgSender()) */\n      tag_184\n        /* \"#utility.yul\":4284:4487   */\n      jump\n        /* \"@openzeppelin/contracts/security/ReentrancyGuard.sol\":2336:2623  function _nonReentrantBefore() private {... */\n    tag_181:\n        /* \"@openzeppelin/contracts/security/ReentrancyGuard.sol\":1759:1760  2 */\n      0x02\n        /* \"@openzeppelin/contracts/security/ReentrancyGuard.sol\":2468:2475  _status */\n      sload(0x00)\n        /* \"@openzeppelin/contracts/security/ReentrancyGuard.sol\":2468:2487  _status != _ENTERED */\n      sub\n        /* \"@openzeppelin/contracts/security/ReentrancyGuard.sol\":2460:2523  require(_status != _ENTERED, \"ReentrancyGuard: reentrant call\") */\n      tag_443\n      jumpi\n      mload(0x40)\n      shl(0xe5, 0x461bcd)\n      dup2\n      mstore\n        /* \"#utility.yul\":19055:19057   */\n      0x20\n        /* \"@openzeppelin/contracts/security/ReentrancyGuard.sol\":2460:2523  require(_status != _ENTERED, \"ReentrancyGuard: reentrant call\") */\n      0x04\n      dup3\n      add\n        /* \"#utility.yul\":19037:19058   */\n      mstore\n        /* \"#utility.yul\":19094:19096   */\n      0x1f\n        /* \"#utility.yul\":19074:19092   */\n      0x24\n      dup3\n      add\n        /* \"#utility.yul\":19067:19097   */\n      mstore\n        /* \"#utility.yul\":19133:19166   */\n      0x5265656e7472616e637947756172643a207265656e7472616e742063616c6c00\n        /* \"#utility.yul\":19113:19131   */\n      0x44\n      dup3\n      add\n        /* \"#utility.yul\":19106:19167   */\n      mstore\n        /* \"#utility.yul\":19184:19202   */\n      0x64\n      add\n        /* \"@openzeppelin/contracts/security/ReentrancyGuard.sol\":2460:2523  require(_status != _ENTERED, \"ReentrancyGuard: reentrant call\") */\n      tag_184\n        /* \"#utility.yul\":18853:19208   */\n      jump\n        /* \"@openzeppelin/contracts/security/ReentrancyGuard.sol\":2460:2523  require(_status != _ENTERED, \"ReentrancyGuard: reentrant call\") */\n    tag_443:\n        /* \"@openzeppelin/contracts/security/ReentrancyGuard.sol\":1759:1760  2 */\n      0x02\n        /* \"@openzeppelin/contracts/security/ReentrancyGuard.sol\":2598:2605  _status */\n      0x00\n        /* \"@openzeppelin/contracts/security/ReentrancyGuard.sol\":2598:2616  _status = _ENTERED */\n      sstore\n        /* \"@openzeppelin/contracts/security/ReentrancyGuard.sol\":2336:2623  function _nonReentrantBefore() private {... */\n      jump\t// out\n        /* \"@openzeppelin/contracts/access/Ownable.sol\":2912:3099  function _transferOwnership(address newOwner) internal virtual {... */\n    tag_269:\n        /* \"@openzeppelin/contracts/access/Ownable.sol\":3004:3010  _owner */\n      0x01\n      dup1\n      sload\n      sub(shl(0xa0, 0x01), 0x01)\n        /* \"@openzeppelin/contracts/access/Ownable.sol\":3020:3037  _owner = newOwner */\n      dup4\n      dup2\n      and\n      not(sub(shl(0xa0, 0x01), 0x01))\n      dup4\n      and\n      dup2\n      or\n      swap1\n      swap4\n      sstore\n        /* \"@openzeppelin/contracts/access/Ownable.sol\":3052:3092  OwnershipTransferred(oldOwner, newOwner) */\n      mload(0x40)\n        /* \"@openzeppelin/contracts/access/Ownable.sol\":3004:3010  _owner */\n      swap2\n      and\n      swap2\n        /* \"@openzeppelin/contracts/access/Ownable.sol\":3020:3037  _owner = newOwner */\n      swap1\n        /* \"@openzeppelin/contracts/access/Ownable.sol\":3004:3010  _owner */\n      dup3\n      swap1\n        /* \"@openzeppelin/contracts/access/Ownable.sol\":3052:3092  OwnershipTransferred(oldOwner, newOwner) */\n      0x8be0079c531659141344cd1fd0a4f28419497f9722a3daafe3b4186f6b6457e0\n      swap1\n        /* \"@openzeppelin/contracts/access/Ownable.sol\":2985:3001  address oldOwner */\n      0x00\n      swap1\n        /* \"@openzeppelin/contracts/access/Ownable.sol\":3052:3092  OwnershipTransferred(oldOwner, newOwner) */\n      log3\n        /* \"@openzeppelin/contracts/access/Ownable.sol\":2975:3099  {... */\n      pop\n        /* \"@openzeppelin/contracts/access/Ownable.sol\":2912:3099  function _transferOwnership(address newOwner) internal virtual {... */\n      pop\n      jump\t// out\n        /* \"#utility.yul\":14:194   */\n    tag_38:\n        /* \"#utility.yul\":73:79   */\n      0x00\n        /* \"#utility.yul\":126:128   */\n      0x20\n        /* \"#utility.yul\":114:123   */\n      dup3\n        /* \"#utility.yul\":105:112   */\n      dup5\n        /* \"#utility.yul\":101:124   */\n      sub\n        /* \"#utility.yul\":97:129   */\n      slt\n        /* \"#utility.yul\":94:146   */\n      iszero\n      tag_455\n      jumpi\n        /* \"#utility.yul\":142:143   */\n      0x00\n        /* \"#utility.yul\":139:140   */\n      dup1\n        /* \"#utility.yul\":132:144   */\n      revert\n        /* \"#utility.yul\":94:146   */\n    tag_455:\n      pop\n        /* \"#utility.yul\":165:188   */\n      calldataload\n      swap2\n        /* \"#utility.yul\":14:194   */\n      swap1\n      pop\n      jump\t// out\n        /* \"#utility.yul\":833:964   */\n    tag_449:\n      sub(shl(0xa0, 0x01), 0x01)\n        /* \"#utility.yul\":908:939   */\n      dup2\n      and\n        /* \"#utility.yul\":898:940   */\n      dup2\n      eq\n        /* \"#utility.yul\":888:958   */\n      tag_189\n      jumpi\n        /* \"#utility.yul\":954:955   */\n      0x00\n        /* \"#utility.yul\":951:952   */\n      dup1\n        /* \"#utility.yul\":944:956   */\n      revert\n        /* \"#utility.yul\":969:1096   */\n    tag_450:\n        /* \"#utility.yul\":1030:1040   */\n      0x4e487b71\n        /* \"#utility.yul\":1025:1028   */\n      0xe0\n        /* \"#utility.yul\":1021:1041   */\n      shl\n        /* \"#utility.yul\":1018:1019   */\n      0x00\n        /* \"#utility.yul\":1011:1042   */\n      mstore\n        /* \"#utility.yul\":1061:1065   */\n      0x41\n        /* \"#utility.yul\":1058:1059   */\n      0x04\n        /* \"#utility.yul\":1051:1066   */\n      mstore\n        /* \"#utility.yul\":1085:1089   */\n      0x24\n        /* \"#utility.yul\":1082:1083   */\n      0x00\n        /* \"#utility.yul\":1075:1090   */\n      revert\n        /* \"#utility.yul\":1101:2367   */\n    tag_45:\n        /* \"#utility.yul\":1196:1202   */\n      0x00\n        /* \"#utility.yul\":1204:1210   */\n      dup1\n        /* \"#utility.yul\":1212:1218   */\n      0x00\n        /* \"#utility.yul\":1220:1226   */\n      dup1\n        /* \"#utility.yul\":1273:1276   */\n      0x80\n        /* \"#utility.yul\":1261:1270   */\n      dup6\n        /* \"#utility.yul\":1252:1259   */\n      dup8\n        /* \"#utility.yul\":1248:1271   */\n      sub\n        /* \"#utility.yul\":1244:1277   */\n      slt\n        /* \"#utility.yul\":1241:1294   */\n      iszero\n      tag_461\n      jumpi\n        /* \"#utility.yul\":1290:1291   */\n      0x00\n        /* \"#utility.yul\":1287:1288   */\n      dup1\n        /* \"#utility.yul\":1280:1292   */\n      revert\n        /* \"#utility.yul\":1241:1294   */\n    tag_461:\n        /* \"#utility.yul\":1329:1338   */\n      dup5\n        /* \"#utility.yul\":1316:1339   */\n      calldataload\n        /* \"#utility.yul\":1348:1379   */\n      tag_462\n        /* \"#utility.yul\":1373:1378   */\n      dup2\n        /* \"#utility.yul\":1348:1379   */\n      tag_449\n      jump\t// in\n    tag_462:\n        /* \"#utility.yul\":1398:1403   */\n      swap4\n      pop\n        /* \"#utility.yul\":1455:1457   */\n      0x20\n        /* \"#utility.yul\":1440:1458   */\n      dup6\n      add\n        /* \"#utility.yul\":1427:1459   */\n      calldataload\n        /* \"#utility.yul\":1468:1501   */\n      tag_463\n        /* \"#utility.yul\":1427:1459   */\n      dup2\n        /* \"#utility.yul\":1468:1501   */\n      tag_449\n      jump\t// in\n    tag_463:\n        /* \"#utility.yul\":1520:1527   */\n      swap3\n      pop\n        /* \"#utility.yul\":1574:1576   */\n      0x40\n        /* \"#utility.yul\":1559:1577   */\n      dup6\n      add\n        /* \"#utility.yul\":1546:1578   */\n      calldataload\n      swap2\n      pop\n        /* \"#utility.yul\":1629:1631   */\n      0x60\n        /* \"#utility.yul\":1614:1632   */\n      dup6\n      add\n        /* \"#utility.yul\":1601:1633   */\n      calldataload\n        /* \"#utility.yul\":1652:1670   */\n      0xffffffffffffffff\n        /* \"#utility.yul\":1682:1696   */\n      dup1\n      dup3\n      gt\n        /* \"#utility.yul\":1679:1713   */\n      iszero\n      tag_464\n      jumpi\n        /* \"#utility.yul\":1709:1710   */\n      0x00\n        /* \"#utility.yul\":1706:1707   */\n      dup1\n        /* \"#utility.yul\":1699:1711   */\n      revert\n        /* \"#utility.yul\":1679:1713   */\n    tag_464:\n        /* \"#utility.yul\":1747:1753   */\n      dup2\n        /* \"#utility.yul\":1736:1745   */\n      dup8\n        /* \"#utility.yul\":1732:1754   */\n      add\n        /* \"#utility.yul\":1722:1754   */\n      swap2\n      pop\n        /* \"#utility.yul\":1792:1799   */\n      dup8\n        /* \"#utility.yul\":1785:1789   */\n      0x1f\n        /* \"#utility.yul\":1781:1783   */\n      dup4\n        /* \"#utility.yul\":1777:1790   */\n      add\n        /* \"#utility.yul\":1773:1800   */\n      slt\n        /* \"#utility.yul\":1763:1818   */\n      tag_465\n      jumpi\n        /* \"#utility.yul\":1814:1815   */\n      0x00\n        /* \"#utility.yul\":1811:1812   */\n      dup1\n        /* \"#utility.yul\":1804:1816   */\n      revert\n        /* \"#utility.yul\":1763:1818   */\n    tag_465:\n        /* \"#utility.yul\":1850:1852   */\n      dup2\n        /* \"#utility.yul\":1837:1853   */\n      calldataload\n        /* \"#utility.yul\":1872:1874   */\n      dup2\n        /* \"#utility.yul\":1868:1870   */\n      dup2\n        /* \"#utility.yul\":1865:1875   */\n      gt\n        /* \"#utility.yul\":1862:1898   */\n      iszero\n      tag_467\n      jumpi\n        /* \"#utility.yul\":1878:1896   */\n      tag_467\n      tag_450\n      jump\t// in\n    tag_467:\n        /* \"#utility.yul\":1953:1955   */\n      0x40\n        /* \"#utility.yul\":1947:1956   */\n      mload\n        /* \"#utility.yul\":1921:1923   */\n      0x1f\n        /* \"#utility.yul\":2007:2020   */\n      dup3\n      add\n      not(0x1f)\n        /* \"#utility.yul\":2003:2025   */\n      swap1\n      dup2\n      and\n        /* \"#utility.yul\":2027:2029   */\n      0x3f\n        /* \"#utility.yul\":1999:2030   */\n      add\n        /* \"#utility.yul\":1995:2035   */\n      and\n        /* \"#utility.yul\":1983:2036   */\n      dup2\n      add\n      swap1\n        /* \"#utility.yul\":2051:2069   */\n      dup4\n      dup3\n      gt\n        /* \"#utility.yul\":2071:2093   */\n      dup2\n      dup4\n      lt\n        /* \"#utility.yul\":2048:2094   */\n      or\n        /* \"#utility.yul\":2045:2117   */\n      iszero\n      tag_469\n      jumpi\n        /* \"#utility.yul\":2097:2115   */\n      tag_469\n      tag_450\n      jump\t// in\n    tag_469:\n        /* \"#utility.yul\":2137:2147   */\n      dup2\n        /* \"#utility.yul\":2133:2135   */\n      0x40\n        /* \"#utility.yul\":2126:2148   */\n      mstore\n        /* \"#utility.yul\":2172:2174   */\n      dup3\n        /* \"#utility.yul\":2164:2170   */\n      dup2\n        /* \"#utility.yul\":2157:2175   */\n      mstore\n        /* \"#utility.yul\":2212:2219   */\n      dup11\n        /* \"#utility.yul\":2207:2209   */\n      0x20\n        /* \"#utility.yul\":2202:2204   */\n      dup5\n        /* \"#utility.yul\":2198:2200   */\n      dup8\n        /* \"#utility.yul\":2194:2205   */\n      add\n        /* \"#utility.yul\":2190:2210   */\n      add\n        /* \"#utility.yul\":2187:2220   */\n      gt\n        /* \"#utility.yul\":2184:2237   */\n      iszero\n      tag_470\n      jumpi\n        /* \"#utility.yul\":2233:2234   */\n      0x00\n        /* \"#utility.yul\":2230:2231   */\n      dup1\n        /* \"#utility.yul\":2223:2235   */\n      revert\n        /* \"#utility.yul\":2184:2237   */\n    tag_470:\n        /* \"#utility.yul\":2289:2291   */\n      dup3\n        /* \"#utility.yul\":2284:2286   */\n      0x20\n        /* \"#utility.yul\":2280:2282   */\n      dup7\n        /* \"#utility.yul\":2276:2287   */\n      add\n        /* \"#utility.yul\":2271:2273   */\n      0x20\n        /* \"#utility.yul\":2263:2269   */\n      dup4\n        /* \"#utility.yul\":2259:2274   */\n      add\n        /* \"#utility.yul\":2246:2292   */\n      calldatacopy\n        /* \"#utility.yul\":2334:2335   */\n      0x00\n        /* \"#utility.yul\":2329:2331   */\n      0x20\n        /* \"#utility.yul\":2324:2326   */\n      dup5\n        /* \"#utility.yul\":2316:2322   */\n      dup4\n        /* \"#utility.yul\":2312:2327   */\n      add\n        /* \"#utility.yul\":2308:2332   */\n      add\n        /* \"#utility.yul\":2301:2336   */\n      mstore\n        /* \"#utility.yul\":2355:2361   */\n      dup1\n        /* \"#utility.yul\":2345:2361   */\n      swap6\n      pop\n      pop\n      pop\n      pop\n      pop\n      pop\n        /* \"#utility.yul\":1101:2367   */\n      swap3\n      swap6\n      swap2\n      swap5\n      pop\n      swap3\n      pop\n      jump\t// out\n        /* \"#utility.yul\":2579:2697   */\n    tag_451:\n        /* \"#utility.yul\":2665:2670   */\n      dup1\n        /* \"#utility.yul\":2658:2671   */\n      iszero\n        /* \"#utility.yul\":2651:2672   */\n      iszero\n        /* \"#utility.yul\":2644:2649   */\n      dup2\n        /* \"#utility.yul\":2641:2673   */\n      eq\n        /* \"#utility.yul\":2631:2691   */\n      tag_189\n      jumpi\n        /* \"#utility.yul\":2687:2688   */\n      0x00\n        /* \"#utility.yul\":2684:2685   */\n      dup1\n        /* \"#utility.yul\":2677:2689   */\n      revert\n        /* \"#utility.yul\":2702:3084   */\n    tag_52:\n        /* \"#utility.yul\":2767:2773   */\n      0x00\n        /* \"#utility.yul\":2775:2781   */\n      dup1\n        /* \"#utility.yul\":2828:2830   */\n      0x40\n        /* \"#utility.yul\":2816:2825   */\n      dup4\n        /* \"#utility.yul\":2807:2814   */\n      dup6\n        /* \"#utility.yul\":2803:2826   */\n      sub\n        /* \"#utility.yul\":2799:2831   */\n      slt\n        /* \"#utility.yul\":2796:2848   */\n      iszero\n      tag_475\n      jumpi\n        /* \"#utility.yul\":2844:2845   */\n      0x00\n        /* \"#utility.yul\":2841:2842   */\n      dup1\n        /* \"#utility.yul\":2834:2846   */\n      revert\n        /* \"#utility.yul\":2796:2848   */\n    tag_475:\n        /* \"#utility.yul\":2883:2892   */\n      dup3\n        /* \"#utility.yul\":2870:2893   */\n      calldataload\n        /* \"#utility.yul\":2902:2933   */\n      tag_476\n        /* \"#utility.yul\":2927:2932   */\n      dup2\n        /* \"#utility.yul\":2902:2933   */\n      tag_449\n      jump\t// in\n    tag_476:\n        /* \"#utility.yul\":2952:2957   */\n      swap2\n      pop\n        /* \"#utility.yul\":3009:3011   */\n      0x20\n        /* \"#utility.yul\":2994:3012   */\n      dup4\n      add\n        /* \"#utility.yul\":2981:3013   */\n      calldataload\n        /* \"#utility.yul\":3022:3052   */\n      tag_477\n        /* \"#utility.yul\":2981:3013   */\n      dup2\n        /* \"#utility.yul\":3022:3052   */\n      tag_451\n      jump\t// in\n    tag_477:\n        /* \"#utility.yul\":3071:3078   */\n      dup1\n        /* \"#utility.yul\":3061:3078   */\n      swap2\n      pop\n      pop\n        /* \"#utility.yul\":2702:3084   */\n      swap3\n      pop\n      swap3\n      swap1\n      pop\n      jump\t// out\n        /* \"#utility.yul\":3089:3404   */\n    tag_57:\n        /* \"#utility.yul\":3157:3163   */\n      0x00\n        /* \"#utility.yul\":3165:3171   */\n      dup1\n        /* \"#utility.yul\":3218:3220   */\n      0x40\n        /* \"#utility.yul\":3206:3215   */\n      dup4\n        /* \"#utility.yul\":3197:3204   */\n      dup6\n        /* \"#utility.yul\":3193:3216   */\n      sub\n        /* \"#utility.yul\":3189:3221   */\n      slt\n        /* \"#utility.yul\":3186:3238   */\n      iszero\n      tag_479\n      jumpi\n        /* \"#utility.yul\":3234:3235   */\n      0x00\n        /* \"#utility.yul\":3231:3232   */\n      dup1\n        /* \"#utility.yul\":3224:3236   */\n      revert\n        /* \"#utility.yul\":3186:3238   */\n    tag_479:\n        /* \"#utility.yul\":3273:3282   */\n      dup3\n        /* \"#utility.yul\":3260:3283   */\n      calldataload\n        /* \"#utility.yul\":3292:3323   */\n      tag_480\n        /* \"#utility.yul\":3317:3322   */\n      dup2\n        /* \"#utility.yul\":3292:3323   */\n      tag_449\n      jump\t// in\n    tag_480:\n        /* \"#utility.yul\":3342:3347   */\n      swap5\n        /* \"#utility.yul\":3394:3396   */\n      0x20\n        /* \"#utility.yul\":3379:3397   */\n      swap4\n      swap1\n      swap4\n      add\n        /* \"#utility.yul\":3366:3398   */\n      calldataload\n      swap4\n      pop\n      pop\n      pop\n        /* \"#utility.yul\":3089:3404   */\n      jump\t// out\n        /* \"#utility.yul\":4492:4739   */\n    tag_86:\n        /* \"#utility.yul\":4551:4557   */\n      0x00\n        /* \"#utility.yul\":4604:4606   */\n      0x20\n        /* \"#utility.yul\":4592:4601   */\n      dup3\n        /* \"#utility.yul\":4583:4590   */\n      dup5\n        /* \"#utility.yul\":4579:4602   */\n      sub\n        /* \"#utility.yul\":4575:4607   */\n      slt\n        /* \"#utility.yul\":4572:4624   */\n      iszero\n      tag_485\n      jumpi\n        /* \"#utility.yul\":4620:4621   */\n      0x00\n        /* \"#utility.yul\":4617:4618   */\n      dup1\n        /* \"#utility.yul\":4610:4622   */\n      revert\n        /* \"#utility.yul\":4572:4624   */\n    tag_485:\n        /* \"#utility.yul\":4659:4668   */\n      dup2\n        /* \"#utility.yul\":4646:4669   */\n      calldataload\n        /* \"#utility.yul\":4678:4709   */\n      tag_486\n        /* \"#utility.yul\":4703:4708   */\n      dup2\n        /* \"#utility.yul\":4678:4709   */\n      tag_449\n      jump\t// in\n    tag_486:\n        /* \"#utility.yul\":4728:4733   */\n      swap4\n        /* \"#utility.yul\":4492:4739   */\n      swap3\n      pop\n      pop\n      pop\n      jump\t// out\n        /* \"#utility.yul\":5623:6148   */\n    tag_123:\n        /* \"#utility.yul\":5709:5715   */\n      0x00\n        /* \"#utility.yul\":5717:5723   */\n      dup1\n        /* \"#utility.yul\":5725:5731   */\n      0x00\n        /* \"#utility.yul\":5733:5739   */\n      dup1\n        /* \"#utility.yul\":5786:5789   */\n      0x80\n        /* \"#utility.yul\":5774:5783   */\n      dup6\n        /* \"#utility.yul\":5765:5772   */\n      dup8\n        /* \"#utility.yul\":5761:5784   */\n      sub\n        /* \"#utility.yul\":5757:5790   */\n      slt\n        /* \"#utility.yul\":5754:5807   */\n      iszero\n      tag_490\n      jumpi\n        /* \"#utility.yul\":5803:5804   */\n      0x00\n        /* \"#utility.yul\":5800:5801   */\n      dup1\n        /* \"#utility.yul\":5793:5805   */\n      revert\n        /* \"#utility.yul\":5754:5807   */\n    tag_490:\n        /* \"#utility.yul\":5842:5851   */\n      dup5\n        /* \"#utility.yul\":5829:5852   */\n      calldataload\n        /* \"#utility.yul\":5861:5892   */\n      tag_491\n        /* \"#utility.yul\":5886:5891   */\n      dup2\n        /* \"#utility.yul\":5861:5892   */\n      tag_449\n      jump\t// in\n    tag_491:\n        /* \"#utility.yul\":5911:5916   */\n      swap4\n      pop\n        /* \"#utility.yul\":5963:5965   */\n      0x20\n        /* \"#utility.yul\":5948:5966   */\n      dup6\n      add\n        /* \"#utility.yul\":5935:5967   */\n      calldataload\n      swap3\n      pop\n        /* \"#utility.yul\":6019:6021   */\n      0x40\n        /* \"#utility.yul\":6004:6022   */\n      dup6\n      add\n        /* \"#utility.yul\":5991:6023   */\n      calldataload\n        /* \"#utility.yul\":6032:6065   */\n      tag_492\n        /* \"#utility.yul\":5991:6023   */\n      dup2\n        /* \"#utility.yul\":6032:6065   */\n      tag_449\n      jump\t// in\n    tag_492:\n        /* \"#utility.yul\":5623:6148   */\n      swap4\n      swap7\n      swap3\n      swap6\n      pop\n        /* \"#utility.yul\":6084:6091   */\n      swap3\n      swap4\n        /* \"#utility.yul\":6138:6140   */\n      0x60\n        /* \"#utility.yul\":6123:6141   */\n      add\n        /* \"#utility.yul\":6110:6142   */\n      calldataload\n      swap3\n      pop\n      pop\n        /* \"#utility.yul\":5623:6148   */\n      jump\t// out\n        /* \"#utility.yul\":6153:6401   */\n    tag_129:\n        /* \"#utility.yul\":6221:6227   */\n      0x00\n        /* \"#utility.yul\":6229:6235   */\n      dup1\n        /* \"#utility.yul\":6282:6284   */\n      0x40\n        /* \"#utility.yul\":6270:6279   */\n      dup4\n        /* \"#utility.yul\":6261:6268   */\n      dup6\n        /* \"#utility.yul\":6257:6280   */\n      sub\n        /* \"#utility.yul\":6253:6285   */\n      slt\n        /* \"#utility.yul\":6250:6302   */\n      iszero\n      tag_494\n      jumpi\n        /* \"#utility.yul\":6298:6299   */\n      0x00\n        /* \"#utility.yul\":6295:6296   */\n      dup1\n        /* \"#utility.yul\":6288:6300   */\n      revert\n        /* \"#utility.yul\":6250:6302   */\n    tag_494:\n      pop\n      pop\n        /* \"#utility.yul\":6321:6344   */\n      dup1\n      calldataload\n      swap3\n        /* \"#utility.yul\":6391:6393   */\n      0x20\n        /* \"#utility.yul\":6376:6394   */\n      swap1\n      swap2\n      add\n        /* \"#utility.yul\":6363:6395   */\n      calldataload\n      swap2\n      pop\n        /* \"#utility.yul\":6153:6401   */\n      jump\t// out\n        /* \"#utility.yul\":6406:7000   */\n    tag_143:\n        /* \"#utility.yul\":6501:6507   */\n      0x00\n        /* \"#utility.yul\":6509:6515   */\n      dup1\n        /* \"#utility.yul\":6517:6523   */\n      0x00\n        /* \"#utility.yul\":6525:6531   */\n      dup1\n        /* \"#utility.yul\":6533:6539   */\n      0x00\n        /* \"#utility.yul\":6586:6589   */\n      0xa0\n        /* \"#utility.yul\":6574:6583   */\n      dup7\n        /* \"#utility.yul\":6565:6572   */\n      dup9\n        /* \"#utility.yul\":6561:6584   */\n      sub\n        /* \"#utility.yul\":6557:6590   */\n      slt\n        /* \"#utility.yul\":6554:6607   */\n      iszero\n      tag_496\n      jumpi\n        /* \"#utility.yul\":6603:6604   */\n      0x00\n        /* \"#utility.yul\":6600:6601   */\n      dup1\n        /* \"#utility.yul\":6593:6605   */\n      revert\n        /* \"#utility.yul\":6554:6607   */\n    tag_496:\n        /* \"#utility.yul\":6642:6651   */\n      dup6\n        /* \"#utility.yul\":6629:6652   */\n      calldataload\n        /* \"#utility.yul\":6661:6692   */\n      tag_497\n        /* \"#utility.yul\":6686:6691   */\n      dup2\n        /* \"#utility.yul\":6661:6692   */\n      tag_449\n      jump\t// in\n    tag_497:\n        /* \"#utility.yul\":6711:6716   */\n      swap5\n      pop\n        /* \"#utility.yul\":6763:6765   */\n      0x20\n        /* \"#utility.yul\":6748:6766   */\n      dup7\n      add\n        /* \"#utility.yul\":6735:6767   */\n      calldataload\n      swap4\n      pop\n        /* \"#utility.yul\":6819:6821   */\n      0x40\n        /* \"#utility.yul\":6804:6822   */\n      dup7\n      add\n        /* \"#utility.yul\":6791:6823   */\n      calldataload\n        /* \"#utility.yul\":6832:6865   */\n      tag_498\n        /* \"#utility.yul\":6791:6823   */\n      dup2\n        /* \"#utility.yul\":6832:6865   */\n      tag_449\n      jump\t// in\n    tag_498:\n        /* \"#utility.yul\":6406:7000   */\n      swap5\n      swap8\n      swap4\n      swap7\n      pop\n        /* \"#utility.yul\":6884:6891   */\n      swap4\n      swap5\n        /* \"#utility.yul\":6938:6940   */\n      0x60\n        /* \"#utility.yul\":6923:6941   */\n      dup2\n      add\n        /* \"#utility.yul\":6910:6942   */\n      calldataload\n      swap5\n      pop\n        /* \"#utility.yul\":6989:6992   */\n      0x80\n        /* \"#utility.yul\":6974:6993   */\n      add\n        /* \"#utility.yul\":6961:6994   */\n      calldataload\n      swap3\n        /* \"#utility.yul\":6406:7000   */\n      swap2\n      pop\n      pop\n      jump\t// out\n        /* \"#utility.yul\":7909:8251   */\n    tag_185:\n        /* \"#utility.yul\":8111:8113   */\n      0x20\n        /* \"#utility.yul\":8093:8114   */\n      dup1\n      dup3\n      mstore\n        /* \"#utility.yul\":8150:8152   */\n      0x12\n        /* \"#utility.yul\":8130:8148   */\n      swap1\n      dup3\n      add\n        /* \"#utility.yul\":8123:8153   */\n      mstore\n      shl(0x70, 0x4c697374696e67206e6f7420616374697665)\n        /* \"#utility.yul\":8184:8186   */\n      0x40\n        /* \"#utility.yul\":8169:8187   */\n      dup3\n      add\n        /* \"#utility.yul\":8162:8210   */\n      mstore\n        /* \"#utility.yul\":8242:8244   */\n      0x60\n        /* \"#utility.yul\":8227:8245   */\n      add\n      swap1\n        /* \"#utility.yul\":7909:8251   */\n      jump\t// out\n        /* \"#utility.yul\":8595:8846   */\n    tag_203:\n        /* \"#utility.yul\":8665:8671   */\n      0x00\n        /* \"#utility.yul\":8718:8720   */\n      0x20\n        /* \"#utility.yul\":8706:8715   */\n      dup3\n        /* \"#utility.yul\":8697:8704   */\n      dup5\n        /* \"#utility.yul\":8693:8716   */\n      sub\n        /* \"#utility.yul\":8689:8721   */\n      slt\n        /* \"#utility.yul\":8686:8738   */\n      iszero\n      tag_504\n      jumpi\n        /* \"#utility.yul\":8734:8735   */\n      0x00\n        /* \"#utility.yul\":8731:8732   */\n      dup1\n        /* \"#utility.yul\":8724:8736   */\n      revert\n        /* \"#utility.yul\":8686:8738   */\n    tag_504:\n        /* \"#utility.yul\":8766:8775   */\n      dup2\n        /* \"#utility.yul\":8760:8776   */\n      mload\n        /* \"#utility.yul\":8785:8816   */\n      tag_486\n        /* \"#utility.yul\":8810:8815   */\n      dup2\n        /* \"#utility.yul\":8785:8816   */\n      tag_449\n      jump\t// in\n        /* \"#utility.yul\":9207:9334   */\n    tag_452:\n        /* \"#utility.yul\":9268:9278   */\n      0x4e487b71\n        /* \"#utility.yul\":9263:9266   */\n      0xe0\n        /* \"#utility.yul\":9259:9279   */\n      shl\n        /* \"#utility.yul\":9256:9257   */\n      0x00\n        /* \"#utility.yul\":9249:9280   */\n      mstore\n        /* \"#utility.yul\":9299:9303   */\n      0x11\n        /* \"#utility.yul\":9296:9297   */\n      0x04\n        /* \"#utility.yul\":9289:9304   */\n      mstore\n        /* \"#utility.yul\":9323:9327   */\n      0x24\n        /* \"#utility.yul\":9320:9321   */\n      0x00\n        /* \"#utility.yul\":9313:9328   */\n      revert\n        /* \"#utility.yul\":9339:9507   */\n    tag_208:\n        /* \"#utility.yul\":9412:9421   */\n      dup1\n      dup3\n      mul\n        /* \"#utility.yul\":9443:9452   */\n      dup2\n      iszero\n        /* \"#utility.yul\":9460:9475   */\n      dup3\n      dup3\n      div\n        /* \"#utility.yul\":9454:9476   */\n      dup5\n      eq\n        /* \"#utility.yul\":9440:9477   */\n      or\n        /* \"#utility.yul\":9430:9501   */\n      tag_178\n      jumpi\n        /* \"#utility.yul\":9481:9499   */\n      tag_178\n      tag_452\n      jump\t// in\n        /* \"#utility.yul\":9512:9729   */\n    tag_210:\n        /* \"#utility.yul\":9552:9553   */\n      0x00\n        /* \"#utility.yul\":9578:9579   */\n      dup3\n        /* \"#utility.yul\":9568:9700   */\n      tag_512\n      jumpi\n        /* \"#utility.yul\":9622:9632   */\n      0x4e487b71\n        /* \"#utility.yul\":9617:9620   */\n      0xe0\n        /* \"#utility.yul\":9613:9633   */\n      shl\n        /* \"#utility.yul\":9610:9611   */\n      0x00\n        /* \"#utility.yul\":9603:9634   */\n      mstore\n        /* \"#utility.yul\":9657:9661   */\n      0x12\n        /* \"#utility.yul\":9654:9655   */\n      0x04\n        /* \"#utility.yul\":9647:9662   */\n      mstore\n        /* \"#utility.yul\":9685:9689   */\n      0x24\n        /* \"#utility.yul\":9682:9683   */\n      0x00\n        /* \"#utility.yul\":9675:9690   */\n      revert\n        /* \"#utility.yul\":9568:9700   */\n    tag_512:\n      pop\n        /* \"#utility.yul\":9714:9723   */\n      div\n      swap1\n        /* \"#utility.yul\":9512:9729   */\n      jump\t// out\n        /* \"#utility.yul\":9734:9862   */\n    tag_212:\n        /* \"#utility.yul\":9801:9810   */\n      dup2\n      dup2\n      sub\n        /* \"#utility.yul\":9822:9833   */\n      dup2\n      dup2\n      gt\n        /* \"#utility.yul\":9819:9856   */\n      iszero\n      tag_178\n      jumpi\n        /* \"#utility.yul\":9836:9854   */\n      tag_178\n      tag_452\n      jump\t// in\n        /* \"#utility.yul\":10426:10775   */\n    tag_224:\n        /* \"#utility.yul\":10628:10630   */\n      0x20\n        /* \"#utility.yul\":10610:10631   */\n      dup1\n      dup3\n      mstore\n        /* \"#utility.yul\":10667:10669   */\n      0x19\n        /* \"#utility.yul\":10647:10665   */\n      swap1\n      dup3\n      add\n        /* \"#utility.yul\":10640:10670   */\n      mstore\n        /* \"#utility.yul\":10706:10733   */\n      0x5472616e7366657220746f2073656c6c6572206661696c656400000000000000\n        /* \"#utility.yul\":10701:10703   */\n      0x40\n        /* \"#utility.yul\":10686:10704   */\n      dup3\n      add\n        /* \"#utility.yul\":10679:10734   */\n      mstore\n        /* \"#utility.yul\":10766:10768   */\n      0x60\n        /* \"#utility.yul\":10751:10769   */\n      add\n      swap1\n        /* \"#utility.yul\":10426:10775   */\n      jump\t// out\n        /* \"#utility.yul\":10780:11123   */\n    tag_232:\n        /* \"#utility.yul\":10982:10984   */\n      0x20\n        /* \"#utility.yul\":10964:10985   */\n      dup1\n      dup3\n      mstore\n        /* \"#utility.yul\":11021:11023   */\n      0x13\n        /* \"#utility.yul\":11001:11019   */\n      swap1\n      dup3\n      add\n        /* \"#utility.yul\":10994:11024   */\n      mstore\n      shl(0x6a, 0x119959481d1c985b9cd9995c8819985a5b1959)\n        /* \"#utility.yul\":11055:11057   */\n      0x40\n        /* \"#utility.yul\":11040:11058   */\n      dup3\n      add\n        /* \"#utility.yul\":11033:11082   */\n      mstore\n        /* \"#utility.yul\":11114:11116   */\n      0x60\n        /* \"#utility.yul\":11099:11117   */\n      add\n      swap1\n        /* \"#utility.yul\":10780:11123   */\n      jump\t// out\n        /* \"#utility.yul\":11470:11845   */\n    tag_244:\n      sub(shl(0xa0, 0x01), 0x01)\n        /* \"#utility.yul\":11728:11743   */\n      swap4\n      dup5\n      and\n        /* \"#utility.yul\":11710:11744   */\n      dup2\n      mstore\n        /* \"#utility.yul\":11780:11795   */\n      swap2\n      swap1\n      swap3\n      and\n        /* \"#utility.yul\":11775:11777   */\n      0x20\n        /* \"#utility.yul\":11760:11778   */\n      dup3\n      add\n        /* \"#utility.yul\":11753:11796   */\n      mstore\n        /* \"#utility.yul\":11827:11829   */\n      0x40\n        /* \"#utility.yul\":11812:11830   */\n      dup2\n      add\n        /* \"#utility.yul\":11805:11839   */\n      swap2\n      swap1\n      swap2\n      mstore\n        /* \"#utility.yul\":11660:11662   */\n      0x60\n        /* \"#utility.yul\":11645:11663   */\n      add\n      swap1\n        /* \"#utility.yul\":11470:11845   */\n      jump\t// out\n        /* \"#utility.yul\":11850:12095   */\n    tag_248:\n        /* \"#utility.yul\":11917:11923   */\n      0x00\n        /* \"#utility.yul\":11970:11972   */\n      0x20\n        /* \"#utility.yul\":11958:11967   */\n      dup3\n        /* \"#utility.yul\":11949:11956   */\n      dup5\n        /* \"#utility.yul\":11945:11968   */\n      sub\n        /* \"#utility.yul\":11941:11973   */\n      slt\n        /* \"#utility.yul\":11938:11990   */\n      iszero\n      tag_523\n      jumpi\n        /* \"#utility.yul\":11986:11987   */\n      0x00\n        /* \"#utility.yul\":11983:11984   */\n      dup1\n        /* \"#utility.yul\":11976:11988   */\n      revert\n        /* \"#utility.yul\":11938:11990   */\n    tag_523:\n        /* \"#utility.yul\":12018:12027   */\n      dup2\n        /* \"#utility.yul\":12012:12028   */\n      mload\n        /* \"#utility.yul\":12037:12065   */\n      tag_486\n        /* \"#utility.yul\":12059:12064   */\n      dup2\n        /* \"#utility.yul\":12037:12065   */\n      tag_451\n      jump\t// in\n        /* \"#utility.yul\":12791:13132   */\n    tag_283:\n        /* \"#utility.yul\":12993:12995   */\n      0x20\n        /* \"#utility.yul\":12975:12996   */\n      dup1\n      dup3\n      mstore\n        /* \"#utility.yul\":13032:13034   */\n      0x11\n        /* \"#utility.yul\":13012:13030   */\n      swap1\n      dup3\n      add\n        /* \"#utility.yul\":13005:13035   */\n      mstore\n      shl(0x7c, 0x05072696365206d757374206265203e203)\n        /* \"#utility.yul\":13066:13068   */\n      0x40\n        /* \"#utility.yul\":13051:13069   */\n      dup3\n      add\n        /* \"#utility.yul\":13044:13091   */\n      mstore\n        /* \"#utility.yul\":13123:13125   */\n      0x60\n        /* \"#utility.yul\":13108:13126   */\n      add\n      swap1\n        /* \"#utility.yul\":12791:13132   */\n      jump\t// out\n        /* \"#utility.yul\":14840:14975   */\n    tag_311:\n        /* \"#utility.yul\":14879:14882   */\n      0x00\n        /* \"#utility.yul\":14900:14917   */\n      0x01\n      dup3\n      add\n        /* \"#utility.yul\":14897:14940   */\n      tag_535\n      jumpi\n        /* \"#utility.yul\":14920:14938   */\n      tag_535\n      tag_452\n      jump\t// in\n    tag_535:\n      pop\n        /* \"#utility.yul\":14967:14968   */\n      0x01\n        /* \"#utility.yul\":14956:14969   */\n      add\n      swap1\n        /* \"#utility.yul\":14840:14975   */\n      jump\t// out\n        /* \"#utility.yul\":16711:16895   */\n    tag_396:\n        /* \"#utility.yul\":16781:16787   */\n      0x00\n        /* \"#utility.yul\":16834:16836   */\n      0x20\n        /* \"#utility.yul\":16822:16831   */\n      dup3\n        /* \"#utility.yul\":16813:16820   */\n      dup5\n        /* \"#utility.yul\":16809:16832   */\n      sub\n        /* \"#utility.yul\":16805:16837   */\n      slt\n        /* \"#utility.yul\":16802:16854   */\n      iszero\n      tag_542\n      jumpi\n        /* \"#utility.yul\":16850:16851   */\n      0x00\n        /* \"#utility.yul\":16847:16848   */\n      dup1\n        /* \"#utility.yul\":16840:16852   */\n      revert\n        /* \"#utility.yul\":16802:16854   */\n    tag_542:\n      pop\n        /* \"#utility.yul\":16873:16889   */\n      mload\n      swap2\n        /* \"#utility.yul\":16711:16895   */\n      swap1\n      pop\n      jump\t// out\n        /* \"#utility.yul\":17611:17736   */\n    tag_409:\n        /* \"#utility.yul\":17676:17685   */\n      dup1\n      dup3\n      add\n        /* \"#utility.yul\":17697:17707   */\n      dup1\n      dup3\n      gt\n        /* \"#utility.yul\":17694:17730   */\n      iszero\n      tag_178\n      jumpi\n        /* \"#utility.yul\":17710:17728   */\n      tag_178\n      tag_452\n      jump\t// in\n\n    auxdata: 0xa26469706673582212202b3f134a747bcd35b5f5a8c76fee1dad950b560efc2d6badad93469819f0ceea64736f6c63430008190033\n}\n",
				"bytecode": {
					"linkReferences": {},
					"object": "608060405260fa600755348015610014575f80fd5b5060405161275c38038061275c8339810160408190526100339161018c565b60015f55806001600160a01b03811661006657604051631e4fbdf760e01b81525f60048201526024015b60405180910390fd5b61006f81610120565b506001600160a01b0382166100c65760405162461bcd60e51b815260206004820152601560248201527f496e76616c69642066656520726563697069656e740000000000000000000000604482015260640161005d565b50600880546001600160a01b0319166001600160a01b03929092169190911790555f805260096020527fec8156718a8372b1db44bb411437d0870f3e3790d4a08526d024ce1b0b668f6b805460ff191660011790556101bd565b600180546001600160a01b038381166001600160a01b0319831681179093556040519116919082907f8be0079c531659141344cd1fd0a4f28419497f9722a3daafe3b4186f6b6457e0905f90a35050565b80516001600160a01b0381168114610187575f80fd5b919050565b5f806040838503121561019d575f80fd5b6101a683610171565b91506101b460208401610171565b90509250929050565b612592806101ca5f395ff3fe608060405260043610610195575f3560e01c80637fd6f15c116100e7578063cdb3cd2511610087578063de74e57b11610062578063de74e57b14610729578063e74b981b146107c8578063ef706adf146107e7578063f2fde38b14610806575f80fd5b8063cdb3cd25146106d6578063d14027d4146106f5578063d73792a914610714575f80fd5b8063aaccf1ec116100c2578063aaccf1ec14610664578063b4a1535514610679578063c460494314610698578063c815729d146106b7575f80fd5b80637fd6f15c146105845780638a72ea6a146105995780638da5cb5b14610647575f80fd5b80634690484011610152578063697d312a1161012d578063697d312a146104dd5780636f7b43521461051b578063715018a6146105515780637ce3489b14610565575f80fd5b8063469048401461047e5780634884f459146104b55780635f5d0655146104c8575f80fd5b8063107a274a14610199578063150b7a02146102b05780631d3c6674146102e8578063248d9aa314610309578063305a67a8146103365780634579268a14610355575b5f80fd5b3480156101a4575f80fd5b5061024e6101b336600461214d565b6040805160c0810182525f80825260208201819052918101829052606081018290526080810182905260a0810191909152505f90815260026020818152604092839020835160c08101855281546001600160a01b0390811682526001830154811693820193909352928101549383019390935260038301541660608201526004820154608082015260059091015460ff16151560a082015290565b6040516102a7919081516001600160a01b03908116825260208084015182169083015260408084015190830152606080840151909116908201526080808301519082015260a09182015115159181019190915260c00190565b60405180910390f35b3480156102bb575f80fd5b506102cf6102ca36600461218c565b610825565b6040516001600160e01b031990911681526020016102a7565b3480156102f3575f80fd5b50610307610302366004612272565b610836565b005b348015610314575f80fd5b506103286103233660046122a9565b6108a0565b6040519081526020016102a7565b348015610341575f80fd5b5061030761035036600461214d565b6108ca565b348015610360575f80fd5b5061041b61036f36600461214d565b6040805160e0810182525f80825260208201819052918101829052606081018290526080810182905260a0810182905260c0810191909152505f90815260046020818152604092839020835160e08101855281546001600160a01b039081168252600183015481169382019390935260028201549481019490945260038101549091166060840152908101546080830152600581015460a08301526006015460ff16151560c082015290565b6040516102a7919081516001600160a01b03908116825260208084015182169083015260408084015190830152606080840151909116908201526080808301519082015260a0828101519082015260c09182015115159181019190915260e00190565b348015610489575f80fd5b5060085461049d906001600160a01b031681565b6040516001600160a01b0390911681526020016102a7565b6103076104c336600461214d565b6109bf565b3480156104d3575f80fd5b5061032860055481565b3480156104e8575f80fd5b5061050b6104f73660046122d3565b60096020525f908152604090205460ff1681565b60405190151581526020016102a7565b348015610526575f80fd5b506103286105353660046122a9565b600660209081525f928352604080842090915290825290205481565b34801561055c575f80fd5b50610307610f0a565b348015610570575f80fd5b5061030761057f36600461214d565b610f1d565b34801561058f575f80fd5b5061032860075481565b3480156105a4575f80fd5b506106026105b336600461214d565b600460208190525f918252604090912080546001820154600283015460038401549484015460058501546006909501546001600160a01b03948516969385169592949093169290919060ff1687565b604080516001600160a01b0398891681529688166020880152860194909452949091166060840152608083015260a082019290925290151560c082015260e0016102a7565b348015610652575f80fd5b506001546001600160a01b031661049d565b34801561066f575f80fd5b5061032860035481565b348015610684575f80fd5b506103286106933660046122f5565b610fa2565b3480156106a3575f80fd5b506103076106b236600461233a565b6113b1565b3480156106c2575f80fd5b506103076106d136600461214d565b611499565b3480156106e1575f80fd5b5061050b6106f03660046122a9565b611a04565b348015610700575f80fd5b5061032861070f36600461235a565b611a4c565b34801561071f575f80fd5b5061032861271081565b348015610734575f80fd5b5061078a61074336600461214d565b600260208190525f91825260409091208054600182015492820154600383015460048401546005909401546001600160a01b03938416958416949293909116919060ff1686565b604080516001600160a01b039788168152958716602087015285019390935293166060830152608082019290925290151560a082015260c0016102a7565b3480156107d3575f80fd5b506103076107e23660046122d3565b611eb7565b3480156107f2575f80fd5b5061030761080136600461214d565b611f55565b348015610811575f80fd5b506103076108203660046122d3565b61203e565b630a85bd0160e11b5b949350505050565b61083e612078565b6001600160a01b0382165f81815260096020908152604091829020805460ff19168515159081179091558251938452908301527f19c6e2fbd27c3204efb106f0081d2d7ffaf44da224ca04fbc0d8a262ba40f555910160405180910390a15050565b6001600160a01b0382165f9081526006602090815260408083208484529091529020545b92915050565b6108d26120a5565b5f818152600260205260409020600581015460ff1661090c5760405162461bcd60e51b8152600401610903906123a8565b60405180910390fd5b80546001600160a01b031633146109525760405162461bcd60e51b815260206004820152600a6024820152692737ba1039b2b63632b960b11b6044820152606401610903565b60058101805460ff1916905560018101546001600160a01b03165f908152600660209081526040808320600285015484529091528082208290555183917f411aee90354c51b1b04cd563fcab2617142a9d50da19232d888547c8a1b7fd8a91a2506109bc60015f55565b50565b6109c76120a5565b5f818152600260205260409020600581015460ff166109f85760405162461bcd60e51b8152600401610903906123a8565b8054600182015460028301546040516331a9108f60e11b815260048101919091526001600160a01b039283169290911690636352211e90602401602060405180830381865afa158015610a4d573d5f803e3d5ffd5b505050506040513d601f19601f82011682018060405250810190610a7191906123d4565b6001600160a01b031614610ac75760405162461bcd60e51b815260206004820152601b60248201527f53656c6c6572206e6f206c6f6e676572206f776e7320746f6b656e00000000006044820152606401610903565b600481015481546007546001600160a01b03909116905f9061271090610aed9085612403565b610af7919061241a565b90505f610b048285612439565b60038601549091506001600160a01b0316610ce25783341015610b605760405162461bcd60e51b8152602060048201526014602482015273125b9cdd59999a58da595b9d081c185e5b595b9d60621b6044820152606401610903565b5f836001600160a01b0316826040515f6040518083038185875af1925050503d805f8114610ba9576040519150601f19603f3d011682016040523d82523d5f602084013e610bae565b606091505b5050905080610bcf5760405162461bcd60e51b81526004016109039061244c565b8215610c47576008546040515f916001600160a01b03169085908381818185875af1925050503d805f8114610c1f576040519150601f19603f3d011682016040523d82523d5f602084013e610c24565b606091505b5050905080610c455760405162461bcd60e51b815260040161090390612483565b505b84341115610cdc575f33610c5b8734612439565b6040515f81818185875af1925050503d805f8114610c94576040519150601f19603f3d011682016040523d82523d5f602084013e610c99565b606091505b5050905080610cda5760405162461bcd60e51b815260206004820152600d60248201526c1499599d5b990819985a5b1959609a1b6044820152606401610903565b505b50610e0e565b60038501546040516323b872dd60e01b81526001600160a01b039091169081906323b872dd90610d1a903390889087906004016124b0565b6020604051808303815f875af1158015610d36573d5f803e3d5ffd5b505050506040513d601f19601f82011682018060405250810190610d5a91906124d4565b610d765760405162461bcd60e51b81526004016109039061244c565b8215610e0c576008546040516323b872dd60e01b81526001600160a01b03808416926323b872dd92610db0923392169088906004016124b0565b6020604051808303815f875af1158015610dcc573d5f803e3d5ffd5b505050506040513d601f19601f82011682018060405250810190610df091906124d4565b610e0c5760405162461bcd60e51b815260040161090390612483565b505b60018501546002860154604051632142170760e11b81526001600160a01b03909216916342842e0e91610e4791879133916004016124b0565b5f604051808303815f87803b158015610e5e575f80fd5b505af1158015610e70573d5f803e3d5ffd5b5050505060058501805460ff191690556001850180546001600160a01b039081165f90815260066020908152604080832060028b018054855290835281842093909355935491548451928416835290820152918201869052841690339088907f87668bf59b21c78084390260eb626847b730caddc5b38199cf1c27ad39954b839060600160405180910390a450505050506109bc60015f55565b610f12612078565b610f1b5f6120fc565b565b610f25612078565b6103e8811115610f665760405162461bcd60e51b815260206004820152600c60248201526b08ccaca40e8dede40d0d2ced60a31b6044820152606401610903565b60078190556040518181527f64d1887078a96d281ed60dd69ba75bfb6b5cd2cb4c2d2538b2eb7816a4c646ea906020015b60405180910390a150565b5f610fab6120a5565b5f8211610fca5760405162461bcd60e51b8152600401610903906124ef565b6001600160a01b0383165f9081526009602052604090205460ff1661102d5760405162461bcd60e51b815260206004820152601960248201527814185e5b595b9d081d1bdad95b881b9bdd08185b1b1bddd959603a1b6044820152606401610903565b6040516331a9108f60e11b81526004810185905233906001600160a01b03871690636352211e90602401602060405180830381865afa158015611072573d5f803e3d5ffd5b505050506040513d601f19601f8201168201806040525081019061109691906123d4565b6001600160a01b0316146110de5760405162461bcd60e51b815260206004820152600f60248201526e2737ba103a37b5b2b71037bbb732b960891b6044820152606401610903565b60405163e985e9c560e01b81523360048201523060248201526001600160a01b0386169063e985e9c590604401602060405180830381865afa158015611126573d5f803e3d5ffd5b505050506040513d601f19601f8201168201806040525081019061114a91906124d4565b806111c4575060405163020604bf60e21b81526004810185905230906001600160a01b0387169063081812fc90602401602060405180830381865afa158015611195573d5f803e3d5ffd5b505050506040513d601f19601f820116820180604052508101906111b991906123d4565b6001600160a01b0316145b61120b5760405162461bcd60e51b815260206004820152601860248201527713585c9ad95d1c1b1858d9481b9bdd08185c1c1c9bdd995960421b6044820152606401610903565b6001600160a01b0385165f9081526006602090815260408083208784529091529020541561126c5760405162461bcd60e51b815260206004820152600e60248201526d105b1c9958591e481b1a5cdd195960921b6044820152606401610903565b5f60035f815461127b9061251a565b91829055506040805160c081018252338082526001600160a01b038a811660208085018281528587018d81528c851660608801908152608088018d8152600160a08a018181525f8d815260028089528d82209c518d54908c166001600160a01b0319918216178e559751938d018054948c16948916949094179093559451918b0191909155915160038a018054919098169416939093179095559051600487015592516005909501805495151560ff1990961695909517909455808252600684528482208b835290935283902084905591519293509183907ff270d40e4ce0790fe62574668b19edbd345bdfc4b0e945ada622c5fe65f3e0c49061139e908a908a908a909283526001600160a01b03919091166020830152604082015260600190565b60405180910390a4905061082e60015f55565b6113b96120a5565b5f828152600260205260409020600581015460ff166113ea5760405162461bcd60e51b8152600401610903906123a8565b80546001600160a01b031633146114305760405162461bcd60e51b815260206004820152600a6024820152692737ba1039b2b63632b960b11b6044820152606401610903565b5f821161144f5760405162461bcd60e51b8152600401610903906124ef565b6004810182905560405182815283907f66bcde9f7aec9b81719a4fdec54cbafbf6c834d1f2f989d9cd2134dab8d0c0de9060200160405180910390a25061149560015f55565b5050565b6114a16120a5565b5f818152600460205260409020600681015460ff166114f55760405162461bcd60e51b815260206004820152601060248201526f4f66666572206e6f742061637469766560801b6044820152606401610903565b80600501544211156115395760405162461bcd60e51b815260206004820152600d60248201526c13d999995c88195e1c1a5c9959609a1b6044820152606401610903565b600181015460028201546040516331a9108f60e11b8152600481019190915233916001600160a01b031690636352211e90602401602060405180830381865afa158015611588573d5f803e3d5ffd5b505050506040513d601f19601f820116820180604052508101906115ac91906123d4565b6001600160a01b0316146115f45760405162461bcd60e51b815260206004820152600f60248201526e2737ba103a37b5b2b71037bbb732b960891b6044820152606401610903565b600181015460405163e985e9c560e01b81523360048201523060248201526001600160a01b039091169063e985e9c590604401602060405180830381865afa158015611642573d5f803e3d5ffd5b505050506040513d601f19601f8201168201806040525081019061166691906124d4565b806116ea57506001810154600282015460405163020604bf60e21b8152600481019190915230916001600160a01b03169063081812fc90602401602060405180830381865afa1580156116bb573d5f803e3d5ffd5b505050506040513d601f19601f820116820180604052508101906116df91906123d4565b6001600160a01b0316145b6117315760405162461bcd60e51b815260206004820152601860248201527713585c9ad95d1c1b1858d9481b9bdd08185c1c1c9bdd995960421b6044820152606401610903565b600481015481546007546001600160a01b03909116905f90612710906117579085612403565b611761919061241a565b90505f61176e8285612439565b60038601546040516323b872dd60e01b81529192506001600160a01b03169081906323b872dd906117a7908790339087906004016124b0565b6020604051808303815f875af11580156117c3573d5f803e3d5ffd5b505050506040513d601f19601f820116820180604052508101906117e791906124d4565b6118035760405162461bcd60e51b81526004016109039061244c565b8215611899576008546040516323b872dd60e01b81526001600160a01b03808416926323b872dd9261183d928992169088906004016124b0565b6020604051808303815f875af1158015611859573d5f803e3d5ffd5b505050506040513d601f19601f8201168201806040525081019061187d91906124d4565b6118995760405162461bcd60e51b815260040161090390612483565b60018601546002870154604051632142170760e11b81526001600160a01b03909216916342842e0e916118d291339189916004016124b0565b5f604051808303815f87803b1580156118e9575f80fd5b505af11580156118fb573d5f803e3d5ffd5b505050506006868101805460ff1916905560018701546001600160a01b03165f9081526020918252604080822060028a015483529092522054801580159061195357505f8181526002602052604090206005015460ff165b15611997575f818152600260208181526040808420600501805460ff1916905560018b01546001600160a01b0316845260068252808420928b015484529190528120555b60018701546002880154604080516001600160a01b039384168152602081019290925281018890529086169033908a907f50df946ee330bf8af17ecc21585649645f3680c032bc659b21e49881bea57f719060600160405180910390a4505050505050506109bc60015f55565b6001600160a01b0382165f908152600660209081526040808320848452909152812054801580159061082e57505f9081526002602052604090206005015460ff169392505050565b5f611a556120a5565b5f8311611a745760405162461bcd60e51b8152600401610903906124ef565b6001600160a01b038416611ac15760405162461bcd60e51b815260206004820152601460248201527355736520455243323020666f72206f666665727360601b6044820152606401610903565b6001600160a01b0384165f9081526009602052604090205460ff16611b245760405162461bcd60e51b815260206004820152601960248201527814185e5b595b9d081d1bdad95b881b9bdd08185b1b1bddd959603a1b6044820152606401610903565b5f82118015611b3657506276a7008211155b611b755760405162461bcd60e51b815260206004820152601060248201526f24b73b30b634b210323ab930ba34b7b760811b6044820152606401610903565b604051636eb1769f60e11b8152336004820152306024820152849084906001600160a01b0383169063dd62ed3e90604401602060405180830381865afa158015611bc1573d5f803e3d5ffd5b505050506040513d601f19601f82011682018060405250810190611be59190612532565b1015611c335760405162461bcd60e51b815260206004820152601b60248201527f496e73756666696369656e7420746f6b656e20617070726f76616c00000000006044820152606401610903565b6040516370a0823160e01b815233600482015284906001600160a01b038316906370a0823190602401602060405180830381865afa158015611c77573d5f803e3d5ffd5b505050506040513d601f19601f82011682018060405250810190611c9b9190612532565b1015611ce95760405162461bcd60e51b815260206004820152601a60248201527f496e73756666696369656e7420746f6b656e2062616c616e63650000000000006044820152606401610903565b5f60055f8154611cf89061251a565b918290555090505f611d0a8542612549565b90506040518060e00160405280336001600160a01b031681526020018a6001600160a01b03168152602001898152602001886001600160a01b031681526020018781526020018281526020016001151581525060045f8481526020019081526020015f205f820151815f015f6101000a8154816001600160a01b0302191690836001600160a01b031602179055506020820151816001015f6101000a8154816001600160a01b0302191690836001600160a01b03160217905550604082015181600201556060820151816003015f6101000a8154816001600160a01b0302191690836001600160a01b031602179055506080820151816004015560a0820151816005015560c0820151816006015f6101000a81548160ff021916908315150217905550905050886001600160a01b0316336001600160a01b0316837f07e9214b37f6c5d7654ed3d8cb085c5aba036c579313526cc62a3c9168617c408b8b8b87604051611e9994939291909384526001600160a01b039290921660208401526040830152606082015260800190565b60405180910390a450915050611eae60015f55565b95945050505050565b611ebf612078565b6001600160a01b038116611f075760405162461bcd60e51b815260206004820152600f60248201526e496e76616c6964206164647265737360881b6044820152606401610903565b600880546001600160a01b0319166001600160a01b0383169081179091556040519081527f7a7b5a0a132f9e0581eb8527f66eae9ee89c2a3e79d4ac7e41a1f1f4d48a7fc290602001610f97565b611f5d6120a5565b5f818152600460205260409020600681015460ff16611fb15760405162461bcd60e51b815260206004820152601060248201526f4f66666572206e6f742061637469766560801b6044820152606401610903565b80546001600160a01b03163314611ffe5760405162461bcd60e51b81526020600482015260116024820152702737ba1037b33332b91031b932b0ba37b960791b6044820152606401610903565b60068101805460ff1916905560405182907fc28b4aed030bfacc245c0501326e1beb8c0ef0d60e4edc21067fdeb52da2a7aa905f90a2506109bc60015f55565b612046612078565b6001600160a01b03811661206f57604051631e4fbdf760e01b81525f6004820152602401610903565b6109bc816120fc565b6001546001600160a01b03163314610f1b5760405163118cdaa760e01b8152336004820152602401610903565b60025f54036120f65760405162461bcd60e51b815260206004820152601f60248201527f5265656e7472616e637947756172643a207265656e7472616e742063616c6c006044820152606401610903565b60025f55565b600180546001600160a01b038381166001600160a01b0319831681179093556040519116919082907f8be0079c531659141344cd1fd0a4f28419497f9722a3daafe3b4186f6b6457e0905f90a35050565b5f6020828403121561215d575f80fd5b5035919050565b6001600160a01b03811681146109bc575f80fd5b634e487b7160e01b5f52604160045260245ffd5b5f805f806080858703121561219f575f80fd5b84356121aa81612164565b935060208501356121ba81612164565b925060408501359150606085013567ffffffffffffffff808211156121dd575f80fd5b818701915087601f8301126121f0575f80fd5b81358181111561220257612202612178565b604051601f8201601f19908116603f0116810190838211818310171561222a5761222a612178565b816040528281528a6020848701011115612242575f80fd5b826020860160208301375f60208483010152809550505050505092959194509250565b80151581146109bc575f80fd5b5f8060408385031215612283575f80fd5b823561228e81612164565b9150602083013561229e81612265565b809150509250929050565b5f80604083850312156122ba575f80fd5b82356122c581612164565b946020939093013593505050565b5f602082840312156122e3575f80fd5b81356122ee81612164565b9392505050565b5f805f8060808587031215612308575f80fd5b843561231381612164565b935060208501359250604085013561232a81612164565b9396929550929360600135925050565b5f806040838503121561234b575f80fd5b50508035926020909101359150565b5f805f805f60a0868803121561236e575f80fd5b853561237981612164565b945060208601359350604086013561239081612164565b94979396509394606081013594506080013592915050565b6020808252601290820152714c697374696e67206e6f742061637469766560701b604082015260600190565b5f602082840312156123e4575f80fd5b81516122ee81612164565b634e487b7160e01b5f52601160045260245ffd5b80820281158282048414176108c4576108c46123ef565b5f8261243457634e487b7160e01b5f52601260045260245ffd5b500490565b818103818111156108c4576108c46123ef565b60208082526019908201527f5472616e7366657220746f2073656c6c6572206661696c656400000000000000604082015260600190565b602080825260139082015272119959481d1c985b9cd9995c8819985a5b1959606a1b604082015260600190565b6001600160a01b039384168152919092166020820152604081019190915260600190565b5f602082840312156124e4575f80fd5b81516122ee81612265565b60208082526011908201527005072696365206d757374206265203e203607c1b604082015260600190565b5f6001820161252b5761252b6123ef565b5060010190565b5f60208284031215612542575f80fd5b5051919050565b808201808211156108c4576108c46123ef56fea26469706673582212202b3f134a747bcd35b5f5a8c76fee1dad950b560efc2d6badad93469819f0ceea64736f6c63430008190033",
					"opcodes": "PUSH1 0x80 PUSH1 0x40 MSTORE PUSH1 0xFA PUSH1 0x7 SSTORE CALLVALUE DUP1 ISZERO PUSH2 0x14 JUMPI PUSH0 DUP1 REVERT JUMPDEST POP PUSH1 0x40 MLOAD PUSH2 0x275C CODESIZE SUB DUP1 PUSH2 0x275C DUP4 CODECOPY DUP2 ADD PUSH1 0x40 DUP2 SWAP1 MSTORE PUSH2 0x33 SWAP2 PUSH2 0x18C JUMP JUMPDEST PUSH1 0x1 PUSH0 SSTORE DUP1 PUSH1 0x1 PUSH1 0x1 PUSH1 0xA0 SHL SUB DUP2 AND PUSH2 0x66 JUMPI PUSH1 0x40 MLOAD PUSH4 0x1E4FBDF7 PUSH1 0xE0 SHL DUP2 MSTORE PUSH0 PUSH1 0x4 DUP3 ADD MSTORE PUSH1 0x24 ADD JUMPDEST PUSH1 0x40 MLOAD DUP1 SWAP2 SUB SWAP1 REVERT JUMPDEST PUSH2 0x6F DUP2 PUSH2 0x120 JUMP JUMPDEST POP PUSH1 0x1 PUSH1 0x1 PUSH1 0xA0 SHL SUB DUP3 AND PUSH2 0xC6 JUMPI PUSH1 0x40 MLOAD PUSH3 0x461BCD PUSH1 0xE5 SHL DUP2 MSTORE PUSH1 0x20 PUSH1 0x4 DUP3 ADD MSTORE PUSH1 0x15 PUSH1 0x24 DUP3 ADD MSTORE PUSH32 0x496E76616C69642066656520726563697069656E740000000000000000000000 PUSH1 0x44 DUP3 ADD MSTORE PUSH1 0x64 ADD PUSH2 0x5D JUMP JUMPDEST POP PUSH1 0x8 DUP1 SLOAD PUSH1 0x1 PUSH1 0x1 PUSH1 0xA0 SHL SUB NOT AND PUSH1 0x1 PUSH1 0x1 PUSH1 0xA0 SHL SUB SWAP3 SWAP1 SWAP3 AND SWAP2 SWAP1 SWAP2 OR SWAP1 SSTORE PUSH0 DUP1 MSTORE PUSH1 0x9 PUSH1 0x20 MSTORE PUSH32 0xEC8156718A8372B1DB44BB411437D0870F3E3790D4A08526D024CE1B0B668F6B DUP1 SLOAD PUSH1 0xFF NOT AND PUSH1 0x1 OR SWAP1 SSTORE PUSH2 0x1BD JUMP JUMPDEST PUSH1 0x1 DUP1 SLOAD PUSH1 0x1 PUSH1 0x1 PUSH1 0xA0 SHL SUB DUP4 DUP2 AND PUSH1 0x1 PUSH1 0x1 PUSH1 0xA0 SHL SUB NOT DUP4 AND DUP2 OR SWAP1 SWAP4 SSTORE PUSH1 0x40 MLOAD SWAP2 AND SWAP2 SWAP1 DUP3 SWAP1 PUSH32 0x8BE0079C531659141344CD1FD0A4F28419497F9722A3DAAFE3B4186F6B6457E0 SWAP1 PUSH0 SWAP1 LOG3 POP POP JUMP JUMPDEST DUP1 MLOAD PUSH1 0x1 PUSH1 0x1 PUSH1 0xA0 SHL SUB DUP2 AND DUP2 EQ PUSH2 0x187 JUMPI PUSH0 DUP1 REVERT JUMPDEST SWAP2 SWAP1 POP JUMP JUMPDEST PUSH0 DUP1 PUSH1 0x40 DUP4 DUP6 SUB SLT ISZERO PUSH2 0x19D JUMPI PUSH0 DUP1 REVERT JUMPDEST PUSH2 0x1A6 DUP4 PUSH2 0x171 JUMP JUMPDEST SWAP2 POP PUSH2 0x1B4 PUSH1 0x20 DUP5 ADD PUSH2 0x171 JUMP JUMPDEST SWAP1 POP SWAP3 POP SWAP3 SWAP1 POP JUMP JUMPDEST PUSH2 0x2592 DUP1 PUSH2 0x1CA PUSH0 CODECOPY PUSH0 RETURN INVALID PUSH1 0x80 PUSH1 0x40 MSTORE PUSH1 0x4 CALLDATASIZE LT PUSH2 0x195 JUMPI PUSH0 CALLDATALOAD PUSH1 0xE0 SHR DUP1 PUSH4 0x7FD6F15C GT PUSH2 0xE7 JUMPI DUP1 PUSH4 0xCDB3CD25 GT PUSH2 0x87 JUMPI DUP1 PUSH4 0xDE74E57B GT PUSH2 0x62 JUMPI DUP1 PUSH4 0xDE74E57B EQ PUSH2 0x729 JUMPI DUP1 PUSH4 0xE74B981B EQ PUSH2 0x7C8 JUMPI DUP1 PUSH4 0xEF706ADF EQ PUSH2 0x7E7 JUMPI DUP1 PUSH4 0xF2FDE38B EQ PUSH2 0x806 JUMPI PUSH0 DUP1 REVERT JUMPDEST DUP1 PUSH4 0xCDB3CD25 EQ PUSH2 0x6D6 JUMPI DUP1 PUSH4 0xD14027D4 EQ PUSH2 0x6F5 JUMPI DUP1 PUSH4 0xD73792A9 EQ PUSH2 0x714 JUMPI PUSH0 DUP1 REVERT JUMPDEST DUP1 PUSH4 0xAACCF1EC GT PUSH2 0xC2 JUMPI DUP1 PUSH4 0xAACCF1EC EQ PUSH2 0x664 JUMPI DUP1 PUSH4 0xB4A15355 EQ PUSH2 0x679 JUMPI DUP1 PUSH4 0xC4604943 EQ PUSH2 0x698 JUMPI DUP1 PUSH4 0xC815729D EQ PUSH2 0x6B7 JUMPI PUSH0 DUP1 REVERT JUMPDEST DUP1 PUSH4 0x7FD6F15C EQ PUSH2 0x584 JUMPI DUP1 PUSH4 0x8A72EA6A EQ PUSH2 0x599 JUMPI DUP1 PUSH4 0x8DA5CB5B EQ PUSH2 0x647 JUMPI PUSH0 DUP1 REVERT JUMPDEST DUP1 PUSH4 0x46904840 GT PUSH2 0x152 JUMPI DUP1 PUSH4 0x697D312A GT PUSH2 0x12D JUMPI DUP1 PUSH4 0x697D312A EQ PUSH2 0x4DD JUMPI DUP1 PUSH4 0x6F7B4352 EQ PUSH2 0x51B JUMPI DUP1 PUSH4 0x715018A6 EQ PUSH2 0x551 JUMPI DUP1 PUSH4 0x7CE3489B EQ PUSH2 0x565 JUMPI PUSH0 DUP1 REVERT JUMPDEST DUP1 PUSH4 0x46904840 EQ PUSH2 0x47E JUMPI DUP1 PUSH4 0x4884F459 EQ PUSH2 0x4B5 JUMPI DUP1 PUSH4 0x5F5D0655 EQ PUSH2 0x4C8 JUMPI PUSH0 DUP1 REVERT JUMPDEST DUP1 PUSH4 0x107A274A EQ PUSH2 0x199 JUMPI DUP1 PUSH4 0x150B7A02 EQ PUSH2 0x2B0 JUMPI DUP1 PUSH4 0x1D3C6674 EQ PUSH2 0x2E8 JUMPI DUP1 PUSH4 0x248D9AA3 EQ PUSH2 0x309 JUMPI DUP1 PUSH4 0x305A67A8 EQ PUSH2 0x336 JUMPI DUP1 PUSH4 0x4579268A EQ PUSH2 0x355 JUMPI JUMPDEST PUSH0 DUP1 REVERT JUMPDEST CALLVALUE DUP1 ISZERO PUSH2 0x1A4 JUMPI PUSH0 DUP1 REVERT JUMPDEST POP PUSH2 0x24E PUSH2 0x1B3 CALLDATASIZE PUSH1 0x4 PUSH2 0x214D JUMP JUMPDEST PUSH1 0x40 DUP1 MLOAD PUSH1 0xC0 DUP2 ADD DUP3 MSTORE PUSH0 DUP1 DUP3 MSTORE PUSH1 0x20 DUP3 ADD DUP2 SWAP1 MSTORE SWAP2 DUP2 ADD DUP3 SWAP1 MSTORE PUSH1 0x60 DUP2 ADD DUP3 SWAP1 MSTORE PUSH1 0x80 DUP2 ADD DUP3 SWAP1 MSTORE PUSH1 0xA0 DUP2 ADD SWAP2 SWAP1 SWAP2 MSTORE POP PUSH0 SWAP1 DUP2 MSTORE PUSH1 0x2 PUSH1 0x20 DUP2 DUP2 MSTORE PUSH1 0x40 SWAP3 DUP4 SWAP1 KECCAK256 DUP4 MLOAD PUSH1 0xC0 DUP2 ADD DUP6 MSTORE DUP2 SLOAD PUSH1 0x1 PUSH1 0x1 PUSH1 0xA0 SHL SUB SWAP1 DUP2 AND DUP3 MSTORE PUSH1 0x1 DUP4 ADD SLOAD DUP2 AND SWAP4 DUP3 ADD SWAP4 SWAP1 SWAP4 MSTORE SWAP3 DUP2 ADD SLOAD SWAP4 DUP4 ADD SWAP4 SWAP1 SWAP4 MSTORE PUSH1 0x3 DUP4 ADD SLOAD AND PUSH1 0x60 DUP3 ADD MSTORE PUSH1 0x4 DUP3 ADD SLOAD PUSH1 0x80 DUP3 ADD MSTORE PUSH1 0x5 SWAP1 SWAP2 ADD SLOAD PUSH1 0xFF AND ISZERO ISZERO PUSH1 0xA0 DUP3 ADD MSTORE SWAP1 JUMP JUMPDEST PUSH1 0x40 MLOAD PUSH2 0x2A7 SWAP2 SWAP1 DUP2 MLOAD PUSH1 0x1 PUSH1 0x1 PUSH1 0xA0 SHL SUB SWAP1 DUP2 AND DUP3 MSTORE PUSH1 0x20 DUP1 DUP5 ADD MLOAD DUP3 AND SWAP1 DUP4 ADD MSTORE PUSH1 0x40 DUP1 DUP5 ADD MLOAD SWAP1 DUP4 ADD MSTORE PUSH1 0x60 DUP1 DUP5 ADD MLOAD SWAP1 SWAP2 AND SWAP1 DUP3 ADD MSTORE PUSH1 0x80 DUP1 DUP4 ADD MLOAD SWAP1 DUP3 ADD MSTORE PUSH1 0xA0 SWAP2 DUP3 ADD MLOAD ISZERO ISZERO SWAP2 DUP2 ADD SWAP2 SWAP1 SWAP2 MSTORE PUSH1 0xC0 ADD SWAP1 JUMP JUMPDEST PUSH1 0x40 MLOAD DUP1 SWAP2 SUB SWAP1 RETURN JUMPDEST CALLVALUE DUP1 ISZERO PUSH2 0x2BB JUMPI PUSH0 DUP1 REVERT JUMPDEST POP PUSH2 0x2CF PUSH2 0x2CA CALLDATASIZE PUSH1 0x4 PUSH2 0x218C JUMP JUMPDEST PUSH2 0x825 JUMP JUMPDEST PUSH1 0x40 MLOAD PUSH1 0x1 PUSH1 0x1 PUSH1 0xE0 SHL SUB NOT SWAP1 SWAP2 AND DUP2 MSTORE PUSH1 0x20 ADD PUSH2 0x2A7 JUMP JUMPDEST CALLVALUE DUP1 ISZERO PUSH2 0x2F3 JUMPI PUSH0 DUP1 REVERT JUMPDEST POP PUSH2 0x307 PUSH2 0x302 CALLDATASIZE PUSH1 0x4 PUSH2 0x2272 JUMP JUMPDEST PUSH2 0x836 JUMP JUMPDEST STOP JUMPDEST CALLVALUE DUP1 ISZERO PUSH2 0x314 JUMPI PUSH0 DUP1 REVERT JUMPDEST POP PUSH2 0x328 PUSH2 0x323 CALLDATASIZE PUSH1 0x4 PUSH2 0x22A9 JUMP JUMPDEST PUSH2 0x8A0 JUMP JUMPDEST PUSH1 0x40 MLOAD SWAP1 DUP2 MSTORE PUSH1 0x20 ADD PUSH2 0x2A7 JUMP JUMPDEST CALLVALUE DUP1 ISZERO PUSH2 0x341 JUMPI PUSH0 DUP1 REVERT JUMPDEST POP PUSH2 0x307 PUSH2 0x350 CALLDATASIZE PUSH1 0x4 PUSH2 0x214D JUMP JUMPDEST PUSH2 0x8CA JUMP JUMPDEST CALLVALUE DUP1 ISZERO PUSH2 0x360 JUMPI PUSH0 DUP1 REVERT JUMPDEST POP PUSH2 0x41B PUSH2 0x36F CALLDATASIZE PUSH1 0x4 PUSH2 0x214D JUMP JUMPDEST PUSH1 0x40 DUP1 MLOAD PUSH1 0xE0 DUP2 ADD DUP3 MSTORE PUSH0 DUP1 DUP3 MSTORE PUSH1 0x20 DUP3 ADD DUP2 SWAP1 MSTORE SWAP2 DUP2 ADD DUP3 SWAP1 MSTORE PUSH1 0x60 DUP2 ADD DUP3 SWAP1 MSTORE PUSH1 0x80 DUP2 ADD DUP3 SWAP1 MSTORE PUSH1 0xA0 DUP2 ADD DUP3 SWAP1 MSTORE PUSH1 0xC0 DUP2 ADD SWAP2 SWAP1 SWAP2 MSTORE POP PUSH0 SWAP1 DUP2 MSTORE PUSH1 0x4 PUSH1 0x20 DUP2 DUP2 MSTORE PUSH1 0x40 SWAP3 DUP4 SWAP1 KECCAK256 DUP4 MLOAD PUSH1 0xE0 DUP2 ADD DUP6 MSTORE DUP2 SLOAD PUSH1 0x1 PUSH1 0x1 PUSH1 0xA0 SHL SUB SWAP1 DUP2 AND DUP3 MSTORE PUSH1 0x1 DUP4 ADD SLOAD DUP2 AND SWAP4 DUP3 ADD SWAP4 SWAP1 SWAP4 MSTORE PUSH1 0x2 DUP3 ADD SLOAD SWAP5 DUP2 ADD SWAP5 SWAP1 SWAP5 MSTORE PUSH1 0x3 DUP2 ADD SLOAD SWAP1 SWAP2 AND PUSH1 0x60 DUP5 ADD MSTORE SWAP1 DUP2 ADD SLOAD PUSH1 0x80 DUP4 ADD MSTORE PUSH1 0x5 DUP2 ADD SLOAD PUSH1 0xA0 DUP4 ADD MSTORE PUSH1 0x6 ADD SLOAD PUSH1 0xFF AND ISZERO ISZERO PUSH1 0xC0 DUP3 ADD MSTORE SWAP1 JUMP JUMPDEST PUSH1 0x40 MLOAD PUSH2 0x2A7 SWAP2 SWAP1 DUP2 MLOAD PUSH1 0x1 PUSH1 0x1 PUSH1 0xA0 SHL SUB SWAP1 DUP2 AND DUP3 MSTORE PUSH1 0x20 DUP1 DUP5 ADD MLOAD DUP3 AND SWAP1 DUP4 ADD MSTORE PUSH1 0x40 DUP1 DUP5 ADD MLOAD SWAP1 DUP4 ADD MSTORE PUSH1 0x60 DUP1 DUP5 ADD MLOAD SWAP1 SWAP2 AND SWAP1 DUP3 ADD MSTORE PUSH1 0x80 DUP1 DUP4 ADD MLOAD SWAP1 DUP3 ADD MSTORE PUSH1 0xA0 DUP3 DUP2 ADD MLOAD SWAP1 DUP3 ADD MSTORE PUSH1 0xC0 SWAP2 DUP3 ADD MLOAD ISZERO ISZERO SWAP2 DUP2 ADD SWAP2 SWAP1 SWAP2 MSTORE PUSH1 0xE0 ADD SWAP1 JUMP JUMPDEST CALLVALUE DUP1 ISZERO PUSH2 0x489 JUMPI PUSH0 DUP1 REVERT JUMPDEST POP PUSH1 0x8 SLOAD PUSH2 0x49D SWAP1 PUSH1 0x1 PUSH1 0x1 PUSH1 0xA0 SHL SUB AND DUP2 JUMP JUMPDEST PUSH1 0x40 MLOAD PUSH1 0x1 PUSH1 0x1 PUSH1 0xA0 SHL SUB SWAP1 SWAP2 AND DUP2 MSTORE PUSH1 0x20 ADD PUSH2 0x2A7 JUMP JUMPDEST PUSH2 0x307 PUSH2 0x4C3 CALLDATASIZE PUSH1 0x4 PUSH2 0x214D JUMP JUMPDEST PUSH2 0x9BF JUMP JUMPDEST CALLVALUE DUP1 ISZERO PUSH2 0x4D3 JUMPI PUSH0 DUP1 REVERT JUMPDEST POP PUSH2 0x328 PUSH1 0x5 SLOAD DUP2 JUMP JUMPDEST CALLVALUE DUP1 ISZERO PUSH2 0x4E8 JUMPI PUSH0 DUP1 REVERT JUMPDEST POP PUSH2 0x50B PUSH2 0x4F7 CALLDATASIZE PUSH1 0x4 PUSH2 0x22D3 JUMP JUMPDEST PUSH1 0x9 PUSH1 0x20 MSTORE PUSH0 SWAP1 DUP2 MSTORE PUSH1 0x40 SWAP1 KECCAK256 SLOAD PUSH1 0xFF AND DUP2 JUMP JUMPDEST PUSH1 0x40 MLOAD SWAP1 ISZERO ISZERO DUP2 MSTORE PUSH1 0x20 ADD PUSH2 0x2A7 JUMP JUMPDEST CALLVALUE DUP1 ISZERO PUSH2 0x526 JUMPI PUSH0 DUP1 REVERT JUMPDEST POP PUSH2 0x328 PUSH2 0x535 CALLDATASIZE PUSH1 0x4 PUSH2 0x22A9 JUMP JUMPDEST PUSH1 0x6 PUSH1 0x20 SWAP1 DUP2 MSTORE PUSH0 SWAP3 DUP4 MSTORE PUSH1 0x40 DUP1 DUP5 KECCAK256 SWAP1 SWAP2 MSTORE SWAP1 DUP3 MSTORE SWAP1 KECCAK256 SLOAD DUP2 JUMP JUMPDEST CALLVALUE DUP1 ISZERO PUSH2 0x55C JUMPI PUSH0 DUP1 REVERT JUMPDEST POP PUSH2 0x307 PUSH2 0xF0A JUMP JUMPDEST CALLVALUE DUP1 ISZERO PUSH2 0x570 JUMPI PUSH0 DUP1 REVERT JUMPDEST POP PUSH2 0x307 PUSH2 0x57F CALLDATASIZE PUSH1 0x4 PUSH2 0x214D JUMP JUMPDEST PUSH2 0xF1D JUMP JUMPDEST CALLVALUE DUP1 ISZERO PUSH2 0x58F JUMPI PUSH0 DUP1 REVERT JUMPDEST POP PUSH2 0x328 PUSH1 0x7 SLOAD DUP2 JUMP JUMPDEST CALLVALUE DUP1 ISZERO PUSH2 0x5A4 JUMPI PUSH0 DUP1 REVERT JUMPDEST POP PUSH2 0x602 PUSH2 0x5B3 CALLDATASIZE PUSH1 0x4 PUSH2 0x214D JUMP JUMPDEST PUSH1 0x4 PUSH1 0x20 DUP2 SWAP1 MSTORE PUSH0 SWAP2 DUP3 MSTORE PUSH1 0x40 SWAP1 SWAP2 KECCAK256 DUP1 SLOAD PUSH1 0x1 DUP3 ADD SLOAD PUSH1 0x2 DUP4 ADD SLOAD PUSH1 0x3 DUP5 ADD SLOAD SWAP5 DUP5 ADD SLOAD PUSH1 0x5 DUP6 ADD SLOAD PUSH1 0x6 SWAP1 SWAP6 ADD SLOAD PUSH1 0x1 PUSH1 0x1 PUSH1 0xA0 SHL SUB SWAP5 DUP6 AND SWAP7 SWAP4 DUP6 AND SWAP6 SWAP3 SWAP5 SWAP1 SWAP4 AND SWAP3 SWAP1 SWAP2 SWAP1 PUSH1 0xFF AND DUP8 JUMP JUMPDEST PUSH1 0x40 DUP1 MLOAD PUSH1 0x1 PUSH1 0x1 PUSH1 0xA0 SHL SUB SWAP9 DUP10 AND DUP2 MSTORE SWAP7 DUP9 AND PUSH1 0x20 DUP9 ADD MSTORE DUP7 ADD SWAP5 SWAP1 SWAP5 MSTORE SWAP5 SWAP1 SWAP2 AND PUSH1 0x60 DUP5 ADD MSTORE PUSH1 0x80 DUP4 ADD MSTORE PUSH1 0xA0 DUP3 ADD SWAP3 SWAP1 SWAP3 MSTORE SWAP1 ISZERO ISZERO PUSH1 0xC0 DUP3 ADD MSTORE PUSH1 0xE0 ADD PUSH2 0x2A7 JUMP JUMPDEST CALLVALUE DUP1 ISZERO PUSH2 0x652 JUMPI PUSH0 DUP1 REVERT JUMPDEST POP PUSH1 0x1 SLOAD PUSH1 0x1 PUSH1 0x1 PUSH1 0xA0 SHL SUB AND PUSH2 0x49D JUMP JUMPDEST CALLVALUE DUP1 ISZERO PUSH2 0x66F JUMPI PUSH0 DUP1 REVERT JUMPDEST POP PUSH2 0x328 PUSH1 0x3 SLOAD DUP2 JUMP JUMPDEST CALLVALUE DUP1 ISZERO PUSH2 0x684 JUMPI PUSH0 DUP1 REVERT JUMPDEST POP PUSH2 0x328 PUSH2 0x693 CALLDATASIZE PUSH1 0x4 PUSH2 0x22F5 JUMP JUMPDEST PUSH2 0xFA2 JUMP JUMPDEST CALLVALUE DUP1 ISZERO PUSH2 0x6A3 JUMPI PUSH0 DUP1 REVERT JUMPDEST POP PUSH2 0x307 PUSH2 0x6B2 CALLDATASIZE PUSH1 0x4 PUSH2 0x233A JUMP JUMPDEST PUSH2 0x13B1 JUMP JUMPDEST CALLVALUE DUP1 ISZERO PUSH2 0x6C2 JUMPI PUSH0 DUP1 REVERT JUMPDEST POP PUSH2 0x307 PUSH2 0x6D1 CALLDATASIZE PUSH1 0x4 PUSH2 0x214D JUMP JUMPDEST PUSH2 0x1499 JUMP JUMPDEST CALLVALUE DUP1 ISZERO PUSH2 0x6E1 JUMPI PUSH0 DUP1 REVERT JUMPDEST POP PUSH2 0x50B PUSH2 0x6F0 CALLDATASIZE PUSH1 0x4 PUSH2 0x22A9 JUMP JUMPDEST PUSH2 0x1A04 JUMP JUMPDEST CALLVALUE DUP1 ISZERO PUSH2 0x700 JUMPI PUSH0 DUP1 REVERT JUMPDEST POP PUSH2 0x328 PUSH2 0x70F CALLDATASIZE PUSH1 0x4 PUSH2 0x235A JUMP JUMPDEST PUSH2 0x1A4C JUMP JUMPDEST CALLVALUE DUP1 ISZERO PUSH2 0x71F JUMPI PUSH0 DUP1 REVERT JUMPDEST POP PUSH2 0x328 PUSH2 0x2710 DUP2 JUMP JUMPDEST CALLVALUE DUP1 ISZERO PUSH2 0x734 JUMPI PUSH0 DUP1 REVERT JUMPDEST POP PUSH2 0x78A PUSH2 0x743 CALLDATASIZE PUSH1 0x4 PUSH2 0x214D JUMP JUMPDEST PUSH1 0x2 PUSH1 0x20 DUP2 SWAP1 MSTORE PUSH0 SWAP2 DUP3 MSTORE PUSH1 0x40 SWAP1 SWAP2 KECCAK256 DUP1 SLOAD PUSH1 0x1 DUP3 ADD SLOAD SWAP3 DUP3 ADD SLOAD PUSH1 0x3 DUP4 ADD SLOAD PUSH1 0x4 DUP5 ADD SLOAD PUSH1 0x5 SWAP1 SWAP5 ADD SLOAD PUSH1 0x1 PUSH1 0x1 PUSH1 0xA0 SHL SUB SWAP4 DUP5 AND SWAP6 DUP5 AND SWAP5 SWAP3 SWAP4 SWAP1 SWAP2 AND SWAP2 SWAP1 PUSH1 0xFF AND DUP7 JUMP JUMPDEST PUSH1 0x40 DUP1 MLOAD PUSH1 0x1 PUSH1 0x1 PUSH1 0xA0 SHL SUB SWAP8 DUP9 AND DUP2 MSTORE SWAP6 DUP8 AND PUSH1 0x20 DUP8 ADD MSTORE DUP6 ADD SWAP4 SWAP1 SWAP4 MSTORE SWAP4 AND PUSH1 0x60 DUP4 ADD MSTORE PUSH1 0x80 DUP3 ADD SWAP3 SWAP1 SWAP3 MSTORE SWAP1 ISZERO ISZERO PUSH1 0xA0 DUP3 ADD MSTORE PUSH1 0xC0 ADD PUSH2 0x2A7 JUMP JUMPDEST CALLVALUE DUP1 ISZERO PUSH2 0x7D3 JUMPI PUSH0 DUP1 REVERT JUMPDEST POP PUSH2 0x307 PUSH2 0x7E2 CALLDATASIZE PUSH1 0x4 PUSH2 0x22D3 JUMP JUMPDEST PUSH2 0x1EB7 JUMP JUMPDEST CALLVALUE DUP1 ISZERO PUSH2 0x7F2 JUMPI PUSH0 DUP1 REVERT JUMPDEST POP PUSH2 0x307 PUSH2 0x801 CALLDATASIZE PUSH1 0x4 PUSH2 0x214D JUMP JUMPDEST PUSH2 0x1F55 JUMP JUMPDEST CALLVALUE DUP1 ISZERO PUSH2 0x811 JUMPI PUSH0 DUP1 REVERT JUMPDEST POP PUSH2 0x307 PUSH2 0x820 CALLDATASIZE PUSH1 0x4 PUSH2 0x22D3 JUMP JUMPDEST PUSH2 0x203E JUMP JUMPDEST PUSH4 0xA85BD01 PUSH1 0xE1 SHL JUMPDEST SWAP5 SWAP4 POP POP POP POP JUMP JUMPDEST PUSH2 0x83E PUSH2 0x2078 JUMP JUMPDEST PUSH1 0x1 PUSH1 0x1 PUSH1 0xA0 SHL SUB DUP3 AND PUSH0 DUP2 DUP2 MSTORE PUSH1 0x9 PUSH1 0x20 SWAP1 DUP2 MSTORE PUSH1 0x40 SWAP2 DUP3 SWAP1 KECCAK256 DUP1 SLOAD PUSH1 0xFF NOT AND DUP6 ISZERO ISZERO SWAP1 DUP2 OR SWAP1 SWAP2 SSTORE DUP3 MLOAD SWAP4 DUP5 MSTORE SWAP1 DUP4 ADD MSTORE PUSH32 0x19C6E2FBD27C3204EFB106F0081D2D7FFAF44DA224CA04FBC0D8A262BA40F555 SWAP2 ADD PUSH1 0x40 MLOAD DUP1 SWAP2 SUB SWAP1 LOG1 POP POP JUMP JUMPDEST PUSH1 0x1 PUSH1 0x1 PUSH1 0xA0 SHL SUB DUP3 AND PUSH0 SWAP1 DUP2 MSTORE PUSH1 0x6 PUSH1 0x20 SWAP1 DUP2 MSTORE PUSH1 0x40 DUP1 DUP4 KECCAK256 DUP5 DUP5 MSTORE SWAP1 SWAP2 MSTORE SWAP1 KECCAK256 SLOAD JUMPDEST SWAP3 SWAP2 POP POP JUMP JUMPDEST PUSH2 0x8D2 PUSH2 0x20A5 JUMP JUMPDEST PUSH0 DUP2 DUP2 MSTORE PUSH1 0x2 PUSH1 0x20 MSTORE PUSH1 0x40 SWAP1 KECCAK256 PUSH1 0x5 DUP2 ADD SLOAD PUSH1 0xFF AND PUSH2 0x90C JUMPI PUSH1 0x40 MLOAD PUSH3 0x461BCD PUSH1 0xE5 SHL DUP2 MSTORE PUSH1 0x4 ADD PUSH2 0x903 SWAP1 PUSH2 0x23A8 JUMP JUMPDEST PUSH1 0x40 MLOAD DUP1 SWAP2 SUB SWAP1 REVERT JUMPDEST DUP1 SLOAD PUSH1 0x1 PUSH1 0x1 PUSH1 0xA0 SHL SUB AND CALLER EQ PUSH2 0x952 JUMPI PUSH1 0x40 MLOAD PUSH3 0x461BCD PUSH1 0xE5 SHL DUP2 MSTORE PUSH1 0x20 PUSH1 0x4 DUP3 ADD MSTORE PUSH1 0xA PUSH1 0x24 DUP3 ADD MSTORE PUSH10 0x2737BA1039B2B63632B9 PUSH1 0xB1 SHL PUSH1 0x44 DUP3 ADD MSTORE PUSH1 0x64 ADD PUSH2 0x903 JUMP JUMPDEST PUSH1 0x5 DUP2 ADD DUP1 SLOAD PUSH1 0xFF NOT AND SWAP1 SSTORE PUSH1 0x1 DUP2 ADD SLOAD PUSH1 0x1 PUSH1 0x1 PUSH1 0xA0 SHL SUB AND PUSH0 SWAP1 DUP2 MSTORE PUSH1 0x6 PUSH1 0x20 SWAP1 DUP2 MSTORE PUSH1 0x40 DUP1 DUP4 KECCAK256 PUSH1 0x2 DUP6 ADD SLOAD DUP5 MSTORE SWAP1 SWAP2 MSTORE DUP1 DUP3 KECCAK256 DUP3 SWAP1 SSTORE MLOAD DUP4 SWAP2 PUSH32 0x411AEE90354C51B1B04CD563FCAB2617142A9D50DA19232D888547C8A1B7FD8A SWAP2 LOG2 POP PUSH2 0x9BC PUSH1 0x1 PUSH0 SSTORE JUMP JUMPDEST POP JUMP JUMPDEST PUSH2 0x9C7 PUSH2 0x20A5 JUMP JUMPDEST PUSH0 DUP2 DUP2 MSTORE PUSH1 0x2 PUSH1 0x20 MSTORE PUSH1 0x40 SWAP1 KECCAK256 PUSH1 0x5 DUP2 ADD SLOAD PUSH1 0xFF AND PUSH2 0x9F8 JUMPI PUSH1 0x40 MLOAD PUSH3 0x461BCD PUSH1 0xE5 SHL DUP2 MSTORE PUSH1 0x4 ADD PUSH2 0x903 SWAP1 PUSH2 0x23A8 JUMP JUMPDEST DUP1 SLOAD PUSH1 0x1 DUP3 ADD SLOAD PUSH1 0x2 DUP4 ADD SLOAD PUSH1 0x40 MLOAD PUSH4 0x31A9108F PUSH1 0xE1 SHL DUP2 MSTORE PUSH1 0x4 DUP2 ADD SWAP2 SWAP1 SWAP2 MSTORE PUSH1 0x1 PUSH1 0x1 PUSH1 0xA0 SHL SUB SWAP3 DUP4 AND SWAP3 SWAP1 SWAP2 AND SWAP1 PUSH4 0x6352211E SWAP1 PUSH1 0x24 ADD PUSH1 0x20 PUSH1 0x40 MLOAD DUP1 DUP4 SUB DUP2 DUP7 GAS STATICCALL ISZERO DUP1 ISZERO PUSH2 0xA4D JUMPI RETURNDATASIZE PUSH0 DUP1 RETURNDATACOPY RETURNDATASIZE PUSH0 REVERT JUMPDEST POP POP POP POP PUSH1 0x40 MLOAD RETURNDATASIZE PUSH1 0x1F NOT PUSH1 0x1F DUP3 ADD AND DUP3 ADD DUP1 PUSH1 0x40 MSTORE POP DUP2 ADD SWAP1 PUSH2 0xA71 SWAP2 SWAP1 PUSH2 0x23D4 JUMP JUMPDEST PUSH1 0x1 PUSH1 0x1 PUSH1 0xA0 SHL SUB AND EQ PUSH2 0xAC7 JUMPI PUSH1 0x40 MLOAD PUSH3 0x461BCD PUSH1 0xE5 SHL DUP2 MSTORE PUSH1 0x20 PUSH1 0x4 DUP3 ADD MSTORE PUSH1 0x1B PUSH1 0x24 DUP3 ADD MSTORE PUSH32 0x53656C6C6572206E6F206C6F6E676572206F776E7320746F6B656E0000000000 PUSH1 0x44 DUP3 ADD MSTORE PUSH1 0x64 ADD PUSH2 0x903 JUMP JUMPDEST PUSH1 0x4 DUP2 ADD SLOAD DUP2 SLOAD PUSH1 0x7 SLOAD PUSH1 0x1 PUSH1 0x1 PUSH1 0xA0 SHL SUB SWAP1 SWAP2 AND SWAP1 PUSH0 SWAP1 PUSH2 0x2710 SWAP1 PUSH2 0xAED SWAP1 DUP6 PUSH2 0x2403 JUMP JUMPDEST PUSH2 0xAF7 SWAP2 SWAP1 PUSH2 0x241A JUMP JUMPDEST SWAP1 POP PUSH0 PUSH2 0xB04 DUP3 DUP6 PUSH2 0x2439 JUMP JUMPDEST PUSH1 0x3 DUP7 ADD SLOAD SWAP1 SWAP2 POP PUSH1 0x1 PUSH1 0x1 PUSH1 0xA0 SHL SUB AND PUSH2 0xCE2 JUMPI DUP4 CALLVALUE LT ISZERO PUSH2 0xB60 JUMPI PUSH1 0x40 MLOAD PUSH3 0x461BCD PUSH1 0xE5 SHL DUP2 MSTORE PUSH1 0x20 PUSH1 0x4 DUP3 ADD MSTORE PUSH1 0x14 PUSH1 0x24 DUP3 ADD MSTORE PUSH20 0x125B9CDD59999A58DA595B9D081C185E5B595B9D PUSH1 0x62 SHL PUSH1 0x44 DUP3 ADD MSTORE PUSH1 0x64 ADD PUSH2 0x903 JUMP JUMPDEST PUSH0 DUP4 PUSH1 0x1 PUSH1 0x1 PUSH1 0xA0 SHL SUB AND DUP3 PUSH1 0x40 MLOAD PUSH0 PUSH1 0x40 MLOAD DUP1 DUP4 SUB DUP2 DUP6 DUP8 GAS CALL SWAP3 POP POP POP RETURNDATASIZE DUP1 PUSH0 DUP2 EQ PUSH2 0xBA9 JUMPI PUSH1 0x40 MLOAD SWAP2 POP PUSH1 0x1F NOT PUSH1 0x3F RETURNDATASIZE ADD AND DUP3 ADD PUSH1 0x40 MSTORE RETURNDATASIZE DUP3 MSTORE RETURNDATASIZE PUSH0 PUSH1 0x20 DUP5 ADD RETURNDATACOPY PUSH2 0xBAE JUMP JUMPDEST PUSH1 0x60 SWAP2 POP JUMPDEST POP POP SWAP1 POP DUP1 PUSH2 0xBCF JUMPI PUSH1 0x40 MLOAD PUSH3 0x461BCD PUSH1 0xE5 SHL DUP2 MSTORE PUSH1 0x4 ADD PUSH2 0x903 SWAP1 PUSH2 0x244C JUMP JUMPDEST DUP3 ISZERO PUSH2 0xC47 JUMPI PUSH1 0x8 SLOAD PUSH1 0x40 MLOAD PUSH0 SWAP2 PUSH1 0x1 PUSH1 0x1 PUSH1 0xA0 SHL SUB AND SWAP1 DUP6 SWAP1 DUP4 DUP2 DUP2 DUP2 DUP6 DUP8 GAS CALL SWAP3 POP POP POP RETURNDATASIZE DUP1 PUSH0 DUP2 EQ PUSH2 0xC1F JUMPI PUSH1 0x40 MLOAD SWAP2 POP PUSH1 0x1F NOT PUSH1 0x3F RETURNDATASIZE ADD AND DUP3 ADD PUSH1 0x40 MSTORE RETURNDATASIZE DUP3 MSTORE RETURNDATASIZE PUSH0 PUSH1 0x20 DUP5 ADD RETURNDATACOPY PUSH2 0xC24 JUMP JUMPDEST PUSH1 0x60 SWAP2 POP JUMPDEST POP POP SWAP1 POP DUP1 PUSH2 0xC45 JUMPI PUSH1 0x40 MLOAD PUSH3 0x461BCD PUSH1 0xE5 SHL DUP2 MSTORE PUSH1 0x4 ADD PUSH2 0x903 SWAP1 PUSH2 0x2483 JUMP JUMPDEST POP JUMPDEST DUP5 CALLVALUE GT ISZERO PUSH2 0xCDC JUMPI PUSH0 CALLER PUSH2 0xC5B DUP8 CALLVALUE PUSH2 0x2439 JUMP JUMPDEST PUSH1 0x40 MLOAD PUSH0 DUP2 DUP2 DUP2 DUP6 DUP8 GAS CALL SWAP3 POP POP POP RETURNDATASIZE DUP1 PUSH0 DUP2 EQ PUSH2 0xC94 JUMPI PUSH1 0x40 MLOAD SWAP2 POP PUSH1 0x1F NOT PUSH1 0x3F RETURNDATASIZE ADD AND DUP3 ADD PUSH1 0x40 MSTORE RETURNDATASIZE DUP3 MSTORE RETURNDATASIZE PUSH0 PUSH1 0x20 DUP5 ADD RETURNDATACOPY PUSH2 0xC99 JUMP JUMPDEST PUSH1 0x60 SWAP2 POP JUMPDEST POP POP SWAP1 POP DUP1 PUSH2 0xCDA JUMPI PUSH1 0x40 MLOAD PUSH3 0x461BCD PUSH1 0xE5 SHL DUP2 MSTORE PUSH1 0x20 PUSH1 0x4 DUP3 ADD MSTORE PUSH1 0xD PUSH1 0x24 DUP3 ADD MSTORE PUSH13 0x1499599D5B990819985A5B1959 PUSH1 0x9A SHL PUSH1 0x44 DUP3 ADD MSTORE PUSH1 0x64 ADD PUSH2 0x903 JUMP JUMPDEST POP JUMPDEST POP PUSH2 0xE0E JUMP JUMPDEST PUSH1 0x3 DUP6 ADD SLOAD PUSH1 0x40 MLOAD PUSH4 0x23B872DD PUSH1 0xE0 SHL DUP2 MSTORE PUSH1 0x1 PUSH1 0x1 PUSH1 0xA0 SHL SUB SWAP1 SWAP2 AND SWAP1 DUP2 SWAP1 PUSH4 0x23B872DD SWAP1 PUSH2 0xD1A SWAP1 CALLER SWAP1 DUP9 SWAP1 DUP8 SWAP1 PUSH1 0x4 ADD PUSH2 0x24B0 JUMP JUMPDEST PUSH1 0x20 PUSH1 0x40 MLOAD DUP1 DUP4 SUB DUP2 PUSH0 DUP8 GAS CALL ISZERO DUP1 ISZERO PUSH2 0xD36 JUMPI RETURNDATASIZE PUSH0 DUP1 RETURNDATACOPY RETURNDATASIZE PUSH0 REVERT JUMPDEST POP POP POP POP PUSH1 0x40 MLOAD RETURNDATASIZE PUSH1 0x1F NOT PUSH1 0x1F DUP3 ADD AND DUP3 ADD DUP1 PUSH1 0x40 MSTORE POP DUP2 ADD SWAP1 PUSH2 0xD5A SWAP2 SWAP1 PUSH2 0x24D4 JUMP JUMPDEST PUSH2 0xD76 JUMPI PUSH1 0x40 MLOAD PUSH3 0x461BCD PUSH1 0xE5 SHL DUP2 MSTORE PUSH1 0x4 ADD PUSH2 0x903 SWAP1 PUSH2 0x244C JUMP JUMPDEST DUP3 ISZERO PUSH2 0xE0C JUMPI PUSH1 0x8 SLOAD PUSH1 0x40 MLOAD PUSH4 0x23B872DD PUSH1 0xE0 SHL DUP2 MSTORE PUSH1 0x1 PUSH1 0x1 PUSH1 0xA0 SHL SUB DUP1 DUP5 AND SWAP3 PUSH4 0x23B872DD SWAP3 PUSH2 0xDB0 SWAP3 CALLER SWAP3 AND SWAP1 DUP9 SWAP1 PUSH1 0x4 ADD PUSH2 0x24B0 JUMP JUMPDEST PUSH1 0x20 PUSH1 0x40 MLOAD DUP1 DUP4 SUB DUP2 PUSH0 DUP8 GAS CALL ISZERO DUP1 ISZERO PUSH2 0xDCC JUMPI RETURNDATASIZE PUSH0 DUP1 RETURNDATACOPY RETURNDATASIZE PUSH0 REVERT JUMPDEST POP POP POP POP PUSH1 0x40 MLOAD RETURNDATASIZE PUSH1 0x1F NOT PUSH1 0x1F DUP3 ADD AND DUP3 ADD DUP1 PUSH1 0x40 MSTORE POP DUP2 ADD SWAP1 PUSH2 0xDF0 SWAP2 SWAP1 PUSH2 0x24D4 JUMP JUMPDEST PUSH2 0xE0C JUMPI PUSH1 0x40 MLOAD PUSH3 0x461BCD PUSH1 0xE5 SHL DUP2 MSTORE PUSH1 0x4 ADD PUSH2 0x903 SWAP1 PUSH2 0x2483 JUMP JUMPDEST POP JUMPDEST PUSH1 0x1 DUP6 ADD SLOAD PUSH1 0x2 DUP7 ADD SLOAD PUSH1 0x40 MLOAD PUSH4 0x21421707 PUSH1 0xE1 SHL DUP2 MSTORE PUSH1 0x1 PUSH1 0x1 PUSH1 0xA0 SHL SUB SWAP1 SWAP3 AND SWAP2 PUSH4 0x42842E0E SWAP2 PUSH2 0xE47 SWAP2 DUP8 SWAP2 CALLER SWAP2 PUSH1 0x4 ADD PUSH2 0x24B0 JUMP JUMPDEST PUSH0 PUSH1 0x40 MLOAD DUP1 DUP4 SUB DUP2 PUSH0 DUP8 DUP1 EXTCODESIZE ISZERO DUP1 ISZERO PUSH2 0xE5E JUMPI PUSH0 DUP1 REVERT JUMPDEST POP GAS CALL ISZERO DUP1 ISZERO PUSH2 0xE70 JUMPI RETURNDATASIZE PUSH0 DUP1 RETURNDATACOPY RETURNDATASIZE PUSH0 REVERT JUMPDEST POP POP POP POP PUSH1 0x5 DUP6 ADD DUP1 SLOAD PUSH1 0xFF NOT AND SWAP1 SSTORE PUSH1 0x1 DUP6 ADD DUP1 SLOAD PUSH1 0x1 PUSH1 0x1 PUSH1 0xA0 SHL SUB SWAP1 DUP2 AND PUSH0 SWAP1 DUP2 MSTORE PUSH1 0x6 PUSH1 0x20 SWAP1 DUP2 MSTORE PUSH1 0x40 DUP1 DUP4 KECCAK256 PUSH1 0x2 DUP12 ADD DUP1 SLOAD DUP6 MSTORE SWAP1 DUP4 MSTORE DUP2 DUP5 KECCAK256 SWAP4 SWAP1 SWAP4 SSTORE SWAP4 SLOAD SWAP2 SLOAD DUP5 MLOAD SWAP3 DUP5 AND DUP4 MSTORE SWAP1 DUP3 ADD MSTORE SWAP2 DUP3 ADD DUP7 SWAP1 MSTORE DUP5 AND SWAP1 CALLER SWAP1 DUP9 SWAP1 PUSH32 0x87668BF59B21C78084390260EB626847B730CADDC5B38199CF1C27AD39954B83 SWAP1 PUSH1 0x60 ADD PUSH1 0x40 MLOAD DUP1 SWAP2 SUB SWAP1 LOG4 POP POP POP POP POP PUSH2 0x9BC PUSH1 0x1 PUSH0 SSTORE JUMP JUMPDEST PUSH2 0xF12 PUSH2 0x2078 JUMP JUMPDEST PUSH2 0xF1B PUSH0 PUSH2 0x20FC JUMP JUMPDEST JUMP JUMPDEST PUSH2 0xF25 PUSH2 0x2078 JUMP JUMPDEST PUSH2 0x3E8 DUP2 GT ISZERO PUSH2 0xF66 JUMPI PUSH1 0x40 MLOAD PUSH3 0x461BCD PUSH1 0xE5 SHL DUP2 MSTORE PUSH1 0x20 PUSH1 0x4 DUP3 ADD MSTORE PUSH1 0xC PUSH1 0x24 DUP3 ADD MSTORE PUSH12 0x8CCACA40E8DEDE40D0D2CED PUSH1 0xA3 SHL PUSH1 0x44 DUP3 ADD MSTORE PUSH1 0x64 ADD PUSH2 0x903 JUMP JUMPDEST PUSH1 0x7 DUP2 SWAP1 SSTORE PUSH1 0x40 MLOAD DUP2 DUP2 MSTORE PUSH32 0x64D1887078A96D281ED60DD69BA75BFB6B5CD2CB4C2D2538B2EB7816A4C646EA SWAP1 PUSH1 0x20 ADD JUMPDEST PUSH1 0x40 MLOAD DUP1 SWAP2 SUB SWAP1 LOG1 POP JUMP JUMPDEST PUSH0 PUSH2 0xFAB PUSH2 0x20A5 JUMP JUMPDEST PUSH0 DUP3 GT PUSH2 0xFCA JUMPI PUSH1 0x40 MLOAD PUSH3 0x461BCD PUSH1 0xE5 SHL DUP2 MSTORE PUSH1 0x4 ADD PUSH2 0x903 SWAP1 PUSH2 0x24EF JUMP JUMPDEST PUSH1 0x1 PUSH1 0x1 PUSH1 0xA0 SHL SUB DUP4 AND PUSH0 SWAP1 DUP2 MSTORE PUSH1 0x9 PUSH1 0x20 MSTORE PUSH1 0x40 SWAP1 KECCAK256 SLOAD PUSH1 0xFF AND PUSH2 0x102D JUMPI PUSH1 0x40 MLOAD PUSH3 0x461BCD PUSH1 0xE5 SHL DUP2 MSTORE PUSH1 0x20 PUSH1 0x4 DUP3 ADD MSTORE PUSH1 0x19 PUSH1 0x24 DUP3 ADD MSTORE PUSH25 0x14185E5B595B9D081D1BDAD95B881B9BDD08185B1B1BDDD959 PUSH1 0x3A SHL PUSH1 0x44 DUP3 ADD MSTORE PUSH1 0x64 ADD PUSH2 0x903 JUMP JUMPDEST PUSH1 0x40 MLOAD PUSH4 0x31A9108F PUSH1 0xE1 SHL DUP2 MSTORE PUSH1 0x4 DUP2 ADD DUP6 SWAP1 MSTORE CALLER SWAP1 PUSH1 0x1 PUSH1 0x1 PUSH1 0xA0 SHL SUB DUP8 AND SWAP1 PUSH4 0x6352211E SWAP1 PUSH1 0x24 ADD PUSH1 0x20 PUSH1 0x40 MLOAD DUP1 DUP4 SUB DUP2 DUP7 GAS STATICCALL ISZERO DUP1 ISZERO PUSH2 0x1072 JUMPI RETURNDATASIZE PUSH0 DUP1 RETURNDATACOPY RETURNDATASIZE PUSH0 REVERT JUMPDEST POP POP POP POP PUSH1 0x40 MLOAD RETURNDATASIZE PUSH1 0x1F NOT PUSH1 0x1F DUP3 ADD AND DUP3 ADD DUP1 PUSH1 0x40 MSTORE POP DUP2 ADD SWAP1 PUSH2 0x1096 SWAP2 SWAP1 PUSH2 0x23D4 JUMP JUMPDEST PUSH1 0x1 PUSH1 0x1 PUSH1 0xA0 SHL SUB AND EQ PUSH2 0x10DE JUMPI PUSH1 0x40 MLOAD PUSH3 0x461BCD PUSH1 0xE5 SHL DUP2 MSTORE PUSH1 0x20 PUSH1 0x4 DUP3 ADD MSTORE PUSH1 0xF PUSH1 0x24 DUP3 ADD MSTORE PUSH15 0x2737BA103A37B5B2B71037BBB732B9 PUSH1 0x89 SHL PUSH1 0x44 DUP3 ADD MSTORE PUSH1 0x64 ADD PUSH2 0x903 JUMP JUMPDEST PUSH1 0x40 MLOAD PUSH4 0xE985E9C5 PUSH1 0xE0 SHL DUP2 MSTORE CALLER PUSH1 0x4 DUP3 ADD MSTORE ADDRESS PUSH1 0x24 DUP3 ADD MSTORE PUSH1 0x1 PUSH1 0x1 PUSH1 0xA0 SHL SUB DUP7 AND SWAP1 PUSH4 0xE985E9C5 SWAP1 PUSH1 0x44 ADD PUSH1 0x20 PUSH1 0x40 MLOAD DUP1 DUP4 SUB DUP2 DUP7 GAS STATICCALL ISZERO DUP1 ISZERO PUSH2 0x1126 JUMPI RETURNDATASIZE PUSH0 DUP1 RETURNDATACOPY RETURNDATASIZE PUSH0 REVERT JUMPDEST POP POP POP POP PUSH1 0x40 MLOAD RETURNDATASIZE PUSH1 0x1F NOT PUSH1 0x1F DUP3 ADD AND DUP3 ADD DUP1 PUSH1 0x40 MSTORE POP DUP2 ADD SWAP1 PUSH2 0x114A SWAP2 SWAP1 PUSH2 0x24D4 JUMP JUMPDEST DUP1 PUSH2 0x11C4 JUMPI POP PUSH1 0x40 MLOAD PUSH4 0x20604BF PUSH1 0xE2 SHL DUP2 MSTORE PUSH1 0x4 DUP2 ADD DUP6 SWAP1 MSTORE ADDRESS SWAP1 PUSH1 0x1 PUSH1 0x1 PUSH1 0xA0 SHL SUB DUP8 AND SWAP1 PUSH4 0x81812FC SWAP1 PUSH1 0x24 ADD PUSH1 0x20 PUSH1 0x40 MLOAD DUP1 DUP4 SUB DUP2 DUP7 GAS STATICCALL ISZERO DUP1 ISZERO PUSH2 0x1195 JUMPI RETURNDATASIZE PUSH0 DUP1 RETURNDATACOPY RETURNDATASIZE PUSH0 REVERT JUMPDEST POP POP POP POP PUSH1 0x40 MLOAD RETURNDATASIZE PUSH1 0x1F NOT PUSH1 0x1F DUP3 ADD AND DUP3 ADD DUP1 PUSH1 0x40 MSTORE POP DUP2 ADD SWAP1 PUSH2 0x11B9 SWAP2 SWAP1 PUSH2 0x23D4 JUMP JUMPDEST PUSH1 0x1 PUSH1 0x1 PUSH1 0xA0 SHL SUB AND EQ JUMPDEST PUSH2 0x120B JUMPI PUSH1 0x40 MLOAD PUSH3 0x461BCD PUSH1 0xE5 SHL DUP2 MSTORE PUSH1 0x20 PUSH1 0x4 DUP3 ADD MSTORE PUSH1 0x18 PUSH1 0x24 DUP3 ADD MSTORE PUSH24 0x13585C9AD95D1C1B1858D9481B9BDD08185C1C1C9BDD9959 PUSH1 0x42 SHL PUSH1 0x44 DUP3 ADD MSTORE PUSH1 0x64 ADD PUSH2 0x903 JUMP JUMPDEST PUSH1 0x1 PUSH1 0x1 PUSH1 0xA0 SHL SUB DUP6 AND PUSH0 SWAP1 DUP2 MSTORE PUSH1 0x6 PUSH1 0x20 SWAP1 DUP2 MSTORE PUSH1 0x40 DUP1 DUP4 KECCAK256 DUP8 DUP5 MSTORE SWAP1 SWAP2 MSTORE SWAP1 KECCAK256 SLOAD ISZERO PUSH2 0x126C JUMPI PUSH1 0x40 MLOAD PUSH3 0x461BCD PUSH1 0xE5 SHL DUP2 MSTORE PUSH1 0x20 PUSH1 0x4 DUP3 ADD MSTORE PUSH1 0xE PUSH1 0x24 DUP3 ADD MSTORE PUSH14 0x105B1C9958591E481B1A5CDD1959 PUSH1 0x92 SHL PUSH1 0x44 DUP3 ADD MSTORE PUSH1 0x64 ADD PUSH2 0x903 JUMP JUMPDEST PUSH0 PUSH1 0x3 PUSH0 DUP2 SLOAD PUSH2 0x127B SWAP1 PUSH2 0x251A JUMP JUMPDEST SWAP2 DUP3 SWAP1 SSTORE POP PUSH1 0x40 DUP1 MLOAD PUSH1 0xC0 DUP2 ADD DUP3 MSTORE CALLER DUP1 DUP3 MSTORE PUSH1 0x1 PUSH1 0x1 PUSH1 0xA0 SHL SUB DUP11 DUP2 AND PUSH1 0x20 DUP1 DUP6 ADD DUP3 DUP2 MSTORE DUP6 DUP8 ADD DUP14 DUP2 MSTORE DUP13 DUP6 AND PUSH1 0x60 DUP9 ADD SWAP1 DUP2 MSTORE PUSH1 0x80 DUP9 ADD DUP14 DUP2 MSTORE PUSH1 0x1 PUSH1 0xA0 DUP11 ADD DUP2 DUP2 MSTORE PUSH0 DUP14 DUP2 MSTORE PUSH1 0x2 DUP1 DUP10 MSTORE DUP14 DUP3 KECCAK256 SWAP13 MLOAD DUP14 SLOAD SWAP1 DUP13 AND PUSH1 0x1 PUSH1 0x1 PUSH1 0xA0 SHL SUB NOT SWAP2 DUP3 AND OR DUP15 SSTORE SWAP8 MLOAD SWAP4 DUP14 ADD DUP1 SLOAD SWAP5 DUP13 AND SWAP5 DUP10 AND SWAP5 SWAP1 SWAP5 OR SWAP1 SWAP4 SSTORE SWAP5 MLOAD SWAP2 DUP12 ADD SWAP2 SWAP1 SWAP2 SSTORE SWAP2 MLOAD PUSH1 0x3 DUP11 ADD DUP1 SLOAD SWAP2 SWAP1 SWAP9 AND SWAP5 AND SWAP4 SWAP1 SWAP4 OR SWAP1 SWAP6 SSTORE SWAP1 MLOAD PUSH1 0x4 DUP8 ADD SSTORE SWAP3 MLOAD PUSH1 0x5 SWAP1 SWAP6 ADD DUP1 SLOAD SWAP6 ISZERO ISZERO PUSH1 0xFF NOT SWAP1 SWAP7 AND SWAP6 SWAP1 SWAP6 OR SWAP1 SWAP5 SSTORE DUP1 DUP3 MSTORE PUSH1 0x6 DUP5 MSTORE DUP5 DUP3 KECCAK256 DUP12 DUP4 MSTORE SWAP1 SWAP4 MSTORE DUP4 SWAP1 KECCAK256 DUP5 SWAP1 SSTORE SWAP2 MLOAD SWAP3 SWAP4 POP SWAP2 DUP4 SWAP1 PUSH32 0xF270D40E4CE0790FE62574668B19EDBD345BDFC4B0E945ADA622C5FE65F3E0C4 SWAP1 PUSH2 0x139E SWAP1 DUP11 SWAP1 DUP11 SWAP1 DUP11 SWAP1 SWAP3 DUP4 MSTORE PUSH1 0x1 PUSH1 0x1 PUSH1 0xA0 SHL SUB SWAP2 SWAP1 SWAP2 AND PUSH1 0x20 DUP4 ADD MSTORE PUSH1 0x40 DUP3 ADD MSTORE PUSH1 0x60 ADD SWAP1 JUMP JUMPDEST PUSH1 0x40 MLOAD DUP1 SWAP2 SUB SWAP1 LOG4 SWAP1 POP PUSH2 0x82E PUSH1 0x1 PUSH0 SSTORE JUMP JUMPDEST PUSH2 0x13B9 PUSH2 0x20A5 JUMP JUMPDEST PUSH0 DUP3 DUP2 MSTORE PUSH1 0x2 PUSH1 0x20 MSTORE PUSH1 0x40 SWAP1 KECCAK256 PUSH1 0x5 DUP2 ADD SLOAD PUSH1 0xFF AND PUSH2 0x13EA JUMPI PUSH1 0x40 MLOAD PUSH3 0x461BCD PUSH1 0xE5 SHL DUP2 MSTORE PUSH1 0x4 ADD PUSH2 0x903 SWAP1 PUSH2 0x23A8 JUMP JUMPDEST DUP1 SLOAD PUSH1 0x1 PUSH1 0x1 PUSH1 0xA0 SHL SUB AND CALLER EQ PUSH2 0x1430 JUMPI PUSH1 0x40 MLOAD PUSH3 0x461BCD PUSH1 0xE5 SHL DUP2 MSTORE PUSH1 0x20 PUSH1 0x4 DUP3 ADD MSTORE PUSH1 0xA PUSH1 0x24 DUP3 ADD MSTORE PUSH10 0x2737BA1039B2B63632B9 PUSH1 0xB1 SHL PUSH1 0x44 DUP3 ADD MSTORE PUSH1 0x64 ADD PUSH2 0x903 JUMP JUMPDEST PUSH0 DUP3 GT PUSH2 0x144F JUMPI PUSH1 0x40 MLOAD PUSH3 0x461BCD PUSH1 0xE5 SHL DUP2 MSTORE PUSH1 0x4 ADD PUSH2 0x903 SWAP1 PUSH2 0x24EF JUMP JUMPDEST PUSH1 0x4 DUP2 ADD DUP3 SWAP1 SSTORE PUSH1 0x40 MLOAD DUP3 DUP2 MSTORE DUP4 SWAP1 PUSH32 0x66BCDE9F7AEC9B81719A4FDEC54CBAFBF6C834D1F2F989D9CD2134DAB8D0C0DE SWAP1 PUSH1 0x20 ADD PUSH1 0x40 MLOAD DUP1 SWAP2 SUB SWAP1 LOG2 POP PUSH2 0x1495 PUSH1 0x1 PUSH0 SSTORE JUMP JUMPDEST POP POP JUMP JUMPDEST PUSH2 0x14A1 PUSH2 0x20A5 JUMP JUMPDEST PUSH0 DUP2 DUP2 MSTORE PUSH1 0x4 PUSH1 0x20 MSTORE PUSH1 0x40 SWAP1 KECCAK256 PUSH1 0x6 DUP2 ADD SLOAD PUSH1 0xFF AND PUSH2 0x14F5 JUMPI PUSH1 0x40 MLOAD PUSH3 0x461BCD PUSH1 0xE5 SHL DUP2 MSTORE PUSH1 0x20 PUSH1 0x4 DUP3 ADD MSTORE PUSH1 0x10 PUSH1 0x24 DUP3 ADD MSTORE PUSH16 0x4F66666572206E6F7420616374697665 PUSH1 0x80 SHL PUSH1 0x44 DUP3 ADD MSTORE PUSH1 0x64 ADD PUSH2 0x903 JUMP JUMPDEST DUP1 PUSH1 0x5 ADD SLOAD TIMESTAMP GT ISZERO PUSH2 0x1539 JUMPI PUSH1 0x40 MLOAD PUSH3 0x461BCD PUSH1 0xE5 SHL DUP2 MSTORE PUSH1 0x20 PUSH1 0x4 DUP3 ADD MSTORE PUSH1 0xD PUSH1 0x24 DUP3 ADD MSTORE PUSH13 0x13D999995C88195E1C1A5C9959 PUSH1 0x9A SHL PUSH1 0x44 DUP3 ADD MSTORE PUSH1 0x64 ADD PUSH2 0x903 JUMP JUMPDEST PUSH1 0x1 DUP2 ADD SLOAD PUSH1 0x2 DUP3 ADD SLOAD PUSH1 0x40 MLOAD PUSH4 0x31A9108F PUSH1 0xE1 SHL DUP2 MSTORE PUSH1 0x4 DUP2 ADD SWAP2 SWAP1 SWAP2 MSTORE CALLER SWAP2 PUSH1 0x1 PUSH1 0x1 PUSH1 0xA0 SHL SUB AND SWAP1 PUSH4 0x6352211E SWAP1 PUSH1 0x24 ADD PUSH1 0x20 PUSH1 0x40 MLOAD DUP1 DUP4 SUB DUP2 DUP7 GAS STATICCALL ISZERO DUP1 ISZERO PUSH2 0x1588 JUMPI RETURNDATASIZE PUSH0 DUP1 RETURNDATACOPY RETURNDATASIZE PUSH0 REVERT JUMPDEST POP POP POP POP PUSH1 0x40 MLOAD RETURNDATASIZE PUSH1 0x1F NOT PUSH1 0x1F DUP3 ADD AND DUP3 ADD DUP1 PUSH1 0x40 MSTORE POP DUP2 ADD SWAP1 PUSH2 0x15AC SWAP2 SWAP1 PUSH2 0x23D4 JUMP JUMPDEST PUSH1 0x1 PUSH1 0x1 PUSH1 0xA0 SHL SUB AND EQ PUSH2 0x15F4 JUMPI PUSH1 0x40 MLOAD PUSH3 0x461BCD PUSH1 0xE5 SHL DUP2 MSTORE PUSH1 0x20 PUSH1 0x4 DUP3 ADD MSTORE PUSH1 0xF PUSH1 0x24 DUP3 ADD MSTORE PUSH15 0x2737BA103A37B5B2B71037BBB732B9 PUSH1 0x89 SHL PUSH1 0x44 DUP3 ADD MSTORE PUSH1 0x64 ADD PUSH2 0x903 JUMP JUMPDEST PUSH1 0x1 DUP2 ADD SLOAD PUSH1 0x40 MLOAD PUSH4 0xE985E9C5 PUSH1 0xE0 SHL DUP2 MSTORE CALLER PUSH1 0x4 DUP3 ADD MSTORE ADDRESS PUSH1 0x24 DUP3 ADD MSTORE PUSH1 0x1 PUSH1 0x1 PUSH1 0xA0 SHL SUB SWAP1 SWAP2 AND SWAP1 PUSH4 0xE985E9C5 SWAP1 PUSH1 0x44 ADD PUSH1 0x20 PUSH1 0x40 MLOAD DUP1 DUP4 SUB DUP2 DUP7 GAS STATICCALL ISZERO DUP1 ISZERO PUSH2 0x1642 JUMPI RETURNDATASIZE PUSH0 DUP1 RETURNDATACOPY RETURNDATASIZE PUSH0 REVERT JUMPDEST POP POP POP POP PUSH1 0x40 MLOAD RETURNDATASIZE PUSH1 0x1F NOT PUSH1 0x1F DUP3 ADD AND DUP3 ADD DUP1 PUSH1 0x40 MSTORE POP DUP2 ADD SWAP1 PUSH2 0x1666 SWAP2 SWAP1 PUSH2 0x24D4 JUMP JUMPDEST DUP1 PUSH2 0x16EA JUMPI POP PUSH1 0x1 DUP2 ADD SLOAD PUSH1 0x2 DUP3 ADD SLOAD PUSH1 0x40 MLOAD PUSH4 0x20604BF PUSH1 0xE2 SHL DUP2 MSTORE PUSH1 0x4 DUP2 ADD SWAP2 SWAP1 SWAP2 MSTORE ADDRESS SWAP2 PUSH1 0x1 PUSH1 0x1 PUSH1 0xA0 SHL SUB AND SWAP1 PUSH4 0x81812FC SWAP1 PUSH1 0x24 ADD PUSH1 0x20 PUSH1 0x40 MLOAD DUP1 DUP4 SUB DUP2 DUP7 GAS STATICCALL ISZERO DUP1 ISZERO PUSH2 0x16BB JUMPI RETURNDATASIZE PUSH0 DUP1 RETURNDATACOPY RETURNDATASIZE PUSH0 REVERT JUMPDEST POP POP POP POP PUSH1 0x40 MLOAD RETURNDATASIZE PUSH1 0x1F NOT PUSH1 0x1F DUP3 ADD AND DUP3 ADD DUP1 PUSH1 0x40 MSTORE POP DUP2 ADD SWAP1 PUSH2 0x16DF SWAP2 SWAP1 PUSH2 0x23D4 JUMP JUMPDEST PUSH1 0x1 PUSH1 0x1 PUSH1 0xA0 SHL SUB AND EQ JUMPDEST PUSH2 0x1731 JUMPI PUSH1 0x40 MLOAD PUSH3 0x461BCD PUSH1 0xE5 SHL DUP2 MSTORE PUSH1 0x20 PUSH1 0x4 DUP3 ADD MSTORE PUSH1 0x18 PUSH1 0x24 DUP3 ADD MSTORE PUSH24 0x13585C9AD95D1C1B1858D9481B9BDD08185C1C1C9BDD9959 PUSH1 0x42 SHL PUSH1 0x44 DUP3 ADD MSTORE PUSH1 0x64 ADD PUSH2 0x903 JUMP JUMPDEST PUSH1 0x4 DUP2 ADD SLOAD DUP2 SLOAD PUSH1 0x7 SLOAD PUSH1 0x1 PUSH1 0x1 PUSH1 0xA0 SHL SUB SWAP1 SWAP2 AND SWAP1 PUSH0 SWAP1 PUSH2 0x2710 SWAP1 PUSH2 0x1757 SWAP1 DUP6 PUSH2 0x2403 JUMP JUMPDEST PUSH2 0x1761 SWAP2 SWAP1 PUSH2 0x241A JUMP JUMPDEST SWAP1 POP PUSH0 PUSH2 0x176E DUP3 DUP6 PUSH2 0x2439 JUMP JUMPDEST PUSH1 0x3 DUP7 ADD SLOAD PUSH1 0x40 MLOAD PUSH4 0x23B872DD PUSH1 0xE0 SHL DUP2 MSTORE SWAP2 SWAP3 POP PUSH1 0x1 PUSH1 0x1 PUSH1 0xA0 SHL SUB AND SWAP1 DUP2 SWAP1 PUSH4 0x23B872DD SWAP1 PUSH2 0x17A7 SWAP1 DUP8 SWAP1 CALLER SWAP1 DUP8 SWAP1 PUSH1 0x4 ADD PUSH2 0x24B0 JUMP JUMPDEST PUSH1 0x20 PUSH1 0x40 MLOAD DUP1 DUP4 SUB DUP2 PUSH0 DUP8 GAS CALL ISZERO DUP1 ISZERO PUSH2 0x17C3 JUMPI RETURNDATASIZE PUSH0 DUP1 RETURNDATACOPY RETURNDATASIZE PUSH0 REVERT JUMPDEST POP POP POP POP PUSH1 0x40 MLOAD RETURNDATASIZE PUSH1 0x1F NOT PUSH1 0x1F DUP3 ADD AND DUP3 ADD DUP1 PUSH1 0x40 MSTORE POP DUP2 ADD SWAP1 PUSH2 0x17E7 SWAP2 SWAP1 PUSH2 0x24D4 JUMP JUMPDEST PUSH2 0x1803 JUMPI PUSH1 0x40 MLOAD PUSH3 0x461BCD PUSH1 0xE5 SHL DUP2 MSTORE PUSH1 0x4 ADD PUSH2 0x903 SWAP1 PUSH2 0x244C JUMP JUMPDEST DUP3 ISZERO PUSH2 0x1899 JUMPI PUSH1 0x8 SLOAD PUSH1 0x40 MLOAD PUSH4 0x23B872DD PUSH1 0xE0 SHL DUP2 MSTORE PUSH1 0x1 PUSH1 0x1 PUSH1 0xA0 SHL SUB DUP1 DUP5 AND SWAP3 PUSH4 0x23B872DD SWAP3 PUSH2 0x183D SWAP3 DUP10 SWAP3 AND SWAP1 DUP9 SWAP1 PUSH1 0x4 ADD PUSH2 0x24B0 JUMP JUMPDEST PUSH1 0x20 PUSH1 0x40 MLOAD DUP1 DUP4 SUB DUP2 PUSH0 DUP8 GAS CALL ISZERO DUP1 ISZERO PUSH2 0x1859 JUMPI RETURNDATASIZE PUSH0 DUP1 RETURNDATACOPY RETURNDATASIZE PUSH0 REVERT JUMPDEST POP POP POP POP PUSH1 0x40 MLOAD RETURNDATASIZE PUSH1 0x1F NOT PUSH1 0x1F DUP3 ADD AND DUP3 ADD DUP1 PUSH1 0x40 MSTORE POP DUP2 ADD SWAP1 PUSH2 0x187D SWAP2 SWAP1 PUSH2 0x24D4 JUMP JUMPDEST PUSH2 0x1899 JUMPI PUSH1 0x40 MLOAD PUSH3 0x461BCD PUSH1 0xE5 SHL DUP2 MSTORE PUSH1 0x4 ADD PUSH2 0x903 SWAP1 PUSH2 0x2483 JUMP JUMPDEST PUSH1 0x1 DUP7 ADD SLOAD PUSH1 0x2 DUP8 ADD SLOAD PUSH1 0x40 MLOAD PUSH4 0x21421707 PUSH1 0xE1 SHL DUP2 MSTORE PUSH1 0x1 PUSH1 0x1 PUSH1 0xA0 SHL SUB SWAP1 SWAP3 AND SWAP2 PUSH4 0x42842E0E SWAP2 PUSH2 0x18D2 SWAP2 CALLER SWAP2 DUP10 SWAP2 PUSH1 0x4 ADD PUSH2 0x24B0 JUMP JUMPDEST PUSH0 PUSH1 0x40 MLOAD DUP1 DUP4 SUB DUP2 PUSH0 DUP8 DUP1 EXTCODESIZE ISZERO DUP1 ISZERO PUSH2 0x18E9 JUMPI PUSH0 DUP1 REVERT JUMPDEST POP GAS CALL ISZERO DUP1 ISZERO PUSH2 0x18FB JUMPI RETURNDATASIZE PUSH0 DUP1 RETURNDATACOPY RETURNDATASIZE PUSH0 REVERT JUMPDEST POP POP POP POP PUSH1 0x6 DUP7 DUP2 ADD DUP1 SLOAD PUSH1 0xFF NOT AND SWAP1 SSTORE PUSH1 0x1 DUP8 ADD SLOAD PUSH1 0x1 PUSH1 0x1 PUSH1 0xA0 SHL SUB AND PUSH0 SWAP1 DUP2 MSTORE PUSH1 0x20 SWAP2 DUP3 MSTORE PUSH1 0x40 DUP1 DUP3 KECCAK256 PUSH1 0x2 DUP11 ADD SLOAD DUP4 MSTORE SWAP1 SWAP3 MSTORE KECCAK256 SLOAD DUP1 ISZERO DUP1 ISZERO SWAP1 PUSH2 0x1953 JUMPI POP PUSH0 DUP2 DUP2 MSTORE PUSH1 0x2 PUSH1 0x20 MSTORE PUSH1 0x40 SWAP1 KECCAK256 PUSH1 0x5 ADD SLOAD PUSH1 0xFF AND JUMPDEST ISZERO PUSH2 0x1997 JUMPI PUSH0 DUP2 DUP2 MSTORE PUSH1 0x2 PUSH1 0x20 DUP2 DUP2 MSTORE PUSH1 0x40 DUP1 DUP5 KECCAK256 PUSH1 0x5 ADD DUP1 SLOAD PUSH1 0xFF NOT AND SWAP1 SSTORE PUSH1 0x1 DUP12 ADD SLOAD PUSH1 0x1 PUSH1 0x1 PUSH1 0xA0 SHL SUB AND DUP5 MSTORE PUSH1 0x6 DUP3 MSTORE DUP1 DUP5 KECCAK256 SWAP3 DUP12 ADD SLOAD DUP5 MSTORE SWAP2 SWAP1 MSTORE DUP2 KECCAK256 SSTORE JUMPDEST PUSH1 0x1 DUP8 ADD SLOAD PUSH1 0x2 DUP9 ADD SLOAD PUSH1 0x40 DUP1 MLOAD PUSH1 0x1 PUSH1 0x1 PUSH1 0xA0 SHL SUB SWAP4 DUP5 AND DUP2 MSTORE PUSH1 0x20 DUP2 ADD SWAP3 SWAP1 SWAP3 MSTORE DUP2 ADD DUP9 SWAP1 MSTORE SWAP1 DUP7 AND SWAP1 CALLER SWAP1 DUP11 SWAP1 PUSH32 0x50DF946EE330BF8AF17ECC21585649645F3680C032BC659B21E49881BEA57F71 SWAP1 PUSH1 0x60 ADD PUSH1 0x40 MLOAD DUP1 SWAP2 SUB SWAP1 LOG4 POP POP POP POP POP POP POP PUSH2 0x9BC PUSH1 0x1 PUSH0 SSTORE JUMP JUMPDEST PUSH1 0x1 PUSH1 0x1 PUSH1 0xA0 SHL SUB DUP3 AND PUSH0 SWAP1 DUP2 MSTORE PUSH1 0x6 PUSH1 0x20 SWAP1 DUP2 MSTORE PUSH1 0x40 DUP1 DUP4 KECCAK256 DUP5 DUP5 MSTORE SWAP1 SWAP2 MSTORE DUP2 KECCAK256 SLOAD DUP1 ISZERO DUP1 ISZERO SWAP1 PUSH2 0x82E JUMPI POP PUSH0 SWAP1 DUP2 MSTORE PUSH1 0x2 PUSH1 0x20 MSTORE PUSH1 0x40 SWAP1 KECCAK256 PUSH1 0x5 ADD SLOAD PUSH1 0xFF AND SWAP4 SWAP3 POP POP POP JUMP JUMPDEST PUSH0 PUSH2 0x1A55 PUSH2 0x20A5 JUMP JUMPDEST PUSH0 DUP4 GT PUSH2 0x1A74 JUMPI PUSH1 0x40 MLOAD PUSH3 0x461BCD PUSH1 0xE5 SHL DUP2 MSTORE PUSH1 0x4 ADD PUSH2 0x903 SWAP1 PUSH2 0x24EF JUMP JUMPDEST PUSH1 0x1 PUSH1 0x1 PUSH1 0xA0 SHL SUB DUP5 AND PUSH2 0x1AC1 JUMPI PUSH1 0x40 MLOAD PUSH3 0x461BCD PUSH1 0xE5 SHL DUP2 MSTORE PUSH1 0x20 PUSH1 0x4 DUP3 ADD MSTORE PUSH1 0x14 PUSH1 0x24 DUP3 ADD MSTORE PUSH20 0x55736520455243323020666F72206F6666657273 PUSH1 0x60 SHL PUSH1 0x44 DUP3 ADD MSTORE PUSH1 0x64 ADD PUSH2 0x903 JUMP JUMPDEST PUSH1 0x1 PUSH1 0x1 PUSH1 0xA0 SHL SUB DUP5 AND PUSH0 SWAP1 DUP2 MSTORE PUSH1 0x9 PUSH1 0x20 MSTORE PUSH1 0x40 SWAP1 KECCAK256 SLOAD PUSH1 0xFF AND PUSH2 0x1B24 JUMPI PUSH1 0x40 MLOAD PUSH3 0x461BCD PUSH1 0xE5 SHL DUP2 MSTORE PUSH1 0x20 PUSH1 0x4 DUP3 ADD MSTORE PUSH1 0x19 PUSH1 0x24 DUP3 ADD MSTORE PUSH25 0x14185E5B595B9D081D1BDAD95B881B9BDD08185B1B1BDDD959 PUSH1 0x3A SHL PUSH1 0x44 DUP3 ADD MSTORE PUSH1 0x64 ADD PUSH2 0x903 JUMP JUMPDEST PUSH0 DUP3 GT DUP1 ISZERO PUSH2 0x1B36 JUMPI POP PUSH3 0x76A700 DUP3 GT ISZERO JUMPDEST PUSH2 0x1B75 JUMPI PUSH1 0x40 MLOAD PUSH3 0x461BCD PUSH1 0xE5 SHL DUP2 MSTORE PUSH1 0x20 PUSH1 0x4 DUP3 ADD MSTORE PUSH1 0x10 PUSH1 0x24 DUP3 ADD MSTORE PUSH16 0x24B73B30B634B210323AB930BA34B7B7 PUSH1 0x81 SHL PUSH1 0x44 DUP3 ADD MSTORE PUSH1 0x64 ADD PUSH2 0x903 JUMP JUMPDEST PUSH1 0x40 MLOAD PUSH4 0x6EB1769F PUSH1 0xE1 SHL DUP2 MSTORE CALLER PUSH1 0x4 DUP3 ADD MSTORE ADDRESS PUSH1 0x24 DUP3 ADD MSTORE DUP5 SWAP1 DUP5 SWAP1 PUSH1 0x1 PUSH1 0x1 PUSH1 0xA0 SHL SUB DUP4 AND SWAP1 PUSH4 0xDD62ED3E SWAP1 PUSH1 0x44 ADD PUSH1 0x20 PUSH1 0x40 MLOAD DUP1 DUP4 SUB DUP2 DUP7 GAS STATICCALL ISZERO DUP1 ISZERO PUSH2 0x1BC1 JUMPI RETURNDATASIZE PUSH0 DUP1 RETURNDATACOPY RETURNDATASIZE PUSH0 REVERT JUMPDEST POP POP POP POP PUSH1 0x40 MLOAD RETURNDATASIZE PUSH1 0x1F NOT PUSH1 0x1F DUP3 ADD AND DUP3 ADD DUP1 PUSH1 0x40 MSTORE POP DUP2 ADD SWAP1 PUSH2 0x1BE5 SWAP2 SWAP1 PUSH2 0x2532 JUMP JUMPDEST LT ISZERO PUSH2 0x1C33 JUMPI PUSH1 0x40 MLOAD PUSH3 0x461BCD PUSH1 0xE5 SHL DUP2 MSTORE PUSH1 0x20 PUSH1 0x4 DUP3 ADD MSTORE PUSH1 0x1B PUSH1 0x24 DUP3 ADD MSTORE PUSH32 0x496E73756666696369656E7420746F6B656E20617070726F76616C0000000000 PUSH1 0x44 DUP3 ADD MSTORE PUSH1 0x64 ADD PUSH2 0x903 JUMP JUMPDEST PUSH1 0x40 MLOAD PUSH4 0x70A08231 PUSH1 0xE0 SHL DUP2 MSTORE CALLER PUSH1 0x4 DUP3 ADD MSTORE DUP5 SWAP1 PUSH1 0x1 PUSH1 0x1 PUSH1 0xA0 SHL SUB DUP4 AND SWAP1 PUSH4 0x70A08231 SWAP1 PUSH1 0x24 ADD PUSH1 0x20 PUSH1 0x40 MLOAD DUP1 DUP4 SUB DUP2 DUP7 GAS STATICCALL ISZERO DUP1 ISZERO PUSH2 0x1C77 JUMPI RETURNDATASIZE PUSH0 DUP1 RETURNDATACOPY RETURNDATASIZE PUSH0 REVERT JUMPDEST POP POP POP POP PUSH1 0x40 MLOAD RETURNDATASIZE PUSH1 0x1F NOT PUSH1 0x1F DUP3 ADD AND DUP3 ADD DUP1 PUSH1 0x40 MSTORE POP DUP2 ADD SWAP1 PUSH2 0x1C9B SWAP2 SWAP1 PUSH2 0x2532 JUMP JUMPDEST LT ISZERO PUSH2 0x1CE9 JUMPI PUSH1 0x40 MLOAD PUSH3 0x461BCD PUSH1 0xE5 SHL DUP2 MSTORE PUSH1 0x20 PUSH1 0x4 DUP3 ADD MSTORE PUSH1 0x1A PUSH1 0x24 DUP3 ADD MSTORE PUSH32 0x496E73756666696369656E7420746F6B656E2062616C616E6365000000000000 PUSH1 0x44 DUP3 ADD MSTORE PUSH1 0x64 ADD PUSH2 0x903 JUMP JUMPDEST PUSH0 PUSH1 0x5 PUSH0 DUP2 SLOAD PUSH2 0x1CF8 SWAP1 PUSH2 0x251A JUMP JUMPDEST SWAP2 DUP3 SWAP1 SSTORE POP SWAP1 POP PUSH0 PUSH2 0x1D0A DUP6 TIMESTAMP PUSH2 0x2549 JUMP JUMPDEST SWAP1 POP PUSH1 0x40 MLOAD DUP1 PUSH1 0xE0 ADD PUSH1 0x40 MSTORE DUP1 CALLER PUSH1 0x1 PUSH1 0x1 PUSH1 0xA0 SHL SUB AND DUP2 MSTORE PUSH1 0x20 ADD DUP11 PUSH1 0x1 PUSH1 0x1 PUSH1 0xA0 SHL SUB AND DUP2 MSTORE PUSH1 0x20 ADD DUP10 DUP2 MSTORE PUSH1 0x20 ADD DUP9 PUSH1 0x1 PUSH1 0x1 PUSH1 0xA0 SHL SUB AND DUP2 MSTORE PUSH1 0x20 ADD DUP8 DUP2 MSTORE PUSH1 0x20 ADD DUP3 DUP2 MSTORE PUSH1 0x20 ADD PUSH1 0x1 ISZERO ISZERO DUP2 MSTORE POP PUSH1 0x4 PUSH0 DUP5 DUP2 MSTORE PUSH1 0x20 ADD SWAP1 DUP2 MSTORE PUSH1 0x20 ADD PUSH0 KECCAK256 PUSH0 DUP3 ADD MLOAD DUP2 PUSH0 ADD PUSH0 PUSH2 0x100 EXP DUP2 SLOAD DUP2 PUSH1 0x1 PUSH1 0x1 PUSH1 0xA0 SHL SUB MUL NOT AND SWAP1 DUP4 PUSH1 0x1 PUSH1 0x1 PUSH1 0xA0 SHL SUB AND MUL OR SWAP1 SSTORE POP PUSH1 0x20 DUP3 ADD MLOAD DUP2 PUSH1 0x1 ADD PUSH0 PUSH2 0x100 EXP DUP2 SLOAD DUP2 PUSH1 0x1 PUSH1 0x1 PUSH1 0xA0 SHL SUB MUL NOT AND SWAP1 DUP4 PUSH1 0x1 PUSH1 0x1 PUSH1 0xA0 SHL SUB AND MUL OR SWAP1 SSTORE POP PUSH1 0x40 DUP3 ADD MLOAD DUP2 PUSH1 0x2 ADD SSTORE PUSH1 0x60 DUP3 ADD MLOAD DUP2 PUSH1 0x3 ADD PUSH0 PUSH2 0x100 EXP DUP2 SLOAD DUP2 PUSH1 0x1 PUSH1 0x1 PUSH1 0xA0 SHL SUB MUL NOT AND SWAP1 DUP4 PUSH1 0x1 PUSH1 0x1 PUSH1 0xA0 SHL SUB AND MUL OR SWAP1 SSTORE POP PUSH1 0x80 DUP3 ADD MLOAD DUP2 PUSH1 0x4 ADD SSTORE PUSH1 0xA0 DUP3 ADD MLOAD DUP2 PUSH1 0x5 ADD SSTORE PUSH1 0xC0 DUP3 ADD MLOAD DUP2 PUSH1 0x6 ADD PUSH0 PUSH2 0x100 EXP DUP2 SLOAD DUP2 PUSH1 0xFF MUL NOT AND SWAP1 DUP4 ISZERO ISZERO MUL OR SWAP1 SSTORE POP SWAP1 POP POP DUP9 PUSH1 0x1 PUSH1 0x1 PUSH1 0xA0 SHL SUB AND CALLER PUSH1 0x1 PUSH1 0x1 PUSH1 0xA0 SHL SUB AND DUP4 PUSH32 0x7E9214B37F6C5D7654ED3D8CB085C5ABA036C579313526CC62A3C9168617C40 DUP12 DUP12 DUP12 DUP8 PUSH1 0x40 MLOAD PUSH2 0x1E99 SWAP5 SWAP4 SWAP3 SWAP2 SWAP1 SWAP4 DUP5 MSTORE PUSH1 0x1 PUSH1 0x1 PUSH1 0xA0 SHL SUB SWAP3 SWAP1 SWAP3 AND PUSH1 0x20 DUP5 ADD MSTORE PUSH1 0x40 DUP4 ADD MSTORE PUSH1 0x60 DUP3 ADD MSTORE PUSH1 0x80 ADD SWAP1 JUMP JUMPDEST PUSH1 0x40 MLOAD DUP1 SWAP2 SUB SWAP1 LOG4 POP SWAP2 POP POP PUSH2 0x1EAE PUSH1 0x1 PUSH0 SSTORE JUMP JUMPDEST SWAP6 SWAP5 POP POP POP POP POP JUMP JUMPDEST PUSH2 0x1EBF PUSH2 0x2078 JUMP JUMPDEST PUSH1 0x1 PUSH1 0x1 PUSH1 0xA0 SHL SUB DUP2 AND PUSH2 0x1F07 JUMPI PUSH1 0x40 MLOAD PUSH3 0x461BCD PUSH1 0xE5 SHL DUP2 MSTORE PUSH1 0x20 PUSH1 0x4 DUP3 ADD MSTORE PUSH1 0xF PUSH1 0x24 DUP3 ADD MSTORE PUSH15 0x496E76616C69642061646472657373 PUSH1 0x88 SHL PUSH1 0x44 DUP3 ADD MSTORE PUSH1 0x64 ADD PUSH2 0x903 JUMP JUMPDEST PUSH1 0x8 DUP1 SLOAD PUSH1 0x1 PUSH1 0x1 PUSH1 0xA0 SHL SUB NOT AND PUSH1 0x1 PUSH1 0x1 PUSH1 0xA0 SHL SUB DUP4 AND SWAP1 DUP2 OR SWAP1 SWAP2 SSTORE PUSH1 0x40 MLOAD SWAP1 DUP2 MSTORE PUSH32 0x7A7B5A0A132F9E0581EB8527F66EAE9EE89C2A3E79D4AC7E41A1F1F4D48A7FC2 SWAP1 PUSH1 0x20 ADD PUSH2 0xF97 JUMP JUMPDEST PUSH2 0x1F5D PUSH2 0x20A5 JUMP JUMPDEST PUSH0 DUP2 DUP2 MSTORE PUSH1 0x4 PUSH1 0x20 MSTORE PUSH1 0x40 SWAP1 KECCAK256 PUSH1 0x6 DUP2 ADD SLOAD PUSH1 0xFF AND PUSH2 0x1FB1 JUMPI PUSH1 0x40 MLOAD PUSH3 0x461BCD PUSH1 0xE5 SHL DUP2 MSTORE PUSH1 0x20 PUSH1 0x4 DUP3 ADD MSTORE PUSH1 0x10 PUSH1 0x24 DUP3 ADD MSTORE PUSH16 0x4F66666572206E6F7420616374697665 PUSH1 0x80 SHL PUSH1 0x44 DUP3 ADD MSTORE PUSH1 0x64 ADD PUSH2 0x903 JUMP JUMPDEST DUP1 SLOAD PUSH1 0x1 PUSH1 0x1 PUSH1 0xA0 SHL SUB AND CALLER EQ PUSH2 0x1FFE JUMPI PUSH1 0x40 MLOAD PUSH3 0x461BCD PUSH1 0xE5 SHL DUP2 MSTORE PUSH1 0x20 PUSH1 0x4 DUP3 ADD MSTORE PUSH1 0x11 PUSH1 0x24 DUP3 ADD MSTORE PUSH17 0x2737BA1037B33332B91031B932B0BA37B9 PUSH1 0x79 SHL PUSH1 0x44 DUP3 ADD MSTORE PUSH1 0x64 ADD PUSH2 0x903 JUMP JUMPDEST PUSH1 0x6 DUP2 ADD DUP1 SLOAD PUSH1 0xFF NOT AND SWAP1 SSTORE PUSH1 0x40 MLOAD DUP3 SWAP1 PUSH32 0xC28B4AED030BFACC245C0501326E1BEB8C0EF0D60E4EDC21067FDEB52DA2A7AA SWAP1 PUSH0 SWAP1 LOG2 POP PUSH2 0x9BC PUSH1 0x1 PUSH0 SSTORE JUMP JUMPDEST PUSH2 0x2046 PUSH2 0x2078 JUMP JUMPDEST PUSH1 0x1 PUSH1 0x1 PUSH1 0xA0 SHL SUB DUP2 AND PUSH2 0x206F JUMPI PUSH1 0x40 MLOAD PUSH4 0x1E4FBDF7 PUSH1 0xE0 SHL DUP2 MSTORE PUSH0 PUSH1 0x4 DUP3 ADD MSTORE PUSH1 0x24 ADD PUSH2 0x903 JUMP JUMPDEST PUSH2 0x9BC DUP2 PUSH2 0x20FC JUMP JUMPDEST PUSH1 0x1 SLOAD PUSH1 0x1 PUSH1 0x1 PUSH1 0xA0 SHL SUB AND CALLER EQ PUSH2 0xF1B JUMPI PUSH1 0x40 MLOAD PUSH4 0x118CDAA7 PUSH1 0xE0 SHL DUP2 MSTORE CALLER PUSH1 0x4 DUP3 ADD MSTORE PUSH1 0x24 ADD PUSH2 0x903 JUMP JUMPDEST PUSH1 0x2 PUSH0 SLOAD SUB PUSH2 0x20F6 JUMPI PUSH1 0x40 MLOAD PUSH3 0x461BCD PUSH1 0xE5 SHL DUP2 MSTORE PUSH1 0x20 PUSH1 0x4 DUP3 ADD MSTORE PUSH1 0x1F PUSH1 0x24 DUP3 ADD MSTORE PUSH32 0x5265656E7472616E637947756172643A207265656E7472616E742063616C6C00 PUSH1 0x44 DUP3 ADD MSTORE PUSH1 0x64 ADD PUSH2 0x903 JUMP JUMPDEST PUSH1 0x2 PUSH0 SSTORE JUMP JUMPDEST PUSH1 0x1 DUP1 SLOAD PUSH1 0x1 PUSH1 0x1 PUSH1 0xA0 SHL SUB DUP4 DUP2 AND PUSH1 0x1 PUSH1 0x1 PUSH1 0xA0 SHL SUB NOT DUP4 AND DUP2 OR SWAP1 SWAP4 SSTORE PUSH1 0x40 MLOAD SWAP2 AND SWAP2 SWAP1 DUP3 SWAP1 PUSH32 0x8BE0079C531659141344CD1FD0A4F28419497F9722A3DAAFE3B4186F6B6457E0 SWAP1 PUSH0 SWAP1 LOG3 POP POP JUMP JUMPDEST PUSH0 PUSH1 0x20 DUP3 DUP5 SUB SLT ISZERO PUSH2 0x215D JUMPI PUSH0 DUP1 REVERT JUMPDEST POP CALLDATALOAD SWAP2 SWAP1 POP JUMP JUMPDEST PUSH1 0x1 PUSH1 0x1 PUSH1 0xA0 SHL SUB DUP2 AND DUP2 EQ PUSH2 0x9BC JUMPI PUSH0 DUP1 REVERT JUMPDEST PUSH4 0x4E487B71 PUSH1 0xE0 SHL PUSH0 MSTORE PUSH1 0x41 PUSH1 0x4 MSTORE PUSH1 0x24 PUSH0 REVERT JUMPDEST PUSH0 DUP1 PUSH0 DUP1 PUSH1 0x80 DUP6 DUP8 SUB SLT ISZERO PUSH2 0x219F JUMPI PUSH0 DUP1 REVERT JUMPDEST DUP5 CALLDATALOAD PUSH2 0x21AA DUP2 PUSH2 0x2164 JUMP JUMPDEST SWAP4 POP PUSH1 0x20 DUP6 ADD CALLDATALOAD PUSH2 0x21BA DUP2 PUSH2 0x2164 JUMP JUMPDEST SWAP3 POP PUSH1 0x40 DUP6 ADD CALLDATALOAD SWAP2 POP PUSH1 0x60 DUP6 ADD CALLDATALOAD PUSH8 0xFFFFFFFFFFFFFFFF DUP1 DUP3 GT ISZERO PUSH2 0x21DD JUMPI PUSH0 DUP1 REVERT JUMPDEST DUP2 DUP8 ADD SWAP2 POP DUP8 PUSH1 0x1F DUP4 ADD SLT PUSH2 0x21F0 JUMPI PUSH0 DUP1 REVERT JUMPDEST DUP2 CALLDATALOAD DUP2 DUP2 GT ISZERO PUSH2 0x2202 JUMPI PUSH2 0x2202 PUSH2 0x2178 JUMP JUMPDEST PUSH1 0x40 MLOAD PUSH1 0x1F DUP3 ADD PUSH1 0x1F NOT SWAP1 DUP2 AND PUSH1 0x3F ADD AND DUP2 ADD SWAP1 DUP4 DUP3 GT DUP2 DUP4 LT OR ISZERO PUSH2 0x222A JUMPI PUSH2 0x222A PUSH2 0x2178 JUMP JUMPDEST DUP2 PUSH1 0x40 MSTORE DUP3 DUP2 MSTORE DUP11 PUSH1 0x20 DUP5 DUP8 ADD ADD GT ISZERO PUSH2 0x2242 JUMPI PUSH0 DUP1 REVERT JUMPDEST DUP3 PUSH1 0x20 DUP7 ADD PUSH1 0x20 DUP4 ADD CALLDATACOPY PUSH0 PUSH1 0x20 DUP5 DUP4 ADD ADD MSTORE DUP1 SWAP6 POP POP POP POP POP POP SWAP3 SWAP6 SWAP2 SWAP5 POP SWAP3 POP JUMP JUMPDEST DUP1 ISZERO ISZERO DUP2 EQ PUSH2 0x9BC JUMPI PUSH0 DUP1 REVERT JUMPDEST PUSH0 DUP1 PUSH1 0x40 DUP4 DUP6 SUB SLT ISZERO PUSH2 0x2283 JUMPI PUSH0 DUP1 REVERT JUMPDEST DUP3 CALLDATALOAD PUSH2 0x228E DUP2 PUSH2 0x2164 JUMP JUMPDEST SWAP2 POP PUSH1 0x20 DUP4 ADD CALLDATALOAD PUSH2 0x229E DUP2 PUSH2 0x2265 JUMP JUMPDEST DUP1 SWAP2 POP POP SWAP3 POP SWAP3 SWAP1 POP JUMP JUMPDEST PUSH0 DUP1 PUSH1 0x40 DUP4 DUP6 SUB SLT ISZERO PUSH2 0x22BA JUMPI PUSH0 DUP1 REVERT JUMPDEST DUP3 CALLDATALOAD PUSH2 0x22C5 DUP2 PUSH2 0x2164 JUMP JUMPDEST SWAP5 PUSH1 0x20 SWAP4 SWAP1 SWAP4 ADD CALLDATALOAD SWAP4 POP POP POP JUMP JUMPDEST PUSH0 PUSH1 0x20 DUP3 DUP5 SUB SLT ISZERO PUSH2 0x22E3 JUMPI PUSH0 DUP1 REVERT JUMPDEST DUP2 CALLDATALOAD PUSH2 0x22EE DUP2 PUSH2 0x2164 JUMP JUMPDEST SWAP4 SWAP3 POP POP POP JUMP JUMPDEST PUSH0 DUP1 PUSH0 DUP1 PUSH1 0x80 DUP6 DUP8 SUB SLT ISZERO PUSH2 0x2308 JUMPI PUSH0 DUP1 REVERT JUMPDEST DUP5 CALLDATALOAD PUSH2 0x2313 DUP2 PUSH2 0x2164 JUMP JUMPDEST SWAP4 POP PUSH1 0x20 DUP6 ADD CALLDATALOAD SWAP3 POP PUSH1 0x40 DUP6 ADD CALLDATALOAD PUSH2 0x232A DUP2 PUSH2 0x2164 JUMP JUMPDEST SWAP4 SWAP7 SWAP3 SWAP6 POP SWAP3 SWAP4 PUSH1 0x60 ADD CALLDATALOAD SWAP3 POP POP JUMP JUMPDEST PUSH0 DUP1 PUSH1 0x40 DUP4 DUP6 SUB SLT ISZERO PUSH2 0x234B JUMPI PUSH0 DUP1 REVERT JUMPDEST POP POP DUP1 CALLDATALOAD SWAP3 PUSH1 0x20 SWAP1 SWAP2 ADD CALLDATALOAD SWAP2 POP JUMP JUMPDEST PUSH0 DUP1 PUSH0 DUP1 PUSH0 PUSH1 0xA0 DUP7 DUP9 SUB SLT ISZERO PUSH2 0x236E JUMPI PUSH0 DUP1 REVERT JUMPDEST DUP6 CALLDATALOAD PUSH2 0x2379 DUP2 PUSH2 0x2164 JUMP JUMPDEST SWAP5 POP PUSH1 0x20 DUP7 ADD CALLDATALOAD SWAP4 POP PUSH1 0x40 DUP7 ADD CALLDATALOAD PUSH2 0x2390 DUP2 PUSH2 0x2164 JUMP JUMPDEST SWAP5 SWAP8 SWAP4 SWAP7 POP SWAP4 SWAP5 PUSH1 0x60 DUP2 ADD CALLDATALOAD SWAP5 POP PUSH1 0x80 ADD CALLDATALOAD SWAP3 SWAP2 POP POP JUMP JUMPDEST PUSH1 0x20 DUP1 DUP3 MSTORE PUSH1 0x12 SWAP1 DUP3 ADD MSTORE PUSH18 0x4C697374696E67206E6F7420616374697665 PUSH1 0x70 SHL PUSH1 0x40 DUP3 ADD MSTORE PUSH1 0x60 ADD SWAP1 JUMP JUMPDEST PUSH0 PUSH1 0x20 DUP3 DUP5 SUB SLT ISZERO PUSH2 0x23E4 JUMPI PUSH0 DUP1 REVERT JUMPDEST DUP2 MLOAD PUSH2 0x22EE DUP2 PUSH2 0x2164 JUMP JUMPDEST PUSH4 0x4E487B71 PUSH1 0xE0 SHL PUSH0 MSTORE PUSH1 0x11 PUSH1 0x4 MSTORE PUSH1 0x24 PUSH0 REVERT JUMPDEST DUP1 DUP3 MUL DUP2 ISZERO DUP3 DUP3 DIV DUP5 EQ OR PUSH2 0x8C4 JUMPI PUSH2 0x8C4 PUSH2 0x23EF JUMP JUMPDEST PUSH0 DUP3 PUSH2 0x2434 JUMPI PUSH4 0x4E487B71 PUSH1 0xE0 SHL PUSH0 MSTORE PUSH1 0x12 PUSH1 0x4 MSTORE PUSH1 0x24 PUSH0 REVERT JUMPDEST POP DIV SWAP1 JUMP JUMPDEST DUP2 DUP2 SUB DUP2 DUP2 GT ISZERO PUSH2 0x8C4 JUMPI PUSH2 0x8C4 PUSH2 0x23EF JUMP JUMPDEST PUSH1 0x20 DUP1 DUP3 MSTORE PUSH1 0x19 SWAP1 DUP3 ADD MSTORE PUSH32 0x5472616E7366657220746F2073656C6C6572206661696C656400000000000000 PUSH1 0x40 DUP3 ADD MSTORE PUSH1 0x60 ADD SWAP1 JUMP JUMPDEST PUSH1 0x20 DUP1 DUP3 MSTORE PUSH1 0x13 SWAP1 DUP3 ADD MSTORE PUSH19 0x119959481D1C985B9CD9995C8819985A5B1959 PUSH1 0x6A SHL PUSH1 0x40 DUP3 ADD MSTORE PUSH1 0x60 ADD SWAP1 JUMP JUMPDEST PUSH1 0x1 PUSH1 0x1 PUSH1 0xA0 SHL SUB SWAP4 DUP5 AND DUP2 MSTORE SWAP2 SWAP1 SWAP3 AND PUSH1 0x20 DUP3 ADD MSTORE PUSH1 0x40 DUP2 ADD SWAP2 SWAP1 SWAP2 MSTORE PUSH1 0x60 ADD SWAP1 JUMP JUMPDEST PUSH0 PUSH1 0x20 DUP3 DUP5 SUB SLT ISZERO PUSH2 0x24E4 JUMPI PUSH0 DUP1 REVERT JUMPDEST DUP2 MLOAD PUSH2 0x22EE DUP2 PUSH2 0x2265 JUMP JUMPDEST PUSH1 0x20 DUP1 DUP3 MSTORE PUSH1 0x11 SWAP1 DUP3 ADD MSTORE PUSH17 0x5072696365206D757374206265203E203 PUSH1 0x7C SHL PUSH1 0x40 DUP3 ADD MSTORE PUSH1 0x60 ADD SWAP1 JUMP JUMPDEST PUSH0 PUSH1 0x1 DUP3 ADD PUSH2 0x252B JUMPI PUSH2 0x252B PUSH2 0x23EF JUMP JUMPDEST POP PUSH1 0x1 ADD SWAP1 JUMP JUMPDEST PUSH0 PUSH1 0x20 DUP3 DUP5 SUB SLT ISZERO PUSH2 0x2542 JUMPI PUSH0 DUP1 REVERT JUMPDEST POP MLOAD SWAP2 SWAP1 POP JUMP JUMPDEST DUP1 DUP3 ADD DUP1 DUP3 GT ISZERO PUSH2 0x8C4 JUMPI PUSH2 0x8C4 PUSH2 0x23EF JUMP INVALID LOG2 PUSH5 0x6970667358 0x22 SLT KECCAK256 0x2B EXTCODEHASH SGT BLOBBASEFEE PUSH21 0x7BCD35B5F5A8C76FEE1DAD950B560EFC2D6BADAD93 CHAINID SWAP9 NOT CREATE 0xCE 0xEA PUSH5 0x736F6C6343 STOP ADDMOD NOT STOP CALLER "
				},
				"gasEstimates": {
					"creation": {
						"codeDepositCost": "1923600",
						"executionCost": "infinite",
						"totalCost": "infinite"
					},
					"external": {
						"FEE_DENOMINATOR()": "283",
						"acceptOffer(uint256)": "infinite",
						"allowedPaymentTokens(address)": "2567",
						"buyListing(uint256)": "infinite",
						"cancelListing(uint256)": "85786",
						"cancelOffer(uint256)": "76388",
						"createListing(address,uint256,address,uint256)": "infinite",
						"createOffer(address,uint256,address,uint256,uint256)": "infinite",
						"feePercent()": "2340",
						"feeRecipient()": "2382",
						"getListing(uint256)": "13554",
						"getListingByToken(address,uint256)": "2734",
						"getOffer(uint256)": "15840",
						"isListed(address,uint256)": "4906",
						"listings(uint256)": "13240",
						"nextListingId()": "2339",
						"nextOfferId()": "2384",
						"offers(uint256)": "15403",
						"onERC721Received(address,address,uint256,bytes)": "infinite",
						"owner()": "2420",
						"renounceOwnership()": "infinite",
						"setAllowedPaymentToken(address,bool)": "infinite",
						"setFeePercent(uint256)": "25689",
						"setFeeRecipient(address)": "27893",
						"tokenToListing(address,uint256)": "2670",
						"transferOwnership(address)": "infinite",
						"updateListingPrice(uint256,uint256)": "74617"
					}
				},
				"methodIdentifiers": {
					"FEE_DENOMINATOR()": "d73792a9",
					"acceptOffer(uint256)": "c815729d",
					"allowedPaymentTokens(address)": "697d312a",
					"buyListing(uint256)": "4884f459",
					"cancelListing(uint256)": "305a67a8",
					"cancelOffer(uint256)": "ef706adf",
					"createListing(address,uint256,address,uint256)": "b4a15355",
					"createOffer(address,uint256,address,uint256,uint256)": "d14027d4",
					"feePercent()": "7fd6f15c",
					"feeRecipient()": "46904840",
					"getListing(uint256)": "107a274a",
					"getListingByToken(address,uint256)": "248d9aa3",
					"getOffer(uint256)": "4579268a",
					"isListed(address,uint256)": "cdb3cd25",
					"listings(uint256)": "de74e57b",
					"nextListingId()": "aaccf1ec",
					"nextOfferId()": "5f5d0655",
					"offers(uint256)": "8a72ea6a",
					"onERC721Received(address,address,uint256,bytes)": "150b7a02",
					"owner()": "8da5cb5b",
					"renounceOwnership()": "715018a6",
					"setAllowedPaymentToken(address,bool)": "1d3c6674",
					"setFeePercent(uint256)": "7ce3489b",
					"setFeeRecipient(address)": "e74b981b",
					"tokenToListing(address,uint256)": "6f7b4352",
					"transferOwnership(address)": "f2fde38b",
					"updateListingPrice(uint256,uint256)": "c4604943"
				}
			},
			"storageLayout": {
				"storage": [
					{
						"astId": 158,
						"contract": "BidMarketplace.sol:GameMarketplace",
						"label": "_status",
						"offset": 0,
						"slot": "0",
						"type": "t_uint256"
					},
					{
						"astId": 8,
						"contract": "BidMarketplace.sol:GameMarketplace",
						"label": "_owner",
						"offset": 0,
						"slot": "1",
						"type": "t_address"
					},
					{
						"astId": 493,
						"contract": "BidMarketplace.sol:GameMarketplace",
						"label": "listings",
						"offset": 0,
						"slot": "2",
						"type": "t_mapping(t_uint256,t_struct(Listing)473_storage)"
					},
					{
						"astId": 495,
						"contract": "BidMarketplace.sol:GameMarketplace",
						"label": "nextListingId",
						"offset": 0,
						"slot": "3",
						"type": "t_uint256"
					},
					{
						"astId": 500,
						"contract": "BidMarketplace.sol:GameMarketplace",
						"label": "offers",
						"offset": 0,
						"slot": "4",
						"type": "t_mapping(t_uint256,t_struct(Offer)488_storage)"
					},
					{
						"astId": 502,
						"contract": "BidMarketplace.sol:GameMarketplace",
						"label": "nextOfferId",
						"offset": 0,
						"slot": "5",
						"type": "t_uint256"
					},
					{
						"astId": 508,
						"contract": "BidMarketplace.sol:GameMarketplace",
						"label": "tokenToListing",
						"offset": 0,
						"slot": "6",
						"type": "t_mapping(t_address,t_mapping(t_uint256,t_uint256))"
					},
					{
						"astId": 511,
						"contract": "BidMarketplace.sol:GameMarketplace",
						"label": "feePercent",
						"offset": 0,
						"slot": "7",
						"type": "t_uint256"
					},
					{
						"astId": 516,
						"contract": "BidMarketplace.sol:GameMarketplace",
						"label": "feeRecipient",
						"offset": 0,
						"slot": "8",
						"type": "t_address"
					},
					{
						"astId": 520,
						"contract": "BidMarketplace.sol:GameMarketplace",
						"label": "allowedPaymentTokens",
						"offset": 0,
						"slot": "9",
						"type": "t_mapping(t_address,t_bool)"
					}
				],
				"types": {
					"t_address": {
						"encoding": "inplace",
						"label": "address",
						"numberOfBytes": "20"
					},
					"t_bool": {
						"encoding": "inplace",
						"label": "bool",
						"numberOfBytes": "1"
					},
					"t_mapping(t_address,t_bool)": {
						"encoding": "mapping",
						"key": "t_address",
						"label": "mapping(address => bool)",
						"numberOfBytes": "32",
						"value": "t_bool"
					},
					"t_mapping(t_address,t_mapping(t_uint256,t_uint256))": {
						"encoding": "mapping",
						"key": "t_address",
						"label": "mapping(address => mapping(uint256 => uint256))",
						"numberOfBytes": "32",
						"value": "t_mapping(t_uint256,t_uint256)"
					},
					"t_mapping(t_uint256,t_struct(Listing)473_storage)": {
						"encoding": "mapping",
						"key": "t_uint256",
						"label": "mapping(uint256 => struct GameMarketplace.Listing)",
						"numberOfBytes": "32",
						"value": "t_struct(Listing)473_storage"
					},
					"t_mapping(t_uint256,t_struct(Offer)488_storage)": {
						"encoding": "mapping",
						"key": "t_uint256",
						"label": "mapping(uint256 => struct GameMarketplace.Offer)",
						"numberOfBytes": "32",
						"value": "t_struct(Offer)488_storage"
					},
					"t_mapping(t_uint256,t_uint256)": {
						"encoding": "mapping",
						"key": "t_uint256",
						"label": "mapping(uint256 => uint256)",
						"numberOfBytes": "32",
						"value": "t_uint256"
					},
					"t_struct(Listing)473_storage": {
						"encoding": "inplace",
						"label": "struct GameMarketplace.Listing",
						"members": [
							{
								"astId": 462,
								"contract": "BidMarketplace.sol:GameMarketplace",
								"label": "seller",
								"offset": 0,
								"slot": "0",
								"type": "t_address"
							},
							{
								"astId": 464,
								"contract": "BidMarketplace.sol:GameMarketplace",
								"label": "nftContract",
								"offset": 0,
								"slot": "1",
								"type": "t_address"
							},
							{
								"astId": 466,
								"contract": "BidMarketplace.sol:GameMarketplace",
								"label": "tokenId",
								"offset": 0,
								"slot": "2",
								"type": "t_uint256"
							},
							{
								"astId": 468,
								"contract": "BidMarketplace.sol:GameMarketplace",
								"label": "paymentToken",
								"offset": 0,
								"slot": "3",
								"type": "t_address"
							},
							{
								"astId": 470,
								"contract": "BidMarketplace.sol:GameMarketplace",
								"label": "price",
								"offset": 0,
								"slot": "4",
								"type": "t_uint256"
							},
							{
								"astId": 472,
								"contract": "BidMarketplace.sol:GameMarketplace",
								"label": "active",
								"offset": 0,
								"slot": "5",
								"type": "t_bool"
							}
						],
						"numberOfBytes": "192"
					},
					"t_struct(Offer)488_storage": {
						"encoding": "inplace",
						"label": "struct GameMarketplace.Offer",
						"members": [
							{
								"astId": 475,
								"contract": "BidMarketplace.sol:GameMarketplace",
								"label": "buyer",
								"offset": 0,
								"slot": "0",
								"type": "t_address"
							},
							{
								"astId": 477,
								"contract": "BidMarketplace.sol:GameMarketplace",
								"label": "nftContract",
								"offset": 0,
								"slot": "1",
								"type": "t_address"
							},
							{
								"astId": 479,
								"contract": "BidMarketplace.sol:GameMarketplace",
								"label": "tokenId",
								"offset": 0,
								"slot": "2",
								"type": "t_uint256"
							},
							{
								"astId": 481,
								"contract": "BidMarketplace.sol:GameMarketplace",
								"label": "paymentToken",
								"offset": 0,
								"slot": "3",
								"type": "t_address"
							},
							{
								"astId": 483,
								"contract": "BidMarketplace.sol:GameMarketplace",
								"label": "price",
								"offset": 0,
								"slot": "4",
								"type": "t_uint256"
							},
							{
								"astId": 485,
								"contract": "BidMarketplace.sol:GameMarketplace",
								"label": "expiresAt",
								"offset": 0,
								"slot": "5",
								"type": "t_uint256"
							},
							{
								"astId": 487,
								"contract": "BidMarketplace.sol:GameMarketplace",
								"label": "active",
								"offset": 0,
								"slot": "6",
								"type": "t_bool"
							}
						],
						"numberOfBytes": "224"
					},
					"t_uint256": {
						"encoding": "inplace",
						"label": "uint256",
						"numberOfBytes": "32"
					}
				}
			},
			"userdoc": {
				"kind": "user",
				"methods": {
					"acceptOffer(uint256)": {
						"notice": "Accept an offer (seller accepts buyer's offer)"
					},
					"buyListing(uint256)": {
						"notice": "Buy a listed NFT"
					},
					"cancelListing(uint256)": {
						"notice": "Cancel a listing"
					},
					"cancelOffer(uint256)": {
						"notice": "Cancel an offer"
					},
					"createListing(address,uint256,address,uint256)": {
						"notice": "Create a new listing for an NFT"
					},
					"createOffer(address,uint256,address,uint256,uint256)": {
						"notice": "Create an offer for an NFT"
					},
					"getListing(uint256)": {
						"notice": "Get listing details"
					},
					"getListingByToken(address,uint256)": {
						"notice": "Get listing ID for a token"
					},
					"getOffer(uint256)": {
						"notice": "Get offer details"
					},
					"isListed(address,uint256)": {
						"notice": "Check if a token is currently listed"
					},
					"setAllowedPaymentToken(address,bool)": {
						"notice": "Set whether a payment token is allowed"
					},
					"setFeePercent(uint256)": {
						"notice": "Update marketplace fee percentage"
					},
					"setFeeRecipient(address)": {
						"notice": "Update fee recipient address"
					},
					"updateListingPrice(uint256,uint256)": {
						"notice": "Update listing price"
					}
				},
				"notice": "Simple marketplace for in-game NFT trading with offers support",
				"version": 1
			}
		}
	}
}